{
  "_format": "hh-sol-artifact-1",
  "contractName": "Demonstrateur",
  "sourceName": "contracts/Demonstrateur.sol",
  "abi": [
    {
      "inputs": [
        {
          "internalType": "address",
          "name": "target",
          "type": "address"
        }
      ],
      "name": "AddressEmptyCode",
      "type": "error"
    },
    {
      "inputs": [
        {
          "internalType": "address",
          "name": "implementation",
          "type": "address"
        }
      ],
      "name": "ERC1967InvalidImplementation",
      "type": "error"
    },
    {
      "inputs": [],
      "name": "ERC1967NonPayable",
      "type": "error"
    },
    {
      "inputs": [
        {
          "internalType": "address",
          "name": "sender",
          "type": "address"
        },
        {
          "internalType": "uint256",
          "name": "tokenId",
          "type": "uint256"
        },
        {
          "internalType": "address",
          "name": "owner",
          "type": "address"
        }
      ],
      "name": "ERC721IncorrectOwner",
      "type": "error"
    },
    {
      "inputs": [
        {
          "internalType": "address",
          "name": "operator",
          "type": "address"
        },
        {
          "internalType": "uint256",
          "name": "tokenId",
          "type": "uint256"
        }
      ],
      "name": "ERC721InsufficientApproval",
      "type": "error"
    },
    {
      "inputs": [
        {
          "internalType": "address",
          "name": "approver",
          "type": "address"
        }
      ],
      "name": "ERC721InvalidApprover",
      "type": "error"
    },
    {
      "inputs": [
        {
          "internalType": "address",
          "name": "operator",
          "type": "address"
        }
      ],
      "name": "ERC721InvalidOperator",
      "type": "error"
    },
    {
      "inputs": [
        {
          "internalType": "address",
          "name": "owner",
          "type": "address"
        }
      ],
      "name": "ERC721InvalidOwner",
      "type": "error"
    },
    {
      "inputs": [
        {
          "internalType": "address",
          "name": "receiver",
          "type": "address"
        }
      ],
      "name": "ERC721InvalidReceiver",
      "type": "error"
    },
    {
      "inputs": [
        {
          "internalType": "address",
          "name": "sender",
          "type": "address"
        }
      ],
      "name": "ERC721InvalidSender",
      "type": "error"
    },
    {
      "inputs": [
        {
          "internalType": "uint256",
          "name": "tokenId",
          "type": "uint256"
        }
      ],
      "name": "ERC721NonexistentToken",
      "type": "error"
    },
    {
      "inputs": [],
      "name": "EnforcedPause",
      "type": "error"
    },
    {
      "inputs": [],
      "name": "ExpectedPause",
      "type": "error"
    },
    {
      "inputs": [],
      "name": "FailedInnerCall",
      "type": "error"
    },
    {
      "inputs": [],
      "name": "InvalidInitialization",
      "type": "error"
    },
    {
      "inputs": [],
      "name": "NotInitializing",
      "type": "error"
    },
    {
      "inputs": [
        {
          "internalType": "address",
          "name": "owner",
          "type": "address"
        }
      ],
      "name": "OwnableInvalidOwner",
      "type": "error"
    },
    {
      "inputs": [
        {
          "internalType": "address",
          "name": "account",
          "type": "address"
        }
      ],
      "name": "OwnableUnauthorizedAccount",
      "type": "error"
    },
    {
      "inputs": [
        {
          "internalType": "uint256",
          "name": "value",
          "type": "uint256"
        },
        {
          "internalType": "uint256",
          "name": "length",
          "type": "uint256"
        }
      ],
      "name": "StringsInsufficientHexLength",
      "type": "error"
    },
    {
      "inputs": [],
      "name": "UUPSUnauthorizedCallContext",
      "type": "error"
    },
    {
      "inputs": [
        {
          "internalType": "bytes32",
          "name": "slot",
          "type": "bytes32"
        }
      ],
      "name": "UUPSUnsupportedProxiableUUID",
      "type": "error"
    },
    {
      "anonymous": false,
      "inputs": [
        {
          "indexed": true,
          "internalType": "address",
          "name": "owner",
          "type": "address"
        },
        {
          "indexed": true,
          "internalType": "address",
          "name": "approved",
          "type": "address"
        },
        {
          "indexed": true,
          "internalType": "uint256",
          "name": "tokenId",
          "type": "uint256"
        }
      ],
      "name": "Approval",
      "type": "event"
    },
    {
      "anonymous": false,
      "inputs": [
        {
          "indexed": true,
          "internalType": "address",
          "name": "owner",
          "type": "address"
        },
        {
          "indexed": true,
          "internalType": "address",
          "name": "operator",
          "type": "address"
        },
        {
          "indexed": false,
          "internalType": "bool",
          "name": "approved",
          "type": "bool"
        }
      ],
      "name": "ApprovalForAll",
      "type": "event"
    },
    {
      "anonymous": false,
      "inputs": [
        {
          "indexed": false,
          "internalType": "uint256",
          "name": "_fromTokenId",
          "type": "uint256"
        },
        {
          "indexed": false,
          "internalType": "uint256",
          "name": "_toTokenId",
          "type": "uint256"
        }
      ],
      "name": "BatchMetadataUpdate",
      "type": "event"
    },
    {
      "anonymous": false,
      "inputs": [
        {
          "indexed": true,
          "internalType": "address",
          "name": "fournisseur",
          "type": "address"
        },
        {
          "indexed": true,
          "internalType": "address",
          "name": "client",
          "type": "address"
        },
        {
          "indexed": false,
          "internalType": "uint256",
          "name": "tokenIds",
          "type": "uint256"
        }
      ],
      "name": "EventExpedition",
      "type": "event"
    },
    {
      "anonymous": false,
      "inputs": [
        {
          "indexed": true,
          "internalType": "address",
          "name": "client",
          "type": "address"
        },
        {
          "indexed": true,
          "internalType": "address",
          "name": "fournisseur",
          "type": "address"
        },
        {
          "indexed": false,
          "internalType": "uint256",
          "name": "tokenIds",
          "type": "uint256"
        },
        {
          "indexed": false,
          "internalType": "uint256",
          "name": "workflowState",
          "type": "uint256"
        }
      ],
      "name": "EventReception",
      "type": "event"
    },
    {
      "anonymous": false,
      "inputs": [
        {
          "indexed": true,
          "internalType": "address",
          "name": "fournisseur",
          "type": "address"
        },
        {
          "indexed": false,
          "internalType": "uint256",
          "name": "tokenIds",
          "type": "uint256"
        }
      ],
      "name": "EventTokenination",
      "type": "event"
    },
    {
      "anonymous": false,
      "inputs": [
        {
          "indexed": false,
          "internalType": "uint64",
          "name": "version",
          "type": "uint64"
        }
      ],
      "name": "Initialized",
      "type": "event"
    },
    {
      "anonymous": false,
      "inputs": [
        {
          "indexed": false,
          "internalType": "uint256",
          "name": "_tokenId",
          "type": "uint256"
        }
      ],
      "name": "MetadataUpdate",
      "type": "event"
    },
    {
      "anonymous": false,
      "inputs": [
        {
          "indexed": true,
          "internalType": "address",
          "name": "previousOwner",
          "type": "address"
        },
        {
          "indexed": true,
          "internalType": "address",
          "name": "newOwner",
          "type": "address"
        }
      ],
      "name": "OwnershipTransferred",
      "type": "event"
    },
    {
      "anonymous": false,
      "inputs": [
        {
          "indexed": false,
          "internalType": "address",
          "name": "account",
          "type": "address"
        }
      ],
      "name": "Paused",
      "type": "event"
    },
    {
      "anonymous": false,
      "inputs": [
        {
          "indexed": true,
          "internalType": "address",
          "name": "from",
          "type": "address"
        },
        {
          "indexed": true,
          "internalType": "address",
          "name": "to",
          "type": "address"
        },
        {
          "indexed": true,
          "internalType": "uint256",
          "name": "tokenId",
          "type": "uint256"
        }
      ],
      "name": "Transfer",
      "type": "event"
    },
    {
      "anonymous": false,
      "inputs": [
        {
          "indexed": false,
          "internalType": "address",
          "name": "account",
          "type": "address"
        }
      ],
      "name": "Unpaused",
      "type": "event"
    },
    {
      "anonymous": false,
      "inputs": [
        {
          "indexed": true,
          "internalType": "address",
          "name": "implementation",
          "type": "address"
        }
      ],
      "name": "Upgraded",
      "type": "event"
    },
    {
      "inputs": [],
      "name": "UPGRADE_INTERFACE_VERSION",
      "outputs": [
        {
          "internalType": "string",
          "name": "",
          "type": "string"
        }
      ],
      "stateMutability": "view",
      "type": "function"
    },
    {
      "inputs": [],
      "name": "_addressContratMateriel",
      "outputs": [
        {
          "internalType": "address",
          "name": "",
          "type": "address"
        }
      ],
      "stateMutability": "view",
      "type": "function"
    },
    {
      "inputs": [],
      "name": "_addressContratRole",
      "outputs": [
        {
          "internalType": "address",
          "name": "",
          "type": "address"
        }
      ],
      "stateMutability": "view",
      "type": "function"
    },
    {
      "inputs": [
        {
          "internalType": "address",
          "name": "to",
          "type": "address"
        },
        {
          "internalType": "uint256",
          "name": "tokenId",
          "type": "uint256"
        }
      ],
      "name": "approve",
      "outputs": [],
      "stateMutability": "nonpayable",
      "type": "function"
    },
    {
      "inputs": [
        {
          "internalType": "address",
          "name": "owner",
          "type": "address"
        }
      ],
      "name": "balanceOf",
      "outputs": [
        {
          "internalType": "uint256",
          "name": "",
          "type": "uint256"
        }
      ],
      "stateMutability": "view",
      "type": "function"
    },
    {
      "inputs": [
        {
          "internalType": "address",
          "name": "client",
          "type": "address"
        },
        {
          "internalType": "address",
          "name": "iot",
          "type": "address"
        },
        {
          "internalType": "uint256",
          "name": "itemId",
          "type": "uint256"
        }
      ],
      "name": "expedition",
      "outputs": [],
      "stateMutability": "nonpayable",
      "type": "function"
    },
    {
      "inputs": [
        {
          "internalType": "uint256",
          "name": "tokenId",
          "type": "uint256"
        }
      ],
      "name": "getApproved",
      "outputs": [
        {
          "internalType": "address",
          "name": "",
          "type": "address"
        }
      ],
      "stateMutability": "view",
      "type": "function"
    },
    {
      "inputs": [
        {
          "internalType": "address",
          "name": "owner",
          "type": "address"
        }
      ],
      "name": "getIdByOwner",
      "outputs": [
        {
          "internalType": "string[]",
          "name": "",
          "type": "string[]"
        }
      ],
      "stateMutability": "view",
      "type": "function"
    },
    {
      "inputs": [
        {
          "internalType": "address",
          "name": "client",
          "type": "address"
        }
      ],
      "name": "getJsonByClient",
      "outputs": [
        {
          "internalType": "string",
          "name": "",
          "type": "string"
        }
      ],
      "stateMutability": "view",
      "type": "function"
    },
    {
      "inputs": [
        {
          "internalType": "address",
          "name": "fournisseur",
          "type": "address"
        }
      ],
      "name": "getJsonByFournisseur",
      "outputs": [
        {
          "internalType": "string",
          "name": "",
          "type": "string"
        }
      ],
      "stateMutability": "view",
      "type": "function"
    },
    {
      "inputs": [
        {
          "internalType": "address",
          "name": "owner",
          "type": "address"
        }
      ],
      "name": "getJsonMyMateriels",
      "outputs": [
        {
          "internalType": "string",
          "name": "",
          "type": "string"
        }
      ],
      "stateMutability": "view",
      "type": "function"
    },
    {
      "inputs": [],
      "name": "getListeCommandes",
      "outputs": [
        {
          "components": [
            {
              "internalType": "uint256",
              "name": "tokenId",
              "type": "uint256"
            },
            {
              "internalType": "address",
              "name": "fournisseur",
              "type": "address"
            },
            {
              "internalType": "string",
              "name": "nomFournisseur",
              "type": "string"
            },
            {
              "internalType": "address",
              "name": "client",
              "type": "address"
            },
            {
              "internalType": "string",
              "name": "nomClient",
              "type": "string"
            },
            {
              "internalType": "uint256",
              "name": "idMateriel",
              "type": "uint256"
            },
            {
              "internalType": "string",
              "name": "nomMateriel",
              "type": "string"
            },
            {
              "internalType": "string",
              "name": "referenceMateriel",
              "type": "string"
            },
            {
              "internalType": "string",
              "name": "urlImage",
              "type": "string"
            },
            {
              "internalType": "uint256",
              "name": "dateExpedition",
              "type": "uint256"
            },
            {
              "internalType": "uint256",
              "name": "dateReception",
              "type": "uint256"
            },
            {
              "internalType": "address",
              "name": "addressReception",
              "type": "address"
            },
            {
              "internalType": "string",
              "name": "nomReception",
              "type": "string"
            },
            {
              "internalType": "enum Demonstrateur.WorkflowState",
              "name": "workflowState",
              "type": "uint8"
            }
          ],
          "internalType": "struct Demonstrateur.Commande[]",
          "name": "",
          "type": "tuple[]"
        }
      ],
      "stateMutability": "view",
      "type": "function"
    },
    {
      "inputs": [],
      "name": "getVersion",
      "outputs": [
        {
          "internalType": "string",
          "name": "",
          "type": "string"
        }
      ],
      "stateMutability": "pure",
      "type": "function"
    },
    {
      "inputs": [
        {
          "internalType": "string",
          "name": "definitiveName",
          "type": "string"
        },
        {
          "internalType": "string",
          "name": "definitiveSymbol",
          "type": "string"
        },
        {
          "internalType": "string",
          "name": "definitiveBaseURI",
          "type": "string"
        }
      ],
      "name": "initialize",
      "outputs": [],
      "stateMutability": "nonpayable",
      "type": "function"
    },
    {
      "inputs": [
        {
          "internalType": "address",
          "name": "owner",
          "type": "address"
        },
        {
          "internalType": "address",
          "name": "operator",
          "type": "address"
        }
      ],
      "name": "isApprovedForAll",
      "outputs": [
        {
          "internalType": "bool",
          "name": "",
          "type": "bool"
        }
      ],
      "stateMutability": "view",
      "type": "function"
    },
    {
      "inputs": [],
      "name": "name",
      "outputs": [
        {
          "internalType": "string",
          "name": "",
          "type": "string"
        }
      ],
      "stateMutability": "view",
      "type": "function"
    },
    {
      "inputs": [],
      "name": "owner",
      "outputs": [
        {
          "internalType": "address",
          "name": "",
          "type": "address"
        }
      ],
      "stateMutability": "view",
      "type": "function"
    },
    {
      "inputs": [
        {
          "internalType": "uint256",
          "name": "tokenId",
          "type": "uint256"
        }
      ],
      "name": "ownerOf",
      "outputs": [
        {
          "internalType": "address",
          "name": "",
          "type": "address"
        }
      ],
      "stateMutability": "view",
      "type": "function"
    },
    {
      "inputs": [],
      "name": "pause",
      "outputs": [],
      "stateMutability": "nonpayable",
      "type": "function"
    },
    {
      "inputs": [],
      "name": "paused",
      "outputs": [
        {
          "internalType": "bool",
          "name": "",
          "type": "bool"
        }
      ],
      "stateMutability": "view",
      "type": "function"
    },
    {
      "inputs": [],
      "name": "proxiableUUID",
      "outputs": [
        {
          "internalType": "bytes32",
          "name": "",
          "type": "bytes32"
        }
      ],
      "stateMutability": "view",
      "type": "function"
    },
    {
      "inputs": [
        {
          "internalType": "uint256",
          "name": "itemId",
          "type": "uint256"
        },
        {
          "internalType": "uint256",
          "name": "workflowState",
          "type": "uint256"
        }
      ],
      "name": "reception",
      "outputs": [],
      "stateMutability": "nonpayable",
      "type": "function"
    },
    {
      "inputs": [
        {
          "internalType": "uint256",
          "name": "itemId",
          "type": "uint256"
        }
      ],
      "name": "receptionByContract",
      "outputs": [],
      "stateMutability": "nonpayable",
      "type": "function"
    },
    {
      "inputs": [
        {
          "internalType": "uint256",
          "name": "itemId",
          "type": "uint256"
        },
        {
          "internalType": "uint256",
          "name": "workflowState",
          "type": "uint256"
        }
      ],
      "name": "receptionIOT",
      "outputs": [],
      "stateMutability": "nonpayable",
      "type": "function"
    },
    {
      "inputs": [],
      "name": "renounceOwnership",
      "outputs": [],
      "stateMutability": "nonpayable",
      "type": "function"
    },
    {
      "inputs": [
        {
          "internalType": "address",
          "name": "from",
          "type": "address"
        },
        {
          "internalType": "address",
          "name": "to",
          "type": "address"
        },
        {
          "internalType": "uint256",
          "name": "tokenId",
          "type": "uint256"
        }
      ],
      "name": "safeTransferFrom",
      "outputs": [],
      "stateMutability": "nonpayable",
      "type": "function"
    },
    {
      "inputs": [
        {
          "internalType": "address",
          "name": "from",
          "type": "address"
        },
        {
          "internalType": "address",
          "name": "to",
          "type": "address"
        },
        {
          "internalType": "uint256",
          "name": "tokenId",
          "type": "uint256"
        },
        {
          "internalType": "bytes",
          "name": "data",
          "type": "bytes"
        }
      ],
      "name": "safeTransferFrom",
      "outputs": [],
      "stateMutability": "nonpayable",
      "type": "function"
    },
    {
      "inputs": [
        {
          "internalType": "address",
          "name": "addressContratMateriel",
          "type": "address"
        }
      ],
      "name": "setAddressContratMateriel",
      "outputs": [],
      "stateMutability": "nonpayable",
      "type": "function"
    },
    {
      "inputs": [
        {
          "internalType": "address",
          "name": "addressContratRole",
          "type": "address"
        }
      ],
      "name": "setAddressContratRole",
      "outputs": [],
      "stateMutability": "nonpayable",
      "type": "function"
    },
    {
      "inputs": [
        {
          "internalType": "address",
          "name": "operator",
          "type": "address"
        },
        {
          "internalType": "bool",
          "name": "approved",
          "type": "bool"
        }
      ],
      "name": "setApprovalForAll",
      "outputs": [],
      "stateMutability": "nonpayable",
      "type": "function"
    },
    {
      "inputs": [
        {
          "internalType": "bytes4",
          "name": "interfaceId",
          "type": "bytes4"
        }
      ],
      "name": "supportsInterface",
      "outputs": [
        {
          "internalType": "bool",
          "name": "",
          "type": "bool"
        }
      ],
      "stateMutability": "view",
      "type": "function"
    },
    {
      "inputs": [],
      "name": "symbol",
      "outputs": [
        {
          "internalType": "string",
          "name": "",
          "type": "string"
        }
      ],
      "stateMutability": "view",
      "type": "function"
    },
    {
      "inputs": [
        {
          "internalType": "uint256",
          "name": "tokenId",
          "type": "uint256"
        }
      ],
      "name": "tokenURI",
      "outputs": [
        {
          "internalType": "string",
          "name": "",
          "type": "string"
        }
      ],
      "stateMutability": "view",
      "type": "function"
    },
    {
      "inputs": [
        {
          "internalType": "uint256",
          "name": "idMateriel",
          "type": "uint256"
        },
        {
          "internalType": "string",
          "name": "uri",
          "type": "string"
        },
        {
          "internalType": "string",
          "name": "urlImage",
          "type": "string"
        },
        {
          "internalType": "string",
          "name": "referenceMateriel",
          "type": "string"
        }
      ],
      "name": "tokenisation",
      "outputs": [],
      "stateMutability": "nonpayable",
      "type": "function"
    },
    {
      "inputs": [
        {
          "internalType": "address",
          "name": "from",
          "type": "address"
        },
        {
          "internalType": "address",
          "name": "to",
          "type": "address"
        },
        {
          "internalType": "uint256",
          "name": "tokenId",
          "type": "uint256"
        }
      ],
      "name": "transferFrom",
      "outputs": [],
      "stateMutability": "nonpayable",
      "type": "function"
    },
    {
      "inputs": [
        {
          "internalType": "address",
          "name": "newOwner",
          "type": "address"
        }
      ],
      "name": "transferOwnership",
      "outputs": [],
      "stateMutability": "nonpayable",
      "type": "function"
    },
    {
      "inputs": [],
      "name": "unpause",
      "outputs": [],
      "stateMutability": "nonpayable",
      "type": "function"
    },
    {
      "inputs": [
        {
          "internalType": "address",
          "name": "newImplementation",
          "type": "address"
        },
        {
          "internalType": "bytes",
          "name": "data",
          "type": "bytes"
        }
      ],
      "name": "upgradeToAndCall",
      "outputs": [],
      "stateMutability": "payable",
      "type": "function"
    }
  ],
  "bytecode": "0x60a06040523060805234801561001457600080fd5b50608051615b396200003f6000396000818161310d01528181613136015261326d0152615b396000f3fe6080604052600436106101e55760003560e01c8063715018a611610103578063ad3cb1cc1161009b578063ad3cb1cc1461055d578063b88d4fde1461058e578063bcc68b2b146105ae578063c87b56dd146105ce578063de656b3c146105ee578063e985e9c514610610578063efbb93d014610630578063f2fde38b14610650578063f3ee11a214610670578063f7fa2ffe1461069057600080fd5b8063715018a6146104695780638307df121461047e5780638456cb591461049e5780638da5cb5b146104b357806395d89b41146104c85780639bad155e146104dd5780639f32d1a5146104fd578063a22cb4651461051d578063a6487c531461053d57600080fd5b80633f4ba83a116101815780633f4ba83a1461034a57806342842e0e1461035f5780634f1ef2861461037f57806352d1902d146103925780635b06d203146103b45780635c975abb146103d45780636077e144146103e95780636352211e146104095780636d5128d71461042957806370a082311461044957600080fd5b806301ffc9a7146101ea57806306fdde0314610220578063081812fc14610242578063095ea7b31461026f5780630d8e6e2c146102915780630dc05e59146102bd57806310b50626146102dd57806317c21c6d1461030a57806323b872dd1461032a575b600080fd5b3480156101f657600080fd5b5061020a6102053660046148d1565b6106b0565b60405161021791906148fc565b60405180910390f35b34801561022c57600080fd5b506102356106db565b604051610217919061496c565b34801561024e57600080fd5b5061026261025d36600461498e565b61077c565b60405161021791906149c9565b34801561027b57600080fd5b5061028f61028a3660046149eb565b610791565b005b34801561029d57600080fd5b50604080518082019091526003815262312e3160e81b6020820152610235565b3480156102c957600080fd5b5061028f6102d8366004614a28565b6107a0565b3480156102e957600080fd5b506102fd6102f8366004614a4a565b610b9e565b6040516102179190614ae1565b34801561031657600080fd5b5061028f610325366004614af2565b610cac565b34801561033657600080fd5b5061028f610345366004614af2565b610fd1565b34801561035657600080fd5b5061028f611048565b34801561036b57600080fd5b5061028f61037a366004614af2565b61105a565b61028f61038d366004614c35565b61107a565b34801561039e57600080fd5b506103a7611095565b6040516102179190614c88565b3480156103c057600080fd5b506102356103cf366004614a4a565b6110b2565b3480156103e057600080fd5b5061020a61119e565b3480156103f557600080fd5b50600354610262906001600160a01b031681565b34801561041557600080fd5b5061026261042436600461498e565b6111b3565b34801561043557600080fd5b5061028f610444366004614a4a565b6111be565b34801561045557600080fd5b506103a7610464366004614a4a565b6111e8565b34801561047557600080fd5b5061028f611240565b34801561048a57600080fd5b5061028f610499366004614a4a565b611252565b3480156104aa57600080fd5b5061028f61127c565b3480156104bf57600080fd5b5061026261128c565b3480156104d457600080fd5b506102356112a7565b3480156104e957600080fd5b5061028f6104f8366004614c96565b6112c4565b34801561050957600080fd5b50610235610518366004614a4a565b61176c565b34801561052957600080fd5b5061028f610538366004614d5b565b611daf565b34801561054957600080fd5b5061028f610558366004614d8e565b611dba565b34801561056957600080fd5b50610235604051806040016040528060058152602001640352e302e360dc1b81525081565b34801561059a57600080fd5b5061028f6105a9366004614e21565b611eee565b3480156105ba57600080fd5b50600254610262906001600160a01b031681565b3480156105da57600080fd5b506102356105e936600461498e565b611f05565b3480156105fa57600080fd5b50610603612018565b6040516102179190615052565b34801561061c57600080fd5b5061020a61062b366004615063565b612562565b34801561063c57600080fd5b5061028f61064b366004614a28565b6125a1565b34801561065c57600080fd5b5061028f61066b366004614a4a565b6125ab565b34801561067c57600080fd5b5061023561068b366004614a4a565b6125e9565b34801561069c57600080fd5b5061028f6106ab36600461498e565b612c0e565b60006001600160e01b03198216632483248360e11b14806106d557506106d582612c9c565b92915050565b606060006106e7612cec565b90508060000180546106f8906150ac565b80601f0160208091040260200160405190810160405280929190818152602001828054610724906150ac565b80156107715780601f1061074657610100808354040283529160200191610771565b820191906000526020600020905b81548152906001019060200180831161075457829003601f168201915b505050505091505090565b600061078782612d10565b506106d582612d47565b61079c828233612d70565b5050565b600254604051631effddf560e21b815233916000916001600160a01b0390911690637bff77d4906107d59085906004016149c9565b600060405180830381865afa1580156107f2573d6000803e3d6000fd5b505050506040513d6000823e601f3d908101601f1916820160405261081a919081019061512a565b905060405160200161082b90615164565b60405160208183030381529060405280519060200120816040516020016108529190615197565b6040516020818303038152906040528051906020012014806108c357506040516510db1a595b9d60d21b602082015260260160405160208183030381529060405280519060200120816040516020016108ab9190615197565b60405160208183030381529060405280519060200120145b8061091a575060405162125bdd60ea1b602082015260230160405160208183030381529060405280519060200120816040516020016109029190615197565b60405160208183030381529060405280519060200120145b61093f5760405162461bcd60e51b8152600401610936906151c7565b60405180910390fd5b610962604051806060016040528060248152602001615a69602491398585612d7d565b82158061096f5750826001145b8061097a5750826002145b6109965760405162461bcd60e51b815260040161093690615204565b82600003610ac857600084815260046020819052604091829020600d8101805460ff1916600290811790915542600a830155600b9091018054336001600160a01b0319909116811790915590549251634713a58f60e01b81526001600160a01b0390931692634713a58f92610a0c9291016149c9565b600060405180830381865afa158015610a29573d6000803e3d6000fd5b505050506040513d6000823e601f3d908101601f19168201604052610a51919081019061512a565b6000858152600460205260409020600c0190610a6d90826152d1565b50604051637bfd17ff60e11b8152309063f7fa2ffe90610a91908790600401614c88565b600060405180830381600087803b158015610aab57600080fd5b505af1158015610abf573d6000803e3d6000fd5b50505050610b34565b82600103610af1576000848152600460205260409020600d01805460ff19166003179055610b34565b6000848152600460208190526040909120600d8101805460ff19169092179091556003810154600190910154610b34916001600160a01b03908116911686610fd1565b60008481526004602052604090819020600181015460039091015491516001600160a01b0391821692909116907f0b2b0b9cd2852db9a263848c6174c04304ce5b5d76c710f722992b1e7a94279190610b90908890889061538b565b60405180910390a350505050565b6060610bd960405180604001604052806017815260200176676574496442794f776e6572206164647265737320257360481b81525083612dc4565b600080610be584612e09565b6001600160401b03811115610bfc57610bfc614b42565b604051908082528060200260200182016040528015610c2f57816020015b6060815260200190600190039081610c1a5790505b50905060005b600054811015610ca457846001600160a01b0316610c52826111b3565b6001600160a01b031603610c9257610c6981612e97565b8284610c74816153bc565b955081518110610c8657610c866153d5565b60200260200101819052505b80610c9c816153bc565b915050610c35565b509392505050565b600254604051631effddf560e21b815233916000916001600160a01b0390911690637bff77d490610ce19085906004016149c9565b600060405180830381865afa158015610cfe573d6000803e3d6000fd5b505050506040513d6000823e601f3d908101601f19168201604052610d26919081019061512a565b9050604051602001610d3790615164565b6040516020818303038152906040528051906020012081604051602001610d5e9190615197565b604051602081830303815290604052805190602001201480610dc95750604051602001610d8a906153eb565b6040516020818303038152906040528051906020012081604051602001610db19190615197565b60405160208183030381529060405280519060200120145b610de55760405162461bcd60e51b815260040161093690615426565b610e256040518060400160405280601f81526020017f65787065646974696f6e2061646472657373202573206974656d4964202573008152508685612f29565b6001600160a01b038516610e4b5760405162461bcd60e51b81526004016109369061545d565b6000838152600460205260409020600101546001600160a01b03163314610e845760405162461bcd60e51b815260040161093690615498565b610e8e3084610791565b6000838152600460208190526040808320426009820155600a810193909355600390920180546001600160a01b0319166001600160a01b03898116919091179091556002549251632163b10160e01b8152921691632163b10191610ef4918991016149c9565b600060405180830381865afa158015610f11573d6000803e3d6000fd5b505050506040513d6000823e601f3d908101601f19168201604052610f39919081019061512a565b60008481526004602081905260409091200190610f5690826152d1565b5060008381526004602052604090819020600b810180546001600160a01b0319169055600d01805460ff19166001179055516001600160a01b0386169033907ffaa2c8a22696158f969938e11eaba6b662b2879a83841f1b0499692e1af8ca8190610fc2908790614c88565b60405180910390a35050505050565b6001600160a01b038216610ffb576000604051633250574960e11b815260040161093691906149c9565b6000611008838333612f70565b9050836001600160a01b0316816001600160a01b031614611042578382826040516364283d7b60e01b8152600401610936939291906154a8565b50505050565b611050613079565b6110586130ab565b565b61107583838360405180602001604052806000815250611eee565b505050565b611082613102565b61108b826131a7565b61079c82826131af565b600061109f613262565b50600080516020615aae83398151915290565b6040805180820190915260018152605b60f81b60208201526060906000805b6000548160ff16101561114657846001600160a01b03166110f48260ff166111b3565b6001600160a01b031603611134578261110d83836132ab565b60405160200161111e9291906154d0565b6040516020818303038152906040529250600191505b8061113e816154e6565b9150506110d1565b508160405160200161115891906154fc565b60408051601f19818403018152828201909152601382527203539b7b726bca6b0ba32b934b2b6399012b99606d1b6020830152925061119790836139d9565b5092915050565b6000806111a9613a1e565b5460ff1692915050565b60006106d582612d10565b6111c6613079565b600380546001600160a01b0319166001600160a01b0392909216919091179055565b6000806111f3612cec565b90506001600160a01b03831661121f5760006040516322718ad960e21b815260040161093691906149c9565b6001600160a01b039092166000908152600390920160205250604090205490565b611248613079565b6110586000613a42565b61125a613079565b600280546001600160a01b0319166001600160a01b0392909216919091179055565b611284613079565b611058613a9e565b600080611297613ae5565b546001600160a01b031692915050565b606060006112b3612cec565b90508060010180546106f8906150ac565b600254604051631effddf560e21b815233916000916001600160a01b0390911690637bff77d4906112f99085906004016149c9565b600060405180830381865afa158015611316573d6000803e3d6000fd5b505050506040513d6000823e601f3d908101601f1916820160405261133e919081019061512a565b905060405160200161134f90615164565b60405160208183030381529060405280519060200120816040516020016113769190615197565b6040516020818303038152906040528051906020012014806113e157506040516020016113a2906153eb565b60405160208183030381529060405280519060200120816040516020016113c99190615197565b60405160208183030381529060405280519060200120145b6113fd5760405162461bcd60e51b815260040161093690615426565b611421604051806060016040528060368152602001615ace60369139878786613b09565b61142d33600054613b52565b61143960005486613b6c565b604080516101c08101825260005481523360208201819052600254835163e2339ba360e01b815292938401926001600160a01b039091169163e2339ba39161148491906004016149c9565b600060405180830381865afa1580156114a1573d6000803e3d6000fd5b505050506040513d6000823e601f3d908101601f191682016040526114c9919081019061512a565b8152600060208083018290526040805191820181529181528183015260608201899052600354905163a80f602d60e01b81526080909201916001600160a01b039091169063a80f602d90611521908b90600401614c88565b600060405180830381865afa15801561153e573d6000803e3d6000fd5b505050506040513d6000823e601f3d908101601f19168201604052611566919081019061512a565b8152602001848152602001858152602001600081526020016000815260200160006001600160a01b03168152602001604051806020016040528060008152508152602001600060048111156115bd576115bd614e68565b90526000805481526004602090815260409182902083518155908301516001820180546001600160a01b0319166001600160a01b0390921691909117905590820151600282019061160e90826152d1565b5060608201516003820180546001600160a01b0319166001600160a01b039092169190911790556080820151600482019061164990826152d1565b5060a0820151600582015560c0820151600682019061166890826152d1565b5060e0820151600782019061167d90826152d1565b50610100820151600882019061169390826152d1565b506101208201516009820155610140820151600a820155610160820151600b820180546001600160a01b0319166001600160a01b03909216919091179055610180820151600c8201906116e690826152d1565b506101a0820151600d8201805460ff1916600183600481111561170b5761170b614e68565b0217905550506000546040513392507f87a149df8c648541e8984a3f6382b2ce57781dd46bd729f772c3989cc9a76c7c9161174591614c88565b60405180910390a2600160008082825461175f9190615516565b9091555050505050505050565b60606117ad6040518060400160405280601d81526020017f67657449644279466f75726e697373657572206164647265737320257300000081525083612dc4565b60408051808201825260018152605b60f81b602080830191909152825190810190925260008083529091815b600054811015611d5757600081815260046020908152604080832081516101c0810183528154815260018201546001600160a01b031693810193909352600281018054919284019161182a906150ac565b80601f0160208091040260200160405190810160405280929190818152602001828054611856906150ac565b80156118a35780601f10611878576101008083540402835291602001916118a3565b820191906000526020600020905b81548152906001019060200180831161188657829003601f168201915b505050918352505060038201546001600160a01b031660208201526004820180546040909201916118d3906150ac565b80601f01602080910402602001604051908101604052809291908181526020018280546118ff906150ac565b801561194c5780601f106119215761010080835404028352916020019161194c565b820191906000526020600020905b81548152906001019060200180831161192f57829003601f168201915b505050505081526020016005820154815260200160068201805461196f906150ac565b80601f016020809104026020016040519081016040528092919081815260200182805461199b906150ac565b80156119e85780601f106119bd576101008083540402835291602001916119e8565b820191906000526020600020905b8154815290600101906020018083116119cb57829003601f168201915b50505050508152602001600782018054611a01906150ac565b80601f0160208091040260200160405190810160405280929190818152602001828054611a2d906150ac565b8015611a7a5780601f10611a4f57610100808354040283529160200191611a7a565b820191906000526020600020905b815481529060010190602001808311611a5d57829003601f168201915b50505050508152602001600882018054611a93906150ac565b80601f0160208091040260200160405190810160405280929190818152602001828054611abf906150ac565b8015611b0c5780601f10611ae157610100808354040283529160200191611b0c565b820191906000526020600020905b815481529060010190602001808311611aef57829003601f168201915b505050918352505060098201546020820152600a8201546040820152600b8201546001600160a01b03166060820152600c82018054608090920191611b50906150ac565b80601f0160208091040260200160405190810160405280929190818152602001828054611b7c906150ac565b8015611bc95780601f10611b9e57610100808354040283529160200191611bc9565b820191906000526020600020905b815481529060010190602001808311611bac57829003601f168201915b5050509183525050600d82015460209091019060ff166004811115611bf057611bf0614e68565b6004811115611c0157611c01614e68565b815250509050866001600160a01b031681602001516001600160a01b0316148015611c4357506002816101a001516004811115611c4057611c40614e68565b14155b15611d44578315611c6b57604051806040016040528060018152602001600b60fa1b81525092505b60035460a082015160405163a80f602d60e01b81526000926001600160a01b03169163a80f602d91611ca09190600401614c88565b600060405180830381865afa158015611cbd573d6000803e3d6000fd5b505050506040513d6000823e601f3d908101601f19168201604052611ce5919081019061512a565b9050611d09604051806060016040528060218152602001615a8d60219139826139d9565b8584611d1485612e97565b60e0850151604051611d2d949392918691602001615568565b604051602081830303815290604052955060019450505b5080611d4f816153bc565b9150506117d9565b5082604051602001611d6991906154fc565b60408051601f19818403018152828201909152601182527002539b7b721b7b6b6b0b73232b99012b99607d1b60208301529350611da690846139d9565b50909392505050565b61079c338383613bce565b6000611dc4613c69565b805490915060ff600160401b82041615906001600160401b0316600081158015611deb5750825b90506000826001600160401b03166001148015611e075750303b155b905081158015611e15575080155b15611e335760405163f92ee8a960e01b815260040160405180910390fd5b845467ffffffffffffffff191660011785558315611e5d57845460ff60401b1916600160401b1785555b611e678888613c8d565b611e6f613c9f565b611e7833613ca7565b611e80613c9f565b611e88613cb8565b600080556001611e9887826152d1565b508315611ee457845460ff60401b191685556040517fc7f505b2f371ae2175ee4913f4499e1f2633a7b5936321eed1cdaeb6115181d290611edb90600190615610565b60405180910390a15b5050505050505050565b611ef9848484610fd1565b61104284848484613cc8565b60606000611f11613ddf565b9050611f1c83612d10565b5060008381526020829052604081208054611f36906150ac565b80601f0160208091040260200160405190810160405280929190818152602001828054611f62906150ac565b8015611faf5780601f10611f8457610100808354040283529160200191611faf565b820191906000526020600020905b815481529060010190602001808311611f9257829003601f168201915b505050505090506000611fc0613e03565b90508051600003611fd357509392505050565b815115612006578082604051602001611fed9291906154d0565b6040516020818303038152906040529350505050919050565b61200f85613e95565b95945050505050565b606061205b6040518060400160405280601e81526020017f6765744c69737465436f6d6d616e646573205f746f6b656e4964732025730000815250600054613efc565b600080546001600160401b0381111561207657612076614b42565b6040519080825280602002602001820160405280156120af57816020015b61209c614815565b8152602001906001900390816120945790505b50905060005b6000548160ff16101561255c576120fd604051806040016040528060168152602001756765744c69737465436f6d6d616e646573206920257360501b8152508260ff16613efc565b60ff811660009081526004602090815260409182902082516101c0810184528154815260018201546001600160a01b03169281019290925260028101805491938492908401919061214d906150ac565b80601f0160208091040260200160405190810160405280929190818152602001828054612179906150ac565b80156121c65780601f1061219b576101008083540402835291602001916121c6565b820191906000526020600020905b8154815290600101906020018083116121a957829003601f168201915b505050918352505060038201546001600160a01b031660208201526004820180546040909201916121f6906150ac565b80601f0160208091040260200160405190810160405280929190818152602001828054612222906150ac565b801561226f5780601f106122445761010080835404028352916020019161226f565b820191906000526020600020905b81548152906001019060200180831161225257829003601f168201915b5050505050815260200160058201548152602001600682018054612292906150ac565b80601f01602080910402602001604051908101604052809291908181526020018280546122be906150ac565b801561230b5780601f106122e05761010080835404028352916020019161230b565b820191906000526020600020905b8154815290600101906020018083116122ee57829003601f168201915b50505050508152602001600782018054612324906150ac565b80601f0160208091040260200160405190810160405280929190818152602001828054612350906150ac565b801561239d5780601f106123725761010080835404028352916020019161239d565b820191906000526020600020905b81548152906001019060200180831161238057829003601f168201915b505050505081526020016008820180546123b6906150ac565b80601f01602080910402602001604051908101604052809291908181526020018280546123e2906150ac565b801561242f5780601f106124045761010080835404028352916020019161242f565b820191906000526020600020905b81548152906001019060200180831161241257829003601f168201915b505050918352505060098201546020820152600a8201546040820152600b8201546001600160a01b03166060820152600c82018054608090920191612473906150ac565b80601f016020809104026020016040519081016040528092919081815260200182805461249f906150ac565b80156124ec5780601f106124c1576101008083540402835291602001916124ec565b820191906000526020600020905b8154815290600101906020018083116124cf57829003601f168201915b5050509183525050600d82015460209091019060ff16600481111561251357612513614e68565b600481111561252457612524614e68565b81525050838360ff168151811061253d5761253d6153d5565b6020026020010181905250508080612554906154e6565b9150506120b5565b50919050565b60008061256d612cec565b6001600160a01b03948516600090815260059190910160209081526040808320959096168252939093525050205460ff1690565b61079c82826107a0565b6125b3613079565b6001600160a01b0381166125dd576000604051631e4fbdf760e01b815260040161093691906149c9565b6125e681613a42565b50565b60606126276040518060400160405280601a8152602001796765744a736f6e4279436c69656e74206164647265737320257360301b81525083612dc4565b60408051808201825260018152605b60f81b602080830191909152825190810190925260008083529091815b600054811015611d5757600081815260046020908152604080832081516101c0810183528154815260018201546001600160a01b03169381019390935260028101805491928401916126a4906150ac565b80601f01602080910402602001604051908101604052809291908181526020018280546126d0906150ac565b801561271d5780601f106126f25761010080835404028352916020019161271d565b820191906000526020600020905b81548152906001019060200180831161270057829003601f168201915b505050918352505060038201546001600160a01b0316602082015260048201805460409092019161274d906150ac565b80601f0160208091040260200160405190810160405280929190818152602001828054612779906150ac565b80156127c65780601f1061279b576101008083540402835291602001916127c6565b820191906000526020600020905b8154815290600101906020018083116127a957829003601f168201915b50505050508152602001600582015481526020016006820180546127e9906150ac565b80601f0160208091040260200160405190810160405280929190818152602001828054612815906150ac565b80156128625780601f1061283757610100808354040283529160200191612862565b820191906000526020600020905b81548152906001019060200180831161284557829003601f168201915b5050505050815260200160078201805461287b906150ac565b80601f01602080910402602001604051908101604052809291908181526020018280546128a7906150ac565b80156128f45780601f106128c9576101008083540402835291602001916128f4565b820191906000526020600020905b8154815290600101906020018083116128d757829003601f168201915b5050505050815260200160088201805461290d906150ac565b80601f0160208091040260200160405190810160405280929190818152602001828054612939906150ac565b80156129865780601f1061295b57610100808354040283529160200191612986565b820191906000526020600020905b81548152906001019060200180831161296957829003601f168201915b505050918352505060098201546020820152600a8201546040820152600b8201546001600160a01b03166060820152600c820180546080909201916129ca906150ac565b80601f01602080910402602001604051908101604052809291908181526020018280546129f6906150ac565b8015612a435780601f10612a1857610100808354040283529160200191612a43565b820191906000526020600020905b815481529060010190602001808311612a2657829003601f168201915b5050509183525050600d82015460209091019060ff166004811115612a6a57612a6a614e68565b6004811115612a7b57612a7b614e68565b815250509050612abd6040518060400160405280601a8152602001796765744a736f6e4279436c69656e74206164647265737320257360301b81525088612dc4565b866001600160a01b031681606001516001600160a01b0316148015612af957506003816101a001516004811115612af657612af6614e68565b14155b8015612b1c57506004816101a001516004811115612b1957612b19614e68565b14155b15612bfb578315612b4457604051806040016040528060018152602001600b60fa1b81525092505b60035460a082015160405163a80f602d60e01b81526000926001600160a01b03169163a80f602d91612b799190600401614c88565b600060405180830381865afa158015612b96573d6000803e3d6000fd5b505050506040513d6000823e601f3d908101601f19168201604052612bbe919081019061512a565b90508584612bcb85612e97565b60e0850151604051612be4949392918691602001615568565b604051602081830303815290604052955060019450505b5080612c06816153bc565b915050612653565b612c4d6040518060400160405280601d81526020017f726563657074696f6e4279436f6e7472616374206974656d496420257300000081525082613efc565b333014612c6c5760405162461bcd60e51b815260040161093690615650565b600081815260046020526040902060018101546003909101546125e6916001600160a01b03908116911683610fd1565b60006001600160e01b031982166380ac58cd60e01b1480612ccd57506001600160e01b03198216635b5e139f60e01b145b806106d557506301ffc9a760e01b6001600160e01b03198316146106d5565b7f80bb2b638cc20bc4d0a60d66940f3ab4a00c1d7b313497ca82fb0b4ab007930090565b600080612d1c83613f41565b90506001600160a01b0381166106d55782604051637e27328960e01b81526004016109369190614c88565b600080612d52612cec565b6000938452600401602052505060409020546001600160a01b031690565b6110758383836001613f6a565b611075838383604051602401612d9593929190615660565b60408051601f198184030181529190526020810180516001600160e01b031663ca47c4eb60e01b179052614074565b61079c8282604051602401612dda92919061568d565b60408051601f198184030181529190526020810180516001600160e01b031663319af33360e01b179052614074565b600080805b600054811015612e5957836001600160a01b0316612e2b826111b3565b6001600160a01b031603612e475781612e43816153bc565b9250505b80612e51816153bc565b915050612e0e565b506106d56040518060400160405280601b81526020017a67657453697a6542794f776e6572206974656d436f756e7420257360281b81525082613efc565b60606000612ea48361407d565b60010190506000816001600160401b03811115612ec357612ec3614b42565b6040519080825280601f01601f191660200182016040528015612eed576020820181803683370190505b5090508181016020015b600019016f181899199a1a9b1b9c1cb0b131b232b360811b600a86061a8153600a8504945084612ef757509392505050565b611075838383604051602401612f41939291906156ad565b60408051601f198184030181529190526020810180516001600160e01b0316630d26b92560e01b179052614074565b600080612f7b612cec565b90506000612f8885613f41565b90506001600160a01b03841615612fa457612fa4818587614153565b6001600160a01b03811615612fe457612fc1600086600080613f6a565b6001600160a01b0381166000908152600383016020526040902080546000190190555b6001600160a01b03861615613015576001600160a01b03861660009081526003830160205260409020805460010190555b600085815260028301602052604080822080546001600160a01b0319166001600160a01b038a811691821790925591518893918516917fddf252ad1be2c89b69c2b068fc378daa952ba7f163c4a11628f55a4df523b3ef91a49150505b9392505050565b3361308261128c565b6001600160a01b031614611058573360405163118cdaa760e01b815260040161093691906149c9565b6130b36141a8565b60006130bd613a1e565b805460ff1916815590507f5db9ee0a495bf2e6ff9c91a7834c1ba4fdd244a5e8aa4e537bd38aeae4b073aa335b6040516130f791906149c9565b60405180910390a150565b306001600160a01b037f000000000000000000000000000000000000000000000000000000000000000016148061318957507f00000000000000000000000000000000000000000000000000000000000000006001600160a01b031661317d600080516020615aae833981519152546001600160a01b031690565b6001600160a01b031614155b156110585760405163703e46dd60e11b815260040160405180910390fd5b6125e6613079565b816001600160a01b03166352d1902d6040518163ffffffff1660e01b8152600401602060405180830381865afa925050508015613209575060408051601f3d908101601f19168201909252613206918101906156d8565b60015b6132285781604051634c9c8ce360e01b815260040161093691906149c9565b600080516020615aae83398151915281146132585780604051632a87526960e21b81526004016109369190614c88565b61107583836141cd565b306001600160a01b037f000000000000000000000000000000000000000000000000000000000000000016146110585760405163703e46dd60e11b815260040160405180910390fd5b6040805160208082018352600080835260ff851681526004825283812084516101c0810186528154815260018201546001600160a01b03169381019390935260028101805460609693949384019190613303906150ac565b80601f016020809104026020016040519081016040528092919081815260200182805461332f906150ac565b801561337c5780601f106133515761010080835404028352916020019161337c565b820191906000526020600020905b81548152906001019060200180831161335f57829003601f168201915b505050918352505060038201546001600160a01b031660208201526004820180546040909201916133ac906150ac565b80601f01602080910402602001604051908101604052809291908181526020018280546133d8906150ac565b80156134255780601f106133fa57610100808354040283529160200191613425565b820191906000526020600020905b81548152906001019060200180831161340857829003601f168201915b5050505050815260200160058201548152602001600682018054613448906150ac565b80601f0160208091040260200160405190810160405280929190818152602001828054613474906150ac565b80156134c15780601f10613496576101008083540402835291602001916134c1565b820191906000526020600020905b8154815290600101906020018083116134a457829003601f168201915b505050505081526020016007820180546134da906150ac565b80601f0160208091040260200160405190810160405280929190818152602001828054613506906150ac565b80156135535780601f1061352857610100808354040283529160200191613553565b820191906000526020600020905b81548152906001019060200180831161353657829003601f168201915b5050505050815260200160088201805461356c906150ac565b80601f0160208091040260200160405190810160405280929190818152602001828054613598906150ac565b80156135e55780601f106135ba576101008083540402835291602001916135e5565b820191906000526020600020905b8154815290600101906020018083116135c857829003601f168201915b505050918352505060098201546020820152600a8201546040820152600b8201546001600160a01b03166060820152600c82018054608090920191613629906150ac565b80601f0160208091040260200160405190810160405280929190818152602001828054613655906150ac565b80156136a25780601f10613677576101008083540402835291602001916136a2565b820191906000526020600020905b81548152906001019060200180831161368557829003601f168201915b5050509183525050600d82015460209091019060ff1660048111156136c9576136c9614e68565b60048111156136da576136da614e68565b905250905060006136ed60ff8616611f05565b6002546060840151604051632163b10160e01b81529293506000926001600160a01b0390921691632163b10191613726916004016149c9565b600060405180830381865afa158015613743573d6000803e3d6000fd5b505050506040513d6000823e601f3d908101601f1916820160405261376b919081019061512a565b600254602085015160405163e2339ba360e01b81529293506000926001600160a01b039092169163e2339ba3916137a4916004016149c9565b600060405180830381865afa1580156137c1573d6000803e3d6000fd5b505050506040513d6000823e601f3d908101601f191682016040526137e9919081019061512a565b600254610160860151604051634713a58f60e01b81529293506000926001600160a01b0390921691634713a58f91613823916004016149c9565b600060405180830381865afa158015613840573d6000803e3d6000fd5b505050506040513d6000823e601f3d908101601f19168201604052613868919081019061512a565b60035460a087015160405163a80f602d60e01b81529293506000926001600160a01b039092169163a80f602d916138a191600401614c88565b600060405180830381865afa1580156138be573d6000803e3d6000fd5b505050506040513d6000823e601f3d908101601f191682016040526138e6919081019061512a565b9050891561390b57604051806040016040528060018152602001600b60fa1b81525096505b60008761391a8b60ff16612e97565b876139288a60200151614223565b876139368c60600151614223565b60e08d01516101008e015160405161395a989796959493928e928c926020016156f9565b60405160208183030381529060405290508061397a886101200151612e97565b613988896101400151612e97565b6139968a6101600151614223565b866139a58c6101a00151614239565b6040516020016139ba96959493929190615848565b60408051808303601f190181529190529b9a5050505050505050505050565b61079c82826040516024016139ef929190615931565b60408051601f198184030181529190526020810180516001600160e01b0316634b5c427760e01b179052614074565b7fcd5ed15c6e187e77e9aee88184c21f4f2182ab5827cb3b7e07fbedcd63f0330090565b6000613a4c613ae5565b80546001600160a01b038481166001600160a01b031983168117845560405193945091169182907f8be0079c531659141344cd1fd0a4f28419497f9722a3daafe3b4186f6b6457e090600090a3505050565b613aa6614385565b6000613ab0613a1e565b805460ff1916600117815590507f62e78cea01bee320cd4e420270b5ea74000d11b0c9f74754ebdbfc544b05a2586130ea3390565b7f9016d09d72d40fdae2fd8ceac6b6234c7706214fd39c1cd1e609a0528c19930090565b61104284848484604051602401613b239493929190615956565b60408051601f198184030181529190526020810180516001600160e01b0316635ab84e1f60e01b179052614074565b61079c8282604051806020016040528060008152506143ab565b6000613b76613ddf565b6000848152602082905260409020909150613b9183826152d1565b507ff8e1a15aba9398e019f0b49df1a4fde98ee17ae345cb5f6b5e2c27f5033e8ce783604051613bc19190614c88565b60405180910390a1505050565b6000613bd8612cec565b90506001600160a01b038316613c035782604051630b61174360e31b815260040161093691906149c9565b6001600160a01b03848116600081815260058401602090815260408083209488168084529490915290819020805460ff1916861515179055517f17307eab39ab6107e8899845ad3d59bd9653f200f220920489ca2b5937696c3190610b909086906148fc565b7ff0c57e16840df040f15088dc2f81fe391c3923bec73e23a9662efc9c229c6a0090565b613c956143c2565b61079c82826143e7565b6110586143c2565b613caf6143c2565b6125e681614415565b613cc06143c2565b61105861441d565b6001600160a01b0383163b1561104257604051630a85bd0160e11b81526001600160a01b0384169063150b7a0290613d0a9033908890879087906004016159a6565b6020604051808303816000875af1925050508015613d45575060408051601f3d908101601f19168201909252613d42918101906159eb565b60015b613da5573d808015613d73576040519150601f19603f3d011682016040523d82523d6000602084013e613d78565b606091505b508051600003613d9d5783604051633250574960e11b815260040161093691906149c9565b805181602001fd5b6001600160e01b03198116630a85bd0160e11b14613dd85783604051633250574960e11b815260040161093691906149c9565b5050505050565b7f0542a41881ee128a365a727b282c86fa859579490b9bb45aab8503648c8e790090565b606060018054613e12906150ac565b80601f0160208091040260200160405190810160405280929190818152602001828054613e3e906150ac565b8015613e8b5780601f10613e6057610100808354040283529160200191613e8b565b820191906000526020600020905b815481529060010190602001808311613e6e57829003601f168201915b5050505050905090565b6060613ea082612d10565b506000613eab613e03565b90506000815111613ecb5760405180602001604052806000815250613072565b80613ed584612e97565b604051602001613ee69291906154d0565b6040516020818303038152906040529392505050565b61079c8282604051602401613f12929190615a0c565b60408051601f198184030181529190526020810180516001600160e01b0316632d839cb360e21b179052614074565b600080613f4c612cec565b6000938452600201602052505060409020546001600160a01b031690565b6000613f74612cec565b90508180613f8a57506001600160a01b03831615155b15614043576000613f9a85612d10565b90506001600160a01b03841615801590613fc65750836001600160a01b0316816001600160a01b031614155b8015613fd95750613fd78185612562565b155b15613ff9578360405163a9fbf51f60e01b815260040161093691906149c9565b82156140415784866001600160a01b0316826001600160a01b03167f8c5be1e5ebec7d5bd14f71427d1e84f3dd0314c0f7b2291e5b200ac8c7c3b92560405160405180910390a45b505b600093845260040160205250506040902080546001600160a01b0319166001600160a01b0392909216919091179055565b6125e68161443a565b60008072184f03e93ff9f4daa797ed6e38ed64bf6a1f0160401b83106140bc5772184f03e93ff9f4daa797ed6e38ed64bf6a1f0160401b830492506040015b6904ee2d6d415b85acef8160201b83106140e6576904ee2d6d415b85acef8160201b830492506020015b662386f26fc10000831061410457662386f26fc10000830492506010015b6305f5e100831061411c576305f5e100830492506008015b612710831061413057612710830492506004015b60648310614142576064830492506002015b600a83106106d55760010192915050565b61415e83838361445b565b611075576001600160a01b03831661418b5780604051637e27328960e01b81526004016109369190614c88565b818160405163177e802f60e01b8152600401610936929190615a2c565b6141b061119e565b61105857604051638dfc202b60e01b815260040160405180910390fd5b6141d6826144c1565b6040516001600160a01b038316907fbc7cd75a20ee27fd9adebab32041f755214dbc6bffa90cc0225b39da2e5c2d3b90600090a280511561421b57611075828261451d565b61079c61458a565b60606106d56001600160a01b03831660146145a9565b606081600481111561424d5761424d614e68565b60000361427857505060408051808201909152600881526721b932b0ba34b7b760c11b602082015290565b81600481111561428a5761428a614e68565b6001036142b757505060408051808201909152600a81526922bc3832b234ba34b7b760b11b602082015290565b8160048111156142c9576142c9614e68565b6002036142f55750506040805180820190915260098152682932b1b2b83a34b7b760b91b602082015290565b81600481111561430757614307614e68565b60030361433457505060408051808201909152600a81526920b7373ab630ba34b7b760b11b602082015290565b81600481111561434657614346614e68565b6004036143715750506040805180820190915260088152672932b73b37bcb2b960c11b602082015290565b505060408051602081019091526000815290565b61438d61119e565b156110585760405163d93c066560e01b815260040160405180910390fd5b6143b5838361471a565b6110756000848484613cc8565b6143ca61477f565b61105857604051631afcd79f60e31b815260040160405180910390fd5b6143ef6143c2565b60006143f9612cec565b90508061440684826152d1565b506001810161104283826152d1565b6125b36143c2565b6144256143c2565b600061442f613a1e565b805460ff1916905550565b60006a636f6e736f6c652e6c6f679050600080835160208501845afa505050565b60006001600160a01b038316158015906144b95750826001600160a01b0316846001600160a01b0316148061449557506144958484612562565b806144b95750826001600160a01b03166144ae83612d47565b6001600160a01b0316145b949350505050565b806001600160a01b03163b6000036144ee5780604051634c9c8ce360e01b815260040161093691906149c9565b600080516020615aae83398151915280546001600160a01b0319166001600160a01b0392909216919091179055565b6060600080846001600160a01b03168460405161453a9190615197565b600060405180830381855af49150503d8060008114614575576040519150601f19603f3d011682016040523d82523d6000602084013e61457a565b606091505b509150915061200f858383614799565b34156110585760405163b398979f60e01b815260040160405180910390fd5b60608260006145b9846002615a3a565b6145c4906002615516565b6001600160401b038111156145db576145db614b42565b6040519080825280601f01601f191660200182016040528015614605576020820181803683370190505b509050600360fc1b81600081518110614620576146206153d5565b60200101906001600160f81b031916908160001a905350600f60fb1b8160018151811061464f5761464f6153d5565b60200101906001600160f81b031916908160001a9053506000614673856002615a3a565b61467e906001615516565b90505b60018111156146f6576f181899199a1a9b1b9c1cb0b131b232b360811b83600f16601081106146b2576146b26153d5565b1a60f81b8282815181106146c8576146c86153d5565b60200101906001600160f81b031916908160001a90535060049290921c916146ef81615a51565b9050614681565b5081156144b957848460405163e22e27eb60e01b815260040161093692919061538b565b6001600160a01b038216614744576000604051633250574960e11b815260040161093691906149c9565b600061475283836000612f70565b90506001600160a01b038116156110755760006040516339e3563760e11b815260040161093691906149c9565b6000614789613c69565b54600160401b900460ff16919050565b6060826147ae576147a9826147ec565b613072565b81511580156147c557506001600160a01b0384163b155b156147e55783604051639996b31560e01b815260040161093691906149c9565b5080613072565b8051156147fc5780518082602001fd5b604051630a12f52160e11b815260040160405180910390fd5b604051806101c001604052806000815260200160006001600160a01b031681526020016060815260200160006001600160a01b031681526020016060815260200160008152602001606081526020016060815260200160608152602001600081526020016000815260200160006001600160a01b0316815260200160608152602001600060048111156148aa576148aa614e68565b905290565b6001600160e01b031981165b81146125e657600080fd5b80356106d5816148af565b6000602082840312156148e6576148e6600080fd5b60006144b984846148c6565b8015155b82525050565b602081016106d582846148f2565b60005b8381101561492557818101518382015260200161490d565b50506000910152565b601f01601f191690565b6000614942825190565b80845260208401935061495981856020860161490a565b6149628161492e565b9093019392505050565b602080825281016130728184614938565b806148bb565b80356106d58161497d565b6000602082840312156149a3576149a3600080fd5b60006144b98484614983565b60006001600160a01b0382166106d5565b6148f6816149af565b602081016106d582846149c0565b6148bb816149af565b80356106d5816149d7565b60008060408385031215614a0157614a01600080fd5b6000614a0d85856149e0565b9250506020614a1e85828601614983565b9150509250929050565b60008060408385031215614a3e57614a3e600080fd5b6000614a0d8585614983565b600060208284031215614a5f57614a5f600080fd5b60006144b984846149e0565b60006130728383614938565b60200190565b6000614a87825190565b80845260208401935083602082028501614aa18560200190565b60005b84811015614ad55783830388528151614abd8482614a6b565b93505060208201602098909801979150600101614aa4565b50909695505050505050565b602080825281016130728184614a7d565b600080600060608486031215614b0a57614b0a600080fd5b6000614b1686866149e0565b9350506020614b27868287016149e0565b9250506040614b3886828701614983565b9150509250925092565b634e487b7160e01b600052604160045260246000fd5b614b618261492e565b81018181106001600160401b0382111715614b7e57614b7e614b42565b6040525050565b6000614b9060405190565b9050614b9c8282614b58565b919050565b60006001600160401b03821115614bba57614bba614b42565b614bc38261492e565b60200192915050565b82818337506000910152565b6000614beb614be684614ba1565b614b85565b905082815260208101848484011115614c0657614c06600080fd5b610ca4848285614bcc565b600082601f830112614c2557614c25600080fd5b81356144b9848260208601614bd8565b60008060408385031215614c4b57614c4b600080fd5b6000614c5785856149e0565b92505060208301356001600160401b03811115614c7657614c76600080fd5b614a1e85828601614c11565b806148f6565b602081016106d58284614c82565b60008060008060808587031215614caf57614caf600080fd5b6000614cbb8787614983565b94505060208501356001600160401b03811115614cda57614cda600080fd5b614ce687828801614c11565b93505060408501356001600160401b03811115614d0557614d05600080fd5b614d1187828801614c11565b92505060608501356001600160401b03811115614d3057614d30600080fd5b614d3c87828801614c11565b91505092959194509250565b8015156148bb565b80356106d581614d48565b60008060408385031215614d7157614d71600080fd5b6000614d7d85856149e0565b9250506020614a1e85828601614d50565b600080600060608486031215614da657614da6600080fd5b83356001600160401b03811115614dbf57614dbf600080fd5b614dcb86828701614c11565b93505060208401356001600160401b03811115614dea57614dea600080fd5b614df686828701614c11565b92505060408401356001600160401b03811115614e1557614e15600080fd5b614b3886828701614c11565b60008060008060808587031215614e3a57614e3a600080fd5b6000614e4687876149e0565b9450506020614e57878288016149e0565b9350506040614d1187828801614983565b634e487b7160e01b600052602160045260246000fd5b600581106125e6576125e6614e68565b80614b9c81614e7e565b60006106d582614e8e565b6148f681614e98565b80516000906101c0840190614ec18582614c82565b506020830151614ed460208601826149c0565b5060408301518482036040860152614eec8282614938565b9150506060830151614f0160608601826149c0565b5060808301518482036080860152614f198282614938565b91505060a0830151614f2e60a0860182614c82565b5060c083015184820360c0860152614f468282614938565b91505060e083015184820360e0860152614f608282614938565b915050610100830151848203610100860152614f7c8282614938565b915050610120830151614f93610120860182614c82565b50610140830151614fa8610140860182614c82565b50610160830151614fbd6101608601826149c0565b50610180830151848203610180860152614fd78282614938565b9150506101a0830151610ca46101a0860182614ea3565b60006130728383614eac565b6000615004825190565b8084526020840193508360208202850161501e8560200190565b60005b84811015614ad5578383038852815161503a8482614fee565b93505060208201602098909801979150600101615021565b602080825281016130728184614ffa565b6000806040838503121561507957615079600080fd5b600061508585856149e0565b9250506020614a1e858286016149e0565b634e487b7160e01b600052602260045260246000fd5b6002810460018216806150c057607f821691505b60208210810361255c5761255c615096565b60006150e0614be684614ba1565b9050828152602081018484840111156150fb576150fb600080fd5b610ca484828561490a565b600082601f83011261511a5761511a600080fd5b81516144b98482602086016150d2565b60006020828403121561513f5761513f600080fd5b81516001600160401b0381111561515857615158600080fd5b6144b984828501615106565b6420b236b4b760d91b815260050190565b600061517f825190565b61518d81856020860161490a565b9290920192915050565b6106d58183615175565b60118152602081017014185cc81b1948189bdb8818db1a595b9d607a1b81529050614a77565b602080825281016106d5816151a1565b601881526020810177776f726b666c6f775374617465206e6f742076616c69646560401b81529050614a77565b602080825281016106d5816151d7565b60006106d56152208381565b90565b61522c83615214565b815460001960089490940293841b1916921b91909117905550565b6000611075818484615223565b8181101561079c57615267600082615247565b600101615254565b601f821115611075576000818152602090206020601f850104810160208510156152965750805b613dd86020601f860104830182615254565b6000196008929092029190911c191690565b6152c482826152a8565b6002909202909117919050565b81516001600160401b038111156152ea576152ea614b42565b6152f482546150ac565b6152ff82828561526f565b506020601f82116001811461532e576000831561531c5750848201515b61532684826152ba565b855550613dd8565b600084815260208120601f198516915b8281101561535e578785015182556020948501946001909201910161533e565b508482101561537c5783870151615378601f8716826152a8565b8255505b50505050600202600101905550565b604081016153998285614c82565b6130726020830184614c82565b634e487b7160e01b600052601160045260246000fd5b6000600182016153ce576153ce6153a6565b5060010190565b634e487b7160e01b600052603260045260246000fd5b6a2337bab93734b9b9b2bab960a91b8152600b0190565b600f8152602081016e526f6c65206e6f742076616c69646560881b81529050614a77565b602080825281016106d581615402565b60128152602081017141646472657373206e6f742076616c69646560701b81529050614a77565b602080825281016106d581615436565b6016815260208101752830b9903632903137b7103337bab93734b9b9b2bab960511b81529050614a77565b602080825281016106d58161546d565b606081016154b682866149c0565b6154c36020830185614c82565b6144b960408301846149c0565b6154da8184615175565b90506130728183615175565b60ff16600060fe1982016153ce576153ce6153a6565b6155068183615175565b605d60f81b815260010192915050565b808201808211156106d5576106d56153a6565b607b60f81b9052565b641134b2111d60d91b9052565b761116113932b332b932b731b2a6b0ba32b934b2b6111d1160491b9052565b61227d60f01b9052565b6155728187615175565b905061557e8186615175565b905061558981615529565b60010161559581615532565b6005016155a28185615175565b6f16113737b6a6b0ba32b934b2b6111d1160811b815290506010016155c78184615175565b90506155d28161553f565b6017016155df8183615175565b90506155ea8161555e565b60020195945050505050565b60006001600160401b0382166106d5565b6148f6816155f6565b602081016106d58284615607565b601f8152602081017f4c276164647265737365206e2765737420706173206c6520636f6e747261740081529050614a77565b602080825281016106d58161561e565b606080825281016156718186614938565b90506156806020830185614c82565b6144b96040830184614c82565b6040808252810161569e8185614938565b905061307260208301846149c0565b606080825281016156be8186614938565b905061568060208301856149c0565b80516106d58161497d565b6000602082840312156156ed576156ed600080fd5b60006144b984846156cd565b615703818c615175565b905061570e81615529565b60010161571a81615532565b600501615727818b615175565b6716113ab934911d1160c11b81529050600801615744818a615175565b701116113337bab93734b9b9b2bab9111d1160791b8152905060110161576a8189615175565b731116113737b6a337bab93734b9b9b2bab9111d1160611b815290506014016157938188615175565b6b11161131b634b2b73a111d1160a11b81529050600c016157b48187615175565b6e1116113737b6a1b634b2b73a111d1160891b81529050600f016157d88186615175565b701116113737b6a6b0ba32b934b2b6111d1160791b815290506011016157fe8185615175565b90506158098161553f565b6017016158168184615175565b6d1116113ab93624b6b0b3b2911d1160911b81529050600e016158398183615175565b9b9a5050505050505050505050565b6158528188615175565b721116113230ba32a2bc3832b234ba34b7b7111d60691b8152905060130161587a8187615175565b7016113230ba32a932b1b2b83a34b7b7111d60791b815290506011016158a08186615175565b74161130b2323932b9b9a932b1b2b83a34b7b7111d1160591b815290506015016158ca8185615175565b711116113737b6a932b1b2b83a34b7b7111d1160711b815290506012016158f18184615175565b721116113bb7b935b33637bba9ba30ba32911d1160691b815290506013016159198183615175565b90506159248161555e565b6002019695505050505050565b604080825281016159428185614938565b905081810360208301526144b98184614938565b608080825281016159678187614938565b90506159766020830186614c82565b81810360408301526159888185614938565b9050818103606083015261599c8184614938565b9695505050505050565b608081016159b482876149c0565b6159c160208301866149c0565b6159ce6040830185614c82565b818103606083015261599c8184614938565b80516106d5816148af565b600060208284031215615a0057615a00600080fd5b60006144b984846159e0565b60408082528101615a1d8185614938565b90506130726020830184614c82565b6040810161539982856149c0565b81810281158282048414176106d5576106d56153a6565b600081615a6057615a606153a6565b50600019019056fe726563657074696f6e206974656d496420257320776f726b666c6f77537461746520257367657449644279466f75726e697373657572206e6f6d4d6174657269656c202573360894a13ba1a3210667c828492db98dca3e2076cc3735a920a3ca505d382bbc746f6b656e69736174696f6e2069644d6174657269656c20257320757269202573207265666572656e63654d6174657269656c202573a26469706673582212201cf962e38316bbaebce685f5bde9404851e669682a77ed2c8842bfe72b2c548e64736f6c63430008150033",
  "linkReferences": {},
  "deployedLinkReferences": {}
}