{
  "_format": "hh-sol-artifact-1",
  "contractName": "Demonstrateur",
  "sourceName": "contracts/Demonstrateur.sol",
  "abi": [
    {
      "inputs": [
        {
          "internalType": "string",
          "name": "definitiveName",
          "type": "string"
        },
        {
          "internalType": "string",
          "name": "definitiveSymbol",
          "type": "string"
        },
        {
          "internalType": "string",
          "name": "definitiveBaseURI",
          "type": "string"
        }
      ],
      "stateMutability": "nonpayable",
      "type": "constructor"
    },
    {
      "anonymous": false,
      "inputs": [
        {
          "indexed": true,
          "internalType": "address",
          "name": "owner",
          "type": "address"
        },
        {
          "indexed": true,
          "internalType": "address",
          "name": "approved",
          "type": "address"
        },
        {
          "indexed": true,
          "internalType": "uint256",
          "name": "tokenId",
          "type": "uint256"
        }
      ],
      "name": "Approval",
      "type": "event"
    },
    {
      "anonymous": false,
      "inputs": [
        {
          "indexed": true,
          "internalType": "address",
          "name": "owner",
          "type": "address"
        },
        {
          "indexed": true,
          "internalType": "address",
          "name": "operator",
          "type": "address"
        },
        {
          "indexed": false,
          "internalType": "bool",
          "name": "approved",
          "type": "bool"
        }
      ],
      "name": "ApprovalForAll",
      "type": "event"
    },
    {
      "anonymous": false,
      "inputs": [
        {
          "indexed": true,
          "internalType": "address",
          "name": "from",
          "type": "address"
        },
        {
          "indexed": true,
          "internalType": "address",
          "name": "to",
          "type": "address"
        }
      ],
      "name": "EventReception",
      "type": "event"
    },
    {
      "anonymous": false,
      "inputs": [
        {
          "indexed": true,
          "internalType": "address",
          "name": "previousOwner",
          "type": "address"
        },
        {
          "indexed": true,
          "internalType": "address",
          "name": "newOwner",
          "type": "address"
        }
      ],
      "name": "OwnershipTransferred",
      "type": "event"
    },
    {
      "anonymous": false,
      "inputs": [
        {
          "indexed": false,
          "internalType": "address",
          "name": "account",
          "type": "address"
        }
      ],
      "name": "Paused",
      "type": "event"
    },
    {
      "anonymous": false,
      "inputs": [
        {
          "indexed": true,
          "internalType": "address",
          "name": "from",
          "type": "address"
        },
        {
          "indexed": true,
          "internalType": "address",
          "name": "to",
          "type": "address"
        },
        {
          "indexed": true,
          "internalType": "uint256",
          "name": "tokenId",
          "type": "uint256"
        }
      ],
      "name": "Transfer",
      "type": "event"
    },
    {
      "anonymous": false,
      "inputs": [
        {
          "indexed": false,
          "internalType": "address",
          "name": "account",
          "type": "address"
        }
      ],
      "name": "Unpaused",
      "type": "event"
    },
    {
      "inputs": [],
      "name": "_addressContratMateriel",
      "outputs": [
        {
          "internalType": "address",
          "name": "",
          "type": "address"
        }
      ],
      "stateMutability": "view",
      "type": "function"
    },
    {
      "inputs": [
        {
          "internalType": "address",
          "name": "id",
          "type": "address"
        },
        {
          "internalType": "string",
          "name": "nom",
          "type": "string"
        }
      ],
      "name": "ajouterAdmin",
      "outputs": [],
      "stateMutability": "nonpayable",
      "type": "function"
    },
    {
      "inputs": [
        {
          "internalType": "address",
          "name": "id",
          "type": "address"
        },
        {
          "internalType": "string",
          "name": "nom",
          "type": "string"
        }
      ],
      "name": "ajouterClient",
      "outputs": [],
      "stateMutability": "nonpayable",
      "type": "function"
    },
    {
      "inputs": [
        {
          "internalType": "address",
          "name": "id",
          "type": "address"
        },
        {
          "internalType": "string",
          "name": "nom",
          "type": "string"
        }
      ],
      "name": "ajouterFournisseur",
      "outputs": [],
      "stateMutability": "nonpayable",
      "type": "function"
    },
    {
      "inputs": [
        {
          "internalType": "address",
          "name": "to",
          "type": "address"
        },
        {
          "internalType": "uint256",
          "name": "tokenId",
          "type": "uint256"
        }
      ],
      "name": "approve",
      "outputs": [],
      "stateMutability": "nonpayable",
      "type": "function"
    },
    {
      "inputs": [
        {
          "internalType": "address",
          "name": "owner",
          "type": "address"
        }
      ],
      "name": "balanceOf",
      "outputs": [
        {
          "internalType": "uint256",
          "name": "",
          "type": "uint256"
        }
      ],
      "stateMutability": "view",
      "type": "function"
    },
    {
      "inputs": [
        {
          "internalType": "address",
          "name": "client",
          "type": "address"
        },
        {
          "internalType": "uint256",
          "name": "itemId",
          "type": "uint256"
        }
      ],
      "name": "expedition",
      "outputs": [],
      "stateMutability": "nonpayable",
      "type": "function"
    },
    {
      "inputs": [
        {
          "internalType": "uint256",
          "name": "tokenId",
          "type": "uint256"
        }
      ],
      "name": "getApproved",
      "outputs": [
        {
          "internalType": "address",
          "name": "",
          "type": "address"
        }
      ],
      "stateMutability": "view",
      "type": "function"
    },
    {
      "inputs": [
        {
          "internalType": "address",
          "name": "owner",
          "type": "address"
        }
      ],
      "name": "getIdByOwner",
      "outputs": [
        {
          "internalType": "string[]",
          "name": "",
          "type": "string[]"
        }
      ],
      "stateMutability": "view",
      "type": "function"
    },
    {
      "inputs": [
        {
          "internalType": "address",
          "name": "client",
          "type": "address"
        }
      ],
      "name": "getJsonByClient",
      "outputs": [
        {
          "internalType": "string",
          "name": "",
          "type": "string"
        }
      ],
      "stateMutability": "view",
      "type": "function"
    },
    {
      "inputs": [
        {
          "internalType": "address",
          "name": "fournisseur",
          "type": "address"
        }
      ],
      "name": "getJsonByFournisseur",
      "outputs": [
        {
          "internalType": "string",
          "name": "",
          "type": "string"
        }
      ],
      "stateMutability": "view",
      "type": "function"
    },
    {
      "inputs": [],
      "name": "getJsonCommandes",
      "outputs": [
        {
          "internalType": "string",
          "name": "",
          "type": "string"
        }
      ],
      "stateMutability": "view",
      "type": "function"
    },
    {
      "inputs": [
        {
          "internalType": "address",
          "name": "owner",
          "type": "address"
        }
      ],
      "name": "getJsonMyMateriels",
      "outputs": [
        {
          "internalType": "string",
          "name": "",
          "type": "string"
        }
      ],
      "stateMutability": "view",
      "type": "function"
    },
    {
      "inputs": [],
      "name": "getListeAdmins",
      "outputs": [
        {
          "components": [
            {
              "internalType": "address",
              "name": "id",
              "type": "address"
            },
            {
              "internalType": "string",
              "name": "nom",
              "type": "string"
            }
          ],
          "internalType": "struct Role.Admin[]",
          "name": "",
          "type": "tuple[]"
        }
      ],
      "stateMutability": "view",
      "type": "function"
    },
    {
      "inputs": [],
      "name": "getListeClients",
      "outputs": [
        {
          "components": [
            {
              "internalType": "address",
              "name": "id",
              "type": "address"
            },
            {
              "internalType": "string",
              "name": "nom",
              "type": "string"
            }
          ],
          "internalType": "struct Role.Client[]",
          "name": "",
          "type": "tuple[]"
        }
      ],
      "stateMutability": "view",
      "type": "function"
    },
    {
      "inputs": [],
      "name": "getListeFournisseurs",
      "outputs": [
        {
          "components": [
            {
              "internalType": "address",
              "name": "id",
              "type": "address"
            },
            {
              "internalType": "string",
              "name": "nom",
              "type": "string"
            }
          ],
          "internalType": "struct Role.Fournisseur[]",
          "name": "",
          "type": "tuple[]"
        }
      ],
      "stateMutability": "view",
      "type": "function"
    },
    {
      "inputs": [
        {
          "internalType": "address",
          "name": "id",
          "type": "address"
        }
      ],
      "name": "getNomAdminByAddress",
      "outputs": [
        {
          "internalType": "string",
          "name": "",
          "type": "string"
        }
      ],
      "stateMutability": "view",
      "type": "function"
    },
    {
      "inputs": [
        {
          "internalType": "address",
          "name": "id",
          "type": "address"
        }
      ],
      "name": "getNomClientByAddress",
      "outputs": [
        {
          "internalType": "string",
          "name": "",
          "type": "string"
        }
      ],
      "stateMutability": "view",
      "type": "function"
    },
    {
      "inputs": [
        {
          "internalType": "address",
          "name": "id",
          "type": "address"
        }
      ],
      "name": "getNomFournisseurByAddress",
      "outputs": [
        {
          "internalType": "string",
          "name": "",
          "type": "string"
        }
      ],
      "stateMutability": "view",
      "type": "function"
    },
    {
      "inputs": [
        {
          "internalType": "address",
          "name": "id",
          "type": "address"
        }
      ],
      "name": "getRoleByAddress",
      "outputs": [
        {
          "internalType": "string",
          "name": "",
          "type": "string"
        }
      ],
      "stateMutability": "view",
      "type": "function"
    },
    {
      "inputs": [
        {
          "internalType": "address",
          "name": "owner",
          "type": "address"
        },
        {
          "internalType": "address",
          "name": "operator",
          "type": "address"
        }
      ],
      "name": "isApprovedForAll",
      "outputs": [
        {
          "internalType": "bool",
          "name": "",
          "type": "bool"
        }
      ],
      "stateMutability": "view",
      "type": "function"
    },
    {
      "inputs": [],
      "name": "name",
      "outputs": [
        {
          "internalType": "string",
          "name": "",
          "type": "string"
        }
      ],
      "stateMutability": "view",
      "type": "function"
    },
    {
      "inputs": [],
      "name": "owner",
      "outputs": [
        {
          "internalType": "address",
          "name": "",
          "type": "address"
        }
      ],
      "stateMutability": "view",
      "type": "function"
    },
    {
      "inputs": [
        {
          "internalType": "uint256",
          "name": "tokenId",
          "type": "uint256"
        }
      ],
      "name": "ownerOf",
      "outputs": [
        {
          "internalType": "address",
          "name": "",
          "type": "address"
        }
      ],
      "stateMutability": "view",
      "type": "function"
    },
    {
      "inputs": [],
      "name": "pause",
      "outputs": [],
      "stateMutability": "nonpayable",
      "type": "function"
    },
    {
      "inputs": [],
      "name": "paused",
      "outputs": [
        {
          "internalType": "bool",
          "name": "",
          "type": "bool"
        }
      ],
      "stateMutability": "view",
      "type": "function"
    },
    {
      "inputs": [
        {
          "internalType": "uint256",
          "name": "itemId",
          "type": "uint256"
        },
        {
          "internalType": "uint256",
          "name": "workflowState",
          "type": "uint256"
        }
      ],
      "name": "reception",
      "outputs": [],
      "stateMutability": "nonpayable",
      "type": "function"
    },
    {
      "inputs": [],
      "name": "renounceOwnership",
      "outputs": [],
      "stateMutability": "nonpayable",
      "type": "function"
    },
    {
      "inputs": [
        {
          "internalType": "address",
          "name": "from",
          "type": "address"
        },
        {
          "internalType": "address",
          "name": "to",
          "type": "address"
        },
        {
          "internalType": "uint256",
          "name": "tokenId",
          "type": "uint256"
        }
      ],
      "name": "safeTransferFrom",
      "outputs": [],
      "stateMutability": "nonpayable",
      "type": "function"
    },
    {
      "inputs": [
        {
          "internalType": "address",
          "name": "from",
          "type": "address"
        },
        {
          "internalType": "address",
          "name": "to",
          "type": "address"
        },
        {
          "internalType": "uint256",
          "name": "tokenId",
          "type": "uint256"
        },
        {
          "internalType": "bytes",
          "name": "data",
          "type": "bytes"
        }
      ],
      "name": "safeTransferFrom",
      "outputs": [],
      "stateMutability": "nonpayable",
      "type": "function"
    },
    {
      "inputs": [
        {
          "internalType": "address",
          "name": "addressContratMateriel",
          "type": "address"
        }
      ],
      "name": "setAddressContratMateriel",
      "outputs": [],
      "stateMutability": "nonpayable",
      "type": "function"
    },
    {
      "inputs": [
        {
          "internalType": "address",
          "name": "operator",
          "type": "address"
        },
        {
          "internalType": "bool",
          "name": "approved",
          "type": "bool"
        }
      ],
      "name": "setApprovalForAll",
      "outputs": [],
      "stateMutability": "nonpayable",
      "type": "function"
    },
    {
      "inputs": [
        {
          "internalType": "bytes4",
          "name": "interfaceId",
          "type": "bytes4"
        }
      ],
      "name": "supportsInterface",
      "outputs": [
        {
          "internalType": "bool",
          "name": "",
          "type": "bool"
        }
      ],
      "stateMutability": "view",
      "type": "function"
    },
    {
      "inputs": [
        {
          "internalType": "address",
          "name": "id",
          "type": "address"
        }
      ],
      "name": "supprimerAdmin",
      "outputs": [],
      "stateMutability": "nonpayable",
      "type": "function"
    },
    {
      "inputs": [
        {
          "internalType": "address",
          "name": "id",
          "type": "address"
        }
      ],
      "name": "supprimerClient",
      "outputs": [],
      "stateMutability": "nonpayable",
      "type": "function"
    },
    {
      "inputs": [
        {
          "internalType": "address",
          "name": "id",
          "type": "address"
        }
      ],
      "name": "supprimerFournisseur",
      "outputs": [],
      "stateMutability": "nonpayable",
      "type": "function"
    },
    {
      "inputs": [],
      "name": "symbol",
      "outputs": [
        {
          "internalType": "string",
          "name": "",
          "type": "string"
        }
      ],
      "stateMutability": "view",
      "type": "function"
    },
    {
      "inputs": [
        {
          "internalType": "uint256",
          "name": "tokenId",
          "type": "uint256"
        }
      ],
      "name": "tokenURI",
      "outputs": [
        {
          "internalType": "string",
          "name": "",
          "type": "string"
        }
      ],
      "stateMutability": "view",
      "type": "function"
    },
    {
      "inputs": [
        {
          "internalType": "uint256",
          "name": "idMateriel",
          "type": "uint256"
        },
        {
          "internalType": "string",
          "name": "uri",
          "type": "string"
        },
        {
          "internalType": "string",
          "name": "urlImage",
          "type": "string"
        },
        {
          "internalType": "string",
          "name": "referenceMateriel",
          "type": "string"
        }
      ],
      "name": "tokenisation",
      "outputs": [],
      "stateMutability": "nonpayable",
      "type": "function"
    },
    {
      "inputs": [
        {
          "internalType": "address",
          "name": "from",
          "type": "address"
        },
        {
          "internalType": "address",
          "name": "to",
          "type": "address"
        },
        {
          "internalType": "uint256",
          "name": "tokenId",
          "type": "uint256"
        }
      ],
      "name": "transferFrom",
      "outputs": [],
      "stateMutability": "nonpayable",
      "type": "function"
    },
    {
      "inputs": [
        {
          "internalType": "address",
          "name": "newOwner",
          "type": "address"
        }
      ],
      "name": "transferOwnership",
      "outputs": [],
      "stateMutability": "nonpayable",
      "type": "function"
    },
    {
      "inputs": [],
      "name": "unpause",
      "outputs": [],
      "stateMutability": "nonpayable",
      "type": "function"
    }
  ],
  "bytecode": "0x60806040523480156200001157600080fd5b506040516200639138038062006391833981016040819052620000349162000814565b8251839083906200004d90600090602085019062000631565b5080516200006390600190602084019062000631565b50506007805460ff19169055506200007b33620000d4565b80516200009090600d90602084019062000631565b506200009c336200012e565b620000cb336040518060400160405280600581526020016427bbb732b960d91b8152506200015a60201b60201c565b50505062000b21565b600780546001600160a01b03838116610100818102610100600160a81b031985161790945560405193909204169182907f8be0079c531659141344cd1fd0a4f28419497f9722a3daafe3b4186f6b6457e090600090a35050565b6200013862000306565b600880546001600160a01b0319166001600160a01b0392909216919091179055565b60085433906001600160a01b0316811480620001ba5750604080516000815260208101918290525190206200018f826200033b565b604051602001620001a19190620008e8565b6040516020818303038152906040528051906020012014155b620001e25760405162461bcd60e51b8152600401620001d99062000914565b60405180910390fd5b6200022f6040518060400160405280601981526020017f616a6f7574657241646d696e206964202573206e6f6d2025730000000000000081525084846200051e60201b62002b941760201c565b6001600160a01b038316620002585760405162461bcd60e51b8152600401620001d9906200094e565b604080518082019091526001600160a01b03848116825260208083018581526009805460018101825560009190915284517f6e1540171b6c0c960b71a7020d9f60077f6af931a8bbf590da0223dacf75c7af600290920291820180546001600160a01b0319169190951617845590518051620002fe937f6e1540171b6c0c960b71a7020d9f60077f6af931a8bbf590da0223dacf75c7b090930192919091019062000631565b505050505050565b6007546001600160a01b03610100909104163314620003395760405162461bcd60e51b8152600401620001d99062000991565b565b60408051602081019091526000808252606091905b600954811015620004cb57600060098281548110620003735762000373620009a3565b60009182526020918290206040805180820190915260029092020180546001600160a01b031682526001810180549293919291840191620003b490620009cf565b80601f0160208091040260200160405190810160405280929190818152602001828054620003e290620009cf565b8015620004335780601f10620004075761010080835404028352916020019162000433565b820191906000526020600020905b8154815290600101906020018083116200041557829003601f168201915b5050505050815250509050846001600160a01b031681600001516001600160a01b03161415620004b557620004ad6040518060400160405280601e81526020017f67657441646d696e427941646472657373205f61646d696e2e6964202573000081525082600001516200057260201b62002bdb1760201c565b806020015192505b5080620004c28162000a16565b91505062000350565b50620005186040518060400160405280601b81526020017f6765744e6f6d41646d696e427941646472657373206e6f6d202573000000000081525082620005c360201b62002c201760201c565b92915050565b6200056d838383604051602401620005399392919062000a8c565b60408051601f198184030181529190526020810180516001600160e01b0390811663e0e9ad4f60e01b179091526200061016565b505050565b620005bf82826040516024016200058b92919062000acd565b60408051601f198184030181529190526020810180516001600160e01b0390811663319af33360e01b179091526200061016565b5050565b620005bf8282604051602401620005dc92919062000af8565b60408051601f198184030181529190526020810180516001600160e01b03908116634b5c427760e01b179091526200061016565b80516a636f6e736f6c652e6c6f67602083016000808483855afa5050505050565b8280546200063f90620009cf565b90600052602060002090601f016020900481019282620006635760008555620006ae565b82601f106200067e57805160ff1916838001178555620006ae565b82800160010185558215620006ae579182015b82811115620006ae57825182559160200191906001019062000691565b50620006bc929150620006c0565b5090565b5b80821115620006bc5760008155600101620006c1565b634e487b7160e01b600052604160045260246000fd5b601f19601f83011681016001600160401b0381118282101715620007155762000715620006d7565b6040525050565b60006200072860405190565b9050620007368282620006ed565b919050565b60006001600160401b03821115620007575762000757620006d7565b601f19601f83011660200192915050565b60005b83811015620007855781810151838201526020016200076b565b8381111562000795576000848401525b50505050565b6000620007b2620007ac846200073b565b6200071c565b905082815260208101848484011115620007cf57620007cf600080fd5b620007dc84828562000768565b509392505050565b600082601f830112620007fa57620007fa600080fd5b81516200080c8482602086016200079b565b949350505050565b6000806000606084860312156200082e576200082e600080fd5b83516001600160401b03811115620008495762000849600080fd5b6200085786828701620007e4565b602086015190945090506001600160401b038111156200087a576200087a600080fd5b6200088886828701620007e4565b604086015190935090506001600160401b03811115620008ab57620008ab600080fd5b620008b986828701620007e4565b9150509250925092565b6000620008ce825190565b620008de81856020860162000768565b9290920192915050565b620005188183620008c3565b6009815260208101682737ba1020b236b4b760b91b815290505b60200190565b602080825281016200051881620008f4565b60128152602081017141646472657373206e6f742076616c69646560701b815290506200090e565b60208082528101620005188162000926565b60208082527f4f776e61626c653a2063616c6c6572206973206e6f7420746865206f776e657291019081526200090e565b60208082528101620005188162000960565b634e487b7160e01b600052603260045260246000fd5b634e487b7160e01b600052602260045260246000fd5b600281046001821680620009e457607f821691505b60208210811415620009fa57620009fa620009b9565b50919050565b634e487b7160e01b600052601160045260246000fd5b600060001982141562000a2d5762000a2d62000a00565b5060010190565b600062000a3f825190565b80845260208401935062000a5881856020860162000768565b601f01601f19169290920192915050565b60006001600160a01b03821662000518565b62000a868162000a69565b82525050565b6060808252810162000a9f818662000a34565b905062000ab0602083018562000a7b565b818103604083015262000ac4818462000a34565b95945050505050565b6040808252810162000ae0818562000a34565b905062000af1602083018462000a7b565b9392505050565b6040808252810162000b0b818562000a34565b905081810360208301526200080c818462000a34565b6158608062000b316000396000f3fe608060405234801561001057600080fd5b506004361061021e5760003560e01c80637bff77d411610126578063b30021cd116100b3578063b30021cd1461046b578063b3a46b931461047e578063b88d4fde14610491578063c87b56dd146104a4578063ddd27390146104b7578063e2339ba3146104ca578063e985e9c5146104dd578063ebc278d8146104f0578063f2fde38b14610505578063f3ee11a214610518578063f53790f11461052b57600080fd5b80637bff77d4146103ca5780637e5db4c7146103dd5780638456cb59146103f257806389e231ae146103fa5780638da5cb5b1461040d57806395d89b41146104155780639bad155e1461041d5780639f32d1a514610430578063a22cb46514610443578063a688f0351461045657600080fd5b806342842e0e116101af57806342842e0e1461030a5780634ab143bb1461031d5780634fb75e4f146103305780635b06d203146103385780635c975abb1461034b5780636077e144146103565780636352211e1461036957806364d2387d1461037c5780636d5128d71461038f57806370a08231146103a2578063715018a6146103c257600080fd5b806301ffc9a71461022357806306fdde031461024c578063081812fc14610261578063095ea7b3146102815780630dc05e591461029657806310b50626146102a957806316f1df23146102c95780632163b101146102dc57806323b872dd146102ef5780633f4ba83a14610302575b600080fd5b610236610231366004614390565b61053e565b60405161024391906143bb565b60405180910390f35b610254610590565b6040516102439190614433565b61027461026f366004614455565b610622565b6040516102439190614490565b61029461028f3660046144b2565b610649565b005b6102946102a43660046144ef565b6106d8565b6102bc6102b7366004614511565b610838565b60405161024391906145a8565b6102946102d73660046146a7565b610947565b6102546102ea366004614511565b610acc565b6102946102fd3660046146f4565b610c7b565b610294610cac565b6102946103183660046146f4565b610cbe565b61025461032b366004614511565b610cd9565b610254610e8a565b610254610346366004614511565b610f49565b60075460ff16610236565b600e54610274906001600160a01b031681565b610274610377366004614455565b611040565b61029461038a366004614511565b611074565b61029461039d366004614511565b61126b565b6103b56103b0366004614511565b611295565b604051610243919061474a565b6102946112d9565b6102546103d8366004614511565b6112eb565b6103e561148c565b60405161024391906147f1565b610294611592565b6102946104083660046146a7565b6115a2565b61027461171c565b610254611730565b61029461042b366004614802565b61173f565b61025461043e366004614511565b6118b2565b6102946104513660046148c7565b611c8e565b61045e611c99565b6040516102439190614952565b610294610479366004614511565b611d96565b61029461048c3660046144b2565b611f7b565b61029461049f366004614963565b612071565b6102546104b2366004614455565b6120a9565b6102946104c5366004614511565b6121ad565b6102546104d8366004614511565b612365565b6102366104eb3660046149aa565b6124f8565b6104f8612526565b6040516102439190614a35565b610294610513366004614511565b612623565b610254610526366004614511565b61265d565b6102946105393660046146a7565b612a1a565b60006001600160e01b031982166380ac58cd60e01b148061056f57506001600160e01b03198216635b5e139f60e01b145b8061058a57506301ffc9a760e01b6001600160e01b03198316145b92915050565b60606000805461059f90614a5c565b80601f01602080910402602001604051908101604052809291908181526020018280546105cb90614a5c565b80156106185780601f106105ed57610100808354040283529160200191610618565b820191906000526020600020905b8154815290600101906020018083116105fb57829003601f168201915b5050505050905090565b600061062d82612c65565b506000908152600460205260409020546001600160a01b031690565b600061065482611040565b9050806001600160a01b0316836001600160a01b031614156106915760405162461bcd60e51b815260040161068890614ac7565b60405180910390fd5b336001600160a01b03821614806106ad57506106ad81336124f8565b6106c95760405162461bcd60e51b815260040161068890614b2f565b6106d38383612c8a565b505050565b6106fb60405180606001604052806024815260200161575f602491398383612cf8565b6000828152600f60205260409020600101546001600160a01b031633146107345760405162461bcd60e51b815260040161068890614b65565b8015806107415750806001145b8061074c5750806002145b6107685760405162461bcd60e51b815260040161068890614ba2565b806107d5576000828152600f6020526040902060078101805460ff1916600217905542600682015580546001909101546107af916001600160a01b03908116911684610c7b565b6000828152600f60205260409020546107d1906001600160a01b031683610649565b5050565b80600114156107fd57506000908152600f60205260409020600701805460ff19166003179055565b6000828152600f6020526040902060078101805460ff19166004179055600181015490546107d1916001600160a01b03908116911684610c7b565b606061087360405180604001604052806017815260200176676574496442794f776e6572206164647265737320257360481b81525083612bdb565b60008061087f84612d3f565b6001600160401b03811115610896576108966145b9565b6040519080825280602002602001820160405280156108c957816020015b60608152602001906001900390816108b45790505b50905060005b600c5481101561093f57846001600160a01b03166108ec82611040565b6001600160a01b0316141561092d5761090481612dce565b828461090f81614bde565b95508151811061092157610921614bf9565b60200260200101819052505b8061093781614bde565b9150506108cf565b509392505050565b60085433906001600160a01b03168114806109a257506040805160008152602081019182905251902061097982610cd9565b6040516020016109899190614c31565b6040516020818303038152906040528051906020012014155b6109be5760405162461bcd60e51b815260040161068890614c59565b6109fa60405180604001604052806019815260200178616a6f7574657241646d696e206964202573206e6f6d20257360381b8152508484612b94565b6001600160a01b038316610a205760405162461bcd60e51b815260040161068890614c90565b604080518082019091526001600160a01b03848116825260208083018581526009805460018101825560009190915284517f6e1540171b6c0c960b71a7020d9f60077f6af931a8bbf590da0223dacf75c7af600290920291820180546001600160a01b0319169190951617845590518051610ac4937f6e1540171b6c0c960b71a7020d9f60077f6af931a8bbf590da0223dacf75c7b0909301929190910190614224565b505050505050565b60408051602081019091526000808252606091905b600a54811015610c3f576000600a8281548110610b0057610b00614bf9565b60009182526020918290206040805180820190915260029092020180546001600160a01b031682526001810180549293919291840191610b3f90614a5c565b80601f0160208091040260200160405190810160405280929190818152602001828054610b6b90614a5c565b8015610bb85780601f10610b8d57610100808354040283529160200191610bb8565b820191906000526020600020905b815481529060010190602001808311610b9b57829003601f168201915b5050505050815250509050846001600160a01b031681600001516001600160a01b03161415610c2c57610c246040518060400160405280602081526020017f676574436c69656e74427941646472657373205f636c69656e742e69642025738152508260000151612bdb565b806020015192505b5080610c3781614bde565b915050610ae1565b5061058a60405180604001604052806019815260200178676574436c69656e74427941646472657373206e6f6d20257360381b81525082612c20565b610c853382612e62565b610ca15760405162461bcd60e51b815260040161068890614ce8565b6106d3838383612ec0565b610cb4612ff5565b610cbc613024565b565b6106d383838360405180602001604052806000815250612071565b60408051602081019091526000808252606091905b600954811015610e4c57600060098281548110610d0d57610d0d614bf9565b60009182526020918290206040805180820190915260029092020180546001600160a01b031682526001810180549293919291840191610d4c90614a5c565b80601f0160208091040260200160405190810160405280929190818152602001828054610d7890614a5c565b8015610dc55780601f10610d9a57610100808354040283529160200191610dc5565b820191906000526020600020905b815481529060010190602001808311610da857829003601f168201915b5050505050815250509050846001600160a01b031681600001516001600160a01b03161415610e3957610e316040518060400160405280601e81526020017f67657441646d696e427941646472657373205f61646d696e2e696420257300008152508260000151612bdb565b806020015192505b5080610e4481614bde565b915050610cee565b5061058a6040518060400160405280601b81526020017a6765744e6f6d41646d696e427941646472657373206e6f6d20257360281b81525082612c20565b6040805180820190915260018152605b60f81b602082015260609060005b600c548160ff161015610ef55781610ec08283613070565b604051602001610ed1929190614cf8565b60405160208183030381529060405291508080610eed90614d0e565b915050610ea8565b5080604051602001610f079190614d27565b60408051601f19818403018152828201909152601182527002539b7b721b7b6b6b0b73232b99012b99607d1b60208301529150610f449082612c20565b919050565b6040805180820190915260018152605b60f81b60208201526060906000805b600c548160ff161015610fe857846001600160a01b0316610f8b8260ff16611040565b6001600160a01b03161415610fd65782610fa58383613070565b604051602001610fb6929190614cf8565b60405160208183030381529060405292508180610fd290614d0e565b9250505b80610fe081614d0e565b915050610f68565b5081604051602001610ffa9190614d27565b60408051601f19818403018152828201909152601382527203539b7b726bca6b0ba32b934b2b6399012b99606d1b602083015292506110399083612c20565b5092915050565b60008061104c836133c2565b90506001600160a01b03811661058a5760405162461bcd60e51b815260040161068890614d6e565b60085433906001600160a01b03168114806110cf5750604080516000815260208101918290525190206110a682610cd9565b6040516020016110b69190614c31565b6040516020818303038152906040528051906020012014155b6110eb5760405162461bcd60e51b815260040161068890614c59565b6111286040518060400160405280601b81526020017a039bab8383934b6b2b92337bab93734b9b9b2bab91034b21012b99602d1b81525083612bdb565b6001600160a01b03821661114e5760405162461bcd60e51b815260040161068890614c90565b6000611159836133dd565b90508061270f146106d357805b600b5461117590600190614d7e565b81101561121f57600b611189826001614d95565b8154811061119957611199614bf9565b9060005260206000209060020201600b82815481106111ba576111ba614bf9565b60009182526020909120825460029092020180546001600160a01b0319166001600160a01b0390921691909117815560018083018054918301916111fd90614a5c565b6112089291906142a8565b50905050808061121790614bde565b915050611166565b50600b80548061123157611231614dad565b60008281526020812060026000199093019283020180546001600160a01b0319168155906112626001830182614323565b50509055505050565b611273612ff5565b600e80546001600160a01b0319166001600160a01b0392909216919091179055565b60006001600160a01b0382166112bd5760405162461bcd60e51b815260040161068890614e07565b506001600160a01b031660009081526003602052604090205490565b6112e1612ff5565b610cbc6000613541565b60408051808201825260068152654e6f526f6c6560d01b60208083019190915282516000815290810192839052519091206060919061132984610cd9565b6040516020016113399190614c31565b604051602081830303815290604052805190602001201461137757505060408051808201909152600581526420b236b4b760d91b6020820152919050565b6040805160008152602081019182905251902061139384612365565b6040516020016113a39190614c31565b60405160208183030381529060405280519060200120146113e757505060408051808201909152600b81526a2337bab93734b9b9b2bab960a91b6020820152919050565b6040805160008152602081019182905251902061140384610acc565b6040516020016114139190614c31565b604051602081830303815290604052805190602001201461145257505060408051808201909152600681526510db1a595b9d60d21b6020820152919050565b61058a60405180604001604052806018815260200177676574526f6c6542794164647265737320726f6c6520257360401b81525082612c20565b6060600b805480602002602001604051908101604052809291908181526020016000905b82821015611589576000848152602090819020604080518082019091526002850290910180546001600160a01b0316825260018101805492939192918401916114f890614a5c565b80601f016020809104026020016040519081016040528092919081815260200182805461152490614a5c565b80156115715780601f1061154657610100808354040283529160200191611571565b820191906000526020600020905b81548152906001019060200180831161155457829003601f168201915b505050505081525050815260200190600101906114b0565b50505050905090565b61159a612ff5565b610cbc61359b565b60085433906001600160a01b03168114806115fd5750604080516000815260208101918290525190206115d482610cd9565b6040516020016115e49190614c31565b6040516020818303038152906040528051906020012014155b6116195760405162461bcd60e51b815260040161068890614c59565b61165260405180604001604052806016815260200175726563657074696f6e206964202573206e6f6d20257360501b8152508484612b94565b6001600160a01b0383166116785760405162461bcd60e51b815260040161068890614c90565b604080518082019091526001600160a01b0384811682526020808301858152600b805460018101825560009190915284517f0175b7a638427703f0dbe7bb9bbf987a2551717b34e79f33b5b1008d1fa01db9600290920291820180546001600160a01b0319169190951617845590518051610ac4937f0175b7a638427703f0dbe7bb9bbf987a2551717b34e79f33b5b1008d1fa01dba909301929190910190614224565b60075461010090046001600160a01b031690565b60606001805461059f90614a5c565b6117636040518060600160405280603681526020016157f5603691398585846135d8565b600061176e600c5490565b905061177a3382613621565b611784818561363b565b604051806101000160405280336001600160a01b0316815260200160006001600160a01b031681526020018681526020018381526020018481526020016000815260200160008152602001600060048111156117e2576117e2614bb2565b90526000828152600f6020908152604091829020835181546001600160a01b039182166001600160a01b031991821617835585840151600184018054919093169116179055918301516002830155606083015180516118479260038501920190614224565b5060808201518051611863916004840191602090910190614224565b5060a0820151600582015560c0820151600682015560e082015160078201805460ff1916600183600481111561189b5761189b614bb2565b021790555050600c80546001019055505050505050565b60606118f36040518060400160405280601d81526020017f67657449644279466f75726e697373657572206164647265737320257300000081525083612bdb565b60408051808201825260018152605b60f81b602080830191909152825190810190925260008083529091815b600c54811015611c36576000818152600f6020908152604080832081516101008101835281546001600160a01b0390811682526001830154169381019390935260028101549183019190915260038101805460608401919061198090614a5c565b80601f01602080910402602001604051908101604052809291908181526020018280546119ac90614a5c565b80156119f95780601f106119ce576101008083540402835291602001916119f9565b820191906000526020600020905b8154815290600101906020018083116119dc57829003601f168201915b50505050508152602001600482018054611a1290614a5c565b80601f0160208091040260200160405190810160405280929190818152602001828054611a3e90614a5c565b8015611a8b5780601f10611a6057610100808354040283529160200191611a8b565b820191906000526020600020905b815481529060010190602001808311611a6e57829003601f168201915b50505091835250506005820154602082015260068201546040820152600782015460609091019060ff166004811115611ac657611ac6614bb2565b6004811115611ad757611ad7614bb2565b815250509050866001600160a01b031681600001516001600160a01b0316148015611b18575060028160e001516004811115611b1557611b15614bb2565b14155b15611c23578315611b4057604051806040016040528060018152602001600b60fa1b81525092505b600e54604080830151905163a80f602d60e01b81526000926001600160a01b03169163a80f602d91611b75919060040161474a565b600060405180830381865afa158015611b92573d6000803e3d6000fd5b505050506040513d6000823e601f3d908101601f19168201604052611bba9190810190614e6f565b9050611bde6040518060600160405280602181526020016157d46021913982612c20565b8584611be985612dce565b6060850151604051611c02949392918691602001614ee8565b60405160208183030381529060405295508480611c1e90614bde565b955050505b5080611c2e81614bde565b91505061191f565b5082604051602001611c489190614d27565b60408051601f19818403018152828201909152601182527002539b7b721b7b6b6b0b73232b99012b99607d1b60208301529350611c859084612c20565b50909392505050565b6107d133838361367f565b6060600a805480602002602001604051908101604052809291908181526020016000905b82821015611589576000848152602090819020604080518082019091526002850290910180546001600160a01b031682526001810180549293919291840191611d0590614a5c565b80601f0160208091040260200160405190810160405280929190818152602001828054611d3190614a5c565b8015611d7e5780601f10611d5357610100808354040283529160200191611d7e565b820191906000526020600020905b815481529060010190602001808311611d6157829003601f168201915b50505050508152505081526020019060010190611cbd565b60085433906001600160a01b0316811480611df1575060408051600081526020810191829052519020611dc882610cd9565b604051602001611dd89190614c31565b6040516020818303038152906040528051906020012014155b611e0d5760405162461bcd60e51b815260040161068890614c59565b611e4460405180604001604052806015815260200174039bab8383934b6b2b920b236b4b71034b21012b99605d1b81525083612bdb565b6001600160a01b038216611e6a5760405162461bcd60e51b815260040161068890614c90565b6008546001600160a01b0383811691161415611e985760405162461bcd60e51b815260040161068890614f9b565b6000611ea383613722565b90508061270f146106d357805b600954611ebf90600190614d7e565b811015611f69576009611ed3826001614d95565b81548110611ee357611ee3614bf9565b906000526020600020906002020160098281548110611f0457611f04614bf9565b60009182526020909120825460029092020180546001600160a01b0319166001600160a01b039092169190911781556001808301805491830191611f4790614a5c565b611f529291906142a8565b509050508080611f6190614bde565b915050611eb0565b50600980548061123157611231614dad565b611fbb6040518060400160405280601f81526020017f65787065646974696f6e2061646472657373202573206974656d49642025730081525083836138a3565b6001600160a01b038216611fe15760405162461bcd60e51b815260040161068890614c90565b6000818152600f60205260409020546001600160a01b031633146120175760405162461bcd60e51b815260040161068890614fd6565b6120218282610649565b6000818152600f602052604081204260058201556006810191909155600180820180546001600160a01b0319166001600160a01b0386161790556007909101805460ff1916828002179055505050565b61207b3383612e62565b6120975760405162461bcd60e51b815260040161068890614ce8565b6120a3848484846138ea565b50505050565b60606120b482612c65565b600082815260066020526040812080546120cd90614a5c565b80601f01602080910402602001604051908101604052809291908181526020018280546120f990614a5c565b80156121465780601f1061211b57610100808354040283529160200191612146565b820191906000526020600020905b81548152906001019060200180831161212957829003601f168201915b50505050509050600061215761391d565b905080516000141561216a575092915050565b81511561219c578082604051602001612184929190614cf8565b60405160208183030381529060405292505050919050565b6121a58461392c565b949350505050565b60085433906001600160a01b03168114806122085750604080516000815260208101918290525190206121df82610cd9565b6040516020016121ef9190614c31565b6040516020818303038152906040528051906020012014155b6122245760405162461bcd60e51b815260040161068890614c59565b61225c60405180604001604052806016815260200175039bab8383934b6b2b921b634b2b73a1034b21012b9960551b81525083612bdb565b6001600160a01b0382166122825760405162461bcd60e51b815260040161068890614c90565b600061228d83613993565b90508061270f146106d357805b600a546122a990600190614d7e565b81101561235357600a6122bd826001614d95565b815481106122cd576122cd614bf9565b9060005260206000209060020201600a82815481106122ee576122ee614bf9565b60009182526020909120825460029092020180546001600160a01b0319166001600160a01b03909216919091178155600180830180549183019161233190614a5c565b61233c9291906142a8565b50905050808061234b90614bde565b91505061229a565b50600a80548061123157611231614dad565b60408051602081019091526000808252606091905b600b548110156124b8576000600b828154811061239957612399614bf9565b60009182526020918290206040805180820190915260029092020180546001600160a01b0316825260018101805492939192918401916123d890614a5c565b80601f016020809104026020016040519081016040528092919081815260200182805461240490614a5c565b80156124515780601f1061242657610100808354040283529160200191612451565b820191906000526020600020905b81548152906001019060200180831161243457829003601f168201915b5050505050815250509050846001600160a01b031681600001516001600160a01b031614156124a55761249d6040518060600160405280602a81526020016156ef602a91398251612bdb565b806020015192505b50806124b081614bde565b91505061237a565b5061058a6040518060400160405280601e81526020017f676574466f75726e697373657572427941646472657373206e6f6d202573000081525082612c20565b6001600160a01b03918216600090815260056020908152604080832093909416825291909152205460ff1690565b60606009805480602002602001604051908101604052809291908181526020016000905b82821015611589576000848152602090819020604080518082019091526002850290910180546001600160a01b03168252600181018054929391929184019161259290614a5c565b80601f01602080910402602001604051908101604052809291908181526020018280546125be90614a5c565b801561260b5780601f106125e05761010080835404028352916020019161260b565b820191906000526020600020905b8154815290600101906020018083116125ee57829003601f168201915b5050505050815250508152602001906001019061254a565b61262b612ff5565b6001600160a01b0381166126515760405162461bcd60e51b815260040161068890615027565b61265a81613541565b50565b606061269b6040518060400160405280601a8152602001796765744a736f6e4279436c69656e74206164647265737320257360301b81525083612bdb565b60408051808201825260018152605b60f81b602080830191909152825190810190925260008083529091815b600c54811015611c36576000818152600f6020908152604080832081516101008101835281546001600160a01b0390811682526001830154169381019390935260028101549183019190915260038101805460608401919061272890614a5c565b80601f016020809104026020016040519081016040528092919081815260200182805461275490614a5c565b80156127a15780601f10612776576101008083540402835291602001916127a1565b820191906000526020600020905b81548152906001019060200180831161278457829003601f168201915b505050505081526020016004820180546127ba90614a5c565b80601f01602080910402602001604051908101604052809291908181526020018280546127e690614a5c565b80156128335780601f1061280857610100808354040283529160200191612833565b820191906000526020600020905b81548152906001019060200180831161281657829003601f168201915b50505091835250506005820154602082015260068201546040820152600782015460609091019060ff16600481111561286e5761286e614bb2565b600481111561287f5761287f614bb2565b8152505090506128c16040518060400160405280601a8152602001796765744a736f6e4279436c69656e74206164647265737320257360301b81525088612bdb565b866001600160a01b031681602001516001600160a01b03161480156128fc575060038160e0015160048111156128f9576128f9614bb2565b14155b801561291e575060048160e00151600481111561291b5761291b614bb2565b14155b15612a0757831561294657604051806040016040528060018152602001600b60fa1b81525092505b600e54604080830151905163a80f602d60e01b81526000926001600160a01b03169163a80f602d9161297b919060040161474a565b600060405180830381865afa158015612998573d6000803e3d6000fd5b505050506040513d6000823e601f3d908101601f191682016040526129c09190810190614e6f565b905085846129cd85612dce565b60608501516040516129e6949392918691602001614ee8565b60405160208183030381529060405295508480612a0290614bde565b955050505b5080612a1281614bde565b9150506126c7565b60085433906001600160a01b0316811480612a75575060408051600081526020810191829052519020612a4c82610cd9565b604051602001612a5c9190614c31565b6040516020818303038152906040528051906020012014155b612a915760405162461bcd60e51b815260040161068890614c59565b612aca60405180604001604052806016815260200175726563657074696f6e206964202573206e6f6d20257360501b8152508484612b94565b6001600160a01b038316612af05760405162461bcd60e51b815260040161068890614c90565b604080518082019091526001600160a01b0384811682526020808301858152600a805460018101825560009190915284517fc65a7bb8d6351c1cf70c95a316cc6a92839c986682d98bc35f958f4883f9d2a8600290920291820180546001600160a01b0319169190951617845590518051610ac4937fc65a7bb8d6351c1cf70c95a316cc6a92839c986682d98bc35f958f4883f9d2a9909301929190910190614224565b6106d3838383604051602401612bac93929190615037565b60408051601f198184030181529190526020810180516001600160e01b031663e0e9ad4f60e01b179052613b14565b6107d18282604051602401612bf1929190615069565b60408051601f198184030181529190526020810180516001600160e01b031663319af33360e01b179052613b14565b6107d18282604051602401612c36929190615089565b60408051601f198184030181529190526020810180516001600160e01b0316634b5c427760e01b179052613b14565b612c6e81613b35565b61265a5760405162461bcd60e51b815260040161068890614d6e565b600081815260046020526040902080546001600160a01b0319166001600160a01b0384169081179091558190612cbf82611040565b6001600160a01b03167f8c5be1e5ebec7d5bd14f71427d1e84f3dd0314c0f7b2291e5b200ac8c7c3b92560405160405180910390a45050565b6106d3838383604051602401612d10939291906150ae565b60408051601f198184030181529190526020810180516001600160e01b031663ca47c4eb60e01b179052613b14565b600080805b600c54811015612d9057836001600160a01b0316612d6182611040565b6001600160a01b03161415612d7e5781612d7a81614bde565b9250505b80612d8881614bde565b915050612d44565b5061058a6040518060400160405280601b81526020017a67657453697a6542794f776e6572206974656d436f756e7420257360281b81525082613b52565b60606000612ddb83613b97565b60010190506000816001600160401b03811115612dfa57612dfa6145b9565b6040519080825280601f01601f191660200182016040528015612e24576020820181803683370190505b5090508181016020015b600019016f181899199a1a9b1b9c1cb0b131b232b360811b600a86061a8153600a8504945084612e5d5761093f565b612e2e565b600080612e6e83611040565b9050806001600160a01b0316846001600160a01b03161480612e955750612e9581856124f8565b806121a55750836001600160a01b0316612eae84610622565b6001600160a01b031614949350505050565b826001600160a01b0316612ed382611040565b6001600160a01b031614612ef95760405162461bcd60e51b81526004016106889061511b565b6001600160a01b038216612f1f5760405162461bcd60e51b81526004016106889061516a565b612f2c8383836001613c6d565b826001600160a01b0316612f3f82611040565b6001600160a01b031614612f655760405162461bcd60e51b81526004016106889061511b565b600081815260046020908152604080832080546001600160a01b03199081169091556001600160a01b0387811680865260038552838620805460001901905590871680865283862080546001019055868652600290945282852080549092168417909155905184937fddf252ad1be2c89b69c2b068fc378daa952ba7f163c4a11628f55a4df523b3ef91a4505050565b33612ffe61171c565b6001600160a01b031614610cbc5760405162461bcd60e51b8152600401610688906151aa565b61302c613cf5565b6007805460ff191690557f5db9ee0a495bf2e6ff9c91a7834c1ba4fdd244a5e8aa4e537bd38aeae4b073aa335b6040516130669190614490565b60405180910390a1565b6040805160208082018352600080835260ff85168152600f825283812084516101008101865281546001600160a01b0390811682526001830154169381019390935260028101549483019490945260038401805460609592939291838701916130d890614a5c565b80601f016020809104026020016040519081016040528092919081815260200182805461310490614a5c565b80156131515780601f1061312657610100808354040283529160200191613151565b820191906000526020600020905b81548152906001019060200180831161313457829003601f168201915b5050505050815260200160048201805461316a90614a5c565b80601f016020809104026020016040519081016040528092919081815260200182805461319690614a5c565b80156131e35780601f106131b8576101008083540402835291602001916131e3565b820191906000526020600020905b8154815290600101906020018083116131c657829003601f168201915b50505091835250506005820154602082015260068201546040820152600782015460609091019060ff16600481111561321e5761321e614bb2565b600481111561322f5761322f614bb2565b9052509050600061324260ff86166120a9565b905060006132538360200151610acc565b905060006132648460000151612365565b600e54604080870151905163a80f602d60e01b81529293506000926001600160a01b039092169163a80f602d9161329d9160040161474a565b600060405180830381865afa1580156132ba573d6000803e3d6000fd5b505050506040513d6000823e601f3d908101601f191682016040526132e29190810190614e6f565b905060ff89161561330a57604051806040016040528060018152602001600b60fa1b81525095505b6000866133198a60ff16612dce565b866133278960000151613d17565b866133358b60200151613d17565b60608c015160808d0151604051613358989796959493928d928c926020016151ba565b6040516020818303038152906040529050806133778760a00151612dce565b6133848860c00151612dce565b6133918960e00151613d2d565b6040516020016133a49493929190615309565b60408051808303601f190181529190529a9950505050505050505050565b6000908152600260205260409020546001600160a01b031690565b600061270f815b600b5481101561351e576000600b828154811061340357613403614bf9565b60009182526020918290206040805180820190915260029092020180546001600160a01b03168252600181018054929391929184019161344290614a5c565b80601f016020809104026020016040519081016040528092919081815260200182805461346e90614a5c565b80156134bb5780601f10613490576101008083540402835291602001916134bb565b820191906000526020600020905b81548152906001019060200180831161349e57829003601f168201915b5050505050815250509050846001600160a01b031681600001516001600160a01b0316141561350b576135076040518060600160405280602e81526020016157a6602e91398251612bdb565b8192505b508061351681614bde565b9150506133e4565b5061058a6040518060600160405280602381526020016157836023913982613b52565b600780546001600160a01b03838116610100818102610100600160a81b031985161790945560405193909204169182907f8be0079c531659141344cd1fd0a4f28419497f9722a3daafe3b4186f6b6457e090600090a35050565b6135a3613e7a565b6007805460ff191660011790557f62e78cea01bee320cd4e420270b5ea74000d11b0c9f74754ebdbfc544b05a2586130593390565b6120a3848484846040516024016135f2949392919061539e565b60408051601f198184030181529190526020810180516001600160e01b0316635ab84e1f60e01b179052613b14565b6107d1828260405180602001604052806000815250613e9d565b61364482613b35565b6136605760405162461bcd60e51b815260040161068890615437565b600082815260066020908152604090912082516106d392840190614224565b816001600160a01b0316836001600160a01b031614156136b15760405162461bcd60e51b815260040161068890615475565b6001600160a01b0383811660008181526005602090815260408083209487168084529490915290819020805460ff1916851515179055517f17307eab39ab6107e8899845ad3d59bd9653f200f220920489ca2b5937696c31906137159085906143bb565b60405180910390a3505050565b600061270f815b6009548110156138635760006009828154811061374857613748614bf9565b60009182526020918290206040805180820190915260029092020180546001600160a01b03168252600181018054929391929184019161378790614a5c565b80601f01602080910402602001604051908101604052809291908181526020018280546137b390614a5c565b80156138005780601f106137d557610100808354040283529160200191613800565b820191906000526020600020905b8154815290600101906020018083116137e357829003601f168201915b5050505050815250509050846001600160a01b031681600001516001600160a01b031614156138505761384c604051806060016040528060228152602001615719602291398251612bdb565b8192505b508061385b81614bde565b915050613729565b5061058a6040518060400160405280601d81526020017f67657452616e6741646d696e4279416464726573732072616e6720257300000081525082613b52565b6106d38383836040516024016138bb93929190615485565b60408051601f198184030181529190526020810180516001600160e01b0316630d26b92560e01b179052613b14565b6138f5848484612ec0565b61390184848484613ed0565b6120a35760405162461bcd60e51b8152600401610688906154f2565b6060600d805461059f90614a5c565b606061393782612c65565b600061394161391d565b90506000815111613961576040518060200160405280600081525061398c565b8061396b84612dce565b60405160200161397c929190614cf8565b6040516020818303038152906040525b9392505050565b600061270f815b600a54811015613ad4576000600a82815481106139b9576139b9614bf9565b60009182526020918290206040805180820190915260029092020180546001600160a01b0316825260018101805492939192918401916139f890614a5c565b80601f0160208091040260200160405190810160405280929190818152602001828054613a2490614a5c565b8015613a715780601f10613a4657610100808354040283529160200191613a71565b820191906000526020600020905b815481529060010190602001808311613a5457829003601f168201915b5050505050815250509050846001600160a01b031681600001516001600160a01b03161415613ac157613abd60405180606001604052806024815260200161573b602491398251612bdb565b8192505b5080613acc81614bde565b91505061399a565b5061058a6040518060400160405280601e81526020017f67657452616e67436c69656e744279416464726573732072616e67202573000081525082613b52565b80516a636f6e736f6c652e6c6f67602083016000808483855afa5050505050565b600080613b41836133c2565b6001600160a01b0316141592915050565b6107d18282604051602401613b68929190615502565b60408051601f198184030181529190526020810180516001600160e01b0316632d839cb360e21b179052613b14565b60008072184f03e93ff9f4daa797ed6e38ed64bf6a1f0160401b8310613bd65772184f03e93ff9f4daa797ed6e38ed64bf6a1f0160401b830492506040015b6904ee2d6d415b85acef8160201b8310613c00576904ee2d6d415b85acef8160201b830492506020015b662386f26fc100008310613c1e57662386f26fc10000830492506010015b6305f5e1008310613c36576305f5e100830492506008015b6127108310613c4a57612710830492506004015b60648310613c5c576064830492506002015b600a831061058a5760010192915050565b60018111156120a3576001600160a01b03841615613cb3576001600160a01b03841660009081526003602052604081208054839290613cad908490614d7e565b90915550505b6001600160a01b038316156120a3576001600160a01b03831660009081526003602052604081208054839290613cea908490614d95565b909155505050505050565b60075460ff16610cbc5760405162461bcd60e51b81526004016106889061554b565b606061058a6001600160a01b0383166014613fce565b6060816004811115613d4157613d41614bb2565b613d6957505060408051808201909152600881526721b932b0ba34b7b760c11b602082015290565b816004811115613d7b57613d7b614bb2565b60011415613da957505060408051808201909152600a81526922bc3832b234ba34b7b760b11b602082015290565b816004811115613dbb57613dbb614bb2565b60021415613de85750506040805180820190915260098152682932b1b2b83a34b7b760b91b602082015290565b816004811115613dfa57613dfa614bb2565b60031415613e2857505060408051808201909152600a81526920b7373ab630ba34b7b760b11b602082015290565b816004811115613e3a57613e3a614bb2565b60041415613e665750506040805180820190915260088152672932b73b37bcb2b960c11b602082015290565b505060408051602081019091526000815290565b60075460ff1615610cbc5760405162461bcd60e51b815260040161068890615580565b613ea78383614139565b613eb46000848484613ed0565b6106d35760405162461bcd60e51b8152600401610688906154f2565b60006001600160a01b0384163b15613fc357604051630a85bd0160e11b81526001600160a01b0385169063150b7a0290613f14903390899088908890600401615590565b6020604051808303816000875af1925050508015613f4f575060408051601f3d908101601f19168201909252613f4c918101906155d5565b60015b613fa9573d808015613f7d576040519150601f19603f3d011682016040523d82523d6000602084013e613f82565b606091505b508051613fa15760405162461bcd60e51b8152600401610688906154f2565b805181602001fd5b6001600160e01b031916630a85bd0160e11b1490506121a5565b506001949350505050565b60606000613fdd8360026155f6565b613fe8906002614d95565b6001600160401b03811115613fff57613fff6145b9565b6040519080825280601f01601f191660200182016040528015614029576020820181803683370190505b509050600360fc1b8160008151811061404457614044614bf9565b60200101906001600160f81b031916908160001a905350600f60fb1b8160018151811061407357614073614bf9565b60200101906001600160f81b031916908160001a90535060006140978460026155f6565b6140a2906001614d95565b90505b600181111561411a576f181899199a1a9b1b9c1cb0b131b232b360811b85600f16601081106140d6576140d6614bf9565b1a60f81b8282815181106140ec576140ec614bf9565b60200101906001600160f81b031916908160001a90535060049490941c9361411381615615565b90506140a5565b50831561398c5760405162461bcd60e51b81526004016106889061565c565b6001600160a01b03821661415f5760405162461bcd60e51b81526004016106889061569c565b61416881613b35565b156141855760405162461bcd60e51b8152600401610688906156de565b614193600083836001613c6d565b61419c81613b35565b156141b95760405162461bcd60e51b8152600401610688906156de565b6001600160a01b038216600081815260036020908152604080832080546001019055848352600290915280822080546001600160a01b0319168417905551839291907fddf252ad1be2c89b69c2b068fc378daa952ba7f163c4a11628f55a4df523b3ef908290a45050565b82805461423090614a5c565b90600052602060002090601f0160209004810192826142525760008555614298565b82601f1061426b57805160ff1916838001178555614298565b82800160010185558215614298579182015b8281111561429857825182559160200191906001019061427d565b506142a4929150614359565b5090565b8280546142b490614a5c565b90600052602060002090601f0160209004810192826142d65760008555614298565b82601f106142e75780548555614298565b8280016001018555821561429857600052602060002091601f016020900482015b82811115614298578254825591600101919060010190614308565b50805461432f90614a5c565b6000825580601f1061433f575050565b601f01602090049060005260206000209081019061265a91905b5b808211156142a4576000815560010161435a565b6001600160e01b031981165b811461265a57600080fd5b803561058a8161436e565b6000602082840312156143a5576143a5600080fd5b60006121a58484614385565b8015155b82525050565b6020810161058a82846143b1565b60005b838110156143e45781810151838201526020016143cc565b838111156120a35750506000910152565b601f01601f191690565b6000614409825190565b8084526020840193506144208185602086016143c9565b614429816143f5565b9093019392505050565b6020808252810161398c81846143ff565b8061437a565b803561058a81614444565b60006020828403121561446a5761446a600080fd5b60006121a5848461444a565b60006001600160a01b03821661058a565b6143b581614476565b6020810161058a8284614487565b61437a81614476565b803561058a8161449e565b600080604083850312156144c8576144c8600080fd5b60006144d485856144a7565b92505060206144e58582860161444a565b9150509250929050565b6000806040838503121561450557614505600080fd5b60006144d4858561444a565b60006020828403121561452657614526600080fd5b60006121a584846144a7565b600061398c83836143ff565b60200190565b600061454e825190565b808452602084019350836020820285016145688560200190565b60005b8481101561459c57838303885281516145848482614532565b9350506020820160209890980197915060010161456b565b50909695505050505050565b6020808252810161398c8184614544565b634e487b7160e01b600052604160045260246000fd5b6145d8826143f5565b81018181106001600160401b03821117156145f5576145f56145b9565b6040525050565b600061460760405190565b9050610f4482826145cf565b60006001600160401b0382111561462c5761462c6145b9565b614635826143f5565b60200192915050565b82818337506000910152565b600061465d61465884614613565b6145fc565b90508281526020810184848401111561467857614678600080fd5b61093f84828561463e565b600082601f83011261469757614697600080fd5b81356121a584826020860161464a565b600080604083850312156146bd576146bd600080fd5b60006146c985856144a7565b92505060208301356001600160401b038111156146e8576146e8600080fd5b6144e585828601614683565b60008060006060848603121561470c5761470c600080fd5b600061471886866144a7565b9350506020614729868287016144a7565b925050604061473a8682870161444a565b9150509250925092565b806143b5565b6020810161058a8284614744565b8051600090604084019061476c8582614487565b506020830151848203602086015261478482826143ff565b95945050505050565b600061398c8383614758565b60006147a3825190565b808452602084019350836020820285016147bd8560200190565b60005b8481101561459c57838303885281516147d9848261478d565b935050602082016020989098019791506001016147c0565b6020808252810161398c8184614799565b6000806000806080858703121561481b5761481b600080fd5b6000614827878761444a565b94505060208501356001600160401b0381111561484657614846600080fd5b61485287828801614683565b93505060408501356001600160401b0381111561487157614871600080fd5b61487d87828801614683565b92505060608501356001600160401b0381111561489c5761489c600080fd5b6148a887828801614683565b91505092959194509250565b80151561437a565b803561058a816148b4565b600080604083850312156148dd576148dd600080fd5b60006148e985856144a7565b92505060206144e5858286016148bc565b6000614904825190565b8084526020840193508360208202850161491e8560200190565b60005b8481101561459c578383038852815161493a848261478d565b93505060208201602098909801979150600101614921565b6020808252810161398c81846148fa565b6000806000806080858703121561497c5761497c600080fd5b600061498887876144a7565b9450506020614999878288016144a7565b935050604061487d8782880161444a565b600080604083850312156149c0576149c0600080fd5b60006149cc85856144a7565b92505060206144e5858286016144a7565b60006149e7825190565b80845260208401935083602082028501614a018560200190565b60005b8481101561459c5783830388528151614a1d848261478d565b93505060208201602098909801979150600101614a04565b6020808252810161398c81846149dd565b634e487b7160e01b600052602260045260246000fd5b600281046001821680614a7057607f821691505b60208210811415614a8357614a83614a46565b50919050565b60218152602081017f4552433732313a20617070726f76616c20746f2063757272656e74206f776e658152603960f91b602082015290505b60400190565b6020808252810161058a81614a89565b603d8152602081017f4552433732313a20617070726f76652063616c6c6572206973206e6f7420746f81527f6b656e206f776e6572206f7220617070726f76656420666f7220616c6c00000060208201529050614ac1565b6020808252810161058a81614ad7565b60118152602081017014185cc81b1948189bdb8818db1a595b9d607a1b8152905061453e565b6020808252810161058a81614b3f565b601881526020810177776f726b666c6f775374617465206e6f742076616c69646560401b8152905061453e565b6020808252810161058a81614b75565b634e487b7160e01b600052602160045260246000fd5b634e487b7160e01b600052601160045260246000fd5b6000600019821415614bf257614bf2614bc8565b5060010190565b634e487b7160e01b600052603260045260246000fd5b6000614c19825190565b614c278185602086016143c9565b9290920192915050565b61058a8183614c0f565b6009815260208101682737ba1020b236b4b760b91b8152905061453e565b6020808252810161058a81614c3b565b60128152602081017141646472657373206e6f742076616c69646560701b8152905061453e565b6020808252810161058a81614c69565b602d8152602081017f4552433732313a2063616c6c6572206973206e6f7420746f6b656e206f776e6581526c1c881bdc88185c1c1c9bdd9959609a1b60208201529050614ac1565b6020808252810161058a81614ca0565b614d028184614c0f565b905061398c8183614c0f565b60ff81169050600060ff821415614bf257614bf2614bc8565b614d318183614c0f565b605d60f81b815260010192915050565b601881526020810177115490cdcc8c4e881a5b9d985b1a59081d1bdad95b88125160421b8152905061453e565b6020808252810161058a81614d41565b600082821015614d9057614d90614bc8565b500390565b60008219821115614da857614da8614bc8565b500190565b634e487b7160e01b600052603160045260246000fd5b60298152602081017f4552433732313a2061646472657373207a65726f206973206e6f7420612076618152683634b21037bbb732b960b91b60208201529050614ac1565b6020808252810161058a81614dc3565b6000614e2561465884614613565b905082815260208101848484011115614e4057614e40600080fd5b61093f8482856143c9565b600082601f830112614e5f57614e5f600080fd5b81516121a5848260208601614e17565b600060208284031215614e8457614e84600080fd5b81516001600160401b03811115614e9d57614e9d600080fd5b6121a584828501614e4b565b607b60f81b9052565b641134b2111d60d91b9052565b761116113932b332b932b731b2a6b0ba32b934b2b6111d1160491b9052565b61227d60f01b9052565b614ef28187614c0f565b9050614efe8186614c0f565b9050614f0981614ea9565b600101614f1581614eb2565b600501614f228185614c0f565b6f16113737b6a6b0ba32b934b2b6111d1160811b81529050601001614f478184614c0f565b9050614f5281614ebf565b601701614f5f8183614c0f565b9050614f6a81614ede565b60020195945050505050565b60108152602081016f13dddb995c88191d4818dbdb9d1c985d60821b8152905061453e565b6020808252810161058a81614f76565b6016815260208101752830b9903632903137b7103337bab93734b9b9b2bab960511b8152905061453e565b6020808252810161058a81614fab565b60268152602081017f4f776e61626c653a206e6577206f776e657220697320746865207a65726f206181526564647265737360d01b60208201529050614ac1565b6020808252810161058a81614fe6565b6060808252810161504881866143ff565b90506150576020830185614487565b818103604083015261478481846143ff565b6040808252810161507a81856143ff565b905061398c6020830184614487565b6040808252810161509a81856143ff565b905081810360208301526121a581846143ff565b606080825281016150bf81866143ff565b90506150ce6020830185614744565b6121a56040830184614744565b60258152602081017f4552433732313a207472616e736665722066726f6d20696e636f72726563742081526437bbb732b960d91b60208201529050614ac1565b6020808252810161058a816150db565b60248152602081017f4552433732313a207472616e7366657220746f20746865207a65726f206164648152637265737360e01b60208201529050614ac1565b6020808252810161058a8161512b565b60208082527f4f776e61626c653a2063616c6c6572206973206e6f7420746865206f776e6572910190815261453e565b6020808252810161058a8161517a565b6151c4818c614c0f565b90506151cf81614ea9565b6001016151db81614eb2565b6005016151e8818b614c0f565b6716113ab934911d1160c11b81529050600801615205818a614c0f565b701116113337bab93734b9b9b2bab9111d1160791b8152905060110161522b8189614c0f565b731116113737b6a337bab93734b9b9b2bab9111d1160611b815290506014016152548188614c0f565b6b11161131b634b2b73a111d1160a11b81529050600c016152758187614c0f565b6e1116113737b6a1b634b2b73a111d1160891b81529050600f016152998186614c0f565b701116113737b6a6b0ba32b934b2b6111d1160791b815290506011016152bf8185614c0f565b90506152ca81614ebf565b6017016152d78184614c0f565b6d1116113ab93624b6b0b3b2911d1160911b81529050600e016152fa8183614c0f565b9b9a5050505050505050505050565b6153138186614c0f565b721116113230ba32a2bc3832b234ba34b7b7111d60691b8152905060130161533b8185614c0f565b7016113230ba32a932b1b2b83a34b7b7111d60791b815290506011016153618184614c0f565b7116113bb7b935b33637bba9ba30ba32911d1160711b815290506012016153888183614c0f565b905061539381614ede565b600201949350505050565b608080825281016153af81876143ff565b90506153be6020830186614744565b81810360408301526153d081856143ff565b905081810360608301526153e481846143ff565b9695505050505050565b602e8152602081017f45524337323155524953746f726167653a2055524920736574206f66206e6f6e81526d32bc34b9ba32b73a103a37b5b2b760911b60208201529050614ac1565b6020808252810161058a816153ee565b60198152602081017822a9219b99189d1030b8383937bb32903a379031b0b63632b960391b8152905061453e565b6020808252810161058a81615447565b6060808252810161549681866143ff565b90506150ce6020830185614487565b60328152602081017f4552433732313a207472616e7366657220746f206e6f6e20455243373231526581527131b2b4bb32b91034b6b83632b6b2b73a32b960711b60208201529050614ac1565b6020808252810161058a816154a5565b6040808252810161551381856143ff565b905061398c6020830184614744565b60148152602081017314185d5cd8589b194e881b9bdd081c185d5cd95960621b8152905061453e565b6020808252810161058a81615522565b60108152602081016f14185d5cd8589b194e881c185d5cd95960821b8152905061453e565b6020808252810161058a8161555b565b6080810161559e8287614487565b6155ab6020830186614487565b6155b86040830185614744565b81810360608301526153e481846143ff565b805161058a8161436e565b6000602082840312156155ea576155ea600080fd5b60006121a584846155ca565b600081600019048311821515161561561057615610614bc8565b500290565b60008161562457615624614bc8565b506000190190565b60208082527f537472696e67733a20686578206c656e67746820696e73756666696369656e74910190815261453e565b6020808252810161058a8161562c565b60208082527f4552433732313a206d696e7420746f20746865207a65726f2061646472657373910190815261453e565b6020808252810161058a8161566c565b601c8152602081017f4552433732313a20746f6b656e20616c7265616479206d696e746564000000008152905061453e565b6020808252810161058a816156ac56fe676574466f75726e697373657572427941646472657373205f666f75726e6973736575722e696420257367657452616e6741646d696e427941646472657373205f61646d696e2e696420257367657452616e67436c69656e74427941646472657373205f636c69656e742e6964202573726563657074696f6e206974656d496420257320776f726b666c6f77537461746520257367657452616e67466f75726e6973736575724279416464726573732072616e6720257367657452616e67466f75726e697373657572427941646472657373205f666f75726e6973736575722e696420257367657449644279466f75726e697373657572206e6f6d4d6174657269656c202573746f6b656e69736174696f6e2069644d6174657269656c20257320757269202573207265666572656e63654d6174657269656c202573a26469706673582212203e256d25a8a6141ff07a66b47c9b42cab083262d6d0dce6e062841cdde99af2664736f6c634300080c0033",
  "linkReferences": {},
  "deployedLinkReferences": {}
}