{
  "_format": "hh-sol-artifact-1",
  "contractName": "Demonstrateur",
  "sourceName": "contracts/Demonstrateur.sol",
  "abi": [
    {
      "inputs": [
        {
          "internalType": "string",
          "name": "definitiveName",
          "type": "string"
        },
        {
          "internalType": "string",
          "name": "definitiveSymbol",
          "type": "string"
        },
        {
          "internalType": "string",
          "name": "definitiveBaseURI",
          "type": "string"
        }
      ],
      "stateMutability": "nonpayable",
      "type": "constructor"
    },
    {
      "anonymous": false,
      "inputs": [
        {
          "indexed": true,
          "internalType": "address",
          "name": "owner",
          "type": "address"
        },
        {
          "indexed": true,
          "internalType": "address",
          "name": "approved",
          "type": "address"
        },
        {
          "indexed": true,
          "internalType": "uint256",
          "name": "tokenId",
          "type": "uint256"
        }
      ],
      "name": "Approval",
      "type": "event"
    },
    {
      "anonymous": false,
      "inputs": [
        {
          "indexed": true,
          "internalType": "address",
          "name": "owner",
          "type": "address"
        },
        {
          "indexed": true,
          "internalType": "address",
          "name": "operator",
          "type": "address"
        },
        {
          "indexed": false,
          "internalType": "bool",
          "name": "approved",
          "type": "bool"
        }
      ],
      "name": "ApprovalForAll",
      "type": "event"
    },
    {
      "anonymous": false,
      "inputs": [
        {
          "indexed": true,
          "internalType": "address",
          "name": "from",
          "type": "address"
        },
        {
          "indexed": true,
          "internalType": "address",
          "name": "to",
          "type": "address"
        }
      ],
      "name": "EventReception",
      "type": "event"
    },
    {
      "anonymous": false,
      "inputs": [
        {
          "indexed": true,
          "internalType": "address",
          "name": "previousOwner",
          "type": "address"
        },
        {
          "indexed": true,
          "internalType": "address",
          "name": "newOwner",
          "type": "address"
        }
      ],
      "name": "OwnershipTransferred",
      "type": "event"
    },
    {
      "anonymous": false,
      "inputs": [
        {
          "indexed": false,
          "internalType": "address",
          "name": "account",
          "type": "address"
        }
      ],
      "name": "Paused",
      "type": "event"
    },
    {
      "anonymous": false,
      "inputs": [
        {
          "indexed": true,
          "internalType": "address",
          "name": "from",
          "type": "address"
        },
        {
          "indexed": true,
          "internalType": "address",
          "name": "to",
          "type": "address"
        },
        {
          "indexed": true,
          "internalType": "uint256",
          "name": "tokenId",
          "type": "uint256"
        }
      ],
      "name": "Transfer",
      "type": "event"
    },
    {
      "anonymous": false,
      "inputs": [
        {
          "indexed": false,
          "internalType": "address",
          "name": "account",
          "type": "address"
        }
      ],
      "name": "Unpaused",
      "type": "event"
    },
    {
      "inputs": [],
      "name": "_addressContratMateriel",
      "outputs": [
        {
          "internalType": "address",
          "name": "",
          "type": "address"
        }
      ],
      "stateMutability": "view",
      "type": "function"
    },
    {
      "inputs": [
        {
          "internalType": "address",
          "name": "id",
          "type": "address"
        },
        {
          "internalType": "string",
          "name": "nom",
          "type": "string"
        }
      ],
      "name": "ajouterAdmin",
      "outputs": [],
      "stateMutability": "nonpayable",
      "type": "function"
    },
    {
      "inputs": [
        {
          "internalType": "address",
          "name": "id",
          "type": "address"
        },
        {
          "internalType": "string",
          "name": "nom",
          "type": "string"
        }
      ],
      "name": "ajouterClient",
      "outputs": [],
      "stateMutability": "nonpayable",
      "type": "function"
    },
    {
      "inputs": [
        {
          "internalType": "address",
          "name": "id",
          "type": "address"
        },
        {
          "internalType": "string",
          "name": "nom",
          "type": "string"
        }
      ],
      "name": "ajouterFournisseur",
      "outputs": [],
      "stateMutability": "nonpayable",
      "type": "function"
    },
    {
      "inputs": [
        {
          "internalType": "address",
          "name": "to",
          "type": "address"
        },
        {
          "internalType": "uint256",
          "name": "tokenId",
          "type": "uint256"
        }
      ],
      "name": "approve",
      "outputs": [],
      "stateMutability": "nonpayable",
      "type": "function"
    },
    {
      "inputs": [
        {
          "internalType": "address",
          "name": "owner",
          "type": "address"
        }
      ],
      "name": "balanceOf",
      "outputs": [
        {
          "internalType": "uint256",
          "name": "",
          "type": "uint256"
        }
      ],
      "stateMutability": "view",
      "type": "function"
    },
    {
      "inputs": [
        {
          "internalType": "address",
          "name": "client",
          "type": "address"
        },
        {
          "internalType": "uint256",
          "name": "itemId",
          "type": "uint256"
        }
      ],
      "name": "expedition",
      "outputs": [],
      "stateMutability": "nonpayable",
      "type": "function"
    },
    {
      "inputs": [
        {
          "internalType": "uint256",
          "name": "tokenId",
          "type": "uint256"
        }
      ],
      "name": "getApproved",
      "outputs": [
        {
          "internalType": "address",
          "name": "",
          "type": "address"
        }
      ],
      "stateMutability": "view",
      "type": "function"
    },
    {
      "inputs": [
        {
          "internalType": "address",
          "name": "client",
          "type": "address"
        }
      ],
      "name": "getIdByClient",
      "outputs": [
        {
          "internalType": "string[]",
          "name": "",
          "type": "string[]"
        }
      ],
      "stateMutability": "view",
      "type": "function"
    },
    {
      "inputs": [
        {
          "internalType": "address",
          "name": "fournisseur",
          "type": "address"
        }
      ],
      "name": "getIdByFournisseur",
      "outputs": [
        {
          "internalType": "string[]",
          "name": "",
          "type": "string[]"
        }
      ],
      "stateMutability": "view",
      "type": "function"
    },
    {
      "inputs": [
        {
          "internalType": "address",
          "name": "owner",
          "type": "address"
        }
      ],
      "name": "getIdByOwner",
      "outputs": [
        {
          "internalType": "string[]",
          "name": "",
          "type": "string[]"
        }
      ],
      "stateMutability": "view",
      "type": "function"
    },
    {
      "inputs": [],
      "name": "getJsonCommandes",
      "outputs": [
        {
          "internalType": "string",
          "name": "",
          "type": "string"
        }
      ],
      "stateMutability": "view",
      "type": "function"
    },
    {
      "inputs": [
        {
          "internalType": "address",
          "name": "owner",
          "type": "address"
        }
      ],
      "name": "getJsonMyMateriels",
      "outputs": [
        {
          "internalType": "string",
          "name": "",
          "type": "string"
        }
      ],
      "stateMutability": "view",
      "type": "function"
    },
    {
      "inputs": [],
      "name": "getListeAdmins",
      "outputs": [
        {
          "components": [
            {
              "internalType": "address",
              "name": "id",
              "type": "address"
            },
            {
              "internalType": "string",
              "name": "nom",
              "type": "string"
            }
          ],
          "internalType": "struct Role.Admin[]",
          "name": "",
          "type": "tuple[]"
        }
      ],
      "stateMutability": "view",
      "type": "function"
    },
    {
      "inputs": [],
      "name": "getListeClients",
      "outputs": [
        {
          "components": [
            {
              "internalType": "address",
              "name": "id",
              "type": "address"
            },
            {
              "internalType": "string",
              "name": "nom",
              "type": "string"
            }
          ],
          "internalType": "struct Role.Client[]",
          "name": "",
          "type": "tuple[]"
        }
      ],
      "stateMutability": "view",
      "type": "function"
    },
    {
      "inputs": [],
      "name": "getListeFournisseurs",
      "outputs": [
        {
          "components": [
            {
              "internalType": "address",
              "name": "id",
              "type": "address"
            },
            {
              "internalType": "string",
              "name": "nom",
              "type": "string"
            }
          ],
          "internalType": "struct Role.Fournisseur[]",
          "name": "",
          "type": "tuple[]"
        }
      ],
      "stateMutability": "view",
      "type": "function"
    },
    {
      "inputs": [
        {
          "internalType": "address",
          "name": "id",
          "type": "address"
        }
      ],
      "name": "getNomAdminByAddress",
      "outputs": [
        {
          "internalType": "string",
          "name": "",
          "type": "string"
        }
      ],
      "stateMutability": "view",
      "type": "function"
    },
    {
      "inputs": [
        {
          "internalType": "address",
          "name": "id",
          "type": "address"
        }
      ],
      "name": "getNomClientByAddress",
      "outputs": [
        {
          "internalType": "string",
          "name": "",
          "type": "string"
        }
      ],
      "stateMutability": "view",
      "type": "function"
    },
    {
      "inputs": [
        {
          "internalType": "address",
          "name": "id",
          "type": "address"
        }
      ],
      "name": "getNomFournisseurByAddress",
      "outputs": [
        {
          "internalType": "string",
          "name": "",
          "type": "string"
        }
      ],
      "stateMutability": "view",
      "type": "function"
    },
    {
      "inputs": [
        {
          "internalType": "address",
          "name": "id",
          "type": "address"
        }
      ],
      "name": "getRoleByAddress",
      "outputs": [
        {
          "internalType": "string",
          "name": "",
          "type": "string"
        }
      ],
      "stateMutability": "view",
      "type": "function"
    },
    {
      "inputs": [
        {
          "internalType": "address",
          "name": "owner",
          "type": "address"
        },
        {
          "internalType": "address",
          "name": "operator",
          "type": "address"
        }
      ],
      "name": "isApprovedForAll",
      "outputs": [
        {
          "internalType": "bool",
          "name": "",
          "type": "bool"
        }
      ],
      "stateMutability": "view",
      "type": "function"
    },
    {
      "inputs": [],
      "name": "name",
      "outputs": [
        {
          "internalType": "string",
          "name": "",
          "type": "string"
        }
      ],
      "stateMutability": "view",
      "type": "function"
    },
    {
      "inputs": [],
      "name": "owner",
      "outputs": [
        {
          "internalType": "address",
          "name": "",
          "type": "address"
        }
      ],
      "stateMutability": "view",
      "type": "function"
    },
    {
      "inputs": [
        {
          "internalType": "uint256",
          "name": "tokenId",
          "type": "uint256"
        }
      ],
      "name": "ownerOf",
      "outputs": [
        {
          "internalType": "address",
          "name": "",
          "type": "address"
        }
      ],
      "stateMutability": "view",
      "type": "function"
    },
    {
      "inputs": [],
      "name": "pause",
      "outputs": [],
      "stateMutability": "nonpayable",
      "type": "function"
    },
    {
      "inputs": [],
      "name": "paused",
      "outputs": [
        {
          "internalType": "bool",
          "name": "",
          "type": "bool"
        }
      ],
      "stateMutability": "view",
      "type": "function"
    },
    {
      "inputs": [
        {
          "internalType": "uint256",
          "name": "itemId",
          "type": "uint256"
        },
        {
          "internalType": "uint256",
          "name": "workflowState",
          "type": "uint256"
        }
      ],
      "name": "reception",
      "outputs": [],
      "stateMutability": "nonpayable",
      "type": "function"
    },
    {
      "inputs": [],
      "name": "renounceOwnership",
      "outputs": [],
      "stateMutability": "nonpayable",
      "type": "function"
    },
    {
      "inputs": [
        {
          "internalType": "address",
          "name": "from",
          "type": "address"
        },
        {
          "internalType": "address",
          "name": "to",
          "type": "address"
        },
        {
          "internalType": "uint256",
          "name": "tokenId",
          "type": "uint256"
        }
      ],
      "name": "safeTransferFrom",
      "outputs": [],
      "stateMutability": "nonpayable",
      "type": "function"
    },
    {
      "inputs": [
        {
          "internalType": "address",
          "name": "from",
          "type": "address"
        },
        {
          "internalType": "address",
          "name": "to",
          "type": "address"
        },
        {
          "internalType": "uint256",
          "name": "tokenId",
          "type": "uint256"
        },
        {
          "internalType": "bytes",
          "name": "data",
          "type": "bytes"
        }
      ],
      "name": "safeTransferFrom",
      "outputs": [],
      "stateMutability": "nonpayable",
      "type": "function"
    },
    {
      "inputs": [
        {
          "internalType": "address",
          "name": "addressContratMateriel",
          "type": "address"
        }
      ],
      "name": "setAddressContratMateriel",
      "outputs": [],
      "stateMutability": "nonpayable",
      "type": "function"
    },
    {
      "inputs": [
        {
          "internalType": "address",
          "name": "operator",
          "type": "address"
        },
        {
          "internalType": "bool",
          "name": "approved",
          "type": "bool"
        }
      ],
      "name": "setApprovalForAll",
      "outputs": [],
      "stateMutability": "nonpayable",
      "type": "function"
    },
    {
      "inputs": [
        {
          "internalType": "bytes4",
          "name": "interfaceId",
          "type": "bytes4"
        }
      ],
      "name": "supportsInterface",
      "outputs": [
        {
          "internalType": "bool",
          "name": "",
          "type": "bool"
        }
      ],
      "stateMutability": "view",
      "type": "function"
    },
    {
      "inputs": [
        {
          "internalType": "address",
          "name": "id",
          "type": "address"
        }
      ],
      "name": "supprimerAdmin",
      "outputs": [],
      "stateMutability": "nonpayable",
      "type": "function"
    },
    {
      "inputs": [
        {
          "internalType": "address",
          "name": "id",
          "type": "address"
        }
      ],
      "name": "supprimerClient",
      "outputs": [],
      "stateMutability": "nonpayable",
      "type": "function"
    },
    {
      "inputs": [
        {
          "internalType": "address",
          "name": "id",
          "type": "address"
        }
      ],
      "name": "supprimerFournisseur",
      "outputs": [],
      "stateMutability": "nonpayable",
      "type": "function"
    },
    {
      "inputs": [],
      "name": "symbol",
      "outputs": [
        {
          "internalType": "string",
          "name": "",
          "type": "string"
        }
      ],
      "stateMutability": "view",
      "type": "function"
    },
    {
      "inputs": [
        {
          "internalType": "uint256",
          "name": "tokenId",
          "type": "uint256"
        }
      ],
      "name": "tokenURI",
      "outputs": [
        {
          "internalType": "string",
          "name": "",
          "type": "string"
        }
      ],
      "stateMutability": "view",
      "type": "function"
    },
    {
      "inputs": [
        {
          "internalType": "uint256",
          "name": "idMateriel",
          "type": "uint256"
        },
        {
          "internalType": "string",
          "name": "uri",
          "type": "string"
        },
        {
          "internalType": "string",
          "name": "urlImage",
          "type": "string"
        },
        {
          "internalType": "string",
          "name": "referenceMateriel",
          "type": "string"
        }
      ],
      "name": "tokenisation",
      "outputs": [],
      "stateMutability": "nonpayable",
      "type": "function"
    },
    {
      "inputs": [
        {
          "internalType": "address",
          "name": "from",
          "type": "address"
        },
        {
          "internalType": "address",
          "name": "to",
          "type": "address"
        },
        {
          "internalType": "uint256",
          "name": "tokenId",
          "type": "uint256"
        }
      ],
      "name": "transferFrom",
      "outputs": [],
      "stateMutability": "nonpayable",
      "type": "function"
    },
    {
      "inputs": [
        {
          "internalType": "address",
          "name": "newOwner",
          "type": "address"
        }
      ],
      "name": "transferOwnership",
      "outputs": [],
      "stateMutability": "nonpayable",
      "type": "function"
    },
    {
      "inputs": [],
      "name": "unpause",
      "outputs": [],
      "stateMutability": "nonpayable",
      "type": "function"
    }
  ],
  "bytecode": "0x60806040523480156200001157600080fd5b506040516200666b3803806200666b833981016040819052620000349162000814565b8251839083906200004d90600090602085019062000631565b5080516200006390600190602084019062000631565b50506007805460ff19169055506200007b33620000d4565b80516200009090600d90602084019062000631565b506200009c336200012e565b620000cb336040518060400160405280600581526020016427bbb732b960d91b8152506200015a60201b60201c565b50505062000b21565b600780546001600160a01b03838116610100818102610100600160a81b031985161790945560405193909204169182907f8be0079c531659141344cd1fd0a4f28419497f9722a3daafe3b4186f6b6457e090600090a35050565b6200013862000306565b600880546001600160a01b0319166001600160a01b0392909216919091179055565b60085433906001600160a01b0316811480620001ba5750604080516000815260208101918290525190206200018f826200033b565b604051602001620001a19190620008e8565b6040516020818303038152906040528051906020012014155b620001e25760405162461bcd60e51b8152600401620001d99062000914565b60405180910390fd5b6200022f6040518060400160405280601981526020017f616a6f7574657241646d696e206964202573206e6f6d2025730000000000000081525084846200051e60201b620029c01760201c565b6001600160a01b038316620002585760405162461bcd60e51b8152600401620001d9906200094e565b604080518082019091526001600160a01b03848116825260208083018581526009805460018101825560009190915284517f6e1540171b6c0c960b71a7020d9f60077f6af931a8bbf590da0223dacf75c7af600290920291820180546001600160a01b0319169190951617845590518051620002fe937f6e1540171b6c0c960b71a7020d9f60077f6af931a8bbf590da0223dacf75c7b090930192919091019062000631565b505050505050565b6007546001600160a01b03610100909104163314620003395760405162461bcd60e51b8152600401620001d99062000991565b565b60408051602081019091526000808252606091905b600954811015620004cb57600060098281548110620003735762000373620009a3565b60009182526020918290206040805180820190915260029092020180546001600160a01b031682526001810180549293919291840191620003b490620009cf565b80601f0160208091040260200160405190810160405280929190818152602001828054620003e290620009cf565b8015620004335780601f10620004075761010080835404028352916020019162000433565b820191906000526020600020905b8154815290600101906020018083116200041557829003601f168201915b5050505050815250509050846001600160a01b031681600001516001600160a01b03161415620004b557620004ad6040518060400160405280601e81526020017f67657441646d696e427941646472657373205f61646d696e2e6964202573000081525082600001516200057260201b62002a071760201c565b806020015192505b5080620004c28162000a16565b91505062000350565b50620005186040518060400160405280601b81526020017f6765744e6f6d41646d696e427941646472657373206e6f6d202573000000000081525082620005c360201b62002a4c1760201c565b92915050565b6200056d838383604051602401620005399392919062000a8c565b60408051601f198184030181529190526020810180516001600160e01b0390811663e0e9ad4f60e01b179091526200061016565b505050565b620005bf82826040516024016200058b92919062000acd565b60408051601f198184030181529190526020810180516001600160e01b0390811663319af33360e01b179091526200061016565b5050565b620005bf8282604051602401620005dc92919062000af8565b60408051601f198184030181529190526020810180516001600160e01b03908116634b5c427760e01b179091526200061016565b80516a636f6e736f6c652e6c6f67602083016000808483855afa5050505050565b8280546200063f90620009cf565b90600052602060002090601f016020900481019282620006635760008555620006ae565b82601f106200067e57805160ff1916838001178555620006ae565b82800160010185558215620006ae579182015b82811115620006ae57825182559160200191906001019062000691565b50620006bc929150620006c0565b5090565b5b80821115620006bc5760008155600101620006c1565b634e487b7160e01b600052604160045260246000fd5b601f19601f83011681016001600160401b0381118282101715620007155762000715620006d7565b6040525050565b60006200072860405190565b9050620007368282620006ed565b919050565b60006001600160401b03821115620007575762000757620006d7565b601f19601f83011660200192915050565b60005b83811015620007855781810151838201526020016200076b565b8381111562000795576000848401525b50505050565b6000620007b2620007ac846200073b565b6200071c565b905082815260208101848484011115620007cf57620007cf600080fd5b620007dc84828562000768565b509392505050565b600082601f830112620007fa57620007fa600080fd5b81516200080c8482602086016200079b565b949350505050565b6000806000606084860312156200082e576200082e600080fd5b83516001600160401b03811115620008495762000849600080fd5b6200085786828701620007e4565b602086015190945090506001600160401b038111156200087a576200087a600080fd5b6200088886828701620007e4565b604086015190935090506001600160401b03811115620008ab57620008ab600080fd5b620008b986828701620007e4565b9150509250925092565b6000620008ce825190565b620008de81856020860162000768565b9290920192915050565b620005188183620008c3565b6009815260208101682737ba1020b236b4b760b91b815290505b60200190565b602080825281016200051881620008f4565b60128152602081017141646472657373206e6f742076616c69646560701b815290506200090e565b60208082528101620005188162000926565b60208082527f4f776e61626c653a2063616c6c6572206973206e6f7420746865206f776e657291019081526200090e565b60208082528101620005188162000960565b634e487b7160e01b600052603260045260246000fd5b634e487b7160e01b600052602260045260246000fd5b600281046001821680620009e457607f821691505b60208210811415620009fa57620009fa620009b9565b50919050565b634e487b7160e01b600052601160045260246000fd5b600060001982141562000a2d5762000a2d62000a00565b5060010190565b600062000a3f825190565b80845260208401935062000a5881856020860162000768565b601f01601f19169290920192915050565b60006001600160a01b03821662000518565b62000a868162000a69565b82525050565b6060808252810162000a9f818662000a34565b905062000ab0602083018562000a7b565b818103604083015262000ac4818462000a34565b95945050505050565b6040808252810162000ae0818562000a34565b905062000af1602083018462000a7b565b9392505050565b6040808252810162000b0b818562000a34565b905081810360208301526200080c818462000a34565b615b3a8062000b316000396000f3fe608060405234801561001057600080fd5b506004361061021e5760003560e01c8063715018a611610126578063a688f035116100b3578063a688f03514610469578063b30021cd1461047e578063b3a46b9314610491578063b88d4fde146104a4578063c87b56dd146104b7578063ddd27390146104ca578063e2339ba3146104dd578063e985e9c5146104f0578063ebc278d814610503578063f2fde38b14610518578063f53790f11461052b57600080fd5b8063715018a6146103d55780637bff77d4146103dd5780637e5db4c7146103f057806383cf093c146104055780638456cb591461041857806389e231ae146104205780638da5cb5b1461043357806395d89b411461043b5780639bad155e14610443578063a22cb4651461045657600080fd5b80633f4ba83a116101af5780633f4ba83a1461031557806342842e0e1461031d5780634ab143bb146103305780634fb75e4f146103435780635b06d2031461034b5780635c975abb1461035e5780636077e144146103695780636352211e1461037c57806364d2387d1461038f5780636d5128d7146103a257806370a08231146103b557600080fd5b806301ffc9a71461022357806306fdde031461024c578063081812fc14610261578063095ea7b3146102815780630dc05e591461029657806310b50626146102a957806316f1df23146102c9578063213f61b3146102dc5780632163b101146102ef57806323b872dd14610302575b600080fd5b6102366102313660046146d1565b61053e565b60405161024391906146fc565b60405180910390f35b610254610590565b6040516102439190614774565b61027461026f366004614796565b610622565b60405161024391906147d1565b61029461028f3660046147f3565b610649565b005b6102946102a4366004614830565b6106d8565b6102bc6102b7366004614852565b610838565b60405161024391906148e9565b6102946102d73660046149e8565b610947565b6102bc6102ea366004614852565b610acc565b6102546102fd366004614852565b610dc9565b610294610310366004614a35565b610f78565b610294610fa9565b61029461032b366004614a35565b610fbb565b61025461033e366004614852565b610fd6565b610254611187565b610254610359366004614852565b611245565b60075460ff16610236565b600e54610274906001600160a01b031681565b61027461038a366004614796565b611325565b61029461039d366004614852565b611359565b6102946103b0366004614852565b611550565b6103c86103c3366004614852565b61157a565b6040516102439190614a8b565b6102946115be565b6102546103eb366004614852565b6115d0565b6103f8611771565b6040516102439190614b32565b6102bc610413366004614852565b611877565b610294611b57565b61029461042e3660046149e8565b611b67565b610274611ce1565b610254611cf5565b610294610451366004614b43565b611d04565b610294610464366004614c08565b611e77565b610471611e82565b6040516102439190614c93565b61029461048c366004614852565b611f7f565b61029461049f3660046147f3565b612164565b6102946104b2366004614ca4565b61225a565b6102546104c5366004614796565b612292565b6102946104d8366004614852565b612396565b6102546104eb366004614852565b61254e565b6102366104fe366004614ceb565b6126e1565b61050b61270f565b6040516102439190614d76565b610294610526366004614852565b61280c565b6102946105393660046149e8565b612846565b60006001600160e01b031982166380ac58cd60e01b148061056f57506001600160e01b03198216635b5e139f60e01b145b8061058a57506301ffc9a760e01b6001600160e01b03198316145b92915050565b60606000805461059f90614d9d565b80601f01602080910402602001604051908101604052809291908181526020018280546105cb90614d9d565b80156106185780601f106105ed57610100808354040283529160200191610618565b820191906000526020600020905b8154815290600101906020018083116105fb57829003601f168201915b5050505050905090565b600061062d82612a91565b506000908152600460205260409020546001600160a01b031690565b600061065482611325565b9050806001600160a01b0316836001600160a01b031614156106915760405162461bcd60e51b815260040161068890614e08565b60405180910390fd5b336001600160a01b03821614806106ad57506106ad81336126e1565b6106c95760405162461bcd60e51b815260040161068890614e70565b6106d38383612ab6565b505050565b6106fb604051806060016040528060248152602001615a0c602491398383612b24565b6000828152600f60205260409020600101546001600160a01b031633146107345760405162461bcd60e51b815260040161068890614ea6565b8015806107415750806001145b8061074c5750806002145b6107685760405162461bcd60e51b815260040161068890614ee3565b806107d5576000828152600f6020526040902060078101805460ff1916600217905542600682015580546001909101546107af916001600160a01b03908116911684610f78565b6000828152600f60205260409020546107d1906001600160a01b031683610649565b5050565b80600114156107fd57506000908152600f60205260409020600701805460ff19166003179055565b6000828152600f6020526040902060078101805460ff19166004179055600181015490546107d1916001600160a01b03908116911684610f78565b606061087360405180604001604052806017815260200176676574496442794f776e6572206164647265737320257360481b81525083612a07565b60008061087f84612b6b565b6001600160401b03811115610896576108966148fa565b6040519080825280602002602001820160405280156108c957816020015b60608152602001906001900390816108b45790505b50905060005b600c5481101561093f57846001600160a01b03166108ec82611325565b6001600160a01b0316141561092d5761090481612bfa565b828461090f81614f1f565b95508151811061092157610921614f3a565b60200260200101819052505b8061093781614f1f565b9150506108cf565b509392505050565b60085433906001600160a01b03168114806109a257506040805160008152602081019182905251902061097982610fd6565b6040516020016109899190614f72565b6040516020818303038152906040528051906020012014155b6109be5760405162461bcd60e51b815260040161068890614f9a565b6109fa60405180604001604052806019815260200178616a6f7574657241646d696e206964202573206e6f6d20257360381b81525084846129c0565b6001600160a01b038316610a205760405162461bcd60e51b815260040161068890614fd1565b604080518082019091526001600160a01b03848116825260208083018581526009805460018101825560009190915284517f6e1540171b6c0c960b71a7020d9f60077f6af931a8bbf590da0223dacf75c7af600290920291820180546001600160a01b0319169190951617845590518051610ac4937f6e1540171b6c0c960b71a7020d9f60077f6af931a8bbf590da0223dacf75c7b0909301929190910190614565565b505050505050565b6060610b086040518060400160405280601881526020017767657449644279436c69656e74206164647265737320257360401b81525083612a07565b600080610b1484612c8e565b6001600160401b03811115610b2b57610b2b6148fa565b604051908082528060200260200182016040528015610b5e57816020015b6060815260200190600190039081610b495790505b50905060005b600c5481101561093f576000818152600f6020908152604080832081516101008101835281546001600160a01b03908116825260018301541693810193909352600281015491830191909152600381018054606084019190610bc590614d9d565b80601f0160208091040260200160405190810160405280929190818152602001828054610bf190614d9d565b8015610c3e5780601f10610c1357610100808354040283529160200191610c3e565b820191906000526020600020905b815481529060010190602001808311610c2157829003601f168201915b50505050508152602001600482018054610c5790614d9d565b80601f0160208091040260200160405190810160405280929190818152602001828054610c8390614d9d565b8015610cd05780601f10610ca557610100808354040283529160200191610cd0565b820191906000526020600020905b815481529060010190602001808311610cb357829003601f168201915b50505091835250506005820154602082015260068201546040820152600782015460609091019060ff166004811115610d0b57610d0b614ef3565b6004811115610d1c57610d1c614ef3565b815250509050856001600160a01b031681602001516001600160a01b0316148015610d5d575060038160e001516004811115610d5a57610d5a614ef3565b14155b8015610d7f575060048160e001516004811115610d7c57610d7c614ef3565b14155b15610db657610d8d82612bfa565b8385610d9881614f1f565b965081518110610daa57610daa614f3a565b60200260200101819052505b5080610dc181614f1f565b915050610b64565b60408051602081019091526000808252606091905b600a54811015610f3c576000600a8281548110610dfd57610dfd614f3a565b60009182526020918290206040805180820190915260029092020180546001600160a01b031682526001810180549293919291840191610e3c90614d9d565b80601f0160208091040260200160405190810160405280929190818152602001828054610e6890614d9d565b8015610eb55780601f10610e8a57610100808354040283529160200191610eb5565b820191906000526020600020905b815481529060010190602001808311610e9857829003601f168201915b5050505050815250509050846001600160a01b031681600001516001600160a01b03161415610f2957610f216040518060400160405280602081526020017f676574436c69656e74427941646472657373205f636c69656e742e69642025738152508260000151612a07565b806020015192505b5080610f3481614f1f565b915050610dde565b5061058a60405180604001604052806019815260200178676574436c69656e74427941646472657373206e6f6d20257360381b81525082612a4c565b610f823382612f3a565b610f9e5760405162461bcd60e51b815260040161068890615029565b6106d3838383612f98565b610fb16130cd565b610fb96130fc565b565b6106d38383836040518060200160405280600081525061225a565b60408051602081019091526000808252606091905b6009548110156111495760006009828154811061100a5761100a614f3a565b60009182526020918290206040805180820190915260029092020180546001600160a01b03168252600181018054929391929184019161104990614d9d565b80601f016020809104026020016040519081016040528092919081815260200182805461107590614d9d565b80156110c25780601f10611097576101008083540402835291602001916110c2565b820191906000526020600020905b8154815290600101906020018083116110a557829003601f168201915b5050505050815250509050846001600160a01b031681600001516001600160a01b031614156111365761112e6040518060400160405280601e81526020017f67657441646d696e427941646472657373205f61646d696e2e696420257300008152508260000151612a07565b806020015192505b508061114181614f1f565b915050610feb565b5061058a6040518060400160405280601b81526020017a6765744e6f6d41646d696e427941646472657373206e6f6d20257360281b81525082612a4c565b6040805180820190915260018152605b60f81b602082015260609060005b600c548160ff1610156111f157816111bc82613148565b6040516020016111cd929190615039565b604051602081830303815290604052915080806111e99061504f565b9150506111a5565b50806040516020016112039190615068565b60408051601f19818403018152828201909152601182527002539b7b721b7b6b6b0b73232b99012b99607d1b602083015291506112409082612a4c565b919050565b6040805180820190915260018152605b60f81b602082015260609060005b600c548160ff1610156112d457836001600160a01b03166112868260ff16611325565b6001600160a01b031614156112c2578161129f82613148565b6040516020016112b0929190615039565b60405160208183030381529060405291505b806112cc8161504f565b915050611263565b50806040516020016112e69190615068565b60408051601f19818403018152828201909152601382527203539b7b726bca6b0ba32b934b2b6399012b99606d1b6020830152915061058a9082612a4c565b60008061133183613499565b90506001600160a01b03811661058a5760405162461bcd60e51b8152600401610688906150af565b60085433906001600160a01b03168114806113b457506040805160008152602081019182905251902061138b82610fd6565b60405160200161139b9190614f72565b6040516020818303038152906040528051906020012014155b6113d05760405162461bcd60e51b815260040161068890614f9a565b61140d6040518060400160405280601b81526020017a039bab8383934b6b2b92337bab93734b9b9b2bab91034b21012b99602d1b81525083612a07565b6001600160a01b0382166114335760405162461bcd60e51b815260040161068890614fd1565b600061143e836134b4565b90508061270f146106d357805b600b5461145a906001906150bf565b81101561150457600b61146e8260016150d6565b8154811061147e5761147e614f3a565b9060005260206000209060020201600b828154811061149f5761149f614f3a565b60009182526020909120825460029092020180546001600160a01b0319166001600160a01b0390921691909117815560018083018054918301916114e290614d9d565b6114ed9291906145e9565b5090505080806114fc90614f1f565b91505061144b565b50600b805480611516576115166150ee565b60008281526020812060026000199093019283020180546001600160a01b0319168155906115476001830182614664565b50509055505050565b6115586130cd565b600e80546001600160a01b0319166001600160a01b0392909216919091179055565b60006001600160a01b0382166115a25760405162461bcd60e51b815260040161068890615148565b506001600160a01b031660009081526003602052604090205490565b6115c66130cd565b610fb96000613618565b60408051808201825260068152654e6f526f6c6560d01b60208083019190915282516000815290810192839052519091206060919061160e84610fd6565b60405160200161161e9190614f72565b604051602081830303815290604052805190602001201461165c57505060408051808201909152600581526420b236b4b760d91b6020820152919050565b604080516000815260208101918290525190206116788461254e565b6040516020016116889190614f72565b60405160208183030381529060405280519060200120146116cc57505060408051808201909152600b81526a2337bab93734b9b9b2bab960a91b6020820152919050565b604080516000815260208101918290525190206116e884610dc9565b6040516020016116f89190614f72565b604051602081830303815290604052805190602001201461173757505060408051808201909152600681526510db1a595b9d60d21b6020820152919050565b61058a60405180604001604052806018815260200177676574526f6c6542794164647265737320726f6c6520257360401b81525082612a4c565b6060600b805480602002602001604051908101604052809291908181526020016000905b8282101561186e576000848152602090819020604080518082019091526002850290910180546001600160a01b0316825260018101805492939192918401916117dd90614d9d565b80601f016020809104026020016040519081016040528092919081815260200182805461180990614d9d565b80156118565780601f1061182b57610100808354040283529160200191611856565b820191906000526020600020905b81548152906001019060200180831161183957829003601f168201915b50505050508152505081526020019060010190611795565b50505050905090565b60606118b86040518060400160405280601d81526020017f67657449644279466f75726e697373657572206164647265737320257300000081525083612a07565b6000806118c484613672565b6001600160401b038111156118db576118db6148fa565b60405190808252806020026020018201604052801561190e57816020015b60608152602001906001900390816118f95790505b50905060005b600c5481101561093f576000818152600f6020908152604080832081516101008101835281546001600160a01b0390811682526001830154169381019390935260028101549183019190915260038101805460608401919061197590614d9d565b80601f01602080910402602001604051908101604052809291908181526020018280546119a190614d9d565b80156119ee5780601f106119c3576101008083540402835291602001916119ee565b820191906000526020600020905b8154815290600101906020018083116119d157829003601f168201915b50505050508152602001600482018054611a0790614d9d565b80601f0160208091040260200160405190810160405280929190818152602001828054611a3390614d9d565b8015611a805780601f10611a5557610100808354040283529160200191611a80565b820191906000526020600020905b815481529060010190602001808311611a6357829003601f168201915b50505091835250506005820154602082015260068201546040820152600782015460609091019060ff166004811115611abb57611abb614ef3565b6004811115611acc57611acc614ef3565b815250509050856001600160a01b031681600001516001600160a01b0316148015611b0d575060028160e001516004811115611b0a57611b0a614ef3565b14155b15611b4457611b1b82612bfa565b8385611b2681614f1f565b965081518110611b3857611b38614f3a565b60200260200101819052505b5080611b4f81614f1f565b915050611914565b611b5f6130cd565b610fb96138dc565b60085433906001600160a01b0316811480611bc2575060408051600081526020810191829052519020611b9982610fd6565b604051602001611ba99190614f72565b6040516020818303038152906040528051906020012014155b611bde5760405162461bcd60e51b815260040161068890614f9a565b611c1760405180604001604052806016815260200175726563657074696f6e206964202573206e6f6d20257360501b81525084846129c0565b6001600160a01b038316611c3d5760405162461bcd60e51b815260040161068890614fd1565b604080518082019091526001600160a01b0384811682526020808301858152600b805460018101825560009190915284517f0175b7a638427703f0dbe7bb9bbf987a2551717b34e79f33b5b1008d1fa01db9600290920291820180546001600160a01b0319169190951617845590518051610ac4937f0175b7a638427703f0dbe7bb9bbf987a2551717b34e79f33b5b1008d1fa01dba909301929190910190614565565b60075461010090046001600160a01b031690565b60606001805461059f90614d9d565b611d28604051806060016040528060368152602001615aad60369139858584613919565b6000611d33600c5490565b9050611d3f3382613962565b611d49818561397c565b604051806101000160405280336001600160a01b0316815260200160006001600160a01b03168152602001868152602001838152602001848152602001600081526020016000815260200160006004811115611da757611da7614ef3565b90526000828152600f6020908152604091829020835181546001600160a01b039182166001600160a01b03199182161783558584015160018401805491909316911617905591830151600283015560608301518051611e0c9260038501920190614565565b5060808201518051611e28916004840191602090910190614565565b5060a0820151600582015560c0820151600682015560e082015160078201805460ff19166001836004811115611e6057611e60614ef3565b021790555050600c80546001019055505050505050565b6107d13383836139c0565b6060600a805480602002602001604051908101604052809291908181526020016000905b8282101561186e576000848152602090819020604080518082019091526002850290910180546001600160a01b031682526001810180549293919291840191611eee90614d9d565b80601f0160208091040260200160405190810160405280929190818152602001828054611f1a90614d9d565b8015611f675780601f10611f3c57610100808354040283529160200191611f67565b820191906000526020600020905b815481529060010190602001808311611f4a57829003601f168201915b50505050508152505081526020019060010190611ea6565b60085433906001600160a01b0316811480611fda575060408051600081526020810191829052519020611fb182610fd6565b604051602001611fc19190614f72565b6040516020818303038152906040528051906020012014155b611ff65760405162461bcd60e51b815260040161068890614f9a565b61202d60405180604001604052806015815260200174039bab8383934b6b2b920b236b4b71034b21012b99605d1b81525083612a07565b6001600160a01b0382166120535760405162461bcd60e51b815260040161068890614fd1565b6008546001600160a01b03838116911614156120815760405162461bcd60e51b81526004016106889061517d565b600061208c83613a63565b90508061270f146106d357805b6009546120a8906001906150bf565b8110156121525760096120bc8260016150d6565b815481106120cc576120cc614f3a565b9060005260206000209060020201600982815481106120ed576120ed614f3a565b60009182526020909120825460029092020180546001600160a01b0319166001600160a01b03909216919091178155600180830180549183019161213090614d9d565b61213b9291906145e9565b50905050808061214a90614f1f565b915050612099565b506009805480611516576115166150ee565b6121a46040518060400160405280601f81526020017f65787065646974696f6e2061646472657373202573206974656d4964202573008152508383613be4565b6001600160a01b0382166121ca5760405162461bcd60e51b815260040161068890614fd1565b6000818152600f60205260409020546001600160a01b031633146122005760405162461bcd60e51b8152600401610688906151b8565b61220a8282610649565b6000818152600f602052604081204260058201556006810191909155600180820180546001600160a01b0319166001600160a01b0386161790556007909101805460ff1916828002179055505050565b6122643383612f3a565b6122805760405162461bcd60e51b815260040161068890615029565b61228c84848484613c2b565b50505050565b606061229d82612a91565b600082815260066020526040812080546122b690614d9d565b80601f01602080910402602001604051908101604052809291908181526020018280546122e290614d9d565b801561232f5780601f106123045761010080835404028352916020019161232f565b820191906000526020600020905b81548152906001019060200180831161231257829003601f168201915b505050505090506000612340613c5e565b9050805160001415612353575092915050565b81511561238557808260405160200161236d929190615039565b60405160208183030381529060405292505050919050565b61238e84613c6d565b949350505050565b60085433906001600160a01b03168114806123f15750604080516000815260208101918290525190206123c882610fd6565b6040516020016123d89190614f72565b6040516020818303038152906040528051906020012014155b61240d5760405162461bcd60e51b815260040161068890614f9a565b61244560405180604001604052806016815260200175039bab8383934b6b2b921b634b2b73a1034b21012b9960551b81525083612a07565b6001600160a01b03821661246b5760405162461bcd60e51b815260040161068890614fd1565b600061247683613cd4565b90508061270f146106d357805b600a54612492906001906150bf565b81101561253c57600a6124a68260016150d6565b815481106124b6576124b6614f3a565b9060005260206000209060020201600a82815481106124d7576124d7614f3a565b60009182526020909120825460029092020180546001600160a01b0319166001600160a01b03909216919091178155600180830180549183019161251a90614d9d565b6125259291906145e9565b50905050808061253490614f1f565b915050612483565b50600a805480611516576115166150ee565b60408051602081019091526000808252606091905b600b548110156126a1576000600b828154811061258257612582614f3a565b60009182526020918290206040805180820190915260029092020180546001600160a01b0316825260018101805492939192918401916125c190614d9d565b80601f01602080910402602001604051908101604052809291908181526020018280546125ed90614d9d565b801561263a5780601f1061260f5761010080835404028352916020019161263a565b820191906000526020600020905b81548152906001019060200180831161261d57829003601f168201915b5050505050815250509050846001600160a01b031681600001516001600160a01b0316141561268e576126866040518060600160405280602a815260200161597b602a91398251612a07565b806020015192505b508061269981614f1f565b915050612563565b5061058a6040518060400160405280601e81526020017f676574466f75726e697373657572427941646472657373206e6f6d202573000081525082612a4c565b6001600160a01b03918216600090815260056020908152604080832093909416825291909152205460ff1690565b60606009805480602002602001604051908101604052809291908181526020016000905b8282101561186e576000848152602090819020604080518082019091526002850290910180546001600160a01b03168252600181018054929391929184019161277b90614d9d565b80601f01602080910402602001604051908101604052809291908181526020018280546127a790614d9d565b80156127f45780601f106127c9576101008083540402835291602001916127f4565b820191906000526020600020905b8154815290600101906020018083116127d757829003601f168201915b50505050508152505081526020019060010190612733565b6128146130cd565b6001600160a01b03811661283a5760405162461bcd60e51b815260040161068890615209565b61284381613618565b50565b60085433906001600160a01b03168114806128a157506040805160008152602081019182905251902061287882610fd6565b6040516020016128889190614f72565b6040516020818303038152906040528051906020012014155b6128bd5760405162461bcd60e51b815260040161068890614f9a565b6128f660405180604001604052806016815260200175726563657074696f6e206964202573206e6f6d20257360501b81525084846129c0565b6001600160a01b03831661291c5760405162461bcd60e51b815260040161068890614fd1565b604080518082019091526001600160a01b0384811682526020808301858152600a805460018101825560009190915284517fc65a7bb8d6351c1cf70c95a316cc6a92839c986682d98bc35f958f4883f9d2a8600290920291820180546001600160a01b0319169190951617845590518051610ac4937fc65a7bb8d6351c1cf70c95a316cc6a92839c986682d98bc35f958f4883f9d2a9909301929190910190614565565b6106d38383836040516024016129d893929190615219565b60408051601f198184030181529190526020810180516001600160e01b031663e0e9ad4f60e01b179052613e55565b6107d18282604051602401612a1d92919061524b565b60408051601f198184030181529190526020810180516001600160e01b031663319af33360e01b179052613e55565b6107d18282604051602401612a6292919061526b565b60408051601f198184030181529190526020810180516001600160e01b0316634b5c427760e01b179052613e55565b612a9a81613e76565b6128435760405162461bcd60e51b8152600401610688906150af565b600081815260046020526040902080546001600160a01b0319166001600160a01b0384169081179091558190612aeb82611325565b6001600160a01b03167f8c5be1e5ebec7d5bd14f71427d1e84f3dd0314c0f7b2291e5b200ac8c7c3b92560405160405180910390a45050565b6106d3838383604051602401612b3c93929190615290565b60408051601f198184030181529190526020810180516001600160e01b031663ca47c4eb60e01b179052613e55565b600080805b600c54811015612bbc57836001600160a01b0316612b8d82611325565b6001600160a01b03161415612baa5781612ba681614f1f565b9250505b80612bb481614f1f565b915050612b70565b5061058a6040518060400160405280601b81526020017a67657453697a6542794f776e6572206974656d436f756e7420257360281b81525082613e93565b60606000612c0783613ed8565b60010190506000816001600160401b03811115612c2657612c266148fa565b6040519080825280601f01601f191660200182016040528015612c50576020820181803683370190505b5090508181016020015b600019016f181899199a1a9b1b9c1cb0b131b232b360811b600a86061a8153600a8504945084612c895761093f565b612c5a565b600080805b600c54811015612efa576000818152600f6020908152604080832081516101008101835281546001600160a01b03908116825260018301541693810193909352600281015491830191909152600381018054606084019190612cf490614d9d565b80601f0160208091040260200160405190810160405280929190818152602001828054612d2090614d9d565b8015612d6d5780601f10612d4257610100808354040283529160200191612d6d565b820191906000526020600020905b815481529060010190602001808311612d5057829003601f168201915b50505050508152602001600482018054612d8690614d9d565b80601f0160208091040260200160405190810160405280929190818152602001828054612db290614d9d565b8015612dff5780601f10612dd457610100808354040283529160200191612dff565b820191906000526020600020905b815481529060010190602001808311612de257829003601f168201915b50505091835250506005820154602082015260068201546040820152600782015460609091019060ff166004811115612e3a57612e3a614ef3565b6004811115612e4b57612e4b614ef3565b815250509050612e77604051806060016040528060228152602001615ae3602291398260200151612a07565b846001600160a01b031681602001516001600160a01b0316148015612eb2575060038160e001516004811115612eaf57612eaf614ef3565b14155b8015612ed4575060048160e001516004811115612ed157612ed1614ef3565b14155b15612ee75782612ee381614f1f565b9350505b5080612ef281614f1f565b915050612c93565b5061058a6040518060400160405280601c81526020017f67657453697a654279436c69656e74206974656d436f756e742025730000000081525082613e93565b600080612f4683611325565b9050806001600160a01b0316846001600160a01b03161480612f6d5750612f6d81856126e1565b8061238e5750836001600160a01b0316612f8684610622565b6001600160a01b031614949350505050565b826001600160a01b0316612fab82611325565b6001600160a01b031614612fd15760405162461bcd60e51b8152600401610688906152fd565b6001600160a01b038216612ff75760405162461bcd60e51b81526004016106889061534c565b6130048383836001613fae565b826001600160a01b031661301782611325565b6001600160a01b03161461303d5760405162461bcd60e51b8152600401610688906152fd565b600081815260046020908152604080832080546001600160a01b03199081169091556001600160a01b0387811680865260038552838620805460001901905590871680865283862080546001019055868652600290945282852080549092168417909155905184937fddf252ad1be2c89b69c2b068fc378daa952ba7f163c4a11628f55a4df523b3ef91a4505050565b336130d6611ce1565b6001600160a01b031614610fb95760405162461bcd60e51b81526004016106889061538c565b613104614036565b6007805460ff191690557f5db9ee0a495bf2e6ff9c91a7834c1ba4fdd244a5e8aa4e537bd38aeae4b073aa335b60405161313e91906147d1565b60405180910390a1565b6040805160208082018352600080835260ff85168152600f825283812084516101008101865281546001600160a01b0390811682526001830154169381019390935260028101549483019490945260038401805460609592939291838701916131b090614d9d565b80601f01602080910402602001604051908101604052809291908181526020018280546131dc90614d9d565b80156132295780601f106131fe57610100808354040283529160200191613229565b820191906000526020600020905b81548152906001019060200180831161320c57829003601f168201915b5050505050815260200160048201805461324290614d9d565b80601f016020809104026020016040519081016040528092919081815260200182805461326e90614d9d565b80156132bb5780601f10613290576101008083540402835291602001916132bb565b820191906000526020600020905b81548152906001019060200180831161329e57829003601f168201915b50505091835250506005820154602082015260068201546040820152600782015460609091019060ff1660048111156132f6576132f6614ef3565b600481111561330757613307614ef3565b9052509050600061331a60ff8616612292565b9050600061332b8360200151610dc9565b9050600061333c846000015161254e565b600e54604080870151905163a80f602d60e01b81529293506000926001600160a01b039092169163a80f602d9161337591600401614a8b565b600060405180830381865afa158015613392573d6000803e3d6000fd5b505050506040513d6000823e601f3d908101601f191682016040526133ba91908101906153f4565b905060ff8816156133e257604051806040016040528060018152602001600b60fa1b81525095505b6000866133f18a60ff16612bfa565b866133ff8960000151614058565b8661340d8b60200151614058565b60608c015160808d0151604051613430989796959493928d928c9260200161542e565b60405160208183030381529060405290508061344f8760a00151612bfa565b61345c8860c00151612bfa565b6134698960e0015161406e565b60405160200161347c9493929190615597565b60408051601f198184030181529190529998505050505050505050565b6000908152600260205260409020546001600160a01b031690565b600061270f815b600b548110156135f5576000600b82815481106134da576134da614f3a565b60009182526020918290206040805180820190915260029092020180546001600160a01b03168252600181018054929391929184019161351990614d9d565b80601f016020809104026020016040519081016040528092919081815260200182805461354590614d9d565b80156135925780601f1061356757610100808354040283529160200191613592565b820191906000526020600020905b81548152906001019060200180831161357557829003601f168201915b5050505050815250509050846001600160a01b031681600001516001600160a01b031614156135e2576135de6040518060600160405280602e8152602001615a53602e91398251612a07565b8192505b50806135ed81614f1f565b9150506134bb565b5061058a604051806060016040528060238152602001615a306023913982613e93565b600780546001600160a01b03838116610100818102610100600160a81b031985161790945560405193909204169182907f8be0079c531659141344cd1fd0a4f28419497f9722a3daafe3b4186f6b6457e090600090a35050565b600080805b600c548110156138b9576000818152600f6020908152604080832081516101008101835281546001600160a01b039081168252600183015416938101939093526002810154918301919091526003810180546060840191906136d890614d9d565b80601f016020809104026020016040519081016040528092919081815260200182805461370490614d9d565b80156137515780601f1061372657610100808354040283529160200191613751565b820191906000526020600020905b81548152906001019060200180831161373457829003601f168201915b5050505050815260200160048201805461376a90614d9d565b80601f016020809104026020016040519081016040528092919081815260200182805461379690614d9d565b80156137e35780601f106137b8576101008083540402835291602001916137e3565b820191906000526020600020905b8154815290600101906020018083116137c657829003601f168201915b50505091835250506005820154602082015260068201546040820152600782015460609091019060ff16600481111561381e5761381e614ef3565b600481111561382f5761382f614ef3565b8152505090506138586040518060600160405280602c8152602001615a81602c91398251612a07565b846001600160a01b031681600001516001600160a01b0316148015613893575060028160e00151600481111561389057613890614ef3565b14155b156138a657826138a281614f1f565b9350505b50806138b181614f1f565b915050613677565b5061058a6040518060600160405280602181526020016159a56021913982613e93565b6138e46141bb565b6007805460ff191660011790557f62e78cea01bee320cd4e420270b5ea74000d11b0c9f74754ebdbfc544b05a2586131313390565b61228c84848484604051602401613933949392919061562a565b60408051601f198184030181529190526020810180516001600160e01b0316635ab84e1f60e01b179052613e55565b6107d18282604051806020016040528060008152506141de565b61398582613e76565b6139a15760405162461bcd60e51b8152600401610688906156c3565b600082815260066020908152604090912082516106d392840190614565565b816001600160a01b0316836001600160a01b031614156139f25760405162461bcd60e51b815260040161068890615701565b6001600160a01b0383811660008181526005602090815260408083209487168084529490915290819020805460ff1916851515179055517f17307eab39ab6107e8899845ad3d59bd9653f200f220920489ca2b5937696c3190613a569085906146fc565b60405180910390a3505050565b600061270f815b600954811015613ba457600060098281548110613a8957613a89614f3a565b60009182526020918290206040805180820190915260029092020180546001600160a01b031682526001810180549293919291840191613ac890614d9d565b80601f0160208091040260200160405190810160405280929190818152602001828054613af490614d9d565b8015613b415780601f10613b1657610100808354040283529160200191613b41565b820191906000526020600020905b815481529060010190602001808311613b2457829003601f168201915b5050505050815250509050846001600160a01b031681600001516001600160a01b03161415613b9157613b8d6040518060600160405280602281526020016159c6602291398251612a07565b8192505b5080613b9c81614f1f565b915050613a6a565b5061058a6040518060400160405280601d81526020017f67657452616e6741646d696e4279416464726573732072616e6720257300000081525082613e93565b6106d3838383604051602401613bfc93929190615711565b60408051601f198184030181529190526020810180516001600160e01b0316630d26b92560e01b179052613e55565b613c36848484612f98565b613c4284848484614211565b61228c5760405162461bcd60e51b81526004016106889061577e565b6060600d805461059f90614d9d565b6060613c7882612a91565b6000613c82613c5e565b90506000815111613ca25760405180602001604052806000815250613ccd565b80613cac84612bfa565b604051602001613cbd929190615039565b6040516020818303038152906040525b9392505050565b600061270f815b600a54811015613e15576000600a8281548110613cfa57613cfa614f3a565b60009182526020918290206040805180820190915260029092020180546001600160a01b031682526001810180549293919291840191613d3990614d9d565b80601f0160208091040260200160405190810160405280929190818152602001828054613d6590614d9d565b8015613db25780601f10613d8757610100808354040283529160200191613db2565b820191906000526020600020905b815481529060010190602001808311613d9557829003601f168201915b5050505050815250509050846001600160a01b031681600001516001600160a01b03161415613e0257613dfe6040518060600160405280602481526020016159e8602491398251612a07565b8192505b5080613e0d81614f1f565b915050613cdb565b5061058a6040518060400160405280601e81526020017f67657452616e67436c69656e744279416464726573732072616e67202573000081525082613e93565b80516a636f6e736f6c652e6c6f67602083016000808483855afa5050505050565b600080613e8283613499565b6001600160a01b0316141592915050565b6107d18282604051602401613ea992919061578e565b60408051601f198184030181529190526020810180516001600160e01b0316632d839cb360e21b179052613e55565b60008072184f03e93ff9f4daa797ed6e38ed64bf6a1f0160401b8310613f175772184f03e93ff9f4daa797ed6e38ed64bf6a1f0160401b830492506040015b6904ee2d6d415b85acef8160201b8310613f41576904ee2d6d415b85acef8160201b830492506020015b662386f26fc100008310613f5f57662386f26fc10000830492506010015b6305f5e1008310613f77576305f5e100830492506008015b6127108310613f8b57612710830492506004015b60648310613f9d576064830492506002015b600a831061058a5760010192915050565b600181111561228c576001600160a01b03841615613ff4576001600160a01b03841660009081526003602052604081208054839290613fee9084906150bf565b90915550505b6001600160a01b0383161561228c576001600160a01b0383166000908152600360205260408120805483929061402b9084906150d6565b909155505050505050565b60075460ff16610fb95760405162461bcd60e51b8152600401610688906157d7565b606061058a6001600160a01b038316601461430f565b606081600481111561408257614082614ef3565b6140aa57505060408051808201909152600881526721b932b0ba34b7b760c11b602082015290565b8160048111156140bc576140bc614ef3565b600114156140ea57505060408051808201909152600a81526922bc3832b234ba34b7b760b11b602082015290565b8160048111156140fc576140fc614ef3565b600214156141295750506040805180820190915260098152682932b1b2b83a34b7b760b91b602082015290565b81600481111561413b5761413b614ef3565b6003141561416957505060408051808201909152600a81526920b7373ab630ba34b7b760b11b602082015290565b81600481111561417b5761417b614ef3565b600414156141a75750506040805180820190915260088152672932b73b37bcb2b960c11b602082015290565b505060408051602081019091526000815290565b60075460ff1615610fb95760405162461bcd60e51b81526004016106889061580c565b6141e8838361447a565b6141f56000848484614211565b6106d35760405162461bcd60e51b81526004016106889061577e565b60006001600160a01b0384163b1561430457604051630a85bd0160e11b81526001600160a01b0385169063150b7a029061425590339089908890889060040161581c565b6020604051808303816000875af1925050508015614290575060408051601f3d908101601f1916820190925261428d91810190615861565b60015b6142ea573d8080156142be576040519150601f19603f3d011682016040523d82523d6000602084013e6142c3565b606091505b5080516142e25760405162461bcd60e51b81526004016106889061577e565b805181602001fd5b6001600160e01b031916630a85bd0160e11b14905061238e565b506001949350505050565b6060600061431e836002615882565b6143299060026150d6565b6001600160401b03811115614340576143406148fa565b6040519080825280601f01601f19166020018201604052801561436a576020820181803683370190505b509050600360fc1b8160008151811061438557614385614f3a565b60200101906001600160f81b031916908160001a905350600f60fb1b816001815181106143b4576143b4614f3a565b60200101906001600160f81b031916908160001a90535060006143d8846002615882565b6143e39060016150d6565b90505b600181111561445b576f181899199a1a9b1b9c1cb0b131b232b360811b85600f166010811061441757614417614f3a565b1a60f81b82828151811061442d5761442d614f3a565b60200101906001600160f81b031916908160001a90535060049490941c93614454816158a1565b90506143e6565b508315613ccd5760405162461bcd60e51b8152600401610688906158e8565b6001600160a01b0382166144a05760405162461bcd60e51b815260040161068890615928565b6144a981613e76565b156144c65760405162461bcd60e51b81526004016106889061596a565b6144d4600083836001613fae565b6144dd81613e76565b156144fa5760405162461bcd60e51b81526004016106889061596a565b6001600160a01b038216600081815260036020908152604080832080546001019055848352600290915280822080546001600160a01b0319168417905551839291907fddf252ad1be2c89b69c2b068fc378daa952ba7f163c4a11628f55a4df523b3ef908290a45050565b82805461457190614d9d565b90600052602060002090601f01602090048101928261459357600085556145d9565b82601f106145ac57805160ff19168380011785556145d9565b828001600101855582156145d9579182015b828111156145d95782518255916020019190600101906145be565b506145e592915061469a565b5090565b8280546145f590614d9d565b90600052602060002090601f01602090048101928261461757600085556145d9565b82601f1061462857805485556145d9565b828001600101855582156145d957600052602060002091601f016020900482015b828111156145d9578254825591600101919060010190614649565b50805461467090614d9d565b6000825580601f10614680575050565b601f01602090049060005260206000209081019061284391905b5b808211156145e5576000815560010161469b565b6001600160e01b031981165b811461284357600080fd5b803561058a816146af565b6000602082840312156146e6576146e6600080fd5b600061238e84846146c6565b8015155b82525050565b6020810161058a82846146f2565b60005b8381101561472557818101518382015260200161470d565b8381111561228c5750506000910152565b601f01601f191690565b600061474a825190565b80845260208401935061476181856020860161470a565b61476a81614736565b9093019392505050565b60208082528101613ccd8184614740565b806146bb565b803561058a81614785565b6000602082840312156147ab576147ab600080fd5b600061238e848461478b565b60006001600160a01b03821661058a565b6146f6816147b7565b6020810161058a82846147c8565b6146bb816147b7565b803561058a816147df565b6000806040838503121561480957614809600080fd5b600061481585856147e8565b92505060206148268582860161478b565b9150509250929050565b6000806040838503121561484657614846600080fd5b6000614815858561478b565b60006020828403121561486757614867600080fd5b600061238e84846147e8565b6000613ccd8383614740565b60200190565b600061488f825190565b808452602084019350836020820285016148a98560200190565b60005b848110156148dd57838303885281516148c58482614873565b935050602082016020989098019791506001016148ac565b50909695505050505050565b60208082528101613ccd8184614885565b634e487b7160e01b600052604160045260246000fd5b61491982614736565b81018181106001600160401b0382111715614936576149366148fa565b6040525050565b600061494860405190565b90506112408282614910565b60006001600160401b0382111561496d5761496d6148fa565b61497682614736565b60200192915050565b82818337506000910152565b600061499e61499984614954565b61493d565b9050828152602081018484840111156149b9576149b9600080fd5b61093f84828561497f565b600082601f8301126149d8576149d8600080fd5b813561238e84826020860161498b565b600080604083850312156149fe576149fe600080fd5b6000614a0a85856147e8565b92505060208301356001600160401b03811115614a2957614a29600080fd5b614826858286016149c4565b600080600060608486031215614a4d57614a4d600080fd5b6000614a5986866147e8565b9350506020614a6a868287016147e8565b9250506040614a7b8682870161478b565b9150509250925092565b806146f6565b6020810161058a8284614a85565b80516000906040840190614aad85826147c8565b5060208301518482036020860152614ac58282614740565b95945050505050565b6000613ccd8383614a99565b6000614ae4825190565b80845260208401935083602082028501614afe8560200190565b60005b848110156148dd5783830388528151614b1a8482614ace565b93505060208201602098909801979150600101614b01565b60208082528101613ccd8184614ada565b60008060008060808587031215614b5c57614b5c600080fd5b6000614b68878761478b565b94505060208501356001600160401b03811115614b8757614b87600080fd5b614b93878288016149c4565b93505060408501356001600160401b03811115614bb257614bb2600080fd5b614bbe878288016149c4565b92505060608501356001600160401b03811115614bdd57614bdd600080fd5b614be9878288016149c4565b91505092959194509250565b8015156146bb565b803561058a81614bf5565b60008060408385031215614c1e57614c1e600080fd5b6000614c2a85856147e8565b925050602061482685828601614bfd565b6000614c45825190565b80845260208401935083602082028501614c5f8560200190565b60005b848110156148dd5783830388528151614c7b8482614ace565b93505060208201602098909801979150600101614c62565b60208082528101613ccd8184614c3b565b60008060008060808587031215614cbd57614cbd600080fd5b6000614cc987876147e8565b9450506020614cda878288016147e8565b9350506040614bbe8782880161478b565b60008060408385031215614d0157614d01600080fd5b6000614d0d85856147e8565b9250506020614826858286016147e8565b6000614d28825190565b80845260208401935083602082028501614d428560200190565b60005b848110156148dd5783830388528151614d5e8482614ace565b93505060208201602098909801979150600101614d45565b60208082528101613ccd8184614d1e565b634e487b7160e01b600052602260045260246000fd5b600281046001821680614db157607f821691505b60208210811415614dc457614dc4614d87565b50919050565b60218152602081017f4552433732313a20617070726f76616c20746f2063757272656e74206f776e658152603960f91b602082015290505b60400190565b6020808252810161058a81614dca565b603d8152602081017f4552433732313a20617070726f76652063616c6c6572206973206e6f7420746f81527f6b656e206f776e6572206f7220617070726f76656420666f7220616c6c00000060208201529050614e02565b6020808252810161058a81614e18565b60118152602081017014185cc81b1948189bdb8818db1a595b9d607a1b8152905061487f565b6020808252810161058a81614e80565b601881526020810177776f726b666c6f775374617465206e6f742076616c69646560401b8152905061487f565b6020808252810161058a81614eb6565b634e487b7160e01b600052602160045260246000fd5b634e487b7160e01b600052601160045260246000fd5b6000600019821415614f3357614f33614f09565b5060010190565b634e487b7160e01b600052603260045260246000fd5b6000614f5a825190565b614f6881856020860161470a565b9290920192915050565b61058a8183614f50565b6009815260208101682737ba1020b236b4b760b91b8152905061487f565b6020808252810161058a81614f7c565b60128152602081017141646472657373206e6f742076616c69646560701b8152905061487f565b6020808252810161058a81614faa565b602d8152602081017f4552433732313a2063616c6c6572206973206e6f7420746f6b656e206f776e6581526c1c881bdc88185c1c1c9bdd9959609a1b60208201529050614e02565b6020808252810161058a81614fe1565b6150438184614f50565b9050613ccd8183614f50565b60ff81169050600060ff821415614f3357614f33614f09565b6150728183614f50565b605d60f81b815260010192915050565b601881526020810177115490cdcc8c4e881a5b9d985b1a59081d1bdad95b88125160421b8152905061487f565b6020808252810161058a81615082565b6000828210156150d1576150d1614f09565b500390565b600082198211156150e9576150e9614f09565b500190565b634e487b7160e01b600052603160045260246000fd5b60298152602081017f4552433732313a2061646472657373207a65726f206973206e6f7420612076618152683634b21037bbb732b960b91b60208201529050614e02565b6020808252810161058a81615104565b60108152602081016f13dddb995c88191d4818dbdb9d1c985d60821b8152905061487f565b6020808252810161058a81615158565b6016815260208101752830b9903632903137b7103337bab93734b9b9b2bab960511b8152905061487f565b6020808252810161058a8161518d565b60268152602081017f4f776e61626c653a206e6577206f776e657220697320746865207a65726f206181526564647265737360d01b60208201529050614e02565b6020808252810161058a816151c8565b6060808252810161522a8186614740565b905061523960208301856147c8565b8181036040830152614ac58184614740565b6040808252810161525c8185614740565b9050613ccd60208301846147c8565b6040808252810161527c8185614740565b9050818103602083015261238e8184614740565b606080825281016152a18186614740565b90506152b06020830185614a85565b61238e6040830184614a85565b60258152602081017f4552433732313a207472616e736665722066726f6d20696e636f72726563742081526437bbb732b960d91b60208201529050614e02565b6020808252810161058a816152bd565b60248152602081017f4552433732313a207472616e7366657220746f20746865207a65726f206164648152637265737360e01b60208201529050614e02565b6020808252810161058a8161530d565b60208082527f4f776e61626c653a2063616c6c6572206973206e6f7420746865206f776e6572910190815261487f565b6020808252810161058a8161535c565b60006153aa61499984614954565b9050828152602081018484840111156153c5576153c5600080fd5b61093f84828561470a565b600082601f8301126153e4576153e4600080fd5b815161238e84826020860161539c565b60006020828403121561540957615409600080fd5b81516001600160401b0381111561542257615422600080fd5b61238e848285016153d0565b615438818c614f50565b607b60f81b8152905060010161545581641134b2111d60d91b9052565b600501615462818b614f50565b6716113ab934911d1160c11b8152905060080161547f818a614f50565b701116113337bab93734b9b9b2bab9111d1160791b815290506011016154a58189614f50565b731116113737b6a337bab93734b9b9b2bab9111d1160611b815290506014016154ce8188614f50565b6b11161131b634b2b73a111d1160a11b81529050600c016154ef8187614f50565b6e1116113737b6a1b634b2b73a111d1160891b81529050600f016155138186614f50565b701116113737b6a6b0ba32b934b2b6111d1160791b815290506011016155398185614f50565b761116113932b332b932b731b2a6b0ba32b934b2b6111d1160491b815290506017016155658184614f50565b6d1116113ab93624b6b0b3b2911d1160911b81529050600e016155888183614f50565b9b9a5050505050505050505050565b6155a18186614f50565b721116113230ba32a2bc3832b234ba34b7b7111d60691b815290506013016155c98185614f50565b7016113230ba32a932b1b2b83a34b7b7111d60791b815290506011016155ef8184614f50565b7116113bb7b935b33637bba9ba30ba32911d1160711b815290506012016156168183614f50565b61227d60f01b815260020195945050505050565b6080808252810161563b8187614740565b905061564a6020830186614a85565b818103604083015261565c8185614740565b905081810360608301526156708184614740565b9695505050505050565b602e8152602081017f45524337323155524953746f726167653a2055524920736574206f66206e6f6e81526d32bc34b9ba32b73a103a37b5b2b760911b60208201529050614e02565b6020808252810161058a8161567a565b60198152602081017822a9219b99189d1030b8383937bb32903a379031b0b63632b960391b8152905061487f565b6020808252810161058a816156d3565b606080825281016157228186614740565b90506152b060208301856147c8565b60328152602081017f4552433732313a207472616e7366657220746f206e6f6e20455243373231526581527131b2b4bb32b91034b6b83632b6b2b73a32b960711b60208201529050614e02565b6020808252810161058a81615731565b6040808252810161579f8185614740565b9050613ccd6020830184614a85565b60148152602081017314185d5cd8589b194e881b9bdd081c185d5cd95960621b8152905061487f565b6020808252810161058a816157ae565b60108152602081016f14185d5cd8589b194e881c185d5cd95960821b8152905061487f565b6020808252810161058a816157e7565b6080810161582a82876147c8565b61583760208301866147c8565b6158446040830185614a85565b81810360608301526156708184614740565b805161058a816146af565b60006020828403121561587657615876600080fd5b600061238e8484615856565b600081600019048311821515161561589c5761589c614f09565b500290565b6000816158b0576158b0614f09565b506000190190565b60208082527f537472696e67733a20686578206c656e67746820696e73756666696369656e74910190815261487f565b6020808252810161058a816158b8565b60208082527f4552433732313a206d696e7420746f20746865207a65726f2061646472657373910190815261487f565b6020808252810161058a816158f8565b601c8152602081017f4552433732313a20746f6b656e20616c7265616479206d696e746564000000008152905061487f565b6020808252810161058a8161593856fe676574466f75726e697373657572427941646472657373205f666f75726e6973736575722e696420257367657453697a654279466f75726e697373657572206974656d436f756e7420257367657452616e6741646d696e427941646472657373205f61646d696e2e696420257367657452616e67436c69656e74427941646472657373205f636c69656e742e6964202573726563657074696f6e206974656d496420257320776f726b666c6f77537461746520257367657452616e67466f75726e6973736575724279416464726573732072616e6720257367657452616e67466f75726e697373657572427941646472657373205f666f75726e6973736575722e696420257367657453697a654279466f75726e69737365757220636f6d6d616e64652e666f75726e697373657572202573746f6b656e69736174696f6e2069644d6174657269656c20257320757269202573207265666572656e63654d6174657269656c20257367657453697a654279436c69656e7420636f6d6d616e64652e636c69656e74202573a264697066735822122090b49338b905edb1b43bba0f7bd7282cf4cdd2a6bc5e2d5a0fcc50aaa37cd36564736f6c634300080c0033",
  "linkReferences": {},
  "deployedLinkReferences": {}
}