{
  "_format": "hh-sol-artifact-1",
  "contractName": "Demonstrateur",
  "sourceName": "contracts/Demonstrateur.sol",
  "abi": [
    {
      "inputs": [
        {
          "internalType": "string",
          "name": "definitiveName",
          "type": "string"
        },
        {
          "internalType": "string",
          "name": "definitiveSymbol",
          "type": "string"
        },
        {
          "internalType": "string",
          "name": "definitiveBaseURI",
          "type": "string"
        }
      ],
      "stateMutability": "nonpayable",
      "type": "constructor"
    },
    {
      "anonymous": false,
      "inputs": [
        {
          "indexed": true,
          "internalType": "address",
          "name": "owner",
          "type": "address"
        },
        {
          "indexed": true,
          "internalType": "address",
          "name": "approved",
          "type": "address"
        },
        {
          "indexed": true,
          "internalType": "uint256",
          "name": "tokenId",
          "type": "uint256"
        }
      ],
      "name": "Approval",
      "type": "event"
    },
    {
      "anonymous": false,
      "inputs": [
        {
          "indexed": true,
          "internalType": "address",
          "name": "owner",
          "type": "address"
        },
        {
          "indexed": true,
          "internalType": "address",
          "name": "operator",
          "type": "address"
        },
        {
          "indexed": false,
          "internalType": "bool",
          "name": "approved",
          "type": "bool"
        }
      ],
      "name": "ApprovalForAll",
      "type": "event"
    },
    {
      "anonymous": false,
      "inputs": [
        {
          "indexed": true,
          "internalType": "address",
          "name": "from",
          "type": "address"
        },
        {
          "indexed": true,
          "internalType": "address",
          "name": "to",
          "type": "address"
        }
      ],
      "name": "EventReception",
      "type": "event"
    },
    {
      "anonymous": false,
      "inputs": [
        {
          "indexed": true,
          "internalType": "address",
          "name": "previousOwner",
          "type": "address"
        },
        {
          "indexed": true,
          "internalType": "address",
          "name": "newOwner",
          "type": "address"
        }
      ],
      "name": "OwnershipTransferred",
      "type": "event"
    },
    {
      "anonymous": false,
      "inputs": [
        {
          "indexed": false,
          "internalType": "address",
          "name": "account",
          "type": "address"
        }
      ],
      "name": "Paused",
      "type": "event"
    },
    {
      "anonymous": false,
      "inputs": [
        {
          "indexed": true,
          "internalType": "address",
          "name": "from",
          "type": "address"
        },
        {
          "indexed": true,
          "internalType": "address",
          "name": "to",
          "type": "address"
        },
        {
          "indexed": true,
          "internalType": "uint256",
          "name": "tokenId",
          "type": "uint256"
        }
      ],
      "name": "Transfer",
      "type": "event"
    },
    {
      "anonymous": false,
      "inputs": [
        {
          "indexed": false,
          "internalType": "address",
          "name": "account",
          "type": "address"
        }
      ],
      "name": "Unpaused",
      "type": "event"
    },
    {
      "inputs": [],
      "name": "_uriQuantum",
      "outputs": [
        {
          "internalType": "string",
          "name": "",
          "type": "string"
        }
      ],
      "stateMutability": "view",
      "type": "function"
    },
    {
      "inputs": [],
      "name": "_uriS3200",
      "outputs": [
        {
          "internalType": "string",
          "name": "",
          "type": "string"
        }
      ],
      "stateMutability": "view",
      "type": "function"
    },
    {
      "inputs": [
        {
          "internalType": "address",
          "name": "id",
          "type": "address"
        },
        {
          "internalType": "string",
          "name": "nom",
          "type": "string"
        }
      ],
      "name": "ajouterAdmin",
      "outputs": [],
      "stateMutability": "nonpayable",
      "type": "function"
    },
    {
      "inputs": [
        {
          "internalType": "address",
          "name": "id",
          "type": "address"
        },
        {
          "internalType": "string",
          "name": "nom",
          "type": "string"
        }
      ],
      "name": "ajouterClient",
      "outputs": [],
      "stateMutability": "nonpayable",
      "type": "function"
    },
    {
      "inputs": [
        {
          "internalType": "address",
          "name": "id",
          "type": "address"
        },
        {
          "internalType": "string",
          "name": "nom",
          "type": "string"
        }
      ],
      "name": "ajouterFournisseur",
      "outputs": [],
      "stateMutability": "nonpayable",
      "type": "function"
    },
    {
      "inputs": [
        {
          "internalType": "address",
          "name": "to",
          "type": "address"
        },
        {
          "internalType": "uint256",
          "name": "tokenId",
          "type": "uint256"
        }
      ],
      "name": "approve",
      "outputs": [],
      "stateMutability": "nonpayable",
      "type": "function"
    },
    {
      "inputs": [
        {
          "internalType": "address",
          "name": "owner",
          "type": "address"
        }
      ],
      "name": "balanceOf",
      "outputs": [
        {
          "internalType": "uint256",
          "name": "",
          "type": "uint256"
        }
      ],
      "stateMutability": "view",
      "type": "function"
    },
    {
      "inputs": [
        {
          "internalType": "address",
          "name": "client",
          "type": "address"
        },
        {
          "internalType": "uint256",
          "name": "typeMateriel",
          "type": "uint256"
        },
        {
          "internalType": "string",
          "name": "referenceMateriel",
          "type": "string"
        }
      ],
      "name": "expedition",
      "outputs": [],
      "stateMutability": "nonpayable",
      "type": "function"
    },
    {
      "inputs": [
        {
          "internalType": "uint256",
          "name": "tokenId",
          "type": "uint256"
        }
      ],
      "name": "getApproved",
      "outputs": [
        {
          "internalType": "address",
          "name": "",
          "type": "address"
        }
      ],
      "stateMutability": "view",
      "type": "function"
    },
    {
      "inputs": [
        {
          "internalType": "address",
          "name": "client",
          "type": "address"
        }
      ],
      "name": "getIdByClient",
      "outputs": [
        {
          "internalType": "string[]",
          "name": "",
          "type": "string[]"
        }
      ],
      "stateMutability": "view",
      "type": "function"
    },
    {
      "inputs": [],
      "name": "getJsonCommandes",
      "outputs": [
        {
          "internalType": "string",
          "name": "",
          "type": "string"
        }
      ],
      "stateMutability": "view",
      "type": "function"
    },
    {
      "inputs": [],
      "name": "getListeAdmins",
      "outputs": [
        {
          "components": [
            {
              "internalType": "address",
              "name": "id",
              "type": "address"
            },
            {
              "internalType": "string",
              "name": "nom",
              "type": "string"
            }
          ],
          "internalType": "struct Role.Admin[]",
          "name": "",
          "type": "tuple[]"
        }
      ],
      "stateMutability": "view",
      "type": "function"
    },
    {
      "inputs": [],
      "name": "getListeClients",
      "outputs": [
        {
          "components": [
            {
              "internalType": "address",
              "name": "id",
              "type": "address"
            },
            {
              "internalType": "string",
              "name": "nom",
              "type": "string"
            }
          ],
          "internalType": "struct Role.Client[]",
          "name": "",
          "type": "tuple[]"
        }
      ],
      "stateMutability": "view",
      "type": "function"
    },
    {
      "inputs": [],
      "name": "getListeFournisseurs",
      "outputs": [
        {
          "components": [
            {
              "internalType": "address",
              "name": "id",
              "type": "address"
            },
            {
              "internalType": "string",
              "name": "nom",
              "type": "string"
            }
          ],
          "internalType": "struct Role.Fournisseur[]",
          "name": "",
          "type": "tuple[]"
        }
      ],
      "stateMutability": "view",
      "type": "function"
    },
    {
      "inputs": [
        {
          "internalType": "address",
          "name": "id",
          "type": "address"
        }
      ],
      "name": "getNomAdminByAddress",
      "outputs": [
        {
          "internalType": "string",
          "name": "",
          "type": "string"
        }
      ],
      "stateMutability": "view",
      "type": "function"
    },
    {
      "inputs": [
        {
          "internalType": "address",
          "name": "id",
          "type": "address"
        }
      ],
      "name": "getNomClientByAddress",
      "outputs": [
        {
          "internalType": "string",
          "name": "",
          "type": "string"
        }
      ],
      "stateMutability": "view",
      "type": "function"
    },
    {
      "inputs": [
        {
          "internalType": "address",
          "name": "id",
          "type": "address"
        }
      ],
      "name": "getNomFournisseurByAddress",
      "outputs": [
        {
          "internalType": "string",
          "name": "",
          "type": "string"
        }
      ],
      "stateMutability": "view",
      "type": "function"
    },
    {
      "inputs": [
        {
          "internalType": "address",
          "name": "id",
          "type": "address"
        }
      ],
      "name": "getRoleByAddress",
      "outputs": [
        {
          "internalType": "string",
          "name": "",
          "type": "string"
        }
      ],
      "stateMutability": "view",
      "type": "function"
    },
    {
      "inputs": [],
      "name": "getUriQuantum",
      "outputs": [
        {
          "internalType": "string",
          "name": "",
          "type": "string"
        }
      ],
      "stateMutability": "view",
      "type": "function"
    },
    {
      "inputs": [],
      "name": "getUriS3200",
      "outputs": [
        {
          "internalType": "string",
          "name": "",
          "type": "string"
        }
      ],
      "stateMutability": "view",
      "type": "function"
    },
    {
      "inputs": [
        {
          "internalType": "address",
          "name": "owner",
          "type": "address"
        },
        {
          "internalType": "address",
          "name": "operator",
          "type": "address"
        }
      ],
      "name": "isApprovedForAll",
      "outputs": [
        {
          "internalType": "bool",
          "name": "",
          "type": "bool"
        }
      ],
      "stateMutability": "view",
      "type": "function"
    },
    {
      "inputs": [],
      "name": "name",
      "outputs": [
        {
          "internalType": "string",
          "name": "",
          "type": "string"
        }
      ],
      "stateMutability": "view",
      "type": "function"
    },
    {
      "inputs": [],
      "name": "owner",
      "outputs": [
        {
          "internalType": "address",
          "name": "",
          "type": "address"
        }
      ],
      "stateMutability": "view",
      "type": "function"
    },
    {
      "inputs": [
        {
          "internalType": "uint256",
          "name": "tokenId",
          "type": "uint256"
        }
      ],
      "name": "ownerOf",
      "outputs": [
        {
          "internalType": "address",
          "name": "",
          "type": "address"
        }
      ],
      "stateMutability": "view",
      "type": "function"
    },
    {
      "inputs": [],
      "name": "pause",
      "outputs": [],
      "stateMutability": "nonpayable",
      "type": "function"
    },
    {
      "inputs": [],
      "name": "paused",
      "outputs": [
        {
          "internalType": "bool",
          "name": "",
          "type": "bool"
        }
      ],
      "stateMutability": "view",
      "type": "function"
    },
    {
      "inputs": [
        {
          "internalType": "address",
          "name": "client",
          "type": "address"
        },
        {
          "internalType": "uint256",
          "name": "itemId",
          "type": "uint256"
        },
        {
          "internalType": "uint256",
          "name": "workflowState",
          "type": "uint256"
        }
      ],
      "name": "reception",
      "outputs": [],
      "stateMutability": "nonpayable",
      "type": "function"
    },
    {
      "inputs": [],
      "name": "renounceOwnership",
      "outputs": [],
      "stateMutability": "nonpayable",
      "type": "function"
    },
    {
      "inputs": [
        {
          "internalType": "address",
          "name": "from",
          "type": "address"
        },
        {
          "internalType": "address",
          "name": "to",
          "type": "address"
        },
        {
          "internalType": "uint256",
          "name": "tokenId",
          "type": "uint256"
        }
      ],
      "name": "safeTransferFrom",
      "outputs": [],
      "stateMutability": "nonpayable",
      "type": "function"
    },
    {
      "inputs": [
        {
          "internalType": "address",
          "name": "from",
          "type": "address"
        },
        {
          "internalType": "address",
          "name": "to",
          "type": "address"
        },
        {
          "internalType": "uint256",
          "name": "tokenId",
          "type": "uint256"
        },
        {
          "internalType": "bytes",
          "name": "data",
          "type": "bytes"
        }
      ],
      "name": "safeTransferFrom",
      "outputs": [],
      "stateMutability": "nonpayable",
      "type": "function"
    },
    {
      "inputs": [
        {
          "internalType": "address",
          "name": "operator",
          "type": "address"
        },
        {
          "internalType": "bool",
          "name": "approved",
          "type": "bool"
        }
      ],
      "name": "setApprovalForAll",
      "outputs": [],
      "stateMutability": "nonpayable",
      "type": "function"
    },
    {
      "inputs": [
        {
          "internalType": "string",
          "name": "uriQuantum",
          "type": "string"
        }
      ],
      "name": "setUriQuantum",
      "outputs": [],
      "stateMutability": "nonpayable",
      "type": "function"
    },
    {
      "inputs": [
        {
          "internalType": "string",
          "name": "uriS3200",
          "type": "string"
        }
      ],
      "name": "setUriS3200",
      "outputs": [],
      "stateMutability": "nonpayable",
      "type": "function"
    },
    {
      "inputs": [
        {
          "internalType": "bytes4",
          "name": "interfaceId",
          "type": "bytes4"
        }
      ],
      "name": "supportsInterface",
      "outputs": [
        {
          "internalType": "bool",
          "name": "",
          "type": "bool"
        }
      ],
      "stateMutability": "view",
      "type": "function"
    },
    {
      "inputs": [
        {
          "internalType": "address",
          "name": "id",
          "type": "address"
        }
      ],
      "name": "supprimerAdmin",
      "outputs": [],
      "stateMutability": "nonpayable",
      "type": "function"
    },
    {
      "inputs": [
        {
          "internalType": "address",
          "name": "id",
          "type": "address"
        }
      ],
      "name": "supprimerClient",
      "outputs": [],
      "stateMutability": "nonpayable",
      "type": "function"
    },
    {
      "inputs": [
        {
          "internalType": "address",
          "name": "id",
          "type": "address"
        }
      ],
      "name": "supprimerFournisseur",
      "outputs": [],
      "stateMutability": "nonpayable",
      "type": "function"
    },
    {
      "inputs": [],
      "name": "symbol",
      "outputs": [
        {
          "internalType": "string",
          "name": "",
          "type": "string"
        }
      ],
      "stateMutability": "view",
      "type": "function"
    },
    {
      "inputs": [
        {
          "internalType": "uint256",
          "name": "tokenId",
          "type": "uint256"
        }
      ],
      "name": "tokenURI",
      "outputs": [
        {
          "internalType": "string",
          "name": "",
          "type": "string"
        }
      ],
      "stateMutability": "view",
      "type": "function"
    },
    {
      "inputs": [
        {
          "internalType": "uint256",
          "name": "typeMateriel",
          "type": "uint256"
        },
        {
          "internalType": "string",
          "name": "referenceMateriel",
          "type": "string"
        }
      ],
      "name": "tokenisation",
      "outputs": [],
      "stateMutability": "nonpayable",
      "type": "function"
    },
    {
      "inputs": [
        {
          "internalType": "address",
          "name": "from",
          "type": "address"
        },
        {
          "internalType": "address",
          "name": "to",
          "type": "address"
        },
        {
          "internalType": "uint256",
          "name": "tokenId",
          "type": "uint256"
        }
      ],
      "name": "transferFrom",
      "outputs": [],
      "stateMutability": "nonpayable",
      "type": "function"
    },
    {
      "inputs": [
        {
          "internalType": "address",
          "name": "newOwner",
          "type": "address"
        }
      ],
      "name": "transferOwnership",
      "outputs": [],
      "stateMutability": "nonpayable",
      "type": "function"
    },
    {
      "inputs": [],
      "name": "unpause",
      "outputs": [],
      "stateMutability": "nonpayable",
      "type": "function"
    }
  ],
  "bytecode": "0x60806040523480156200001157600080fd5b506040516200624438038062006244833981016040819052620000349162000842565b8251839083906200004d9060009060208501906200065f565b508051620000639060019060208401906200065f565b50506007805460ff19169055506200007b33620000d4565b80516200009090600d9060208401906200065f565b506200009c336200012e565b620000cb336040518060400160405280600581526020016427bbb732b960d91b8152506200015a60201b60201c565b50505062000b4f565b600780546001600160a01b03838116610100818102610100600160a81b031985161790945560405193909204169182907f8be0079c531659141344cd1fd0a4f28419497f9722a3daafe3b4186f6b6457e090600090a35050565b6200013862000325565b600880546001600160a01b0319166001600160a01b0392909216919091179055565b60085433906001600160a01b0316811480620001d9575060405166496e636f6e6e7560c81b602082015260270160405160208183030381529060405280519060200120620001ae826200035a60201b60201c565b604051602001620001c0919062000916565b6040516020818303038152906040528051906020012014155b620002015760405162461bcd60e51b8152600401620001f89062000942565b60405180910390fd5b6200024e6040518060400160405280601981526020017f616a6f7574657241646d696e206964202573206e6f6d2025730000000000000081525084846200054c60201b62002abd1760201c565b6001600160a01b038316620002775760405162461bcd60e51b8152600401620001f8906200097c565b604080518082019091526001600160a01b03848116825260208083018581526009805460018101825560009190915284517f6e1540171b6c0c960b71a7020d9f60077f6af931a8bbf590da0223dacf75c7af600290920291820180546001600160a01b03191691909516178455905180516200031d937f6e1540171b6c0c960b71a7020d9f60077f6af931a8bbf590da0223dacf75c7b09093019291909101906200065f565b505050505050565b6007546001600160a01b03610100909104163314620003585760405162461bcd60e51b8152600401620001f890620009bf565b565b604080518082019091526007815266496e636f6e6e7560c81b602082015260609060005b600954811015620004f957600060098281548110620003a157620003a1620009d1565b60009182526020918290206040805180820190915260029092020180546001600160a01b031682526001810180549293919291840191620003e290620009fd565b80601f01602080910402602001604051908101604052809291908181526020018280546200041090620009fd565b8015620004615780601f10620004355761010080835404028352916020019162000461565b820191906000526020600020905b8154815290600101906020018083116200044357829003601f168201915b5050505050815250509050846001600160a01b031681600001516001600160a01b03161415620004e357620004db6040518060400160405280601e81526020017f67657441646d696e427941646472657373205f61646d696e2e696420257300008152508260000151620005a060201b62002b1d1760201c565b806020015192505b5080620004f08162000a44565b9150506200037e565b50620005466040518060400160405280601b81526020017f6765744e6f6d41646d696e427941646472657373206e6f6d202573000000000081525082620005f160201b62002b7b1760201c565b92915050565b6200059b838383604051602401620005679392919062000aba565b60408051601f198184030181529190526020810180516001600160e01b0390811663e0e9ad4f60e01b179091526200063e16565b505050565b620005ed8282604051602401620005b992919062000afb565b60408051601f198184030181529190526020810180516001600160e01b0390811663319af33360e01b179091526200063e16565b5050565b620005ed82826040516024016200060a92919062000b26565b60408051601f198184030181529190526020810180516001600160e01b03908116634b5c427760e01b179091526200063e16565b80516a636f6e736f6c652e6c6f67602083016000808483855afa5050505050565b8280546200066d90620009fd565b90600052602060002090601f016020900481019282620006915760008555620006dc565b82601f10620006ac57805160ff1916838001178555620006dc565b82800160010185558215620006dc579182015b82811115620006dc578251825591602001919060010190620006bf565b50620006ea929150620006ee565b5090565b5b80821115620006ea5760008155600101620006ef565b634e487b7160e01b600052604160045260246000fd5b601f19601f83011681016001600160401b038111828210171562000743576200074362000705565b6040525050565b60006200075660405190565b90506200076482826200071b565b919050565b60006001600160401b0382111562000785576200078562000705565b601f19601f83011660200192915050565b60005b83811015620007b357818101518382015260200162000799565b83811115620007c3576000848401525b50505050565b6000620007e0620007da8462000769565b6200074a565b905082815260208101848484011115620007fd57620007fd600080fd5b6200080a84828562000796565b509392505050565b600082601f830112620008285762000828600080fd5b81516200083a848260208601620007c9565b949350505050565b6000806000606084860312156200085c576200085c600080fd5b83516001600160401b03811115620008775762000877600080fd5b620008858682870162000812565b602086015190945090506001600160401b03811115620008a857620008a8600080fd5b620008b68682870162000812565b604086015190935090506001600160401b03811115620008d957620008d9600080fd5b620008e78682870162000812565b9150509250925092565b6000620008fc825190565b6200090c81856020860162000796565b9290920192915050565b620005468183620008f1565b6009815260208101682737ba1020b236b4b760b91b815290505b60200190565b60208082528101620005468162000922565b60128152602081017141646472657373206e6f742076616c69646560701b815290506200093c565b60208082528101620005468162000954565b60208082527f4f776e61626c653a2063616c6c6572206973206e6f7420746865206f776e657291019081526200093c565b6020808252810162000546816200098e565b634e487b7160e01b600052603260045260246000fd5b634e487b7160e01b600052602260045260246000fd5b60028104600182168062000a1257607f821691505b6020821081141562000a285762000a28620009e7565b50919050565b634e487b7160e01b600052601160045260246000fd5b600060001982141562000a5b5762000a5b62000a2e565b5060010190565b600062000a6d825190565b80845260208401935062000a8681856020860162000796565b601f01601f19169290920192915050565b60006001600160a01b03821662000546565b62000ab48162000a97565b82525050565b6060808252810162000acd818662000a62565b905062000ade602083018562000aa9565b818103604083015262000af2818462000a62565b95945050505050565b6040808252810162000b0e818562000a62565b905062000b1f602083018462000aa9565b9392505050565b6040808252810162000b39818562000a62565b905081810360208301526200083a818462000a62565b6156e58062000b5f6000396000f3fe608060405234801561001057600080fd5b50600436106102e95760003560e01c806370a0823111610191578063b30021cd116100e3578063ddf387f411610097578063ebc278d811610071578063ebc278d8146105ec578063f2fde38b14610601578063f53790f11461061457600080fd5b8063ddf387f41461058a578063e2339ba31461059d578063e985e9c5146105b057600080fd5b8063b9ce1395116100c8578063b9ce13951461055c578063c87b56dd14610564578063ddd273901461057757600080fd5b8063b30021cd14610536578063b88d4fde1461054957600080fd5b806389e231ae11610145578063a22cb4651161011f578063a22cb465146104fb578063a27421af1461050e578063a688f0351461052157600080fd5b806389e231ae146104ca5780638da5cb5b146104dd57806395d89b41146104f357600080fd5b80637bff77d4116101765780637bff77d41461049a5780637e5db4c7146104ad5780638456cb59146104c257600080fd5b806370a0823114610472578063715018a61461049257600080fd5b80633f2260b81161024a5780634ab143bb116101fe5780635c975abb116101d85780635c975abb146104415780636352211e1461044c57806364d2387d1461045f57600080fd5b80634ab143bb146104135780634cb01278146104265780634fb75e4f1461043957600080fd5b806342842e0e1161022f57806342842e0e146103f0578063457d5338146104035780634835cae71461040b57600080fd5b80633f2260b8146103d55780633f4ba83a146103e857600080fd5b8063213f61b3116102a157806323b872dd1161028657806323b872dd146103a75780632a40807c146103ba57806337bd6c5e146103cd57600080fd5b8063213f61b3146103745780632163b1011461039457600080fd5b8063081812fc116102d2578063081812fc1461032c578063095ea7b31461034c57806316f1df231461036157600080fd5b806301ffc9a7146102ee57806306fdde0314610317575b600080fd5b6103016102fc366004614244565b610627565b60405161030e919061426f565b60405180910390f35b61031f61070c565b60405161030e91906142db565b61033f61033a3660046142fd565b61079e565b60405161030e9190614338565b61035f61035a36600461435a565b6107c5565b005b61035f61036f36600461448a565b610872565b6103876103823660046144d8565b610a14565b60405161030e919061456f565b61031f6103a23660046144d8565b610c3b565b61035f6103b5366004614580565b610dfd565b61035f6103c83660046145d0565b610e2e565b61031f610e4d565b61035f6103e336600461460b565b610edb565b61035f6110c4565b61035f6103fe366004614580565b6110d6565b61031f6110f1565b61031f611100565b61031f6104213660046144d8565b61110f565b61035f61043436600461462d565b6112d1565b61031f6113bc565b60075460ff16610301565b61033f61045a3660046142fd565b6116bc565b61035f61046d3660046144d8565b6116f1565b6104856104803660046144d8565b611903565b60405161030e9190614668565b61035f611947565b61031f6104a83660046144d8565b611959565b6104b5611bac565b60405161030e919061470f565b61035f611cb2565b61035f6104d836600461448a565b611cc2565b60075461010090046001600160a01b031661033f565b61031f611e5c565b61035f610509366004614733565b611e6b565b61035f61051c366004614766565b611e76565b610529612011565b60405161030e919061481f565b61035f6105443660046144d8565b61210e565b61035f610557366004614830565b612314565b61031f612346565b61031f6105723660046142fd565b612353565b61035f6105853660046144d8565b612457565b61035f6105983660046145d0565b61262f565b61031f6105ab3660046144d8565b61264a565b6103016105be3660046148af565b6001600160a01b03918216600090815260056020908152604080832093909416825291909152205460ff1690565b6105f46127ec565b60405161030e919061493a565b61035f61060f3660046144d8565b6128e9565b61035f61062236600461448a565b612923565b60007fffffffff0000000000000000000000000000000000000000000000000000000082167f80ac58cd0000000000000000000000000000000000000000000000000000000014806106ba57507fffffffff0000000000000000000000000000000000000000000000000000000082167f5b5e139f00000000000000000000000000000000000000000000000000000000145b8061070657507f01ffc9a7000000000000000000000000000000000000000000000000000000007fffffffff000000000000000000000000000000000000000000000000000000008316145b92915050565b60606000805461071b90614961565b80601f016020809104026020016040519081016040528092919081815260200182805461074790614961565b80156107945780601f1061076957610100808354040283529160200191610794565b820191906000526020600020905b81548152906001019060200180831161077757829003601f168201915b5050505050905090565b60006107a982612bd9565b506000908152600460205260409020546001600160a01b031690565b60006107d0826116bc565b9050806001600160a01b0316836001600160a01b0316141561080d5760405162461bcd60e51b8152600401610804906149e8565b60405180910390fd5b336001600160a01b038216148061084757506001600160a01b038116600090815260056020908152604080832033845290915290205460ff165b6108635760405162461bcd60e51b815260040161080490614a50565b61086d8383612c0d565b505050565b60085433906001600160a01b03168114806108e6575060405166496e636f6e6e7560c81b6020820152602701604051602081830303815290604052805190602001206108bd8261110f565b6040516020016108cd9190614a82565b6040516020818303038152906040528051906020012014155b6109025760405162461bcd60e51b815260040161080490614abe565b6109426040518060400160405280601981526020017f616a6f7574657241646d696e206964202573206e6f6d202573000000000000008152508484612abd565b6001600160a01b0383166109685760405162461bcd60e51b815260040161080490614b00565b604080518082019091526001600160a01b03848116825260208083018581526009805460018101825560009190915284517f6e1540171b6c0c960b71a7020d9f60077f6af931a8bbf590da0223dacf75c7af600290920291820180546001600160a01b0319169190951617845590518051610a0c937f6e1540171b6c0c960b71a7020d9f60077f6af931a8bbf590da0223dacf75c7b09093019291909101906140c0565b505050505050565b6060610a556040518060400160405280601881526020017f67657449644279436c69656e742061646472657373202573000000000000000081525083612b1d565b600080610a6184612c7b565b67ffffffffffffffff811115610a7957610a79614397565b604051908082528060200260200182016040528015610aac57816020015b6060815260200190600190039081610a975790505b50905060005b600c54811015610c33576000818152601060209081526040808320815160c08101835281546001600160a01b039081168252600183015416938101939093526002810180549192840191610b0590614961565b80601f0160208091040260200160405190810160405280929190818152602001828054610b3190614961565b8015610b7e5780601f10610b5357610100808354040283529160200191610b7e565b820191906000526020600020905b815481529060010190602001808311610b6157829003601f168201915b5050509183525050600382810154602083015260048301546040830152600583015460609092019160ff1690811115610bb957610bb9614b10565b6003811115610bca57610bca614b10565b815250509050856001600160a01b031681602001516001600160a01b03161415610c2057610bf782612e43565b8385610c0281614b3c565b965081518110610c1457610c14614b57565b60200260200101819052505b5080610c2b81614b3c565b915050610ab2565b509392505050565b604080518082019091526007815266496e636f6e6e7560c81b602082015260609060005b600a54811015610dbd576000600a8281548110610c7e57610c7e614b57565b60009182526020918290206040805180820190915260029092020180546001600160a01b031682526001810180549293919291840191610cbd90614961565b80601f0160208091040260200160405190810160405280929190818152602001828054610ce990614961565b8015610d365780601f10610d0b57610100808354040283529160200191610d36565b820191906000526020600020905b815481529060010190602001808311610d1957829003601f168201915b5050505050815250509050846001600160a01b031681600001516001600160a01b03161415610daa57610da26040518060400160405280602081526020017f676574436c69656e74427941646472657373205f636c69656e742e69642025738152508260000151612b1d565b806020015192505b5080610db581614b3c565b915050610c5f565b506107066040518060400160405280601981526020017f676574436c69656e74427941646472657373206e6f6d2025730000000000000081525082612b7b565b610e073382612ee5565b610e235760405162461bcd60e51b815260040161080490614bc5565b61086d838383612f63565b610e36613098565b8051610e4990600f9060208401906140c0565b5050565b600e8054610e5a90614961565b80601f0160208091040260200160405190810160405280929190818152602001828054610e8690614961565b8015610ed35780601f10610ea857610100808354040283529160200191610ed3565b820191906000526020600020905b815481529060010190602001808311610eb657829003601f168201915b505050505081565b610efe60405180606001604052806031815260200161565d6031913983836130c8565b811580610f0b5750816001145b610f275760405162461bcd60e51b815260040161080490614c07565b6000610f32600c5490565b9050610f3e3382613128565b82610fdc57610fd781600e8054610f5490614961565b80601f0160208091040260200160405190810160405280929190818152602001828054610f8090614961565b8015610fcd5780601f10610fa257610100808354040283529160200191610fcd565b820191906000526020600020905b815481529060010190602001808311610fb057829003601f168201915b5050505050613142565b610fed565b610fed81600f8054610f5490614961565b6040805160c081018252338152600060208083018281528385018781524260608601526080850184905260a085018490528684526010835294909220835181546001600160a01b03199081166001600160a01b039283161783559351600183018054909516911617909255925180519293919261107092600285019201906140c0565b50606082015181600301556080820151816004015560a08201518160050160006101000a81548160ff021916908360038111156110af576110af614b10565b021790555050600c8054600101905550505050565b6110cc613098565b6110d4613195565b565b61086d83838360405180602001604052806000815250612314565b6060600e805461071b90614961565b6060600f805461071b90614961565b604080518082019091526007815266496e636f6e6e7560c81b602082015260609060005b6009548110156112915760006009828154811061115257611152614b57565b60009182526020918290206040805180820190915260029092020180546001600160a01b03168252600181018054929391929184019161119190614961565b80601f01602080910402602001604051908101604052809291908181526020018280546111bd90614961565b801561120a5780601f106111df5761010080835404028352916020019161120a565b820191906000526020600020905b8154815290600101906020018083116111ed57829003601f168201915b5050505050815250509050846001600160a01b031681600001516001600160a01b0316141561127e576112766040518060400160405280601e81526020017f67657441646d696e427941646472657373205f61646d696e2e696420257300008152508260000151612b1d565b806020015192505b508061128981614b3c565b915050611133565b506107066040518060400160405280601b81526020017f6765744e6f6d41646d696e427941646472657373206e6f6d202573000000000081525082612b7b565b6113116040518060400160405280601e81526020017f726563657074696f6e2061646472657373202573206974656d4964202573000081525084846131e1565b6001600160a01b0383166113375760405162461bcd60e51b815260040161080490614b00565b8015806113445750806001145b6113605760405162461bcd60e51b815260040161080490614c49565b80611386576000828152601060205260409020600501805460ff191660021790556113a3565b6000828152601060205260409020600501805460ff191660031790555b5060009081526010602052604090204260049091015550565b604080518082018252600181527f5b000000000000000000000000000000000000000000000000000000000000006020808301919091528251808201845260008082528451808401865281815285519384019095528083526060949192905b600c548160ff1610156116585760ff81166000908152601060209081526040808320815160c08101835281546001600160a01b03908116825260018301541693810193909352600281018054919284019161147590614961565b80601f01602080910402602001604051908101604052809291908181526020018280546114a190614961565b80156114ee5780601f106114c3576101008083540402835291602001916114ee565b820191906000526020600020905b8154815290600101906020018083116114d157829003601f168201915b5050509183525050600382810154602083015260048301546040830152600583015460609092019160ff169081111561152957611529614b10565b600381111561153a5761153a614b10565b81525050905061154d8160200151610c3b565b935061155c816000015161264a565b925060ff8216156115a0576040518060400160405280600181526020017f2c0000000000000000000000000000000000000000000000000000000000000081525094505b6000856115af8460ff16612e43565b83516115ba90613241565b866115c88660200151613241565b8987604001516115db8960600151612e43565b6115e88a60800151612e43565b6115f58b60a00151613257565b60405160200161160e9a99989796959493929190614c59565b60405160208183030381529060405290508681604051602001611632929190614e86565b60405160208183030381529060405296505050808061165090614e9c565b91505061141b565b508360405160200161166a9190614eb5565b60408051601f19818403018152828201909152601182527f4a736f6e436f6d6d616e64657320257320000000000000000000000000000000602083015294506116b39085612b7b565b50919392505050565b6000818152600260205260408120546001600160a01b0316806107065760405162461bcd60e51b815260040161080490614f1d565b60085433906001600160a01b0316811480611765575060405166496e636f6e6e7560c81b60208201526027016040516020818303038152906040528051906020012061173c8261110f565b60405160200161174c9190614a82565b6040516020818303038152906040528051906020012014155b6117815760405162461bcd60e51b815260040161080490614abe565b6117c06040518060400160405280601b81526020017f7375707072696d6572466f75726e69737365757220696420257320000000000081525083612b1d565b6001600160a01b0382166117e65760405162461bcd60e51b815260040161080490614b00565b60006117f1836133b5565b90508061270f1461086d57805b600b5461180d90600190614f2d565b8110156118b757600b611821826001614f44565b8154811061183157611831614b57565b9060005260206000209060020201600b828154811061185257611852614b57565b60009182526020909120825460029092020180546001600160a01b0319166001600160a01b03909216919091178155600180830180549183019161189590614961565b6118a0929190614144565b5090505080806118af90614b3c565b9150506117fe565b50600b8054806118c9576118c9614f5c565b60008281526020812060026000199093019283020180546001600160a01b0319168155906118fa60018301826141bf565b50509055505050565b60006001600160a01b03821661192b5760405162461bcd60e51b815260040161080490614fca565b506001600160a01b031660009081526003602052604090205490565b61194f613098565b6110d46000613519565b606060006040518060400160405280600681526020017f4e6f526f6c65000000000000000000000000000000000000000000000000000081525090506040516020016119b29066496e636f6e6e7560c81b815260070190565b604051602081830303815290604052805190602001206119d18461110f565b6040516020016119e19190614a82565b6040516020818303038152906040528051906020012014611a3757505060408051808201909152600581527f41646d696e0000000000000000000000000000000000000000000000000000006020820152919050565b60405166496e636f6e6e7560c81b602082015260270160405160208183030381529060405280519060200120611a6c8461264a565b604051602001611a7c9190614a82565b6040516020818303038152906040528051906020012014611ad257505060408051808201909152600b81527f466f75726e6973736575720000000000000000000000000000000000000000006020820152919050565b60405166496e636f6e6e7560c81b602082015260270160405160208183030381529060405280519060200120611b0784610c3b565b604051602001611b179190614a82565b6040516020818303038152906040528051906020012014611b6d57505060408051808201909152600681527f436c69656e7400000000000000000000000000000000000000000000000000006020820152919050565b6107066040518060400160405280601881526020017f676574526f6c6542794164647265737320726f6c65202573000000000000000081525082612b7b565b6060600b805480602002602001604051908101604052809291908181526020016000905b82821015611ca9576000848152602090819020604080518082019091526002850290910180546001600160a01b031682526001810180549293919291840191611c1890614961565b80601f0160208091040260200160405190810160405280929190818152602001828054611c4490614961565b8015611c915780601f10611c6657610100808354040283529160200191611c91565b820191906000526020600020905b815481529060010190602001808311611c7457829003601f168201915b50505050508152505081526020019060010190611bd0565b50505050905090565b611cba613098565b6110d461358a565b60085433906001600160a01b0316811480611d36575060405166496e636f6e6e7560c81b602082015260270160405160208183030381529060405280519060200120611d0d8261110f565b604051602001611d1d9190614a82565b6040516020818303038152906040528051906020012014155b611d525760405162461bcd60e51b815260040161080490614abe565b611d926040518060400160405280601681526020017f726563657074696f6e206964202573206e6f6d202573000000000000000000008152508484612abd565b6001600160a01b038316611db85760405162461bcd60e51b815260040161080490614b00565b604080518082019091526001600160a01b0384811682526020808301858152600b805460018101825560009190915284517f0175b7a638427703f0dbe7bb9bbf987a2551717b34e79f33b5b1008d1fa01db9600290920291820180546001600160a01b0319169190951617845590518051610a0c937f0175b7a638427703f0dbe7bb9bbf987a2551717b34e79f33b5b1008d1fa01dba9093019291909101906140c0565b60606001805461071b90614961565b610e493383836135c7565b611e996040518060600160405280602581526020016156386025913984846131e1565b6001600160a01b038316611ebf5760405162461bcd60e51b815260040161080490614b00565b811580611ecc5750816001145b611ee85760405162461bcd60e51b815260040161080490614c07565b6000611ef3600c5490565b9050611eff8482613128565b82611f1a57611f1581600e8054610f5490614961565b611f2b565b611f2b81600f8054610f5490614961565b6040805160c0810182523381526001600160a01b03861660208201529081018390524260608201526000608082015260a0810160019052600082815260106020908152604091829020835181546001600160a01b039182166001600160a01b031991821617835585840151600184018054919093169116179055918301518051611fbb92600285019201906140c0565b50606082015181600301556080820151816004015560a08201518160050160006101000a81548160ff02191690836003811115611ffa57611ffa614b10565b021790555050600c80546001019055505b50505050565b6060600a805480602002602001604051908101604052809291908181526020016000905b82821015611ca9576000848152602090819020604080518082019091526002850290910180546001600160a01b03168252600181018054929391929184019161207d90614961565b80601f01602080910402602001604051908101604052809291908181526020018280546120a990614961565b80156120f65780601f106120cb576101008083540402835291602001916120f6565b820191906000526020600020905b8154815290600101906020018083116120d957829003601f168201915b50505050508152505081526020019060010190612035565b60085433906001600160a01b0316811480612182575060405166496e636f6e6e7560c81b6020820152602701604051602081830303815290604052805190602001206121598261110f565b6040516020016121699190614a82565b6040516020818303038152906040528051906020012014155b61219e5760405162461bcd60e51b815260040161080490614abe565b6121dd6040518060400160405280601581526020017f7375707072696d657241646d696e20696420257320000000000000000000000081525083612b1d565b6001600160a01b0382166122035760405162461bcd60e51b815260040161080490614b00565b6008546001600160a01b03838116911614156122315760405162461bcd60e51b81526004016108049061500c565b600061223c8361366a565b90508061270f1461086d57805b60095461225890600190614f2d565b81101561230257600961226c826001614f44565b8154811061227c5761227c614b57565b90600052602060002090600202016009828154811061229d5761229d614b57565b60009182526020909120825460029092020180546001600160a01b0319166001600160a01b0390921691909117815560018083018054918301916122e090614961565b6122eb929190614144565b5090505080806122fa90614b3c565b915050612249565b5060098054806118c9576118c9614f5c565b61231e3383612ee5565b61233a5760405162461bcd60e51b815260040161080490614bc5565b61200b848484846137eb565b600f8054610e5a90614961565b606061235e82612bd9565b6000828152600660205260408120805461237790614961565b80601f01602080910402602001604051908101604052809291908181526020018280546123a390614961565b80156123f05780601f106123c5576101008083540402835291602001916123f0565b820191906000526020600020905b8154815290600101906020018083116123d357829003601f168201915b50505050509050600061240161381e565b9050805160001415612414575092915050565b81511561244657808260405160200161242e929190614e86565b60405160208183030381529060405292505050919050565b61244f8461382d565b949350505050565b60085433906001600160a01b03168114806124cb575060405166496e636f6e6e7560c81b6020820152602701604051602081830303815290604052805190602001206124a28261110f565b6040516020016124b29190614a82565b6040516020818303038152906040528051906020012014155b6124e75760405162461bcd60e51b815260040161080490614abe565b6125266040518060400160405280601681526020017f7375707072696d6572436c69656e74206964202573200000000000000000000081525083612b1d565b6001600160a01b03821661254c5760405162461bcd60e51b815260040161080490614b00565b600061255783613894565b90508061270f1461086d57805b600a5461257390600190614f2d565b81101561261d57600a612587826001614f44565b8154811061259757612597614b57565b9060005260206000209060020201600a82815481106125b8576125b8614b57565b60009182526020909120825460029092020180546001600160a01b0319166001600160a01b0390921691909117815560018083018054918301916125fb90614961565b612606929190614144565b50905050808061261590614b3c565b915050612564565b50600a8054806118c9576118c9614f5c565b612637613098565b8051610e4990600e9060208401906140c0565b604080518082019091526007815266496e636f6e6e7560c81b602082015260609060005b600b548110156127ac576000600b828154811061268d5761268d614b57565b60009182526020918290206040805180820190915260029092020180546001600160a01b0316825260018101805492939192918401916126cc90614961565b80601f01602080910402602001604051908101604052809291908181526020018280546126f890614961565b80156127455780601f1061271a57610100808354040283529160200191612745565b820191906000526020600020905b81548152906001019060200180831161272857829003601f168201915b5050505050815250509050846001600160a01b031681600001516001600160a01b03161415612799576127916040518060600160405280602a8152602001615577602a91398251612b1d565b806020015192505b50806127a481614b3c565b91505061266e565b506107066040518060400160405280601e81526020017f676574466f75726e697373657572427941646472657373206e6f6d202573000081525082612b7b565b60606009805480602002602001604051908101604052809291908181526020016000905b82821015611ca9576000848152602090819020604080518082019091526002850290910180546001600160a01b03168252600181018054929391929184019161285890614961565b80601f016020809104026020016040519081016040528092919081815260200182805461288490614961565b80156128d15780601f106128a6576101008083540402835291602001916128d1565b820191906000526020600020905b8154815290600101906020018083116128b457829003601f168201915b50505050508152505081526020019060010190612810565b6128f1613098565b6001600160a01b0381166129175760405162461bcd60e51b815260040161080490615074565b61292081613519565b50565b60085433906001600160a01b0316811480612997575060405166496e636f6e6e7560c81b60208201526027016040516020818303038152906040528051906020012061296e8261110f565b60405160200161297e9190614a82565b6040516020818303038152906040528051906020012014155b6129b35760405162461bcd60e51b815260040161080490614abe565b6129f36040518060400160405280601681526020017f726563657074696f6e206964202573206e6f6d202573000000000000000000008152508484612abd565b6001600160a01b038316612a195760405162461bcd60e51b815260040161080490614b00565b604080518082019091526001600160a01b0384811682526020808301858152600a805460018101825560009190915284517fc65a7bb8d6351c1cf70c95a316cc6a92839c986682d98bc35f958f4883f9d2a8600290920291820180546001600160a01b0319169190951617845590518051610a0c937fc65a7bb8d6351c1cf70c95a316cc6a92839c986682d98bc35f958f4883f9d2a99093019291909101906140c0565b61086d838383604051602401612ad593929190615084565b60408051601f198184030181529190526020810180516001600160e01b03167fe0e9ad4f00000000000000000000000000000000000000000000000000000000179052613a15565b610e498282604051602401612b339291906150b6565b60408051601f198184030181529190526020810180516001600160e01b03167f319af33300000000000000000000000000000000000000000000000000000000179052613a15565b610e498282604051602401612b919291906150d6565b60408051601f198184030181529190526020810180516001600160e01b03167f4b5c427700000000000000000000000000000000000000000000000000000000179052613a15565b6000818152600260205260409020546001600160a01b03166129205760405162461bcd60e51b815260040161080490614f1d565b600081815260046020526040902080546001600160a01b0319166001600160a01b0384169081179091558190612c42826116bc565b6001600160a01b03167f8c5be1e5ebec7d5bd14f71427d1e84f3dd0314c0f7b2291e5b200ac8c7c3b92560405160405180910390a45050565b600080805b600c54811015612e03576000818152601060209081526040808320815160c08101835281546001600160a01b039081168252600183015416938101939093526002810180549192840191612cd390614961565b80601f0160208091040260200160405190810160405280929190818152602001828054612cff90614961565b8015612d4c5780601f10612d2157610100808354040283529160200191612d4c565b820191906000526020600020905b815481529060010190602001808311612d2f57829003601f168201915b5050509183525050600382810154602083015260048301546040830152600583015460609092019160ff1690811115612d8757612d87614b10565b6003811115612d9857612d98614b10565b815250509050612dc460405180606001604052806022815260200161568e602291398260200151612b1d565b846001600160a01b031681602001516001600160a01b03161415612df05782612dec81614b3c565b9350505b5080612dfb81614b3c565b915050612c80565b506107066040518060400160405280601c81526020017f67657453697a654279436c69656e74206974656d436f756e742025730000000081525082613a36565b60606000612e5083613a94565b600101905060008167ffffffffffffffff811115612e7057612e70614397565b6040519080825280601f01601f191660200182016040528015612e9a576020820181803683370190505b5090508181016020015b600019017f3031323334353637383961626364656600000000000000000000000000000000600a86061a8153600a8504945084612ee057610c33565b612ea4565b600080612ef1836116bc565b9050806001600160a01b0316846001600160a01b03161480612f3857506001600160a01b0380821660009081526005602090815260408083209388168352929052205460ff165b8061244f5750836001600160a01b0316612f518461079e565b6001600160a01b031614949350505050565b826001600160a01b0316612f76826116bc565b6001600160a01b031614612f9c5760405162461bcd60e51b815260040161080490615153565b6001600160a01b038216612fc25760405162461bcd60e51b8152600401610804906151bb565b612fcf8383836001613b76565b826001600160a01b0316612fe2826116bc565b6001600160a01b0316146130085760405162461bcd60e51b815260040161080490615153565b600081815260046020908152604080832080546001600160a01b03199081169091556001600160a01b0387811680865260038552838620805460001901905590871680865283862080546001019055868652600290945282852080549092168417909155905184937fddf252ad1be2c89b69c2b068fc378daa952ba7f163c4a11628f55a4df523b3ef91a4505050565b6007546001600160a01b036101009091041633146110d45760405162461bcd60e51b8152600401610804906151fb565b61086d8383836040516024016130e09392919061520b565b60408051601f198184030181529190526020810180516001600160e01b03167f5970e08900000000000000000000000000000000000000000000000000000000179052613a15565b610e49828260405180602001604052806000815250613bfe565b6000828152600260205260409020546001600160a01b03166131765760405162461bcd60e51b815260040161080490615283565b6000828152600660209081526040909120825161086d928401906140c0565b61319d613c31565b6007805460ff191690557f5db9ee0a495bf2e6ff9c91a7834c1ba4fdd244a5e8aa4e537bd38aeae4b073aa335b6040516131d79190614338565b60405180910390a1565b61086d8383836040516024016131f993929190615293565b60408051601f198184030181529190526020810180516001600160e01b03167f0d26b92500000000000000000000000000000000000000000000000000000000179052613a15565b60606107066001600160a01b0383166014613c53565b606081600381111561326b5761326b614b10565b6132a857505060408051808201909152600881527f4372656174696f6e000000000000000000000000000000000000000000000000602082015290565b8160038111156132ba576132ba614b10565b600114156132fb57505060408051808201909152600a81527f45787065646974696f6e00000000000000000000000000000000000000000000602082015290565b81600381111561330d5761330d614b10565b6002141561334e57505060408051808201909152600981527f526563657074696f6e0000000000000000000000000000000000000000000000602082015290565b81600381111561336057613360614b10565b600314156133a157505060408051808201909152600a81527f416e6e756c6174696f6e00000000000000000000000000000000000000000000602082015290565b505060408051602081019091526000815290565b600061270f815b600b548110156134f6576000600b82815481106133db576133db614b57565b60009182526020918290206040805180820190915260029092020180546001600160a01b03168252600181018054929391929184019161341a90614961565b80601f016020809104026020016040519081016040528092919081815260200182805461344690614961565b80156134935780601f1061346857610100808354040283529160200191613493565b820191906000526020600020905b81548152906001019060200180831161347657829003601f168201915b5050505050815250509050846001600160a01b031681600001516001600160a01b031614156134e3576134df6040518060600160405280602e815260200161560a602e91398251612b1d565b8192505b50806134ee81614b3c565b9150506133bc565b506107066040518060600160405280602381526020016155e76023913982613a36565b600780546001600160a01b038381166101008181027fffffffffffffffffffffff0000000000000000000000000000000000000000ff85161790945560405193909204169182907f8be0079c531659141344cd1fd0a4f28419497f9722a3daafe3b4186f6b6457e090600090a35050565b613592613e4c565b6007805460ff191660011790557f62e78cea01bee320cd4e420270b5ea74000d11b0c9f74754ebdbfc544b05a2586131ca3390565b816001600160a01b0316836001600160a01b031614156135f95760405162461bcd60e51b8152600401610804906152f2565b6001600160a01b0383811660008181526005602090815260408083209487168084529490915290819020805460ff1916851515179055517f17307eab39ab6107e8899845ad3d59bd9653f200f220920489ca2b5937696c319061365d90859061426f565b60405180910390a3505050565b600061270f815b6009548110156137ab5760006009828154811061369057613690614b57565b60009182526020918290206040805180820190915260029092020180546001600160a01b0316825260018101805492939192918401916136cf90614961565b80601f01602080910402602001604051908101604052809291908181526020018280546136fb90614961565b80156137485780601f1061371d57610100808354040283529160200191613748565b820191906000526020600020905b81548152906001019060200180831161372b57829003601f168201915b5050505050815250509050846001600160a01b031681600001516001600160a01b03161415613798576137946040518060600160405280602281526020016155a1602291398251612b1d565b8192505b50806137a381614b3c565b915050613671565b506107066040518060400160405280601d81526020017f67657452616e6741646d696e4279416464726573732072616e6720257300000081525082613a36565b6137f6848484612f63565b61380284848484613e6f565b61200b5760405162461bcd60e51b81526004016108049061535a565b6060600d805461071b90614961565b606061383882612bd9565b600061384261381e565b90506000815111613862576040518060200160405280600081525061388d565b8061386c84612e43565b60405160200161387d929190614e86565b6040516020818303038152906040525b9392505050565b600061270f815b600a548110156139d5576000600a82815481106138ba576138ba614b57565b60009182526020918290206040805180820190915260029092020180546001600160a01b0316825260018101805492939192918401916138f990614961565b80601f016020809104026020016040519081016040528092919081815260200182805461392590614961565b80156139725780601f1061394757610100808354040283529160200191613972565b820191906000526020600020905b81548152906001019060200180831161395557829003601f168201915b5050505050815250509050846001600160a01b031681600001516001600160a01b031614156139c2576139be6040518060600160405280602481526020016155c3602491398251612b1d565b8192505b50806139cd81614b3c565b91505061389b565b506107066040518060400160405280601e81526020017f67657452616e67436c69656e744279416464726573732072616e67202573000081525082613a36565b80516a636f6e736f6c652e6c6f67602083016000808483855afa5050505050565b610e498282604051602401613a4c92919061536a565b60408051601f198184030181529190526020810180516001600160e01b03167fb60e72cc00000000000000000000000000000000000000000000000000000000179052613a15565b6000807a184f03e93ff9f4daa797ed6e38ed64bf6a1f0100000000000000008310613add577a184f03e93ff9f4daa797ed6e38ed64bf6a1f010000000000000000830492506040015b6d04ee2d6d415b85acef81000000008310613b09576d04ee2d6d415b85acef8100000000830492506020015b662386f26fc100008310613b2757662386f26fc10000830492506010015b6305f5e1008310613b3f576305f5e100830492506008015b6127108310613b5357612710830492506004015b60648310613b65576064830492506002015b600a83106107065760010192915050565b600181111561200b576001600160a01b03841615613bbc576001600160a01b03841660009081526003602052604081208054839290613bb6908490614f2d565b90915550505b6001600160a01b0383161561200b576001600160a01b03831660009081526003602052604081208054839290613bf3908490614f44565b909155505050505050565b613c088383613fb7565b613c156000848484613e6f565b61086d5760405162461bcd60e51b81526004016108049061535a565b60075460ff166110d45760405162461bcd60e51b8152600401610804906153bc565b60606000613c628360026153cc565b613c6d906002614f44565b67ffffffffffffffff811115613c8557613c85614397565b6040519080825280601f01601f191660200182016040528015613caf576020820181803683370190505b5090507f300000000000000000000000000000000000000000000000000000000000000081600081518110613ce657613ce6614b57565b60200101907effffffffffffffffffffffffffffffffffffffffffffffffffffffffffffff1916908160001a9053507f780000000000000000000000000000000000000000000000000000000000000081600181518110613d4957613d49614b57565b60200101907effffffffffffffffffffffffffffffffffffffffffffffffffffffffffffff1916908160001a9053506000613d858460026153cc565b613d90906001614f44565b90505b6001811115613e2d577f303132333435363738396162636465660000000000000000000000000000000085600f1660108110613dd157613dd1614b57565b1a60f81b828281518110613de757613de7614b57565b60200101907effffffffffffffffffffffffffffffffffffffffffffffffffffffffffffff1916908160001a90535060049490941c93613e26816153eb565b9050613d93565b50831561388d5760405162461bcd60e51b815260040161080490615432565b60075460ff16156110d45760405162461bcd60e51b815260040161080490615474565b60006001600160a01b0384163b15613fac576040517f150b7a020000000000000000000000000000000000000000000000000000000081526001600160a01b0385169063150b7a0290613ecc903390899088908890600401615484565b6020604051808303816000875af1925050508015613f07575060408051601f3d908101601f19168201909252613f04918101906154d3565b60015b613f61573d808015613f35576040519150601f19603f3d011682016040523d82523d6000602084013e613f3a565b606091505b508051613f595760405162461bcd60e51b81526004016108049061535a565b805181602001fd5b7fffffffff00000000000000000000000000000000000000000000000000000000167f150b7a020000000000000000000000000000000000000000000000000000000014905061244f565b506001949350505050565b6001600160a01b038216613fdd5760405162461bcd60e51b815260040161080490615524565b6000818152600260205260409020546001600160a01b0316156140125760405162461bcd60e51b815260040161080490615566565b614020600083836001613b76565b6000818152600260205260409020546001600160a01b0316156140555760405162461bcd60e51b815260040161080490615566565b6001600160a01b038216600081815260036020908152604080832080546001019055848352600290915280822080546001600160a01b0319168417905551839291907fddf252ad1be2c89b69c2b068fc378daa952ba7f163c4a11628f55a4df523b3ef908290a45050565b8280546140cc90614961565b90600052602060002090601f0160209004810192826140ee5760008555614134565b82601f1061410757805160ff1916838001178555614134565b82800160010185558215614134579182015b82811115614134578251825591602001919060010190614119565b506141409291506141f5565b5090565b82805461415090614961565b90600052602060002090601f0160209004810192826141725760008555614134565b82601f106141835780548555614134565b8280016001018555821561413457600052602060002091601f016020900482015b828111156141345782548255916001019190600101906141a4565b5080546141cb90614961565b6000825580601f106141db575050565b601f01602090049060005260206000209081019061292091905b5b8082111561414057600081556001016141f6565b7fffffffff0000000000000000000000000000000000000000000000000000000081165b811461292057600080fd5b80356107068161420a565b60006020828403121561425957614259600080fd5b600061244f8484614239565b8015155b82525050565b602081016107068284614265565b60005b83811015614298578181015183820152602001614280565b8381111561200b5750506000910152565b60006142b3825190565b8084526020840193506142ca81856020860161427d565b601f01601f19169290920192915050565b6020808252810161388d81846142a9565b8061422e565b8035610706816142ec565b60006020828403121561431257614312600080fd5b600061244f84846142f2565b60006001600160a01b038216610706565b6142698161431e565b60208101610706828461432f565b61422e8161431e565b803561070681614346565b6000806040838503121561437057614370600080fd5b600061437c858561434f565b925050602061438d858286016142f2565b9150509250929050565b634e487b7160e01b600052604160045260246000fd5b601f19601f830116810181811067ffffffffffffffff821117156143d3576143d3614397565b6040525050565b60006143e560405190565b90506143f182826143ad565b919050565b600067ffffffffffffffff82111561441057614410614397565b601f19601f83011660200192915050565b82818337506000910152565b600061444061443b846143f6565b6143da565b90508281526020810184848401111561445b5761445b600080fd5b610c33848285614421565b600082601f83011261447a5761447a600080fd5b813561244f84826020860161442d565b600080604083850312156144a0576144a0600080fd5b60006144ac858561434f565b925050602083013567ffffffffffffffff8111156144cc576144cc600080fd5b61438d85828601614466565b6000602082840312156144ed576144ed600080fd5b600061244f848461434f565b600061388d83836142a9565b60200190565b6000614515825190565b8084526020840193508360208202850161452f8560200190565b60005b84811015614563578383038852815161454b84826144f9565b93505060208201602098909801979150600101614532565b50909695505050505050565b6020808252810161388d818461450b565b60008060006060848603121561459857614598600080fd5b60006145a4868661434f565b93505060206145b58682870161434f565b92505060406145c6868287016142f2565b9150509250925092565b6000602082840312156145e5576145e5600080fd5b813567ffffffffffffffff8111156145ff576145ff600080fd5b61244f84828501614466565b6000806040838503121561462157614621600080fd5b60006144ac85856142f2565b60008060006060848603121561464557614645600080fd5b6000614651868661434f565b93505060206145b5868287016142f2565b80614269565b602081016107068284614662565b8051600090604084019061468a858261432f565b50602083015184820360208601526146a282826142a9565b95945050505050565b600061388d8383614676565b60006146c1825190565b808452602084019350836020820285016146db8560200190565b60005b8481101561456357838303885281516146f784826146ab565b935050602082016020989098019791506001016146de565b6020808252810161388d81846146b7565b80151561422e565b803561070681614720565b6000806040838503121561474957614749600080fd5b6000614755858561434f565b925050602061438d85828601614728565b60008060006060848603121561477e5761477e600080fd5b600061478a868661434f565b935050602061479b868287016142f2565b925050604084013567ffffffffffffffff8111156147bb576147bb600080fd5b6145c686828701614466565b60006147d1825190565b808452602084019350836020820285016147eb8560200190565b60005b84811015614563578383038852815161480784826146ab565b935050602082016020989098019791506001016147ee565b6020808252810161388d81846147c7565b6000806000806080858703121561484957614849600080fd5b6000614855878761434f565b94505060206148668782880161434f565b9350506040614877878288016142f2565b925050606085013567ffffffffffffffff81111561489757614897600080fd5b6148a387828801614466565b91505092959194509250565b600080604083850312156148c5576148c5600080fd5b60006148d1858561434f565b925050602061438d8582860161434f565b60006148ec825190565b808452602084019350836020820285016149068560200190565b60005b84811015614563578383038852815161492284826146ab565b93505060208201602098909801979150600101614909565b6020808252810161388d81846148e2565b634e487b7160e01b600052602260045260246000fd5b60028104600182168061497557607f821691505b602082108114156149885761498861494b565b50919050565b60218152602081017f4552433732313a20617070726f76616c20746f2063757272656e74206f776e6581527f7200000000000000000000000000000000000000000000000000000000000000602082015290505b60400190565b602080825281016107068161498e565b603d8152602081017f4552433732313a20617070726f76652063616c6c6572206973206e6f7420746f81527f6b656e206f776e6572206f7220617070726f76656420666f7220616c6c000000602082015290506149e2565b60208082528101610706816149f8565b6000614a6a825190565b614a7881856020860161427d565b9290920192915050565b6107068183614a60565b60098152602081017f4e6f742041646d696e000000000000000000000000000000000000000000000081529050614505565b6020808252810161070681614a8c565b60128152602081017f41646472657373206e6f742076616c696465000000000000000000000000000081529050614505565b6020808252810161070681614ace565b634e487b7160e01b600052602160045260246000fd5b634e487b7160e01b600052601160045260246000fd5b6000600019821415614b5057614b50614b26565b5060010190565b634e487b7160e01b600052603260045260246000fd5b602d8152602081017f4552433732313a2063616c6c6572206973206e6f7420746f6b656e206f776e6581527f72206f7220617070726f76656400000000000000000000000000000000000000602082015290506149e2565b6020808252810161070681614b6d565b601b8152602081017f54797065206465204d6174657269656c206e6f742076616c696465000000000081529050614505565b6020808252810161070681614bd5565b60188152602081017f776f726b666c6f775374617465206e6f742076616c696465000000000000000081529050614505565b6020808252810161070681614c17565b614c63818c614a60565b7f7b0000000000000000000000000000000000000000000000000000000000000081529050600101614cb4817f226964223a0000000000000000000000000000000000000000000000000000009052565b600501614cc1818b614a60565b7f2c22666f75726e697373657572223a220000000000000000000000000000000081529050601001614cf3818a614a60565b7f222c226e6f6d466f75726e697373657572223a2200000000000000000000000081529050601401614d258189614a60565b7f222c22636c69656e74223a22000000000000000000000000000000000000000081529050600c01614d578188614a60565b7f222c226e6f6d436c69656e74223a22000000000000000000000000000000000081529050600f01614d898187614a60565b7f222c227265666572656e63654d6174657269656c223a2200000000000000000081529050601701614dbb8186614a60565b7f222c226461746545787065646974696f6e223a0000000000000000000000000081529050601301614ded8185614a60565b7f2c2264617465526563657074696f6e223a00000000000000000000000000000081529050601101614e1f8184614a60565b7f2c22776f726b666c6f775374617465223a22000000000000000000000000000081529050601201614e518183614a60565b7f227d00000000000000000000000000000000000000000000000000000000000081526002019b9a5050505050505050505050565b614e908184614a60565b905061388d8183614a60565b60ff81169050600060ff821415614b5057614b50614b26565b614ebf8183614a60565b7f5d00000000000000000000000000000000000000000000000000000000000000815260010192915050565b60188152602081017f4552433732313a20696e76616c696420746f6b656e204944000000000000000081529050614505565b6020808252810161070681614eeb565b600082821015614f3f57614f3f614b26565b500390565b60008219821115614f5757614f57614b26565b500190565b634e487b7160e01b600052603160045260246000fd5b60298152602081017f4552433732313a2061646472657373207a65726f206973206e6f74206120766181527f6c6964206f776e65720000000000000000000000000000000000000000000000602082015290506149e2565b6020808252810161070681614f72565b60108152602081017f4f776e657220647520636f6e747261740000000000000000000000000000000081529050614505565b6020808252810161070681614fda565b60268152602081017f4f776e61626c653a206e6577206f776e657220697320746865207a65726f206181527f6464726573730000000000000000000000000000000000000000000000000000602082015290506149e2565b602080825281016107068161501c565b6060808252810161509581866142a9565b90506150a4602083018561432f565b81810360408301526146a281846142a9565b604080825281016150c781856142a9565b905061388d602083018461432f565b604080825281016150e781856142a9565b9050818103602083015261244f81846142a9565b60258152602081017f4552433732313a207472616e736665722066726f6d20696e636f72726563742081527f6f776e6572000000000000000000000000000000000000000000000000000000602082015290506149e2565b60208082528101610706816150fb565b60248152602081017f4552433732313a207472616e7366657220746f20746865207a65726f2061646481527f7265737300000000000000000000000000000000000000000000000000000000602082015290506149e2565b6020808252810161070681615163565b60208082527f4f776e61626c653a2063616c6c6572206973206e6f7420746865206f776e65729101908152614505565b60208082528101610706816151cb565b6060808252810161521c81866142a9565b90506150a46020830185614662565b602e8152602081017f45524337323155524953746f726167653a2055524920736574206f66206e6f6e81527f6578697374656e7420746f6b656e000000000000000000000000000000000000602082015290506149e2565b602080825281016107068161522b565b606080825281016152a481866142a9565b90506152b3602083018561432f565b61244f6040830184614662565b60198152602081017f4552433732313a20617070726f766520746f2063616c6c65720000000000000081529050614505565b60208082528101610706816152c0565b60328152602081017f4552433732313a207472616e7366657220746f206e6f6e20455243373231526581527f63656976657220696d706c656d656e7465720000000000000000000000000000602082015290506149e2565b6020808252810161070681615302565b6040808252810161537b81856142a9565b905061388d6020830184614662565b60148152602081017f5061757361626c653a206e6f742070617573656400000000000000000000000081529050614505565b602080825281016107068161538a565b60008160001904831182151516156153e6576153e6614b26565b500290565b6000816153fa576153fa614b26565b506000190190565b60208082527f537472696e67733a20686578206c656e67746820696e73756666696369656e749101908152614505565b6020808252810161070681615402565b60108152602081017f5061757361626c653a207061757365640000000000000000000000000000000081529050614505565b6020808252810161070681615442565b60808101615492828761432f565b61549f602083018661432f565b6154ac6040830185614662565b81810360608301526154be81846142a9565b9695505050505050565b80516107068161420a565b6000602082840312156154e8576154e8600080fd5b600061244f84846154c8565b60208082527f4552433732313a206d696e7420746f20746865207a65726f20616464726573739101908152614505565b60208082528101610706816154f4565b601c8152602081017f4552433732313a20746f6b656e20616c7265616479206d696e7465640000000081529050614505565b602080825281016107068161553456fe676574466f75726e697373657572427941646472657373205f666f75726e6973736575722e696420257367657452616e6741646d696e427941646472657373205f61646d696e2e696420257367657452616e67436c69656e74427941646472657373205f636c69656e742e696420257367657452616e67466f75726e6973736575724279416464726573732072616e6720257367657452616e67466f75726e697373657572427941646472657373205f666f75726e6973736575722e696420257365787065646974696f6e206164647265737320257320747970654d6174657269656c202573746f6b656e69736174696f6e20747970654d6174657269656c202573207265666572656e63654d6174657269656c20257367657453697a654279436c69656e7420636f6d6d616e64652e636c69656e74202573a2646970667358221220cf51632fab8c1e0692daf85f45f87a97d77c7312a1117775ce0f19f81bf3bc2164736f6c634300080c0033",
  "linkReferences": {},
  "deployedLinkReferences": {}
}