{
  "_format": "hh-sol-artifact-1",
  "contractName": "Demonstrateur",
  "sourceName": "contracts/Demonstrateur.sol",
  "abi": [
    {
      "inputs": [
        {
          "internalType": "string",
          "name": "definitiveName",
          "type": "string"
        },
        {
          "internalType": "string",
          "name": "definitiveSymbol",
          "type": "string"
        },
        {
          "internalType": "string",
          "name": "definitiveBaseURI",
          "type": "string"
        }
      ],
      "stateMutability": "nonpayable",
      "type": "constructor"
    },
    {
      "anonymous": false,
      "inputs": [
        {
          "indexed": true,
          "internalType": "address",
          "name": "owner",
          "type": "address"
        },
        {
          "indexed": true,
          "internalType": "address",
          "name": "approved",
          "type": "address"
        },
        {
          "indexed": true,
          "internalType": "uint256",
          "name": "tokenId",
          "type": "uint256"
        }
      ],
      "name": "Approval",
      "type": "event"
    },
    {
      "anonymous": false,
      "inputs": [
        {
          "indexed": true,
          "internalType": "address",
          "name": "owner",
          "type": "address"
        },
        {
          "indexed": true,
          "internalType": "address",
          "name": "operator",
          "type": "address"
        },
        {
          "indexed": false,
          "internalType": "bool",
          "name": "approved",
          "type": "bool"
        }
      ],
      "name": "ApprovalForAll",
      "type": "event"
    },
    {
      "anonymous": false,
      "inputs": [
        {
          "indexed": true,
          "internalType": "address",
          "name": "from",
          "type": "address"
        },
        {
          "indexed": true,
          "internalType": "address",
          "name": "to",
          "type": "address"
        }
      ],
      "name": "EventReception",
      "type": "event"
    },
    {
      "anonymous": false,
      "inputs": [
        {
          "indexed": true,
          "internalType": "address",
          "name": "previousOwner",
          "type": "address"
        },
        {
          "indexed": true,
          "internalType": "address",
          "name": "newOwner",
          "type": "address"
        }
      ],
      "name": "OwnershipTransferred",
      "type": "event"
    },
    {
      "anonymous": false,
      "inputs": [
        {
          "indexed": false,
          "internalType": "address",
          "name": "account",
          "type": "address"
        }
      ],
      "name": "Paused",
      "type": "event"
    },
    {
      "anonymous": false,
      "inputs": [
        {
          "indexed": true,
          "internalType": "address",
          "name": "from",
          "type": "address"
        },
        {
          "indexed": true,
          "internalType": "address",
          "name": "to",
          "type": "address"
        },
        {
          "indexed": true,
          "internalType": "uint256",
          "name": "tokenId",
          "type": "uint256"
        }
      ],
      "name": "Transfer",
      "type": "event"
    },
    {
      "anonymous": false,
      "inputs": [
        {
          "indexed": false,
          "internalType": "address",
          "name": "account",
          "type": "address"
        }
      ],
      "name": "Unpaused",
      "type": "event"
    },
    {
      "inputs": [],
      "name": "_uriQuantum",
      "outputs": [
        {
          "internalType": "string",
          "name": "",
          "type": "string"
        }
      ],
      "stateMutability": "view",
      "type": "function"
    },
    {
      "inputs": [],
      "name": "_uriS3200",
      "outputs": [
        {
          "internalType": "string",
          "name": "",
          "type": "string"
        }
      ],
      "stateMutability": "view",
      "type": "function"
    },
    {
      "inputs": [
        {
          "internalType": "address",
          "name": "id",
          "type": "address"
        },
        {
          "internalType": "string",
          "name": "nom",
          "type": "string"
        }
      ],
      "name": "ajouterAdmin",
      "outputs": [],
      "stateMutability": "nonpayable",
      "type": "function"
    },
    {
      "inputs": [
        {
          "internalType": "address",
          "name": "id",
          "type": "address"
        },
        {
          "internalType": "string",
          "name": "nom",
          "type": "string"
        }
      ],
      "name": "ajouterClient",
      "outputs": [],
      "stateMutability": "nonpayable",
      "type": "function"
    },
    {
      "inputs": [
        {
          "internalType": "address",
          "name": "id",
          "type": "address"
        },
        {
          "internalType": "string",
          "name": "nom",
          "type": "string"
        }
      ],
      "name": "ajouterFournisseur",
      "outputs": [],
      "stateMutability": "nonpayable",
      "type": "function"
    },
    {
      "inputs": [
        {
          "internalType": "address",
          "name": "to",
          "type": "address"
        },
        {
          "internalType": "uint256",
          "name": "tokenId",
          "type": "uint256"
        }
      ],
      "name": "approve",
      "outputs": [],
      "stateMutability": "nonpayable",
      "type": "function"
    },
    {
      "inputs": [
        {
          "internalType": "address",
          "name": "owner",
          "type": "address"
        }
      ],
      "name": "balanceOf",
      "outputs": [
        {
          "internalType": "uint256",
          "name": "",
          "type": "uint256"
        }
      ],
      "stateMutability": "view",
      "type": "function"
    },
    {
      "inputs": [
        {
          "internalType": "address",
          "name": "client",
          "type": "address"
        },
        {
          "internalType": "uint256",
          "name": "itemId",
          "type": "uint256"
        }
      ],
      "name": "expedition",
      "outputs": [],
      "stateMutability": "nonpayable",
      "type": "function"
    },
    {
      "inputs": [
        {
          "internalType": "uint256",
          "name": "tokenId",
          "type": "uint256"
        }
      ],
      "name": "getApproved",
      "outputs": [
        {
          "internalType": "address",
          "name": "",
          "type": "address"
        }
      ],
      "stateMutability": "view",
      "type": "function"
    },
    {
      "inputs": [
        {
          "internalType": "address",
          "name": "client",
          "type": "address"
        }
      ],
      "name": "getIdByClient",
      "outputs": [
        {
          "internalType": "string[]",
          "name": "",
          "type": "string[]"
        }
      ],
      "stateMutability": "view",
      "type": "function"
    },
    {
      "inputs": [
        {
          "internalType": "address",
          "name": "fournisseur",
          "type": "address"
        }
      ],
      "name": "getIdByFournisseur",
      "outputs": [
        {
          "internalType": "string[]",
          "name": "",
          "type": "string[]"
        }
      ],
      "stateMutability": "view",
      "type": "function"
    },
    {
      "inputs": [],
      "name": "getJsonCommandes",
      "outputs": [
        {
          "internalType": "string",
          "name": "",
          "type": "string"
        }
      ],
      "stateMutability": "view",
      "type": "function"
    },
    {
      "inputs": [],
      "name": "getListeAdmins",
      "outputs": [
        {
          "components": [
            {
              "internalType": "address",
              "name": "id",
              "type": "address"
            },
            {
              "internalType": "string",
              "name": "nom",
              "type": "string"
            }
          ],
          "internalType": "struct Role.Admin[]",
          "name": "",
          "type": "tuple[]"
        }
      ],
      "stateMutability": "view",
      "type": "function"
    },
    {
      "inputs": [],
      "name": "getListeClients",
      "outputs": [
        {
          "components": [
            {
              "internalType": "address",
              "name": "id",
              "type": "address"
            },
            {
              "internalType": "string",
              "name": "nom",
              "type": "string"
            }
          ],
          "internalType": "struct Role.Client[]",
          "name": "",
          "type": "tuple[]"
        }
      ],
      "stateMutability": "view",
      "type": "function"
    },
    {
      "inputs": [],
      "name": "getListeFournisseurs",
      "outputs": [
        {
          "components": [
            {
              "internalType": "address",
              "name": "id",
              "type": "address"
            },
            {
              "internalType": "string",
              "name": "nom",
              "type": "string"
            }
          ],
          "internalType": "struct Role.Fournisseur[]",
          "name": "",
          "type": "tuple[]"
        }
      ],
      "stateMutability": "view",
      "type": "function"
    },
    {
      "inputs": [
        {
          "internalType": "address",
          "name": "id",
          "type": "address"
        }
      ],
      "name": "getNomAdminByAddress",
      "outputs": [
        {
          "internalType": "string",
          "name": "",
          "type": "string"
        }
      ],
      "stateMutability": "view",
      "type": "function"
    },
    {
      "inputs": [
        {
          "internalType": "address",
          "name": "id",
          "type": "address"
        }
      ],
      "name": "getNomClientByAddress",
      "outputs": [
        {
          "internalType": "string",
          "name": "",
          "type": "string"
        }
      ],
      "stateMutability": "view",
      "type": "function"
    },
    {
      "inputs": [
        {
          "internalType": "address",
          "name": "id",
          "type": "address"
        }
      ],
      "name": "getNomFournisseurByAddress",
      "outputs": [
        {
          "internalType": "string",
          "name": "",
          "type": "string"
        }
      ],
      "stateMutability": "view",
      "type": "function"
    },
    {
      "inputs": [
        {
          "internalType": "address",
          "name": "id",
          "type": "address"
        }
      ],
      "name": "getRoleByAddress",
      "outputs": [
        {
          "internalType": "string",
          "name": "",
          "type": "string"
        }
      ],
      "stateMutability": "view",
      "type": "function"
    },
    {
      "inputs": [],
      "name": "getUriQuantum",
      "outputs": [
        {
          "internalType": "string",
          "name": "",
          "type": "string"
        }
      ],
      "stateMutability": "view",
      "type": "function"
    },
    {
      "inputs": [],
      "name": "getUriS3200",
      "outputs": [
        {
          "internalType": "string",
          "name": "",
          "type": "string"
        }
      ],
      "stateMutability": "view",
      "type": "function"
    },
    {
      "inputs": [
        {
          "internalType": "address",
          "name": "owner",
          "type": "address"
        },
        {
          "internalType": "address",
          "name": "operator",
          "type": "address"
        }
      ],
      "name": "isApprovedForAll",
      "outputs": [
        {
          "internalType": "bool",
          "name": "",
          "type": "bool"
        }
      ],
      "stateMutability": "view",
      "type": "function"
    },
    {
      "inputs": [],
      "name": "name",
      "outputs": [
        {
          "internalType": "string",
          "name": "",
          "type": "string"
        }
      ],
      "stateMutability": "view",
      "type": "function"
    },
    {
      "inputs": [],
      "name": "owner",
      "outputs": [
        {
          "internalType": "address",
          "name": "",
          "type": "address"
        }
      ],
      "stateMutability": "view",
      "type": "function"
    },
    {
      "inputs": [
        {
          "internalType": "uint256",
          "name": "tokenId",
          "type": "uint256"
        }
      ],
      "name": "ownerOf",
      "outputs": [
        {
          "internalType": "address",
          "name": "",
          "type": "address"
        }
      ],
      "stateMutability": "view",
      "type": "function"
    },
    {
      "inputs": [],
      "name": "pause",
      "outputs": [],
      "stateMutability": "nonpayable",
      "type": "function"
    },
    {
      "inputs": [],
      "name": "paused",
      "outputs": [
        {
          "internalType": "bool",
          "name": "",
          "type": "bool"
        }
      ],
      "stateMutability": "view",
      "type": "function"
    },
    {
      "inputs": [
        {
          "internalType": "uint256",
          "name": "itemId",
          "type": "uint256"
        },
        {
          "internalType": "uint256",
          "name": "workflowState",
          "type": "uint256"
        }
      ],
      "name": "reception",
      "outputs": [],
      "stateMutability": "nonpayable",
      "type": "function"
    },
    {
      "inputs": [],
      "name": "renounceOwnership",
      "outputs": [],
      "stateMutability": "nonpayable",
      "type": "function"
    },
    {
      "inputs": [
        {
          "internalType": "address",
          "name": "from",
          "type": "address"
        },
        {
          "internalType": "address",
          "name": "to",
          "type": "address"
        },
        {
          "internalType": "uint256",
          "name": "tokenId",
          "type": "uint256"
        }
      ],
      "name": "safeTransferFrom",
      "outputs": [],
      "stateMutability": "nonpayable",
      "type": "function"
    },
    {
      "inputs": [
        {
          "internalType": "address",
          "name": "from",
          "type": "address"
        },
        {
          "internalType": "address",
          "name": "to",
          "type": "address"
        },
        {
          "internalType": "uint256",
          "name": "tokenId",
          "type": "uint256"
        },
        {
          "internalType": "bytes",
          "name": "data",
          "type": "bytes"
        }
      ],
      "name": "safeTransferFrom",
      "outputs": [],
      "stateMutability": "nonpayable",
      "type": "function"
    },
    {
      "inputs": [
        {
          "internalType": "address",
          "name": "operator",
          "type": "address"
        },
        {
          "internalType": "bool",
          "name": "approved",
          "type": "bool"
        }
      ],
      "name": "setApprovalForAll",
      "outputs": [],
      "stateMutability": "nonpayable",
      "type": "function"
    },
    {
      "inputs": [
        {
          "internalType": "string",
          "name": "uriQuantum",
          "type": "string"
        }
      ],
      "name": "setUriQuantum",
      "outputs": [],
      "stateMutability": "nonpayable",
      "type": "function"
    },
    {
      "inputs": [
        {
          "internalType": "string",
          "name": "uriS3200",
          "type": "string"
        }
      ],
      "name": "setUriS3200",
      "outputs": [],
      "stateMutability": "nonpayable",
      "type": "function"
    },
    {
      "inputs": [
        {
          "internalType": "bytes4",
          "name": "interfaceId",
          "type": "bytes4"
        }
      ],
      "name": "supportsInterface",
      "outputs": [
        {
          "internalType": "bool",
          "name": "",
          "type": "bool"
        }
      ],
      "stateMutability": "view",
      "type": "function"
    },
    {
      "inputs": [
        {
          "internalType": "address",
          "name": "id",
          "type": "address"
        }
      ],
      "name": "supprimerAdmin",
      "outputs": [],
      "stateMutability": "nonpayable",
      "type": "function"
    },
    {
      "inputs": [
        {
          "internalType": "address",
          "name": "id",
          "type": "address"
        }
      ],
      "name": "supprimerClient",
      "outputs": [],
      "stateMutability": "nonpayable",
      "type": "function"
    },
    {
      "inputs": [
        {
          "internalType": "address",
          "name": "id",
          "type": "address"
        }
      ],
      "name": "supprimerFournisseur",
      "outputs": [],
      "stateMutability": "nonpayable",
      "type": "function"
    },
    {
      "inputs": [],
      "name": "symbol",
      "outputs": [
        {
          "internalType": "string",
          "name": "",
          "type": "string"
        }
      ],
      "stateMutability": "view",
      "type": "function"
    },
    {
      "inputs": [
        {
          "internalType": "uint256",
          "name": "tokenId",
          "type": "uint256"
        }
      ],
      "name": "tokenURI",
      "outputs": [
        {
          "internalType": "string",
          "name": "",
          "type": "string"
        }
      ],
      "stateMutability": "view",
      "type": "function"
    },
    {
      "inputs": [
        {
          "internalType": "uint256",
          "name": "typeMateriel",
          "type": "uint256"
        },
        {
          "internalType": "string",
          "name": "referenceMateriel",
          "type": "string"
        }
      ],
      "name": "tokenisation",
      "outputs": [],
      "stateMutability": "nonpayable",
      "type": "function"
    },
    {
      "inputs": [
        {
          "internalType": "address",
          "name": "from",
          "type": "address"
        },
        {
          "internalType": "address",
          "name": "to",
          "type": "address"
        },
        {
          "internalType": "uint256",
          "name": "tokenId",
          "type": "uint256"
        }
      ],
      "name": "transferFrom",
      "outputs": [],
      "stateMutability": "nonpayable",
      "type": "function"
    },
    {
      "inputs": [
        {
          "internalType": "address",
          "name": "newOwner",
          "type": "address"
        }
      ],
      "name": "transferOwnership",
      "outputs": [],
      "stateMutability": "nonpayable",
      "type": "function"
    },
    {
      "inputs": [],
      "name": "unpause",
      "outputs": [],
      "stateMutability": "nonpayable",
      "type": "function"
    }
  ],
  "bytecode": "0x60806040523480156200001157600080fd5b506040516200656e3803806200656e833981016040819052620000349162000814565b8251839083906200004d90600090602085019062000631565b5080516200006390600190602084019062000631565b50506007805460ff19169055506200007b33620000d4565b80516200009090600d90602084019062000631565b506200009c336200012e565b620000cb336040518060400160405280600581526020016427bbb732b960d91b8152506200015a60201b60201c565b50505062000b21565b600780546001600160a01b03838116610100818102610100600160a81b031985161790945560405193909204169182907f8be0079c531659141344cd1fd0a4f28419497f9722a3daafe3b4186f6b6457e090600090a35050565b6200013862000306565b600880546001600160a01b0319166001600160a01b0392909216919091179055565b60085433906001600160a01b0316811480620001ba5750604080516000815260208101918290525190206200018f826200033b565b604051602001620001a19190620008e8565b6040516020818303038152906040528051906020012014155b620001e25760405162461bcd60e51b8152600401620001d99062000914565b60405180910390fd5b6200022f6040518060400160405280601981526020017f616a6f7574657241646d696e206964202573206e6f6d2025730000000000000081525084846200051e60201b62002b911760201c565b6001600160a01b038316620002585760405162461bcd60e51b8152600401620001d9906200094e565b604080518082019091526001600160a01b03848116825260208083018581526009805460018101825560009190915284517f6e1540171b6c0c960b71a7020d9f60077f6af931a8bbf590da0223dacf75c7af600290920291820180546001600160a01b0319169190951617845590518051620002fe937f6e1540171b6c0c960b71a7020d9f60077f6af931a8bbf590da0223dacf75c7b090930192919091019062000631565b505050505050565b6007546001600160a01b03610100909104163314620003395760405162461bcd60e51b8152600401620001d99062000991565b565b60408051602081019091526000808252606091905b600954811015620004cb57600060098281548110620003735762000373620009a3565b60009182526020918290206040805180820190915260029092020180546001600160a01b031682526001810180549293919291840191620003b490620009cf565b80601f0160208091040260200160405190810160405280929190818152602001828054620003e290620009cf565b8015620004335780601f10620004075761010080835404028352916020019162000433565b820191906000526020600020905b8154815290600101906020018083116200041557829003601f168201915b5050505050815250509050846001600160a01b031681600001516001600160a01b03161415620004b557620004ad6040518060400160405280601e81526020017f67657441646d696e427941646472657373205f61646d696e2e6964202573000081525082600001516200057260201b62002bf11760201c565b806020015192505b5080620004c28162000a16565b91505062000350565b50620005186040518060400160405280601b81526020017f6765744e6f6d41646d696e427941646472657373206e6f6d202573000000000081525082620005c360201b62002c4f1760201c565b92915050565b6200056d838383604051602401620005399392919062000a8c565b60408051601f198184030181529190526020810180516001600160e01b0390811663e0e9ad4f60e01b179091526200061016565b505050565b620005bf82826040516024016200058b92919062000acd565b60408051601f198184030181529190526020810180516001600160e01b0390811663319af33360e01b179091526200061016565b5050565b620005bf8282604051602401620005dc92919062000af8565b60408051601f198184030181529190526020810180516001600160e01b03908116634b5c427760e01b179091526200061016565b80516a636f6e736f6c652e6c6f67602083016000808483855afa5050505050565b8280546200063f90620009cf565b90600052602060002090601f016020900481019282620006635760008555620006ae565b82601f106200067e57805160ff1916838001178555620006ae565b82800160010185558215620006ae579182015b82811115620006ae57825182559160200191906001019062000691565b50620006bc929150620006c0565b5090565b5b80821115620006bc5760008155600101620006c1565b634e487b7160e01b600052604160045260246000fd5b601f19601f83011681016001600160401b0381118282101715620007155762000715620006d7565b6040525050565b60006200072860405190565b9050620007368282620006ed565b919050565b60006001600160401b03821115620007575762000757620006d7565b601f19601f83011660200192915050565b60005b83811015620007855781810151838201526020016200076b565b8381111562000795576000848401525b50505050565b6000620007b2620007ac846200073b565b6200071c565b905082815260208101848484011115620007cf57620007cf600080fd5b620007dc84828562000768565b509392505050565b600082601f830112620007fa57620007fa600080fd5b81516200080c8482602086016200079b565b949350505050565b6000806000606084860312156200082e576200082e600080fd5b83516001600160401b03811115620008495762000849600080fd5b6200085786828701620007e4565b602086015190945090506001600160401b038111156200087a576200087a600080fd5b6200088886828701620007e4565b604086015190935090506001600160401b03811115620008ab57620008ab600080fd5b620008b986828701620007e4565b9150509250925092565b6000620008ce825190565b620008de81856020860162000768565b9290920192915050565b620005188183620008c3565b6009815260208101682737ba1020b236b4b760b91b815290505b60200190565b602080825281016200051881620008f4565b60128152602081017141646472657373206e6f742076616c69646560701b815290506200090e565b60208082528101620005188162000926565b60208082527f4f776e61626c653a2063616c6c6572206973206e6f7420746865206f776e657291019081526200090e565b60208082528101620005188162000960565b634e487b7160e01b600052603260045260246000fd5b634e487b7160e01b600052602260045260246000fd5b600281046001821680620009e457607f821691505b60208210811415620009fa57620009fa620009b9565b50919050565b634e487b7160e01b600052601160045260246000fd5b600060001982141562000a2d5762000a2d62000a00565b5060010190565b600062000a3f825190565b80845260208401935062000a5881856020860162000768565b601f01601f19169290920192915050565b60006001600160a01b03821662000518565b62000a868162000a69565b82525050565b6060808252810162000a9f818662000a34565b905062000ab0602083018562000a7b565b818103604083015262000ac4818462000a34565b95945050505050565b6040808252810162000ae0818562000a34565b905062000af1602083018462000a7b565b9392505050565b6040808252810162000b0b818562000a34565b905081810360208301526200080c818462000a34565b615a3d8062000b316000396000f3fe608060405234801561001057600080fd5b50600436106102f45760003560e01c8063715018a611610191578063b3a46b93116100e3578063ddf387f411610097578063ebc278d811610071578063ebc278d81461060a578063f2fde38b1461061f578063f53790f11461063257600080fd5b8063ddf387f4146105a8578063e2339ba3146105bb578063e985e9c5146105ce57600080fd5b8063b9ce1395116100c8578063b9ce13951461057a578063c87b56dd14610582578063ddd273901461059557600080fd5b8063b3a46b9314610554578063b88d4fde1461056757600080fd5b806389e231ae11610145578063a22cb4651161011f578063a22cb46514610519578063a688f0351461052c578063b30021cd1461054157600080fd5b806389e231ae146104e85780638da5cb5b146104fb57806395d89b411461051157600080fd5b80637e5db4c7116101765780637e5db4c7146104b857806383cf093c146104cd5780638456cb59146104e057600080fd5b8063715018a61461049d5780637bff77d4146104a557600080fd5b80633f2260b81161024a5780634ab143bb116101fe5780636352211e116101d85780636352211e1461045757806364d2387d1461046a57806370a082311461047d57600080fd5b80634ab143bb146104315780634fb75e4f146104445780635c975abb1461044c57600080fd5b806342842e0e1161022f57806342842e0e1461040e578063457d5338146104215780634835cae71461042957600080fd5b80633f2260b8146103f35780633f4ba83a1461040657600080fd5b806316f1df23116102ac57806323b872dd1161028657806323b872dd146103c55780632a40807c146103d857806337bd6c5e146103eb57600080fd5b806316f1df231461037f578063213f61b3146103925780632163b101146103b257600080fd5b8063081812fc116102dd578063081812fc14610337578063095ea7b3146103575780630dc05e591461036c57600080fd5b806301ffc9a7146102f957806306fdde0314610322575b600080fd5b61030c610307366004614520565b610645565b604051610319919061454b565b60405180910390f35b61032a61072a565b60405161031991906145b7565b61034a6103453660046145d9565b6107bc565b6040516103199190614614565b61036a610365366004614636565b6107e3565b005b61036a61037a366004614673565b610890565b61036a61038d366004614788565b6109d0565b6103a56103a03660046147d6565b610b59565b604051610319919061486d565b61032a6103c03660046147d6565b610d80565b61036a6103d336600461487e565b610f33565b61036a6103e63660046148ce565b610f64565b61032a610f83565b61036a610401366004614909565b611011565b61036a6111fb565b61036a61041c36600461487e565b61120d565b61032a611228565b61032a611237565b61032a61043f3660046147d6565b611246565b61032a6113f9565b60075460ff1661030c565b61034a6104653660046145d9565b6116f9565b61036a6104783660046147d6565b61172e565b61049061048b3660046147d6565b611927565b6040516103199190614931565b61036a61196b565b61032a6104b33660046147d6565b61197d565b6104c0611b7b565b60405161031991906149d8565b6103a56104db3660046147d6565b611c81565b61036a611ea0565b61036a6104f6366004614788565b611eb0565b60075461010090046001600160a01b031661034a565b61032a612031565b61036a6105273660046149fc565b612040565b61053461204b565b6040516103199190614a87565b61036a61054f3660046147d6565b612148565b61036a610562366004614636565b612335565b61036a610575366004614a98565b612423565b61032a61245b565b61032a6105903660046145d9565b612468565b61036a6105a33660046147d6565b61256c565b61036a6105b63660046148ce565b61272b565b61032a6105c93660046147d6565b612746565b61030c6105dc366004614b17565b6001600160a01b03918216600090815260056020908152604080832093909416825291909152205460ff1690565b6106126128d9565b6040516103199190614ba2565b61036a61062d3660046147d6565b6129d6565b61036a610640366004614788565b612a10565b60007fffffffff0000000000000000000000000000000000000000000000000000000082167f80ac58cd0000000000000000000000000000000000000000000000000000000014806106d857507fffffffff0000000000000000000000000000000000000000000000000000000082167f5b5e139f00000000000000000000000000000000000000000000000000000000145b8061072457507f01ffc9a7000000000000000000000000000000000000000000000000000000007fffffffff000000000000000000000000000000000000000000000000000000008316145b92915050565b60606000805461073990614bc9565b80601f016020809104026020016040519081016040528092919081815260200182805461076590614bc9565b80156107b25780601f10610787576101008083540402835291602001916107b2565b820191906000526020600020905b81548152906001019060200180831161079557829003601f168201915b5050505050905090565b60006107c782612cad565b506000908152600460205260409020546001600160a01b031690565b60006107ee826116f9565b9050806001600160a01b0316836001600160a01b0316141561082b5760405162461bcd60e51b815260040161082290614c50565b60405180910390fd5b336001600160a01b038216148061086557506001600160a01b038116600090815260056020908152604080832033845290915290205460ff165b6108815760405162461bcd60e51b815260040161082290614cb8565b61088b8383612ce1565b505050565b6108b3604051806060016040528060248152602001615914602491398383612d4f565b6000828152601060205260409020600101546001600160a01b031633146108ec5760405162461bcd60e51b815260040161082290614cfa565b8015806108f95750806001145b6109155760405162461bcd60e51b815260040161082290614d3c565b8061097d57600082815260106020526040902060058101805460ff191660021790558054600190910154610956916001600160a01b03908116911684610f33565b600082815260106020526040902054610978906001600160a01b0316836107e3565b6109b8565b600082815260106020526040902060058101805460ff19166003179055600181015490546109b8916001600160a01b03908116911684610f33565b50600090815260106020526040902042600490910155565b60085433906001600160a01b0316811480610a2b575060408051600081526020810191829052519020610a0282611246565b604051602001610a129190614d84565b6040516020818303038152906040528051906020012014155b610a475760405162461bcd60e51b815260040161082290614dc0565b610a876040518060400160405280601981526020017f616a6f7574657241646d696e206964202573206e6f6d202573000000000000008152508484612b91565b6001600160a01b038316610aad5760405162461bcd60e51b815260040161082290614e02565b604080518082019091526001600160a01b03848116825260208083018581526009805460018101825560009190915284517f6e1540171b6c0c960b71a7020d9f60077f6af931a8bbf590da0223dacf75c7af600290920291820180546001600160a01b0319169190951617845590518051610b51937f6e1540171b6c0c960b71a7020d9f60077f6af931a8bbf590da0223dacf75c7b090930192919091019061439c565b505050505050565b6060610b9a6040518060400160405280601881526020017f67657449644279436c69656e742061646472657373202573000000000000000081525083612bf1565b600080610ba684612daf565b67ffffffffffffffff811115610bbe57610bbe614695565b604051908082528060200260200182016040528015610bf157816020015b6060815260200190600190039081610bdc5790505b50905060005b600c54811015610d78576000818152601060209081526040808320815160c08101835281546001600160a01b039081168252600183015416938101939093526002810180549192840191610c4a90614bc9565b80601f0160208091040260200160405190810160405280929190818152602001828054610c7690614bc9565b8015610cc35780601f10610c9857610100808354040283529160200191610cc3565b820191906000526020600020905b815481529060010190602001808311610ca657829003601f168201915b5050509183525050600382810154602083015260048301546040830152600583015460609092019160ff1690811115610cfe57610cfe614d4c565b6003811115610d0f57610d0f614d4c565b815250509050856001600160a01b031681602001516001600160a01b03161415610d6557610d3c82612f77565b8385610d4781614e28565b965081518110610d5957610d59614e43565b60200260200101819052505b5080610d7081614e28565b915050610bf7565b509392505050565b60408051602081019091526000808252606091905b600a54811015610ef3576000600a8281548110610db457610db4614e43565b60009182526020918290206040805180820190915260029092020180546001600160a01b031682526001810180549293919291840191610df390614bc9565b80601f0160208091040260200160405190810160405280929190818152602001828054610e1f90614bc9565b8015610e6c5780601f10610e4157610100808354040283529160200191610e6c565b820191906000526020600020905b815481529060010190602001808311610e4f57829003601f168201915b5050505050815250509050846001600160a01b031681600001516001600160a01b03161415610ee057610ed86040518060400160405280602081526020017f676574436c69656e74427941646472657373205f636c69656e742e69642025738152508260000151612bf1565b806020015192505b5080610eeb81614e28565b915050610d95565b506107246040518060400160405280601981526020017f676574436c69656e74427941646472657373206e6f6d2025730000000000000081525082612c4f565b610f3d3382613019565b610f595760405162461bcd60e51b815260040161082290614eb1565b61088b838383613097565b610f6c6131cc565b8051610f7f90600f90602084019061439c565b5050565b600e8054610f9090614bc9565b80601f0160208091040260200160405190810160405280929190818152602001828054610fbc90614bc9565b80156110095780601f10610fde57610100808354040283529160200191611009565b820191906000526020600020905b815481529060010190602001808311610fec57829003601f168201915b505050505081565b6110346040518060600160405280603181526020016159b56031913983836131fc565b8115806110415750816001145b61105d5760405162461bcd60e51b815260040161082290614ef3565b6000611068600c5490565b9050611074338261325c565b826111125761110d81600e805461108a90614bc9565b80601f01602080910402602001604051908101604052809291908181526020018280546110b690614bc9565b80156111035780601f106110d857610100808354040283529160200191611103565b820191906000526020600020905b8154815290600101906020018083116110e657829003601f168201915b5050505050613276565b611123565b61112381600f805461108a90614bc9565b6040805160c08101825233815260006020808301828152838501878152606085018490526080850184905260a085018490528684526010835294909220835181546001600160a01b03199081166001600160a01b03928316178355935160018301805490951691161790925592518051929391926111a7926002850192019061439c565b50606082015181600301556080820151816004015560a08201518160050160006101000a81548160ff021916908360038111156111e6576111e6614d4c565b021790555050600c8054600101905550505050565b6112036131cc565b61120b6132c9565b565b61088b83838360405180602001604052806000815250612423565b6060600e805461073990614bc9565b6060600f805461073990614bc9565b60408051602081019091526000808252606091905b6009548110156113b95760006009828154811061127a5761127a614e43565b60009182526020918290206040805180820190915260029092020180546001600160a01b0316825260018101805492939192918401916112b990614bc9565b80601f01602080910402602001604051908101604052809291908181526020018280546112e590614bc9565b80156113325780601f1061130757610100808354040283529160200191611332565b820191906000526020600020905b81548152906001019060200180831161131557829003601f168201915b5050505050815250509050846001600160a01b031681600001516001600160a01b031614156113a65761139e6040518060400160405280601e81526020017f67657441646d696e427941646472657373205f61646d696e2e696420257300008152508260000151612bf1565b806020015192505b50806113b181614e28565b91505061125b565b506107246040518060400160405280601b81526020017f6765744e6f6d41646d696e427941646472657373206e6f6d202573000000000081525082612c4f565b604080518082018252600181527f5b000000000000000000000000000000000000000000000000000000000000006020808301919091528251808201845260008082528451808401865281815285519384019095528083526060949192905b600c548160ff1610156116955760ff81166000908152601060209081526040808320815160c08101835281546001600160a01b0390811682526001830154169381019390935260028101805491928401916114b290614bc9565b80601f01602080910402602001604051908101604052809291908181526020018280546114de90614bc9565b801561152b5780601f106115005761010080835404028352916020019161152b565b820191906000526020600020905b81548152906001019060200180831161150e57829003601f168201915b5050509183525050600382810154602083015260048301546040830152600583015460609092019160ff169081111561156657611566614d4c565b600381111561157757611577614d4c565b81525050905061158a8160200151610d80565b93506115998160000151612746565b925060ff8216156115dd576040518060400160405280600181526020017f2c0000000000000000000000000000000000000000000000000000000000000081525094505b6000856115ec8460ff16612f77565b83516115f790613315565b866116058660200151613315565b8987604001516116188960600151612f77565b6116258a60800151612f77565b6116328b60a0015161332b565b60405160200161164b9a99989796959493929190614f03565b6040516020818303038152906040529050868160405160200161166f929190615130565b60405160208183030381529060405296505050808061168d90615146565b915050611458565b50836040516020016116a7919061515f565b60408051601f19818403018152828201909152601182527f4a736f6e436f6d6d616e64657320257320000000000000000000000000000000602083015294506116f09085612c4f565b50919392505050565b6000818152600260205260408120546001600160a01b0316806107245760405162461bcd60e51b8152600401610822906151c7565b60085433906001600160a01b031681148061178957506040805160008152602081019182905251902061176082611246565b6040516020016117709190614d84565b6040516020818303038152906040528051906020012014155b6117a55760405162461bcd60e51b815260040161082290614dc0565b6117e46040518060400160405280601b81526020017f7375707072696d6572466f75726e69737365757220696420257320000000000081525083612bf1565b6001600160a01b03821661180a5760405162461bcd60e51b815260040161082290614e02565b600061181583613489565b90508061270f1461088b57805b600b54611831906001906151d7565b8110156118db57600b6118458260016151ee565b8154811061185557611855614e43565b9060005260206000209060020201600b828154811061187657611876614e43565b60009182526020909120825460029092020180546001600160a01b0319166001600160a01b0390921691909117815560018083018054918301916118b990614bc9565b6118c4929190614420565b5090505080806118d390614e28565b915050611822565b50600b8054806118ed576118ed615206565b60008281526020812060026000199093019283020180546001600160a01b03191681559061191e600183018261449b565b50509055505050565b60006001600160a01b03821661194f5760405162461bcd60e51b815260040161082290615274565b506001600160a01b031660009081526003602052604090205490565b6119736131cc565b61120b60006135ed565b604080518082018252600681527f4e6f526f6c6500000000000000000000000000000000000000000000000000006020808301919091528251600081529081019283905251909120606091906119d284611246565b6040516020016119e29190614d84565b6040516020818303038152906040528051906020012014611a3857505060408051808201909152600581527f41646d696e0000000000000000000000000000000000000000000000000000006020820152919050565b60408051600081526020810191829052519020611a5484612746565b604051602001611a649190614d84565b6040516020818303038152906040528051906020012014611aba57505060408051808201909152600b81527f466f75726e6973736575720000000000000000000000000000000000000000006020820152919050565b60408051600081526020810191829052519020611ad684610d80565b604051602001611ae69190614d84565b6040516020818303038152906040528051906020012014611b3c57505060408051808201909152600681527f436c69656e7400000000000000000000000000000000000000000000000000006020820152919050565b6107246040518060400160405280601881526020017f676574526f6c6542794164647265737320726f6c65202573000000000000000081525082612c4f565b6060600b805480602002602001604051908101604052809291908181526020016000905b82821015611c78576000848152602090819020604080518082019091526002850290910180546001600160a01b031682526001810180549293919291840191611be790614bc9565b80601f0160208091040260200160405190810160405280929190818152602001828054611c1390614bc9565b8015611c605780601f10611c3557610100808354040283529160200191611c60565b820191906000526020600020905b815481529060010190602001808311611c4357829003601f168201915b50505050508152505081526020019060010190611b9f565b50505050905090565b6060611cc26040518060400160405280601d81526020017f67657449644279466f75726e697373657572206164647265737320257300000081525083612bf1565b600080611cce8461365e565b67ffffffffffffffff811115611ce657611ce6614695565b604051908082528060200260200182016040528015611d1957816020015b6060815260200190600190039081611d045790505b50905060005b600c54811015610d78576000818152601060209081526040808320815160c08101835281546001600160a01b039081168252600183015416938101939093526002810180549192840191611d7290614bc9565b80601f0160208091040260200160405190810160405280929190818152602001828054611d9e90614bc9565b8015611deb5780601f10611dc057610100808354040283529160200191611deb565b820191906000526020600020905b815481529060010190602001808311611dce57829003601f168201915b5050509183525050600382810154602083015260048301546040830152600583015460609092019160ff1690811115611e2657611e26614d4c565b6003811115611e3757611e37614d4c565b815250509050856001600160a01b031681600001516001600160a01b03161415611e8d57611e6482612f77565b8385611e6f81614e28565b965081518110611e8157611e81614e43565b60200260200101819052505b5080611e9881614e28565b915050611d1f565b611ea86131cc565b61120b613806565b60085433906001600160a01b0316811480611f0b575060408051600081526020810191829052519020611ee282611246565b604051602001611ef29190614d84565b6040516020818303038152906040528051906020012014155b611f275760405162461bcd60e51b815260040161082290614dc0565b611f676040518060400160405280601681526020017f726563657074696f6e206964202573206e6f6d202573000000000000000000008152508484612b91565b6001600160a01b038316611f8d5760405162461bcd60e51b815260040161082290614e02565b604080518082019091526001600160a01b0384811682526020808301858152600b805460018101825560009190915284517f0175b7a638427703f0dbe7bb9bbf987a2551717b34e79f33b5b1008d1fa01db9600290920291820180546001600160a01b0319169190951617845590518051610b51937f0175b7a638427703f0dbe7bb9bbf987a2551717b34e79f33b5b1008d1fa01dba90930192919091019061439c565b60606001805461073990614bc9565b610f7f338383613843565b6060600a805480602002602001604051908101604052809291908181526020016000905b82821015611c78576000848152602090819020604080518082019091526002850290910180546001600160a01b0316825260018101805492939192918401916120b790614bc9565b80601f01602080910402602001604051908101604052809291908181526020018280546120e390614bc9565b80156121305780601f1061210557610100808354040283529160200191612130565b820191906000526020600020905b81548152906001019060200180831161211357829003601f168201915b5050505050815250508152602001906001019061206f565b60085433906001600160a01b03168114806121a357506040805160008152602081019182905251902061217a82611246565b60405160200161218a9190614d84565b6040516020818303038152906040528051906020012014155b6121bf5760405162461bcd60e51b815260040161082290614dc0565b6121fe6040518060400160405280601581526020017f7375707072696d657241646d696e20696420257320000000000000000000000081525083612bf1565b6001600160a01b0382166122245760405162461bcd60e51b815260040161082290614e02565b6008546001600160a01b03838116911614156122525760405162461bcd60e51b8152600401610822906152b6565b600061225d836138e6565b90508061270f1461088b57805b600954612279906001906151d7565b81101561232357600961228d8260016151ee565b8154811061229d5761229d614e43565b9060005260206000209060020201600982815481106122be576122be614e43565b60009182526020909120825460029092020180546001600160a01b0319166001600160a01b03909216919091178155600180830180549183019161230190614bc9565b61230c929190614420565b50905050808061231b90614e28565b91505061226a565b5060098054806118ed576118ed615206565b6123756040518060400160405280601f81526020017f65787065646974696f6e2061646472657373202573206974656d4964202573008152508383613a67565b6001600160a01b03821661239b5760405162461bcd60e51b815260040161082290614e02565b6000818152601060205260409020546001600160a01b031633146123d15760405162461bcd60e51b8152600401610822906152f8565b6123db82826107e3565b6000818152601060205260409020426003820155600180820180546001600160a01b0319166001600160a01b0386161790556005909101805460ff1916828002179055505050565b61242d3383613019565b6124495760405162461bcd60e51b815260040161082290614eb1565b61245584848484613ac7565b50505050565b600f8054610f9090614bc9565b606061247382612cad565b6000828152600660205260408120805461248c90614bc9565b80601f01602080910402602001604051908101604052809291908181526020018280546124b890614bc9565b80156125055780601f106124da57610100808354040283529160200191612505565b820191906000526020600020905b8154815290600101906020018083116124e857829003601f168201915b505050505090506000612516613afa565b9050805160001415612529575092915050565b81511561255b578082604051602001612543929190615130565b60405160208183030381529060405292505050919050565b61256484613b09565b949350505050565b60085433906001600160a01b03168114806125c757506040805160008152602081019182905251902061259e82611246565b6040516020016125ae9190614d84565b6040516020818303038152906040528051906020012014155b6125e35760405162461bcd60e51b815260040161082290614dc0565b6126226040518060400160405280601681526020017f7375707072696d6572436c69656e74206964202573200000000000000000000081525083612bf1565b6001600160a01b0382166126485760405162461bcd60e51b815260040161082290614e02565b600061265383613b70565b90508061270f1461088b57805b600a5461266f906001906151d7565b81101561271957600a6126838260016151ee565b8154811061269357612693614e43565b9060005260206000209060020201600a82815481106126b4576126b4614e43565b60009182526020909120825460029092020180546001600160a01b0319166001600160a01b0390921691909117815560018083018054918301916126f790614bc9565b612702929190614420565b50905050808061271190614e28565b915050612660565b50600a8054806118ed576118ed615206565b6127336131cc565b8051610f7f90600e90602084019061439c565b60408051602081019091526000808252606091905b600b54811015612899576000600b828154811061277a5761277a614e43565b60009182526020918290206040805180820190915260029092020180546001600160a01b0316825260018101805492939192918401916127b990614bc9565b80601f01602080910402602001604051908101604052809291908181526020018280546127e590614bc9565b80156128325780601f1061280757610100808354040283529160200191612832565b820191906000526020600020905b81548152906001019060200180831161281557829003601f168201915b5050505050815250509050846001600160a01b031681600001516001600160a01b031614156128865761287e6040518060600160405280602a8152602001615883602a91398251612bf1565b806020015192505b508061289181614e28565b91505061275b565b506107246040518060400160405280601e81526020017f676574466f75726e697373657572427941646472657373206e6f6d202573000081525082612c4f565b60606009805480602002602001604051908101604052809291908181526020016000905b82821015611c78576000848152602090819020604080518082019091526002850290910180546001600160a01b03168252600181018054929391929184019161294590614bc9565b80601f016020809104026020016040519081016040528092919081815260200182805461297190614bc9565b80156129be5780601f10612993576101008083540402835291602001916129be565b820191906000526020600020905b8154815290600101906020018083116129a157829003601f168201915b505050505081525050815260200190600101906128fd565b6129de6131cc565b6001600160a01b038116612a045760405162461bcd60e51b815260040161082290615360565b612a0d816135ed565b50565b60085433906001600160a01b0316811480612a6b575060408051600081526020810191829052519020612a4282611246565b604051602001612a529190614d84565b6040516020818303038152906040528051906020012014155b612a875760405162461bcd60e51b815260040161082290614dc0565b612ac76040518060400160405280601681526020017f726563657074696f6e206964202573206e6f6d202573000000000000000000008152508484612b91565b6001600160a01b038316612aed5760405162461bcd60e51b815260040161082290614e02565b604080518082019091526001600160a01b0384811682526020808301858152600a805460018101825560009190915284517fc65a7bb8d6351c1cf70c95a316cc6a92839c986682d98bc35f958f4883f9d2a8600290920291820180546001600160a01b0319169190951617845590518051610b51937fc65a7bb8d6351c1cf70c95a316cc6a92839c986682d98bc35f958f4883f9d2a990930192919091019061439c565b61088b838383604051602401612ba993929190615370565b60408051601f198184030181529190526020810180516001600160e01b03167fe0e9ad4f00000000000000000000000000000000000000000000000000000000179052613cf1565b610f7f8282604051602401612c079291906153a2565b60408051601f198184030181529190526020810180516001600160e01b03167f319af33300000000000000000000000000000000000000000000000000000000179052613cf1565b610f7f8282604051602401612c659291906153c2565b60408051601f198184030181529190526020810180516001600160e01b03167f4b5c427700000000000000000000000000000000000000000000000000000000179052613cf1565b6000818152600260205260409020546001600160a01b0316612a0d5760405162461bcd60e51b8152600401610822906151c7565b600081815260046020526040902080546001600160a01b0319166001600160a01b0384169081179091558190612d16826116f9565b6001600160a01b03167f8c5be1e5ebec7d5bd14f71427d1e84f3dd0314c0f7b2291e5b200ac8c7c3b92560405160405180910390a45050565b61088b838383604051602401612d67939291906153e7565b60408051601f198184030181529190526020810180516001600160e01b03167fca47c4eb00000000000000000000000000000000000000000000000000000000179052613cf1565b600080805b600c54811015612f37576000818152601060209081526040808320815160c08101835281546001600160a01b039081168252600183015416938101939093526002810180549192840191612e0790614bc9565b80601f0160208091040260200160405190810160405280929190818152602001828054612e3390614bc9565b8015612e805780601f10612e5557610100808354040283529160200191612e80565b820191906000526020600020905b815481529060010190602001808311612e6357829003601f168201915b5050509183525050600382810154602083015260048301546040830152600583015460609092019160ff1690811115612ebb57612ebb614d4c565b6003811115612ecc57612ecc614d4c565b815250509050612ef86040518060600160405280602281526020016159e6602291398260200151612bf1565b846001600160a01b031681602001516001600160a01b03161415612f245782612f2081614e28565b9350505b5080612f2f81614e28565b915050612db4565b506107246040518060400160405280601c81526020017f67657453697a654279436c69656e74206974656d436f756e742025730000000081525082613d12565b60606000612f8483613d70565b600101905060008167ffffffffffffffff811115612fa457612fa4614695565b6040519080825280601f01601f191660200182016040528015612fce576020820181803683370190505b5090508181016020015b600019017f3031323334353637383961626364656600000000000000000000000000000000600a86061a8153600a850494508461301457610d78565b612fd8565b600080613025836116f9565b9050806001600160a01b0316846001600160a01b0316148061306c57506001600160a01b0380821660009081526005602090815260408083209388168352929052205460ff165b806125645750836001600160a01b0316613085846107bc565b6001600160a01b031614949350505050565b826001600160a01b03166130aa826116f9565b6001600160a01b0316146130d05760405162461bcd60e51b81526004016108229061546c565b6001600160a01b0382166130f65760405162461bcd60e51b8152600401610822906154d4565b6131038383836001613e52565b826001600160a01b0316613116826116f9565b6001600160a01b03161461313c5760405162461bcd60e51b81526004016108229061546c565b600081815260046020908152604080832080546001600160a01b03199081169091556001600160a01b0387811680865260038552838620805460001901905590871680865283862080546001019055868652600290945282852080549092168417909155905184937fddf252ad1be2c89b69c2b068fc378daa952ba7f163c4a11628f55a4df523b3ef91a4505050565b6007546001600160a01b0361010090910416331461120b5760405162461bcd60e51b815260040161082290615514565b61088b83838360405160240161321493929190615524565b60408051601f198184030181529190526020810180516001600160e01b03167f5970e08900000000000000000000000000000000000000000000000000000000179052613cf1565b610f7f828260405180602001604052806000815250613eda565b6000828152600260205260409020546001600160a01b03166132aa5760405162461bcd60e51b81526004016108229061559c565b6000828152600660209081526040909120825161088b9284019061439c565b6132d1613f0d565b6007805460ff191690557f5db9ee0a495bf2e6ff9c91a7834c1ba4fdd244a5e8aa4e537bd38aeae4b073aa335b60405161330b9190614614565b60405180910390a1565b60606107246001600160a01b0383166014613f2f565b606081600381111561333f5761333f614d4c565b61337c57505060408051808201909152600881527f4372656174696f6e000000000000000000000000000000000000000000000000602082015290565b81600381111561338e5761338e614d4c565b600114156133cf57505060408051808201909152600a81527f45787065646974696f6e00000000000000000000000000000000000000000000602082015290565b8160038111156133e1576133e1614d4c565b6002141561342257505060408051808201909152600981527f526563657074696f6e0000000000000000000000000000000000000000000000602082015290565b81600381111561343457613434614d4c565b6003141561347557505060408051808201909152600a81527f416e6e756c6174696f6e00000000000000000000000000000000000000000000602082015290565b505060408051602081019091526000815290565b600061270f815b600b548110156135ca576000600b82815481106134af576134af614e43565b60009182526020918290206040805180820190915260029092020180546001600160a01b0316825260018101805492939192918401916134ee90614bc9565b80601f016020809104026020016040519081016040528092919081815260200182805461351a90614bc9565b80156135675780601f1061353c57610100808354040283529160200191613567565b820191906000526020600020905b81548152906001019060200180831161354a57829003601f168201915b5050505050815250509050846001600160a01b031681600001516001600160a01b031614156135b7576135b36040518060600160405280602e815260200161595b602e91398251612bf1565b8192505b50806135c281614e28565b915050613490565b506107246040518060600160405280602381526020016159386023913982613d12565b600780546001600160a01b038381166101008181027fffffffffffffffffffffff0000000000000000000000000000000000000000ff85161790945560405193909204169182907f8be0079c531659141344cd1fd0a4f28419497f9722a3daafe3b4186f6b6457e090600090a35050565b600080805b600c548110156137e3576000818152601060209081526040808320815160c08101835281546001600160a01b0390811682526001830154169381019390935260028101805491928401916136b690614bc9565b80601f01602080910402602001604051908101604052809291908181526020018280546136e290614bc9565b801561372f5780601f106137045761010080835404028352916020019161372f565b820191906000526020600020905b81548152906001019060200180831161371257829003601f168201915b5050509183525050600382810154602083015260048301546040830152600583015460609092019160ff169081111561376a5761376a614d4c565b600381111561377b5761377b614d4c565b8152505090506137a46040518060600160405280602c8152602001615989602c91398251612bf1565b846001600160a01b031681600001516001600160a01b031614156137d057826137cc81614e28565b9350505b50806137db81614e28565b915050613663565b506107246040518060600160405280602181526020016158ad6021913982613d12565b61380e614128565b6007805460ff191660011790557f62e78cea01bee320cd4e420270b5ea74000d11b0c9f74754ebdbfc544b05a2586132fe3390565b816001600160a01b0316836001600160a01b031614156138755760405162461bcd60e51b8152600401610822906155de565b6001600160a01b0383811660008181526005602090815260408083209487168084529490915290819020805460ff1916851515179055517f17307eab39ab6107e8899845ad3d59bd9653f200f220920489ca2b5937696c31906138d990859061454b565b60405180910390a3505050565b600061270f815b600954811015613a275760006009828154811061390c5761390c614e43565b60009182526020918290206040805180820190915260029092020180546001600160a01b03168252600181018054929391929184019161394b90614bc9565b80601f016020809104026020016040519081016040528092919081815260200182805461397790614bc9565b80156139c45780601f10613999576101008083540402835291602001916139c4565b820191906000526020600020905b8154815290600101906020018083116139a757829003601f168201915b5050505050815250509050846001600160a01b031681600001516001600160a01b03161415613a1457613a106040518060600160405280602281526020016158ce602291398251612bf1565b8192505b5080613a1f81614e28565b9150506138ed565b506107246040518060400160405280601d81526020017f67657452616e6741646d696e4279416464726573732072616e6720257300000081525082613d12565b61088b838383604051602401613a7f939291906155ee565b60408051601f198184030181529190526020810180516001600160e01b03167f0d26b92500000000000000000000000000000000000000000000000000000000179052613cf1565b613ad2848484613097565b613ade8484848461414b565b6124555760405162461bcd60e51b815260040161082290615666565b6060600d805461073990614bc9565b6060613b1482612cad565b6000613b1e613afa565b90506000815111613b3e5760405180602001604052806000815250613b69565b80613b4884612f77565b604051602001613b59929190615130565b6040516020818303038152906040525b9392505050565b600061270f815b600a54811015613cb1576000600a8281548110613b9657613b96614e43565b60009182526020918290206040805180820190915260029092020180546001600160a01b031682526001810180549293919291840191613bd590614bc9565b80601f0160208091040260200160405190810160405280929190818152602001828054613c0190614bc9565b8015613c4e5780601f10613c2357610100808354040283529160200191613c4e565b820191906000526020600020905b815481529060010190602001808311613c3157829003601f168201915b5050505050815250509050846001600160a01b031681600001516001600160a01b03161415613c9e57613c9a6040518060600160405280602481526020016158f0602491398251612bf1565b8192505b5080613ca981614e28565b915050613b77565b506107246040518060400160405280601e81526020017f67657452616e67436c69656e744279416464726573732072616e67202573000081525082613d12565b80516a636f6e736f6c652e6c6f67602083016000808483855afa5050505050565b610f7f8282604051602401613d28929190615676565b60408051601f198184030181529190526020810180516001600160e01b03167fb60e72cc00000000000000000000000000000000000000000000000000000000179052613cf1565b6000807a184f03e93ff9f4daa797ed6e38ed64bf6a1f0100000000000000008310613db9577a184f03e93ff9f4daa797ed6e38ed64bf6a1f010000000000000000830492506040015b6d04ee2d6d415b85acef81000000008310613de5576d04ee2d6d415b85acef8100000000830492506020015b662386f26fc100008310613e0357662386f26fc10000830492506010015b6305f5e1008310613e1b576305f5e100830492506008015b6127108310613e2f57612710830492506004015b60648310613e41576064830492506002015b600a83106107245760010192915050565b6001811115612455576001600160a01b03841615613e98576001600160a01b03841660009081526003602052604081208054839290613e929084906151d7565b90915550505b6001600160a01b03831615612455576001600160a01b03831660009081526003602052604081208054839290613ecf9084906151ee565b909155505050505050565b613ee48383614293565b613ef1600084848461414b565b61088b5760405162461bcd60e51b815260040161082290615666565b60075460ff1661120b5760405162461bcd60e51b8152600401610822906156c8565b60606000613f3e8360026156d8565b613f499060026151ee565b67ffffffffffffffff811115613f6157613f61614695565b6040519080825280601f01601f191660200182016040528015613f8b576020820181803683370190505b5090507f300000000000000000000000000000000000000000000000000000000000000081600081518110613fc257613fc2614e43565b60200101907effffffffffffffffffffffffffffffffffffffffffffffffffffffffffffff1916908160001a9053507f78000000000000000000000000000000000000000000000000000000000000008160018151811061402557614025614e43565b60200101907effffffffffffffffffffffffffffffffffffffffffffffffffffffffffffff1916908160001a90535060006140618460026156d8565b61406c9060016151ee565b90505b6001811115614109577f303132333435363738396162636465660000000000000000000000000000000085600f16601081106140ad576140ad614e43565b1a60f81b8282815181106140c3576140c3614e43565b60200101907effffffffffffffffffffffffffffffffffffffffffffffffffffffffffffff1916908160001a90535060049490941c93614102816156f7565b905061406f565b508315613b695760405162461bcd60e51b81526004016108229061573e565b60075460ff161561120b5760405162461bcd60e51b815260040161082290615780565b60006001600160a01b0384163b15614288576040517f150b7a020000000000000000000000000000000000000000000000000000000081526001600160a01b0385169063150b7a02906141a8903390899088908890600401615790565b6020604051808303816000875af19250505080156141e3575060408051601f3d908101601f191682019092526141e0918101906157df565b60015b61423d573d808015614211576040519150601f19603f3d011682016040523d82523d6000602084013e614216565b606091505b5080516142355760405162461bcd60e51b815260040161082290615666565b805181602001fd5b7fffffffff00000000000000000000000000000000000000000000000000000000167f150b7a0200000000000000000000000000000000000000000000000000000000149050612564565b506001949350505050565b6001600160a01b0382166142b95760405162461bcd60e51b815260040161082290615830565b6000818152600260205260409020546001600160a01b0316156142ee5760405162461bcd60e51b815260040161082290615872565b6142fc600083836001613e52565b6000818152600260205260409020546001600160a01b0316156143315760405162461bcd60e51b815260040161082290615872565b6001600160a01b038216600081815260036020908152604080832080546001019055848352600290915280822080546001600160a01b0319168417905551839291907fddf252ad1be2c89b69c2b068fc378daa952ba7f163c4a11628f55a4df523b3ef908290a45050565b8280546143a890614bc9565b90600052602060002090601f0160209004810192826143ca5760008555614410565b82601f106143e357805160ff1916838001178555614410565b82800160010185558215614410579182015b828111156144105782518255916020019190600101906143f5565b5061441c9291506144d1565b5090565b82805461442c90614bc9565b90600052602060002090601f01602090048101928261444e5760008555614410565b82601f1061445f5780548555614410565b8280016001018555821561441057600052602060002091601f016020900482015b82811115614410578254825591600101919060010190614480565b5080546144a790614bc9565b6000825580601f106144b7575050565b601f016020900490600052602060002090810190612a0d91905b5b8082111561441c57600081556001016144d2565b7fffffffff0000000000000000000000000000000000000000000000000000000081165b8114612a0d57600080fd5b8035610724816144e6565b60006020828403121561453557614535600080fd5b60006125648484614515565b8015155b82525050565b602081016107248284614541565b60005b8381101561457457818101518382015260200161455c565b838111156124555750506000910152565b600061458f825190565b8084526020840193506145a6818560208601614559565b601f01601f19169290920192915050565b60208082528101613b698184614585565b8061450a565b8035610724816145c8565b6000602082840312156145ee576145ee600080fd5b600061256484846145ce565b60006001600160a01b038216610724565b614545816145fa565b60208101610724828461460b565b61450a816145fa565b803561072481614622565b6000806040838503121561464c5761464c600080fd5b6000614658858561462b565b9250506020614669858286016145ce565b9150509250929050565b6000806040838503121561468957614689600080fd5b600061465885856145ce565b634e487b7160e01b600052604160045260246000fd5b601f19601f830116810181811067ffffffffffffffff821117156146d1576146d1614695565b6040525050565b60006146e360405190565b90506146ef82826146ab565b919050565b600067ffffffffffffffff82111561470e5761470e614695565b601f19601f83011660200192915050565b82818337506000910152565b600061473e614739846146f4565b6146d8565b90508281526020810184848401111561475957614759600080fd5b610d7884828561471f565b600082601f83011261477857614778600080fd5b813561256484826020860161472b565b6000806040838503121561479e5761479e600080fd5b60006147aa858561462b565b925050602083013567ffffffffffffffff8111156147ca576147ca600080fd5b61466985828601614764565b6000602082840312156147eb576147eb600080fd5b6000612564848461462b565b6000613b698383614585565b60200190565b6000614813825190565b8084526020840193508360208202850161482d8560200190565b60005b84811015614861578383038852815161484984826147f7565b93505060208201602098909801979150600101614830565b50909695505050505050565b60208082528101613b698184614809565b60008060006060848603121561489657614896600080fd5b60006148a2868661462b565b93505060206148b38682870161462b565b92505060406148c4868287016145ce565b9150509250925092565b6000602082840312156148e3576148e3600080fd5b813567ffffffffffffffff8111156148fd576148fd600080fd5b61256484828501614764565b6000806040838503121561491f5761491f600080fd5b60006147aa85856145ce565b80614545565b60208101610724828461492b565b80516000906040840190614953858261460b565b506020830151848203602086015261496b8282614585565b95945050505050565b6000613b69838361493f565b600061498a825190565b808452602084019350836020820285016149a48560200190565b60005b8481101561486157838303885281516149c08482614974565b935050602082016020989098019791506001016149a7565b60208082528101613b698184614980565b80151561450a565b8035610724816149e9565b60008060408385031215614a1257614a12600080fd5b6000614a1e858561462b565b9250506020614669858286016149f1565b6000614a39825190565b80845260208401935083602082028501614a538560200190565b60005b848110156148615783830388528151614a6f8482614974565b93505060208201602098909801979150600101614a56565b60208082528101613b698184614a2f565b60008060008060808587031215614ab157614ab1600080fd5b6000614abd878761462b565b9450506020614ace8782880161462b565b9350506040614adf878288016145ce565b925050606085013567ffffffffffffffff811115614aff57614aff600080fd5b614b0b87828801614764565b91505092959194509250565b60008060408385031215614b2d57614b2d600080fd5b6000614b39858561462b565b92505060206146698582860161462b565b6000614b54825190565b80845260208401935083602082028501614b6e8560200190565b60005b848110156148615783830388528151614b8a8482614974565b93505060208201602098909801979150600101614b71565b60208082528101613b698184614b4a565b634e487b7160e01b600052602260045260246000fd5b600281046001821680614bdd57607f821691505b60208210811415614bf057614bf0614bb3565b50919050565b60218152602081017f4552433732313a20617070726f76616c20746f2063757272656e74206f776e6581527f7200000000000000000000000000000000000000000000000000000000000000602082015290505b60400190565b6020808252810161072481614bf6565b603d8152602081017f4552433732313a20617070726f76652063616c6c6572206973206e6f7420746f81527f6b656e206f776e6572206f7220617070726f76656420666f7220616c6c00000060208201529050614c4a565b6020808252810161072481614c60565b60118152602081017f506173206c6520626f6e20636c69656e7400000000000000000000000000000081529050614803565b6020808252810161072481614cc8565b60188152602081017f776f726b666c6f775374617465206e6f742076616c696465000000000000000081529050614803565b6020808252810161072481614d0a565b634e487b7160e01b600052602160045260246000fd5b6000614d6c825190565b614d7a818560208601614559565b9290920192915050565b6107248183614d62565b60098152602081017f4e6f742041646d696e000000000000000000000000000000000000000000000081529050614803565b6020808252810161072481614d8e565b60128152602081017f41646472657373206e6f742076616c696465000000000000000000000000000081529050614803565b6020808252810161072481614dd0565b634e487b7160e01b600052601160045260246000fd5b6000600019821415614e3c57614e3c614e12565b5060010190565b634e487b7160e01b600052603260045260246000fd5b602d8152602081017f4552433732313a2063616c6c6572206973206e6f7420746f6b656e206f776e6581527f72206f7220617070726f7665640000000000000000000000000000000000000060208201529050614c4a565b6020808252810161072481614e59565b601b8152602081017f54797065206465204d6174657269656c206e6f742076616c696465000000000081529050614803565b6020808252810161072481614ec1565b614f0d818c614d62565b7f7b0000000000000000000000000000000000000000000000000000000000000081529050600101614f5e817f226964223a0000000000000000000000000000000000000000000000000000009052565b600501614f6b818b614d62565b7f2c22666f75726e697373657572223a220000000000000000000000000000000081529050601001614f9d818a614d62565b7f222c226e6f6d466f75726e697373657572223a2200000000000000000000000081529050601401614fcf8189614d62565b7f222c22636c69656e74223a22000000000000000000000000000000000000000081529050600c016150018188614d62565b7f222c226e6f6d436c69656e74223a22000000000000000000000000000000000081529050600f016150338187614d62565b7f222c227265666572656e63654d6174657269656c223a22000000000000000000815290506017016150658186614d62565b7f222c226461746545787065646974696f6e223a00000000000000000000000000815290506013016150978185614d62565b7f2c2264617465526563657074696f6e223a000000000000000000000000000000815290506011016150c98184614d62565b7f2c22776f726b666c6f775374617465223a220000000000000000000000000000815290506012016150fb8183614d62565b7f227d00000000000000000000000000000000000000000000000000000000000081526002019b9a5050505050505050505050565b61513a8184614d62565b9050613b698183614d62565b60ff81169050600060ff821415614e3c57614e3c614e12565b6151698183614d62565b7f5d00000000000000000000000000000000000000000000000000000000000000815260010192915050565b60188152602081017f4552433732313a20696e76616c696420746f6b656e204944000000000000000081529050614803565b6020808252810161072481615195565b6000828210156151e9576151e9614e12565b500390565b6000821982111561520157615201614e12565b500190565b634e487b7160e01b600052603160045260246000fd5b60298152602081017f4552433732313a2061646472657373207a65726f206973206e6f74206120766181527f6c6964206f776e6572000000000000000000000000000000000000000000000060208201529050614c4a565b602080825281016107248161521c565b60108152602081017f4f776e657220647520636f6e747261740000000000000000000000000000000081529050614803565b6020808252810161072481615284565b60168152602081017f506173206c6520626f6e20666f75726e6973736575720000000000000000000081529050614803565b60208082528101610724816152c6565b60268152602081017f4f776e61626c653a206e6577206f776e657220697320746865207a65726f206181527f646472657373000000000000000000000000000000000000000000000000000060208201529050614c4a565b6020808252810161072481615308565b606080825281016153818186614585565b9050615390602083018561460b565b818103604083015261496b8184614585565b604080825281016153b38185614585565b9050613b69602083018461460b565b604080825281016153d38185614585565b905081810360208301526125648184614585565b606080825281016153f88186614585565b9050615407602083018561492b565b612564604083018461492b565b60258152602081017f4552433732313a207472616e736665722066726f6d20696e636f72726563742081527f6f776e657200000000000000000000000000000000000000000000000000000060208201529050614c4a565b6020808252810161072481615414565b60248152602081017f4552433732313a207472616e7366657220746f20746865207a65726f2061646481527f726573730000000000000000000000000000000000000000000000000000000060208201529050614c4a565b602080825281016107248161547c565b60208082527f4f776e61626c653a2063616c6c6572206973206e6f7420746865206f776e65729101908152614803565b60208082528101610724816154e4565b606080825281016155358186614585565b9050615390602083018561492b565b602e8152602081017f45524337323155524953746f726167653a2055524920736574206f66206e6f6e81527f6578697374656e7420746f6b656e00000000000000000000000000000000000060208201529050614c4a565b6020808252810161072481615544565b60198152602081017f4552433732313a20617070726f766520746f2063616c6c65720000000000000081529050614803565b60208082528101610724816155ac565b606080825281016155ff8186614585565b9050615407602083018561460b565b60328152602081017f4552433732313a207472616e7366657220746f206e6f6e20455243373231526581527f63656976657220696d706c656d656e746572000000000000000000000000000060208201529050614c4a565b602080825281016107248161560e565b604080825281016156878185614585565b9050613b69602083018461492b565b60148152602081017f5061757361626c653a206e6f742070617573656400000000000000000000000081529050614803565b6020808252810161072481615696565b60008160001904831182151516156156f2576156f2614e12565b500290565b60008161570657615706614e12565b506000190190565b60208082527f537472696e67733a20686578206c656e67746820696e73756666696369656e749101908152614803565b602080825281016107248161570e565b60108152602081017f5061757361626c653a207061757365640000000000000000000000000000000081529050614803565b602080825281016107248161574e565b6080810161579e828761460b565b6157ab602083018661460b565b6157b8604083018561492b565b81810360608301526157ca8184614585565b9695505050505050565b8051610724816144e6565b6000602082840312156157f4576157f4600080fd5b600061256484846157d4565b60208082527f4552433732313a206d696e7420746f20746865207a65726f20616464726573739101908152614803565b6020808252810161072481615800565b601c8152602081017f4552433732313a20746f6b656e20616c7265616479206d696e7465640000000081529050614803565b602080825281016107248161584056fe676574466f75726e697373657572427941646472657373205f666f75726e6973736575722e696420257367657453697a654279466f75726e697373657572206974656d436f756e7420257367657452616e6741646d696e427941646472657373205f61646d696e2e696420257367657452616e67436c69656e74427941646472657373205f636c69656e742e6964202573726563657074696f6e206974656d496420257320776f726b666c6f77537461746520257367657452616e67466f75726e6973736575724279416464726573732072616e6720257367657452616e67466f75726e697373657572427941646472657373205f666f75726e6973736575722e696420257367657453697a654279466f75726e69737365757220636f6d6d616e64652e666f75726e697373657572202573746f6b656e69736174696f6e20747970654d6174657269656c202573207265666572656e63654d6174657269656c20257367657453697a654279436c69656e7420636f6d6d616e64652e636c69656e74202573a2646970667358221220fb063ce113ea76f69922817591e06f8d2ef85a044a1e8020cc655f77401bb88c64736f6c634300080c0033",
  "linkReferences": {},
  "deployedLinkReferences": {}
}