{
  "_format": "hh-sol-artifact-1",
  "contractName": "Demonstrateur",
  "sourceName": "contracts/Demonstrateur.sol",
  "abi": [
    {
      "inputs": [
        {
          "internalType": "address",
          "name": "target",
          "type": "address"
        }
      ],
      "name": "AddressEmptyCode",
      "type": "error"
    },
    {
      "inputs": [
        {
          "internalType": "address",
          "name": "implementation",
          "type": "address"
        }
      ],
      "name": "ERC1967InvalidImplementation",
      "type": "error"
    },
    {
      "inputs": [],
      "name": "ERC1967NonPayable",
      "type": "error"
    },
    {
      "inputs": [
        {
          "internalType": "address",
          "name": "sender",
          "type": "address"
        },
        {
          "internalType": "uint256",
          "name": "tokenId",
          "type": "uint256"
        },
        {
          "internalType": "address",
          "name": "owner",
          "type": "address"
        }
      ],
      "name": "ERC721IncorrectOwner",
      "type": "error"
    },
    {
      "inputs": [
        {
          "internalType": "address",
          "name": "operator",
          "type": "address"
        },
        {
          "internalType": "uint256",
          "name": "tokenId",
          "type": "uint256"
        }
      ],
      "name": "ERC721InsufficientApproval",
      "type": "error"
    },
    {
      "inputs": [
        {
          "internalType": "address",
          "name": "approver",
          "type": "address"
        }
      ],
      "name": "ERC721InvalidApprover",
      "type": "error"
    },
    {
      "inputs": [
        {
          "internalType": "address",
          "name": "operator",
          "type": "address"
        }
      ],
      "name": "ERC721InvalidOperator",
      "type": "error"
    },
    {
      "inputs": [
        {
          "internalType": "address",
          "name": "owner",
          "type": "address"
        }
      ],
      "name": "ERC721InvalidOwner",
      "type": "error"
    },
    {
      "inputs": [
        {
          "internalType": "address",
          "name": "receiver",
          "type": "address"
        }
      ],
      "name": "ERC721InvalidReceiver",
      "type": "error"
    },
    {
      "inputs": [
        {
          "internalType": "address",
          "name": "sender",
          "type": "address"
        }
      ],
      "name": "ERC721InvalidSender",
      "type": "error"
    },
    {
      "inputs": [
        {
          "internalType": "uint256",
          "name": "tokenId",
          "type": "uint256"
        }
      ],
      "name": "ERC721NonexistentToken",
      "type": "error"
    },
    {
      "inputs": [],
      "name": "EnforcedPause",
      "type": "error"
    },
    {
      "inputs": [],
      "name": "ExpectedPause",
      "type": "error"
    },
    {
      "inputs": [],
      "name": "FailedInnerCall",
      "type": "error"
    },
    {
      "inputs": [],
      "name": "InvalidInitialization",
      "type": "error"
    },
    {
      "inputs": [],
      "name": "NotInitializing",
      "type": "error"
    },
    {
      "inputs": [
        {
          "internalType": "address",
          "name": "owner",
          "type": "address"
        }
      ],
      "name": "OwnableInvalidOwner",
      "type": "error"
    },
    {
      "inputs": [
        {
          "internalType": "address",
          "name": "account",
          "type": "address"
        }
      ],
      "name": "OwnableUnauthorizedAccount",
      "type": "error"
    },
    {
      "inputs": [
        {
          "internalType": "uint256",
          "name": "value",
          "type": "uint256"
        },
        {
          "internalType": "uint256",
          "name": "length",
          "type": "uint256"
        }
      ],
      "name": "StringsInsufficientHexLength",
      "type": "error"
    },
    {
      "inputs": [],
      "name": "UUPSUnauthorizedCallContext",
      "type": "error"
    },
    {
      "inputs": [
        {
          "internalType": "bytes32",
          "name": "slot",
          "type": "bytes32"
        }
      ],
      "name": "UUPSUnsupportedProxiableUUID",
      "type": "error"
    },
    {
      "anonymous": false,
      "inputs": [
        {
          "indexed": true,
          "internalType": "address",
          "name": "owner",
          "type": "address"
        },
        {
          "indexed": true,
          "internalType": "address",
          "name": "approved",
          "type": "address"
        },
        {
          "indexed": true,
          "internalType": "uint256",
          "name": "tokenId",
          "type": "uint256"
        }
      ],
      "name": "Approval",
      "type": "event"
    },
    {
      "anonymous": false,
      "inputs": [
        {
          "indexed": true,
          "internalType": "address",
          "name": "owner",
          "type": "address"
        },
        {
          "indexed": true,
          "internalType": "address",
          "name": "operator",
          "type": "address"
        },
        {
          "indexed": false,
          "internalType": "bool",
          "name": "approved",
          "type": "bool"
        }
      ],
      "name": "ApprovalForAll",
      "type": "event"
    },
    {
      "anonymous": false,
      "inputs": [
        {
          "indexed": false,
          "internalType": "uint256",
          "name": "_fromTokenId",
          "type": "uint256"
        },
        {
          "indexed": false,
          "internalType": "uint256",
          "name": "_toTokenId",
          "type": "uint256"
        }
      ],
      "name": "BatchMetadataUpdate",
      "type": "event"
    },
    {
      "anonymous": false,
      "inputs": [
        {
          "indexed": true,
          "internalType": "address",
          "name": "fournisseur",
          "type": "address"
        },
        {
          "indexed": true,
          "internalType": "address",
          "name": "client",
          "type": "address"
        },
        {
          "indexed": false,
          "internalType": "uint256",
          "name": "tokenIds",
          "type": "uint256"
        }
      ],
      "name": "EventExpedition",
      "type": "event"
    },
    {
      "anonymous": false,
      "inputs": [
        {
          "indexed": true,
          "internalType": "address",
          "name": "client",
          "type": "address"
        },
        {
          "indexed": true,
          "internalType": "address",
          "name": "fournisseur",
          "type": "address"
        },
        {
          "indexed": false,
          "internalType": "uint256",
          "name": "tokenIds",
          "type": "uint256"
        },
        {
          "indexed": false,
          "internalType": "uint256",
          "name": "workflowState",
          "type": "uint256"
        }
      ],
      "name": "EventReception",
      "type": "event"
    },
    {
      "anonymous": false,
      "inputs": [
        {
          "indexed": true,
          "internalType": "address",
          "name": "fournisseur",
          "type": "address"
        },
        {
          "indexed": false,
          "internalType": "uint256",
          "name": "tokenIds",
          "type": "uint256"
        }
      ],
      "name": "EventTokenination",
      "type": "event"
    },
    {
      "anonymous": false,
      "inputs": [
        {
          "indexed": false,
          "internalType": "uint64",
          "name": "version",
          "type": "uint64"
        }
      ],
      "name": "Initialized",
      "type": "event"
    },
    {
      "anonymous": false,
      "inputs": [
        {
          "indexed": false,
          "internalType": "uint256",
          "name": "_tokenId",
          "type": "uint256"
        }
      ],
      "name": "MetadataUpdate",
      "type": "event"
    },
    {
      "anonymous": false,
      "inputs": [
        {
          "indexed": true,
          "internalType": "address",
          "name": "previousOwner",
          "type": "address"
        },
        {
          "indexed": true,
          "internalType": "address",
          "name": "newOwner",
          "type": "address"
        }
      ],
      "name": "OwnershipTransferred",
      "type": "event"
    },
    {
      "anonymous": false,
      "inputs": [
        {
          "indexed": false,
          "internalType": "address",
          "name": "account",
          "type": "address"
        }
      ],
      "name": "Paused",
      "type": "event"
    },
    {
      "anonymous": false,
      "inputs": [
        {
          "indexed": true,
          "internalType": "address",
          "name": "from",
          "type": "address"
        },
        {
          "indexed": true,
          "internalType": "address",
          "name": "to",
          "type": "address"
        },
        {
          "indexed": true,
          "internalType": "uint256",
          "name": "tokenId",
          "type": "uint256"
        }
      ],
      "name": "Transfer",
      "type": "event"
    },
    {
      "anonymous": false,
      "inputs": [
        {
          "indexed": false,
          "internalType": "address",
          "name": "account",
          "type": "address"
        }
      ],
      "name": "Unpaused",
      "type": "event"
    },
    {
      "anonymous": false,
      "inputs": [
        {
          "indexed": true,
          "internalType": "address",
          "name": "implementation",
          "type": "address"
        }
      ],
      "name": "Upgraded",
      "type": "event"
    },
    {
      "inputs": [],
      "name": "UPGRADE_INTERFACE_VERSION",
      "outputs": [
        {
          "internalType": "string",
          "name": "",
          "type": "string"
        }
      ],
      "stateMutability": "view",
      "type": "function"
    },
    {
      "inputs": [],
      "name": "_addressContratMateriel",
      "outputs": [
        {
          "internalType": "address",
          "name": "",
          "type": "address"
        }
      ],
      "stateMutability": "view",
      "type": "function"
    },
    {
      "inputs": [],
      "name": "_addressContratRole",
      "outputs": [
        {
          "internalType": "address",
          "name": "",
          "type": "address"
        }
      ],
      "stateMutability": "view",
      "type": "function"
    },
    {
      "inputs": [
        {
          "internalType": "address",
          "name": "to",
          "type": "address"
        },
        {
          "internalType": "uint256",
          "name": "tokenId",
          "type": "uint256"
        }
      ],
      "name": "approve",
      "outputs": [],
      "stateMutability": "nonpayable",
      "type": "function"
    },
    {
      "inputs": [
        {
          "internalType": "address",
          "name": "owner",
          "type": "address"
        }
      ],
      "name": "balanceOf",
      "outputs": [
        {
          "internalType": "uint256",
          "name": "",
          "type": "uint256"
        }
      ],
      "stateMutability": "view",
      "type": "function"
    },
    {
      "inputs": [
        {
          "internalType": "address",
          "name": "client",
          "type": "address"
        },
        {
          "internalType": "address",
          "name": "iot",
          "type": "address"
        },
        {
          "internalType": "uint256",
          "name": "itemId",
          "type": "uint256"
        }
      ],
      "name": "expedition",
      "outputs": [],
      "stateMutability": "nonpayable",
      "type": "function"
    },
    {
      "inputs": [
        {
          "internalType": "uint256",
          "name": "tokenId",
          "type": "uint256"
        }
      ],
      "name": "getApproved",
      "outputs": [
        {
          "internalType": "address",
          "name": "",
          "type": "address"
        }
      ],
      "stateMutability": "view",
      "type": "function"
    },
    {
      "inputs": [
        {
          "internalType": "address",
          "name": "owner",
          "type": "address"
        }
      ],
      "name": "getIdByOwner",
      "outputs": [
        {
          "internalType": "string[]",
          "name": "",
          "type": "string[]"
        }
      ],
      "stateMutability": "view",
      "type": "function"
    },
    {
      "inputs": [
        {
          "internalType": "address",
          "name": "client",
          "type": "address"
        }
      ],
      "name": "getJsonByClient",
      "outputs": [
        {
          "internalType": "string",
          "name": "",
          "type": "string"
        }
      ],
      "stateMutability": "view",
      "type": "function"
    },
    {
      "inputs": [
        {
          "internalType": "address",
          "name": "fournisseur",
          "type": "address"
        }
      ],
      "name": "getJsonByFournisseur",
      "outputs": [
        {
          "internalType": "string",
          "name": "",
          "type": "string"
        }
      ],
      "stateMutability": "view",
      "type": "function"
    },
    {
      "inputs": [],
      "name": "getJsonCommandes",
      "outputs": [
        {
          "internalType": "string",
          "name": "",
          "type": "string"
        }
      ],
      "stateMutability": "view",
      "type": "function"
    },
    {
      "inputs": [
        {
          "internalType": "address",
          "name": "owner",
          "type": "address"
        }
      ],
      "name": "getJsonMyMateriels",
      "outputs": [
        {
          "internalType": "string",
          "name": "",
          "type": "string"
        }
      ],
      "stateMutability": "view",
      "type": "function"
    },
    {
      "inputs": [],
      "name": "getVersion",
      "outputs": [
        {
          "internalType": "string",
          "name": "",
          "type": "string"
        }
      ],
      "stateMutability": "pure",
      "type": "function"
    },
    {
      "inputs": [
        {
          "internalType": "string",
          "name": "definitiveName",
          "type": "string"
        },
        {
          "internalType": "string",
          "name": "definitiveSymbol",
          "type": "string"
        },
        {
          "internalType": "string",
          "name": "definitiveBaseURI",
          "type": "string"
        }
      ],
      "name": "initialize",
      "outputs": [],
      "stateMutability": "nonpayable",
      "type": "function"
    },
    {
      "inputs": [
        {
          "internalType": "address",
          "name": "owner",
          "type": "address"
        },
        {
          "internalType": "address",
          "name": "operator",
          "type": "address"
        }
      ],
      "name": "isApprovedForAll",
      "outputs": [
        {
          "internalType": "bool",
          "name": "",
          "type": "bool"
        }
      ],
      "stateMutability": "view",
      "type": "function"
    },
    {
      "inputs": [],
      "name": "name",
      "outputs": [
        {
          "internalType": "string",
          "name": "",
          "type": "string"
        }
      ],
      "stateMutability": "view",
      "type": "function"
    },
    {
      "inputs": [],
      "name": "owner",
      "outputs": [
        {
          "internalType": "address",
          "name": "",
          "type": "address"
        }
      ],
      "stateMutability": "view",
      "type": "function"
    },
    {
      "inputs": [
        {
          "internalType": "uint256",
          "name": "tokenId",
          "type": "uint256"
        }
      ],
      "name": "ownerOf",
      "outputs": [
        {
          "internalType": "address",
          "name": "",
          "type": "address"
        }
      ],
      "stateMutability": "view",
      "type": "function"
    },
    {
      "inputs": [],
      "name": "pause",
      "outputs": [],
      "stateMutability": "nonpayable",
      "type": "function"
    },
    {
      "inputs": [],
      "name": "paused",
      "outputs": [
        {
          "internalType": "bool",
          "name": "",
          "type": "bool"
        }
      ],
      "stateMutability": "view",
      "type": "function"
    },
    {
      "inputs": [],
      "name": "proxiableUUID",
      "outputs": [
        {
          "internalType": "bytes32",
          "name": "",
          "type": "bytes32"
        }
      ],
      "stateMutability": "view",
      "type": "function"
    },
    {
      "inputs": [
        {
          "internalType": "uint256",
          "name": "itemId",
          "type": "uint256"
        },
        {
          "internalType": "uint256",
          "name": "workflowState",
          "type": "uint256"
        }
      ],
      "name": "reception",
      "outputs": [],
      "stateMutability": "nonpayable",
      "type": "function"
    },
    {
      "inputs": [
        {
          "internalType": "uint256",
          "name": "itemId",
          "type": "uint256"
        },
        {
          "internalType": "uint256",
          "name": "workflowState",
          "type": "uint256"
        }
      ],
      "name": "receptionIOT",
      "outputs": [],
      "stateMutability": "nonpayable",
      "type": "function"
    },
    {
      "inputs": [],
      "name": "renounceOwnership",
      "outputs": [],
      "stateMutability": "nonpayable",
      "type": "function"
    },
    {
      "inputs": [
        {
          "internalType": "address",
          "name": "from",
          "type": "address"
        },
        {
          "internalType": "address",
          "name": "to",
          "type": "address"
        },
        {
          "internalType": "uint256",
          "name": "tokenId",
          "type": "uint256"
        }
      ],
      "name": "safeTransferFrom",
      "outputs": [],
      "stateMutability": "nonpayable",
      "type": "function"
    },
    {
      "inputs": [
        {
          "internalType": "address",
          "name": "from",
          "type": "address"
        },
        {
          "internalType": "address",
          "name": "to",
          "type": "address"
        },
        {
          "internalType": "uint256",
          "name": "tokenId",
          "type": "uint256"
        },
        {
          "internalType": "bytes",
          "name": "data",
          "type": "bytes"
        }
      ],
      "name": "safeTransferFrom",
      "outputs": [],
      "stateMutability": "nonpayable",
      "type": "function"
    },
    {
      "inputs": [
        {
          "internalType": "address",
          "name": "addressContratMateriel",
          "type": "address"
        }
      ],
      "name": "setAddressContratMateriel",
      "outputs": [],
      "stateMutability": "nonpayable",
      "type": "function"
    },
    {
      "inputs": [
        {
          "internalType": "address",
          "name": "addressContratRole",
          "type": "address"
        }
      ],
      "name": "setAddressContratRole",
      "outputs": [],
      "stateMutability": "nonpayable",
      "type": "function"
    },
    {
      "inputs": [
        {
          "internalType": "address",
          "name": "operator",
          "type": "address"
        },
        {
          "internalType": "bool",
          "name": "approved",
          "type": "bool"
        }
      ],
      "name": "setApprovalForAll",
      "outputs": [],
      "stateMutability": "nonpayable",
      "type": "function"
    },
    {
      "inputs": [
        {
          "internalType": "bytes4",
          "name": "interfaceId",
          "type": "bytes4"
        }
      ],
      "name": "supportsInterface",
      "outputs": [
        {
          "internalType": "bool",
          "name": "",
          "type": "bool"
        }
      ],
      "stateMutability": "view",
      "type": "function"
    },
    {
      "inputs": [],
      "name": "symbol",
      "outputs": [
        {
          "internalType": "string",
          "name": "",
          "type": "string"
        }
      ],
      "stateMutability": "view",
      "type": "function"
    },
    {
      "inputs": [
        {
          "internalType": "uint256",
          "name": "tokenId",
          "type": "uint256"
        }
      ],
      "name": "tokenURI",
      "outputs": [
        {
          "internalType": "string",
          "name": "",
          "type": "string"
        }
      ],
      "stateMutability": "view",
      "type": "function"
    },
    {
      "inputs": [
        {
          "internalType": "uint256",
          "name": "idMateriel",
          "type": "uint256"
        },
        {
          "internalType": "string",
          "name": "uri",
          "type": "string"
        },
        {
          "internalType": "string",
          "name": "urlImage",
          "type": "string"
        },
        {
          "internalType": "string",
          "name": "referenceMateriel",
          "type": "string"
        }
      ],
      "name": "tokenisation",
      "outputs": [],
      "stateMutability": "nonpayable",
      "type": "function"
    },
    {
      "inputs": [
        {
          "internalType": "address",
          "name": "from",
          "type": "address"
        },
        {
          "internalType": "address",
          "name": "to",
          "type": "address"
        },
        {
          "internalType": "uint256",
          "name": "tokenId",
          "type": "uint256"
        }
      ],
      "name": "transferFrom",
      "outputs": [],
      "stateMutability": "nonpayable",
      "type": "function"
    },
    {
      "inputs": [
        {
          "internalType": "address",
          "name": "newOwner",
          "type": "address"
        }
      ],
      "name": "transferOwnership",
      "outputs": [],
      "stateMutability": "nonpayable",
      "type": "function"
    },
    {
      "inputs": [],
      "name": "unpause",
      "outputs": [],
      "stateMutability": "nonpayable",
      "type": "function"
    },
    {
      "inputs": [
        {
          "internalType": "address",
          "name": "newImplementation",
          "type": "address"
        },
        {
          "internalType": "bytes",
          "name": "data",
          "type": "bytes"
        }
      ],
      "name": "upgradeToAndCall",
      "outputs": [],
      "stateMutability": "payable",
      "type": "function"
    }
  ],
  "bytecode": "0x60a06040523060805234801561001457600080fd5b50608051614a7461003e6000396000818161255c015281816125850152612bcd0152614a746000f3fe6080604052600436106101da5760003560e01c80636d5128d711610103578063a22cb4651161009b578063a22cb46514610527578063a6487c5314610547578063ad3cb1cc14610567578063b88d4fde14610598578063bcc68b2b146105b8578063c87b56dd146105d8578063e985e9c5146105f8578063efbb93d014610618578063f2fde38b14610638578063f3ee11a21461065857600080fd5b80636d5128d71461043357806370a0823114610453578063715018a6146104735780638307df12146104885780638456cb59146104a85780638da5cb5b146104bd57806395d89b41146104d25780639bad155e146104e75780639f32d1a51461050757600080fd5b80633f4ba83a116101765780633f4ba83a1461033f57806342842e0e146103545780634f1ef286146103745780634fb75e4f1461038757806352d1902d1461039c5780635b06d203146103be5780635c975abb146103de5780636077e144146103f35780636352211e1461041357600080fd5b806301ffc9a7146101df57806306fdde0314610215578063081812fc14610237578063095ea7b3146102645780630d8e6e2c146102865780630dc05e59146102b257806310b50626146102d257806317c21c6d146102ff57806323b872dd1461031f575b600080fd5b3480156101eb57600080fd5b506101ff6101fa366004613a24565b610678565b60405161020c9190613a4f565b60405180910390f35b34801561022157600080fd5b5061022a6106a3565b60405161020c9190613abf565b34801561024357600080fd5b50610257610252366004613ae1565b610744565b60405161020c9190613b1c565b34801561027057600080fd5b5061028461027f366004613b3e565b610759565b005b34801561029257600080fd5b50604080518082019091526003815262312e3160e81b602082015261022a565b3480156102be57600080fd5b506102846102cd366004613b7b565b610768565b3480156102de57600080fd5b506102f26102ed366004613b9d565b610b9c565b60405161020c9190613c34565b34801561030b57600080fd5b5061028461031a366004613c45565b610caa565b34801561032b57600080fd5b5061028461033a366004613c45565b610f70565b34801561034b57600080fd5b50610284610fe7565b34801561036057600080fd5b5061028461036f366004613c45565b610ff9565b610284610382366004613d88565b611019565b34801561039357600080fd5b5061022a611034565b3480156103a857600080fd5b506103b16110f9565b60405161020c9190613ddb565b3480156103ca57600080fd5b5061022a6103d9366004613b9d565b611116565b3480156103ea57600080fd5b506101ff611202565b3480156103ff57600080fd5b50600354610257906001600160a01b031681565b34801561041f57600080fd5b5061025761042e366004613ae1565b611217565b34801561043f57600080fd5b5061028461044e366004613b9d565b611222565b34801561045f57600080fd5b506103b161046e366004613b9d565b61124c565b34801561047f57600080fd5b506102846112a4565b34801561049457600080fd5b506102846104a3366004613b9d565b6112b6565b3480156104b457600080fd5b506102846112e0565b3480156104c957600080fd5b506102576112f0565b3480156104de57600080fd5b5061022a61130b565b3480156104f357600080fd5b50610284610502366004613de9565b611328565b34801561051357600080fd5b5061022a610522366004613b9d565b611647565b34801561053357600080fd5b50610284610542366004613eae565b611a30565b34801561055357600080fd5b50610284610562366004613ee1565b611a3b565b34801561057357600080fd5b5061022a604051806040016040528060058152602001640352e302e360dc1b81525081565b3480156105a457600080fd5b506102846105b3366004613f74565b611b6f565b3480156105c457600080fd5b50600254610257906001600160a01b031681565b3480156105e457600080fd5b5061022a6105f3366004613ae1565b611b86565b34801561060457600080fd5b506101ff610613366004613fbb565b611c99565b34801561062457600080fd5b50610284610633366004613b7b565b611cd8565b34801561064457600080fd5b50610284610653366004613b9d565b611ce2565b34801561066457600080fd5b5061022a610673366004613b9d565b611d20565b60006001600160e01b03198216632483248360e11b148061069d575061069d826120eb565b92915050565b606060006106af61213b565b90508060000180546106c090614004565b80601f01602080910402602001604051908101604052809291908181526020018280546106ec90614004565b80156107395780601f1061070e57610100808354040283529160200191610739565b820191906000526020600020905b81548152906001019060200180831161071c57829003601f168201915b505050505091505090565b600061074f8261215f565b5061069d82612196565b6107648282336121bf565b5050565b600254604051631effddf560e21b815233916000916001600160a01b0390911690637bff77d49061079d908590600401613b1c565b600060405180830381865afa1580156107ba573d6000803e3d6000fd5b505050506040513d6000823e601f3d908101601f191682016040526107e29190810190614082565b90506040516020016107f3906140bc565b604051602081830303815290604052805190602001208160405160200161081a91906140ef565b60405160208183030381529060405280519060200120148061088b57506040516510db1a595b9d60d21b6020820152602601604051602081830303815290604052805190602001208160405160200161087391906140ef565b60405160208183030381529060405280519060200120145b806108df57506040516020016108a0906140f9565b60405160208183030381529060405280519060200120816040516020016108c791906140ef565b60405160208183030381529060405280519060200120145b6109045760405162461bcd60e51b81526004016108fb9061412e565b60405180910390fd5b6109276040518060600160405280602481526020016149a46024913985856121cc565b8215806109345750826001145b8061093f5750826002145b61095b5760405162461bcd60e51b81526004016108fb9061416b565b82600003610ac5576000848152600460205260409020600781018054426006840155336001600160a81b03199091168117600160a11b1790915590546109ad916001600160a01b039091169086610f70565b6000848152600460205260409020546109cf906001600160a01b031685610759565b600254604051631effddf560e21b81526000916001600160a01b031690637bff77d490610a00903390600401613b1c565b600060405180830381865afa158015610a1d573d6000803e3d6000fd5b505050506040513d6000823e601f3d908101601f19168201604052610a459190810190614082565b9050604051602001610a56906140f9565b6040516020818303038152906040528051906020012081604051602001610a7d91906140ef565b6040516020818303038152906040528051906020012003610abf57600085815260046020526040902060010154610abf9033906001600160a01b031687610ff9565b50610b35565b82600103610af4576000848152600460205260409020600701805460ff60a01b1916600360a01b179055610b35565b600084815260046020526040902060078101805460ff60a01b1916600160a21b17905560018101549054610b35916001600160a01b03908116911686610f70565b60008481526004602052604090819020805460019091015491516001600160a01b0391821692909116907f0b2b0b9cd2852db9a263848c6174c04304ce5b5d76c710f722992b1e7a94279190610b8e9088908890614191565b60405180910390a350505050565b6060610bd760405180604001604052806017815260200176676574496442794f776e6572206164647265737320257360481b81525083612213565b600080610be384612258565b6001600160401b03811115610bfa57610bfa613c95565b604051908082528060200260200182016040528015610c2d57816020015b6060815260200190600190039081610c185790505b50905060005b600054811015610ca257846001600160a01b0316610c5082611217565b6001600160a01b031603610c9057610c67816122e6565b8284610c72816141c2565b955081518110610c8457610c846141db565b60200260200101819052505b80610c9a816141c2565b915050610c33565b509392505050565b600254604051631effddf560e21b815233916000916001600160a01b0390911690637bff77d490610cdf908590600401613b1c565b600060405180830381865afa158015610cfc573d6000803e3d6000fd5b505050506040513d6000823e601f3d908101601f19168201604052610d249190810190614082565b9050604051602001610d35906140bc565b6040516020818303038152906040528051906020012081604051602001610d5c91906140ef565b604051602081830303815290604052805190602001201480610dc75750604051602001610d88906141f1565b6040516020818303038152906040528051906020012081604051602001610daf91906140ef565b60405160208183030381529060405280519060200120145b610de35760405162461bcd60e51b81526004016108fb9061422c565b610e236040518060400160405280601f81526020017f65787065646974696f6e2061646472657373202573206974656d4964202573008152508685612378565b6001600160a01b038516610e495760405162461bcd60e51b81526004016108fb90614263565b6000838152600460205260409020546001600160a01b03163314610e7f5760405162461bcd60e51b81526004016108fb9061429e565b610e898584610759565b6001600160a01b03841615610eda57610ed060405180604001604052806016815260200175696f7420617070726f7665206164647265737320257360501b81525085612213565b610eda8484610759565b60008381526004602052604080822042600582015560068101929092556001820180546001600160a01b0389166001600160a01b03199091168117909155600790920180546001600160a81b031916600160a01b1790555133907ffaa2c8a22696158f969938e11eaba6b662b2879a83841f1b0499692e1af8ca8190610f61908790613ddb565b60405180910390a35050505050565b6001600160a01b038216610f9a576000604051633250574960e11b81526004016108fb9190613b1c565b6000610fa78383336123bf565b9050836001600160a01b0316816001600160a01b031614610fe1578382826040516364283d7b60e01b81526004016108fb939291906142ae565b50505050565b610fef6124c8565b610ff76124fa565b565b61101483838360405180602001604052806000815250611b6f565b505050565b611021612551565b61102a826125f6565b61076482826125fe565b6040805180820190915260018152605b60f81b60208201526060906000805b6000548160ff1610156110a4578261106b83836126b1565b60405160200161107c9291906142d6565b604051602081830303815290604052925060019150808061109c906142ec565b915050611053565b50816040516020016110b69190614302565b60408051601f19818403018152828201909152601182527002539b7b721b7b6b6b0b73232b99012b99607d1b602083015292506110f39083612b7d565b50919050565b6000611103612bc2565b506000805160206149e983398151915290565b6040805180820190915260018152605b60f81b60208201526060906000805b6000548160ff1610156111aa57846001600160a01b03166111588260ff16611217565b6001600160a01b031603611198578261117183836126b1565b6040516020016111829291906142d6565b6040516020818303038152906040529250600191505b806111a2816142ec565b915050611135565b50816040516020016111bc9190614302565b60408051601f19818403018152828201909152601382527203539b7b726bca6b0ba32b934b2b6399012b99606d1b602083015292506111fb9083612b7d565b5092915050565b60008061120d612c0b565b5460ff1692915050565b600061069d8261215f565b61122a6124c8565b600380546001600160a01b0319166001600160a01b0392909216919091179055565b60008061125761213b565b90506001600160a01b0383166112835760006040516322718ad960e21b81526004016108fb9190613b1c565b6001600160a01b039092166000908152600390920160205250604090205490565b6112ac6124c8565b610ff76000612c2f565b6112be6124c8565b600280546001600160a01b0319166001600160a01b0392909216919091179055565b6112e86124c8565b610ff7612c8b565b6000806112fb612cd2565b546001600160a01b031692915050565b6060600061131761213b565b90508060010180546106c090614004565b600254604051631effddf560e21b815233916000916001600160a01b0390911690637bff77d49061135d908590600401613b1c565b600060405180830381865afa15801561137a573d6000803e3d6000fd5b505050506040513d6000823e601f3d908101601f191682016040526113a29190810190614082565b90506040516020016113b3906140bc565b60405160208183030381529060405280519060200120816040516020016113da91906140ef565b6040516020818303038152906040528051906020012014806114455750604051602001611406906141f1565b604051602081830303815290604052805190602001208160405160200161142d91906140ef565b60405160208183030381529060405280519060200120145b6114615760405162461bcd60e51b81526004016108fb9061422c565b611485604051806060016040528060368152602001614a0960369139878786612cf6565b61149133600054612d3f565b61149d60005486612d59565b604051806101200160405280336001600160a01b0316815260200160006001600160a01b03168152602001878152602001848152602001858152602001600081526020016000815260200160006001600160a01b031681526020016000600481111561150b5761150b61417b565b905260008054815260046020908152604091829020835181546001600160a01b03199081166001600160a01b03928316178355928501516001830180549094169116179091559082015160028201556060820151600382019061156e90826143d9565b506080820151600482019061158390826143d9565b5060a0820151600582015560c0820151600682015560e08201516007820180546001600160a01b039092166001600160a01b0319831681178255610100850151926001600160a81b03191617600160a01b8360048111156115e6576115e661417b565b0217905550506000546040513392507f87a149df8c648541e8984a3f6382b2ce57781dd46bd729f772c3989cc9a76c7c9161162091613ddb565b60405180910390a2600160008082825461163a9190614493565b9091555050505050505050565b60606116886040518060400160405280601d81526020017f67657449644279466f75726e697373657572206164647265737320257300000081525083612213565b60408051808201825260018152605b60f81b602080830191909152825190810190925260008083529091815b6000548110156119d857600081815260046020908152604080832081516101208101835281546001600160a01b0390811682526001830154169381019390935260028101549183019190915260038101805460608401919061171590614004565b80601f016020809104026020016040519081016040528092919081815260200182805461174190614004565b801561178e5780601f106117635761010080835404028352916020019161178e565b820191906000526020600020905b81548152906001019060200180831161177157829003601f168201915b505050505081526020016004820180546117a790614004565b80601f01602080910402602001604051908101604052809291908181526020018280546117d390614004565b80156118205780601f106117f557610100808354040283529160200191611820565b820191906000526020600020905b81548152906001019060200180831161180357829003601f168201915b5050509183525050600582015460208201526006820154604082015260078201546001600160a01b0381166060830152608090910190600160a01b900460ff1660048111156118715761187161417b565b60048111156118825761188261417b565b815250509050866001600160a01b031681600001516001600160a01b03161480156118c45750600281610100015160048111156118c1576118c161417b565b14155b156119c55783156118ec57604051806040016040528060018152602001600b60fa1b81525092505b600354604080830151905163a80f602d60e01b81526000926001600160a01b03169163a80f602d916119219190600401613ddb565b600060405180830381865afa15801561193e573d6000803e3d6000fd5b505050506040513d6000823e601f3d908101601f191682016040526119669190810190614082565b905061198a6040518060600160405280602181526020016149c86021913982612b7d565b8584611995856122e6565b60608501516040516119ae9493929186916020016144e5565b604051602081830303815290604052955060019450505b50806119d0816141c2565b9150506116b4565b50826040516020016119ea9190614302565b60408051601f19818403018152828201909152601182527002539b7b721b7b6b6b0b73232b99012b99607d1b60208301529350611a279084612b7d565b50909392505050565b610764338383612dbb565b6000611a45612e56565b805490915060ff600160401b82041615906001600160401b0316600081158015611a6c5750825b90506000826001600160401b03166001148015611a885750303b155b905081158015611a96575080155b15611ab45760405163f92ee8a960e01b815260040160405180910390fd5b845467ffffffffffffffff191660011785558315611ade57845460ff60401b1916600160401b1785555b611ae88888612e7a565b611af0612e8c565b611af933612e94565b611b01612e8c565b611b09612ea5565b600080556001611b1987826143d9565b508315611b6557845460ff60401b191685556040517fc7f505b2f371ae2175ee4913f4499e1f2633a7b5936321eed1cdaeb6115181d290611b5c9060019061458d565b60405180910390a15b5050505050505050565b611b7a848484610f70565b610fe184848484612eb5565b60606000611b92612fcc565b9050611b9d8361215f565b5060008381526020829052604081208054611bb790614004565b80601f0160208091040260200160405190810160405280929190818152602001828054611be390614004565b8015611c305780601f10611c0557610100808354040283529160200191611c30565b820191906000526020600020905b815481529060010190602001808311611c1357829003601f168201915b505050505090506000611c41612ff0565b90508051600003611c5457509392505050565b815115611c87578082604051602001611c6e9291906142d6565b6040516020818303038152906040529350505050919050565b611c9085613082565b95945050505050565b600080611ca461213b565b6001600160a01b03948516600090815260059190910160209081526040808320959096168252939093525050205460ff1690565b6107648282610768565b611cea6124c8565b6001600160a01b038116611d14576000604051631e4fbdf760e01b81526004016108fb9190613b1c565b611d1d81612c2f565b50565b6060611d5e6040518060400160405280601a8152602001796765744a736f6e4279436c69656e74206164647265737320257360301b81525083612213565b60408051808201825260018152605b60f81b602080830191909152825190810190925260008083529091815b6000548110156119d857600081815260046020908152604080832081516101208101835281546001600160a01b03908116825260018301541693810193909352600281015491830191909152600381018054606084019190611deb90614004565b80601f0160208091040260200160405190810160405280929190818152602001828054611e1790614004565b8015611e645780601f10611e3957610100808354040283529160200191611e64565b820191906000526020600020905b815481529060010190602001808311611e4757829003601f168201915b50505050508152602001600482018054611e7d90614004565b80601f0160208091040260200160405190810160405280929190818152602001828054611ea990614004565b8015611ef65780601f10611ecb57610100808354040283529160200191611ef6565b820191906000526020600020905b815481529060010190602001808311611ed957829003601f168201915b5050509183525050600582015460208201526006820154604082015260078201546001600160a01b0381166060830152608090910190600160a01b900460ff166004811115611f4757611f4761417b565b6004811115611f5857611f5861417b565b815250509050611f9a6040518060400160405280601a8152602001796765744a736f6e4279436c69656e74206164647265737320257360301b81525088612213565b866001600160a01b031681602001516001600160a01b0316148015611fd6575060038161010001516004811115611fd357611fd361417b565b14155b8015611ff9575060048161010001516004811115611ff657611ff661417b565b14155b156120d857831561202157604051806040016040528060018152602001600b60fa1b81525092505b600354604080830151905163a80f602d60e01b81526000926001600160a01b03169163a80f602d916120569190600401613ddb565b600060405180830381865afa158015612073573d6000803e3d6000fd5b505050506040513d6000823e601f3d908101601f1916820160405261209b9190810190614082565b905085846120a8856122e6565b60608501516040516120c19493929186916020016144e5565b604051602081830303815290604052955060019450505b50806120e3816141c2565b915050611d8a565b60006001600160e01b031982166380ac58cd60e01b148061211c57506001600160e01b03198216635b5e139f60e01b145b8061069d57506301ffc9a760e01b6001600160e01b031983161461069d565b7f80bb2b638cc20bc4d0a60d66940f3ab4a00c1d7b313497ca82fb0b4ab007930090565b60008061216b836130e9565b90506001600160a01b03811661069d5782604051637e27328960e01b81526004016108fb9190613ddb565b6000806121a161213b565b6000938452600401602052505060409020546001600160a01b031690565b6110148383836001613112565b6110148383836040516024016121e49392919061459b565b60408051601f198184030181529190526020810180516001600160e01b031663ca47c4eb60e01b17905261321c565b61076482826040516024016122299291906145c8565b60408051601f198184030181529190526020810180516001600160e01b031663319af33360e01b17905261321c565b600080805b6000548110156122a857836001600160a01b031661227a82611217565b6001600160a01b0316036122965781612292816141c2565b9250505b806122a0816141c2565b91505061225d565b5061069d6040518060400160405280601b81526020017a67657453697a6542794f776e6572206974656d436f756e7420257360281b81525082613225565b606060006122f38361326a565b60010190506000816001600160401b0381111561231257612312613c95565b6040519080825280601f01601f19166020018201604052801561233c576020820181803683370190505b5090508181016020015b600019016f181899199a1a9b1b9c1cb0b131b232b360811b600a86061a8153600a850494508461234657509392505050565b611014838383604051602401612390939291906145e8565b60408051601f198184030181529190526020810180516001600160e01b0316630d26b92560e01b17905261321c565b6000806123ca61213b565b905060006123d7856130e9565b90506001600160a01b038416156123f3576123f3818587613340565b6001600160a01b0381161561243357612410600086600080613112565b6001600160a01b0381166000908152600383016020526040902080546000190190555b6001600160a01b03861615612464576001600160a01b03861660009081526003830160205260409020805460010190555b600085815260028301602052604080822080546001600160a01b0319166001600160a01b038a811691821790925591518893918516917fddf252ad1be2c89b69c2b068fc378daa952ba7f163c4a11628f55a4df523b3ef91a49150505b9392505050565b336124d16112f0565b6001600160a01b031614610ff7573360405163118cdaa760e01b81526004016108fb9190613b1c565b612502613395565b600061250c612c0b565b805460ff1916815590507f5db9ee0a495bf2e6ff9c91a7834c1ba4fdd244a5e8aa4e537bd38aeae4b073aa335b6040516125469190613b1c565b60405180910390a150565b306001600160a01b037f00000000000000000000000000000000000000000000000000000000000000001614806125d857507f00000000000000000000000000000000000000000000000000000000000000006001600160a01b03166125cc6000805160206149e9833981519152546001600160a01b031690565b6001600160a01b031614155b15610ff75760405163703e46dd60e11b815260040160405180910390fd5b611d1d6124c8565b816001600160a01b03166352d1902d6040518163ffffffff1660e01b8152600401602060405180830381865afa925050508015612658575060408051601f3d908101601f1916820190925261265591810190614613565b60015b6126775781604051634c9c8ce360e01b81526004016108fb9190613b1c565b6000805160206149e983398151915281146126a75780604051632a87526960e21b81526004016108fb9190613ddb565b61101483836133ba565b6040805160208082018352600080835260ff851681526004825283812084516101208101865281546001600160a01b03908116825260018301541693810193909352600281015494830194909452600384018054606095929392918387019161271990614004565b80601f016020809104026020016040519081016040528092919081815260200182805461274590614004565b80156127925780601f1061276757610100808354040283529160200191612792565b820191906000526020600020905b81548152906001019060200180831161277557829003601f168201915b505050505081526020016004820180546127ab90614004565b80601f01602080910402602001604051908101604052809291908181526020018280546127d790614004565b80156128245780601f106127f957610100808354040283529160200191612824565b820191906000526020600020905b81548152906001019060200180831161280757829003601f168201915b5050509183525050600582015460208201526006820154604082015260078201546001600160a01b0381166060830152608090910190600160a01b900460ff1660048111156128755761287561417b565b60048111156128865761288661417b565b9052509050600061289960ff8616611b86565b6002546020840151604051632163b10160e01b81529293506000926001600160a01b0390921691632163b101916128d291600401613b1c565b600060405180830381865afa1580156128ef573d6000803e3d6000fd5b505050506040513d6000823e601f3d908101601f191682016040526129179190810190614082565b600254845160405163e2339ba360e01b81529293506000926001600160a01b039092169163e2339ba39161294d91600401613b1c565b600060405180830381865afa15801561296a573d6000803e3d6000fd5b505050506040513d6000823e601f3d908101601f191682016040526129929190810190614082565b60025460e0860151604051634713a58f60e01b81529293506000926001600160a01b0390921691634713a58f916129cb91600401613b1c565b600060405180830381865afa1580156129e8573d6000803e3d6000fd5b505050506040513d6000823e601f3d908101601f19168201604052612a109190810190614082565b600354604080880151905163a80f602d60e01b81529293506000926001600160a01b039092169163a80f602d91612a4991600401613ddb565b600060405180830381865afa158015612a66573d6000803e3d6000fd5b505050506040513d6000823e601f3d908101601f19168201604052612a8e9190810190614082565b90508915612ab357604051806040016040528060018152602001600b60fa1b81525096505b600087612ac28b60ff166122e6565b87612ad08a60000151613410565b87612ade8c60200151613410565b60608d015160808e0151604051612b01989796959493928e928c92602001614634565b604051602081830303815290604052905080612b208860a001516122e6565b612b2d8960c001516122e6565b612b3a8a60e00151613410565b86612b498c6101000151613426565b604051602001612b5e96959493929190614783565b60408051808303601f190181529190529b9a5050505050505050505050565b6107648282604051602401612b9392919061486c565b60408051601f198184030181529190526020810180516001600160e01b0316634b5c427760e01b17905261321c565b306001600160a01b037f00000000000000000000000000000000000000000000000000000000000000001614610ff75760405163703e46dd60e11b815260040160405180910390fd5b7fcd5ed15c6e187e77e9aee88184c21f4f2182ab5827cb3b7e07fbedcd63f0330090565b6000612c39612cd2565b80546001600160a01b038481166001600160a01b031983168117845560405193945091169182907f8be0079c531659141344cd1fd0a4f28419497f9722a3daafe3b4186f6b6457e090600090a3505050565b612c93613572565b6000612c9d612c0b565b805460ff1916600117815590507f62e78cea01bee320cd4e420270b5ea74000d11b0c9f74754ebdbfc544b05a2586125393390565b7f9016d09d72d40fdae2fd8ceac6b6234c7706214fd39c1cd1e609a0528c19930090565b610fe184848484604051602401612d109493929190614891565b60408051601f198184030181529190526020810180516001600160e01b0316635ab84e1f60e01b17905261321c565b610764828260405180602001604052806000815250613598565b6000612d63612fcc565b6000848152602082905260409020909150612d7e83826143d9565b507ff8e1a15aba9398e019f0b49df1a4fde98ee17ae345cb5f6b5e2c27f5033e8ce783604051612dae9190613ddb565b60405180910390a1505050565b6000612dc561213b565b90506001600160a01b038316612df05782604051630b61174360e31b81526004016108fb9190613b1c565b6001600160a01b03848116600081815260058401602090815260408083209488168084529490915290819020805460ff1916861515179055517f17307eab39ab6107e8899845ad3d59bd9653f200f220920489ca2b5937696c3190610b8e908690613a4f565b7ff0c57e16840df040f15088dc2f81fe391c3923bec73e23a9662efc9c229c6a0090565b612e826135af565b61076482826135d4565b610ff76135af565b612e9c6135af565b611d1d81613602565b612ead6135af565b610ff761360a565b6001600160a01b0383163b15610fe157604051630a85bd0160e11b81526001600160a01b0384169063150b7a0290612ef79033908890879087906004016148e1565b6020604051808303816000875af1925050508015612f32575060408051601f3d908101601f19168201909252612f2f91810190614926565b60015b612f92573d808015612f60576040519150601f19603f3d011682016040523d82523d6000602084013e612f65565b606091505b508051600003612f8a5783604051633250574960e11b81526004016108fb9190613b1c565b805181602001fd5b6001600160e01b03198116630a85bd0160e11b14612fc55783604051633250574960e11b81526004016108fb9190613b1c565b5050505050565b7f0542a41881ee128a365a727b282c86fa859579490b9bb45aab8503648c8e790090565b606060018054612fff90614004565b80601f016020809104026020016040519081016040528092919081815260200182805461302b90614004565b80156130785780601f1061304d57610100808354040283529160200191613078565b820191906000526020600020905b81548152906001019060200180831161305b57829003601f168201915b5050505050905090565b606061308d8261215f565b506000613098612ff0565b905060008151116130b857604051806020016040528060008152506124c1565b806130c2846122e6565b6040516020016130d39291906142d6565b6040516020818303038152906040529392505050565b6000806130f461213b565b6000938452600201602052505060409020546001600160a01b031690565b600061311c61213b565b9050818061313257506001600160a01b03831615155b156131eb5760006131428561215f565b90506001600160a01b0384161580159061316e5750836001600160a01b0316816001600160a01b031614155b8015613181575061317f8185611c99565b155b156131a1578360405163a9fbf51f60e01b81526004016108fb9190613b1c565b82156131e95784866001600160a01b0316826001600160a01b03167f8c5be1e5ebec7d5bd14f71427d1e84f3dd0314c0f7b2291e5b200ac8c7c3b92560405160405180910390a45b505b600093845260040160205250506040902080546001600160a01b0319166001600160a01b0392909216919091179055565b611d1d81613627565b610764828260405160240161323b929190614947565b60408051601f198184030181529190526020810180516001600160e01b0316632d839cb360e21b17905261321c565b60008072184f03e93ff9f4daa797ed6e38ed64bf6a1f0160401b83106132a95772184f03e93ff9f4daa797ed6e38ed64bf6a1f0160401b830492506040015b6904ee2d6d415b85acef8160201b83106132d3576904ee2d6d415b85acef8160201b830492506020015b662386f26fc1000083106132f157662386f26fc10000830492506010015b6305f5e1008310613309576305f5e100830492506008015b612710831061331d57612710830492506004015b6064831061332f576064830492506002015b600a831061069d5760010192915050565b61334b838383613648565b611014576001600160a01b0383166133785780604051637e27328960e01b81526004016108fb9190613ddb565b818160405163177e802f60e01b81526004016108fb929190614967565b61339d611202565b610ff757604051638dfc202b60e01b815260040160405180910390fd5b6133c3826136ae565b6040516001600160a01b038316907fbc7cd75a20ee27fd9adebab32041f755214dbc6bffa90cc0225b39da2e5c2d3b90600090a280511561340857611014828261370a565b610764613777565b606061069d6001600160a01b0383166014613796565b606081600481111561343a5761343a61417b565b60000361346557505060408051808201909152600881526721b932b0ba34b7b760c11b602082015290565b8160048111156134775761347761417b565b6001036134a457505060408051808201909152600a81526922bc3832b234ba34b7b760b11b602082015290565b8160048111156134b6576134b661417b565b6002036134e25750506040805180820190915260098152682932b1b2b83a34b7b760b91b602082015290565b8160048111156134f4576134f461417b565b60030361352157505060408051808201909152600a81526920b7373ab630ba34b7b760b11b602082015290565b8160048111156135335761353361417b565b60040361355e5750506040805180820190915260088152672932b73b37bcb2b960c11b602082015290565b505060408051602081019091526000815290565b61357a611202565b15610ff75760405163d93c066560e01b815260040160405180910390fd5b6135a28383613907565b6110146000848484612eb5565b6135b761396c565b610ff757604051631afcd79f60e31b815260040160405180910390fd5b6135dc6135af565b60006135e661213b565b9050806135f384826143d9565b5060018101610fe183826143d9565b611cea6135af565b6136126135af565b600061361c612c0b565b805460ff1916905550565b60006a636f6e736f6c652e6c6f679050600080835160208501845afa505050565b60006001600160a01b038316158015906136a65750826001600160a01b0316846001600160a01b0316148061368257506136828484611c99565b806136a65750826001600160a01b031661369b83612196565b6001600160a01b0316145b949350505050565b806001600160a01b03163b6000036136db5780604051634c9c8ce360e01b81526004016108fb9190613b1c565b6000805160206149e983398151915280546001600160a01b0319166001600160a01b0392909216919091179055565b6060600080846001600160a01b03168460405161372791906140ef565b600060405180830381855af49150503d8060008114613762576040519150601f19603f3d011682016040523d82523d6000602084013e613767565b606091505b5091509150611c90858383613986565b3415610ff75760405163b398979f60e01b815260040160405180910390fd5b60608260006137a6846002614975565b6137b1906002614493565b6001600160401b038111156137c8576137c8613c95565b6040519080825280601f01601f1916602001820160405280156137f2576020820181803683370190505b509050600360fc1b8160008151811061380d5761380d6141db565b60200101906001600160f81b031916908160001a905350600f60fb1b8160018151811061383c5761383c6141db565b60200101906001600160f81b031916908160001a9053506000613860856002614975565b61386b906001614493565b90505b60018111156138e3576f181899199a1a9b1b9c1cb0b131b232b360811b83600f166010811061389f5761389f6141db565b1a60f81b8282815181106138b5576138b56141db565b60200101906001600160f81b031916908160001a90535060049290921c916138dc8161498c565b905061386e565b5081156136a657848460405163e22e27eb60e01b81526004016108fb929190614191565b6001600160a01b038216613931576000604051633250574960e11b81526004016108fb9190613b1c565b600061393f838360006123bf565b90506001600160a01b038116156110145760006040516339e3563760e11b81526004016108fb9190613b1c565b6000613976612e56565b54600160401b900460ff16919050565b60608261399b57613996826139d9565b6124c1565b81511580156139b257506001600160a01b0384163b155b156139d25783604051639996b31560e01b81526004016108fb9190613b1c565b50806124c1565b8051156139e95780518082602001fd5b604051630a12f52160e11b815260040160405180910390fd5b6001600160e01b031981165b8114611d1d57600080fd5b803561069d81613a02565b600060208284031215613a3957613a39600080fd5b60006136a68484613a19565b8015155b82525050565b6020810161069d8284613a45565b60005b83811015613a78578181015183820152602001613a60565b50506000910152565b601f01601f191690565b6000613a95825190565b808452602084019350613aac818560208601613a5d565b613ab581613a81565b9093019392505050565b602080825281016124c18184613a8b565b80613a0e565b803561069d81613ad0565b600060208284031215613af657613af6600080fd5b60006136a68484613ad6565b60006001600160a01b03821661069d565b613a4981613b02565b6020810161069d8284613b13565b613a0e81613b02565b803561069d81613b2a565b60008060408385031215613b5457613b54600080fd5b6000613b608585613b33565b9250506020613b7185828601613ad6565b9150509250929050565b60008060408385031215613b9157613b91600080fd5b6000613b608585613ad6565b600060208284031215613bb257613bb2600080fd5b60006136a68484613b33565b60006124c18383613a8b565b60200190565b6000613bda825190565b80845260208401935083602082028501613bf48560200190565b60005b84811015613c285783830388528151613c108482613bbe565b93505060208201602098909801979150600101613bf7565b50909695505050505050565b602080825281016124c18184613bd0565b600080600060608486031215613c5d57613c5d600080fd5b6000613c698686613b33565b9350506020613c7a86828701613b33565b9250506040613c8b86828701613ad6565b9150509250925092565b634e487b7160e01b600052604160045260246000fd5b613cb482613a81565b81018181106001600160401b0382111715613cd157613cd1613c95565b6040525050565b6000613ce360405190565b9050613cef8282613cab565b919050565b60006001600160401b03821115613d0d57613d0d613c95565b613d1682613a81565b60200192915050565b82818337506000910152565b6000613d3e613d3984613cf4565b613cd8565b905082815260208101848484011115613d5957613d59600080fd5b610ca2848285613d1f565b600082601f830112613d7857613d78600080fd5b81356136a6848260208601613d2b565b60008060408385031215613d9e57613d9e600080fd5b6000613daa8585613b33565b92505060208301356001600160401b03811115613dc957613dc9600080fd5b613b7185828601613d64565b80613a49565b6020810161069d8284613dd5565b60008060008060808587031215613e0257613e02600080fd5b6000613e0e8787613ad6565b94505060208501356001600160401b03811115613e2d57613e2d600080fd5b613e3987828801613d64565b93505060408501356001600160401b03811115613e5857613e58600080fd5b613e6487828801613d64565b92505060608501356001600160401b03811115613e8357613e83600080fd5b613e8f87828801613d64565b91505092959194509250565b801515613a0e565b803561069d81613e9b565b60008060408385031215613ec457613ec4600080fd5b6000613ed08585613b33565b9250506020613b7185828601613ea3565b600080600060608486031215613ef957613ef9600080fd5b83356001600160401b03811115613f1257613f12600080fd5b613f1e86828701613d64565b93505060208401356001600160401b03811115613f3d57613f3d600080fd5b613f4986828701613d64565b92505060408401356001600160401b03811115613f6857613f68600080fd5b613c8b86828701613d64565b60008060008060808587031215613f8d57613f8d600080fd5b6000613f998787613b33565b9450506020613faa87828801613b33565b9350506040613e6487828801613ad6565b60008060408385031215613fd157613fd1600080fd5b6000613fdd8585613b33565b9250506020613b7185828601613b33565b634e487b7160e01b600052602260045260246000fd5b60028104600182168061401857607f821691505b6020821081036110f3576110f3613fee565b6000614038613d3984613cf4565b90508281526020810184848401111561405357614053600080fd5b610ca2848285613a5d565b600082601f83011261407257614072600080fd5b81516136a684826020860161402a565b60006020828403121561409757614097600080fd5b81516001600160401b038111156140b0576140b0600080fd5b6136a68482850161405e565b6420b236b4b760d91b815260050190565b60006140d7825190565b6140e5818560208601613a5d565b9290920192915050565b61069d81836140cd565b62125bdd60ea1b815260030190565b60118152602081017014185cc81b1948189bdb8818db1a595b9d607a1b81529050613bca565b6020808252810161069d81614108565b601881526020810177776f726b666c6f775374617465206e6f742076616c69646560401b81529050613bca565b6020808252810161069d8161413e565b634e487b7160e01b600052602160045260246000fd5b6040810161419f8285613dd5565b6124c16020830184613dd5565b634e487b7160e01b600052601160045260246000fd5b6000600182016141d4576141d46141ac565b5060010190565b634e487b7160e01b600052603260045260246000fd5b6a2337bab93734b9b9b2bab960a91b8152600b0190565b600f8152602081016e526f6c65206e6f742076616c69646560881b81529050613bca565b6020808252810161069d81614208565b60128152602081017141646472657373206e6f742076616c69646560701b81529050613bca565b6020808252810161069d8161423c565b6016815260208101752830b9903632903137b7103337bab93734b9b9b2bab960511b81529050613bca565b6020808252810161069d81614273565b606081016142bc8286613b13565b6142c96020830185613dd5565b6136a66040830184613b13565b6142e081846140cd565b90506124c181836140cd565b60ff16600060fe1982016141d4576141d46141ac565b61430c81836140cd565b605d60f81b815260010192915050565b600061069d6143288381565b90565b6143348361431c565b815460001960089490940293841b1916921b91909117905550565b600061101481848461432b565b818110156107645761436f60008261434f565b60010161435c565b601f821115611014576000818152602090206020601f8501048101602085101561439e5750805b612fc56020601f86010483018261435c565b6000196008929092029190911c191690565b6143cc82826143b0565b6002909202909117919050565b81516001600160401b038111156143f2576143f2613c95565b6143fc8254614004565b614407828285614377565b506020601f82116001811461443657600083156144245750848201515b61442e84826143c2565b855550612fc5565b600084815260208120601f198516915b828110156144665787850151825560209485019460019092019101614446565b50848210156144845783870151614480601f8716826143b0565b8255505b50505050600202600101905550565b8082018082111561069d5761069d6141ac565b607b60f81b9052565b641134b2111d60d91b9052565b761116113932b332b932b731b2a6b0ba32b934b2b6111d1160491b9052565b61227d60f01b9052565b6144ef81876140cd565b90506144fb81866140cd565b9050614506816144a6565b600101614512816144af565b60050161451f81856140cd565b6f16113737b6a6b0ba32b934b2b6111d1160811b8152905060100161454481846140cd565b905061454f816144bc565b60170161455c81836140cd565b9050614567816144db565b60020195945050505050565b60006001600160401b03821661069d565b613a4981614573565b6020810161069d8284614584565b606080825281016145ac8186613a8b565b90506145bb6020830185613dd5565b6136a66040830184613dd5565b604080825281016145d98185613a8b565b90506124c16020830184613b13565b606080825281016145f98186613a8b565b90506145bb6020830185613b13565b805161069d81613ad0565b60006020828403121561462857614628600080fd5b60006136a68484614608565b61463e818c6140cd565b9050614649816144a6565b600101614655816144af565b600501614662818b6140cd565b6716113ab934911d1160c11b8152905060080161467f818a6140cd565b701116113337bab93734b9b9b2bab9111d1160791b815290506011016146a581896140cd565b731116113737b6a337bab93734b9b9b2bab9111d1160611b815290506014016146ce81886140cd565b6b11161131b634b2b73a111d1160a11b81529050600c016146ef81876140cd565b6e1116113737b6a1b634b2b73a111d1160891b81529050600f0161471381866140cd565b701116113737b6a6b0ba32b934b2b6111d1160791b8152905060110161473981856140cd565b9050614744816144bc565b60170161475181846140cd565b6d1116113ab93624b6b0b3b2911d1160911b81529050600e0161477481836140cd565b9b9a5050505050505050505050565b61478d81886140cd565b721116113230ba32a2bc3832b234ba34b7b7111d60691b815290506013016147b581876140cd565b7016113230ba32a932b1b2b83a34b7b7111d60791b815290506011016147db81866140cd565b74161130b2323932b9b9a932b1b2b83a34b7b7111d1160591b8152905060150161480581856140cd565b711116113737b6a932b1b2b83a34b7b7111d1160711b8152905060120161482c81846140cd565b721116113bb7b935b33637bba9ba30ba32911d1160691b8152905060130161485481836140cd565b905061485f816144db565b6002019695505050505050565b6040808252810161487d8185613a8b565b905081810360208301526136a68184613a8b565b608080825281016148a28187613a8b565b90506148b16020830186613dd5565b81810360408301526148c38185613a8b565b905081810360608301526148d78184613a8b565b9695505050505050565b608081016148ef8287613b13565b6148fc6020830186613b13565b6149096040830185613dd5565b81810360608301526148d78184613a8b565b805161069d81613a02565b60006020828403121561493b5761493b600080fd5b60006136a6848461491b565b604080825281016149588185613a8b565b90506124c16020830184613dd5565b6040810161419f8285613b13565b818102811582820484141761069d5761069d6141ac565b60008161499b5761499b6141ac565b50600019019056fe726563657074696f6e206974656d496420257320776f726b666c6f77537461746520257367657449644279466f75726e697373657572206e6f6d4d6174657269656c202573360894a13ba1a3210667c828492db98dca3e2076cc3735a920a3ca505d382bbc746f6b656e69736174696f6e2069644d6174657269656c20257320757269202573207265666572656e63654d6174657269656c202573a26469706673582212206a52a0b2dcf9b6e5711f23fdefc26425b17bcbb559d318bc09102380544721e364736f6c63430008150033",
  "linkReferences": {},
  "deployedLinkReferences": {}
}