{
  "_format": "hh-sol-artifact-1",
  "contractName": "Demonstrateur",
  "sourceName": "contracts/Demonstrateur.sol",
  "abi": [
    {
      "inputs": [
        {
          "internalType": "string",
          "name": "definitiveName",
          "type": "string"
        },
        {
          "internalType": "string",
          "name": "definitiveSymbol",
          "type": "string"
        },
        {
          "internalType": "string",
          "name": "definitiveBaseURI",
          "type": "string"
        }
      ],
      "stateMutability": "nonpayable",
      "type": "constructor"
    },
    {
      "anonymous": false,
      "inputs": [
        {
          "indexed": true,
          "internalType": "address",
          "name": "owner",
          "type": "address"
        },
        {
          "indexed": true,
          "internalType": "address",
          "name": "approved",
          "type": "address"
        },
        {
          "indexed": true,
          "internalType": "uint256",
          "name": "tokenId",
          "type": "uint256"
        }
      ],
      "name": "Approval",
      "type": "event"
    },
    {
      "anonymous": false,
      "inputs": [
        {
          "indexed": true,
          "internalType": "address",
          "name": "owner",
          "type": "address"
        },
        {
          "indexed": true,
          "internalType": "address",
          "name": "operator",
          "type": "address"
        },
        {
          "indexed": false,
          "internalType": "bool",
          "name": "approved",
          "type": "bool"
        }
      ],
      "name": "ApprovalForAll",
      "type": "event"
    },
    {
      "anonymous": false,
      "inputs": [
        {
          "indexed": true,
          "internalType": "address",
          "name": "previousOwner",
          "type": "address"
        },
        {
          "indexed": true,
          "internalType": "address",
          "name": "newOwner",
          "type": "address"
        }
      ],
      "name": "OwnershipTransferred",
      "type": "event"
    },
    {
      "anonymous": false,
      "inputs": [
        {
          "indexed": false,
          "internalType": "address",
          "name": "account",
          "type": "address"
        }
      ],
      "name": "Paused",
      "type": "event"
    },
    {
      "anonymous": false,
      "inputs": [
        {
          "indexed": true,
          "internalType": "address",
          "name": "from",
          "type": "address"
        },
        {
          "indexed": true,
          "internalType": "address",
          "name": "to",
          "type": "address"
        },
        {
          "indexed": true,
          "internalType": "uint256",
          "name": "tokenId",
          "type": "uint256"
        }
      ],
      "name": "Transfer",
      "type": "event"
    },
    {
      "anonymous": false,
      "inputs": [
        {
          "indexed": false,
          "internalType": "address",
          "name": "account",
          "type": "address"
        }
      ],
      "name": "Unpaused",
      "type": "event"
    },
    {
      "inputs": [],
      "name": "_uriQuantum",
      "outputs": [
        {
          "internalType": "string",
          "name": "",
          "type": "string"
        }
      ],
      "stateMutability": "view",
      "type": "function"
    },
    {
      "inputs": [],
      "name": "_uriS3200",
      "outputs": [
        {
          "internalType": "string",
          "name": "",
          "type": "string"
        }
      ],
      "stateMutability": "view",
      "type": "function"
    },
    {
      "inputs": [
        {
          "internalType": "address",
          "name": "to",
          "type": "address"
        },
        {
          "internalType": "uint256",
          "name": "tokenId",
          "type": "uint256"
        }
      ],
      "name": "approve",
      "outputs": [],
      "stateMutability": "nonpayable",
      "type": "function"
    },
    {
      "inputs": [
        {
          "internalType": "address",
          "name": "owner",
          "type": "address"
        }
      ],
      "name": "balanceOf",
      "outputs": [
        {
          "internalType": "uint256",
          "name": "",
          "type": "uint256"
        }
      ],
      "stateMutability": "view",
      "type": "function"
    },
    {
      "inputs": [
        {
          "internalType": "address",
          "name": "client",
          "type": "address"
        },
        {
          "internalType": "uint256",
          "name": "typeMateriel",
          "type": "uint256"
        },
        {
          "internalType": "string",
          "name": "referenceMateriel",
          "type": "string"
        }
      ],
      "name": "expedition",
      "outputs": [],
      "stateMutability": "nonpayable",
      "type": "function"
    },
    {
      "inputs": [
        {
          "internalType": "uint256",
          "name": "tokenId",
          "type": "uint256"
        }
      ],
      "name": "getApproved",
      "outputs": [
        {
          "internalType": "address",
          "name": "",
          "type": "address"
        }
      ],
      "stateMutability": "view",
      "type": "function"
    },
    {
      "inputs": [
        {
          "internalType": "address",
          "name": "client",
          "type": "address"
        }
      ],
      "name": "getIdByClient",
      "outputs": [
        {
          "internalType": "string[]",
          "name": "",
          "type": "string[]"
        }
      ],
      "stateMutability": "view",
      "type": "function"
    },
    {
      "inputs": [],
      "name": "getJsonCommandes",
      "outputs": [
        {
          "internalType": "string",
          "name": "",
          "type": "string"
        }
      ],
      "stateMutability": "view",
      "type": "function"
    },
    {
      "inputs": [],
      "name": "getUriQuantum",
      "outputs": [
        {
          "internalType": "string",
          "name": "",
          "type": "string"
        }
      ],
      "stateMutability": "view",
      "type": "function"
    },
    {
      "inputs": [],
      "name": "getUriS3200",
      "outputs": [
        {
          "internalType": "string",
          "name": "",
          "type": "string"
        }
      ],
      "stateMutability": "view",
      "type": "function"
    },
    {
      "inputs": [
        {
          "internalType": "address",
          "name": "owner",
          "type": "address"
        },
        {
          "internalType": "address",
          "name": "operator",
          "type": "address"
        }
      ],
      "name": "isApprovedForAll",
      "outputs": [
        {
          "internalType": "bool",
          "name": "",
          "type": "bool"
        }
      ],
      "stateMutability": "view",
      "type": "function"
    },
    {
      "inputs": [],
      "name": "name",
      "outputs": [
        {
          "internalType": "string",
          "name": "",
          "type": "string"
        }
      ],
      "stateMutability": "view",
      "type": "function"
    },
    {
      "inputs": [],
      "name": "owner",
      "outputs": [
        {
          "internalType": "address",
          "name": "",
          "type": "address"
        }
      ],
      "stateMutability": "view",
      "type": "function"
    },
    {
      "inputs": [
        {
          "internalType": "uint256",
          "name": "tokenId",
          "type": "uint256"
        }
      ],
      "name": "ownerOf",
      "outputs": [
        {
          "internalType": "address",
          "name": "",
          "type": "address"
        }
      ],
      "stateMutability": "view",
      "type": "function"
    },
    {
      "inputs": [],
      "name": "pause",
      "outputs": [],
      "stateMutability": "nonpayable",
      "type": "function"
    },
    {
      "inputs": [],
      "name": "paused",
      "outputs": [
        {
          "internalType": "bool",
          "name": "",
          "type": "bool"
        }
      ],
      "stateMutability": "view",
      "type": "function"
    },
    {
      "inputs": [
        {
          "internalType": "address",
          "name": "client",
          "type": "address"
        },
        {
          "internalType": "uint256",
          "name": "itemId",
          "type": "uint256"
        },
        {
          "internalType": "uint256",
          "name": "workflowState",
          "type": "uint256"
        }
      ],
      "name": "reception",
      "outputs": [],
      "stateMutability": "nonpayable",
      "type": "function"
    },
    {
      "inputs": [
        {
          "internalType": "uint256",
          "name": "itemId",
          "type": "uint256"
        },
        {
          "internalType": "string",
          "name": "transaction",
          "type": "string"
        }
      ],
      "name": "receptionTransactionByContrat",
      "outputs": [],
      "stateMutability": "nonpayable",
      "type": "function"
    },
    {
      "inputs": [],
      "name": "renounceOwnership",
      "outputs": [],
      "stateMutability": "nonpayable",
      "type": "function"
    },
    {
      "inputs": [
        {
          "internalType": "address",
          "name": "from",
          "type": "address"
        },
        {
          "internalType": "address",
          "name": "to",
          "type": "address"
        },
        {
          "internalType": "uint256",
          "name": "tokenId",
          "type": "uint256"
        }
      ],
      "name": "safeTransferFrom",
      "outputs": [],
      "stateMutability": "nonpayable",
      "type": "function"
    },
    {
      "inputs": [
        {
          "internalType": "address",
          "name": "from",
          "type": "address"
        },
        {
          "internalType": "address",
          "name": "to",
          "type": "address"
        },
        {
          "internalType": "uint256",
          "name": "tokenId",
          "type": "uint256"
        },
        {
          "internalType": "bytes",
          "name": "data",
          "type": "bytes"
        }
      ],
      "name": "safeTransferFrom",
      "outputs": [],
      "stateMutability": "nonpayable",
      "type": "function"
    },
    {
      "inputs": [
        {
          "internalType": "address",
          "name": "operator",
          "type": "address"
        },
        {
          "internalType": "bool",
          "name": "approved",
          "type": "bool"
        }
      ],
      "name": "setApprovalForAll",
      "outputs": [],
      "stateMutability": "nonpayable",
      "type": "function"
    },
    {
      "inputs": [
        {
          "internalType": "string",
          "name": "uriQuantum",
          "type": "string"
        }
      ],
      "name": "setUriQuantum",
      "outputs": [],
      "stateMutability": "nonpayable",
      "type": "function"
    },
    {
      "inputs": [
        {
          "internalType": "string",
          "name": "uriS3200",
          "type": "string"
        }
      ],
      "name": "setUriS3200",
      "outputs": [],
      "stateMutability": "nonpayable",
      "type": "function"
    },
    {
      "inputs": [
        {
          "internalType": "bytes4",
          "name": "interfaceId",
          "type": "bytes4"
        }
      ],
      "name": "supportsInterface",
      "outputs": [
        {
          "internalType": "bool",
          "name": "",
          "type": "bool"
        }
      ],
      "stateMutability": "view",
      "type": "function"
    },
    {
      "inputs": [],
      "name": "symbol",
      "outputs": [
        {
          "internalType": "string",
          "name": "",
          "type": "string"
        }
      ],
      "stateMutability": "view",
      "type": "function"
    },
    {
      "inputs": [
        {
          "internalType": "uint256",
          "name": "tokenId",
          "type": "uint256"
        }
      ],
      "name": "tokenURI",
      "outputs": [
        {
          "internalType": "string",
          "name": "",
          "type": "string"
        }
      ],
      "stateMutability": "view",
      "type": "function"
    },
    {
      "inputs": [
        {
          "internalType": "address",
          "name": "from",
          "type": "address"
        },
        {
          "internalType": "address",
          "name": "to",
          "type": "address"
        },
        {
          "internalType": "uint256",
          "name": "tokenId",
          "type": "uint256"
        }
      ],
      "name": "transferFrom",
      "outputs": [],
      "stateMutability": "nonpayable",
      "type": "function"
    },
    {
      "inputs": [
        {
          "internalType": "address",
          "name": "newOwner",
          "type": "address"
        }
      ],
      "name": "transferOwnership",
      "outputs": [],
      "stateMutability": "nonpayable",
      "type": "function"
    },
    {
      "inputs": [],
      "name": "unpause",
      "outputs": [],
      "stateMutability": "nonpayable",
      "type": "function"
    }
  ],
  "bytecode": "0x60806040523480156200001157600080fd5b506040516200322338038062003223833981016040819052620000349162000267565b8251839083906200004d906000906020850190620000f4565b50805162000063906001906020840190620000f4565b50506007805460ff19169055506200007b336200009a565b805162000090906009906020840190620000f4565b5050505062000335565b600780546001600160a01b03838116610100818102610100600160a81b031985161790945560405193909204169182907f8be0079c531659141344cd1fd0a4f28419497f9722a3daafe3b4186f6b6457e090600090a35050565b8280546200010290620002f8565b90600052602060002090601f01602090048101928262000126576000855562000171565b82601f106200014157805160ff191683800117855562000171565b8280016001018555821562000171579182015b828111156200017157825182559160200191906001019062000154565b506200017f92915062000183565b5090565b5b808211156200017f576000815560010162000184565b634e487b7160e01b600052604160045260246000fd5b600082601f830112620001c257600080fd5b81516001600160401b0380821115620001df57620001df6200019a565b604051601f8301601f19908116603f011681019082821181831017156200020a576200020a6200019a565b816040528381526020925086838588010111156200022757600080fd5b600091505b838210156200024b57858201830151818301840152908201906200022c565b838211156200025d5760008385830101525b9695505050505050565b6000806000606084860312156200027d57600080fd5b83516001600160401b03808211156200029557600080fd5b620002a387838801620001b0565b94506020860151915080821115620002ba57600080fd5b620002c887838801620001b0565b93506040860151915080821115620002df57600080fd5b50620002ee86828701620001b0565b9150509250925092565b600181811c908216806200030d57607f821691505b602082108114156200032f57634e487b7160e01b600052602260045260246000fd5b50919050565b612ede80620003456000396000f3fe608060405234801561001057600080fd5b50600436106101da5760003560e01c80636352211e11610104578063a22cb465116100a2578063c87b56dd11610071578063c87b56dd146103b1578063ddf387f4146103c4578063e985e9c5146103d7578063f2fde38b1461041357600080fd5b8063a22cb46514610370578063a27421af14610383578063b88d4fde14610396578063b9ce1395146103a957600080fd5b8063715018a6116100de578063715018a6146103425780638456cb591461034a5780638da5cb5b1461035257806395d89b411461036857600080fd5b80636352211e146102fb57806370a082311461030e5780637140f00c1461032f57600080fd5b806337bd6c5e1161017c5780634835cae71161014b5780634835cae7146102cd5780634cb01278146102d55780634fb75e4f146102e85780635c975abb146102f057600080fd5b806337bd6c5e146102a25780633f4ba83a146102aa57806342842e0e146102b2578063457d5338146102c557600080fd5b8063095ea7b3116101b8578063095ea7b314610247578063213f61b31461025c57806323b872dd1461027c5780632a40807c1461028f57600080fd5b806301ffc9a7146101df57806306fdde0314610207578063081812fc1461021c575b600080fd5b6101f26101ed366004612519565b610426565b60405190151581526020015b60405180910390f35b61020f610478565b6040516101fe919061258e565b61022f61022a3660046125a1565b61050a565b6040516001600160a01b0390911681526020016101fe565b61025a6102553660046125d6565b610531565b005b61026f61026a366004612600565b61064c565b6040516101fe919061261b565b61025a61028a36600461267d565b610873565b61025a61029d366004612765565b6108a4565b61020f6108c3565b61025a610951565b61025a6102c036600461267d565b610963565b61020f61097e565b61020f61098d565b61025a6102e336600461279a565b61099c565b61020f610adc565b60075460ff166101f2565b61022f6103093660046125a1565b610d5c565b61032161031c366004612600565b610dbc565b6040519081526020016101fe565b61025a61033d3660046127cd565b610e42565b61025a610e86565b61025a610e98565b60075461010090046001600160a01b031661022f565b61020f610ea8565b61025a61037e366004612814565b610eb7565b61025a610391366004612850565b610ec2565b61025a6103a43660046128a7565b611135565b61020f611167565b61020f6103bf3660046125a1565b611174565b61025a6103d2366004612765565b611278565b6101f26103e5366004612923565b6001600160a01b03918216600090815260056020908152604080832093909416825291909152205460ff1690565b61025a610421366004612600565b611293565b60006001600160e01b031982166380ac58cd60e01b148061045757506001600160e01b03198216635b5e139f60e01b145b8061047257506301ffc9a760e01b6001600160e01b03198316145b92915050565b60606000805461048790612956565b80601f01602080910402602001604051908101604052809291908181526020018280546104b390612956565b80156105005780601f106104d557610100808354040283529160200191610500565b820191906000526020600020905b8154815290600101906020018083116104e357829003601f168201915b5050505050905090565b60006105158261130c565b506000908152600460205260409020546001600160a01b031690565b600061053c82610d5c565b9050806001600160a01b0316836001600160a01b031614156105af5760405162461bcd60e51b815260206004820152602160248201527f4552433732313a20617070726f76616c20746f2063757272656e74206f776e656044820152603960f91b60648201526084015b60405180910390fd5b336001600160a01b03821614806105cb57506105cb81336103e5565b61063d5760405162461bcd60e51b815260206004820152603d60248201527f4552433732313a20617070726f76652063616c6c6572206973206e6f7420746f60448201527f6b656e206f776e6572206f7220617070726f76656420666f7220616c6c00000060648201526084016105a6565b610647838361136b565b505050565b606061068d6040518060400160405280601881526020017f67657449644279436c69656e7420616464726573732025730000000000000000815250836113d9565b6000806106998461141e565b67ffffffffffffffff8111156106b1576106b16126b9565b6040519080825280602002602001820160405280156106e457816020015b60608152602001906001900390816106cf5790505b50905060005b60085481101561086b576000818152600c60209081526040808320815160c08101835281546001600160a01b03908116825260018301541693810193909352600281018054919284019161073d90612956565b80601f016020809104026020016040519081016040528092919081815260200182805461076990612956565b80156107b65780601f1061078b576101008083540402835291602001916107b6565b820191906000526020600020905b81548152906001019060200180831161079957829003601f168201915b5050509183525050600382810154602083015260048301546040830152600583015460609092019160ff16908111156107f1576107f161298b565b60038111156108025761080261298b565b815250509050856001600160a01b031681602001516001600160a01b031614156108585761082f826115e6565b838561083a816129b7565b96508151811061084c5761084c6129d2565b60200260200101819052505b5080610863816129b7565b9150506106ea565b509392505050565b61087d338261167b565b6108995760405162461bcd60e51b81526004016105a6906129e8565b6106478383836116f9565b6108ac61186a565b80516108bf90600b90602084019061246a565b5050565b600a80546108d090612956565b80601f01602080910402602001604051908101604052809291908181526020018280546108fc90612956565b80156109495780601f1061091e57610100808354040283529160200191610949565b820191906000526020600020905b81548152906001019060200180831161092c57829003601f168201915b505050505081565b61095961186a565b6109616118ca565b565b61064783838360405180602001604052806000815250611135565b6060600a805461048790612956565b6060600b805461048790612956565b6109dc6040518060400160405280601e81526020017f726563657074696f6e2061646472657373202573206974656d49642025730000815250848461191c565b6001600160a01b038316610a275760405162461bcd60e51b815260206004820152601260248201527141646472657373206e6f742076616c69646560701b60448201526064016105a6565b801580610a345750806001145b610a805760405162461bcd60e51b815260206004820152601860248201527f776f726b666c6f775374617465206e6f742076616c696465000000000000000060448201526064016105a6565b80610aa6576000828152600c60205260409020600501805460ff19166002179055610ac3565b6000828152600c60205260409020600501805460ff191660031790555b506000908152600c602052604090204260049091015550565b60408051808201825260018152605b60f81b60208083019190915282519081019092526000808352606092905b6008548160ff161015610d075760ff81166000908152600c60209081526040808320815160c08101835281546001600160a01b039081168252600183015416938101939093526002810180549192840191610b6390612956565b80601f0160208091040260200160405190810160405280929190818152602001828054610b8f90612956565b8015610bdc5780601f10610bb157610100808354040283529160200191610bdc565b820191906000526020600020905b815481529060010190602001808311610bbf57829003601f168201915b5050509183525050600382810154602083015260048301546040830152600583015460609092019160ff1690811115610c1757610c1761298b565b6003811115610c2857610c2861298b565b905250905060ff821615610c5357604051806040016040528060018152602001600b60fa1b81525092505b600083610c628460ff166115e6565b8351610c6d90611963565b610c7a8560200151611963565b8560400151610c8c87606001516115e6565b610c9988608001516115e6565b610ca68960a00151611979565b604051602001610cbd989796959493929190612a51565b60405160208183030381529060405290508481604051602001610ce1929190612b9c565b604051602081830303815290604052945050508080610cff90612bcb565b915050610b09565b5081604051602001610d199190612beb565b60408051601f19818403018152828201909152601182527002539b7b721b7b6b6b0b73232b99012b99607d1b60208301529250610d569083611a88565b50919050565b6000818152600260205260408120546001600160a01b0316806104725760405162461bcd60e51b8152602060048201526018602482015277115490cdcc8c4e881a5b9d985b1a59081d1bdad95b88125160421b60448201526064016105a6565b60006001600160a01b038216610e265760405162461bcd60e51b815260206004820152602960248201527f4552433732313a2061646472657373207a65726f206973206e6f7420612076616044820152683634b21037bbb732b960b91b60648201526084016105a6565b506001600160a01b031660009081526003602052604090205490565b610e64604051806060016040528060278152602001612e0f6027913983611acd565b6108bf6040518060600160405280602c8152602001612e5b602c913982611a88565b610e8e61186a565b6109616000611b12565b610ea061186a565b610961611b79565b60606001805461048790612956565b6108bf338383611bb6565b610ee5604051806060016040528060258152602001612e3660259139848461191c565b6001600160a01b038316610f305760405162461bcd60e51b815260206004820152601260248201527141646472657373206e6f742076616c69646560701b60448201526064016105a6565b811580610f3d5750816001145b610f895760405162461bcd60e51b815260206004820152601b60248201527f54797065206465204d6174657269656c206e6f742076616c696465000000000060448201526064016105a6565b6000610f9460085490565b9050610fa08482611c85565b8261103e5761103981600a8054610fb690612956565b80601f0160208091040260200160405190810160405280929190818152602001828054610fe290612956565b801561102f5780601f106110045761010080835404028352916020019161102f565b820191906000526020600020905b81548152906001019060200180831161101257829003601f168201915b5050505050611c9f565b61104f565b61104f81600b8054610fb690612956565b6040805160c0810182523381526001600160a01b03861660208201529081018390524260608201526000608082015260a08101600190526000828152600c6020908152604091829020835181546001600160a01b039182166001600160a01b0319918216178355858401516001840180549190931691161790559183015180516110df926002850192019061246a565b50606082015181600301556080820151816004015560a08201518160050160006101000a81548160ff0219169083600381111561111e5761111e61298b565b021790555050600880546001019055505b50505050565b61113f338361167b565b61115b5760405162461bcd60e51b81526004016105a6906129e8565b61112f84848484611d39565b600b80546108d090612956565b606061117f8261130c565b6000828152600660205260408120805461119890612956565b80601f01602080910402602001604051908101604052809291908181526020018280546111c490612956565b80156112115780601f106111e657610100808354040283529160200191611211565b820191906000526020600020905b8154815290600101906020018083116111f457829003601f168201915b505050505090506000611222611d6c565b9050805160001415611235575092915050565b81511561126757808260405160200161124f929190612b9c565b60405160208183030381529060405292505050919050565b61127084611d7b565b949350505050565b61128061186a565b80516108bf90600a90602084019061246a565b61129b61186a565b6001600160a01b0381166113005760405162461bcd60e51b815260206004820152602660248201527f4f776e61626c653a206e6577206f776e657220697320746865207a65726f206160448201526564647265737360d01b60648201526084016105a6565b61130981611b12565b50565b6000818152600260205260409020546001600160a01b03166113095760405162461bcd60e51b8152602060048201526018602482015277115490cdcc8c4e881a5b9d985b1a59081d1bdad95b88125160421b60448201526064016105a6565b600081815260046020526040902080546001600160a01b0319166001600160a01b03841690811790915581906113a082610d5c565b6001600160a01b03167f8c5be1e5ebec7d5bd14f71427d1e84f3dd0314c0f7b2291e5b200ac8c7c3b92560405160405180910390a45050565b6108bf82826040516024016113ef929190612c10565b60408051601f198184030181529190526020810180516001600160e01b031663319af33360e01b179052611de2565b600080805b6008548110156115a6576000818152600c60209081526040808320815160c08101835281546001600160a01b03908116825260018301541693810193909352600281018054919284019161147690612956565b80601f01602080910402602001604051908101604052809291908181526020018280546114a290612956565b80156114ef5780601f106114c4576101008083540402835291602001916114ef565b820191906000526020600020905b8154815290600101906020018083116114d257829003601f168201915b5050509183525050600382810154602083015260048301546040830152600583015460609092019160ff169081111561152a5761152a61298b565b600381111561153b5761153b61298b565b815250509050611567604051806060016040528060228152602001612e876022913982602001516113d9565b846001600160a01b031681602001516001600160a01b03161415611593578261158f816129b7565b9350505b508061159e816129b7565b915050611423565b506104726040518060400160405280601c81526020017f67657453697a654279436c69656e74206974656d436f756e742025730000000081525082611acd565b606060006115f383611deb565b600101905060008167ffffffffffffffff811115611613576116136126b9565b6040519080825280601f01601f19166020018201604052801561163d576020820181803683370190505b5090508181016020015b600019016f181899199a1a9b1b9c1cb0b131b232b360811b600a86061a8153600a85049450846116765761086b565b611647565b60008061168783610d5c565b9050806001600160a01b0316846001600160a01b031614806116ce57506001600160a01b0380821660009081526005602090815260408083209388168352929052205460ff165b806112705750836001600160a01b03166116e78461050a565b6001600160a01b031614949350505050565b826001600160a01b031661170c82610d5c565b6001600160a01b0316146117325760405162461bcd60e51b81526004016105a690612c3b565b6001600160a01b0382166117945760405162461bcd60e51b8152602060048201526024808201527f4552433732313a207472616e7366657220746f20746865207a65726f206164646044820152637265737360e01b60648201526084016105a6565b6117a18383836001611ec3565b826001600160a01b03166117b482610d5c565b6001600160a01b0316146117da5760405162461bcd60e51b81526004016105a690612c3b565b600081815260046020908152604080832080546001600160a01b03199081169091556001600160a01b0387811680865260038552838620805460001901905590871680865283862080546001019055868652600290945282852080549092168417909155905184937fddf252ad1be2c89b69c2b068fc378daa952ba7f163c4a11628f55a4df523b3ef91a4505050565b6007546001600160a01b036101009091041633146109615760405162461bcd60e51b815260206004820181905260248201527f4f776e61626c653a2063616c6c6572206973206e6f7420746865206f776e657260448201526064016105a6565b6118d2611f4b565b6007805460ff191690557f5db9ee0a495bf2e6ff9c91a7834c1ba4fdd244a5e8aa4e537bd38aeae4b073aa335b6040516001600160a01b03909116815260200160405180910390a1565b61064783838360405160240161193493929190612c80565b60408051601f198184030181529190526020810180516001600160e01b0316630d26b92560e01b179052611de2565b60606104726001600160a01b0383166014611f9d565b606081600381111561198d5761198d61298b565b6119b557505060408051808201909152600881526721b932b0ba34b7b760c11b602082015290565b8160038111156119c7576119c761298b565b600114156119f557505060408051808201909152600a81526922bc3832b234ba34b7b760b11b602082015290565b816003811115611a0757611a0761298b565b60021415611a345750506040805180820190915260098152682932b1b2b83a34b7b760b91b602082015290565b816003811115611a4657611a4661298b565b60031415611a7457505060408051808201909152600a81526920b7373ab630ba34b7b760b11b602082015290565b505060408051602081019091526000815290565b6108bf8282604051602401611a9e929190612cae565b60408051601f198184030181529190526020810180516001600160e01b0316634b5c427760e01b179052611de2565b6108bf8282604051602401611ae3929190612cdc565b60408051601f198184030181529190526020810180516001600160e01b0316632d839cb360e21b179052611de2565b600780546001600160a01b0383811661010081810274ffffffffffffffffffffffffffffffffffffffff001985161790945560405193909204169182907f8be0079c531659141344cd1fd0a4f28419497f9722a3daafe3b4186f6b6457e090600090a35050565b611b81612139565b6007805460ff191660011790557f62e78cea01bee320cd4e420270b5ea74000d11b0c9f74754ebdbfc544b05a2586118ff3390565b816001600160a01b0316836001600160a01b03161415611c185760405162461bcd60e51b815260206004820152601960248201527f4552433732313a20617070726f766520746f2063616c6c65720000000000000060448201526064016105a6565b6001600160a01b03838116600081815260056020908152604080832094871680845294825291829020805460ff191686151590811790915591519182527f17307eab39ab6107e8899845ad3d59bd9653f200f220920489ca2b5937696c31910160405180910390a3505050565b6108bf82826040518060200160405280600081525061217f565b6000828152600260205260409020546001600160a01b0316611d1a5760405162461bcd60e51b815260206004820152602e60248201527f45524337323155524953746f726167653a2055524920736574206f66206e6f6e60448201526d32bc34b9ba32b73a103a37b5b2b760911b60648201526084016105a6565b600082815260066020908152604090912082516106479284019061246a565b611d448484846116f9565b611d50848484846121b2565b61112f5760405162461bcd60e51b81526004016105a690612cfe565b60606009805461048790612956565b6060611d868261130c565b6000611d90611d6c565b90506000815111611db05760405180602001604052806000815250611ddb565b80611dba846115e6565b604051602001611dcb929190612b9c565b6040516020818303038152906040525b9392505050565b611309816122b0565b60008072184f03e93ff9f4daa797ed6e38ed64bf6a1f0160401b8310611e2a5772184f03e93ff9f4daa797ed6e38ed64bf6a1f0160401b830492506040015b6d04ee2d6d415b85acef81000000008310611e56576d04ee2d6d415b85acef8100000000830492506020015b662386f26fc100008310611e7457662386f26fc10000830492506010015b6305f5e1008310611e8c576305f5e100830492506008015b6127108310611ea057612710830492506004015b60648310611eb2576064830492506002015b600a83106104725760010192915050565b600181111561112f576001600160a01b03841615611f09576001600160a01b03841660009081526003602052604081208054839290611f03908490612d50565b90915550505b6001600160a01b0383161561112f576001600160a01b03831660009081526003602052604081208054839290611f40908490612d67565b909155505050505050565b60075460ff166109615760405162461bcd60e51b815260206004820152601460248201527f5061757361626c653a206e6f742070617573656400000000000000000000000060448201526064016105a6565b60606000611fac836002612d7f565b611fb7906002612d67565b67ffffffffffffffff811115611fcf57611fcf6126b9565b6040519080825280601f01601f191660200182016040528015611ff9576020820181803683370190505b509050600360fc1b81600081518110612014576120146129d2565b60200101906001600160f81b031916908160001a905350600f60fb1b81600181518110612043576120436129d2565b60200101906001600160f81b031916908160001a9053506000612067846002612d7f565b612072906001612d67565b90505b60018111156120ea576f181899199a1a9b1b9c1cb0b131b232b360811b85600f16601081106120a6576120a66129d2565b1a60f81b8282815181106120bc576120bc6129d2565b60200101906001600160f81b031916908160001a90535060049490941c936120e381612d9e565b9050612075565b508315611ddb5760405162461bcd60e51b815260206004820181905260248201527f537472696e67733a20686578206c656e67746820696e73756666696369656e7460448201526064016105a6565b60075460ff16156109615760405162461bcd60e51b815260206004820152601060248201526f14185d5cd8589b194e881c185d5cd95960821b60448201526064016105a6565b61218983836122d1565b61219660008484846121b2565b6106475760405162461bcd60e51b81526004016105a690612cfe565b60006001600160a01b0384163b156122a557604051630a85bd0160e11b81526001600160a01b0385169063150b7a02906121f6903390899088908890600401612db5565b6020604051808303816000875af1925050508015612231575060408051601f3d908101601f1916820190925261222e91810190612df1565b60015b61228b573d80801561225f576040519150601f19603f3d011682016040523d82523d6000602084013e612264565b606091505b5080516122835760405162461bcd60e51b81526004016105a690612cfe565b805181602001fd5b6001600160e01b031916630a85bd0160e11b149050611270565b506001949350505050565b60006a636f6e736f6c652e6c6f679050600080835160208501845afa505050565b6001600160a01b0382166123275760405162461bcd60e51b815260206004820181905260248201527f4552433732313a206d696e7420746f20746865207a65726f206164647265737360448201526064016105a6565b6000818152600260205260409020546001600160a01b03161561238c5760405162461bcd60e51b815260206004820152601c60248201527f4552433732313a20746f6b656e20616c7265616479206d696e7465640000000060448201526064016105a6565b61239a600083836001611ec3565b6000818152600260205260409020546001600160a01b0316156123ff5760405162461bcd60e51b815260206004820152601c60248201527f4552433732313a20746f6b656e20616c7265616479206d696e7465640000000060448201526064016105a6565b6001600160a01b038216600081815260036020908152604080832080546001019055848352600290915280822080546001600160a01b0319168417905551839291907fddf252ad1be2c89b69c2b068fc378daa952ba7f163c4a11628f55a4df523b3ef908290a45050565b82805461247690612956565b90600052602060002090601f01602090048101928261249857600085556124de565b82601f106124b157805160ff19168380011785556124de565b828001600101855582156124de579182015b828111156124de5782518255916020019190600101906124c3565b506124ea9291506124ee565b5090565b5b808211156124ea57600081556001016124ef565b6001600160e01b03198116811461130957600080fd5b60006020828403121561252b57600080fd5b8135611ddb81612503565b60005b83811015612551578181015183820152602001612539565b8381111561112f5750506000910152565b6000815180845261257a816020860160208601612536565b601f01601f19169290920160200192915050565b602081526000611ddb6020830184612562565b6000602082840312156125b357600080fd5b5035919050565b80356001600160a01b03811681146125d157600080fd5b919050565b600080604083850312156125e957600080fd5b6125f2836125ba565b946020939093013593505050565b60006020828403121561261257600080fd5b611ddb826125ba565b6000602080830181845280855180835260408601915060408160051b870101925083870160005b8281101561267057603f1988860301845261265e858351612562565b94509285019290850190600101612642565b5092979650505050505050565b60008060006060848603121561269257600080fd5b61269b846125ba565b92506126a9602085016125ba565b9150604084013590509250925092565b634e487b7160e01b600052604160045260246000fd5b600067ffffffffffffffff808411156126ea576126ea6126b9565b604051601f8501601f19908116603f01168101908282118183101715612712576127126126b9565b8160405280935085815286868601111561272b57600080fd5b858560208301376000602087830101525050509392505050565b600082601f83011261275657600080fd5b611ddb838335602085016126cf565b60006020828403121561277757600080fd5b813567ffffffffffffffff81111561278e57600080fd5b61127084828501612745565b6000806000606084860312156127af57600080fd5b6127b8846125ba565b95602085013595506040909401359392505050565b600080604083850312156127e057600080fd5b82359150602083013567ffffffffffffffff8111156127fe57600080fd5b61280a85828601612745565b9150509250929050565b6000806040838503121561282757600080fd5b612830836125ba565b91506020830135801515811461284557600080fd5b809150509250929050565b60008060006060848603121561286557600080fd5b61286e846125ba565b925060208401359150604084013567ffffffffffffffff81111561289157600080fd5b61289d86828701612745565b9150509250925092565b600080600080608085870312156128bd57600080fd5b6128c6856125ba565b93506128d4602086016125ba565b925060408501359150606085013567ffffffffffffffff8111156128f757600080fd5b8501601f8101871361290857600080fd5b612917878235602084016126cf565b91505092959194509250565b6000806040838503121561293657600080fd5b61293f836125ba565b915061294d602084016125ba565b90509250929050565b600181811c9082168061296a57607f821691505b60208210811415610d5657634e487b7160e01b600052602260045260246000fd5b634e487b7160e01b600052602160045260246000fd5b634e487b7160e01b600052601160045260246000fd5b60006000198214156129cb576129cb6129a1565b5060010190565b634e487b7160e01b600052603260045260246000fd5b6020808252602d908201527f4552433732313a2063616c6c6572206973206e6f7420746f6b656e206f776e6560408201526c1c881bdc88185c1c1c9bdd9959609a1b606082015260800190565b60008151612a47818560208601612536565b9290920192915050565b60008951612a63818460208e01612536565b607b60f81b908301908152641134b2111d60d91b60018201528951612a8f816006840160208e01612536565b6f16113337bab93734b9b9b2bab9111d1160811b60069290910191820152612aba601682018a612a35565b6b11161131b634b2b73a111d1160a11b81529050612adb600c820189612a35565b7f222c227265666572656e63654d6174657269656c223a2200000000000000000081529050612b0d6017820188612a35565b721116113230ba32a2bc3832b234ba34b7b7111d60691b81529050612b356013820187612a35565b7016113230ba32a932b1b2b83a34b7b7111d60791b81529050612b5b6011820186612a35565b7116113bb7b935b33637bba9ba30ba32911d1160711b81529050612b826012820185612a35565b61227d60f01b81526002019b9a5050505050505050505050565b60008351612bae818460208801612536565b835190830190612bc2818360208801612536565b01949350505050565b600060ff821660ff811415612be257612be26129a1565b60010192915050565b60008251612bfd818460208701612536565b605d60f81b920191825250600101919050565b604081526000612c236040830185612562565b90506001600160a01b03831660208301529392505050565b60208082526025908201527f4552433732313a207472616e736665722066726f6d20696e636f72726563742060408201526437bbb732b960d91b606082015260800190565b606081526000612c936060830186612562565b6001600160a01b039490941660208301525060400152919050565b604081526000612cc16040830185612562565b8281036020840152612cd38185612562565b95945050505050565b604081526000612cef6040830185612562565b90508260208301529392505050565b60208082526032908201527f4552433732313a207472616e7366657220746f206e6f6e20455243373231526560408201527131b2b4bb32b91034b6b83632b6b2b73a32b960711b606082015260800190565b600082821015612d6257612d626129a1565b500390565b60008219821115612d7a57612d7a6129a1565b500190565b6000816000190483118215151615612d9957612d996129a1565b500290565b600081612dad57612dad6129a1565b506000190190565b60006001600160a01b03808716835280861660208401525083604083015260806060830152612de76080830184612562565b9695505050505050565b600060208284031215612e0357600080fd5b8151611ddb8161250356fe726563657074696f6e5472616e73616374696f6e4279436f6e74726174206974656d496420257365787065646974696f6e206164647265737320257320747970654d6174657269656c202573726563657074696f6e5472616e73616374696f6e4279436f6e74726174207472616e73616374696f6e20257367657453697a654279436c69656e7420636f6d6d616e64652e636c69656e74202573a264697066735822122090978aa94e39e3358df7f0c828937aee352ef645126c52e955f43135e3c4924864736f6c634300080c0033",
  "linkReferences": {},
  "deployedLinkReferences": {}
}