{
  "_format": "hh-sol-artifact-1",
  "contractName": "Demonstrateur",
  "sourceName": "contracts/Demonstrateur.sol",
  "abi": [
    {
      "inputs": [
        {
          "internalType": "address",
          "name": "target",
          "type": "address"
        }
      ],
      "name": "AddressEmptyCode",
      "type": "error"
    },
    {
      "inputs": [
        {
          "internalType": "address",
          "name": "implementation",
          "type": "address"
        }
      ],
      "name": "ERC1967InvalidImplementation",
      "type": "error"
    },
    {
      "inputs": [],
      "name": "ERC1967NonPayable",
      "type": "error"
    },
    {
      "inputs": [
        {
          "internalType": "address",
          "name": "sender",
          "type": "address"
        },
        {
          "internalType": "uint256",
          "name": "tokenId",
          "type": "uint256"
        },
        {
          "internalType": "address",
          "name": "owner",
          "type": "address"
        }
      ],
      "name": "ERC721IncorrectOwner",
      "type": "error"
    },
    {
      "inputs": [
        {
          "internalType": "address",
          "name": "operator",
          "type": "address"
        },
        {
          "internalType": "uint256",
          "name": "tokenId",
          "type": "uint256"
        }
      ],
      "name": "ERC721InsufficientApproval",
      "type": "error"
    },
    {
      "inputs": [
        {
          "internalType": "address",
          "name": "approver",
          "type": "address"
        }
      ],
      "name": "ERC721InvalidApprover",
      "type": "error"
    },
    {
      "inputs": [
        {
          "internalType": "address",
          "name": "operator",
          "type": "address"
        }
      ],
      "name": "ERC721InvalidOperator",
      "type": "error"
    },
    {
      "inputs": [
        {
          "internalType": "address",
          "name": "owner",
          "type": "address"
        }
      ],
      "name": "ERC721InvalidOwner",
      "type": "error"
    },
    {
      "inputs": [
        {
          "internalType": "address",
          "name": "receiver",
          "type": "address"
        }
      ],
      "name": "ERC721InvalidReceiver",
      "type": "error"
    },
    {
      "inputs": [
        {
          "internalType": "address",
          "name": "sender",
          "type": "address"
        }
      ],
      "name": "ERC721InvalidSender",
      "type": "error"
    },
    {
      "inputs": [
        {
          "internalType": "uint256",
          "name": "tokenId",
          "type": "uint256"
        }
      ],
      "name": "ERC721NonexistentToken",
      "type": "error"
    },
    {
      "inputs": [],
      "name": "EnforcedPause",
      "type": "error"
    },
    {
      "inputs": [],
      "name": "ExpectedPause",
      "type": "error"
    },
    {
      "inputs": [],
      "name": "FailedInnerCall",
      "type": "error"
    },
    {
      "inputs": [],
      "name": "InvalidInitialization",
      "type": "error"
    },
    {
      "inputs": [],
      "name": "NotInitializing",
      "type": "error"
    },
    {
      "inputs": [
        {
          "internalType": "address",
          "name": "owner",
          "type": "address"
        }
      ],
      "name": "OwnableInvalidOwner",
      "type": "error"
    },
    {
      "inputs": [
        {
          "internalType": "address",
          "name": "account",
          "type": "address"
        }
      ],
      "name": "OwnableUnauthorizedAccount",
      "type": "error"
    },
    {
      "inputs": [
        {
          "internalType": "uint256",
          "name": "value",
          "type": "uint256"
        },
        {
          "internalType": "uint256",
          "name": "length",
          "type": "uint256"
        }
      ],
      "name": "StringsInsufficientHexLength",
      "type": "error"
    },
    {
      "inputs": [],
      "name": "UUPSUnauthorizedCallContext",
      "type": "error"
    },
    {
      "inputs": [
        {
          "internalType": "bytes32",
          "name": "slot",
          "type": "bytes32"
        }
      ],
      "name": "UUPSUnsupportedProxiableUUID",
      "type": "error"
    },
    {
      "anonymous": false,
      "inputs": [
        {
          "indexed": true,
          "internalType": "address",
          "name": "owner",
          "type": "address"
        },
        {
          "indexed": true,
          "internalType": "address",
          "name": "approved",
          "type": "address"
        },
        {
          "indexed": true,
          "internalType": "uint256",
          "name": "tokenId",
          "type": "uint256"
        }
      ],
      "name": "Approval",
      "type": "event"
    },
    {
      "anonymous": false,
      "inputs": [
        {
          "indexed": true,
          "internalType": "address",
          "name": "owner",
          "type": "address"
        },
        {
          "indexed": true,
          "internalType": "address",
          "name": "operator",
          "type": "address"
        },
        {
          "indexed": false,
          "internalType": "bool",
          "name": "approved",
          "type": "bool"
        }
      ],
      "name": "ApprovalForAll",
      "type": "event"
    },
    {
      "anonymous": false,
      "inputs": [
        {
          "indexed": false,
          "internalType": "uint256",
          "name": "_fromTokenId",
          "type": "uint256"
        },
        {
          "indexed": false,
          "internalType": "uint256",
          "name": "_toTokenId",
          "type": "uint256"
        }
      ],
      "name": "BatchMetadataUpdate",
      "type": "event"
    },
    {
      "anonymous": false,
      "inputs": [
        {
          "indexed": true,
          "internalType": "address",
          "name": "fournisseur",
          "type": "address"
        },
        {
          "indexed": false,
          "internalType": "string",
          "name": "nomFournisseur",
          "type": "string"
        },
        {
          "indexed": true,
          "internalType": "address",
          "name": "client",
          "type": "address"
        },
        {
          "indexed": false,
          "internalType": "string",
          "name": "nomClient",
          "type": "string"
        },
        {
          "indexed": false,
          "internalType": "uint256",
          "name": "tokenIds",
          "type": "uint256"
        },
        {
          "indexed": false,
          "internalType": "uint256",
          "name": "idMateriel",
          "type": "uint256"
        },
        {
          "indexed": false,
          "internalType": "string",
          "name": "nomMateriel",
          "type": "string"
        },
        {
          "indexed": false,
          "internalType": "string",
          "name": "referenceMateriel",
          "type": "string"
        },
        {
          "indexed": false,
          "internalType": "enum Demonstrateur.WorkflowState",
          "name": "workflowState",
          "type": "uint8"
        }
      ],
      "name": "EventExpedition",
      "type": "event"
    },
    {
      "anonymous": false,
      "inputs": [
        {
          "indexed": true,
          "internalType": "address",
          "name": "fournisseur",
          "type": "address"
        },
        {
          "indexed": false,
          "internalType": "string",
          "name": "nomFournisseur",
          "type": "string"
        },
        {
          "indexed": true,
          "internalType": "address",
          "name": "client",
          "type": "address"
        },
        {
          "indexed": false,
          "internalType": "string",
          "name": "nomClient",
          "type": "string"
        },
        {
          "indexed": false,
          "internalType": "uint256",
          "name": "tokenIds",
          "type": "uint256"
        },
        {
          "indexed": false,
          "internalType": "uint256",
          "name": "idMateriel",
          "type": "uint256"
        },
        {
          "indexed": false,
          "internalType": "string",
          "name": "nomMateriel",
          "type": "string"
        },
        {
          "indexed": false,
          "internalType": "string",
          "name": "referenceMateriel",
          "type": "string"
        },
        {
          "indexed": false,
          "internalType": "enum Demonstrateur.WorkflowState",
          "name": "workflowState",
          "type": "uint8"
        }
      ],
      "name": "EventReception",
      "type": "event"
    },
    {
      "anonymous": false,
      "inputs": [
        {
          "indexed": true,
          "internalType": "address",
          "name": "fournisseur",
          "type": "address"
        },
        {
          "indexed": false,
          "internalType": "string",
          "name": "nomFournisseur",
          "type": "string"
        },
        {
          "indexed": false,
          "internalType": "uint256",
          "name": "tokenIds",
          "type": "uint256"
        },
        {
          "indexed": false,
          "internalType": "uint256",
          "name": "idMateriel",
          "type": "uint256"
        },
        {
          "indexed": false,
          "internalType": "string",
          "name": "nomMateriel",
          "type": "string"
        },
        {
          "indexed": false,
          "internalType": "string",
          "name": "referenceMateriel",
          "type": "string"
        },
        {
          "indexed": false,
          "internalType": "enum Demonstrateur.WorkflowState",
          "name": "workflowState",
          "type": "uint8"
        }
      ],
      "name": "EventTokenination",
      "type": "event"
    },
    {
      "anonymous": false,
      "inputs": [
        {
          "indexed": false,
          "internalType": "uint64",
          "name": "version",
          "type": "uint64"
        }
      ],
      "name": "Initialized",
      "type": "event"
    },
    {
      "anonymous": false,
      "inputs": [
        {
          "indexed": false,
          "internalType": "uint256",
          "name": "_tokenId",
          "type": "uint256"
        }
      ],
      "name": "MetadataUpdate",
      "type": "event"
    },
    {
      "anonymous": false,
      "inputs": [
        {
          "indexed": true,
          "internalType": "address",
          "name": "previousOwner",
          "type": "address"
        },
        {
          "indexed": true,
          "internalType": "address",
          "name": "newOwner",
          "type": "address"
        }
      ],
      "name": "OwnershipTransferred",
      "type": "event"
    },
    {
      "anonymous": false,
      "inputs": [
        {
          "indexed": false,
          "internalType": "address",
          "name": "account",
          "type": "address"
        }
      ],
      "name": "Paused",
      "type": "event"
    },
    {
      "anonymous": false,
      "inputs": [
        {
          "indexed": true,
          "internalType": "address",
          "name": "from",
          "type": "address"
        },
        {
          "indexed": true,
          "internalType": "address",
          "name": "to",
          "type": "address"
        },
        {
          "indexed": true,
          "internalType": "uint256",
          "name": "tokenId",
          "type": "uint256"
        }
      ],
      "name": "Transfer",
      "type": "event"
    },
    {
      "anonymous": false,
      "inputs": [
        {
          "indexed": false,
          "internalType": "address",
          "name": "account",
          "type": "address"
        }
      ],
      "name": "Unpaused",
      "type": "event"
    },
    {
      "anonymous": false,
      "inputs": [
        {
          "indexed": true,
          "internalType": "address",
          "name": "implementation",
          "type": "address"
        }
      ],
      "name": "Upgraded",
      "type": "event"
    },
    {
      "inputs": [],
      "name": "UPGRADE_INTERFACE_VERSION",
      "outputs": [
        {
          "internalType": "string",
          "name": "",
          "type": "string"
        }
      ],
      "stateMutability": "view",
      "type": "function"
    },
    {
      "inputs": [],
      "name": "_addressContratMateriel",
      "outputs": [
        {
          "internalType": "address",
          "name": "",
          "type": "address"
        }
      ],
      "stateMutability": "view",
      "type": "function"
    },
    {
      "inputs": [],
      "name": "_addressContratRole",
      "outputs": [
        {
          "internalType": "address",
          "name": "",
          "type": "address"
        }
      ],
      "stateMutability": "view",
      "type": "function"
    },
    {
      "inputs": [
        {
          "internalType": "address",
          "name": "to",
          "type": "address"
        },
        {
          "internalType": "uint256",
          "name": "tokenId",
          "type": "uint256"
        }
      ],
      "name": "approve",
      "outputs": [],
      "stateMutability": "nonpayable",
      "type": "function"
    },
    {
      "inputs": [
        {
          "internalType": "address",
          "name": "owner",
          "type": "address"
        }
      ],
      "name": "balanceOf",
      "outputs": [
        {
          "internalType": "uint256",
          "name": "",
          "type": "uint256"
        }
      ],
      "stateMutability": "view",
      "type": "function"
    },
    {
      "inputs": [
        {
          "internalType": "address",
          "name": "client",
          "type": "address"
        },
        {
          "internalType": "address",
          "name": "iot",
          "type": "address"
        },
        {
          "internalType": "uint256",
          "name": "itemId",
          "type": "uint256"
        }
      ],
      "name": "expedition",
      "outputs": [],
      "stateMutability": "nonpayable",
      "type": "function"
    },
    {
      "inputs": [
        {
          "internalType": "uint256",
          "name": "tokenId",
          "type": "uint256"
        }
      ],
      "name": "getApproved",
      "outputs": [
        {
          "internalType": "address",
          "name": "",
          "type": "address"
        }
      ],
      "stateMutability": "view",
      "type": "function"
    },
    {
      "inputs": [
        {
          "internalType": "address",
          "name": "owner",
          "type": "address"
        }
      ],
      "name": "getIdByOwner",
      "outputs": [
        {
          "internalType": "string[]",
          "name": "",
          "type": "string[]"
        }
      ],
      "stateMutability": "view",
      "type": "function"
    },
    {
      "inputs": [
        {
          "internalType": "address",
          "name": "client",
          "type": "address"
        }
      ],
      "name": "getJsonByClient",
      "outputs": [
        {
          "internalType": "string",
          "name": "",
          "type": "string"
        }
      ],
      "stateMutability": "view",
      "type": "function"
    },
    {
      "inputs": [
        {
          "internalType": "address",
          "name": "fournisseur",
          "type": "address"
        }
      ],
      "name": "getJsonByFournisseur",
      "outputs": [
        {
          "internalType": "string",
          "name": "",
          "type": "string"
        }
      ],
      "stateMutability": "view",
      "type": "function"
    },
    {
      "inputs": [
        {
          "internalType": "address",
          "name": "owner",
          "type": "address"
        }
      ],
      "name": "getJsonMyMateriels",
      "outputs": [
        {
          "internalType": "string",
          "name": "",
          "type": "string"
        }
      ],
      "stateMutability": "view",
      "type": "function"
    },
    {
      "inputs": [],
      "name": "getListeCommandes",
      "outputs": [
        {
          "components": [
            {
              "internalType": "uint256",
              "name": "tokenId",
              "type": "uint256"
            },
            {
              "internalType": "address",
              "name": "fournisseur",
              "type": "address"
            },
            {
              "internalType": "string",
              "name": "nomFournisseur",
              "type": "string"
            },
            {
              "internalType": "address",
              "name": "client",
              "type": "address"
            },
            {
              "internalType": "string",
              "name": "nomClient",
              "type": "string"
            },
            {
              "internalType": "uint256",
              "name": "idMateriel",
              "type": "uint256"
            },
            {
              "internalType": "string",
              "name": "nomMateriel",
              "type": "string"
            },
            {
              "internalType": "string",
              "name": "referenceMateriel",
              "type": "string"
            },
            {
              "internalType": "string",
              "name": "urlImage",
              "type": "string"
            },
            {
              "internalType": "uint256",
              "name": "dateExpedition",
              "type": "uint256"
            },
            {
              "internalType": "uint256",
              "name": "dateReception",
              "type": "uint256"
            },
            {
              "internalType": "address",
              "name": "addressReception",
              "type": "address"
            },
            {
              "internalType": "string",
              "name": "nomReception",
              "type": "string"
            },
            {
              "internalType": "enum Demonstrateur.WorkflowState",
              "name": "workflowState",
              "type": "uint8"
            }
          ],
          "internalType": "struct Demonstrateur.Commande[]",
          "name": "",
          "type": "tuple[]"
        }
      ],
      "stateMutability": "view",
      "type": "function"
    },
    {
      "inputs": [],
      "name": "getVersion",
      "outputs": [
        {
          "internalType": "string",
          "name": "",
          "type": "string"
        }
      ],
      "stateMutability": "pure",
      "type": "function"
    },
    {
      "inputs": [
        {
          "internalType": "string",
          "name": "definitiveName",
          "type": "string"
        },
        {
          "internalType": "string",
          "name": "definitiveSymbol",
          "type": "string"
        },
        {
          "internalType": "string",
          "name": "definitiveBaseURI",
          "type": "string"
        }
      ],
      "name": "initialize",
      "outputs": [],
      "stateMutability": "nonpayable",
      "type": "function"
    },
    {
      "inputs": [
        {
          "internalType": "address",
          "name": "owner",
          "type": "address"
        },
        {
          "internalType": "address",
          "name": "operator",
          "type": "address"
        }
      ],
      "name": "isApprovedForAll",
      "outputs": [
        {
          "internalType": "bool",
          "name": "",
          "type": "bool"
        }
      ],
      "stateMutability": "view",
      "type": "function"
    },
    {
      "inputs": [],
      "name": "name",
      "outputs": [
        {
          "internalType": "string",
          "name": "",
          "type": "string"
        }
      ],
      "stateMutability": "view",
      "type": "function"
    },
    {
      "inputs": [],
      "name": "owner",
      "outputs": [
        {
          "internalType": "address",
          "name": "",
          "type": "address"
        }
      ],
      "stateMutability": "view",
      "type": "function"
    },
    {
      "inputs": [
        {
          "internalType": "uint256",
          "name": "tokenId",
          "type": "uint256"
        }
      ],
      "name": "ownerOf",
      "outputs": [
        {
          "internalType": "address",
          "name": "",
          "type": "address"
        }
      ],
      "stateMutability": "view",
      "type": "function"
    },
    {
      "inputs": [],
      "name": "pause",
      "outputs": [],
      "stateMutability": "nonpayable",
      "type": "function"
    },
    {
      "inputs": [],
      "name": "paused",
      "outputs": [
        {
          "internalType": "bool",
          "name": "",
          "type": "bool"
        }
      ],
      "stateMutability": "view",
      "type": "function"
    },
    {
      "inputs": [],
      "name": "proxiableUUID",
      "outputs": [
        {
          "internalType": "bytes32",
          "name": "",
          "type": "bytes32"
        }
      ],
      "stateMutability": "view",
      "type": "function"
    },
    {
      "inputs": [
        {
          "internalType": "uint256",
          "name": "itemId",
          "type": "uint256"
        },
        {
          "internalType": "uint256",
          "name": "workflowState",
          "type": "uint256"
        }
      ],
      "name": "reception",
      "outputs": [],
      "stateMutability": "nonpayable",
      "type": "function"
    },
    {
      "inputs": [
        {
          "internalType": "uint256",
          "name": "itemId",
          "type": "uint256"
        }
      ],
      "name": "receptionByContract",
      "outputs": [],
      "stateMutability": "nonpayable",
      "type": "function"
    },
    {
      "inputs": [
        {
          "internalType": "uint256",
          "name": "itemId",
          "type": "uint256"
        },
        {
          "internalType": "uint256",
          "name": "workflowState",
          "type": "uint256"
        }
      ],
      "name": "receptionIOT",
      "outputs": [],
      "stateMutability": "nonpayable",
      "type": "function"
    },
    {
      "inputs": [],
      "name": "renounceOwnership",
      "outputs": [],
      "stateMutability": "nonpayable",
      "type": "function"
    },
    {
      "inputs": [
        {
          "internalType": "address",
          "name": "from",
          "type": "address"
        },
        {
          "internalType": "address",
          "name": "to",
          "type": "address"
        },
        {
          "internalType": "uint256",
          "name": "tokenId",
          "type": "uint256"
        }
      ],
      "name": "safeTransferFrom",
      "outputs": [],
      "stateMutability": "nonpayable",
      "type": "function"
    },
    {
      "inputs": [
        {
          "internalType": "address",
          "name": "from",
          "type": "address"
        },
        {
          "internalType": "address",
          "name": "to",
          "type": "address"
        },
        {
          "internalType": "uint256",
          "name": "tokenId",
          "type": "uint256"
        },
        {
          "internalType": "bytes",
          "name": "data",
          "type": "bytes"
        }
      ],
      "name": "safeTransferFrom",
      "outputs": [],
      "stateMutability": "nonpayable",
      "type": "function"
    },
    {
      "inputs": [
        {
          "internalType": "address",
          "name": "addressContratMateriel",
          "type": "address"
        }
      ],
      "name": "setAddressContratMateriel",
      "outputs": [],
      "stateMutability": "nonpayable",
      "type": "function"
    },
    {
      "inputs": [
        {
          "internalType": "address",
          "name": "addressContratRole",
          "type": "address"
        }
      ],
      "name": "setAddressContratRole",
      "outputs": [],
      "stateMutability": "nonpayable",
      "type": "function"
    },
    {
      "inputs": [
        {
          "internalType": "address",
          "name": "operator",
          "type": "address"
        },
        {
          "internalType": "bool",
          "name": "approved",
          "type": "bool"
        }
      ],
      "name": "setApprovalForAll",
      "outputs": [],
      "stateMutability": "nonpayable",
      "type": "function"
    },
    {
      "inputs": [
        {
          "internalType": "bytes4",
          "name": "interfaceId",
          "type": "bytes4"
        }
      ],
      "name": "supportsInterface",
      "outputs": [
        {
          "internalType": "bool",
          "name": "",
          "type": "bool"
        }
      ],
      "stateMutability": "view",
      "type": "function"
    },
    {
      "inputs": [],
      "name": "symbol",
      "outputs": [
        {
          "internalType": "string",
          "name": "",
          "type": "string"
        }
      ],
      "stateMutability": "view",
      "type": "function"
    },
    {
      "inputs": [
        {
          "internalType": "uint256",
          "name": "tokenId",
          "type": "uint256"
        }
      ],
      "name": "tokenURI",
      "outputs": [
        {
          "internalType": "string",
          "name": "",
          "type": "string"
        }
      ],
      "stateMutability": "view",
      "type": "function"
    },
    {
      "inputs": [
        {
          "internalType": "uint256",
          "name": "idMateriel",
          "type": "uint256"
        },
        {
          "internalType": "string",
          "name": "uri",
          "type": "string"
        },
        {
          "internalType": "string",
          "name": "urlImage",
          "type": "string"
        },
        {
          "internalType": "string",
          "name": "referenceMateriel",
          "type": "string"
        }
      ],
      "name": "tokenisation",
      "outputs": [],
      "stateMutability": "nonpayable",
      "type": "function"
    },
    {
      "inputs": [
        {
          "internalType": "address",
          "name": "from",
          "type": "address"
        },
        {
          "internalType": "address",
          "name": "to",
          "type": "address"
        },
        {
          "internalType": "uint256",
          "name": "tokenId",
          "type": "uint256"
        }
      ],
      "name": "transferFrom",
      "outputs": [],
      "stateMutability": "nonpayable",
      "type": "function"
    },
    {
      "inputs": [
        {
          "internalType": "address",
          "name": "newOwner",
          "type": "address"
        }
      ],
      "name": "transferOwnership",
      "outputs": [],
      "stateMutability": "nonpayable",
      "type": "function"
    },
    {
      "inputs": [],
      "name": "unpause",
      "outputs": [],
      "stateMutability": "nonpayable",
      "type": "function"
    },
    {
      "inputs": [
        {
          "internalType": "address",
          "name": "newImplementation",
          "type": "address"
        },
        {
          "internalType": "bytes",
          "name": "data",
          "type": "bytes"
        }
      ],
      "name": "upgradeToAndCall",
      "outputs": [],
      "stateMutability": "payable",
      "type": "function"
    }
  ],
  "bytecode": "0x60a06040523060805234801561001457600080fd5b50608051615d606200003f6000396000818161318b015281816131b401526132eb0152615d606000f3fe6080604052600436106101e55760003560e01c8063715018a611610103578063ad3cb1cc1161009b578063ad3cb1cc1461055d578063b88d4fde1461058e578063bcc68b2b146105ae578063c87b56dd146105ce578063de656b3c146105ee578063e985e9c514610610578063efbb93d014610630578063f2fde38b14610650578063f3ee11a214610670578063f7fa2ffe1461069057600080fd5b8063715018a6146104695780638307df121461047e5780638456cb591461049e5780638da5cb5b146104b357806395d89b41146104c85780639bad155e146104dd5780639f32d1a5146104fd578063a22cb4651461051d578063a6487c531461053d57600080fd5b80633f4ba83a116101815780633f4ba83a1461034a57806342842e0e1461035f5780634f1ef2861461037f57806352d1902d146103925780635b06d203146103b45780635c975abb146103d45780636077e144146103e95780636352211e146104095780636d5128d71461042957806370a082311461044957600080fd5b806301ffc9a7146101ea57806306fdde0314610220578063081812fc14610242578063095ea7b31461026f5780630d8e6e2c146102915780630dc05e59146102bd57806310b50626146102dd57806317c21c6d1461030a57806323b872dd1461032a575b600080fd5b3480156101f657600080fd5b5061020a61020536600461494f565b6106b0565b604051610217919061497a565b60405180910390f35b34801561022c57600080fd5b506102356106db565b60405161021791906149ea565b34801561024e57600080fd5b5061026261025d366004614a0c565b61077c565b6040516102179190614a47565b34801561027b57600080fd5b5061028f61028a366004614a69565b610791565b005b34801561029d57600080fd5b50604080518082019091526003815262312e3160e81b6020820152610235565b3480156102c957600080fd5b5061028f6102d8366004614aa6565b6107a0565b3480156102e957600080fd5b506102fd6102f8366004614ac8565b610bc2565b6040516102179190614b5f565b34801561031657600080fd5b5061028f610325366004614b70565b610cd0565b34801561033657600080fd5b5061028f610345366004614b70565b61102f565b34801561035657600080fd5b5061028f6110a6565b34801561036b57600080fd5b5061028f61037a366004614b70565b6110b8565b61028f61038d366004614cb3565b6110d8565b34801561039e57600080fd5b506103a76110f3565b6040516102179190614d06565b3480156103c057600080fd5b506102356103cf366004614ac8565b611110565b3480156103e057600080fd5b5061020a6111fc565b3480156103f557600080fd5b50600354610262906001600160a01b031681565b34801561041557600080fd5b50610262610424366004614a0c565b611211565b34801561043557600080fd5b5061028f610444366004614ac8565b61121c565b34801561045557600080fd5b506103a7610464366004614ac8565b611246565b34801561047557600080fd5b5061028f61129e565b34801561048a57600080fd5b5061028f610499366004614ac8565b6112b0565b3480156104aa57600080fd5b5061028f6112da565b3480156104bf57600080fd5b506102626112ea565b3480156104d457600080fd5b50610235611305565b3480156104e957600080fd5b5061028f6104f8366004614d14565b611322565b34801561050957600080fd5b50610235610518366004614ac8565b6117e8565b34801561052957600080fd5b5061028f610538366004614dd9565b611e2b565b34801561054957600080fd5b5061028f610558366004614e0c565b611e36565b34801561056957600080fd5b50610235604051806040016040528060058152602001640352e302e360dc1b81525081565b34801561059a57600080fd5b5061028f6105a9366004614e9f565b611f6a565b3480156105ba57600080fd5b50600254610262906001600160a01b031681565b3480156105da57600080fd5b506102356105e9366004614a0c565b611f81565b3480156105fa57600080fd5b50610603612094565b60405161021791906150d0565b34801561061c57600080fd5b5061020a61062b3660046150e1565b6125de565b34801561063c57600080fd5b5061028f61064b366004614aa6565b61261d565b34801561065c57600080fd5b5061028f61066b366004614ac8565b612627565b34801561067c57600080fd5b5061023561068b366004614ac8565b612665565b34801561069c57600080fd5b5061028f6106ab366004614a0c565b612c8a565b60006001600160e01b03198216632483248360e11b14806106d557506106d582612d18565b92915050565b606060006106e7612d68565b90508060000180546106f89061512a565b80601f01602080910402602001604051908101604052809291908181526020018280546107249061512a565b80156107715780601f1061074657610100808354040283529160200191610771565b820191906000526020600020905b81548152906001019060200180831161075457829003601f168201915b505050505091505090565b600061078782612d8c565b506106d582612dc3565b61079c828233612dec565b5050565b600254604051631effddf560e21b815233916000916001600160a01b0390911690637bff77d4906107d5908590600401614a47565b600060405180830381865afa1580156107f2573d6000803e3d6000fd5b505050506040513d6000823e601f3d908101601f1916820160405261081a91908101906151a8565b905060405160200161082b906151e2565b60405160208183030381529060405280519060200120816040516020016108529190615215565b6040516020818303038152906040528051906020012014806108c357506040516510db1a595b9d60d21b602082015260260160405160208183030381529060405280519060200120816040516020016108ab9190615215565b60405160208183030381529060405280519060200120145b8061091a575060405162125bdd60ea1b602082015260230160405160208183030381529060405280519060200120816040516020016109029190615215565b60405160208183030381529060405280519060200120145b61093f5760405162461bcd60e51b815260040161093690615245565b60405180910390fd5b610962604051806060016040528060248152602001615c6a602491398585612df9565b82158061096f5750826001145b8061097a5750826002145b6109965760405162461bcd60e51b815260040161093690615282565b82600003610ac857600084815260046020819052604091829020600d8101805460ff1916600290811790915542600a830155600b9091018054336001600160a01b0319909116811790915590549251634713a58f60e01b81526001600160a01b0390931692634713a58f92610a0c929101614a47565b600060405180830381865afa158015610a29573d6000803e3d6000fd5b505050506040513d6000823e601f3d908101601f19168201604052610a5191908101906151a8565b6000858152600460205260409020600c0190610a6d908261534f565b50604051637bfd17ff60e11b8152309063f7fa2ffe90610a91908790600401614d06565b600060405180830381600087803b158015610aab57600080fd5b505af1158015610abf573d6000803e3d6000fd5b50505050610b34565b82600103610af1576000848152600460205260409020600d01805460ff19166003179055610b34565b6000848152600460208190526040909120600d8101805460ff19169092179091556003810154600190910154610b34916001600160a01b0390811691168661102f565b600084815260046020819052604091829020600381015460018201546005830154600d84015495516001600160a01b039384169692909316947f4e55ce914110a6981dccb133d73057b27633d41b48341e7f1cbe592f9bd3e64294610bb4946002820194928201938d939092600681019260079091019160ff1690615483565b60405180910390a350505050565b6060610bfd60405180604001604052806017815260200176676574496442794f776e6572206164647265737320257360481b81525083612e40565b600080610c0984612e85565b6001600160401b03811115610c2057610c20614bc0565b604051908082528060200260200182016040528015610c5357816020015b6060815260200190600190039081610c3e5790505b50905060005b600054811015610cc857846001600160a01b0316610c7682611211565b6001600160a01b031603610cb657610c8d81612f13565b8284610c988161551b565b955081518110610caa57610caa615534565b60200260200101819052505b80610cc08161551b565b915050610c59565b509392505050565b600254604051631effddf560e21b815233916000916001600160a01b0390911690637bff77d490610d05908590600401614a47565b600060405180830381865afa158015610d22573d6000803e3d6000fd5b505050506040513d6000823e601f3d908101601f19168201604052610d4a91908101906151a8565b9050604051602001610d5b906151e2565b6040516020818303038152906040528051906020012081604051602001610d829190615215565b604051602081830303815290604052805190602001201480610ded5750604051602001610dae9061554a565b6040516020818303038152906040528051906020012081604051602001610dd59190615215565b60405160208183030381529060405280519060200120145b610e095760405162461bcd60e51b815260040161093690615585565b610e2d604051806060016040528060268152602001615ccf60269139868587612fa5565b6001600160a01b038516610e535760405162461bcd60e51b8152600401610936906155bc565b6000838152600460205260409020600101546001600160a01b03163314610e8c5760405162461bcd60e51b8152600401610936906155f7565b610e963084610791565b6000838152600460208190526040808320426009820155600a810193909355600390920180546001600160a01b0319166001600160a01b03898116919091179091556002549251632163b10160e01b8152921691632163b10191610efc91899101614a47565b600060405180830381865afa158015610f19573d6000803e3d6000fd5b505050506040513d6000823e601f3d908101601f19168201604052610f4191908101906151a8565b60008481526004602081905260409091200190610f5e908261534f565b506000838152600460208181526040808420600b810180546001600160a01b0319169055815180840190925284825293879052919052600c90910190610fa4908261534f565b50600083815260046020819052604091829020600d8101805460ff19166001908117909155600582015493516001600160a01b038a169433947f21376c2199e57dd8f50ff9dcc87b2dcb88dfbeab56be3a20f21149ca03112a8994611020946002820194928201938c9390926006810192600790910191615483565b60405180910390a35050505050565b6001600160a01b038216611059576000604051633250574960e11b81526004016109369190614a47565b6000611066838333612fee565b9050836001600160a01b0316816001600160a01b0316146110a0578382826040516364283d7b60e01b815260040161093693929190615607565b50505050565b6110ae6130f7565b6110b6613129565b565b6110d383838360405180602001604052806000815250611f6a565b505050565b6110e0613180565b6110e982613225565b61079c828261322d565b60006110fd6132e0565b50600080516020615caf83398151915290565b6040805180820190915260018152605b60f81b60208201526060906000805b6000548160ff1610156111a457846001600160a01b03166111528260ff16611211565b6001600160a01b031603611192578261116b8383613329565b60405160200161117c92919061562f565b6040516020818303038152906040529250600191505b8061119c81615645565b91505061112f565b50816040516020016111b6919061565b565b60408051601f19818403018152828201909152601382527203539b7b726bca6b0ba32b934b2b6399012b99606d1b602083015292506111f59083613a57565b5092915050565b600080611207613a9c565b5460ff1692915050565b60006106d582612d8c565b6112246130f7565b600380546001600160a01b0319166001600160a01b0392909216919091179055565b600080611251612d68565b90506001600160a01b03831661127d5760006040516322718ad960e21b81526004016109369190614a47565b6001600160a01b039092166000908152600390920160205250604090205490565b6112a66130f7565b6110b66000613ac0565b6112b86130f7565b600280546001600160a01b0319166001600160a01b0392909216919091179055565b6112e26130f7565b6110b6613b1c565b6000806112f5613b63565b546001600160a01b031692915050565b60606000611311612d68565b90508060010180546106f89061512a565b600254604051631effddf560e21b815233916000916001600160a01b0390911690637bff77d490611357908590600401614a47565b600060405180830381865afa158015611374573d6000803e3d6000fd5b505050506040513d6000823e601f3d908101601f1916820160405261139c91908101906151a8565b90506040516020016113ad906151e2565b60405160208183030381529060405280519060200120816040516020016113d49190615215565b60405160208183030381529060405280519060200120148061143f57506040516020016114009061554a565b60405160208183030381529060405280519060200120816040516020016114279190615215565b60405160208183030381529060405280519060200120145b61145b5760405162461bcd60e51b815260040161093690615585565b61147f604051806060016040528060368152602001615cf560369139878786613b87565b61148b33600054613bd0565b61149760005486613bea565b604080516101c08101825260005481523360208201819052600254835163e2339ba360e01b815292938401926001600160a01b039091169163e2339ba3916114e29190600401614a47565b600060405180830381865afa1580156114ff573d6000803e3d6000fd5b505050506040513d6000823e601f3d908101601f1916820160405261152791908101906151a8565b8152600060208083018290526040805191820181529181528183015260608201899052600354905163a80f602d60e01b81526080909201916001600160a01b039091169063a80f602d9061157f908b90600401614d06565b600060405180830381865afa15801561159c573d6000803e3d6000fd5b505050506040513d6000823e601f3d908101601f191682016040526115c491908101906151a8565b8152602001848152602001858152602001600081526020016000815260200160006001600160a01b031681526020016040518060200160405280600081525081526020016000600481111561161b5761161b614ee6565b90526000805481526004602090815260409182902083518155908301516001820180546001600160a01b0319166001600160a01b0390921691909117905590820151600282019061166c908261534f565b5060608201516003820180546001600160a01b0319166001600160a01b03909216919091179055608082015160048201906116a7908261534f565b5060a0820151600582015560c082015160068201906116c6908261534f565b5060e082015160078201906116db908261534f565b5061010082015160088201906116f1908261534f565b506101208201516009820155610140820151600a820155610160820151600b820180546001600160a01b0319166001600160a01b03909216919091179055610180820151600c820190611744908261534f565b506101a0820151600d8201805460ff1916600183600481111561176957611769614ee6565b021790555050600080548082526004602052604080832090513394507f468d17a94c1951ff2e9f82052165d953cce1fb635560f6974d104ebb1bcf4c56936117c193600284019390928d926006909201918b91615675565b60405180910390a260016000808282546117db91906156e2565b9091555050505050505050565b60606118296040518060400160405280601d81526020017f67657449644279466f75726e697373657572206164647265737320257300000081525083612e40565b60408051808201825260018152605b60f81b602080830191909152825190810190925260008083529091815b600054811015611dd357600081815260046020908152604080832081516101c0810183528154815260018201546001600160a01b03169381019390935260028101805491928401916118a69061512a565b80601f01602080910402602001604051908101604052809291908181526020018280546118d29061512a565b801561191f5780601f106118f45761010080835404028352916020019161191f565b820191906000526020600020905b81548152906001019060200180831161190257829003601f168201915b505050918352505060038201546001600160a01b0316602082015260048201805460409092019161194f9061512a565b80601f016020809104026020016040519081016040528092919081815260200182805461197b9061512a565b80156119c85780601f1061199d576101008083540402835291602001916119c8565b820191906000526020600020905b8154815290600101906020018083116119ab57829003601f168201915b50505050508152602001600582015481526020016006820180546119eb9061512a565b80601f0160208091040260200160405190810160405280929190818152602001828054611a179061512a565b8015611a645780601f10611a3957610100808354040283529160200191611a64565b820191906000526020600020905b815481529060010190602001808311611a4757829003601f168201915b50505050508152602001600782018054611a7d9061512a565b80601f0160208091040260200160405190810160405280929190818152602001828054611aa99061512a565b8015611af65780601f10611acb57610100808354040283529160200191611af6565b820191906000526020600020905b815481529060010190602001808311611ad957829003601f168201915b50505050508152602001600882018054611b0f9061512a565b80601f0160208091040260200160405190810160405280929190818152602001828054611b3b9061512a565b8015611b885780601f10611b5d57610100808354040283529160200191611b88565b820191906000526020600020905b815481529060010190602001808311611b6b57829003601f168201915b505050918352505060098201546020820152600a8201546040820152600b8201546001600160a01b03166060820152600c82018054608090920191611bcc9061512a565b80601f0160208091040260200160405190810160405280929190818152602001828054611bf89061512a565b8015611c455780601f10611c1a57610100808354040283529160200191611c45565b820191906000526020600020905b815481529060010190602001808311611c2857829003601f168201915b5050509183525050600d82015460209091019060ff166004811115611c6c57611c6c614ee6565b6004811115611c7d57611c7d614ee6565b815250509050866001600160a01b031681602001516001600160a01b0316148015611cbf57506002816101a001516004811115611cbc57611cbc614ee6565b14155b15611dc0578315611ce757604051806040016040528060018152602001600b60fa1b81525092505b60035460a082015160405163a80f602d60e01b81526000926001600160a01b03169163a80f602d91611d1c9190600401614d06565b600060405180830381865afa158015611d39573d6000803e3d6000fd5b505050506040513d6000823e601f3d908101601f19168201604052611d6191908101906151a8565b9050611d85604051806060016040528060218152602001615c8e6021913982613a57565b8584611d9085612f13565b60e0850151604051611da9949392918691602001615734565b604051602081830303815290604052955060019450505b5080611dcb8161551b565b915050611855565b5082604051602001611de5919061565b565b60408051601f19818403018152828201909152601182527002539b7b721b7b6b6b0b73232b99012b99607d1b60208301529350611e229084613a57565b50909392505050565b61079c338383613c4c565b6000611e40613ce7565b805490915060ff600160401b82041615906001600160401b0316600081158015611e675750825b90506000826001600160401b03166001148015611e835750303b155b905081158015611e91575080155b15611eaf5760405163f92ee8a960e01b815260040160405180910390fd5b845467ffffffffffffffff191660011785558315611ed957845460ff60401b1916600160401b1785555b611ee38888613d0b565b611eeb613d1d565b611ef433613d25565b611efc613d1d565b611f04613d36565b600080556001611f14878261534f565b508315611f6057845460ff60401b191685556040517fc7f505b2f371ae2175ee4913f4499e1f2633a7b5936321eed1cdaeb6115181d290611f57906001906157dc565b60405180910390a15b5050505050505050565b611f7584848461102f565b6110a084848484613d46565b60606000611f8d613e5d565b9050611f9883612d8c565b5060008381526020829052604081208054611fb29061512a565b80601f0160208091040260200160405190810160405280929190818152602001828054611fde9061512a565b801561202b5780601f106120005761010080835404028352916020019161202b565b820191906000526020600020905b81548152906001019060200180831161200e57829003601f168201915b50505050509050600061203c613e81565b9050805160000361204f57509392505050565b81511561208257808260405160200161206992919061562f565b6040516020818303038152906040529350505050919050565b61208b85613f13565b95945050505050565b60606120d76040518060400160405280601e81526020017f6765744c69737465436f6d6d616e646573205f746f6b656e4964732025730000815250600054613f7a565b600080546001600160401b038111156120f2576120f2614bc0565b60405190808252806020026020018201604052801561212b57816020015b612118614893565b8152602001906001900390816121105790505b50905060005b6000548160ff1610156125d857612179604051806040016040528060168152602001756765744c69737465436f6d6d616e646573206920257360501b8152508260ff16613f7a565b60ff811660009081526004602090815260409182902082516101c0810184528154815260018201546001600160a01b0316928101929092526002810180549193849290840191906121c99061512a565b80601f01602080910402602001604051908101604052809291908181526020018280546121f59061512a565b80156122425780601f1061221757610100808354040283529160200191612242565b820191906000526020600020905b81548152906001019060200180831161222557829003601f168201915b505050918352505060038201546001600160a01b031660208201526004820180546040909201916122729061512a565b80601f016020809104026020016040519081016040528092919081815260200182805461229e9061512a565b80156122eb5780601f106122c0576101008083540402835291602001916122eb565b820191906000526020600020905b8154815290600101906020018083116122ce57829003601f168201915b505050505081526020016005820154815260200160068201805461230e9061512a565b80601f016020809104026020016040519081016040528092919081815260200182805461233a9061512a565b80156123875780601f1061235c57610100808354040283529160200191612387565b820191906000526020600020905b81548152906001019060200180831161236a57829003601f168201915b505050505081526020016007820180546123a09061512a565b80601f01602080910402602001604051908101604052809291908181526020018280546123cc9061512a565b80156124195780601f106123ee57610100808354040283529160200191612419565b820191906000526020600020905b8154815290600101906020018083116123fc57829003601f168201915b505050505081526020016008820180546124329061512a565b80601f016020809104026020016040519081016040528092919081815260200182805461245e9061512a565b80156124ab5780601f10612480576101008083540402835291602001916124ab565b820191906000526020600020905b81548152906001019060200180831161248e57829003601f168201915b505050918352505060098201546020820152600a8201546040820152600b8201546001600160a01b03166060820152600c820180546080909201916124ef9061512a565b80601f016020809104026020016040519081016040528092919081815260200182805461251b9061512a565b80156125685780601f1061253d57610100808354040283529160200191612568565b820191906000526020600020905b81548152906001019060200180831161254b57829003601f168201915b5050509183525050600d82015460209091019060ff16600481111561258f5761258f614ee6565b60048111156125a0576125a0614ee6565b81525050838360ff16815181106125b9576125b9615534565b60200260200101819052505080806125d090615645565b915050612131565b50919050565b6000806125e9612d68565b6001600160a01b03948516600090815260059190910160209081526040808320959096168252939093525050205460ff1690565b61079c82826107a0565b61262f6130f7565b6001600160a01b038116612659576000604051631e4fbdf760e01b81526004016109369190614a47565b61266281613ac0565b50565b60606126a36040518060400160405280601a8152602001796765744a736f6e4279436c69656e74206164647265737320257360301b81525083612e40565b60408051808201825260018152605b60f81b602080830191909152825190810190925260008083529091815b600054811015611dd357600081815260046020908152604080832081516101c0810183528154815260018201546001600160a01b03169381019390935260028101805491928401916127209061512a565b80601f016020809104026020016040519081016040528092919081815260200182805461274c9061512a565b80156127995780601f1061276e57610100808354040283529160200191612799565b820191906000526020600020905b81548152906001019060200180831161277c57829003601f168201915b505050918352505060038201546001600160a01b031660208201526004820180546040909201916127c99061512a565b80601f01602080910402602001604051908101604052809291908181526020018280546127f59061512a565b80156128425780601f1061281757610100808354040283529160200191612842565b820191906000526020600020905b81548152906001019060200180831161282557829003601f168201915b50505050508152602001600582015481526020016006820180546128659061512a565b80601f01602080910402602001604051908101604052809291908181526020018280546128919061512a565b80156128de5780601f106128b3576101008083540402835291602001916128de565b820191906000526020600020905b8154815290600101906020018083116128c157829003601f168201915b505050505081526020016007820180546128f79061512a565b80601f01602080910402602001604051908101604052809291908181526020018280546129239061512a565b80156129705780601f1061294557610100808354040283529160200191612970565b820191906000526020600020905b81548152906001019060200180831161295357829003601f168201915b505050505081526020016008820180546129899061512a565b80601f01602080910402602001604051908101604052809291908181526020018280546129b59061512a565b8015612a025780601f106129d757610100808354040283529160200191612a02565b820191906000526020600020905b8154815290600101906020018083116129e557829003601f168201915b505050918352505060098201546020820152600a8201546040820152600b8201546001600160a01b03166060820152600c82018054608090920191612a469061512a565b80601f0160208091040260200160405190810160405280929190818152602001828054612a729061512a565b8015612abf5780601f10612a9457610100808354040283529160200191612abf565b820191906000526020600020905b815481529060010190602001808311612aa257829003601f168201915b5050509183525050600d82015460209091019060ff166004811115612ae657612ae6614ee6565b6004811115612af757612af7614ee6565b815250509050612b396040518060400160405280601a8152602001796765744a736f6e4279436c69656e74206164647265737320257360301b81525088612e40565b866001600160a01b031681606001516001600160a01b0316148015612b7557506003816101a001516004811115612b7257612b72614ee6565b14155b8015612b9857506004816101a001516004811115612b9557612b95614ee6565b14155b15612c77578315612bc057604051806040016040528060018152602001600b60fa1b81525092505b60035460a082015160405163a80f602d60e01b81526000926001600160a01b03169163a80f602d91612bf59190600401614d06565b600060405180830381865afa158015612c12573d6000803e3d6000fd5b505050506040513d6000823e601f3d908101601f19168201604052612c3a91908101906151a8565b90508584612c4785612f13565b60e0850151604051612c60949392918691602001615734565b604051602081830303815290604052955060019450505b5080612c828161551b565b9150506126cf565b612cc96040518060400160405280601d81526020017f726563657074696f6e4279436f6e7472616374206974656d496420257300000081525082613f7a565b333014612ce85760405162461bcd60e51b81526004016109369061581c565b60008181526004602052604090206001810154600390910154612662916001600160a01b0390811691168361102f565b60006001600160e01b031982166380ac58cd60e01b1480612d4957506001600160e01b03198216635b5e139f60e01b145b806106d557506301ffc9a760e01b6001600160e01b03198316146106d5565b7f80bb2b638cc20bc4d0a60d66940f3ab4a00c1d7b313497ca82fb0b4ab007930090565b600080612d9883613fbf565b90506001600160a01b0381166106d55782604051637e27328960e01b81526004016109369190614d06565b600080612dce612d68565b6000938452600401602052505060409020546001600160a01b031690565b6110d38383836001613fe8565b6110d3838383604051602401612e119392919061582c565b60408051601f198184030181529190526020810180516001600160e01b031663ca47c4eb60e01b1790526140f2565b61079c8282604051602401612e56929190615859565b60408051601f198184030181529190526020810180516001600160e01b031663319af33360e01b1790526140f2565b600080805b600054811015612ed557836001600160a01b0316612ea782611211565b6001600160a01b031603612ec35781612ebf8161551b565b9250505b80612ecd8161551b565b915050612e8a565b506106d56040518060400160405280601b81526020017a67657453697a6542794f776e6572206974656d436f756e7420257360281b81525082613f7a565b60606000612f20836140fb565b60010190506000816001600160401b03811115612f3f57612f3f614bc0565b6040519080825280601f01601f191660200182016040528015612f69576020820181803683370190505b5090508181016020015b600019016f181899199a1a9b1b9c1cb0b131b232b360811b600a86061a8153600a8504945084612f7357509392505050565b6110a084848484604051602401612fbf9493929190615879565b60408051601f198184030181529190526020810180516001600160e01b03166363fb8bc560e01b1790526140f2565b600080612ff9612d68565b9050600061300685613fbf565b90506001600160a01b03841615613022576130228185876141d1565b6001600160a01b038116156130625761303f600086600080613fe8565b6001600160a01b0381166000908152600383016020526040902080546000190190555b6001600160a01b03861615613093576001600160a01b03861660009081526003830160205260409020805460010190555b600085815260028301602052604080822080546001600160a01b0319166001600160a01b038a811691821790925591518893918516917fddf252ad1be2c89b69c2b068fc378daa952ba7f163c4a11628f55a4df523b3ef91a49150505b9392505050565b336131006112ea565b6001600160a01b0316146110b6573360405163118cdaa760e01b81526004016109369190614a47565b613131614226565b600061313b613a9c565b805460ff1916815590507f5db9ee0a495bf2e6ff9c91a7834c1ba4fdd244a5e8aa4e537bd38aeae4b073aa335b6040516131759190614a47565b60405180910390a150565b306001600160a01b037f000000000000000000000000000000000000000000000000000000000000000016148061320757507f00000000000000000000000000000000000000000000000000000000000000006001600160a01b03166131fb600080516020615caf833981519152546001600160a01b031690565b6001600160a01b031614155b156110b65760405163703e46dd60e11b815260040160405180910390fd5b6126626130f7565b816001600160a01b03166352d1902d6040518163ffffffff1660e01b8152600401602060405180830381865afa925050508015613287575060408051601f3d908101601f19168201909252613284918101906158be565b60015b6132a65781604051634c9c8ce360e01b81526004016109369190614a47565b600080516020615caf83398151915281146132d65780604051632a87526960e21b81526004016109369190614d06565b6110d3838361424b565b306001600160a01b037f000000000000000000000000000000000000000000000000000000000000000016146110b65760405163703e46dd60e11b815260040160405180910390fd5b6040805160208082018352600080835260ff851681526004825283812084516101c0810186528154815260018201546001600160a01b031693810193909352600281018054606096939493840191906133819061512a565b80601f01602080910402602001604051908101604052809291908181526020018280546133ad9061512a565b80156133fa5780601f106133cf576101008083540402835291602001916133fa565b820191906000526020600020905b8154815290600101906020018083116133dd57829003601f168201915b505050918352505060038201546001600160a01b0316602082015260048201805460409092019161342a9061512a565b80601f01602080910402602001604051908101604052809291908181526020018280546134569061512a565b80156134a35780601f10613478576101008083540402835291602001916134a3565b820191906000526020600020905b81548152906001019060200180831161348657829003601f168201915b50505050508152602001600582015481526020016006820180546134c69061512a565b80601f01602080910402602001604051908101604052809291908181526020018280546134f29061512a565b801561353f5780601f106135145761010080835404028352916020019161353f565b820191906000526020600020905b81548152906001019060200180831161352257829003601f168201915b505050505081526020016007820180546135589061512a565b80601f01602080910402602001604051908101604052809291908181526020018280546135849061512a565b80156135d15780601f106135a6576101008083540402835291602001916135d1565b820191906000526020600020905b8154815290600101906020018083116135b457829003601f168201915b505050505081526020016008820180546135ea9061512a565b80601f01602080910402602001604051908101604052809291908181526020018280546136169061512a565b80156136635780601f1061363857610100808354040283529160200191613663565b820191906000526020600020905b81548152906001019060200180831161364657829003601f168201915b505050918352505060098201546020820152600a8201546040820152600b8201546001600160a01b03166060820152600c820180546080909201916136a79061512a565b80601f01602080910402602001604051908101604052809291908181526020018280546136d39061512a565b80156137205780601f106136f557610100808354040283529160200191613720565b820191906000526020600020905b81548152906001019060200180831161370357829003601f168201915b5050509183525050600d82015460209091019060ff16600481111561374757613747614ee6565b600481111561375857613758614ee6565b9052509050600061376b60ff8616611f81565b6002546060840151604051632163b10160e01b81529293506000926001600160a01b0390921691632163b101916137a491600401614a47565b600060405180830381865afa1580156137c1573d6000803e3d6000fd5b505050506040513d6000823e601f3d908101601f191682016040526137e991908101906151a8565b600254602085015160405163e2339ba360e01b81529293506000926001600160a01b039092169163e2339ba39161382291600401614a47565b600060405180830381865afa15801561383f573d6000803e3d6000fd5b505050506040513d6000823e601f3d908101601f1916820160405261386791908101906151a8565b600254610160860151604051634713a58f60e01b81529293506000926001600160a01b0390921691634713a58f916138a191600401614a47565b600060405180830381865afa1580156138be573d6000803e3d6000fd5b505050506040513d6000823e601f3d908101601f191682016040526138e691908101906151a8565b60035460a087015160405163a80f602d60e01b81529293506000926001600160a01b039092169163a80f602d9161391f91600401614d06565b600060405180830381865afa15801561393c573d6000803e3d6000fd5b505050506040513d6000823e601f3d908101601f1916820160405261396491908101906151a8565b9050891561398957604051806040016040528060018152602001600b60fa1b81525096505b6000876139988b60ff16612f13565b876139a68a602001516142a1565b876139b48c606001516142a1565b60e08d01516101008e01516040516139d8989796959493928e928c926020016158df565b6040516020818303038152906040529050806139f8886101200151612f13565b613a06896101400151612f13565b613a148a61016001516142a1565b86613a238c6101a001516142b7565b604051602001613a3896959493929190615a2e565b60408051808303601f190181529190529b9a5050505050505050505050565b61079c8282604051602401613a6d929190615b17565b60408051601f198184030181529190526020810180516001600160e01b0316634b5c427760e01b1790526140f2565b7fcd5ed15c6e187e77e9aee88184c21f4f2182ab5827cb3b7e07fbedcd63f0330090565b6000613aca613b63565b80546001600160a01b038481166001600160a01b031983168117845560405193945091169182907f8be0079c531659141344cd1fd0a4f28419497f9722a3daafe3b4186f6b6457e090600090a3505050565b613b24614403565b6000613b2e613a9c565b805460ff1916600117815590507f62e78cea01bee320cd4e420270b5ea74000d11b0c9f74754ebdbfc544b05a2586131683390565b7f9016d09d72d40fdae2fd8ceac6b6234c7706214fd39c1cd1e609a0528c19930090565b6110a084848484604051602401613ba19493929190615b3c565b60408051601f198184030181529190526020810180516001600160e01b0316635ab84e1f60e01b1790526140f2565b61079c828260405180602001604052806000815250614429565b6000613bf4613e5d565b6000848152602082905260409020909150613c0f838261534f565b507ff8e1a15aba9398e019f0b49df1a4fde98ee17ae345cb5f6b5e2c27f5033e8ce783604051613c3f9190614d06565b60405180910390a1505050565b6000613c56612d68565b90506001600160a01b038316613c815782604051630b61174360e31b81526004016109369190614a47565b6001600160a01b03848116600081815260058401602090815260408083209488168084529490915290819020805460ff1916861515179055517f17307eab39ab6107e8899845ad3d59bd9653f200f220920489ca2b5937696c3190610bb490869061497a565b7ff0c57e16840df040f15088dc2f81fe391c3923bec73e23a9662efc9c229c6a0090565b613d13614440565b61079c8282614465565b6110b6614440565b613d2d614440565b61266281614493565b613d3e614440565b6110b661449b565b6001600160a01b0383163b156110a057604051630a85bd0160e11b81526001600160a01b0384169063150b7a0290613d88903390889087908790600401615b8c565b6020604051808303816000875af1925050508015613dc3575060408051601f3d908101601f19168201909252613dc091810190615bd1565b60015b613e23573d808015613df1576040519150601f19603f3d011682016040523d82523d6000602084013e613df6565b606091505b508051600003613e1b5783604051633250574960e11b81526004016109369190614a47565b805181602001fd5b6001600160e01b03198116630a85bd0160e11b14613e565783604051633250574960e11b81526004016109369190614a47565b5050505050565b7f0542a41881ee128a365a727b282c86fa859579490b9bb45aab8503648c8e790090565b606060018054613e909061512a565b80601f0160208091040260200160405190810160405280929190818152602001828054613ebc9061512a565b8015613f095780601f10613ede57610100808354040283529160200191613f09565b820191906000526020600020905b815481529060010190602001808311613eec57829003601f168201915b5050505050905090565b6060613f1e82612d8c565b506000613f29613e81565b90506000815111613f4957604051806020016040528060008152506130f0565b80613f5384612f13565b604051602001613f6492919061562f565b6040516020818303038152906040529392505050565b61079c8282604051602401613f90929190615bf2565b60408051601f198184030181529190526020810180516001600160e01b0316632d839cb360e21b1790526140f2565b600080613fca612d68565b6000938452600201602052505060409020546001600160a01b031690565b6000613ff2612d68565b9050818061400857506001600160a01b03831615155b156140c157600061401885612d8c565b90506001600160a01b038416158015906140445750836001600160a01b0316816001600160a01b031614155b8015614057575061405581856125de565b155b15614077578360405163a9fbf51f60e01b81526004016109369190614a47565b82156140bf5784866001600160a01b0316826001600160a01b03167f8c5be1e5ebec7d5bd14f71427d1e84f3dd0314c0f7b2291e5b200ac8c7c3b92560405160405180910390a45b505b600093845260040160205250506040902080546001600160a01b0319166001600160a01b0392909216919091179055565b612662816144b8565b60008072184f03e93ff9f4daa797ed6e38ed64bf6a1f0160401b831061413a5772184f03e93ff9f4daa797ed6e38ed64bf6a1f0160401b830492506040015b6904ee2d6d415b85acef8160201b8310614164576904ee2d6d415b85acef8160201b830492506020015b662386f26fc10000831061418257662386f26fc10000830492506010015b6305f5e100831061419a576305f5e100830492506008015b61271083106141ae57612710830492506004015b606483106141c0576064830492506002015b600a83106106d55760010192915050565b6141dc8383836144d9565b6110d3576001600160a01b0383166142095780604051637e27328960e01b81526004016109369190614d06565b818160405163177e802f60e01b8152600401610936929190615c12565b61422e6111fc565b6110b657604051638dfc202b60e01b815260040160405180910390fd5b6142548261453f565b6040516001600160a01b038316907fbc7cd75a20ee27fd9adebab32041f755214dbc6bffa90cc0225b39da2e5c2d3b90600090a2805115614299576110d3828261459b565b61079c614608565b60606106d56001600160a01b0383166014614627565b60608160048111156142cb576142cb614ee6565b6000036142f657505060408051808201909152600881526721b932b0ba34b7b760c11b602082015290565b81600481111561430857614308614ee6565b60010361433557505060408051808201909152600a81526922bc3832b234ba34b7b760b11b602082015290565b81600481111561434757614347614ee6565b6002036143735750506040805180820190915260098152682932b1b2b83a34b7b760b91b602082015290565b81600481111561438557614385614ee6565b6003036143b257505060408051808201909152600a81526920b7373ab630ba34b7b760b11b602082015290565b8160048111156143c4576143c4614ee6565b6004036143ef5750506040805180820190915260088152672932b73b37bcb2b960c11b602082015290565b505060408051602081019091526000815290565b61440b6111fc565b156110b65760405163d93c066560e01b815260040160405180910390fd5b6144338383614798565b6110d36000848484613d46565b6144486147fd565b6110b657604051631afcd79f60e31b815260040160405180910390fd5b61446d614440565b6000614477612d68565b905080614484848261534f565b50600181016110a0838261534f565b61262f614440565b6144a3614440565b60006144ad613a9c565b805460ff1916905550565b60006a636f6e736f6c652e6c6f679050600080835160208501845afa505050565b60006001600160a01b038316158015906145375750826001600160a01b0316846001600160a01b03161480614513575061451384846125de565b806145375750826001600160a01b031661452c83612dc3565b6001600160a01b0316145b949350505050565b806001600160a01b03163b60000361456c5780604051634c9c8ce360e01b81526004016109369190614a47565b600080516020615caf83398151915280546001600160a01b0319166001600160a01b0392909216919091179055565b6060600080846001600160a01b0316846040516145b89190615215565b600060405180830381855af49150503d80600081146145f3576040519150601f19603f3d011682016040523d82523d6000602084013e6145f8565b606091505b509150915061208b858383614817565b34156110b65760405163b398979f60e01b815260040160405180910390fd5b6060826000614637846002615c2d565b6146429060026156e2565b6001600160401b0381111561465957614659614bc0565b6040519080825280601f01601f191660200182016040528015614683576020820181803683370190505b509050600360fc1b8160008151811061469e5761469e615534565b60200101906001600160f81b031916908160001a905350600f60fb1b816001815181106146cd576146cd615534565b60200101906001600160f81b031916908160001a90535060006146f1856002615c2d565b6146fc9060016156e2565b90505b6001811115614774576f181899199a1a9b1b9c1cb0b131b232b360811b83600f166010811061473057614730615534565b1a60f81b82828151811061474657614746615534565b60200101906001600160f81b031916908160001a90535060049290921c9161476d81615c44565b90506146ff565b50811561453757848460405163e22e27eb60e01b8152600401610936929190615c5b565b6001600160a01b0382166147c2576000604051633250574960e11b81526004016109369190614a47565b60006147d083836000612fee565b90506001600160a01b038116156110d35760006040516339e3563760e11b81526004016109369190614a47565b6000614807613ce7565b54600160401b900460ff16919050565b60608261482c576148278261486a565b6130f0565b815115801561484357506001600160a01b0384163b155b156148635783604051639996b31560e01b81526004016109369190614a47565b50806130f0565b80511561487a5780518082602001fd5b604051630a12f52160e11b815260040160405180910390fd5b604051806101c001604052806000815260200160006001600160a01b031681526020016060815260200160006001600160a01b031681526020016060815260200160008152602001606081526020016060815260200160608152602001600081526020016000815260200160006001600160a01b03168152602001606081526020016000600481111561492857614928614ee6565b905290565b6001600160e01b031981165b811461266257600080fd5b80356106d58161492d565b60006020828403121561496457614964600080fd5b60006145378484614944565b8015155b82525050565b602081016106d58284614970565b60005b838110156149a357818101518382015260200161498b565b50506000910152565b601f01601f191690565b60006149c0825190565b8084526020840193506149d7818560208601614988565b6149e0816149ac565b9093019392505050565b602080825281016130f081846149b6565b80614939565b80356106d5816149fb565b600060208284031215614a2157614a21600080fd5b60006145378484614a01565b60006001600160a01b0382166106d5565b61497481614a2d565b602081016106d58284614a3e565b61493981614a2d565b80356106d581614a55565b60008060408385031215614a7f57614a7f600080fd5b6000614a8b8585614a5e565b9250506020614a9c85828601614a01565b9150509250929050565b60008060408385031215614abc57614abc600080fd5b6000614a8b8585614a01565b600060208284031215614add57614add600080fd5b60006145378484614a5e565b60006130f083836149b6565b60200190565b6000614b05825190565b80845260208401935083602082028501614b1f8560200190565b60005b84811015614b535783830388528151614b3b8482614ae9565b93505060208201602098909801979150600101614b22565b50909695505050505050565b602080825281016130f08184614afb565b600080600060608486031215614b8857614b88600080fd5b6000614b948686614a5e565b9350506020614ba586828701614a5e565b9250506040614bb686828701614a01565b9150509250925092565b634e487b7160e01b600052604160045260246000fd5b614bdf826149ac565b81018181106001600160401b0382111715614bfc57614bfc614bc0565b6040525050565b6000614c0e60405190565b9050614c1a8282614bd6565b919050565b60006001600160401b03821115614c3857614c38614bc0565b614c41826149ac565b60200192915050565b82818337506000910152565b6000614c69614c6484614c1f565b614c03565b905082815260208101848484011115614c8457614c84600080fd5b610cc8848285614c4a565b600082601f830112614ca357614ca3600080fd5b8135614537848260208601614c56565b60008060408385031215614cc957614cc9600080fd5b6000614cd58585614a5e565b92505060208301356001600160401b03811115614cf457614cf4600080fd5b614a9c85828601614c8f565b80614974565b602081016106d58284614d00565b60008060008060808587031215614d2d57614d2d600080fd5b6000614d398787614a01565b94505060208501356001600160401b03811115614d5857614d58600080fd5b614d6487828801614c8f565b93505060408501356001600160401b03811115614d8357614d83600080fd5b614d8f87828801614c8f565b92505060608501356001600160401b03811115614dae57614dae600080fd5b614dba87828801614c8f565b91505092959194509250565b801515614939565b80356106d581614dc6565b60008060408385031215614def57614def600080fd5b6000614dfb8585614a5e565b9250506020614a9c85828601614dce565b600080600060608486031215614e2457614e24600080fd5b83356001600160401b03811115614e3d57614e3d600080fd5b614e4986828701614c8f565b93505060208401356001600160401b03811115614e6857614e68600080fd5b614e7486828701614c8f565b92505060408401356001600160401b03811115614e9357614e93600080fd5b614bb686828701614c8f565b60008060008060808587031215614eb857614eb8600080fd5b6000614ec48787614a5e565b9450506020614ed587828801614a5e565b9350506040614d8f87828801614a01565b634e487b7160e01b600052602160045260246000fd5b6005811061266257612662614ee6565b80614c1a81614efc565b60006106d582614f0c565b61497481614f16565b80516000906101c0840190614f3f8582614d00565b506020830151614f526020860182614a3e565b5060408301518482036040860152614f6a82826149b6565b9150506060830151614f7f6060860182614a3e565b5060808301518482036080860152614f9782826149b6565b91505060a0830151614fac60a0860182614d00565b5060c083015184820360c0860152614fc482826149b6565b91505060e083015184820360e0860152614fde82826149b6565b915050610100830151848203610100860152614ffa82826149b6565b915050610120830151615011610120860182614d00565b50610140830151615026610140860182614d00565b5061016083015161503b610160860182614a3e565b5061018083015184820361018086015261505582826149b6565b9150506101a0830151610cc86101a0860182614f21565b60006130f08383614f2a565b6000615082825190565b8084526020840193508360208202850161509c8560200190565b60005b84811015614b5357838303885281516150b8848261506c565b9350506020820160209890980197915060010161509f565b602080825281016130f08184615078565b600080604083850312156150f7576150f7600080fd5b60006151038585614a5e565b9250506020614a9c85828601614a5e565b634e487b7160e01b600052602260045260246000fd5b60028104600182168061513e57607f821691505b6020821081036125d8576125d8615114565b600061515e614c6484614c1f565b90508281526020810184848401111561517957615179600080fd5b610cc8848285614988565b600082601f83011261519857615198600080fd5b8151614537848260208601615150565b6000602082840312156151bd576151bd600080fd5b81516001600160401b038111156151d6576151d6600080fd5b61453784828501615184565b6420b236b4b760d91b815260050190565b60006151fd825190565b61520b818560208601614988565b9290920192915050565b6106d581836151f3565b60118152602081017014185cc81b1948189bdb8818db1a595b9d607a1b81529050614af5565b602080825281016106d58161521f565b601881526020810177776f726b666c6f775374617465206e6f742076616c69646560401b81529050614af5565b602080825281016106d581615255565b60006106d561529e8381565b90565b6152aa83615292565b815460001960089490940293841b1916921b91909117905550565b60006110d38184846152a1565b8181101561079c576152e56000826152c5565b6001016152d2565b601f8211156110d3576000818152602090206020601f850104810160208510156153145750805b613e566020601f8601048301826152d2565b6000196008929092029190911c191690565b6153428282615326565b6002909202909117919050565b81516001600160401b0381111561536857615368614bc0565b615372825461512a565b61537d8282856152ed565b506020601f8211600181146153ac576000831561539a5750848201515b6153a48482615338565b855550613e56565b600084815260208120601f198516915b828110156153dc57878501518255602094850194600190920191016153bc565b50848210156153fa57838701516153f6601f871682615326565b8255505b50505050600202600101905550565b600081546154168161512a565b808552602085019450600182168015615436576001811461544c5761547a565b60ff19831686526020821515028601935061547a565b60008581526020902060005b8381101561547457815488820152600190910190602001615458565b87019450505b50505092915050565b60e08082528101615494818a615409565b905081810360208301526154a88189615409565b90506154b76040830188614d00565b6154c46060830187614d00565b81810360808301526154d68186615409565b905081810360a08301526154ea8185615409565b90506154f960c0830184614f21565b98975050505050505050565b634e487b7160e01b600052601160045260246000fd5b60006001820161552d5761552d615505565b5060010190565b634e487b7160e01b600052603260045260246000fd5b6a2337bab93734b9b9b2bab960a91b8152600b0190565b600f8152602081016e526f6c65206e6f742076616c69646560881b81529050614af5565b602080825281016106d581615561565b60128152602081017141646472657373206e6f742076616c69646560701b81529050614af5565b602080825281016106d581615595565b6016815260208101752830b9903632903137b7103337bab93734b9b9b2bab960511b81529050614af5565b602080825281016106d5816155cc565b606081016156158286614a3e565b6156226020830185614d00565b6145376040830184614a3e565b61563981846151f3565b90506130f081836151f3565b60ff16600060fe19820161552d5761552d615505565b61566581836151f3565b605d60f81b815260010192915050565b60c080825281016156868189615409565b90506156956020830188614d00565b6156a26040830187614d00565b81810360608301526156b48186615409565b905081810360808301526156c881856149b6565b90506156d760a0830184614f21565b979650505050505050565b808201808211156106d5576106d5615505565b607b60f81b9052565b641134b2111d60d91b9052565b761116113932b332b932b731b2a6b0ba32b934b2b6111d1160491b9052565b61227d60f01b9052565b61573e81876151f3565b905061574a81866151f3565b9050615755816156f5565b600101615761816156fe565b60050161576e81856151f3565b6f16113737b6a6b0ba32b934b2b6111d1160811b8152905060100161579381846151f3565b905061579e8161570b565b6017016157ab81836151f3565b90506157b68161572a565b60020195945050505050565b60006001600160401b0382166106d5565b614974816157c2565b602081016106d582846157d3565b601f8152602081017f4c276164647265737365206e2765737420706173206c6520636f6e747261740081529050614af5565b602080825281016106d5816157ea565b6060808252810161583d81866149b6565b905061584c6020830185614d00565b6145376040830184614d00565b6040808252810161586a81856149b6565b90506130f06020830184614a3e565b6080808252810161588a81876149b6565b90506158996020830186614a3e565b6158a66040830185614d00565b61208b6060830184614a3e565b80516106d5816149fb565b6000602082840312156158d3576158d3600080fd5b600061453784846158b3565b6158e9818c6151f3565b90506158f4816156f5565b600101615900816156fe565b60050161590d818b6151f3565b6716113ab934911d1160c11b8152905060080161592a818a6151f3565b701116113337bab93734b9b9b2bab9111d1160791b8152905060110161595081896151f3565b731116113737b6a337bab93734b9b9b2bab9111d1160611b8152905060140161597981886151f3565b6b11161131b634b2b73a111d1160a11b81529050600c0161599a81876151f3565b6e1116113737b6a1b634b2b73a111d1160891b81529050600f016159be81866151f3565b701116113737b6a6b0ba32b934b2b6111d1160791b815290506011016159e481856151f3565b90506159ef8161570b565b6017016159fc81846151f3565b6d1116113ab93624b6b0b3b2911d1160911b81529050600e01615a1f81836151f3565b9b9a5050505050505050505050565b615a3881886151f3565b721116113230ba32a2bc3832b234ba34b7b7111d60691b81529050601301615a6081876151f3565b7016113230ba32a932b1b2b83a34b7b7111d60791b81529050601101615a8681866151f3565b74161130b2323932b9b9a932b1b2b83a34b7b7111d1160591b81529050601501615ab081856151f3565b711116113737b6a932b1b2b83a34b7b7111d1160711b81529050601201615ad781846151f3565b721116113bb7b935b33637bba9ba30ba32911d1160691b81529050601301615aff81836151f3565b9050615b0a8161572a565b6002019695505050505050565b60408082528101615b2881856149b6565b9050818103602083015261453781846149b6565b60808082528101615b4d81876149b6565b9050615b5c6020830186614d00565b8181036040830152615b6e81856149b6565b90508181036060830152615b8281846149b6565b9695505050505050565b60808101615b9a8287614a3e565b615ba76020830186614a3e565b615bb46040830185614d00565b8181036060830152615b8281846149b6565b80516106d58161492d565b600060208284031215615be657615be6600080fd5b60006145378484615bc6565b60408082528101615c0381856149b6565b90506130f06020830184614d00565b60408101615c208285614a3e565b6130f06020830184614d00565b81810281158282048414176106d5576106d5615505565b600081615c5357615c53615505565b506000190190565b60408101615c208285614d0056fe726563657074696f6e206974656d496420257320776f726b666c6f77537461746520257367657449644279466f75726e697373657572206e6f6d4d6174657269656c202573360894a13ba1a3210667c828492db98dca3e2076cc3735a920a3ca505d382bbc65787065646974696f6e2061646472657373202573206974656d496420257320696f74202573746f6b656e69736174696f6e2069644d6174657269656c20257320757269202573207265666572656e63654d6174657269656c202573a264697066735822122063915d396ffeff1d92140593cdcf290e5736b5b971c39f90b06fdec7d9c8189164736f6c63430008150033",
  "linkReferences": {},
  "deployedLinkReferences": {}
}