{
  "_format": "hh-sol-artifact-1",
  "contractName": "Demonstrateur",
  "sourceName": "contracts/Demonstrateur.sol",
  "abi": [
    {
      "inputs": [
        {
          "internalType": "string",
          "name": "definitiveName",
          "type": "string"
        },
        {
          "internalType": "string",
          "name": "definitiveSymbol",
          "type": "string"
        },
        {
          "internalType": "string",
          "name": "definitiveBaseURI",
          "type": "string"
        }
      ],
      "stateMutability": "nonpayable",
      "type": "constructor"
    },
    {
      "anonymous": false,
      "inputs": [
        {
          "indexed": true,
          "internalType": "address",
          "name": "owner",
          "type": "address"
        },
        {
          "indexed": true,
          "internalType": "address",
          "name": "approved",
          "type": "address"
        },
        {
          "indexed": true,
          "internalType": "uint256",
          "name": "tokenId",
          "type": "uint256"
        }
      ],
      "name": "Approval",
      "type": "event"
    },
    {
      "anonymous": false,
      "inputs": [
        {
          "indexed": true,
          "internalType": "address",
          "name": "owner",
          "type": "address"
        },
        {
          "indexed": true,
          "internalType": "address",
          "name": "operator",
          "type": "address"
        },
        {
          "indexed": false,
          "internalType": "bool",
          "name": "approved",
          "type": "bool"
        }
      ],
      "name": "ApprovalForAll",
      "type": "event"
    },
    {
      "anonymous": false,
      "inputs": [
        {
          "indexed": true,
          "internalType": "address",
          "name": "previousOwner",
          "type": "address"
        },
        {
          "indexed": true,
          "internalType": "address",
          "name": "newOwner",
          "type": "address"
        }
      ],
      "name": "OwnershipTransferred",
      "type": "event"
    },
    {
      "anonymous": false,
      "inputs": [
        {
          "indexed": false,
          "internalType": "address",
          "name": "account",
          "type": "address"
        }
      ],
      "name": "Paused",
      "type": "event"
    },
    {
      "anonymous": false,
      "inputs": [
        {
          "indexed": true,
          "internalType": "address",
          "name": "from",
          "type": "address"
        },
        {
          "indexed": true,
          "internalType": "address",
          "name": "to",
          "type": "address"
        },
        {
          "indexed": true,
          "internalType": "uint256",
          "name": "tokenId",
          "type": "uint256"
        }
      ],
      "name": "Transfer",
      "type": "event"
    },
    {
      "anonymous": false,
      "inputs": [
        {
          "indexed": false,
          "internalType": "address",
          "name": "account",
          "type": "address"
        }
      ],
      "name": "Unpaused",
      "type": "event"
    },
    {
      "inputs": [],
      "name": "_uriQuantum",
      "outputs": [
        {
          "internalType": "string",
          "name": "",
          "type": "string"
        }
      ],
      "stateMutability": "view",
      "type": "function"
    },
    {
      "inputs": [],
      "name": "_uriS3200",
      "outputs": [
        {
          "internalType": "string",
          "name": "",
          "type": "string"
        }
      ],
      "stateMutability": "view",
      "type": "function"
    },
    {
      "inputs": [
        {
          "internalType": "address",
          "name": "id",
          "type": "address"
        },
        {
          "internalType": "string",
          "name": "nom",
          "type": "string"
        }
      ],
      "name": "ajouterClient",
      "outputs": [],
      "stateMutability": "nonpayable",
      "type": "function"
    },
    {
      "inputs": [
        {
          "internalType": "address",
          "name": "id",
          "type": "address"
        },
        {
          "internalType": "string",
          "name": "nom",
          "type": "string"
        }
      ],
      "name": "ajouterFournisseur",
      "outputs": [],
      "stateMutability": "nonpayable",
      "type": "function"
    },
    {
      "inputs": [
        {
          "internalType": "address",
          "name": "to",
          "type": "address"
        },
        {
          "internalType": "uint256",
          "name": "tokenId",
          "type": "uint256"
        }
      ],
      "name": "approve",
      "outputs": [],
      "stateMutability": "nonpayable",
      "type": "function"
    },
    {
      "inputs": [
        {
          "internalType": "address",
          "name": "owner",
          "type": "address"
        }
      ],
      "name": "balanceOf",
      "outputs": [
        {
          "internalType": "uint256",
          "name": "",
          "type": "uint256"
        }
      ],
      "stateMutability": "view",
      "type": "function"
    },
    {
      "inputs": [],
      "name": "contractOwner",
      "outputs": [
        {
          "internalType": "address",
          "name": "",
          "type": "address"
        }
      ],
      "stateMutability": "view",
      "type": "function"
    },
    {
      "inputs": [
        {
          "internalType": "address",
          "name": "client",
          "type": "address"
        },
        {
          "internalType": "uint256",
          "name": "typeMateriel",
          "type": "uint256"
        },
        {
          "internalType": "string",
          "name": "referenceMateriel",
          "type": "string"
        }
      ],
      "name": "expedition",
      "outputs": [],
      "stateMutability": "nonpayable",
      "type": "function"
    },
    {
      "inputs": [
        {
          "internalType": "uint256",
          "name": "tokenId",
          "type": "uint256"
        }
      ],
      "name": "getApproved",
      "outputs": [
        {
          "internalType": "address",
          "name": "",
          "type": "address"
        }
      ],
      "stateMutability": "view",
      "type": "function"
    },
    {
      "inputs": [
        {
          "internalType": "address",
          "name": "client",
          "type": "address"
        }
      ],
      "name": "getIdByClient",
      "outputs": [
        {
          "internalType": "string[]",
          "name": "",
          "type": "string[]"
        }
      ],
      "stateMutability": "view",
      "type": "function"
    },
    {
      "inputs": [],
      "name": "getJsonCommandes",
      "outputs": [
        {
          "internalType": "string",
          "name": "",
          "type": "string"
        }
      ],
      "stateMutability": "view",
      "type": "function"
    },
    {
      "inputs": [],
      "name": "getListeClients",
      "outputs": [
        {
          "components": [
            {
              "internalType": "address",
              "name": "id",
              "type": "address"
            },
            {
              "internalType": "string",
              "name": "nom",
              "type": "string"
            }
          ],
          "internalType": "struct Demonstrateur.Client[]",
          "name": "",
          "type": "tuple[]"
        }
      ],
      "stateMutability": "view",
      "type": "function"
    },
    {
      "inputs": [],
      "name": "getListeFournisseurs",
      "outputs": [
        {
          "components": [
            {
              "internalType": "address",
              "name": "id",
              "type": "address"
            },
            {
              "internalType": "string",
              "name": "nom",
              "type": "string"
            }
          ],
          "internalType": "struct Demonstrateur.Fournisseur[]",
          "name": "",
          "type": "tuple[]"
        }
      ],
      "stateMutability": "view",
      "type": "function"
    },
    {
      "inputs": [
        {
          "internalType": "address",
          "name": "id",
          "type": "address"
        }
      ],
      "name": "getNomClientByAddress",
      "outputs": [
        {
          "internalType": "string",
          "name": "",
          "type": "string"
        }
      ],
      "stateMutability": "view",
      "type": "function"
    },
    {
      "inputs": [
        {
          "internalType": "address",
          "name": "id",
          "type": "address"
        }
      ],
      "name": "getNomFournisseurByAddress",
      "outputs": [
        {
          "internalType": "string",
          "name": "",
          "type": "string"
        }
      ],
      "stateMutability": "view",
      "type": "function"
    },
    {
      "inputs": [
        {
          "internalType": "address",
          "name": "id",
          "type": "address"
        }
      ],
      "name": "getRoleByAddress",
      "outputs": [
        {
          "internalType": "string",
          "name": "",
          "type": "string"
        }
      ],
      "stateMutability": "view",
      "type": "function"
    },
    {
      "inputs": [],
      "name": "getUriQuantum",
      "outputs": [
        {
          "internalType": "string",
          "name": "",
          "type": "string"
        }
      ],
      "stateMutability": "view",
      "type": "function"
    },
    {
      "inputs": [],
      "name": "getUriS3200",
      "outputs": [
        {
          "internalType": "string",
          "name": "",
          "type": "string"
        }
      ],
      "stateMutability": "view",
      "type": "function"
    },
    {
      "inputs": [
        {
          "internalType": "address",
          "name": "owner",
          "type": "address"
        },
        {
          "internalType": "address",
          "name": "operator",
          "type": "address"
        }
      ],
      "name": "isApprovedForAll",
      "outputs": [
        {
          "internalType": "bool",
          "name": "",
          "type": "bool"
        }
      ],
      "stateMutability": "view",
      "type": "function"
    },
    {
      "inputs": [],
      "name": "name",
      "outputs": [
        {
          "internalType": "string",
          "name": "",
          "type": "string"
        }
      ],
      "stateMutability": "view",
      "type": "function"
    },
    {
      "inputs": [],
      "name": "owner",
      "outputs": [
        {
          "internalType": "address",
          "name": "",
          "type": "address"
        }
      ],
      "stateMutability": "view",
      "type": "function"
    },
    {
      "inputs": [
        {
          "internalType": "uint256",
          "name": "tokenId",
          "type": "uint256"
        }
      ],
      "name": "ownerOf",
      "outputs": [
        {
          "internalType": "address",
          "name": "",
          "type": "address"
        }
      ],
      "stateMutability": "view",
      "type": "function"
    },
    {
      "inputs": [],
      "name": "pause",
      "outputs": [],
      "stateMutability": "nonpayable",
      "type": "function"
    },
    {
      "inputs": [],
      "name": "paused",
      "outputs": [
        {
          "internalType": "bool",
          "name": "",
          "type": "bool"
        }
      ],
      "stateMutability": "view",
      "type": "function"
    },
    {
      "inputs": [
        {
          "internalType": "address",
          "name": "client",
          "type": "address"
        },
        {
          "internalType": "uint256",
          "name": "itemId",
          "type": "uint256"
        },
        {
          "internalType": "uint256",
          "name": "workflowState",
          "type": "uint256"
        }
      ],
      "name": "reception",
      "outputs": [],
      "stateMutability": "nonpayable",
      "type": "function"
    },
    {
      "inputs": [],
      "name": "renounceOwnership",
      "outputs": [],
      "stateMutability": "nonpayable",
      "type": "function"
    },
    {
      "inputs": [
        {
          "internalType": "address",
          "name": "from",
          "type": "address"
        },
        {
          "internalType": "address",
          "name": "to",
          "type": "address"
        },
        {
          "internalType": "uint256",
          "name": "tokenId",
          "type": "uint256"
        }
      ],
      "name": "safeTransferFrom",
      "outputs": [],
      "stateMutability": "nonpayable",
      "type": "function"
    },
    {
      "inputs": [
        {
          "internalType": "address",
          "name": "from",
          "type": "address"
        },
        {
          "internalType": "address",
          "name": "to",
          "type": "address"
        },
        {
          "internalType": "uint256",
          "name": "tokenId",
          "type": "uint256"
        },
        {
          "internalType": "bytes",
          "name": "data",
          "type": "bytes"
        }
      ],
      "name": "safeTransferFrom",
      "outputs": [],
      "stateMutability": "nonpayable",
      "type": "function"
    },
    {
      "inputs": [
        {
          "internalType": "address",
          "name": "operator",
          "type": "address"
        },
        {
          "internalType": "bool",
          "name": "approved",
          "type": "bool"
        }
      ],
      "name": "setApprovalForAll",
      "outputs": [],
      "stateMutability": "nonpayable",
      "type": "function"
    },
    {
      "inputs": [
        {
          "internalType": "string",
          "name": "uriQuantum",
          "type": "string"
        }
      ],
      "name": "setUriQuantum",
      "outputs": [],
      "stateMutability": "nonpayable",
      "type": "function"
    },
    {
      "inputs": [
        {
          "internalType": "string",
          "name": "uriS3200",
          "type": "string"
        }
      ],
      "name": "setUriS3200",
      "outputs": [],
      "stateMutability": "nonpayable",
      "type": "function"
    },
    {
      "inputs": [
        {
          "internalType": "bytes4",
          "name": "interfaceId",
          "type": "bytes4"
        }
      ],
      "name": "supportsInterface",
      "outputs": [
        {
          "internalType": "bool",
          "name": "",
          "type": "bool"
        }
      ],
      "stateMutability": "view",
      "type": "function"
    },
    {
      "inputs": [],
      "name": "symbol",
      "outputs": [
        {
          "internalType": "string",
          "name": "",
          "type": "string"
        }
      ],
      "stateMutability": "view",
      "type": "function"
    },
    {
      "inputs": [
        {
          "internalType": "uint256",
          "name": "tokenId",
          "type": "uint256"
        }
      ],
      "name": "tokenURI",
      "outputs": [
        {
          "internalType": "string",
          "name": "",
          "type": "string"
        }
      ],
      "stateMutability": "view",
      "type": "function"
    },
    {
      "inputs": [
        {
          "internalType": "address",
          "name": "from",
          "type": "address"
        },
        {
          "internalType": "address",
          "name": "to",
          "type": "address"
        },
        {
          "internalType": "uint256",
          "name": "tokenId",
          "type": "uint256"
        }
      ],
      "name": "transferFrom",
      "outputs": [],
      "stateMutability": "nonpayable",
      "type": "function"
    },
    {
      "inputs": [
        {
          "internalType": "address",
          "name": "newOwner",
          "type": "address"
        }
      ],
      "name": "transferOwnership",
      "outputs": [],
      "stateMutability": "nonpayable",
      "type": "function"
    },
    {
      "inputs": [],
      "name": "unpause",
      "outputs": [],
      "stateMutability": "nonpayable",
      "type": "function"
    }
  ],
  "bytecode": "0x60806040523480156200001157600080fd5b5060405162004603380380620046038339810160408190526200003491620002ea565b8251839083906200004d90600090602085019062000107565b5080516200006390600190602084019062000107565b50506007805460ff19169055506200007b33620000ad565b80516200009090600a90602084019062000107565b5050600980546001600160a01b0319163317905550620003e09050565b600780546001600160a01b03838116610100818102610100600160a81b031985161790945560405193909204169182907f8be0079c531659141344cd1fd0a4f28419497f9722a3daafe3b4186f6b6457e090600090a35050565b8280546200011590620003af565b90600052602060002090601f01602090048101928262000139576000855562000184565b82601f106200015457805160ff191683800117855562000184565b8280016001018555821562000184579182015b828111156200018457825182559160200191906001019062000167565b506200019292915062000196565b5090565b5b8082111562000192576000815560010162000197565b634e487b7160e01b600052604160045260246000fd5b601f19601f83011681016001600160401b0381118282101715620001eb57620001eb620001ad565b6040525050565b6000620001fe60405190565b90506200020c8282620001c3565b919050565b60006001600160401b038211156200022d576200022d620001ad565b601f19601f83011660200192915050565b60005b838110156200025b57818101518382015260200162000241565b838111156200026b576000848401525b50505050565b600062000288620002828462000211565b620001f2565b905082815260208101848484011115620002a557620002a5600080fd5b620002b28482856200023e565b509392505050565b600082601f830112620002d057620002d0600080fd5b8151620002e284826020860162000271565b949350505050565b600080600060608486031215620003045762000304600080fd5b83516001600160401b038111156200031f576200031f600080fd5b6200032d86828701620002ba565b602086015190945090506001600160401b03811115620003505762000350600080fd5b6200035e86828701620002ba565b604086015190935090506001600160401b03811115620003815762000381600080fd5b6200038f86828701620002ba565b9150509250925092565b634e487b7160e01b600052602260045260246000fd5b600281046001821680620003c457607f821691505b60208210811415620003da57620003da62000399565b50919050565b61421380620003f06000396000f3fe608060405234801561001057600080fd5b50600436106102775760003560e01c8063715018a611610160578063a688f035116100d8578063ddf387f41161008c578063e985e9c511610071578063e985e9c5146104df578063f2fde38b1461051b578063f53790f11461052e57600080fd5b8063ddf387f4146104b9578063e2339ba3146104cc57600080fd5b8063b9ce1395116100bd578063b9ce13951461048b578063c87b56dd14610493578063ce606ee0146104a657600080fd5b8063a688f03514610463578063b88d4fde1461047857600080fd5b806389e231ae1161012f57806395d89b411161011457806395d89b4114610435578063a22cb4651461043d578063a27421af1461045057600080fd5b806389e231ae1461040c5780638da5cb5b1461041f57600080fd5b8063715018a6146103d45780637bff77d4146103dc5780637e5db4c7146103ef5780638456cb591461040457600080fd5b80633f4ba83a116101f35780634cb01278116101c25780635c975abb116101a75780635c975abb146103965780636352211e146103a157806370a08231146103b457600080fd5b80634cb012781461037b5780634fb75e4f1461038e57600080fd5b80633f4ba83a1461035057806342842e0e14610358578063457d53381461036b5780634835cae71461037357600080fd5b8063213f61b31161024a57806323b872dd1161022f57806323b872dd146103225780632a40807c1461033557806337bd6c5e1461034857600080fd5b8063213f61b3146102ef5780632163b1011461030f57600080fd5b806301ffc9a71461027c57806306fdde03146102a5578063081812fc146102ba578063095ea7b3146102da575b600080fd5b61028f61028a366004612f7f565b610541565b60405161029c9190612faa565b60405180910390f35b6102ad610626565b60405161029c9190613016565b6102cd6102c8366004613038565b6106b8565b60405161029c9190613073565b6102ed6102e8366004613095565b6106df565b005b6103026102fd3660046130d2565b61078c565b60405161029c9190613169565b6102ad61031d3660046130d2565b6109b3565b6102ed61033036600461317a565b610b75565b6102ed6103433660046132bd565b610ba6565b6102ad610bc5565b6102ed610c53565b6102ed61036636600461317a565b610c65565b6102ad610c80565b6102ad610c8f565b6102ed6103893660046132f8565b610c9e565b6102ad610d89565b60075460ff1661028f565b6102cd6103af366004613038565b611089565b6103c76103c23660046130d2565b6110be565b60405161029c9190613333565b6102ed611102565b6102ad6103ea3660046130d2565b611114565b6103f7611308565b60405161029c91906133da565b6102ed61140e565b6102ed61041a3660046133eb565b61141e565b60075461010090046001600160a01b03166102cd565b6102ad611544565b6102ed61044b36600461344c565b611553565b6102ed61045e36600461347f565b61155e565b61046b611789565b60405161029c9190613538565b6102ed610486366004613549565b611886565b6102ad6118b8565b6102ad6104a1366004613038565b6118c5565b6009546102cd906001600160a01b031681565b6102ed6104c73660046132bd565b6119c9565b6102ad6104da3660046130d2565b6119e4565b61028f6104ed3660046135c8565b6001600160a01b03918216600090815260056020908152604080832093909416825291909152205460ff1690565b6102ed6105293660046130d2565b611b86565b6102ed61053c3660046133eb565b611bc0565b60007fffffffff0000000000000000000000000000000000000000000000000000000082167f80ac58cd0000000000000000000000000000000000000000000000000000000014806105d457507fffffffff0000000000000000000000000000000000000000000000000000000082167f5b5e139f00000000000000000000000000000000000000000000000000000000145b8061062057507f01ffc9a7000000000000000000000000000000000000000000000000000000007fffffffff000000000000000000000000000000000000000000000000000000008316145b92915050565b60606000805461063590613611565b80601f016020809104026020016040519081016040528092919081815260200182805461066190613611565b80156106ae5780601f10610683576101008083540402835291602001916106ae565b820191906000526020600020905b81548152906001019060200180831161069157829003601f168201915b5050505050905090565b60006106c382611cdf565b506000908152600460205260409020546001600160a01b031690565b60006106ea82611089565b9050806001600160a01b0316836001600160a01b031614156107275760405162461bcd60e51b815260040161071e90613698565b60405180910390fd5b336001600160a01b038216148061076157506001600160a01b038116600090815260056020908152604080832033845290915290205460ff165b61077d5760405162461bcd60e51b815260040161071e90613700565b6107878383611d13565b505050565b60606107cd6040518060400160405280601881526020017f67657449644279436c69656e742061646472657373202573000000000000000081525083611d8e565b6000806107d984611e01565b67ffffffffffffffff8111156107f1576107f16131ca565b60405190808252806020026020018201604052801561082457816020015b606081526020019060019003908161080f5790505b50905060005b6008548110156109ab576000818152600d60209081526040808320815160c08101835281546001600160a01b03908116825260018301541693810193909352600281018054919284019161087d90613611565b80601f01602080910402602001604051908101604052809291908181526020018280546108a990613611565b80156108f65780601f106108cb576101008083540402835291602001916108f6565b820191906000526020600020905b8154815290600101906020018083116108d957829003601f168201915b5050509183525050600382810154602083015260048301546040830152600583015460609092019160ff169081111561093157610931613710565b600381111561094257610942613710565b815250509050856001600160a01b031681602001516001600160a01b031614156109985761096f82611fc9565b838561097a8161373c565b96508151811061098c5761098c613757565b60200260200101819052505b50806109a38161373c565b91505061082a565b509392505050565b604080518082019091526007815266496e636f6e6e7560c81b602082015260609060005b600f54811015610b35576000600f82815481106109f6576109f6613757565b60009182526020918290206040805180820190915260029092020180546001600160a01b031682526001810180549293919291840191610a3590613611565b80601f0160208091040260200160405190810160405280929190818152602001828054610a6190613611565b8015610aae5780601f10610a8357610100808354040283529160200191610aae565b820191906000526020600020905b815481529060010190602001808311610a9157829003601f168201915b5050505050815250509050846001600160a01b031681600001516001600160a01b03161415610b2257610b1a6040518060400160405280602081526020017f676574436c69656e74427941646472657373205f636c69656e742e69642025738152508260000151611d8e565b806020015192505b5080610b2d8161373c565b9150506109d7565b506106206040518060400160405280601981526020017f676574436c69656e74427941646472657373206e6f6d202573000000000000008152508261206b565b610b7f33826120de565b610b9b5760405162461bcd60e51b815260040161071e906137c5565b61078783838361215c565b610bae61229e565b8051610bc190600c906020840190612eac565b5050565b600b8054610bd290613611565b80601f0160208091040260200160405190810160405280929190818152602001828054610bfe90613611565b8015610c4b5780601f10610c2057610100808354040283529160200191610c4b565b820191906000526020600020905b815481529060010190602001808311610c2e57829003601f168201915b505050505081565b610c5b61229e565b610c636122ce565b565b61078783838360405180602001604052806000815250611886565b6060600b805461063590613611565b6060600c805461063590613611565b610cde6040518060400160405280601e81526020017f726563657074696f6e2061646472657373202573206974656d49642025730000815250848461231a565b6001600160a01b038316610d045760405162461bcd60e51b815260040161071e90613807565b801580610d115750806001145b610d2d5760405162461bcd60e51b815260040161071e90613849565b80610d53576000828152600d60205260409020600501805460ff19166002179055610d70565b6000828152600d60205260409020600501805460ff191660031790555b506000908152600d602052604090204260049091015550565b604080518082018252600181527f5b000000000000000000000000000000000000000000000000000000000000006020808301919091528251808201845260008082528451808401865281815285519384019095528083526060949192905b6008548160ff1610156110255760ff81166000908152600d60209081526040808320815160c08101835281546001600160a01b039081168252600183015416938101939093526002810180549192840191610e4290613611565b80601f0160208091040260200160405190810160405280929190818152602001828054610e6e90613611565b8015610ebb5780601f10610e9057610100808354040283529160200191610ebb565b820191906000526020600020905b815481529060010190602001808311610e9e57829003601f168201915b5050509183525050600382810154602083015260048301546040830152600583015460609092019160ff1690811115610ef657610ef6613710565b6003811115610f0757610f07613710565b815250509050610f1a81602001516109b3565b9350610f2981600001516109b3565b925060ff821615610f6d576040518060400160405280600181526020017f2c0000000000000000000000000000000000000000000000000000000000000081525094505b600085610f7c8460ff16611fc9565b8351610f879061238f565b86610f95866020015161238f565b898760400151610fa88960600151611fc9565b610fb58a60800151611fc9565b610fc28b60a001516123a5565b604051602001610fdb9a9998979695949392919061387b565b60405160208183030381529060405290508681604051602001610fff929190613aa8565b60405160208183030381529060405296505050808061101d90613abe565b915050610de8565b50836040516020016110379190613ad7565b60408051601f19818403018152828201909152601182527f4a736f6e436f6d6d616e6465732025732000000000000000000000000000000060208301529450611080908561206b565b50919392505050565b6000818152600260205260408120546001600160a01b0316806106205760405162461bcd60e51b815260040161071e90613b3f565b60006001600160a01b0382166110e65760405162461bcd60e51b815260040161071e90613ba7565b506001600160a01b031660009081526003602052604090205490565b61110a61229e565b610c636000612503565b60408051808201909152600681527f4e6f526f6c6500000000000000000000000000000000000000000000000000006020820152600954606091906001600160a01b038481169116141561119d57505060408051808201909152600581527f4f776e65720000000000000000000000000000000000000000000000000000006020820152919050565b60405166496e636f6e6e7560c81b6020820152602701604051602081830303815290604052805190602001206111d2846109b3565b6040516020016111e29190613bb7565b6040516020818303038152906040528051906020012014611233575060408051808201909152600681527f436c69656e74000000000000000000000000000000000000000000000000000060208201525b60405166496e636f6e6e7560c81b602082015260270160405160208183030381529060405280519060200120611268846119e4565b6040516020016112789190613bb7565b60405160208183030381529060405280519060200120146112c9575060408051808201909152600b81527f466f75726e69737365757200000000000000000000000000000000000000000060208201525b6106206040518060400160405280601881526020017f676574526f6c6542794164647265737320726f6c6520257300000000000000008152508261206b565b60606010805480602002602001604051908101604052809291908181526020016000905b82821015611405576000848152602090819020604080518082019091526002850290910180546001600160a01b03168252600181018054929391929184019161137490613611565b80601f01602080910402602001604051908101604052809291908181526020018280546113a090613611565b80156113ed5780601f106113c2576101008083540402835291602001916113ed565b820191906000526020600020905b8154815290600101906020018083116113d057829003601f168201915b5050505050815250508152602001906001019061132c565b50505050905090565b61141661229e565b610c63612574565b61142661229e565b6114666040518060400160405280601681526020017f726563657074696f6e206964202573206e6f6d2025730000000000000000000081525083836125b1565b6001600160a01b03821661148c5760405162461bcd60e51b815260040161071e90613807565b604080518082019091526001600160a01b03838116825260208083018481526010805460018101825560009190915284517f1b6847dc741a1b0cd08d278845f9d819d87b734759afb55fe2de5cb82a9ae6726002909202918201805473ffffffffffffffffffffffffffffffffffffffff1916919095161784559051805161153d937f1b6847dc741a1b0cd08d278845f9d819d87b734759afb55fe2de5cb82a9ae673909301929190910190612eac565b5050505050565b60606001805461063590613611565b610bc1338383612626565b61158160405180606001604052806025815260200161419760259139848461231a565b6001600160a01b0383166115a75760405162461bcd60e51b815260040161071e90613807565b8115806115b45750816001145b6115d05760405162461bcd60e51b815260040161071e90613bf3565b60006115db60085490565b90506115e784826126c9565b826116855761168081600b80546115fd90613611565b80601f016020809104026020016040519081016040528092919081815260200182805461162990613611565b80156116765780601f1061164b57610100808354040283529160200191611676565b820191906000526020600020905b81548152906001019060200180831161165957829003601f168201915b50505050506126e3565b611696565b61169681600c80546115fd90613611565b6040805160c0810182523381526001600160a01b03861660208201529081018390524260608201526000608082015260a08101600190526000828152600d6020908152604091829020835181546001600160a01b0391821673ffffffffffffffffffffffffffffffffffffffff19918216178355858401516001840180549190931691161790559183015180516117339260028501920190612eac565b50606082015181600301556080820151816004015560a08201518160050160006101000a81548160ff0219169083600381111561177257611772613710565b021790555050600880546001019055505b50505050565b6060600f805480602002602001604051908101604052809291908181526020016000905b82821015611405576000848152602090819020604080518082019091526002850290910180546001600160a01b0316825260018101805492939192918401916117f590613611565b80601f016020809104026020016040519081016040528092919081815260200182805461182190613611565b801561186e5780601f106118435761010080835404028352916020019161186e565b820191906000526020600020905b81548152906001019060200180831161185157829003601f168201915b505050505081525050815260200190600101906117ad565b61189033836120de565b6118ac5760405162461bcd60e51b815260040161071e906137c5565b61178384848484612736565b600c8054610bd290613611565b60606118d082611cdf565b600082815260066020526040812080546118e990613611565b80601f016020809104026020016040519081016040528092919081815260200182805461191590613611565b80156119625780601f1061193757610100808354040283529160200191611962565b820191906000526020600020905b81548152906001019060200180831161194557829003601f168201915b505050505090506000611973612769565b9050805160001415611986575092915050565b8151156119b85780826040516020016119a0929190613aa8565b60405160208183030381529060405292505050919050565b6119c184612778565b949350505050565b6119d161229e565b8051610bc190600b906020840190612eac565b604080518082019091526007815266496e636f6e6e7560c81b602082015260609060005b601054811015611b4657600060108281548110611a2757611a27613757565b60009182526020918290206040805180820190915260029092020180546001600160a01b031682526001810180549293919291840191611a6690613611565b80601f0160208091040260200160405190810160405280929190818152602001828054611a9290613611565b8015611adf5780601f10611ab457610100808354040283529160200191611adf565b820191906000526020600020905b815481529060010190602001808311611ac257829003601f168201915b5050505050815250509050846001600160a01b031681600001516001600160a01b03161415611b3357611b2b6040518060600160405280602a815260200161416d602a91398251611d8e565b806020015192505b5080611b3e8161373c565b915050611a08565b506106206040518060400160405280601e81526020017f676574466f75726e697373657572427941646472657373206e6f6d20257300008152508261206b565b611b8e61229e565b6001600160a01b038116611bb45760405162461bcd60e51b815260040161071e90613c5b565b611bbd81612503565b50565b611bc861229e565b611c086040518060400160405280601681526020017f726563657074696f6e206964202573206e6f6d2025730000000000000000000081525083836125b1565b6001600160a01b038216611c2e5760405162461bcd60e51b815260040161071e90613807565b604080518082019091526001600160a01b0383811682526020808301848152600f805460018101825560009190915284517f8d1108e10bcb7c27dddfc02ed9d693a074039d026cf4ea4240b40f7d581ac8026002909202918201805473ffffffffffffffffffffffffffffffffffffffff1916919095161784559051805161153d937f8d1108e10bcb7c27dddfc02ed9d693a074039d026cf4ea4240b40f7d581ac803909301929190910190612eac565b6000818152600260205260409020546001600160a01b0316611bbd5760405162461bcd60e51b815260040161071e90613b3f565b6000818152600460205260409020805473ffffffffffffffffffffffffffffffffffffffff19166001600160a01b0384169081179091558190611d5582611089565b6001600160a01b03167f8c5be1e5ebec7d5bd14f71427d1e84f3dd0314c0f7b2291e5b200ac8c7c3b92560405160405180910390a45050565b610bc18282604051602401611da4929190613c6b565b60408051601f198184030181529190526020810180517bffffffffffffffffffffffffffffffffffffffffffffffffffffffff167f319af333000000000000000000000000000000000000000000000000000000001790526127df565b600080805b600854811015611f89576000818152600d60209081526040808320815160c08101835281546001600160a01b039081168252600183015416938101939093526002810180549192840191611e5990613611565b80601f0160208091040260200160405190810160405280929190818152602001828054611e8590613611565b8015611ed25780601f10611ea757610100808354040283529160200191611ed2565b820191906000526020600020905b815481529060010190602001808311611eb557829003601f168201915b5050509183525050600382810154602083015260048301546040830152600583015460609092019160ff1690811115611f0d57611f0d613710565b6003811115611f1e57611f1e613710565b815250509050611f4a6040518060600160405280602281526020016141bc602291398260200151611d8e565b846001600160a01b031681602001516001600160a01b03161415611f765782611f728161373c565b9350505b5080611f818161373c565b915050611e06565b506106206040518060400160405280601c81526020017f67657453697a654279436c69656e74206974656d436f756e742025730000000081525082612800565b60606000611fd683612873565b600101905060008167ffffffffffffffff811115611ff657611ff66131ca565b6040519080825280601f01601f191660200182016040528015612020576020820181803683370190505b5090508181016020015b600019017f3031323334353637383961626364656600000000000000000000000000000000600a86061a8153600a8504945084612066576109ab565b61202a565b610bc18282604051602401612081929190613c8b565b60408051601f198184030181529190526020810180517bffffffffffffffffffffffffffffffffffffffffffffffffffffffff167f4b5c4277000000000000000000000000000000000000000000000000000000001790526127df565b6000806120ea83611089565b9050806001600160a01b0316846001600160a01b0316148061213157506001600160a01b0380821660009081526005602090815260408083209388168352929052205460ff165b806119c15750836001600160a01b031661214a846106b8565b6001600160a01b031614949350505050565b826001600160a01b031661216f82611089565b6001600160a01b0316146121955760405162461bcd60e51b815260040161071e90613d08565b6001600160a01b0382166121bb5760405162461bcd60e51b815260040161071e90613d70565b6121c88383836001612955565b826001600160a01b03166121db82611089565b6001600160a01b0316146122015760405162461bcd60e51b815260040161071e90613d08565b6000818152600460209081526040808320805473ffffffffffffffffffffffffffffffffffffffff199081169091556001600160a01b0387811680865260038552838620805460001901905590871680865283862080546001019055868652600290945282852080549092168417909155905184937fddf252ad1be2c89b69c2b068fc378daa952ba7f163c4a11628f55a4df523b3ef91a4505050565b6007546001600160a01b03610100909104163314610c635760405162461bcd60e51b815260040161071e90613db0565b6122d66129dd565b6007805460ff191690557f5db9ee0a495bf2e6ff9c91a7834c1ba4fdd244a5e8aa4e537bd38aeae4b073aa335b6040516123109190613073565b60405180910390a1565b61078783838360405160240161233293929190613dc0565b60408051601f198184030181529190526020810180517bffffffffffffffffffffffffffffffffffffffffffffffffffffffff167f0d26b925000000000000000000000000000000000000000000000000000000001790526127df565b60606106206001600160a01b03831660146129ff565b60608160038111156123b9576123b9613710565b6123f657505060408051808201909152600881527f4372656174696f6e000000000000000000000000000000000000000000000000602082015290565b81600381111561240857612408613710565b6001141561244957505060408051808201909152600a81527f45787065646974696f6e00000000000000000000000000000000000000000000602082015290565b81600381111561245b5761245b613710565b6002141561249c57505060408051808201909152600981527f526563657074696f6e0000000000000000000000000000000000000000000000602082015290565b8160038111156124ae576124ae613710565b600314156124ef57505060408051808201909152600a81527f416e6e756c6174696f6e00000000000000000000000000000000000000000000602082015290565b505060408051602081019091526000815290565b600780546001600160a01b038381166101008181027fffffffffffffffffffffff0000000000000000000000000000000000000000ff85161790945560405193909204169182907f8be0079c531659141344cd1fd0a4f28419497f9722a3daafe3b4186f6b6457e090600090a35050565b61257c612bf8565b6007805460ff191660011790557f62e78cea01bee320cd4e420270b5ea74000d11b0c9f74754ebdbfc544b05a2586123033390565b6107878383836040516024016125c993929190613ded565b60408051601f198184030181529190526020810180517bffffffffffffffffffffffffffffffffffffffffffffffffffffffff167fe0e9ad4f000000000000000000000000000000000000000000000000000000001790526127df565b816001600160a01b0316836001600160a01b031614156126585760405162461bcd60e51b815260040161071e90613e51565b6001600160a01b0383811660008181526005602090815260408083209487168084529490915290819020805460ff1916851515179055517f17307eab39ab6107e8899845ad3d59bd9653f200f220920489ca2b5937696c31906126bc908590612faa565b60405180910390a3505050565b610bc1828260405180602001604052806000815250612c1b565b6000828152600260205260409020546001600160a01b03166127175760405162461bcd60e51b815260040161071e90613eb9565b6000828152600660209081526040909120825161078792840190612eac565b61274184848461215c565b61274d84848484612c4e565b6117835760405162461bcd60e51b815260040161071e90613f21565b6060600a805461063590613611565b606061278382611cdf565b600061278d612769565b905060008151116127ad57604051806020016040528060008152506127d8565b806127b784611fc9565b6040516020016127c8929190613aa8565b6040516020818303038152906040525b9392505050565b80516a636f6e736f6c652e6c6f67602083016000808483855afa5050505050565b610bc18282604051602401612816929190613f31565b60408051601f198184030181529190526020810180517bffffffffffffffffffffffffffffffffffffffffffffffffffffffff167fb60e72cc000000000000000000000000000000000000000000000000000000001790526127df565b6000807a184f03e93ff9f4daa797ed6e38ed64bf6a1f01000000000000000083106128bc577a184f03e93ff9f4daa797ed6e38ed64bf6a1f010000000000000000830492506040015b6d04ee2d6d415b85acef810000000083106128e8576d04ee2d6d415b85acef8100000000830492506020015b662386f26fc10000831061290657662386f26fc10000830492506010015b6305f5e100831061291e576305f5e100830492506008015b612710831061293257612710830492506004015b60648310612944576064830492506002015b600a83106106205760010192915050565b6001811115611783576001600160a01b0384161561299b576001600160a01b03841660009081526003602052604081208054839290612995908490613f51565b90915550505b6001600160a01b03831615611783576001600160a01b038316600090815260036020526040812080548392906129d2908490613f68565b909155505050505050565b60075460ff16610c635760405162461bcd60e51b815260040161071e90613fb2565b60606000612a0e836002613fc2565b612a19906002613f68565b67ffffffffffffffff811115612a3157612a316131ca565b6040519080825280601f01601f191660200182016040528015612a5b576020820181803683370190505b5090507f300000000000000000000000000000000000000000000000000000000000000081600081518110612a9257612a92613757565b60200101907effffffffffffffffffffffffffffffffffffffffffffffffffffffffffffff1916908160001a9053507f780000000000000000000000000000000000000000000000000000000000000081600181518110612af557612af5613757565b60200101907effffffffffffffffffffffffffffffffffffffffffffffffffffffffffffff1916908160001a9053506000612b31846002613fc2565b612b3c906001613f68565b90505b6001811115612bd9577f303132333435363738396162636465660000000000000000000000000000000085600f1660108110612b7d57612b7d613757565b1a60f81b828281518110612b9357612b93613757565b60200101907effffffffffffffffffffffffffffffffffffffffffffffffffffffffffffff1916908160001a90535060049490941c93612bd281613fe1565b9050612b3f565b5083156127d85760405162461bcd60e51b815260040161071e90614028565b60075460ff1615610c635760405162461bcd60e51b815260040161071e9061406a565b612c258383612d96565b612c326000848484612c4e565b6107875760405162461bcd60e51b815260040161071e90613f21565b60006001600160a01b0384163b15612d8b576040517f150b7a020000000000000000000000000000000000000000000000000000000081526001600160a01b0385169063150b7a0290612cab90339089908890889060040161407a565b6020604051808303816000875af1925050508015612ce6575060408051601f3d908101601f19168201909252612ce3918101906140c9565b60015b612d40573d808015612d14576040519150601f19603f3d011682016040523d82523d6000602084013e612d19565b606091505b508051612d385760405162461bcd60e51b815260040161071e90613f21565b805181602001fd5b7fffffffff00000000000000000000000000000000000000000000000000000000167f150b7a02000000000000000000000000000000000000000000000000000000001490506119c1565b506001949350505050565b6001600160a01b038216612dbc5760405162461bcd60e51b815260040161071e9061411a565b6000818152600260205260409020546001600160a01b031615612df15760405162461bcd60e51b815260040161071e9061415c565b612dff600083836001612955565b6000818152600260205260409020546001600160a01b031615612e345760405162461bcd60e51b815260040161071e9061415c565b6001600160a01b0382166000818152600360209081526040808320805460010190558483526002909152808220805473ffffffffffffffffffffffffffffffffffffffff19168417905551839291907fddf252ad1be2c89b69c2b068fc378daa952ba7f163c4a11628f55a4df523b3ef908290a45050565b828054612eb890613611565b90600052602060002090601f016020900481019282612eda5760008555612f20565b82601f10612ef357805160ff1916838001178555612f20565b82800160010185558215612f20579182015b82811115612f20578251825591602001919060010190612f05565b50612f2c929150612f30565b5090565b5b80821115612f2c5760008155600101612f31565b7fffffffff0000000000000000000000000000000000000000000000000000000081165b8114611bbd57600080fd5b803561062081612f45565b600060208284031215612f9457612f94600080fd5b60006119c18484612f74565b8015155b82525050565b602081016106208284612fa0565b60005b83811015612fd3578181015183820152602001612fbb565b838111156117835750506000910152565b6000612fee825190565b808452602084019350613005818560208601612fb8565b601f01601f19169290920192915050565b602080825281016127d88184612fe4565b80612f69565b803561062081613027565b60006020828403121561304d5761304d600080fd5b60006119c1848461302d565b60006001600160a01b038216610620565b612fa481613059565b60208101610620828461306a565b612f6981613059565b803561062081613081565b600080604083850312156130ab576130ab600080fd5b60006130b7858561308a565b92505060206130c88582860161302d565b9150509250929050565b6000602082840312156130e7576130e7600080fd5b60006119c1848461308a565b60006127d88383612fe4565b60200190565b600061310f825190565b808452602084019350836020820285016131298560200190565b60005b8481101561315d578383038852815161314584826130f3565b9350506020820160209890980197915060010161312c565b50909695505050505050565b602080825281016127d88184613105565b60008060006060848603121561319257613192600080fd5b600061319e868661308a565b93505060206131af8682870161308a565b92505060406131c08682870161302d565b9150509250925092565b634e487b7160e01b600052604160045260246000fd5b601f19601f830116810181811067ffffffffffffffff82111715613206576132066131ca565b6040525050565b600061321860405190565b905061322482826131e0565b919050565b600067ffffffffffffffff821115613243576132436131ca565b601f19601f83011660200192915050565b82818337506000910152565b600061327361326e84613229565b61320d565b90508281526020810184848401111561328e5761328e600080fd5b6109ab848285613254565b600082601f8301126132ad576132ad600080fd5b81356119c1848260208601613260565b6000602082840312156132d2576132d2600080fd5b813567ffffffffffffffff8111156132ec576132ec600080fd5b6119c184828501613299565b60008060006060848603121561331057613310600080fd5b600061331c868661308a565b93505060206131af8682870161302d565b80612fa4565b60208101610620828461332d565b80516000906040840190613355858261306a565b506020830151848203602086015261336d8282612fe4565b95945050505050565b60006127d88383613341565b600061338c825190565b808452602084019350836020820285016133a68560200190565b60005b8481101561315d57838303885281516133c28482613376565b935050602082016020989098019791506001016133a9565b602080825281016127d88184613382565b6000806040838503121561340157613401600080fd5b600061340d858561308a565b925050602083013567ffffffffffffffff81111561342d5761342d600080fd5b6130c885828601613299565b801515612f69565b803561062081613439565b6000806040838503121561346257613462600080fd5b600061346e858561308a565b92505060206130c885828601613441565b60008060006060848603121561349757613497600080fd5b60006134a3868661308a565b93505060206134b48682870161302d565b925050604084013567ffffffffffffffff8111156134d4576134d4600080fd5b6131c086828701613299565b60006134ea825190565b808452602084019350836020820285016135048560200190565b60005b8481101561315d57838303885281516135208482613376565b93505060208201602098909801979150600101613507565b602080825281016127d881846134e0565b6000806000806080858703121561356257613562600080fd5b600061356e878761308a565b945050602061357f8782880161308a565b93505060406135908782880161302d565b925050606085013567ffffffffffffffff8111156135b0576135b0600080fd5b6135bc87828801613299565b91505092959194509250565b600080604083850312156135de576135de600080fd5b60006135ea858561308a565b92505060206130c88582860161308a565b634e487b7160e01b600052602260045260246000fd5b60028104600182168061362557607f821691505b60208210811415613638576136386135fb565b50919050565b60218152602081017f4552433732313a20617070726f76616c20746f2063757272656e74206f776e6581527f7200000000000000000000000000000000000000000000000000000000000000602082015290505b60400190565b602080825281016106208161363e565b603d8152602081017f4552433732313a20617070726f76652063616c6c6572206973206e6f7420746f81527f6b656e206f776e6572206f7220617070726f76656420666f7220616c6c00000060208201529050613692565b60208082528101610620816136a8565b634e487b7160e01b600052602160045260246000fd5b634e487b7160e01b600052601160045260246000fd5b600060001982141561375057613750613726565b5060010190565b634e487b7160e01b600052603260045260246000fd5b602d8152602081017f4552433732313a2063616c6c6572206973206e6f7420746f6b656e206f776e6581527f72206f7220617070726f7665640000000000000000000000000000000000000060208201529050613692565b602080825281016106208161376d565b60128152602081017f41646472657373206e6f742076616c6964650000000000000000000000000000815290506130ff565b60208082528101610620816137d5565b60188152602081017f776f726b666c6f775374617465206e6f742076616c6964650000000000000000815290506130ff565b6020808252810161062081613817565b6000613863825190565b613871818560208601612fb8565b9290920192915050565b613885818c613859565b7f7b00000000000000000000000000000000000000000000000000000000000000815290506001016138d6817f226964223a0000000000000000000000000000000000000000000000000000009052565b6005016138e3818b613859565b7f2c22666f75726e697373657572223a220000000000000000000000000000000081529050601001613915818a613859565b7f222c226e6f6d466f75726e697373657572223a22000000000000000000000000815290506014016139478189613859565b7f222c22636c69656e74223a22000000000000000000000000000000000000000081529050600c016139798188613859565b7f222c226e6f6d436c69656e74223a22000000000000000000000000000000000081529050600f016139ab8187613859565b7f222c227265666572656e63654d6174657269656c223a22000000000000000000815290506017016139dd8186613859565b7f222c226461746545787065646974696f6e223a0000000000000000000000000081529050601301613a0f8185613859565b7f2c2264617465526563657074696f6e223a00000000000000000000000000000081529050601101613a418184613859565b7f2c22776f726b666c6f775374617465223a22000000000000000000000000000081529050601201613a738183613859565b7f227d00000000000000000000000000000000000000000000000000000000000081526002019b9a5050505050505050505050565b613ab28184613859565b90506127d88183613859565b60ff81169050600060ff82141561375057613750613726565b613ae18183613859565b7f5d00000000000000000000000000000000000000000000000000000000000000815260010192915050565b60188152602081017f4552433732313a20696e76616c696420746f6b656e2049440000000000000000815290506130ff565b6020808252810161062081613b0d565b60298152602081017f4552433732313a2061646472657373207a65726f206973206e6f74206120766181527f6c6964206f776e6572000000000000000000000000000000000000000000000060208201529050613692565b6020808252810161062081613b4f565b6106208183613859565b601b8152602081017f54797065206465204d6174657269656c206e6f742076616c6964650000000000815290506130ff565b6020808252810161062081613bc1565b60268152602081017f4f776e61626c653a206e6577206f776e657220697320746865207a65726f206181527f646472657373000000000000000000000000000000000000000000000000000060208201529050613692565b6020808252810161062081613c03565b60408082528101613c7c8185612fe4565b90506127d8602083018461306a565b60408082528101613c9c8185612fe4565b905081810360208301526119c18184612fe4565b60258152602081017f4552433732313a207472616e736665722066726f6d20696e636f72726563742081527f6f776e657200000000000000000000000000000000000000000000000000000060208201529050613692565b6020808252810161062081613cb0565b60248152602081017f4552433732313a207472616e7366657220746f20746865207a65726f2061646481527f726573730000000000000000000000000000000000000000000000000000000060208201529050613692565b6020808252810161062081613d18565b60208082527f4f776e61626c653a2063616c6c6572206973206e6f7420746865206f776e657291019081526130ff565b6020808252810161062081613d80565b60608082528101613dd18186612fe4565b9050613de0602083018561306a565b6119c1604083018461332d565b60608082528101613dfe8186612fe4565b9050613e0d602083018561306a565b818103604083015261336d8184612fe4565b60198152602081017f4552433732313a20617070726f766520746f2063616c6c657200000000000000815290506130ff565b6020808252810161062081613e1f565b602e8152602081017f45524337323155524953746f726167653a2055524920736574206f66206e6f6e81527f6578697374656e7420746f6b656e00000000000000000000000000000000000060208201529050613692565b6020808252810161062081613e61565b60328152602081017f4552433732313a207472616e7366657220746f206e6f6e20455243373231526581527f63656976657220696d706c656d656e746572000000000000000000000000000060208201529050613692565b6020808252810161062081613ec9565b60408082528101613f428185612fe4565b90506127d8602083018461332d565b600082821015613f6357613f63613726565b500390565b60008219821115613f7b57613f7b613726565b500190565b60148152602081017f5061757361626c653a206e6f7420706175736564000000000000000000000000815290506130ff565b6020808252810161062081613f80565b6000816000190483118215151615613fdc57613fdc613726565b500290565b600081613ff057613ff0613726565b506000190190565b60208082527f537472696e67733a20686578206c656e67746820696e73756666696369656e7491019081526130ff565b6020808252810161062081613ff8565b60108152602081017f5061757361626c653a2070617573656400000000000000000000000000000000815290506130ff565b6020808252810161062081614038565b60808101614088828761306a565b614095602083018661306a565b6140a2604083018561332d565b81810360608301526140b48184612fe4565b9695505050505050565b805161062081612f45565b6000602082840312156140de576140de600080fd5b60006119c184846140be565b60208082527f4552433732313a206d696e7420746f20746865207a65726f206164647265737391019081526130ff565b60208082528101610620816140ea565b601c8152602081017f4552433732313a20746f6b656e20616c7265616479206d696e74656400000000815290506130ff565b602080825281016106208161412a56fe676574466f75726e697373657572427941646472657373205f666f75726e6973736575722e696420257365787065646974696f6e206164647265737320257320747970654d6174657269656c20257367657453697a654279436c69656e7420636f6d6d616e64652e636c69656e74202573a2646970667358221220cc6b1e52436084996af24189a421cffbc3229afdd35ecc92959f9acf180b420964736f6c634300080c0033",
  "linkReferences": {},
  "deployedLinkReferences": {}
}