{
  "_format": "hh-sol-artifact-1",
  "contractName": "Demonstrateur",
  "sourceName": "contracts/Demonstrateur.sol",
  "abi": [
    {
      "inputs": [
        {
          "internalType": "string",
          "name": "definitiveName",
          "type": "string"
        },
        {
          "internalType": "string",
          "name": "definitiveSymbol",
          "type": "string"
        },
        {
          "internalType": "string",
          "name": "definitiveBaseURI",
          "type": "string"
        }
      ],
      "stateMutability": "nonpayable",
      "type": "constructor"
    },
    {
      "anonymous": false,
      "inputs": [
        {
          "indexed": true,
          "internalType": "address",
          "name": "owner",
          "type": "address"
        },
        {
          "indexed": true,
          "internalType": "address",
          "name": "approved",
          "type": "address"
        },
        {
          "indexed": true,
          "internalType": "uint256",
          "name": "tokenId",
          "type": "uint256"
        }
      ],
      "name": "Approval",
      "type": "event"
    },
    {
      "anonymous": false,
      "inputs": [
        {
          "indexed": true,
          "internalType": "address",
          "name": "owner",
          "type": "address"
        },
        {
          "indexed": true,
          "internalType": "address",
          "name": "operator",
          "type": "address"
        },
        {
          "indexed": false,
          "internalType": "bool",
          "name": "approved",
          "type": "bool"
        }
      ],
      "name": "ApprovalForAll",
      "type": "event"
    },
    {
      "anonymous": false,
      "inputs": [
        {
          "indexed": true,
          "internalType": "address",
          "name": "previousOwner",
          "type": "address"
        },
        {
          "indexed": true,
          "internalType": "address",
          "name": "newOwner",
          "type": "address"
        }
      ],
      "name": "OwnershipTransferred",
      "type": "event"
    },
    {
      "anonymous": false,
      "inputs": [
        {
          "indexed": false,
          "internalType": "address",
          "name": "account",
          "type": "address"
        }
      ],
      "name": "Paused",
      "type": "event"
    },
    {
      "anonymous": false,
      "inputs": [
        {
          "indexed": true,
          "internalType": "address",
          "name": "from",
          "type": "address"
        },
        {
          "indexed": true,
          "internalType": "address",
          "name": "to",
          "type": "address"
        },
        {
          "indexed": true,
          "internalType": "uint256",
          "name": "tokenId",
          "type": "uint256"
        }
      ],
      "name": "Transfer",
      "type": "event"
    },
    {
      "anonymous": false,
      "inputs": [
        {
          "indexed": false,
          "internalType": "address",
          "name": "account",
          "type": "address"
        }
      ],
      "name": "Unpaused",
      "type": "event"
    },
    {
      "inputs": [],
      "name": "_uriQuantum",
      "outputs": [
        {
          "internalType": "string",
          "name": "",
          "type": "string"
        }
      ],
      "stateMutability": "view",
      "type": "function"
    },
    {
      "inputs": [],
      "name": "_uriS3200",
      "outputs": [
        {
          "internalType": "string",
          "name": "",
          "type": "string"
        }
      ],
      "stateMutability": "view",
      "type": "function"
    },
    {
      "inputs": [
        {
          "internalType": "address",
          "name": "to",
          "type": "address"
        },
        {
          "internalType": "uint256",
          "name": "tokenId",
          "type": "uint256"
        }
      ],
      "name": "approve",
      "outputs": [],
      "stateMutability": "nonpayable",
      "type": "function"
    },
    {
      "inputs": [
        {
          "internalType": "address",
          "name": "owner",
          "type": "address"
        }
      ],
      "name": "balanceOf",
      "outputs": [
        {
          "internalType": "uint256",
          "name": "",
          "type": "uint256"
        }
      ],
      "stateMutability": "view",
      "type": "function"
    },
    {
      "inputs": [
        {
          "internalType": "address",
          "name": "client",
          "type": "address"
        },
        {
          "internalType": "uint256",
          "name": "typeMateriel",
          "type": "uint256"
        },
        {
          "internalType": "string",
          "name": "referenceMateriel",
          "type": "string"
        }
      ],
      "name": "expedition",
      "outputs": [],
      "stateMutability": "nonpayable",
      "type": "function"
    },
    {
      "inputs": [
        {
          "internalType": "uint256",
          "name": "tokenId",
          "type": "uint256"
        }
      ],
      "name": "getApproved",
      "outputs": [
        {
          "internalType": "address",
          "name": "",
          "type": "address"
        }
      ],
      "stateMutability": "view",
      "type": "function"
    },
    {
      "inputs": [],
      "name": "getJsonCommandes",
      "outputs": [
        {
          "internalType": "string",
          "name": "",
          "type": "string"
        }
      ],
      "stateMutability": "view",
      "type": "function"
    },
    {
      "inputs": [],
      "name": "getUriQuantum",
      "outputs": [
        {
          "internalType": "string",
          "name": "",
          "type": "string"
        }
      ],
      "stateMutability": "view",
      "type": "function"
    },
    {
      "inputs": [],
      "name": "getUriS3200",
      "outputs": [
        {
          "internalType": "string",
          "name": "",
          "type": "string"
        }
      ],
      "stateMutability": "view",
      "type": "function"
    },
    {
      "inputs": [
        {
          "internalType": "address",
          "name": "owner",
          "type": "address"
        },
        {
          "internalType": "address",
          "name": "operator",
          "type": "address"
        }
      ],
      "name": "isApprovedForAll",
      "outputs": [
        {
          "internalType": "bool",
          "name": "",
          "type": "bool"
        }
      ],
      "stateMutability": "view",
      "type": "function"
    },
    {
      "inputs": [],
      "name": "name",
      "outputs": [
        {
          "internalType": "string",
          "name": "",
          "type": "string"
        }
      ],
      "stateMutability": "view",
      "type": "function"
    },
    {
      "inputs": [],
      "name": "owner",
      "outputs": [
        {
          "internalType": "address",
          "name": "",
          "type": "address"
        }
      ],
      "stateMutability": "view",
      "type": "function"
    },
    {
      "inputs": [
        {
          "internalType": "uint256",
          "name": "tokenId",
          "type": "uint256"
        }
      ],
      "name": "ownerOf",
      "outputs": [
        {
          "internalType": "address",
          "name": "",
          "type": "address"
        }
      ],
      "stateMutability": "view",
      "type": "function"
    },
    {
      "inputs": [],
      "name": "pause",
      "outputs": [],
      "stateMutability": "nonpayable",
      "type": "function"
    },
    {
      "inputs": [],
      "name": "paused",
      "outputs": [
        {
          "internalType": "bool",
          "name": "",
          "type": "bool"
        }
      ],
      "stateMutability": "view",
      "type": "function"
    },
    {
      "inputs": [
        {
          "internalType": "address",
          "name": "client",
          "type": "address"
        },
        {
          "internalType": "uint256",
          "name": "itemId",
          "type": "uint256"
        },
        {
          "internalType": "uint256",
          "name": "workflowState",
          "type": "uint256"
        }
      ],
      "name": "reception",
      "outputs": [],
      "stateMutability": "nonpayable",
      "type": "function"
    },
    {
      "inputs": [],
      "name": "renounceOwnership",
      "outputs": [],
      "stateMutability": "nonpayable",
      "type": "function"
    },
    {
      "inputs": [
        {
          "internalType": "address",
          "name": "from",
          "type": "address"
        },
        {
          "internalType": "address",
          "name": "to",
          "type": "address"
        },
        {
          "internalType": "uint256",
          "name": "tokenId",
          "type": "uint256"
        }
      ],
      "name": "safeTransferFrom",
      "outputs": [],
      "stateMutability": "nonpayable",
      "type": "function"
    },
    {
      "inputs": [
        {
          "internalType": "address",
          "name": "from",
          "type": "address"
        },
        {
          "internalType": "address",
          "name": "to",
          "type": "address"
        },
        {
          "internalType": "uint256",
          "name": "tokenId",
          "type": "uint256"
        },
        {
          "internalType": "bytes",
          "name": "data",
          "type": "bytes"
        }
      ],
      "name": "safeTransferFrom",
      "outputs": [],
      "stateMutability": "nonpayable",
      "type": "function"
    },
    {
      "inputs": [
        {
          "internalType": "address",
          "name": "operator",
          "type": "address"
        },
        {
          "internalType": "bool",
          "name": "approved",
          "type": "bool"
        }
      ],
      "name": "setApprovalForAll",
      "outputs": [],
      "stateMutability": "nonpayable",
      "type": "function"
    },
    {
      "inputs": [
        {
          "internalType": "string",
          "name": "uriQuantum",
          "type": "string"
        }
      ],
      "name": "setUriQuantum",
      "outputs": [],
      "stateMutability": "nonpayable",
      "type": "function"
    },
    {
      "inputs": [
        {
          "internalType": "string",
          "name": "uriS3200",
          "type": "string"
        }
      ],
      "name": "setUriS3200",
      "outputs": [],
      "stateMutability": "nonpayable",
      "type": "function"
    },
    {
      "inputs": [
        {
          "internalType": "bytes4",
          "name": "interfaceId",
          "type": "bytes4"
        }
      ],
      "name": "supportsInterface",
      "outputs": [
        {
          "internalType": "bool",
          "name": "",
          "type": "bool"
        }
      ],
      "stateMutability": "view",
      "type": "function"
    },
    {
      "inputs": [],
      "name": "symbol",
      "outputs": [
        {
          "internalType": "string",
          "name": "",
          "type": "string"
        }
      ],
      "stateMutability": "view",
      "type": "function"
    },
    {
      "inputs": [
        {
          "internalType": "uint256",
          "name": "tokenId",
          "type": "uint256"
        }
      ],
      "name": "tokenURI",
      "outputs": [
        {
          "internalType": "string",
          "name": "",
          "type": "string"
        }
      ],
      "stateMutability": "view",
      "type": "function"
    },
    {
      "inputs": [
        {
          "internalType": "address",
          "name": "from",
          "type": "address"
        },
        {
          "internalType": "address",
          "name": "to",
          "type": "address"
        },
        {
          "internalType": "uint256",
          "name": "tokenId",
          "type": "uint256"
        }
      ],
      "name": "transferFrom",
      "outputs": [],
      "stateMutability": "nonpayable",
      "type": "function"
    },
    {
      "inputs": [
        {
          "internalType": "address",
          "name": "newOwner",
          "type": "address"
        }
      ],
      "name": "transferOwnership",
      "outputs": [],
      "stateMutability": "nonpayable",
      "type": "function"
    },
    {
      "inputs": [],
      "name": "unpause",
      "outputs": [],
      "stateMutability": "nonpayable",
      "type": "function"
    }
  ],
  "bytecode": "0x60806040523480156200001157600080fd5b5060405162002b8838038062002b88833981016040819052620000349162000267565b8251839083906200004d906000906020850190620000f4565b50805162000063906001906020840190620000f4565b50506007805460ff19169055506200007b336200009a565b805162000090906009906020840190620000f4565b5050505062000335565b600780546001600160a01b03838116610100818102610100600160a81b031985161790945560405193909204169182907f8be0079c531659141344cd1fd0a4f28419497f9722a3daafe3b4186f6b6457e090600090a35050565b8280546200010290620002f8565b90600052602060002090601f01602090048101928262000126576000855562000171565b82601f106200014157805160ff191683800117855562000171565b8280016001018555821562000171579182015b828111156200017157825182559160200191906001019062000154565b506200017f92915062000183565b5090565b5b808211156200017f576000815560010162000184565b634e487b7160e01b600052604160045260246000fd5b600082601f830112620001c257600080fd5b81516001600160401b0380821115620001df57620001df6200019a565b604051601f8301601f19908116603f011681019082821181831017156200020a576200020a6200019a565b816040528381526020925086838588010111156200022757600080fd5b600091505b838210156200024b57858201830151818301840152908201906200022c565b838211156200025d5760008385830101525b9695505050505050565b6000806000606084860312156200027d57600080fd5b83516001600160401b03808211156200029557600080fd5b620002a387838801620001b0565b94506020860151915080821115620002ba57600080fd5b620002c887838801620001b0565b93506040860151915080821115620002df57600080fd5b50620002ee86828701620001b0565b9150509250925092565b600181811c908216806200030d57607f821691505b602082108114156200032f57634e487b7160e01b600052602260045260246000fd5b50919050565b61284380620003456000396000f3fe608060405234801561001057600080fd5b50600436106101c45760003560e01c80636352211e116100f9578063a27421af11610097578063c87b56dd11610071578063c87b56dd14610368578063ddf387f41461037b578063e985e9c51461038e578063f2fde38b146103ca57600080fd5b8063a27421af1461033a578063b88d4fde1461034d578063b9ce13951461036057600080fd5b80638456cb59116100d35780638456cb59146103015780638da5cb5b1461030957806395d89b411461031f578063a22cb4651461032757600080fd5b80636352211e146102c557806370a08231146102d8578063715018a6146102f957600080fd5b80633f4ba83a116101665780634835cae7116101405780634835cae7146102975780634cb012781461029f5780634fb75e4f146102b25780635c975abb146102ba57600080fd5b80633f4ba83a1461027457806342842e0e1461027c578063457d53381461028f57600080fd5b8063095ea7b3116101a2578063095ea7b31461023157806323b872dd146102465780632a40807c1461025957806337bd6c5e1461026c57600080fd5b806301ffc9a7146101c957806306fdde03146101f1578063081812fc14610206575b600080fd5b6101dc6101d7366004612004565b6103dd565b60405190151581526020015b60405180910390f35b6101f961042f565b6040516101e89190612079565b61021961021436600461208c565b6104c1565b6040516001600160a01b0390911681526020016101e8565b61024461023f3660046120c1565b6104e8565b005b6102446102543660046120eb565b610603565b6102446102673660046121d3565b610634565b6101f9610653565b6102446106e1565b61024461028a3660046120eb565b6106f3565b6101f961070e565b6101f961071d565b6102446102ad366004612208565b61072c565b6101f9610855565b60075460ff166101dc565b6102196102d336600461208c565b610ad5565b6102eb6102e636600461223b565b610b35565b6040519081526020016101e8565b610244610bbb565b610244610bcd565b60075461010090046001600160a01b0316610219565b6101f9610bdd565b610244610335366004612256565b610bec565b610244610348366004612292565b610bf7565b61024461035b3660046122e9565b610e6a565b6101f9610e9c565b6101f961037636600461208c565b610ea9565b6102446103893660046121d3565b610fad565b6101dc61039c366004612365565b6001600160a01b03918216600090815260056020908152604080832093909416825291909152205460ff1690565b6102446103d836600461223b565b610fc8565b60006001600160e01b031982166380ac58cd60e01b148061040e57506001600160e01b03198216635b5e139f60e01b145b8061042957506301ffc9a760e01b6001600160e01b03198316145b92915050565b60606000805461043e90612398565b80601f016020809104026020016040519081016040528092919081815260200182805461046a90612398565b80156104b75780601f1061048c576101008083540402835291602001916104b7565b820191906000526020600020905b81548152906001019060200180831161049a57829003601f168201915b5050505050905090565b60006104cc82611041565b506000908152600460205260409020546001600160a01b031690565b60006104f382610ad5565b9050806001600160a01b0316836001600160a01b031614156105665760405162461bcd60e51b815260206004820152602160248201527f4552433732313a20617070726f76616c20746f2063757272656e74206f776e656044820152603960f91b60648201526084015b60405180910390fd5b336001600160a01b03821614806105825750610582813361039c565b6105f45760405162461bcd60e51b815260206004820152603d60248201527f4552433732313a20617070726f76652063616c6c6572206973206e6f7420746f60448201527f6b656e206f776e6572206f7220617070726f76656420666f7220616c6c000000606482015260840161055d565b6105fe83836110a0565b505050565b61060d338261110e565b6106295760405162461bcd60e51b815260040161055d906123cd565b6105fe83838361118c565b61063c6112fd565b805161064f90600b906020840190611f55565b5050565b600a805461066090612398565b80601f016020809104026020016040519081016040528092919081815260200182805461068c90612398565b80156106d95780601f106106ae576101008083540402835291602001916106d9565b820191906000526020600020905b8154815290600101906020018083116106bc57829003601f168201915b505050505081565b6106e96112fd565b6106f161135d565b565b6105fe83838360405180602001604052806000815250610e6a565b6060600a805461043e90612398565b6060600b805461043e90612398565b61076c6040518060400160405280601e81526020017f726563657074696f6e2061646472657373202573206974656d4964202573000081525084846113af565b6001600160a01b0383166107b75760405162461bcd60e51b815260206004820152601260248201527141646472657373206e6f742076616c69646560701b604482015260640161055d565b8015806107c45750806001145b6108105760405162461bcd60e51b815260206004820152601860248201527f776f726b666c6f775374617465206e6f742076616c6964650000000000000000604482015260640161055d565b8061083557506000908152600c60205260409020600501805460ff1916600217905550565b506000908152600c60205260409020600501805460ff1916600317905550565b60408051808201825260018152605b60f81b60208083019190915282519081019092526000808352606092905b6008548160ff161015610a805760ff81166000908152600c60209081526040808320815160c08101835281546001600160a01b0390811682526001830154169381019390935260028101805491928401916108dc90612398565b80601f016020809104026020016040519081016040528092919081815260200182805461090890612398565b80156109555780601f1061092a57610100808354040283529160200191610955565b820191906000526020600020905b81548152906001019060200180831161093857829003601f168201915b5050509183525050600382810154602083015260048301546040830152600583015460609092019160ff16908111156109905761099061241a565b60038111156109a1576109a161241a565b905250905060ff8216156109cc57604051806040016040528060018152602001600b60fa1b81525092505b6000836109db8460ff166113f6565b83516109e690611493565b6109f38560200151611493565b8560400151610a0587606001516113f6565b610a1288608001516113f6565b610a1f8960a001516114a9565b604051602001610a3698979695949392919061244c565b60405160208183030381529060405290508481604051602001610a5a929190612597565b604051602081830303815290604052945050508080610a78906125dc565b915050610882565b5081604051602001610a9291906125fc565b60408051601f19818403018152828201909152601182527002539b7b721b7b6b6b0b73232b99012b99607d1b60208301529250610acf90836115b8565b50919050565b6000818152600260205260408120546001600160a01b0316806104295760405162461bcd60e51b8152602060048201526018602482015277115490cdcc8c4e881a5b9d985b1a59081d1bdad95b88125160421b604482015260640161055d565b60006001600160a01b038216610b9f5760405162461bcd60e51b815260206004820152602960248201527f4552433732313a2061646472657373207a65726f206973206e6f7420612076616044820152683634b21037bbb732b960b91b606482015260840161055d565b506001600160a01b031660009081526003602052604090205490565b610bc36112fd565b6106f160006115fd565b610bd56112fd565b6106f1611664565b60606001805461043e90612398565b61064f3383836116a1565b610c1a6040518060600160405280602581526020016127e96025913984846113af565b6001600160a01b038316610c655760405162461bcd60e51b815260206004820152601260248201527141646472657373206e6f742076616c69646560701b604482015260640161055d565b811580610c725750816001145b610cbe5760405162461bcd60e51b815260206004820152601b60248201527f54797065206465204d6174657269656c206e6f742076616c6964650000000000604482015260640161055d565b6000610cc960085490565b9050610cd58482611770565b82610d7357610d6e81600a8054610ceb90612398565b80601f0160208091040260200160405190810160405280929190818152602001828054610d1790612398565b8015610d645780601f10610d3957610100808354040283529160200191610d64565b820191906000526020600020905b815481529060010190602001808311610d4757829003601f168201915b505050505061178a565b610d84565b610d8481600b8054610ceb90612398565b6040805160c0810182523381526001600160a01b03861660208201529081018390524260608201526000608082015260a08101600190526000828152600c6020908152604091829020835181546001600160a01b039182166001600160a01b031991821617835585840151600184018054919093169116179055918301518051610e149260028501920190611f55565b50606082015181600301556080820151816004015560a08201518160050160006101000a81548160ff02191690836003811115610e5357610e5361241a565b021790555050600880546001019055505b50505050565b610e74338361110e565b610e905760405162461bcd60e51b815260040161055d906123cd565b610e6484848484611824565b600b805461066090612398565b6060610eb482611041565b60008281526006602052604081208054610ecd90612398565b80601f0160208091040260200160405190810160405280929190818152602001828054610ef990612398565b8015610f465780601f10610f1b57610100808354040283529160200191610f46565b820191906000526020600020905b815481529060010190602001808311610f2957829003601f168201915b505050505090506000610f57611857565b9050805160001415610f6a575092915050565b815115610f9c578082604051602001610f84929190612597565b60405160208183030381529060405292505050919050565b610fa584611866565b949350505050565b610fb56112fd565b805161064f90600a906020840190611f55565b610fd06112fd565b6001600160a01b0381166110355760405162461bcd60e51b815260206004820152602660248201527f4f776e61626c653a206e6577206f776e657220697320746865207a65726f206160448201526564647265737360d01b606482015260840161055d565b61103e816115fd565b50565b6000818152600260205260409020546001600160a01b031661103e5760405162461bcd60e51b8152602060048201526018602482015277115490cdcc8c4e881a5b9d985b1a59081d1bdad95b88125160421b604482015260640161055d565b600081815260046020526040902080546001600160a01b0319166001600160a01b03841690811790915581906110d582610ad5565b6001600160a01b03167f8c5be1e5ebec7d5bd14f71427d1e84f3dd0314c0f7b2291e5b200ac8c7c3b92560405160405180910390a45050565b60008061111a83610ad5565b9050806001600160a01b0316846001600160a01b0316148061116157506001600160a01b0380821660009081526005602090815260408083209388168352929052205460ff165b80610fa55750836001600160a01b031661117a846104c1565b6001600160a01b031614949350505050565b826001600160a01b031661119f82610ad5565b6001600160a01b0316146111c55760405162461bcd60e51b815260040161055d90612621565b6001600160a01b0382166112275760405162461bcd60e51b8152602060048201526024808201527f4552433732313a207472616e7366657220746f20746865207a65726f206164646044820152637265737360e01b606482015260840161055d565b61123483838360016118cd565b826001600160a01b031661124782610ad5565b6001600160a01b03161461126d5760405162461bcd60e51b815260040161055d90612621565b600081815260046020908152604080832080546001600160a01b03199081169091556001600160a01b0387811680865260038552838620805460001901905590871680865283862080546001019055868652600290945282852080549092168417909155905184937fddf252ad1be2c89b69c2b068fc378daa952ba7f163c4a11628f55a4df523b3ef91a4505050565b6007546001600160a01b036101009091041633146106f15760405162461bcd60e51b815260206004820181905260248201527f4f776e61626c653a2063616c6c6572206973206e6f7420746865206f776e6572604482015260640161055d565b611365611955565b6007805460ff191690557f5db9ee0a495bf2e6ff9c91a7834c1ba4fdd244a5e8aa4e537bd38aeae4b073aa335b6040516001600160a01b03909116815260200160405180910390a1565b6105fe8383836040516024016113c793929190612666565b60408051601f198184030181529190526020810180516001600160e01b0316630d26b92560e01b1790526119a7565b60606000611403836119b0565b600101905060008167ffffffffffffffff81111561142357611423612127565b6040519080825280601f01601f19166020018201604052801561144d576020820181803683370190505b5090508181016020015b600019016f181899199a1a9b1b9c1cb0b131b232b360811b600a86061a8153600a85049450846114865761148b565b611457565b509392505050565b60606104296001600160a01b0383166014611a88565b60608160038111156114bd576114bd61241a565b6114e557505060408051808201909152600881526721b932b0ba34b7b760c11b602082015290565b8160038111156114f7576114f761241a565b6001141561152557505060408051808201909152600a81526922bc3832b234ba34b7b760b11b602082015290565b8160038111156115375761153761241a565b600214156115645750506040805180820190915260098152682932b1b2b83a34b7b760b91b602082015290565b8160038111156115765761157661241a565b600314156115a457505060408051808201909152600a81526920b7373ab630ba34b7b760b11b602082015290565b505060408051602081019091526000815290565b61064f82826040516024016115ce929190612694565b60408051601f198184030181529190526020810180516001600160e01b0316634b5c427760e01b1790526119a7565b600780546001600160a01b0383811661010081810274ffffffffffffffffffffffffffffffffffffffff001985161790945560405193909204169182907f8be0079c531659141344cd1fd0a4f28419497f9722a3daafe3b4186f6b6457e090600090a35050565b61166c611c24565b6007805460ff191660011790557f62e78cea01bee320cd4e420270b5ea74000d11b0c9f74754ebdbfc544b05a2586113923390565b816001600160a01b0316836001600160a01b031614156117035760405162461bcd60e51b815260206004820152601960248201527f4552433732313a20617070726f766520746f2063616c6c657200000000000000604482015260640161055d565b6001600160a01b03838116600081815260056020908152604080832094871680845294825291829020805460ff191686151590811790915591519182527f17307eab39ab6107e8899845ad3d59bd9653f200f220920489ca2b5937696c31910160405180910390a3505050565b61064f828260405180602001604052806000815250611c6a565b6000828152600260205260409020546001600160a01b03166118055760405162461bcd60e51b815260206004820152602e60248201527f45524337323155524953746f726167653a2055524920736574206f66206e6f6e60448201526d32bc34b9ba32b73a103a37b5b2b760911b606482015260840161055d565b600082815260066020908152604090912082516105fe92840190611f55565b61182f84848461118c565b61183b84848484611c9d565b610e645760405162461bcd60e51b815260040161055d906126c2565b60606009805461043e90612398565b606061187182611041565b600061187b611857565b9050600081511161189b57604051806020016040528060008152506118c6565b806118a5846113f6565b6040516020016118b6929190612597565b6040516020818303038152906040525b9392505050565b6001811115610e64576001600160a01b03841615611913576001600160a01b0384166000908152600360205260408120805483929061190d908490612714565b90915550505b6001600160a01b03831615610e64576001600160a01b0383166000908152600360205260408120805483929061194a90849061272b565b909155505050505050565b60075460ff166106f15760405162461bcd60e51b815260206004820152601460248201527f5061757361626c653a206e6f7420706175736564000000000000000000000000604482015260640161055d565b61103e81611d9b565b60008072184f03e93ff9f4daa797ed6e38ed64bf6a1f0160401b83106119ef5772184f03e93ff9f4daa797ed6e38ed64bf6a1f0160401b830492506040015b6d04ee2d6d415b85acef81000000008310611a1b576d04ee2d6d415b85acef8100000000830492506020015b662386f26fc100008310611a3957662386f26fc10000830492506010015b6305f5e1008310611a51576305f5e100830492506008015b6127108310611a6557612710830492506004015b60648310611a77576064830492506002015b600a83106104295760010192915050565b60606000611a97836002612743565b611aa290600261272b565b67ffffffffffffffff811115611aba57611aba612127565b6040519080825280601f01601f191660200182016040528015611ae4576020820181803683370190505b509050600360fc1b81600081518110611aff57611aff612762565b60200101906001600160f81b031916908160001a905350600f60fb1b81600181518110611b2e57611b2e612762565b60200101906001600160f81b031916908160001a9053506000611b52846002612743565b611b5d90600161272b565b90505b6001811115611bd5576f181899199a1a9b1b9c1cb0b131b232b360811b85600f1660108110611b9157611b91612762565b1a60f81b828281518110611ba757611ba7612762565b60200101906001600160f81b031916908160001a90535060049490941c93611bce81612778565b9050611b60565b5083156118c65760405162461bcd60e51b815260206004820181905260248201527f537472696e67733a20686578206c656e67746820696e73756666696369656e74604482015260640161055d565b60075460ff16156106f15760405162461bcd60e51b815260206004820152601060248201526f14185d5cd8589b194e881c185d5cd95960821b604482015260640161055d565b611c748383611dbc565b611c816000848484611c9d565b6105fe5760405162461bcd60e51b815260040161055d906126c2565b60006001600160a01b0384163b15611d9057604051630a85bd0160e11b81526001600160a01b0385169063150b7a0290611ce190339089908890889060040161278f565b6020604051808303816000875af1925050508015611d1c575060408051601f3d908101601f19168201909252611d19918101906127cb565b60015b611d76573d808015611d4a576040519150601f19603f3d011682016040523d82523d6000602084013e611d4f565b606091505b508051611d6e5760405162461bcd60e51b815260040161055d906126c2565b805181602001fd5b6001600160e01b031916630a85bd0160e11b149050610fa5565b506001949350505050565b60006a636f6e736f6c652e6c6f679050600080835160208501845afa505050565b6001600160a01b038216611e125760405162461bcd60e51b815260206004820181905260248201527f4552433732313a206d696e7420746f20746865207a65726f2061646472657373604482015260640161055d565b6000818152600260205260409020546001600160a01b031615611e775760405162461bcd60e51b815260206004820152601c60248201527f4552433732313a20746f6b656e20616c7265616479206d696e74656400000000604482015260640161055d565b611e856000838360016118cd565b6000818152600260205260409020546001600160a01b031615611eea5760405162461bcd60e51b815260206004820152601c60248201527f4552433732313a20746f6b656e20616c7265616479206d696e74656400000000604482015260640161055d565b6001600160a01b038216600081815260036020908152604080832080546001019055848352600290915280822080546001600160a01b0319168417905551839291907fddf252ad1be2c89b69c2b068fc378daa952ba7f163c4a11628f55a4df523b3ef908290a45050565b828054611f6190612398565b90600052602060002090601f016020900481019282611f835760008555611fc9565b82601f10611f9c57805160ff1916838001178555611fc9565b82800160010185558215611fc9579182015b82811115611fc9578251825591602001919060010190611fae565b50611fd5929150611fd9565b5090565b5b80821115611fd55760008155600101611fda565b6001600160e01b03198116811461103e57600080fd5b60006020828403121561201657600080fd5b81356118c681611fee565b60005b8381101561203c578181015183820152602001612024565b83811115610e645750506000910152565b60008151808452612065816020860160208601612021565b601f01601f19169290920160200192915050565b6020815260006118c6602083018461204d565b60006020828403121561209e57600080fd5b5035919050565b80356001600160a01b03811681146120bc57600080fd5b919050565b600080604083850312156120d457600080fd5b6120dd836120a5565b946020939093013593505050565b60008060006060848603121561210057600080fd5b612109846120a5565b9250612117602085016120a5565b9150604084013590509250925092565b634e487b7160e01b600052604160045260246000fd5b600067ffffffffffffffff8084111561215857612158612127565b604051601f8501601f19908116603f0116810190828211818310171561218057612180612127565b8160405280935085815286868601111561219957600080fd5b858560208301376000602087830101525050509392505050565b600082601f8301126121c457600080fd5b6118c68383356020850161213d565b6000602082840312156121e557600080fd5b813567ffffffffffffffff8111156121fc57600080fd5b610fa5848285016121b3565b60008060006060848603121561221d57600080fd5b612226846120a5565b95602085013595506040909401359392505050565b60006020828403121561224d57600080fd5b6118c6826120a5565b6000806040838503121561226957600080fd5b612272836120a5565b91506020830135801515811461228757600080fd5b809150509250929050565b6000806000606084860312156122a757600080fd5b6122b0846120a5565b925060208401359150604084013567ffffffffffffffff8111156122d357600080fd5b6122df868287016121b3565b9150509250925092565b600080600080608085870312156122ff57600080fd5b612308856120a5565b9350612316602086016120a5565b925060408501359150606085013567ffffffffffffffff81111561233957600080fd5b8501601f8101871361234a57600080fd5b6123598782356020840161213d565b91505092959194509250565b6000806040838503121561237857600080fd5b612381836120a5565b915061238f602084016120a5565b90509250929050565b600181811c908216806123ac57607f821691505b60208210811415610acf57634e487b7160e01b600052602260045260246000fd5b6020808252602d908201527f4552433732313a2063616c6c6572206973206e6f7420746f6b656e206f776e6560408201526c1c881bdc88185c1c1c9bdd9959609a1b606082015260800190565b634e487b7160e01b600052602160045260246000fd5b60008151612442818560208601612021565b9290920192915050565b6000895161245e818460208e01612021565b607b60f81b908301908152641134b2111d60d91b6001820152895161248a816006840160208e01612021565b6f16113337bab93734b9b9b2bab9111d1160811b600692909101918201526124b5601682018a612430565b6b11161131b634b2b73a111d1160a11b815290506124d6600c820189612430565b7f222c227265666572656e63654d6174657269656c223a22000000000000000000815290506125086017820188612430565b721116113230ba32a2bc3832b234ba34b7b7111d60691b815290506125306013820187612430565b7016113230ba32a932b1b2b83a34b7b7111d60791b815290506125566011820186612430565b7116113bb7b935b33637bba9ba30ba32911d1160711b8152905061257d6012820185612430565b61227d60f01b81526002019b9a5050505050505050505050565b600083516125a9818460208801612021565b8351908301906125bd818360208801612021565b01949350505050565b634e487b7160e01b600052601160045260246000fd5b600060ff821660ff8114156125f3576125f36125c6565b60010192915050565b6000825161260e818460208701612021565b605d60f81b920191825250600101919050565b60208082526025908201527f4552433732313a207472616e736665722066726f6d20696e636f72726563742060408201526437bbb732b960d91b606082015260800190565b606081526000612679606083018661204d565b6001600160a01b039490941660208301525060400152919050565b6040815260006126a7604083018561204d565b82810360208401526126b9818561204d565b95945050505050565b60208082526032908201527f4552433732313a207472616e7366657220746f206e6f6e20455243373231526560408201527131b2b4bb32b91034b6b83632b6b2b73a32b960711b606082015260800190565b600082821015612726576127266125c6565b500390565b6000821982111561273e5761273e6125c6565b500190565b600081600019048311821515161561275d5761275d6125c6565b500290565b634e487b7160e01b600052603260045260246000fd5b600081612787576127876125c6565b506000190190565b60006001600160a01b038087168352808616602084015250836040830152608060608301526127c1608083018461204d565b9695505050505050565b6000602082840312156127dd57600080fd5b81516118c681611fee56fe65787065646974696f6e206164647265737320257320747970654d6174657269656c202573a26469706673582212200e5d337f909a941cc4dc90a77fedc860d77b63f1242a76cd9e682a1c9716d51764736f6c634300080c0033",
  "linkReferences": {},
  "deployedLinkReferences": {}
}