{
  "_format": "hh-sol-artifact-1",
  "contractName": "Demonstrateur",
  "sourceName": "contracts/Demonstrateur.sol",
  "abi": [
    {
      "inputs": [
        {
          "internalType": "string",
          "name": "definitiveName",
          "type": "string"
        },
        {
          "internalType": "string",
          "name": "definitiveSymbol",
          "type": "string"
        },
        {
          "internalType": "string",
          "name": "definitiveBaseURI",
          "type": "string"
        }
      ],
      "stateMutability": "nonpayable",
      "type": "constructor"
    },
    {
      "anonymous": false,
      "inputs": [
        {
          "indexed": true,
          "internalType": "address",
          "name": "owner",
          "type": "address"
        },
        {
          "indexed": true,
          "internalType": "address",
          "name": "approved",
          "type": "address"
        },
        {
          "indexed": true,
          "internalType": "uint256",
          "name": "tokenId",
          "type": "uint256"
        }
      ],
      "name": "Approval",
      "type": "event"
    },
    {
      "anonymous": false,
      "inputs": [
        {
          "indexed": true,
          "internalType": "address",
          "name": "owner",
          "type": "address"
        },
        {
          "indexed": true,
          "internalType": "address",
          "name": "operator",
          "type": "address"
        },
        {
          "indexed": false,
          "internalType": "bool",
          "name": "approved",
          "type": "bool"
        }
      ],
      "name": "ApprovalForAll",
      "type": "event"
    },
    {
      "anonymous": false,
      "inputs": [
        {
          "indexed": true,
          "internalType": "address",
          "name": "previousOwner",
          "type": "address"
        },
        {
          "indexed": true,
          "internalType": "address",
          "name": "newOwner",
          "type": "address"
        }
      ],
      "name": "OwnershipTransferred",
      "type": "event"
    },
    {
      "anonymous": false,
      "inputs": [
        {
          "indexed": false,
          "internalType": "address",
          "name": "account",
          "type": "address"
        }
      ],
      "name": "Paused",
      "type": "event"
    },
    {
      "anonymous": false,
      "inputs": [
        {
          "indexed": true,
          "internalType": "address",
          "name": "from",
          "type": "address"
        },
        {
          "indexed": true,
          "internalType": "address",
          "name": "to",
          "type": "address"
        },
        {
          "indexed": true,
          "internalType": "uint256",
          "name": "tokenId",
          "type": "uint256"
        }
      ],
      "name": "Transfer",
      "type": "event"
    },
    {
      "anonymous": false,
      "inputs": [
        {
          "indexed": false,
          "internalType": "address",
          "name": "account",
          "type": "address"
        }
      ],
      "name": "Unpaused",
      "type": "event"
    },
    {
      "inputs": [],
      "name": "_uriQuantum",
      "outputs": [
        {
          "internalType": "string",
          "name": "",
          "type": "string"
        }
      ],
      "stateMutability": "view",
      "type": "function"
    },
    {
      "inputs": [],
      "name": "_uriS3200",
      "outputs": [
        {
          "internalType": "string",
          "name": "",
          "type": "string"
        }
      ],
      "stateMutability": "view",
      "type": "function"
    },
    {
      "inputs": [
        {
          "internalType": "address",
          "name": "to",
          "type": "address"
        },
        {
          "internalType": "uint256",
          "name": "tokenId",
          "type": "uint256"
        }
      ],
      "name": "approve",
      "outputs": [],
      "stateMutability": "nonpayable",
      "type": "function"
    },
    {
      "inputs": [
        {
          "internalType": "address",
          "name": "owner",
          "type": "address"
        }
      ],
      "name": "balanceOf",
      "outputs": [
        {
          "internalType": "uint256",
          "name": "",
          "type": "uint256"
        }
      ],
      "stateMutability": "view",
      "type": "function"
    },
    {
      "inputs": [
        {
          "internalType": "address",
          "name": "client",
          "type": "address"
        },
        {
          "internalType": "uint256",
          "name": "typeMateriel",
          "type": "uint256"
        },
        {
          "internalType": "string",
          "name": "referenceMateriel",
          "type": "string"
        }
      ],
      "name": "expedition",
      "outputs": [],
      "stateMutability": "nonpayable",
      "type": "function"
    },
    {
      "inputs": [
        {
          "internalType": "uint256",
          "name": "tokenId",
          "type": "uint256"
        }
      ],
      "name": "getApproved",
      "outputs": [
        {
          "internalType": "address",
          "name": "",
          "type": "address"
        }
      ],
      "stateMutability": "view",
      "type": "function"
    },
    {
      "inputs": [
        {
          "internalType": "address",
          "name": "client",
          "type": "address"
        }
      ],
      "name": "getIdByClient",
      "outputs": [
        {
          "internalType": "string[]",
          "name": "",
          "type": "string[]"
        }
      ],
      "stateMutability": "view",
      "type": "function"
    },
    {
      "inputs": [],
      "name": "getJsonCommandes",
      "outputs": [
        {
          "internalType": "string",
          "name": "",
          "type": "string"
        }
      ],
      "stateMutability": "view",
      "type": "function"
    },
    {
      "inputs": [],
      "name": "getUriQuantum",
      "outputs": [
        {
          "internalType": "string",
          "name": "",
          "type": "string"
        }
      ],
      "stateMutability": "view",
      "type": "function"
    },
    {
      "inputs": [],
      "name": "getUriS3200",
      "outputs": [
        {
          "internalType": "string",
          "name": "",
          "type": "string"
        }
      ],
      "stateMutability": "view",
      "type": "function"
    },
    {
      "inputs": [
        {
          "internalType": "address",
          "name": "owner",
          "type": "address"
        },
        {
          "internalType": "address",
          "name": "operator",
          "type": "address"
        }
      ],
      "name": "isApprovedForAll",
      "outputs": [
        {
          "internalType": "bool",
          "name": "",
          "type": "bool"
        }
      ],
      "stateMutability": "view",
      "type": "function"
    },
    {
      "inputs": [],
      "name": "name",
      "outputs": [
        {
          "internalType": "string",
          "name": "",
          "type": "string"
        }
      ],
      "stateMutability": "view",
      "type": "function"
    },
    {
      "inputs": [],
      "name": "owner",
      "outputs": [
        {
          "internalType": "address",
          "name": "",
          "type": "address"
        }
      ],
      "stateMutability": "view",
      "type": "function"
    },
    {
      "inputs": [
        {
          "internalType": "uint256",
          "name": "tokenId",
          "type": "uint256"
        }
      ],
      "name": "ownerOf",
      "outputs": [
        {
          "internalType": "address",
          "name": "",
          "type": "address"
        }
      ],
      "stateMutability": "view",
      "type": "function"
    },
    {
      "inputs": [],
      "name": "pause",
      "outputs": [],
      "stateMutability": "nonpayable",
      "type": "function"
    },
    {
      "inputs": [],
      "name": "paused",
      "outputs": [
        {
          "internalType": "bool",
          "name": "",
          "type": "bool"
        }
      ],
      "stateMutability": "view",
      "type": "function"
    },
    {
      "inputs": [
        {
          "internalType": "address",
          "name": "client",
          "type": "address"
        },
        {
          "internalType": "uint256",
          "name": "itemId",
          "type": "uint256"
        },
        {
          "internalType": "uint256",
          "name": "workflowState",
          "type": "uint256"
        }
      ],
      "name": "reception",
      "outputs": [],
      "stateMutability": "nonpayable",
      "type": "function"
    },
    {
      "inputs": [],
      "name": "renounceOwnership",
      "outputs": [],
      "stateMutability": "nonpayable",
      "type": "function"
    },
    {
      "inputs": [
        {
          "internalType": "address",
          "name": "from",
          "type": "address"
        },
        {
          "internalType": "address",
          "name": "to",
          "type": "address"
        },
        {
          "internalType": "uint256",
          "name": "tokenId",
          "type": "uint256"
        }
      ],
      "name": "safeTransferFrom",
      "outputs": [],
      "stateMutability": "nonpayable",
      "type": "function"
    },
    {
      "inputs": [
        {
          "internalType": "address",
          "name": "from",
          "type": "address"
        },
        {
          "internalType": "address",
          "name": "to",
          "type": "address"
        },
        {
          "internalType": "uint256",
          "name": "tokenId",
          "type": "uint256"
        },
        {
          "internalType": "bytes",
          "name": "data",
          "type": "bytes"
        }
      ],
      "name": "safeTransferFrom",
      "outputs": [],
      "stateMutability": "nonpayable",
      "type": "function"
    },
    {
      "inputs": [
        {
          "internalType": "address",
          "name": "operator",
          "type": "address"
        },
        {
          "internalType": "bool",
          "name": "approved",
          "type": "bool"
        }
      ],
      "name": "setApprovalForAll",
      "outputs": [],
      "stateMutability": "nonpayable",
      "type": "function"
    },
    {
      "inputs": [
        {
          "internalType": "string",
          "name": "uriQuantum",
          "type": "string"
        }
      ],
      "name": "setUriQuantum",
      "outputs": [],
      "stateMutability": "nonpayable",
      "type": "function"
    },
    {
      "inputs": [
        {
          "internalType": "string",
          "name": "uriS3200",
          "type": "string"
        }
      ],
      "name": "setUriS3200",
      "outputs": [],
      "stateMutability": "nonpayable",
      "type": "function"
    },
    {
      "inputs": [
        {
          "internalType": "bytes4",
          "name": "interfaceId",
          "type": "bytes4"
        }
      ],
      "name": "supportsInterface",
      "outputs": [
        {
          "internalType": "bool",
          "name": "",
          "type": "bool"
        }
      ],
      "stateMutability": "view",
      "type": "function"
    },
    {
      "inputs": [],
      "name": "symbol",
      "outputs": [
        {
          "internalType": "string",
          "name": "",
          "type": "string"
        }
      ],
      "stateMutability": "view",
      "type": "function"
    },
    {
      "inputs": [
        {
          "internalType": "uint256",
          "name": "tokenId",
          "type": "uint256"
        }
      ],
      "name": "tokenURI",
      "outputs": [
        {
          "internalType": "string",
          "name": "",
          "type": "string"
        }
      ],
      "stateMutability": "view",
      "type": "function"
    },
    {
      "inputs": [
        {
          "internalType": "address",
          "name": "from",
          "type": "address"
        },
        {
          "internalType": "address",
          "name": "to",
          "type": "address"
        },
        {
          "internalType": "uint256",
          "name": "tokenId",
          "type": "uint256"
        }
      ],
      "name": "transferFrom",
      "outputs": [],
      "stateMutability": "nonpayable",
      "type": "function"
    },
    {
      "inputs": [
        {
          "internalType": "address",
          "name": "newOwner",
          "type": "address"
        }
      ],
      "name": "transferOwnership",
      "outputs": [],
      "stateMutability": "nonpayable",
      "type": "function"
    },
    {
      "inputs": [],
      "name": "unpause",
      "outputs": [],
      "stateMutability": "nonpayable",
      "type": "function"
    }
  ],
  "bytecode": "0x60806040523480156200001157600080fd5b506040516200311e3803806200311e833981016040819052620000349162000267565b8251839083906200004d906000906020850190620000f4565b50805162000063906001906020840190620000f4565b50506007805460ff19169055506200007b336200009a565b805162000090906009906020840190620000f4565b5050505062000335565b600780546001600160a01b03838116610100818102610100600160a81b031985161790945560405193909204169182907f8be0079c531659141344cd1fd0a4f28419497f9722a3daafe3b4186f6b6457e090600090a35050565b8280546200010290620002f8565b90600052602060002090601f01602090048101928262000126576000855562000171565b82601f106200014157805160ff191683800117855562000171565b8280016001018555821562000171579182015b828111156200017157825182559160200191906001019062000154565b506200017f92915062000183565b5090565b5b808211156200017f576000815560010162000184565b634e487b7160e01b600052604160045260246000fd5b600082601f830112620001c257600080fd5b81516001600160401b0380821115620001df57620001df6200019a565b604051601f8301601f19908116603f011681019082821181831017156200020a576200020a6200019a565b816040528381526020925086838588010111156200022757600080fd5b600091505b838210156200024b57858201830151818301840152908201906200022c565b838211156200025d5760008385830101525b9695505050505050565b6000806000606084860312156200027d57600080fd5b83516001600160401b03808211156200029557600080fd5b620002a387838801620001b0565b94506020860151915080821115620002ba57600080fd5b620002c887838801620001b0565b93506040860151915080821115620002df57600080fd5b50620002ee86828701620001b0565b9150509250925092565b600181811c908216806200030d57607f821691505b602082108114156200032f57634e487b7160e01b600052602260045260246000fd5b50919050565b612dd980620003456000396000f3fe608060405234801561001057600080fd5b50600436106101cf5760003560e01c80635c975abb11610104578063a22cb465116100a2578063c87b56dd11610071578063c87b56dd14610393578063ddf387f4146103a6578063e985e9c5146103b9578063f2fde38b146103f557600080fd5b8063a22cb46514610352578063a27421af14610365578063b88d4fde14610378578063b9ce13951461038b57600080fd5b8063715018a6116100de578063715018a6146103245780638456cb591461032c5780638da5cb5b1461033457806395d89b411461034a57600080fd5b80635c975abb146102e55780636352211e146102f057806370a082311461030357600080fd5b806337bd6c5e11610171578063457d53381161014b578063457d5338146102ba5780634835cae7146102c25780634cb01278146102ca5780634fb75e4f146102dd57600080fd5b806337bd6c5e146102975780633f4ba83a1461029f57806342842e0e146102a757600080fd5b8063095ea7b3116101ad578063095ea7b31461023c578063213f61b31461025157806323b872dd146102715780632a40807c1461028457600080fd5b806301ffc9a7146101d457806306fdde03146101fc578063081812fc14610211575b600080fd5b6101e76101e23660046124ae565b610408565b60405190151581526020015b60405180910390f35b61020461045a565b6040516101f39190612523565b61022461021f366004612536565b6104ec565b6040516001600160a01b0390911681526020016101f3565b61024f61024a36600461256b565b610513565b005b61026461025f366004612595565b61062e565b6040516101f391906125b0565b61024f61027f366004612612565b610855565b61024f6102923660046126fa565b610886565b6102046108a5565b61024f610933565b61024f6102b5366004612612565b610945565b610204610960565b61020461096f565b61024f6102d836600461272f565b61097e565b610204610abe565b60075460ff166101e7565b6102246102fe366004612536565b610d3e565b610316610311366004612595565b610d9e565b6040519081526020016101f3565b61024f610e24565b61024f610e36565b60075461010090046001600160a01b0316610224565b610204610e46565b61024f610360366004612762565b610e55565b61024f61037336600461279e565b610e60565b61024f6103863660046127f5565b6110d3565b610204611105565b6102046103a1366004612536565b611112565b61024f6103b43660046126fa565b611216565b6101e76103c7366004612871565b6001600160a01b03918216600090815260056020908152604080832093909416825291909152205460ff1690565b61024f610403366004612595565b611231565b60006001600160e01b031982166380ac58cd60e01b148061043957506001600160e01b03198216635b5e139f60e01b145b8061045457506301ffc9a760e01b6001600160e01b03198316145b92915050565b606060008054610469906128a4565b80601f0160208091040260200160405190810160405280929190818152602001828054610495906128a4565b80156104e25780601f106104b7576101008083540402835291602001916104e2565b820191906000526020600020905b8154815290600101906020018083116104c557829003601f168201915b5050505050905090565b60006104f7826112aa565b506000908152600460205260409020546001600160a01b031690565b600061051e82610d3e565b9050806001600160a01b0316836001600160a01b031614156105915760405162461bcd60e51b815260206004820152602160248201527f4552433732313a20617070726f76616c20746f2063757272656e74206f776e656044820152603960f91b60648201526084015b60405180910390fd5b336001600160a01b03821614806105ad57506105ad81336103c7565b61061f5760405162461bcd60e51b815260206004820152603d60248201527f4552433732313a20617070726f76652063616c6c6572206973206e6f7420746f60448201527f6b656e206f776e6572206f7220617070726f76656420666f7220616c6c0000006064820152608401610588565b6106298383611309565b505050565b606061066f6040518060400160405280601881526020017f67657449644279436c69656e742061646472657373202573000000000000000081525083611377565b60008061067b846113bc565b67ffffffffffffffff8111156106935761069361264e565b6040519080825280602002602001820160405280156106c657816020015b60608152602001906001900390816106b15790505b50905060005b60085481101561084d576000818152600c60209081526040808320815160c08101835281546001600160a01b03908116825260018301541693810193909352600281018054919284019161071f906128a4565b80601f016020809104026020016040519081016040528092919081815260200182805461074b906128a4565b80156107985780601f1061076d57610100808354040283529160200191610798565b820191906000526020600020905b81548152906001019060200180831161077b57829003601f168201915b5050509183525050600382810154602083015260048301546040830152600583015460609092019160ff16908111156107d3576107d36128d9565b60038111156107e4576107e46128d9565b815250509050856001600160a01b031681602001516001600160a01b0316141561083a5761081182611584565b838561081c81612905565b96508151811061082e5761082e612920565b60200260200101819052505b508061084581612905565b9150506106cc565b509392505050565b61085f3382611619565b61087b5760405162461bcd60e51b815260040161058890612936565b610629838383611697565b61088e611808565b80516108a190600b9060208401906123ff565b5050565b600a80546108b2906128a4565b80601f01602080910402602001604051908101604052809291908181526020018280546108de906128a4565b801561092b5780601f106109005761010080835404028352916020019161092b565b820191906000526020600020905b81548152906001019060200180831161090e57829003601f168201915b505050505081565b61093b611808565b610943611868565b565b610629838383604051806020016040528060008152506110d3565b6060600a8054610469906128a4565b6060600b8054610469906128a4565b6109be6040518060400160405280601e81526020017f726563657074696f6e2061646472657373202573206974656d4964202573000081525084846118ba565b6001600160a01b038316610a095760405162461bcd60e51b815260206004820152601260248201527141646472657373206e6f742076616c69646560701b6044820152606401610588565b801580610a165750806001145b610a625760405162461bcd60e51b815260206004820152601860248201527f776f726b666c6f775374617465206e6f742076616c69646500000000000000006044820152606401610588565b80610a88576000828152600c60205260409020600501805460ff19166002179055610aa5565b6000828152600c60205260409020600501805460ff191660031790555b506000908152600c602052604090204260049091015550565b60408051808201825260018152605b60f81b60208083019190915282519081019092526000808352606092905b6008548160ff161015610ce95760ff81166000908152600c60209081526040808320815160c08101835281546001600160a01b039081168252600183015416938101939093526002810180549192840191610b45906128a4565b80601f0160208091040260200160405190810160405280929190818152602001828054610b71906128a4565b8015610bbe5780601f10610b9357610100808354040283529160200191610bbe565b820191906000526020600020905b815481529060010190602001808311610ba157829003601f168201915b5050509183525050600382810154602083015260048301546040830152600583015460609092019160ff1690811115610bf957610bf96128d9565b6003811115610c0a57610c0a6128d9565b905250905060ff821615610c3557604051806040016040528060018152602001600b60fa1b81525092505b600083610c448460ff16611584565b8351610c4f90611901565b610c5c8560200151611901565b8560400151610c6e8760600151611584565b610c7b8860800151611584565b610c888960a00151611917565b604051602001610c9f98979695949392919061299f565b60405160208183030381529060405290508481604051602001610cc3929190612aea565b604051602081830303815290604052945050508080610ce190612b19565b915050610aeb565b5081604051602001610cfb9190612b39565b60408051601f19818403018152828201909152601182527002539b7b721b7b6b6b0b73232b99012b99607d1b60208301529250610d389083611a26565b50919050565b6000818152600260205260408120546001600160a01b0316806104545760405162461bcd60e51b8152602060048201526018602482015277115490cdcc8c4e881a5b9d985b1a59081d1bdad95b88125160421b6044820152606401610588565b60006001600160a01b038216610e085760405162461bcd60e51b815260206004820152602960248201527f4552433732313a2061646472657373207a65726f206973206e6f7420612076616044820152683634b21037bbb732b960b91b6064820152608401610588565b506001600160a01b031660009081526003602052604090205490565b610e2c611808565b6109436000611a6b565b610e3e611808565b610943611ad2565b606060018054610469906128a4565b6108a1338383611b0f565b610e83604051806060016040528060258152602001612d5d6025913984846118ba565b6001600160a01b038316610ece5760405162461bcd60e51b815260206004820152601260248201527141646472657373206e6f742076616c69646560701b6044820152606401610588565b811580610edb5750816001145b610f275760405162461bcd60e51b815260206004820152601b60248201527f54797065206465204d6174657269656c206e6f742076616c69646500000000006044820152606401610588565b6000610f3260085490565b9050610f3e8482611bde565b82610fdc57610fd781600a8054610f54906128a4565b80601f0160208091040260200160405190810160405280929190818152602001828054610f80906128a4565b8015610fcd5780601f10610fa257610100808354040283529160200191610fcd565b820191906000526020600020905b815481529060010190602001808311610fb057829003601f168201915b5050505050611bf8565b610fed565b610fed81600b8054610f54906128a4565b6040805160c0810182523381526001600160a01b03861660208201529081018390524260608201526000608082015260a08101600190526000828152600c6020908152604091829020835181546001600160a01b039182166001600160a01b03199182161783558584015160018401805491909316911617905591830151805161107d92600285019201906123ff565b50606082015181600301556080820151816004015560a08201518160050160006101000a81548160ff021916908360038111156110bc576110bc6128d9565b021790555050600880546001019055505b50505050565b6110dd3383611619565b6110f95760405162461bcd60e51b815260040161058890612936565b6110cd84848484611c92565b600b80546108b2906128a4565b606061111d826112aa565b60008281526006602052604081208054611136906128a4565b80601f0160208091040260200160405190810160405280929190818152602001828054611162906128a4565b80156111af5780601f10611184576101008083540402835291602001916111af565b820191906000526020600020905b81548152906001019060200180831161119257829003601f168201915b5050505050905060006111c0611cc5565b90508051600014156111d3575092915050565b8151156112055780826040516020016111ed929190612aea565b60405160208183030381529060405292505050919050565b61120e84611cd4565b949350505050565b61121e611808565b80516108a190600a9060208401906123ff565b611239611808565b6001600160a01b03811661129e5760405162461bcd60e51b815260206004820152602660248201527f4f776e61626c653a206e6577206f776e657220697320746865207a65726f206160448201526564647265737360d01b6064820152608401610588565b6112a781611a6b565b50565b6000818152600260205260409020546001600160a01b03166112a75760405162461bcd60e51b8152602060048201526018602482015277115490cdcc8c4e881a5b9d985b1a59081d1bdad95b88125160421b6044820152606401610588565b600081815260046020526040902080546001600160a01b0319166001600160a01b038416908117909155819061133e82610d3e565b6001600160a01b03167f8c5be1e5ebec7d5bd14f71427d1e84f3dd0314c0f7b2291e5b200ac8c7c3b92560405160405180910390a45050565b6108a1828260405160240161138d929190612b5e565b60408051601f198184030181529190526020810180516001600160e01b031663319af33360e01b179052611d3b565b600080805b600854811015611544576000818152600c60209081526040808320815160c08101835281546001600160a01b039081168252600183015416938101939093526002810180549192840191611414906128a4565b80601f0160208091040260200160405190810160405280929190818152602001828054611440906128a4565b801561148d5780601f106114625761010080835404028352916020019161148d565b820191906000526020600020905b81548152906001019060200180831161147057829003601f168201915b5050509183525050600382810154602083015260048301546040830152600583015460609092019160ff16908111156114c8576114c86128d9565b60038111156114d9576114d96128d9565b815250509050611505604051806060016040528060228152602001612d82602291398260200151611377565b846001600160a01b031681602001516001600160a01b03161415611531578261152d81612905565b9350505b508061153c81612905565b9150506113c1565b506104546040518060400160405280601c81526020017f67657453697a654279436c69656e74206974656d436f756e742025730000000081525082611d5c565b6060600061159183611da1565b600101905060008167ffffffffffffffff8111156115b1576115b161264e565b6040519080825280601f01601f1916602001820160405280156115db576020820181803683370190505b5090508181016020015b600019016f181899199a1a9b1b9c1cb0b131b232b360811b600a86061a8153600a85049450846116145761084d565b6115e5565b60008061162583610d3e565b9050806001600160a01b0316846001600160a01b0316148061166c57506001600160a01b0380821660009081526005602090815260408083209388168352929052205460ff165b8061120e5750836001600160a01b0316611685846104ec565b6001600160a01b031614949350505050565b826001600160a01b03166116aa82610d3e565b6001600160a01b0316146116d05760405162461bcd60e51b815260040161058890612b89565b6001600160a01b0382166117325760405162461bcd60e51b8152602060048201526024808201527f4552433732313a207472616e7366657220746f20746865207a65726f206164646044820152637265737360e01b6064820152608401610588565b61173f8383836001611e79565b826001600160a01b031661175282610d3e565b6001600160a01b0316146117785760405162461bcd60e51b815260040161058890612b89565b600081815260046020908152604080832080546001600160a01b03199081169091556001600160a01b0387811680865260038552838620805460001901905590871680865283862080546001019055868652600290945282852080549092168417909155905184937fddf252ad1be2c89b69c2b068fc378daa952ba7f163c4a11628f55a4df523b3ef91a4505050565b6007546001600160a01b036101009091041633146109435760405162461bcd60e51b815260206004820181905260248201527f4f776e61626c653a2063616c6c6572206973206e6f7420746865206f776e65726044820152606401610588565b611870611f01565b6007805460ff191690557f5db9ee0a495bf2e6ff9c91a7834c1ba4fdd244a5e8aa4e537bd38aeae4b073aa335b6040516001600160a01b03909116815260200160405180910390a1565b6106298383836040516024016118d293929190612bce565b60408051601f198184030181529190526020810180516001600160e01b0316630d26b92560e01b179052611d3b565b60606104546001600160a01b0383166014611f53565b606081600381111561192b5761192b6128d9565b61195357505060408051808201909152600881526721b932b0ba34b7b760c11b602082015290565b816003811115611965576119656128d9565b6001141561199357505060408051808201909152600a81526922bc3832b234ba34b7b760b11b602082015290565b8160038111156119a5576119a56128d9565b600214156119d25750506040805180820190915260098152682932b1b2b83a34b7b760b91b602082015290565b8160038111156119e4576119e46128d9565b60031415611a1257505060408051808201909152600a81526920b7373ab630ba34b7b760b11b602082015290565b505060408051602081019091526000815290565b6108a18282604051602401611a3c929190612bfc565b60408051601f198184030181529190526020810180516001600160e01b0316634b5c427760e01b179052611d3b565b600780546001600160a01b0383811661010081810274ffffffffffffffffffffffffffffffffffffffff001985161790945560405193909204169182907f8be0079c531659141344cd1fd0a4f28419497f9722a3daafe3b4186f6b6457e090600090a35050565b611ada6120ef565b6007805460ff191660011790557f62e78cea01bee320cd4e420270b5ea74000d11b0c9f74754ebdbfc544b05a25861189d3390565b816001600160a01b0316836001600160a01b03161415611b715760405162461bcd60e51b815260206004820152601960248201527f4552433732313a20617070726f766520746f2063616c6c6572000000000000006044820152606401610588565b6001600160a01b03838116600081815260056020908152604080832094871680845294825291829020805460ff191686151590811790915591519182527f17307eab39ab6107e8899845ad3d59bd9653f200f220920489ca2b5937696c31910160405180910390a3505050565b6108a1828260405180602001604052806000815250612135565b6000828152600260205260409020546001600160a01b0316611c735760405162461bcd60e51b815260206004820152602e60248201527f45524337323155524953746f726167653a2055524920736574206f66206e6f6e60448201526d32bc34b9ba32b73a103a37b5b2b760911b6064820152608401610588565b60008281526006602090815260409091208251610629928401906123ff565b611c9d848484611697565b611ca984848484612168565b6110cd5760405162461bcd60e51b815260040161058890612c2a565b606060098054610469906128a4565b6060611cdf826112aa565b6000611ce9611cc5565b90506000815111611d095760405180602001604052806000815250611d34565b80611d1384611584565b604051602001611d24929190612aea565b6040516020818303038152906040525b9392505050565b80516a636f6e736f6c652e6c6f67602083016000808483855afa5050505050565b6108a18282604051602401611d72929190612c7c565b60408051601f198184030181529190526020810180516001600160e01b0316632d839cb360e21b179052611d3b565b60008072184f03e93ff9f4daa797ed6e38ed64bf6a1f0160401b8310611de05772184f03e93ff9f4daa797ed6e38ed64bf6a1f0160401b830492506040015b6d04ee2d6d415b85acef81000000008310611e0c576d04ee2d6d415b85acef8100000000830492506020015b662386f26fc100008310611e2a57662386f26fc10000830492506010015b6305f5e1008310611e42576305f5e100830492506008015b6127108310611e5657612710830492506004015b60648310611e68576064830492506002015b600a83106104545760010192915050565b60018111156110cd576001600160a01b03841615611ebf576001600160a01b03841660009081526003602052604081208054839290611eb9908490612c9e565b90915550505b6001600160a01b038316156110cd576001600160a01b03831660009081526003602052604081208054839290611ef6908490612cb5565b909155505050505050565b60075460ff166109435760405162461bcd60e51b815260206004820152601460248201527f5061757361626c653a206e6f74207061757365640000000000000000000000006044820152606401610588565b60606000611f62836002612ccd565b611f6d906002612cb5565b67ffffffffffffffff811115611f8557611f8561264e565b6040519080825280601f01601f191660200182016040528015611faf576020820181803683370190505b509050600360fc1b81600081518110611fca57611fca612920565b60200101906001600160f81b031916908160001a905350600f60fb1b81600181518110611ff957611ff9612920565b60200101906001600160f81b031916908160001a905350600061201d846002612ccd565b612028906001612cb5565b90505b60018111156120a0576f181899199a1a9b1b9c1cb0b131b232b360811b85600f166010811061205c5761205c612920565b1a60f81b82828151811061207257612072612920565b60200101906001600160f81b031916908160001a90535060049490941c9361209981612cec565b905061202b565b508315611d345760405162461bcd60e51b815260206004820181905260248201527f537472696e67733a20686578206c656e67746820696e73756666696369656e746044820152606401610588565b60075460ff16156109435760405162461bcd60e51b815260206004820152601060248201526f14185d5cd8589b194e881c185d5cd95960821b6044820152606401610588565b61213f8383612266565b61214c6000848484612168565b6106295760405162461bcd60e51b815260040161058890612c2a565b60006001600160a01b0384163b1561225b57604051630a85bd0160e11b81526001600160a01b0385169063150b7a02906121ac903390899088908890600401612d03565b6020604051808303816000875af19250505080156121e7575060408051601f3d908101601f191682019092526121e491810190612d3f565b60015b612241573d808015612215576040519150601f19603f3d011682016040523d82523d6000602084013e61221a565b606091505b5080516122395760405162461bcd60e51b815260040161058890612c2a565b805181602001fd5b6001600160e01b031916630a85bd0160e11b14905061120e565b506001949350505050565b6001600160a01b0382166122bc5760405162461bcd60e51b815260206004820181905260248201527f4552433732313a206d696e7420746f20746865207a65726f20616464726573736044820152606401610588565b6000818152600260205260409020546001600160a01b0316156123215760405162461bcd60e51b815260206004820152601c60248201527f4552433732313a20746f6b656e20616c7265616479206d696e746564000000006044820152606401610588565b61232f600083836001611e79565b6000818152600260205260409020546001600160a01b0316156123945760405162461bcd60e51b815260206004820152601c60248201527f4552433732313a20746f6b656e20616c7265616479206d696e746564000000006044820152606401610588565b6001600160a01b038216600081815260036020908152604080832080546001019055848352600290915280822080546001600160a01b0319168417905551839291907fddf252ad1be2c89b69c2b068fc378daa952ba7f163c4a11628f55a4df523b3ef908290a45050565b82805461240b906128a4565b90600052602060002090601f01602090048101928261242d5760008555612473565b82601f1061244657805160ff1916838001178555612473565b82800160010185558215612473579182015b82811115612473578251825591602001919060010190612458565b5061247f929150612483565b5090565b5b8082111561247f5760008155600101612484565b6001600160e01b0319811681146112a757600080fd5b6000602082840312156124c057600080fd5b8135611d3481612498565b60005b838110156124e65781810151838201526020016124ce565b838111156110cd5750506000910152565b6000815180845261250f8160208601602086016124cb565b601f01601f19169290920160200192915050565b602081526000611d3460208301846124f7565b60006020828403121561254857600080fd5b5035919050565b80356001600160a01b038116811461256657600080fd5b919050565b6000806040838503121561257e57600080fd5b6125878361254f565b946020939093013593505050565b6000602082840312156125a757600080fd5b611d348261254f565b6000602080830181845280855180835260408601915060408160051b870101925083870160005b8281101561260557603f198886030184526125f38583516124f7565b945092850192908501906001016125d7565b5092979650505050505050565b60008060006060848603121561262757600080fd5b6126308461254f565b925061263e6020850161254f565b9150604084013590509250925092565b634e487b7160e01b600052604160045260246000fd5b600067ffffffffffffffff8084111561267f5761267f61264e565b604051601f8501601f19908116603f011681019082821181831017156126a7576126a761264e565b816040528093508581528686860111156126c057600080fd5b858560208301376000602087830101525050509392505050565b600082601f8301126126eb57600080fd5b611d3483833560208501612664565b60006020828403121561270c57600080fd5b813567ffffffffffffffff81111561272357600080fd5b61120e848285016126da565b60008060006060848603121561274457600080fd5b61274d8461254f565b95602085013595506040909401359392505050565b6000806040838503121561277557600080fd5b61277e8361254f565b91506020830135801515811461279357600080fd5b809150509250929050565b6000806000606084860312156127b357600080fd5b6127bc8461254f565b925060208401359150604084013567ffffffffffffffff8111156127df57600080fd5b6127eb868287016126da565b9150509250925092565b6000806000806080858703121561280b57600080fd5b6128148561254f565b93506128226020860161254f565b925060408501359150606085013567ffffffffffffffff81111561284557600080fd5b8501601f8101871361285657600080fd5b61286587823560208401612664565b91505092959194509250565b6000806040838503121561288457600080fd5b61288d8361254f565b915061289b6020840161254f565b90509250929050565b600181811c908216806128b857607f821691505b60208210811415610d3857634e487b7160e01b600052602260045260246000fd5b634e487b7160e01b600052602160045260246000fd5b634e487b7160e01b600052601160045260246000fd5b6000600019821415612919576129196128ef565b5060010190565b634e487b7160e01b600052603260045260246000fd5b6020808252602d908201527f4552433732313a2063616c6c6572206973206e6f7420746f6b656e206f776e6560408201526c1c881bdc88185c1c1c9bdd9959609a1b606082015260800190565b600081516129958185602086016124cb565b9290920192915050565b600089516129b1818460208e016124cb565b607b60f81b908301908152641134b2111d60d91b600182015289516129dd816006840160208e016124cb565b6f16113337bab93734b9b9b2bab9111d1160811b60069290910191820152612a08601682018a612983565b6b11161131b634b2b73a111d1160a11b81529050612a29600c820189612983565b7f222c227265666572656e63654d6174657269656c223a2200000000000000000081529050612a5b6017820188612983565b721116113230ba32a2bc3832b234ba34b7b7111d60691b81529050612a836013820187612983565b7016113230ba32a932b1b2b83a34b7b7111d60791b81529050612aa96011820186612983565b7116113bb7b935b33637bba9ba30ba32911d1160711b81529050612ad06012820185612983565b61227d60f01b81526002019b9a5050505050505050505050565b60008351612afc8184602088016124cb565b835190830190612b108183602088016124cb565b01949350505050565b600060ff821660ff811415612b3057612b306128ef565b60010192915050565b60008251612b4b8184602087016124cb565b605d60f81b920191825250600101919050565b604081526000612b7160408301856124f7565b90506001600160a01b03831660208301529392505050565b60208082526025908201527f4552433732313a207472616e736665722066726f6d20696e636f72726563742060408201526437bbb732b960d91b606082015260800190565b606081526000612be160608301866124f7565b6001600160a01b039490941660208301525060400152919050565b604081526000612c0f60408301856124f7565b8281036020840152612c2181856124f7565b95945050505050565b60208082526032908201527f4552433732313a207472616e7366657220746f206e6f6e20455243373231526560408201527131b2b4bb32b91034b6b83632b6b2b73a32b960711b606082015260800190565b604081526000612c8f60408301856124f7565b90508260208301529392505050565b600082821015612cb057612cb06128ef565b500390565b60008219821115612cc857612cc86128ef565b500190565b6000816000190483118215151615612ce757612ce76128ef565b500290565b600081612cfb57612cfb6128ef565b506000190190565b60006001600160a01b03808716835280861660208401525083604083015260806060830152612d3560808301846124f7565b9695505050505050565b600060208284031215612d5157600080fd5b8151611d348161249856fe65787065646974696f6e206164647265737320257320747970654d6174657269656c20257367657453697a654279436c69656e7420636f6d6d616e64652e636c69656e74202573a264697066735822122034c10d4c6d4d654bca16d80db1d4b23eac18df93518d0fecd93531d12020498764736f6c634300080c0033",
  "linkReferences": {},
  "deployedLinkReferences": {}
}