{
  "_format": "hh-sol-artifact-1",
  "contractName": "Demonstrateur",
  "sourceName": "contracts/Demonstrateur.sol",
  "abi": [
    {
      "inputs": [
        {
          "internalType": "string",
          "name": "definitiveName",
          "type": "string"
        },
        {
          "internalType": "string",
          "name": "definitiveSymbol",
          "type": "string"
        },
        {
          "internalType": "string",
          "name": "definitiveBaseURI",
          "type": "string"
        }
      ],
      "stateMutability": "nonpayable",
      "type": "constructor"
    },
    {
      "anonymous": false,
      "inputs": [
        {
          "indexed": true,
          "internalType": "address",
          "name": "owner",
          "type": "address"
        },
        {
          "indexed": true,
          "internalType": "address",
          "name": "approved",
          "type": "address"
        },
        {
          "indexed": true,
          "internalType": "uint256",
          "name": "tokenId",
          "type": "uint256"
        }
      ],
      "name": "Approval",
      "type": "event"
    },
    {
      "anonymous": false,
      "inputs": [
        {
          "indexed": true,
          "internalType": "address",
          "name": "owner",
          "type": "address"
        },
        {
          "indexed": true,
          "internalType": "address",
          "name": "operator",
          "type": "address"
        },
        {
          "indexed": false,
          "internalType": "bool",
          "name": "approved",
          "type": "bool"
        }
      ],
      "name": "ApprovalForAll",
      "type": "event"
    },
    {
      "anonymous": false,
      "inputs": [
        {
          "indexed": true,
          "internalType": "address",
          "name": "previousOwner",
          "type": "address"
        },
        {
          "indexed": true,
          "internalType": "address",
          "name": "newOwner",
          "type": "address"
        }
      ],
      "name": "OwnershipTransferred",
      "type": "event"
    },
    {
      "anonymous": false,
      "inputs": [
        {
          "indexed": false,
          "internalType": "address",
          "name": "account",
          "type": "address"
        }
      ],
      "name": "Paused",
      "type": "event"
    },
    {
      "anonymous": false,
      "inputs": [
        {
          "indexed": true,
          "internalType": "address",
          "name": "from",
          "type": "address"
        },
        {
          "indexed": true,
          "internalType": "address",
          "name": "to",
          "type": "address"
        },
        {
          "indexed": true,
          "internalType": "uint256",
          "name": "tokenId",
          "type": "uint256"
        }
      ],
      "name": "Transfer",
      "type": "event"
    },
    {
      "anonymous": false,
      "inputs": [
        {
          "indexed": false,
          "internalType": "address",
          "name": "account",
          "type": "address"
        }
      ],
      "name": "Unpaused",
      "type": "event"
    },
    {
      "inputs": [],
      "name": "_uriQuantum",
      "outputs": [
        {
          "internalType": "string",
          "name": "",
          "type": "string"
        }
      ],
      "stateMutability": "view",
      "type": "function"
    },
    {
      "inputs": [],
      "name": "_uriS3200",
      "outputs": [
        {
          "internalType": "string",
          "name": "",
          "type": "string"
        }
      ],
      "stateMutability": "view",
      "type": "function"
    },
    {
      "inputs": [
        {
          "internalType": "address",
          "name": "id",
          "type": "address"
        },
        {
          "internalType": "string",
          "name": "nom",
          "type": "string"
        }
      ],
      "name": "ajouterClient",
      "outputs": [],
      "stateMutability": "nonpayable",
      "type": "function"
    },
    {
      "inputs": [
        {
          "internalType": "address",
          "name": "to",
          "type": "address"
        },
        {
          "internalType": "uint256",
          "name": "tokenId",
          "type": "uint256"
        }
      ],
      "name": "approve",
      "outputs": [],
      "stateMutability": "nonpayable",
      "type": "function"
    },
    {
      "inputs": [
        {
          "internalType": "address",
          "name": "owner",
          "type": "address"
        }
      ],
      "name": "balanceOf",
      "outputs": [
        {
          "internalType": "uint256",
          "name": "",
          "type": "uint256"
        }
      ],
      "stateMutability": "view",
      "type": "function"
    },
    {
      "inputs": [
        {
          "internalType": "address",
          "name": "client",
          "type": "address"
        },
        {
          "internalType": "uint256",
          "name": "typeMateriel",
          "type": "uint256"
        },
        {
          "internalType": "string",
          "name": "referenceMateriel",
          "type": "string"
        }
      ],
      "name": "expedition",
      "outputs": [],
      "stateMutability": "nonpayable",
      "type": "function"
    },
    {
      "inputs": [
        {
          "internalType": "uint256",
          "name": "tokenId",
          "type": "uint256"
        }
      ],
      "name": "getApproved",
      "outputs": [
        {
          "internalType": "address",
          "name": "",
          "type": "address"
        }
      ],
      "stateMutability": "view",
      "type": "function"
    },
    {
      "inputs": [
        {
          "internalType": "address",
          "name": "client",
          "type": "address"
        }
      ],
      "name": "getIdByClient",
      "outputs": [
        {
          "internalType": "string[]",
          "name": "",
          "type": "string[]"
        }
      ],
      "stateMutability": "view",
      "type": "function"
    },
    {
      "inputs": [],
      "name": "getJsonCommandes",
      "outputs": [
        {
          "internalType": "string",
          "name": "",
          "type": "string"
        }
      ],
      "stateMutability": "view",
      "type": "function"
    },
    {
      "inputs": [],
      "name": "getListeClients",
      "outputs": [
        {
          "components": [
            {
              "internalType": "address",
              "name": "id",
              "type": "address"
            },
            {
              "internalType": "string",
              "name": "nom",
              "type": "string"
            }
          ],
          "internalType": "struct Demonstrateur.Client[]",
          "name": "",
          "type": "tuple[]"
        }
      ],
      "stateMutability": "view",
      "type": "function"
    },
    {
      "inputs": [
        {
          "internalType": "address",
          "name": "id",
          "type": "address"
        }
      ],
      "name": "getNomClientByAddress",
      "outputs": [
        {
          "internalType": "string",
          "name": "",
          "type": "string"
        }
      ],
      "stateMutability": "view",
      "type": "function"
    },
    {
      "inputs": [],
      "name": "getUriQuantum",
      "outputs": [
        {
          "internalType": "string",
          "name": "",
          "type": "string"
        }
      ],
      "stateMutability": "view",
      "type": "function"
    },
    {
      "inputs": [],
      "name": "getUriS3200",
      "outputs": [
        {
          "internalType": "string",
          "name": "",
          "type": "string"
        }
      ],
      "stateMutability": "view",
      "type": "function"
    },
    {
      "inputs": [
        {
          "internalType": "address",
          "name": "owner",
          "type": "address"
        },
        {
          "internalType": "address",
          "name": "operator",
          "type": "address"
        }
      ],
      "name": "isApprovedForAll",
      "outputs": [
        {
          "internalType": "bool",
          "name": "",
          "type": "bool"
        }
      ],
      "stateMutability": "view",
      "type": "function"
    },
    {
      "inputs": [],
      "name": "name",
      "outputs": [
        {
          "internalType": "string",
          "name": "",
          "type": "string"
        }
      ],
      "stateMutability": "view",
      "type": "function"
    },
    {
      "inputs": [],
      "name": "owner",
      "outputs": [
        {
          "internalType": "address",
          "name": "",
          "type": "address"
        }
      ],
      "stateMutability": "view",
      "type": "function"
    },
    {
      "inputs": [
        {
          "internalType": "uint256",
          "name": "tokenId",
          "type": "uint256"
        }
      ],
      "name": "ownerOf",
      "outputs": [
        {
          "internalType": "address",
          "name": "",
          "type": "address"
        }
      ],
      "stateMutability": "view",
      "type": "function"
    },
    {
      "inputs": [],
      "name": "pause",
      "outputs": [],
      "stateMutability": "nonpayable",
      "type": "function"
    },
    {
      "inputs": [],
      "name": "paused",
      "outputs": [
        {
          "internalType": "bool",
          "name": "",
          "type": "bool"
        }
      ],
      "stateMutability": "view",
      "type": "function"
    },
    {
      "inputs": [
        {
          "internalType": "address",
          "name": "client",
          "type": "address"
        },
        {
          "internalType": "uint256",
          "name": "itemId",
          "type": "uint256"
        },
        {
          "internalType": "uint256",
          "name": "workflowState",
          "type": "uint256"
        }
      ],
      "name": "reception",
      "outputs": [],
      "stateMutability": "nonpayable",
      "type": "function"
    },
    {
      "inputs": [],
      "name": "renounceOwnership",
      "outputs": [],
      "stateMutability": "nonpayable",
      "type": "function"
    },
    {
      "inputs": [
        {
          "internalType": "address",
          "name": "from",
          "type": "address"
        },
        {
          "internalType": "address",
          "name": "to",
          "type": "address"
        },
        {
          "internalType": "uint256",
          "name": "tokenId",
          "type": "uint256"
        }
      ],
      "name": "safeTransferFrom",
      "outputs": [],
      "stateMutability": "nonpayable",
      "type": "function"
    },
    {
      "inputs": [
        {
          "internalType": "address",
          "name": "from",
          "type": "address"
        },
        {
          "internalType": "address",
          "name": "to",
          "type": "address"
        },
        {
          "internalType": "uint256",
          "name": "tokenId",
          "type": "uint256"
        },
        {
          "internalType": "bytes",
          "name": "data",
          "type": "bytes"
        }
      ],
      "name": "safeTransferFrom",
      "outputs": [],
      "stateMutability": "nonpayable",
      "type": "function"
    },
    {
      "inputs": [
        {
          "internalType": "address",
          "name": "operator",
          "type": "address"
        },
        {
          "internalType": "bool",
          "name": "approved",
          "type": "bool"
        }
      ],
      "name": "setApprovalForAll",
      "outputs": [],
      "stateMutability": "nonpayable",
      "type": "function"
    },
    {
      "inputs": [
        {
          "internalType": "string",
          "name": "uriQuantum",
          "type": "string"
        }
      ],
      "name": "setUriQuantum",
      "outputs": [],
      "stateMutability": "nonpayable",
      "type": "function"
    },
    {
      "inputs": [
        {
          "internalType": "string",
          "name": "uriS3200",
          "type": "string"
        }
      ],
      "name": "setUriS3200",
      "outputs": [],
      "stateMutability": "nonpayable",
      "type": "function"
    },
    {
      "inputs": [
        {
          "internalType": "bytes4",
          "name": "interfaceId",
          "type": "bytes4"
        }
      ],
      "name": "supportsInterface",
      "outputs": [
        {
          "internalType": "bool",
          "name": "",
          "type": "bool"
        }
      ],
      "stateMutability": "view",
      "type": "function"
    },
    {
      "inputs": [],
      "name": "symbol",
      "outputs": [
        {
          "internalType": "string",
          "name": "",
          "type": "string"
        }
      ],
      "stateMutability": "view",
      "type": "function"
    },
    {
      "inputs": [
        {
          "internalType": "uint256",
          "name": "tokenId",
          "type": "uint256"
        }
      ],
      "name": "tokenURI",
      "outputs": [
        {
          "internalType": "string",
          "name": "",
          "type": "string"
        }
      ],
      "stateMutability": "view",
      "type": "function"
    },
    {
      "inputs": [
        {
          "internalType": "address",
          "name": "from",
          "type": "address"
        },
        {
          "internalType": "address",
          "name": "to",
          "type": "address"
        },
        {
          "internalType": "uint256",
          "name": "tokenId",
          "type": "uint256"
        }
      ],
      "name": "transferFrom",
      "outputs": [],
      "stateMutability": "nonpayable",
      "type": "function"
    },
    {
      "inputs": [
        {
          "internalType": "address",
          "name": "newOwner",
          "type": "address"
        }
      ],
      "name": "transferOwnership",
      "outputs": [],
      "stateMutability": "nonpayable",
      "type": "function"
    },
    {
      "inputs": [],
      "name": "unpause",
      "outputs": [],
      "stateMutability": "nonpayable",
      "type": "function"
    }
  ],
  "bytecode": "0x60806040523480156200001157600080fd5b506040516200418e3803806200418e833981016040819052620000349162000508565b8251839083906200004d90600090602085019062000325565b5080516200006390600190602084019062000325565b50506007805460ff19169055506200007b33620002cb565b80516200009090600990602084019062000325565b50604080518082018252737cd33a833dc720acc8d17bc17edc41cc526febb281528151808301909252600a825269466e616320446172747960b01b602080840191909152808201928352600f805460018101825560009190915282516000805160206200416e833981519152600290920291820180546001600160a01b0319166001600160a01b03909216919091178155935180519394936200014c936000805160206200414e83398151915290930192919091019062000325565b5050604080518082018252733a1071c4bfce6357affcef48070a6931daab01c281528151808301909252600d82526c47726f75706520436173696e6f60981b602080840191909152808201928352600f805460018101825560009190915282516000805160206200416e833981519152600290920291820180546001600160a01b0319166001600160a01b039092169190911781559351805193955062000209936000805160206200414e83398151915290920192019062000325565b50506040805180820182527399296e92ce2d46508535afa8b7f86ee8927bf8ac81528151808301909252600682526545646974697360d01b602080840191909152808201928352600f805460018101825560009190915282516000805160206200416e833981519152600290920291820180546001600160a01b0319166001600160a01b0390921691909117815593518051939550620002bf936000805160206200414e83398151915290920192019062000325565b505050505050620005fe565b600780546001600160a01b03838116610100818102610100600160a81b031985161790945560405193909204169182907f8be0079c531659141344cd1fd0a4f28419497f9722a3daafe3b4186f6b6457e090600090a35050565b8280546200033390620005cd565b90600052602060002090601f016020900481019282620003575760008555620003a2565b82601f106200037257805160ff1916838001178555620003a2565b82800160010185558215620003a2579182015b82811115620003a257825182559160200191906001019062000385565b50620003b0929150620003b4565b5090565b5b80821115620003b05760008155600101620003b5565b634e487b7160e01b600052604160045260246000fd5b601f19601f83011681016001600160401b0381118282101715620004095762000409620003cb565b6040525050565b60006200041c60405190565b90506200042a8282620003e1565b919050565b60006001600160401b038211156200044b576200044b620003cb565b601f19601f83011660200192915050565b60005b83811015620004795781810151838201526020016200045f565b8381111562000489576000848401525b50505050565b6000620004a6620004a0846200042f565b62000410565b905082815260208101848484011115620004c357620004c3600080fd5b620004d08482856200045c565b509392505050565b600082601f830112620004ee57620004ee600080fd5b8151620005008482602086016200048f565b949350505050565b600080600060608486031215620005225762000522600080fd5b83516001600160401b038111156200053d576200053d600080fd5b6200054b86828701620004d8565b602086015190945090506001600160401b038111156200056e576200056e600080fd5b6200057c86828701620004d8565b604086015190935090506001600160401b038111156200059f576200059f600080fd5b620005ad86828701620004d8565b9150509250925092565b634e487b7160e01b600052602260045260246000fd5b600281046001821680620005e257607f821691505b60208210811415620005f857620005f8620005b7565b50919050565b613b40806200060e6000396000f3fe608060405234801561001057600080fd5b50600436106101f05760003560e01c80636352211e1161010f578063a688f035116100a2578063ddf387f411610071578063ddf387f4146103e4578063e985e9c5146103f7578063f2fde38b14610433578063f53790f11461044657600080fd5b8063a688f035146103a1578063b88d4fde146103b6578063b9ce1395146103c9578063c87b56dd146103d157600080fd5b80638da5cb5b116100de5780638da5cb5b1461035d57806395d89b4114610373578063a22cb4651461037b578063a27421af1461038e57600080fd5b80636352211e1461031a57806370a082311461032d578063715018a61461034d5780638456cb591461035557600080fd5b806337bd6c5e116101875780634835cae7116101565780634835cae7146102ec5780634cb01278146102f45780634fb75e4f146103075780635c975abb1461030f57600080fd5b806337bd6c5e146102c15780633f4ba83a146102c957806342842e0e146102d1578063457d5338146102e457600080fd5b8063213f61b3116101c3578063213f61b3146102685780632163b1011461028857806323b872dd1461029b5780632a40807c146102ae57600080fd5b806301ffc9a7146101f557806306fdde031461021e578063081812fc14610233578063095ea7b314610253575b600080fd5b610208610203366004612949565b610459565b6040516102159190612974565b60405180910390f35b61022661053e565b60405161021591906129e0565b610246610241366004612a02565b6105d0565b6040516102159190612a3d565b610266610261366004612a5f565b6105f7565b005b61027b610276366004612a9c565b6106a4565b6040516102159190612b33565b610226610296366004612a9c565b6108cb565b6102666102a9366004612b44565b610af5565b6102666102bc366004612c87565b610b26565b610226610b45565b610266610bd3565b6102666102df366004612b44565b610be5565b610226610c00565b610226610c0f565b610266610302366004612cc2565b610c1e565b610226610d09565b60075460ff16610208565b610246610328366004612a02565b611009565b61034061033b366004612a9c565b61103e565b6040516102159190612cfd565b610266611082565b610266611094565b60075461010090046001600160a01b0316610246565b6102266110a4565b610266610389366004612d1e565b6110b3565b61026661039c366004612d51565b6110be565b6103a96112e9565b6040516102159190612e4b565b6102666103c4366004612e5c565b6113ef565b610226611421565b6102266103df366004612a02565b61142e565b6102666103f2366004612c87565b611532565b610208610405366004612edb565b6001600160a01b03918216600090815260056020908152604080832093909416825291909152205460ff1690565b610266610441366004612a9c565b61154d565b610266610454366004612f0e565b611587565b60007fffffffff0000000000000000000000000000000000000000000000000000000082167f80ac58cd0000000000000000000000000000000000000000000000000000000014806104ec57507fffffffff0000000000000000000000000000000000000000000000000000000082167f5b5e139f00000000000000000000000000000000000000000000000000000000145b8061053857507f01ffc9a7000000000000000000000000000000000000000000000000000000007fffffffff000000000000000000000000000000000000000000000000000000008316145b92915050565b60606000805461054d90612f72565b80601f016020809104026020016040519081016040528092919081815260200182805461057990612f72565b80156105c65780601f1061059b576101008083540402835291602001916105c6565b820191906000526020600020905b8154815290600101906020018083116105a957829003601f168201915b5050505050905090565b60006105db826116ad565b506000908152600460205260409020546001600160a01b031690565b600061060282611009565b9050806001600160a01b0316836001600160a01b0316141561063f5760405162461bcd60e51b815260040161063690612ff9565b60405180910390fd5b336001600160a01b038216148061067957506001600160a01b038116600090815260056020908152604080832033845290915290205460ff165b6106955760405162461bcd60e51b815260040161063690613061565b61069f83836116e1565b505050565b60606106e56040518060400160405280601881526020017f67657449644279436c69656e74206164647265737320257300000000000000008152508361175c565b6000806106f1846117cf565b67ffffffffffffffff81111561070957610709612b94565b60405190808252806020026020018201604052801561073c57816020015b60608152602001906001900390816107275790505b50905060005b6008548110156108c3576000818152600c60209081526040808320815160c08101835281546001600160a01b03908116825260018301541693810193909352600281018054919284019161079590612f72565b80601f01602080910402602001604051908101604052809291908181526020018280546107c190612f72565b801561080e5780601f106107e35761010080835404028352916020019161080e565b820191906000526020600020905b8154815290600101906020018083116107f157829003601f168201915b5050509183525050600382810154602083015260048301546040830152600583015460609092019160ff169081111561084957610849613071565b600381111561085a5761085a613071565b815250509050856001600160a01b031681602001516001600160a01b031614156108b05761088782611997565b83856108928161309d565b9650815181106108a4576108a46130b8565b60200260200101819052505b50806108bb8161309d565b915050610742565b509392505050565b60408051808201909152600781527f496e636f6e6e75000000000000000000000000000000000000000000000000006020820152606090306001600160a01b038416141561094e57505060408051808201909152600581527f4f776e65720000000000000000000000000000000000000000000000000000006020820152919050565b61098d6040518060400160405280601881526020017f676574436c69656e7442794164647265737320696420257300000000000000008152508461175c565b60005b600f54811015610aee576000600f82815481106109af576109af6130b8565b60009182526020918290206040805180820190915260029092020180546001600160a01b0316825260018101805492939192918401916109ee90612f72565b80601f0160208091040260200160405190810160405280929190818152602001828054610a1a90612f72565b8015610a675780601f10610a3c57610100808354040283529160200191610a67565b820191906000526020600020905b815481529060010190602001808311610a4a57829003601f168201915b5050505050815250509050846001600160a01b031681600001516001600160a01b03161415610adb57610ad36040518060400160405280602081526020017f676574436c69656e74427941646472657373205f636c69656e742e6964202573815250826000015161175c565b806020015192505b5080610ae68161309d565b915050610990565b5092915050565b610aff3382611a39565b610b1b5760405162461bcd60e51b815260040161063690613126565b61069f838383611ab7565b610b2e611bf9565b8051610b4190600b906020840190612876565b5050565b600a8054610b5290612f72565b80601f0160208091040260200160405190810160405280929190818152602001828054610b7e90612f72565b8015610bcb5780601f10610ba057610100808354040283529160200191610bcb565b820191906000526020600020905b815481529060010190602001808311610bae57829003601f168201915b505050505081565b610bdb611bf9565b610be3611c29565b565b61069f838383604051806020016040528060008152506113ef565b6060600a805461054d90612f72565b6060600b805461054d90612f72565b610c5e6040518060400160405280601e81526020017f726563657074696f6e2061646472657373202573206974656d496420257300008152508484611c75565b6001600160a01b038316610c845760405162461bcd60e51b815260040161063690613168565b801580610c915750806001145b610cad5760405162461bcd60e51b8152600401610636906131aa565b80610cd3576000828152600c60205260409020600501805460ff19166002179055610cf0565b6000828152600c60205260409020600501805460ff191660031790555b506000908152600c602052604090204260049091015550565b604080518082018252600181527f5b000000000000000000000000000000000000000000000000000000000000006020808301919091528251808201845260008082528451808401865281815285519384019095528083526060949192905b6008548160ff161015610fa55760ff81166000908152600c60209081526040808320815160c08101835281546001600160a01b039081168252600183015416938101939093526002810180549192840191610dc290612f72565b80601f0160208091040260200160405190810160405280929190818152602001828054610dee90612f72565b8015610e3b5780601f10610e1057610100808354040283529160200191610e3b565b820191906000526020600020905b815481529060010190602001808311610e1e57829003601f168201915b5050509183525050600382810154602083015260048301546040830152600583015460609092019160ff1690811115610e7657610e76613071565b6003811115610e8757610e87613071565b815250509050610e9a81602001516108cb565b9350610ea981600001516108cb565b925060ff821615610eed576040518060400160405280600181526020017f2c0000000000000000000000000000000000000000000000000000000000000081525094505b600085610efc8460ff16611997565b8351610f0790611cea565b86610f158660200151611cea565b898760400151610f288960600151611997565b610f358a60800151611997565b610f428b60a00151611d00565b604051602001610f5b9a999897969594939291906131dc565b60405160208183030381529060405290508681604051602001610f7f929190613409565b604051602081830303815290604052965050508080610f9d9061341f565b915050610d68565b5083604051602001610fb79190613438565b60408051601f19818403018152828201909152601182527f4a736f6e436f6d6d616e64657320257320000000000000000000000000000000602083015294506110009085611e5e565b50919392505050565b6000818152600260205260408120546001600160a01b0316806105385760405162461bcd60e51b8152600401610636906134a0565b60006001600160a01b0382166110665760405162461bcd60e51b815260040161063690613508565b506001600160a01b031660009081526003602052604090205490565b61108a611bf9565b610be36000611ed1565b61109c611bf9565b610be3611f42565b60606001805461054d90612f72565b610b41338383611f7f565b6110e1604051806060016040528060258152602001613ac4602591398484611c75565b6001600160a01b0383166111075760405162461bcd60e51b815260040161063690613168565b8115806111145750816001145b6111305760405162461bcd60e51b81526004016106369061354a565b600061113b60085490565b90506111478482612022565b826111e5576111e081600a805461115d90612f72565b80601f016020809104026020016040519081016040528092919081815260200182805461118990612f72565b80156111d65780601f106111ab576101008083540402835291602001916111d6565b820191906000526020600020905b8154815290600101906020018083116111b957829003601f168201915b505050505061203c565b6111f6565b6111f681600b805461115d90612f72565b6040805160c0810182523381526001600160a01b03861660208201529081018390524260608201526000608082015260a08101600190526000828152600c6020908152604091829020835181546001600160a01b0391821673ffffffffffffffffffffffffffffffffffffffff19918216178355858401516001840180549190931691161790559183015180516112939260028501920190612876565b50606082015181600301556080820151816004015560a08201518160050160006101000a81548160ff021916908360038111156112d2576112d2613071565b021790555050600880546001019055505b50505050565b6060600f805480602002602001604051908101604052809291908181526020016000905b828210156113e6576000848152602090819020604080518082019091526002850290910180546001600160a01b03168252600181018054929391929184019161135590612f72565b80601f016020809104026020016040519081016040528092919081815260200182805461138190612f72565b80156113ce5780601f106113a3576101008083540402835291602001916113ce565b820191906000526020600020905b8154815290600101906020018083116113b157829003601f168201915b5050505050815250508152602001906001019061130d565b50505050905090565b6113f93383611a39565b6114155760405162461bcd60e51b815260040161063690613126565b6112e38484848461208f565b600b8054610b5290612f72565b6060611439826116ad565b6000828152600660205260408120805461145290612f72565b80601f016020809104026020016040519081016040528092919081815260200182805461147e90612f72565b80156114cb5780601f106114a0576101008083540402835291602001916114cb565b820191906000526020600020905b8154815290600101906020018083116114ae57829003601f168201915b5050505050905060006114dc6120c2565b90508051600014156114ef575092915050565b815115611521578082604051602001611509929190613409565b60405160208183030381529060405292505050919050565b61152a846120d1565b949350505050565b61153a611bf9565b8051610b4190600a906020840190612876565b611555611bf9565b6001600160a01b03811661157b5760405162461bcd60e51b8152600401610636906135b2565b61158481611ed1565b50565b61158f611bf9565b6115cf6040518060400160405280601681526020017f726563657074696f6e206964202573206e6f6d202573000000000000000000008152508383612138565b6001600160a01b0382166115f55760405162461bcd60e51b815260040161063690613168565b604080518082019091526001600160a01b0383811682526020808301848152600f805460018101825560009190915284517f8d1108e10bcb7c27dddfc02ed9d693a074039d026cf4ea4240b40f7d581ac8026002909202918201805473ffffffffffffffffffffffffffffffffffffffff191691909516178455905180516116a6937f8d1108e10bcb7c27dddfc02ed9d693a074039d026cf4ea4240b40f7d581ac803909301929190910190612876565b5050505050565b6000818152600260205260409020546001600160a01b03166115845760405162461bcd60e51b8152600401610636906134a0565b6000818152600460205260409020805473ffffffffffffffffffffffffffffffffffffffff19166001600160a01b038416908117909155819061172382611009565b6001600160a01b03167f8c5be1e5ebec7d5bd14f71427d1e84f3dd0314c0f7b2291e5b200ac8c7c3b92560405160405180910390a45050565b610b4182826040516024016117729291906135c2565b60408051601f198184030181529190526020810180517bffffffffffffffffffffffffffffffffffffffffffffffffffffffff167f319af333000000000000000000000000000000000000000000000000000000001790526121a9565b600080805b600854811015611957576000818152600c60209081526040808320815160c08101835281546001600160a01b03908116825260018301541693810193909352600281018054919284019161182790612f72565b80601f016020809104026020016040519081016040528092919081815260200182805461185390612f72565b80156118a05780601f10611875576101008083540402835291602001916118a0565b820191906000526020600020905b81548152906001019060200180831161188357829003601f168201915b5050509183525050600382810154602083015260048301546040830152600583015460609092019160ff16908111156118db576118db613071565b60038111156118ec576118ec613071565b815250509050611918604051806060016040528060228152602001613ae960229139826020015161175c565b846001600160a01b031681602001516001600160a01b0316141561194457826119408161309d565b9350505b508061194f8161309d565b9150506117d4565b506105386040518060400160405280601c81526020017f67657453697a654279436c69656e74206974656d436f756e7420257300000000815250826121ca565b606060006119a48361223d565b600101905060008167ffffffffffffffff8111156119c4576119c4612b94565b6040519080825280601f01601f1916602001820160405280156119ee576020820181803683370190505b5090508181016020015b600019017f3031323334353637383961626364656600000000000000000000000000000000600a86061a8153600a8504945084611a34576108c3565b6119f8565b600080611a4583611009565b9050806001600160a01b0316846001600160a01b03161480611a8c57506001600160a01b0380821660009081526005602090815260408083209388168352929052205460ff165b8061152a5750836001600160a01b0316611aa5846105d0565b6001600160a01b031614949350505050565b826001600160a01b0316611aca82611009565b6001600160a01b031614611af05760405162461bcd60e51b81526004016106369061363a565b6001600160a01b038216611b165760405162461bcd60e51b8152600401610636906136a2565b611b23838383600161231f565b826001600160a01b0316611b3682611009565b6001600160a01b031614611b5c5760405162461bcd60e51b81526004016106369061363a565b6000818152600460209081526040808320805473ffffffffffffffffffffffffffffffffffffffff199081169091556001600160a01b0387811680865260038552838620805460001901905590871680865283862080546001019055868652600290945282852080549092168417909155905184937fddf252ad1be2c89b69c2b068fc378daa952ba7f163c4a11628f55a4df523b3ef91a4505050565b6007546001600160a01b03610100909104163314610be35760405162461bcd60e51b8152600401610636906136e2565b611c316123a7565b6007805460ff191690557f5db9ee0a495bf2e6ff9c91a7834c1ba4fdd244a5e8aa4e537bd38aeae4b073aa335b604051611c6b9190612a3d565b60405180910390a1565b61069f838383604051602401611c8d939291906136f2565b60408051601f198184030181529190526020810180517bffffffffffffffffffffffffffffffffffffffffffffffffffffffff167f0d26b925000000000000000000000000000000000000000000000000000000001790526121a9565b60606105386001600160a01b03831660146123c9565b6060816003811115611d1457611d14613071565b611d5157505060408051808201909152600881527f4372656174696f6e000000000000000000000000000000000000000000000000602082015290565b816003811115611d6357611d63613071565b60011415611da457505060408051808201909152600a81527f45787065646974696f6e00000000000000000000000000000000000000000000602082015290565b816003811115611db657611db6613071565b60021415611df757505060408051808201909152600981527f526563657074696f6e0000000000000000000000000000000000000000000000602082015290565b816003811115611e0957611e09613071565b60031415611e4a57505060408051808201909152600a81527f416e6e756c6174696f6e00000000000000000000000000000000000000000000602082015290565b505060408051602081019091526000815290565b610b418282604051602401611e7492919061371f565b60408051601f198184030181529190526020810180517bffffffffffffffffffffffffffffffffffffffffffffffffffffffff167f4b5c4277000000000000000000000000000000000000000000000000000000001790526121a9565b600780546001600160a01b038381166101008181027fffffffffffffffffffffff0000000000000000000000000000000000000000ff85161790945560405193909204169182907f8be0079c531659141344cd1fd0a4f28419497f9722a3daafe3b4186f6b6457e090600090a35050565b611f4a6125c2565b6007805460ff191660011790557f62e78cea01bee320cd4e420270b5ea74000d11b0c9f74754ebdbfc544b05a258611c5e3390565b816001600160a01b0316836001600160a01b03161415611fb15760405162461bcd60e51b815260040161063690613776565b6001600160a01b0383811660008181526005602090815260408083209487168084529490915290819020805460ff1916851515179055517f17307eab39ab6107e8899845ad3d59bd9653f200f220920489ca2b5937696c3190612015908590612974565b60405180910390a3505050565b610b418282604051806020016040528060008152506125e5565b6000828152600260205260409020546001600160a01b03166120705760405162461bcd60e51b8152600401610636906137de565b6000828152600660209081526040909120825161069f92840190612876565b61209a848484611ab7565b6120a684848484612618565b6112e35760405162461bcd60e51b815260040161063690613846565b60606009805461054d90612f72565b60606120dc826116ad565b60006120e66120c2565b905060008151116121065760405180602001604052806000815250612131565b8061211084611997565b604051602001612121929190613409565b6040516020818303038152906040525b9392505050565b61069f83838360405160240161215093929190613856565b60408051601f198184030181529190526020810180517bffffffffffffffffffffffffffffffffffffffffffffffffffffffff167fe0e9ad4f000000000000000000000000000000000000000000000000000000001790525b80516a636f6e736f6c652e6c6f67602083016000808483855afa5050505050565b610b4182826040516024016121e0929190613888565b60408051601f198184030181529190526020810180517bffffffffffffffffffffffffffffffffffffffffffffffffffffffff167fb60e72cc000000000000000000000000000000000000000000000000000000001790526121a9565b6000807a184f03e93ff9f4daa797ed6e38ed64bf6a1f0100000000000000008310612286577a184f03e93ff9f4daa797ed6e38ed64bf6a1f010000000000000000830492506040015b6d04ee2d6d415b85acef810000000083106122b2576d04ee2d6d415b85acef8100000000830492506020015b662386f26fc1000083106122d057662386f26fc10000830492506010015b6305f5e10083106122e8576305f5e100830492506008015b61271083106122fc57612710830492506004015b6064831061230e576064830492506002015b600a83106105385760010192915050565b60018111156112e3576001600160a01b03841615612365576001600160a01b0384166000908152600360205260408120805483929061235f9084906138a8565b90915550505b6001600160a01b038316156112e3576001600160a01b0383166000908152600360205260408120805483929061239c9084906138bf565b909155505050505050565b60075460ff16610be35760405162461bcd60e51b815260040161063690613909565b606060006123d8836002613919565b6123e39060026138bf565b67ffffffffffffffff8111156123fb576123fb612b94565b6040519080825280601f01601f191660200182016040528015612425576020820181803683370190505b5090507f30000000000000000000000000000000000000000000000000000000000000008160008151811061245c5761245c6130b8565b60200101907effffffffffffffffffffffffffffffffffffffffffffffffffffffffffffff1916908160001a9053507f7800000000000000000000000000000000000000000000000000000000000000816001815181106124bf576124bf6130b8565b60200101907effffffffffffffffffffffffffffffffffffffffffffffffffffffffffffff1916908160001a90535060006124fb846002613919565b6125069060016138bf565b90505b60018111156125a3577f303132333435363738396162636465660000000000000000000000000000000085600f1660108110612547576125476130b8565b1a60f81b82828151811061255d5761255d6130b8565b60200101907effffffffffffffffffffffffffffffffffffffffffffffffffffffffffffff1916908160001a90535060049490941c9361259c81613938565b9050612509565b5083156121315760405162461bcd60e51b81526004016106369061397f565b60075460ff1615610be35760405162461bcd60e51b8152600401610636906139c1565b6125ef8383612760565b6125fc6000848484612618565b61069f5760405162461bcd60e51b815260040161063690613846565b60006001600160a01b0384163b15612755576040517f150b7a020000000000000000000000000000000000000000000000000000000081526001600160a01b0385169063150b7a02906126759033908990889088906004016139d1565b6020604051808303816000875af19250505080156126b0575060408051601f3d908101601f191682019092526126ad91810190613a20565b60015b61270a573d8080156126de576040519150601f19603f3d011682016040523d82523d6000602084013e6126e3565b606091505b5080516127025760405162461bcd60e51b815260040161063690613846565b805181602001fd5b7fffffffff00000000000000000000000000000000000000000000000000000000167f150b7a020000000000000000000000000000000000000000000000000000000014905061152a565b506001949350505050565b6001600160a01b0382166127865760405162461bcd60e51b815260040161063690613a71565b6000818152600260205260409020546001600160a01b0316156127bb5760405162461bcd60e51b815260040161063690613ab3565b6127c960008383600161231f565b6000818152600260205260409020546001600160a01b0316156127fe5760405162461bcd60e51b815260040161063690613ab3565b6001600160a01b0382166000818152600360209081526040808320805460010190558483526002909152808220805473ffffffffffffffffffffffffffffffffffffffff19168417905551839291907fddf252ad1be2c89b69c2b068fc378daa952ba7f163c4a11628f55a4df523b3ef908290a45050565b82805461288290612f72565b90600052602060002090601f0160209004810192826128a457600085556128ea565b82601f106128bd57805160ff19168380011785556128ea565b828001600101855582156128ea579182015b828111156128ea5782518255916020019190600101906128cf565b506128f69291506128fa565b5090565b5b808211156128f657600081556001016128fb565b7fffffffff0000000000000000000000000000000000000000000000000000000081165b811461158457600080fd5b80356105388161290f565b60006020828403121561295e5761295e600080fd5b600061152a848461293e565b8015155b82525050565b60208101610538828461296a565b60005b8381101561299d578181015183820152602001612985565b838111156112e35750506000910152565b60006129b8825190565b8084526020840193506129cf818560208601612982565b601f01601f19169290920192915050565b6020808252810161213181846129ae565b80612933565b8035610538816129f1565b600060208284031215612a1757612a17600080fd5b600061152a84846129f7565b60006001600160a01b038216610538565b61296e81612a23565b602081016105388284612a34565b61293381612a23565b803561053881612a4b565b60008060408385031215612a7557612a75600080fd5b6000612a818585612a54565b9250506020612a92858286016129f7565b9150509250929050565b600060208284031215612ab157612ab1600080fd5b600061152a8484612a54565b600061213183836129ae565b60200190565b6000612ad9825190565b80845260208401935083602082028501612af38560200190565b60005b84811015612b275783830388528151612b0f8482612abd565b93505060208201602098909801979150600101612af6565b50909695505050505050565b602080825281016121318184612acf565b600080600060608486031215612b5c57612b5c600080fd5b6000612b688686612a54565b9350506020612b7986828701612a54565b9250506040612b8a868287016129f7565b9150509250925092565b634e487b7160e01b600052604160045260246000fd5b601f19601f830116810181811067ffffffffffffffff82111715612bd057612bd0612b94565b6040525050565b6000612be260405190565b9050612bee8282612baa565b919050565b600067ffffffffffffffff821115612c0d57612c0d612b94565b601f19601f83011660200192915050565b82818337506000910152565b6000612c3d612c3884612bf3565b612bd7565b905082815260208101848484011115612c5857612c58600080fd5b6108c3848285612c1e565b600082601f830112612c7757612c77600080fd5b813561152a848260208601612c2a565b600060208284031215612c9c57612c9c600080fd5b813567ffffffffffffffff811115612cb657612cb6600080fd5b61152a84828501612c63565b600080600060608486031215612cda57612cda600080fd5b6000612ce68686612a54565b9350506020612b79868287016129f7565b8061296e565b602081016105388284612cf7565b801515612933565b803561053881612d0b565b60008060408385031215612d3457612d34600080fd5b6000612d408585612a54565b9250506020612a9285828601612d13565b600080600060608486031215612d6957612d69600080fd5b6000612d758686612a54565b9350506020612d86868287016129f7565b925050604084013567ffffffffffffffff811115612da657612da6600080fd5b612b8a86828701612c63565b80516000906040840190612dc68582612a34565b5060208301518482036020860152612dde82826129ae565b95945050505050565b60006121318383612db2565b6000612dfd825190565b80845260208401935083602082028501612e178560200190565b60005b84811015612b275783830388528151612e338482612de7565b93505060208201602098909801979150600101612e1a565b602080825281016121318184612df3565b60008060008060808587031215612e7557612e75600080fd5b6000612e818787612a54565b9450506020612e9287828801612a54565b9350506040612ea3878288016129f7565b925050606085013567ffffffffffffffff811115612ec357612ec3600080fd5b612ecf87828801612c63565b91505092959194509250565b60008060408385031215612ef157612ef1600080fd5b6000612efd8585612a54565b9250506020612a9285828601612a54565b60008060408385031215612f2457612f24600080fd5b6000612f308585612a54565b925050602083013567ffffffffffffffff811115612f5057612f50600080fd5b612a9285828601612c63565b634e487b7160e01b600052602260045260246000fd5b600281046001821680612f8657607f821691505b60208210811415612f9957612f99612f5c565b50919050565b60218152602081017f4552433732313a20617070726f76616c20746f2063757272656e74206f776e6581527f7200000000000000000000000000000000000000000000000000000000000000602082015290505b60400190565b6020808252810161053881612f9f565b603d8152602081017f4552433732313a20617070726f76652063616c6c6572206973206e6f7420746f81527f6b656e206f776e6572206f7220617070726f76656420666f7220616c6c00000060208201529050612ff3565b6020808252810161053881613009565b634e487b7160e01b600052602160045260246000fd5b634e487b7160e01b600052601160045260246000fd5b60006000198214156130b1576130b1613087565b5060010190565b634e487b7160e01b600052603260045260246000fd5b602d8152602081017f4552433732313a2063616c6c6572206973206e6f7420746f6b656e206f776e6581527f72206f7220617070726f7665640000000000000000000000000000000000000060208201529050612ff3565b60208082528101610538816130ce565b60128152602081017f41646472657373206e6f742076616c696465000000000000000000000000000081529050612ac9565b6020808252810161053881613136565b60188152602081017f776f726b666c6f775374617465206e6f742076616c696465000000000000000081529050612ac9565b6020808252810161053881613178565b60006131c4825190565b6131d2818560208601612982565b9290920192915050565b6131e6818c6131ba565b7f7b0000000000000000000000000000000000000000000000000000000000000081529050600101613237817f226964223a0000000000000000000000000000000000000000000000000000009052565b600501613244818b6131ba565b7f2c22666f75726e697373657572223a220000000000000000000000000000000081529050601001613276818a6131ba565b7f222c226e6f6d466f75726e697373657572223a22000000000000000000000000815290506014016132a881896131ba565b7f222c22636c69656e74223a22000000000000000000000000000000000000000081529050600c016132da81886131ba565b7f222c226e6f6d436c69656e74223a22000000000000000000000000000000000081529050600f0161330c81876131ba565b7f222c227265666572656e63654d6174657269656c223a220000000000000000008152905060170161333e81866131ba565b7f222c226461746545787065646974696f6e223a000000000000000000000000008152905060130161337081856131ba565b7f2c2264617465526563657074696f6e223a000000000000000000000000000000815290506011016133a281846131ba565b7f2c22776f726b666c6f775374617465223a220000000000000000000000000000815290506012016133d481836131ba565b7f227d00000000000000000000000000000000000000000000000000000000000081526002019b9a5050505050505050505050565b61341381846131ba565b905061213181836131ba565b60ff81169050600060ff8214156130b1576130b1613087565b61344281836131ba565b7f5d00000000000000000000000000000000000000000000000000000000000000815260010192915050565b60188152602081017f4552433732313a20696e76616c696420746f6b656e204944000000000000000081529050612ac9565b602080825281016105388161346e565b60298152602081017f4552433732313a2061646472657373207a65726f206973206e6f74206120766181527f6c6964206f776e6572000000000000000000000000000000000000000000000060208201529050612ff3565b60208082528101610538816134b0565b601b8152602081017f54797065206465204d6174657269656c206e6f742076616c696465000000000081529050612ac9565b6020808252810161053881613518565b60268152602081017f4f776e61626c653a206e6577206f776e657220697320746865207a65726f206181527f646472657373000000000000000000000000000000000000000000000000000060208201529050612ff3565b602080825281016105388161355a565b604080825281016135d381856129ae565b90506121316020830184612a34565b60258152602081017f4552433732313a207472616e736665722066726f6d20696e636f72726563742081527f6f776e657200000000000000000000000000000000000000000000000000000060208201529050612ff3565b60208082528101610538816135e2565b60248152602081017f4552433732313a207472616e7366657220746f20746865207a65726f2061646481527f726573730000000000000000000000000000000000000000000000000000000060208201529050612ff3565b602080825281016105388161364a565b60208082527f4f776e61626c653a2063616c6c6572206973206e6f7420746865206f776e65729101908152612ac9565b60208082528101610538816136b2565b6060808252810161370381866129ae565b90506137126020830185612a34565b61152a6040830184612cf7565b6040808252810161373081856129ae565b9050818103602083015261152a81846129ae565b60198152602081017f4552433732313a20617070726f766520746f2063616c6c65720000000000000081529050612ac9565b6020808252810161053881613744565b602e8152602081017f45524337323155524953746f726167653a2055524920736574206f66206e6f6e81527f6578697374656e7420746f6b656e00000000000000000000000000000000000060208201529050612ff3565b6020808252810161053881613786565b60328152602081017f4552433732313a207472616e7366657220746f206e6f6e20455243373231526581527f63656976657220696d706c656d656e746572000000000000000000000000000060208201529050612ff3565b60208082528101610538816137ee565b6060808252810161386781866129ae565b90506138766020830185612a34565b8181036040830152612dde81846129ae565b6040808252810161389981856129ae565b90506121316020830184612cf7565b6000828210156138ba576138ba613087565b500390565b600082198211156138d2576138d2613087565b500190565b60148152602081017f5061757361626c653a206e6f742070617573656400000000000000000000000081529050612ac9565b60208082528101610538816138d7565b600081600019048311821515161561393357613933613087565b500290565b60008161394757613947613087565b506000190190565b60208082527f537472696e67733a20686578206c656e67746820696e73756666696369656e749101908152612ac9565b602080825281016105388161394f565b60108152602081017f5061757361626c653a207061757365640000000000000000000000000000000081529050612ac9565b602080825281016105388161398f565b608081016139df8287612a34565b6139ec6020830186612a34565b6139f96040830185612cf7565b8181036060830152613a0b81846129ae565b9695505050505050565b80516105388161290f565b600060208284031215613a3557613a35600080fd5b600061152a8484613a15565b60208082527f4552433732313a206d696e7420746f20746865207a65726f20616464726573739101908152612ac9565b6020808252810161053881613a41565b601c8152602081017f4552433732313a20746f6b656e20616c7265616479206d696e7465640000000081529050612ac9565b6020808252810161053881613a8156fe65787065646974696f6e206164647265737320257320747970654d6174657269656c20257367657453697a654279436c69656e7420636f6d6d616e64652e636c69656e74202573a2646970667358221220dee36ead4fb7d9f0045f2893e421c3e529cb054d2fe25650e4045d8ee387587d64736f6c634300080c00338d1108e10bcb7c27dddfc02ed9d693a074039d026cf4ea4240b40f7d581ac8038d1108e10bcb7c27dddfc02ed9d693a074039d026cf4ea4240b40f7d581ac802",
  "linkReferences": {},
  "deployedLinkReferences": {}
}