{
  "_format": "hh-sol-artifact-1",
  "contractName": "Demonstrateur",
  "sourceName": "contracts/Demonstrateur.sol",
  "abi": [
    {
      "inputs": [
        {
          "internalType": "string",
          "name": "definitiveName",
          "type": "string"
        },
        {
          "internalType": "string",
          "name": "definitiveSymbol",
          "type": "string"
        },
        {
          "internalType": "string",
          "name": "definitiveBaseURI",
          "type": "string"
        }
      ],
      "stateMutability": "nonpayable",
      "type": "constructor"
    },
    {
      "anonymous": false,
      "inputs": [
        {
          "indexed": true,
          "internalType": "address",
          "name": "owner",
          "type": "address"
        },
        {
          "indexed": true,
          "internalType": "address",
          "name": "approved",
          "type": "address"
        },
        {
          "indexed": true,
          "internalType": "uint256",
          "name": "tokenId",
          "type": "uint256"
        }
      ],
      "name": "Approval",
      "type": "event"
    },
    {
      "anonymous": false,
      "inputs": [
        {
          "indexed": true,
          "internalType": "address",
          "name": "owner",
          "type": "address"
        },
        {
          "indexed": true,
          "internalType": "address",
          "name": "operator",
          "type": "address"
        },
        {
          "indexed": false,
          "internalType": "bool",
          "name": "approved",
          "type": "bool"
        }
      ],
      "name": "ApprovalForAll",
      "type": "event"
    },
    {
      "anonymous": false,
      "inputs": [
        {
          "indexed": true,
          "internalType": "address",
          "name": "from",
          "type": "address"
        },
        {
          "indexed": true,
          "internalType": "address",
          "name": "to",
          "type": "address"
        }
      ],
      "name": "EventReception",
      "type": "event"
    },
    {
      "anonymous": false,
      "inputs": [
        {
          "indexed": true,
          "internalType": "address",
          "name": "previousOwner",
          "type": "address"
        },
        {
          "indexed": true,
          "internalType": "address",
          "name": "newOwner",
          "type": "address"
        }
      ],
      "name": "OwnershipTransferred",
      "type": "event"
    },
    {
      "anonymous": false,
      "inputs": [
        {
          "indexed": false,
          "internalType": "address",
          "name": "account",
          "type": "address"
        }
      ],
      "name": "Paused",
      "type": "event"
    },
    {
      "anonymous": false,
      "inputs": [
        {
          "indexed": true,
          "internalType": "address",
          "name": "from",
          "type": "address"
        },
        {
          "indexed": true,
          "internalType": "address",
          "name": "to",
          "type": "address"
        },
        {
          "indexed": true,
          "internalType": "uint256",
          "name": "tokenId",
          "type": "uint256"
        }
      ],
      "name": "Transfer",
      "type": "event"
    },
    {
      "anonymous": false,
      "inputs": [
        {
          "indexed": false,
          "internalType": "address",
          "name": "account",
          "type": "address"
        }
      ],
      "name": "Unpaused",
      "type": "event"
    },
    {
      "inputs": [],
      "name": "_addressContratMateriel",
      "outputs": [
        {
          "internalType": "address",
          "name": "",
          "type": "address"
        }
      ],
      "stateMutability": "view",
      "type": "function"
    },
    {
      "inputs": [],
      "name": "_addressContratRole",
      "outputs": [
        {
          "internalType": "address",
          "name": "",
          "type": "address"
        }
      ],
      "stateMutability": "view",
      "type": "function"
    },
    {
      "inputs": [
        {
          "internalType": "address",
          "name": "to",
          "type": "address"
        },
        {
          "internalType": "uint256",
          "name": "tokenId",
          "type": "uint256"
        }
      ],
      "name": "approve",
      "outputs": [],
      "stateMutability": "nonpayable",
      "type": "function"
    },
    {
      "inputs": [
        {
          "internalType": "address",
          "name": "owner",
          "type": "address"
        }
      ],
      "name": "balanceOf",
      "outputs": [
        {
          "internalType": "uint256",
          "name": "",
          "type": "uint256"
        }
      ],
      "stateMutability": "view",
      "type": "function"
    },
    {
      "inputs": [
        {
          "internalType": "address",
          "name": "client",
          "type": "address"
        },
        {
          "internalType": "uint256",
          "name": "itemId",
          "type": "uint256"
        }
      ],
      "name": "expedition",
      "outputs": [],
      "stateMutability": "nonpayable",
      "type": "function"
    },
    {
      "inputs": [
        {
          "internalType": "uint256",
          "name": "tokenId",
          "type": "uint256"
        }
      ],
      "name": "getApproved",
      "outputs": [
        {
          "internalType": "address",
          "name": "",
          "type": "address"
        }
      ],
      "stateMutability": "view",
      "type": "function"
    },
    {
      "inputs": [
        {
          "internalType": "address",
          "name": "owner",
          "type": "address"
        }
      ],
      "name": "getIdByOwner",
      "outputs": [
        {
          "internalType": "string[]",
          "name": "",
          "type": "string[]"
        }
      ],
      "stateMutability": "view",
      "type": "function"
    },
    {
      "inputs": [
        {
          "internalType": "address",
          "name": "client",
          "type": "address"
        }
      ],
      "name": "getJsonByClient",
      "outputs": [
        {
          "internalType": "string",
          "name": "",
          "type": "string"
        }
      ],
      "stateMutability": "view",
      "type": "function"
    },
    {
      "inputs": [
        {
          "internalType": "address",
          "name": "fournisseur",
          "type": "address"
        }
      ],
      "name": "getJsonByFournisseur",
      "outputs": [
        {
          "internalType": "string",
          "name": "",
          "type": "string"
        }
      ],
      "stateMutability": "view",
      "type": "function"
    },
    {
      "inputs": [],
      "name": "getJsonCommandes",
      "outputs": [
        {
          "internalType": "string",
          "name": "",
          "type": "string"
        }
      ],
      "stateMutability": "view",
      "type": "function"
    },
    {
      "inputs": [
        {
          "internalType": "address",
          "name": "owner",
          "type": "address"
        }
      ],
      "name": "getJsonMyMateriels",
      "outputs": [
        {
          "internalType": "string",
          "name": "",
          "type": "string"
        }
      ],
      "stateMutability": "view",
      "type": "function"
    },
    {
      "inputs": [
        {
          "internalType": "address",
          "name": "owner",
          "type": "address"
        },
        {
          "internalType": "address",
          "name": "operator",
          "type": "address"
        }
      ],
      "name": "isApprovedForAll",
      "outputs": [
        {
          "internalType": "bool",
          "name": "",
          "type": "bool"
        }
      ],
      "stateMutability": "view",
      "type": "function"
    },
    {
      "inputs": [],
      "name": "name",
      "outputs": [
        {
          "internalType": "string",
          "name": "",
          "type": "string"
        }
      ],
      "stateMutability": "view",
      "type": "function"
    },
    {
      "inputs": [],
      "name": "owner",
      "outputs": [
        {
          "internalType": "address",
          "name": "",
          "type": "address"
        }
      ],
      "stateMutability": "view",
      "type": "function"
    },
    {
      "inputs": [
        {
          "internalType": "uint256",
          "name": "tokenId",
          "type": "uint256"
        }
      ],
      "name": "ownerOf",
      "outputs": [
        {
          "internalType": "address",
          "name": "",
          "type": "address"
        }
      ],
      "stateMutability": "view",
      "type": "function"
    },
    {
      "inputs": [],
      "name": "pause",
      "outputs": [],
      "stateMutability": "nonpayable",
      "type": "function"
    },
    {
      "inputs": [],
      "name": "paused",
      "outputs": [
        {
          "internalType": "bool",
          "name": "",
          "type": "bool"
        }
      ],
      "stateMutability": "view",
      "type": "function"
    },
    {
      "inputs": [
        {
          "internalType": "uint256",
          "name": "itemId",
          "type": "uint256"
        },
        {
          "internalType": "uint256",
          "name": "workflowState",
          "type": "uint256"
        }
      ],
      "name": "reception",
      "outputs": [],
      "stateMutability": "nonpayable",
      "type": "function"
    },
    {
      "inputs": [],
      "name": "renounceOwnership",
      "outputs": [],
      "stateMutability": "nonpayable",
      "type": "function"
    },
    {
      "inputs": [
        {
          "internalType": "address",
          "name": "from",
          "type": "address"
        },
        {
          "internalType": "address",
          "name": "to",
          "type": "address"
        },
        {
          "internalType": "uint256",
          "name": "tokenId",
          "type": "uint256"
        }
      ],
      "name": "safeTransferFrom",
      "outputs": [],
      "stateMutability": "nonpayable",
      "type": "function"
    },
    {
      "inputs": [
        {
          "internalType": "address",
          "name": "from",
          "type": "address"
        },
        {
          "internalType": "address",
          "name": "to",
          "type": "address"
        },
        {
          "internalType": "uint256",
          "name": "tokenId",
          "type": "uint256"
        },
        {
          "internalType": "bytes",
          "name": "data",
          "type": "bytes"
        }
      ],
      "name": "safeTransferFrom",
      "outputs": [],
      "stateMutability": "nonpayable",
      "type": "function"
    },
    {
      "inputs": [
        {
          "internalType": "address",
          "name": "addressContratMateriel",
          "type": "address"
        }
      ],
      "name": "setAddressContratMateriel",
      "outputs": [],
      "stateMutability": "nonpayable",
      "type": "function"
    },
    {
      "inputs": [
        {
          "internalType": "address",
          "name": "addressContratRole",
          "type": "address"
        }
      ],
      "name": "setAddressContratRole",
      "outputs": [],
      "stateMutability": "nonpayable",
      "type": "function"
    },
    {
      "inputs": [
        {
          "internalType": "address",
          "name": "operator",
          "type": "address"
        },
        {
          "internalType": "bool",
          "name": "approved",
          "type": "bool"
        }
      ],
      "name": "setApprovalForAll",
      "outputs": [],
      "stateMutability": "nonpayable",
      "type": "function"
    },
    {
      "inputs": [
        {
          "internalType": "bytes4",
          "name": "interfaceId",
          "type": "bytes4"
        }
      ],
      "name": "supportsInterface",
      "outputs": [
        {
          "internalType": "bool",
          "name": "",
          "type": "bool"
        }
      ],
      "stateMutability": "view",
      "type": "function"
    },
    {
      "inputs": [],
      "name": "symbol",
      "outputs": [
        {
          "internalType": "string",
          "name": "",
          "type": "string"
        }
      ],
      "stateMutability": "view",
      "type": "function"
    },
    {
      "inputs": [
        {
          "internalType": "uint256",
          "name": "tokenId",
          "type": "uint256"
        }
      ],
      "name": "tokenURI",
      "outputs": [
        {
          "internalType": "string",
          "name": "",
          "type": "string"
        }
      ],
      "stateMutability": "view",
      "type": "function"
    },
    {
      "inputs": [
        {
          "internalType": "uint256",
          "name": "idMateriel",
          "type": "uint256"
        },
        {
          "internalType": "string",
          "name": "uri",
          "type": "string"
        },
        {
          "internalType": "string",
          "name": "urlImage",
          "type": "string"
        },
        {
          "internalType": "string",
          "name": "referenceMateriel",
          "type": "string"
        }
      ],
      "name": "tokenisation",
      "outputs": [],
      "stateMutability": "nonpayable",
      "type": "function"
    },
    {
      "inputs": [
        {
          "internalType": "address",
          "name": "from",
          "type": "address"
        },
        {
          "internalType": "address",
          "name": "to",
          "type": "address"
        },
        {
          "internalType": "uint256",
          "name": "tokenId",
          "type": "uint256"
        }
      ],
      "name": "transferFrom",
      "outputs": [],
      "stateMutability": "nonpayable",
      "type": "function"
    },
    {
      "inputs": [
        {
          "internalType": "address",
          "name": "newOwner",
          "type": "address"
        }
      ],
      "name": "transferOwnership",
      "outputs": [],
      "stateMutability": "nonpayable",
      "type": "function"
    },
    {
      "inputs": [],
      "name": "unpause",
      "outputs": [],
      "stateMutability": "nonpayable",
      "type": "function"
    }
  ],
  "bytecode": "0x60806040523480156200001157600080fd5b5060405162003f8438038062003f848339810160408190526200003491620002d7565b8251839083906200004d906000906020850190620000f4565b50805162000063906001906020840190620000f4565b50506007805460ff19169055506200007b336200009a565b805162000090906009906020840190620000f4565b50505050620003cd565b600780546001600160a01b03838116610100818102610100600160a81b031985161790945560405193909204169182907f8be0079c531659141344cd1fd0a4f28419497f9722a3daafe3b4186f6b6457e090600090a35050565b82805462000102906200039c565b90600052602060002090601f01602090048101928262000126576000855562000171565b82601f106200014157805160ff191683800117855562000171565b8280016001018555821562000171579182015b828111156200017157825182559160200191906001019062000154565b506200017f92915062000183565b5090565b5b808211156200017f576000815560010162000184565b634e487b7160e01b600052604160045260246000fd5b601f19601f83011681016001600160401b0381118282101715620001d857620001d86200019a565b6040525050565b6000620001eb60405190565b9050620001f98282620001b0565b919050565b60006001600160401b038211156200021a576200021a6200019a565b601f19601f83011660200192915050565b60005b83811015620002485781810151838201526020016200022e565b8381111562000258576000848401525b50505050565b6000620002756200026f84620001fe565b620001df565b905082815260208101848484011115620002925762000292600080fd5b6200029f8482856200022b565b509392505050565b600082601f830112620002bd57620002bd600080fd5b8151620002cf8482602086016200025e565b949350505050565b600080600060608486031215620002f157620002f1600080fd5b83516001600160401b038111156200030c576200030c600080fd5b6200031a86828701620002a7565b602086015190945090506001600160401b038111156200033d576200033d600080fd5b6200034b86828701620002a7565b604086015190935090506001600160401b038111156200036e576200036e600080fd5b6200037c86828701620002a7565b9150509250925092565b634e487b7160e01b600052602260045260246000fd5b600281046001821680620003b157607f821691505b60208210811415620003c757620003c762000386565b50919050565b613ba780620003dd6000396000f3fe608060405234801561001057600080fd5b50600436106101955760003560e01c806370a08231116100ef578063a22cb46511610092578063a22cb46514610346578063b3a46b9314610359578063b88d4fde1461036c578063bcc68b2b1461037f578063c87b56dd14610392578063e985e9c5146103a5578063f2fde38b146103b8578063f3ee11a2146103cb57600080fd5b806370a08231146102cd578063715018a6146102ed5780638307df12146102f55780638456cb59146103085780638da5cb5b1461031057806395d89b41146103185780639bad155e146103205780639f32d1a51461033357600080fd5b806301ffc9a71461019a57806306fdde03146101c3578063081812fc146101d8578063095ea7b3146101f85780630dc05e591461020d57806310b506261461022057806323b872dd146102405780633f4ba83a1461025357806342842e0e1461025b5780634fb75e4f1461026e5780635b06d203146102765780635c975abb146102895780636077e144146102945780636352211e146102a75780636d5128d7146102ba575b600080fd5b6101ad6101a8366004612a17565b6103de565b6040516101ba9190612a42565b60405180910390f35b6101cb610430565b6040516101ba9190612aba565b6101eb6101e6366004612adc565b6104c2565b6040516101ba9190612b17565b61020b610206366004612b39565b6104e9565b005b61020b61021b366004612b76565b610578565b61023361022e366004612b98565b6106d8565b6040516101ba9190612c2f565b61020b61024e366004612c40565b6107e7565b61020b610818565b61020b610269366004612c40565b61082a565b6101cb610845565b6101cb610284366004612b98565b61090a565b60075460ff166101ad565b600b546101eb906001600160a01b031681565b6101eb6102b5366004612adc565b6109f7565b61020b6102c8366004612b98565b610a2b565b6102e06102db366004612b98565b610a55565b6040516101ba9190612c96565b61020b610a99565b61020b610303366004612b98565b610aab565b61020b610ad5565b6101eb610ae5565b6101cb610af9565b61020b61032e366004612d97565b610b08565b6101cb610341366004612b98565b610c7b565b61020b610354366004612e5c565b61104d565b61020b610367366004612b39565b611058565b61020b61037a366004612e8f565b61114e565b600a546101eb906001600160a01b031681565b6101cb6103a0366004612adc565b611186565b6101ad6103b3366004612ed6565b61128a565b61020b6103c6366004612b98565b6112b8565b6101cb6103d9366004612b98565b6112f2565b60006001600160e01b031982166380ac58cd60e01b148061040f57506001600160e01b03198216635b5e139f60e01b145b8061042a57506301ffc9a760e01b6001600160e01b03198316145b92915050565b60606000805461043f90612f1f565b80601f016020809104026020016040519081016040528092919081815260200182805461046b90612f1f565b80156104b85780601f1061048d576101008083540402835291602001916104b8565b820191906000526020600020905b81548152906001019060200180831161049b57829003601f168201915b5050505050905090565b60006104cd826116a5565b506000908152600460205260409020546001600160a01b031690565b60006104f4826109f7565b9050806001600160a01b0316836001600160a01b031614156105315760405162461bcd60e51b815260040161052890612f84565b60405180910390fd5b336001600160a01b038216148061054d575061054d813361128a565b6105695760405162461bcd60e51b815260040161052890612fec565b61057383836116ca565b505050565b61059b604051806060016040528060248152602001613af7602491398383611738565b6000828152600c60205260409020600101546001600160a01b031633146105d45760405162461bcd60e51b815260040161052890613022565b8015806105e15750806001145b806105ec5750806002145b6106085760405162461bcd60e51b81526004016105289061305f565b80610675576000828152600c6020526040902060078101805460ff19166002179055426006820155805460019091015461064f916001600160a01b039081169116846107e7565b6000828152600c6020526040902054610671906001600160a01b0316836104e9565b5050565b806001141561069d57506000908152600c60205260409020600701805460ff19166003179055565b6000828152600c6020526040902060078101805460ff1916600417905560018101549054610671916001600160a01b039081169116846107e7565b606061071360405180604001604052806017815260200176676574496442794f776e6572206164647265737320257360481b8152508361177f565b60008061071f846117c4565b6001600160401b0381111561073657610736612ca4565b60405190808252806020026020018201604052801561076957816020015b60608152602001906001900390816107545790505b50905060005b6008548110156107df57846001600160a01b031661078c826109f7565b6001600160a01b031614156107cd576107a481611853565b82846107af8161309b565b9550815181106107c1576107c16130b6565b60200260200101819052505b806107d78161309b565b91505061076f565b509392505050565b6107f133826118e7565b61080d5760405162461bcd60e51b815260040161052890613114565b610573838383611945565b610820611a7a565b610828611aa9565b565b6105738383836040518060200160405280600081525061114e565b6040805180820190915260018152605b60f81b60208201526060906000805b6008548160ff1610156108b5578261087c8383611af5565b60405160200161088d929190613146565b60405160208183030381529060405292506001915080806108ad9061315c565b915050610864565b50816040516020016108c79190613175565b60408051601f19818403018152828201909152601182527002539b7b721b7b6b6b0b73232b99012b99607d1b602083015292506109049083611f1b565b50919050565b6040805180820190915260018152605b60f81b60208201526060906000805b6008548160ff16101561099f57846001600160a01b031661094c8260ff166109f7565b6001600160a01b0316141561098d57826109668383611af5565b604051602001610977929190613146565b6040516020818303038152906040529250600191505b806109978161315c565b915050610929565b50816040516020016109b19190613175565b60408051601f19818403018152828201909152601382527203539b7b726bca6b0ba32b934b2b6399012b99606d1b602083015292506109f09083611f1b565b5092915050565b600080610a0383611f60565b90506001600160a01b03811661042a5760405162461bcd60e51b8152600401610528906131bc565b610a33611a7a565b600b80546001600160a01b0319166001600160a01b0392909216919091179055565b60006001600160a01b038216610a7d5760405162461bcd60e51b815260040161052890613210565b506001600160a01b031660009081526003602052604090205490565b610aa1611a7a565b6108286000611f7b565b610ab3611a7a565b600a80546001600160a01b0319166001600160a01b0392909216919091179055565b610add611a7a565b610828611fd5565b60075461010090046001600160a01b031690565b60606001805461043f90612f1f565b610b2c604051806060016040528060368152602001613b3c60369139858584612012565b6000610b3760085490565b9050610b43338261205b565b610b4d8185612075565b604051806101000160405280336001600160a01b0316815260200160006001600160a01b03168152602001868152602001838152602001848152602001600081526020016000815260200160006004811115610bab57610bab61306f565b90526000828152600c6020908152604091829020835181546001600160a01b039182166001600160a01b03199182161783558584015160018401805491909316911617905591830151600283015560608301518051610c10926003850192019061295c565b5060808201518051610c2c91600484019160209091019061295c565b5060a0820151600582015560c0820151600682015560e082015160078201805460ff19166001836004811115610c6457610c6461306f565b021790555050600880546001019055505050505050565b6060610cbc6040518060400160405280601d81526020017f67657449644279466f75726e69737365757220616464726573732025730000008152508361177f565b60408051808201825260018152605b60f81b602080830191909152825190810190925260008083529091815b600854811015610ff5576000818152600c6020908152604080832081516101008101835281546001600160a01b03908116825260018301541693810193909352600281015491830191909152600381018054606084019190610d4990612f1f565b80601f0160208091040260200160405190810160405280929190818152602001828054610d7590612f1f565b8015610dc25780601f10610d9757610100808354040283529160200191610dc2565b820191906000526020600020905b815481529060010190602001808311610da557829003601f168201915b50505050508152602001600482018054610ddb90612f1f565b80601f0160208091040260200160405190810160405280929190818152602001828054610e0790612f1f565b8015610e545780601f10610e2957610100808354040283529160200191610e54565b820191906000526020600020905b815481529060010190602001808311610e3757829003601f168201915b50505091835250506005820154602082015260068201546040820152600782015460609091019060ff166004811115610e8f57610e8f61306f565b6004811115610ea057610ea061306f565b815250509050866001600160a01b031681600001516001600160a01b0316148015610ee1575060028160e001516004811115610ede57610ede61306f565b14155b15610fe2578315610f0957604051806040016040528060018152602001600b60fa1b81525092505b600b54604080830151905163a80f602d60e01b81526000926001600160a01b03169163a80f602d91610f3e9190600401612c96565b600060405180830381865afa158015610f5b573d6000803e3d6000fd5b505050506040513d6000823e601f3d908101601f19168201604052610f839190810190613278565b9050610fa7604051806060016040528060218152602001613b1b6021913982611f1b565b8584610fb285611853565b6060850151604051610fcb9493929186916020016132f1565b604051602081830303815290604052955060019450505b5080610fed8161309b565b915050610ce8565b50826040516020016110079190613175565b60408051601f19818403018152828201909152601182527002539b7b721b7b6b6b0b73232b99012b99607d1b602083015293506110449084611f1b565b50909392505050565b6106713383836120b9565b6110986040518060400160405280601f81526020017f65787065646974696f6e2061646472657373202573206974656d496420257300815250838361215c565b6001600160a01b0382166110be5760405162461bcd60e51b8152600401610528906133a6565b6000818152600c60205260409020546001600160a01b031633146110f45760405162461bcd60e51b8152600401610528906133e1565b6110fe82826104e9565b6000818152600c602052604081204260058201556006810191909155600180820180546001600160a01b0319166001600160a01b0386161790556007909101805460ff1916828002179055505050565b61115833836118e7565b6111745760405162461bcd60e51b815260040161052890613114565b611180848484846121a3565b50505050565b6060611191826116a5565b600082815260066020526040812080546111aa90612f1f565b80601f01602080910402602001604051908101604052809291908181526020018280546111d690612f1f565b80156112235780601f106111f857610100808354040283529160200191611223565b820191906000526020600020905b81548152906001019060200180831161120657829003601f168201915b5050505050905060006112346121d6565b9050805160001415611247575092915050565b815115611279578082604051602001611261929190613146565b60405160208183030381529060405292505050919050565b611282846121e5565b949350505050565b6001600160a01b03918216600090815260056020908152604080832093909416825291909152205460ff1690565b6112c0611a7a565b6001600160a01b0381166112e65760405162461bcd60e51b815260040161052890613432565b6112ef81611f7b565b50565b60606113306040518060400160405280601a8152602001796765744a736f6e4279436c69656e74206164647265737320257360301b8152508361177f565b60408051808201825260018152605b60f81b602080830191909152825190810190925260008083529091815b600854811015610ff5576000818152600c6020908152604080832081516101008101835281546001600160a01b039081168252600183015416938101939093526002810154918301919091526003810180546060840191906113bd90612f1f565b80601f01602080910402602001604051908101604052809291908181526020018280546113e990612f1f565b80156114365780601f1061140b57610100808354040283529160200191611436565b820191906000526020600020905b81548152906001019060200180831161141957829003601f168201915b5050505050815260200160048201805461144f90612f1f565b80601f016020809104026020016040519081016040528092919081815260200182805461147b90612f1f565b80156114c85780601f1061149d576101008083540402835291602001916114c8565b820191906000526020600020905b8154815290600101906020018083116114ab57829003601f168201915b50505091835250506005820154602082015260068201546040820152600782015460609091019060ff1660048111156115035761150361306f565b60048111156115145761151461306f565b8152505090506115566040518060400160405280601a8152602001796765744a736f6e4279436c69656e74206164647265737320257360301b8152508861177f565b866001600160a01b031681602001516001600160a01b0316148015611591575060038160e00151600481111561158e5761158e61306f565b14155b80156115b3575060048160e0015160048111156115b0576115b061306f565b14155b156116925783156115db57604051806040016040528060018152602001600b60fa1b81525092505b600b54604080830151905163a80f602d60e01b81526000926001600160a01b03169163a80f602d916116109190600401612c96565b600060405180830381865afa15801561162d573d6000803e3d6000fd5b505050506040513d6000823e601f3d908101601f191682016040526116559190810190613278565b9050858461166285611853565b606085015160405161167b9493929186916020016132f1565b604051602081830303815290604052955060019450505b508061169d8161309b565b91505061135c565b6116ae8161224c565b6112ef5760405162461bcd60e51b8152600401610528906131bc565b600081815260046020526040902080546001600160a01b0319166001600160a01b03841690811790915581906116ff826109f7565b6001600160a01b03167f8c5be1e5ebec7d5bd14f71427d1e84f3dd0314c0f7b2291e5b200ac8c7c3b92560405160405180910390a45050565b61057383838360405160240161175093929190613442565b60408051601f198184030181529190526020810180516001600160e01b031663ca47c4eb60e01b179052612269565b610671828260405160240161179592919061346f565b60408051601f198184030181529190526020810180516001600160e01b031663319af33360e01b179052612269565b600080805b60085481101561181557836001600160a01b03166117e6826109f7565b6001600160a01b0316141561180357816117ff8161309b565b9250505b8061180d8161309b565b9150506117c9565b5061042a6040518060400160405280601b81526020017a67657453697a6542794f776e6572206974656d436f756e7420257360281b8152508261228a565b60606000611860836122cf565b60010190506000816001600160401b0381111561187f5761187f612ca4565b6040519080825280601f01601f1916602001820160405280156118a9576020820181803683370190505b5090508181016020015b600019016f181899199a1a9b1b9c1cb0b131b232b360811b600a86061a8153600a85049450846118e2576107df565b6118b3565b6000806118f3836109f7565b9050806001600160a01b0316846001600160a01b0316148061191a575061191a818561128a565b806112825750836001600160a01b0316611933846104c2565b6001600160a01b031614949350505050565b826001600160a01b0316611958826109f7565b6001600160a01b03161461197e5760405162461bcd60e51b8152600401610528906134cf565b6001600160a01b0382166119a45760405162461bcd60e51b81526004016105289061351e565b6119b183838360016123a5565b826001600160a01b03166119c4826109f7565b6001600160a01b0316146119ea5760405162461bcd60e51b8152600401610528906134cf565b600081815260046020908152604080832080546001600160a01b03199081169091556001600160a01b0387811680865260038552838620805460001901905590871680865283862080546001019055868652600290945282852080549092168417909155905184937fddf252ad1be2c89b69c2b068fc378daa952ba7f163c4a11628f55a4df523b3ef91a4505050565b33611a83610ae5565b6001600160a01b0316146108285760405162461bcd60e51b81526004016105289061355e565b611ab161242d565b6007805460ff191690557f5db9ee0a495bf2e6ff9c91a7834c1ba4fdd244a5e8aa4e537bd38aeae4b073aa335b604051611aeb9190612b17565b60405180910390a1565b6040805160208082018352600080835260ff85168152600c825283812084516101008101865281546001600160a01b039081168252600183015416938101939093526002810154948301949094526003840180546060959293929183870191611b5d90612f1f565b80601f0160208091040260200160405190810160405280929190818152602001828054611b8990612f1f565b8015611bd65780601f10611bab57610100808354040283529160200191611bd6565b820191906000526020600020905b815481529060010190602001808311611bb957829003601f168201915b50505050508152602001600482018054611bef90612f1f565b80601f0160208091040260200160405190810160405280929190818152602001828054611c1b90612f1f565b8015611c685780601f10611c3d57610100808354040283529160200191611c68565b820191906000526020600020905b815481529060010190602001808311611c4b57829003601f168201915b50505091835250506005820154602082015260068201546040820152600782015460609091019060ff166004811115611ca357611ca361306f565b6004811115611cb457611cb461306f565b90525090506000611cc760ff8616611186565b600a546020840151604051632163b10160e01b81529293506000926001600160a01b0390921691632163b10191611d0091600401612b17565b600060405180830381865afa158015611d1d573d6000803e3d6000fd5b505050506040513d6000823e601f3d908101601f19168201604052611d459190810190613278565b600a54845160405163e2339ba360e01b81529293506000926001600160a01b039092169163e2339ba391611d7b91600401612b17565b600060405180830381865afa158015611d98573d6000803e3d6000fd5b505050506040513d6000823e601f3d908101601f19168201604052611dc09190810190613278565b600b54604080870151905163a80f602d60e01b81529293506000926001600160a01b039092169163a80f602d91611df991600401612c96565b600060405180830381865afa158015611e16573d6000803e3d6000fd5b505050506040513d6000823e601f3d908101601f19168201604052611e3e9190810190613278565b90508815611e6357604051806040016040528060018152602001600b60fa1b81525095505b600086611e728a60ff16611853565b86611e80896000015161244f565b86611e8e8b6020015161244f565b60608c015160808d0151604051611eb1989796959493928d928c9260200161356e565b604051602081830303815290604052905080611ed08760a00151611853565b611edd8860c00151611853565b611eea8960e00151612465565b604051602001611efd94939291906136bd565b60408051808303601f190181529190529a9950505050505050505050565b6106718282604051602401611f31929190613752565b60408051601f198184030181529190526020810180516001600160e01b0316634b5c427760e01b179052612269565b6000908152600260205260409020546001600160a01b031690565b600780546001600160a01b03838116610100818102610100600160a81b031985161790945560405193909204169182907f8be0079c531659141344cd1fd0a4f28419497f9722a3daafe3b4186f6b6457e090600090a35050565b611fdd6125b2565b6007805460ff191660011790557f62e78cea01bee320cd4e420270b5ea74000d11b0c9f74754ebdbfc544b05a258611ade3390565b6111808484848460405160240161202c9493929190613777565b60408051601f198184030181529190526020810180516001600160e01b0316635ab84e1f60e01b179052612269565b6106718282604051806020016040528060008152506125d5565b61207e8261224c565b61209a5760405162461bcd60e51b815260040161052890613810565b600082815260066020908152604090912082516105739284019061295c565b816001600160a01b0316836001600160a01b031614156120eb5760405162461bcd60e51b81526004016105289061384e565b6001600160a01b0383811660008181526005602090815260408083209487168084529490915290819020805460ff1916851515179055517f17307eab39ab6107e8899845ad3d59bd9653f200f220920489ca2b5937696c319061214f908590612a42565b60405180910390a3505050565b6105738383836040516024016121749392919061385e565b60408051601f198184030181529190526020810180516001600160e01b0316630d26b92560e01b179052612269565b6121ae848484611945565b6121ba84848484612608565b6111805760405162461bcd60e51b8152600401610528906138cb565b60606009805461043f90612f1f565b60606121f0826116a5565b60006121fa6121d6565b9050600081511161221a5760405180602001604052806000815250612245565b8061222484611853565b604051602001612235929190613146565b6040516020818303038152906040525b9392505050565b60008061225883611f60565b6001600160a01b0316141592915050565b80516a636f6e736f6c652e6c6f67602083016000808483855afa5050505050565b61067182826040516024016122a09291906138db565b60408051601f198184030181529190526020810180516001600160e01b0316632d839cb360e21b179052612269565b60008072184f03e93ff9f4daa797ed6e38ed64bf6a1f0160401b831061230e5772184f03e93ff9f4daa797ed6e38ed64bf6a1f0160401b830492506040015b6904ee2d6d415b85acef8160201b8310612338576904ee2d6d415b85acef8160201b830492506020015b662386f26fc10000831061235657662386f26fc10000830492506010015b6305f5e100831061236e576305f5e100830492506008015b612710831061238257612710830492506004015b60648310612394576064830492506002015b600a831061042a5760010192915050565b6001811115611180576001600160a01b038416156123eb576001600160a01b038416600090815260036020526040812080548392906123e59084906138fb565b90915550505b6001600160a01b03831615611180576001600160a01b03831660009081526003602052604081208054839290612422908490613912565b909155505050505050565b60075460ff166108285760405162461bcd60e51b815260040161052890613953565b606061042a6001600160a01b0383166014612706565b60608160048111156124795761247961306f565b6124a157505060408051808201909152600881526721b932b0ba34b7b760c11b602082015290565b8160048111156124b3576124b361306f565b600114156124e157505060408051808201909152600a81526922bc3832b234ba34b7b760b11b602082015290565b8160048111156124f3576124f361306f565b600214156125205750506040805180820190915260098152682932b1b2b83a34b7b760b91b602082015290565b8160048111156125325761253261306f565b6003141561256057505060408051808201909152600a81526920b7373ab630ba34b7b760b11b602082015290565b8160048111156125725761257261306f565b6004141561259e5750506040805180820190915260088152672932b73b37bcb2b960c11b602082015290565b505060408051602081019091526000815290565b60075460ff16156108285760405162461bcd60e51b815260040161052890613988565b6125df8383612871565b6125ec6000848484612608565b6105735760405162461bcd60e51b8152600401610528906138cb565b60006001600160a01b0384163b156126fb57604051630a85bd0160e11b81526001600160a01b0385169063150b7a029061264c903390899088908890600401613998565b6020604051808303816000875af1925050508015612687575060408051601f3d908101601f19168201909252612684918101906139dd565b60015b6126e1573d8080156126b5576040519150601f19603f3d011682016040523d82523d6000602084013e6126ba565b606091505b5080516126d95760405162461bcd60e51b8152600401610528906138cb565b805181602001fd5b6001600160e01b031916630a85bd0160e11b149050611282565b506001949350505050565b606060006127158360026139fe565b612720906002613912565b6001600160401b0381111561273757612737612ca4565b6040519080825280601f01601f191660200182016040528015612761576020820181803683370190505b509050600360fc1b8160008151811061277c5761277c6130b6565b60200101906001600160f81b031916908160001a905350600f60fb1b816001815181106127ab576127ab6130b6565b60200101906001600160f81b031916908160001a90535060006127cf8460026139fe565b6127da906001613912565b90505b6001811115612852576f181899199a1a9b1b9c1cb0b131b232b360811b85600f166010811061280e5761280e6130b6565b1a60f81b828281518110612824576128246130b6565b60200101906001600160f81b031916908160001a90535060049490941c9361284b81613a1d565b90506127dd565b5083156122455760405162461bcd60e51b815260040161052890613a64565b6001600160a01b0382166128975760405162461bcd60e51b815260040161052890613aa4565b6128a08161224c565b156128bd5760405162461bcd60e51b815260040161052890613ae6565b6128cb6000838360016123a5565b6128d48161224c565b156128f15760405162461bcd60e51b815260040161052890613ae6565b6001600160a01b038216600081815260036020908152604080832080546001019055848352600290915280822080546001600160a01b0319168417905551839291907fddf252ad1be2c89b69c2b068fc378daa952ba7f163c4a11628f55a4df523b3ef908290a45050565b82805461296890612f1f565b90600052602060002090601f01602090048101928261298a57600085556129d0565b82601f106129a357805160ff19168380011785556129d0565b828001600101855582156129d0579182015b828111156129d05782518255916020019190600101906129b5565b506129dc9291506129e0565b5090565b5b808211156129dc57600081556001016129e1565b6001600160e01b031981165b81146112ef57600080fd5b803561042a816129f5565b600060208284031215612a2c57612a2c600080fd5b60006112828484612a0c565b8015155b82525050565b6020810161042a8284612a38565b60005b83811015612a6b578181015183820152602001612a53565b838111156111805750506000910152565b601f01601f191690565b6000612a90825190565b808452602084019350612aa7818560208601612a50565b612ab081612a7c565b9093019392505050565b602080825281016122458184612a86565b80612a01565b803561042a81612acb565b600060208284031215612af157612af1600080fd5b60006112828484612ad1565b60006001600160a01b03821661042a565b612a3c81612afd565b6020810161042a8284612b0e565b612a0181612afd565b803561042a81612b25565b60008060408385031215612b4f57612b4f600080fd5b6000612b5b8585612b2e565b9250506020612b6c85828601612ad1565b9150509250929050565b60008060408385031215612b8c57612b8c600080fd5b6000612b5b8585612ad1565b600060208284031215612bad57612bad600080fd5b60006112828484612b2e565b60006122458383612a86565b60200190565b6000612bd5825190565b80845260208401935083602082028501612bef8560200190565b60005b84811015612c235783830388528151612c0b8482612bb9565b93505060208201602098909801979150600101612bf2565b50909695505050505050565b602080825281016122458184612bcb565b600080600060608486031215612c5857612c58600080fd5b6000612c648686612b2e565b9350506020612c7586828701612b2e565b9250506040612c8686828701612ad1565b9150509250925092565b80612a3c565b6020810161042a8284612c90565b634e487b7160e01b600052604160045260246000fd5b612cc382612a7c565b81018181106001600160401b0382111715612ce057612ce0612ca4565b6040525050565b6000612cf260405190565b9050612cfe8282612cba565b919050565b60006001600160401b03821115612d1c57612d1c612ca4565b612d2582612a7c565b60200192915050565b82818337506000910152565b6000612d4d612d4884612d03565b612ce7565b905082815260208101848484011115612d6857612d68600080fd5b6107df848285612d2e565b600082601f830112612d8757612d87600080fd5b8135611282848260208601612d3a565b60008060008060808587031215612db057612db0600080fd5b6000612dbc8787612ad1565b94505060208501356001600160401b03811115612ddb57612ddb600080fd5b612de787828801612d73565b93505060408501356001600160401b03811115612e0657612e06600080fd5b612e1287828801612d73565b92505060608501356001600160401b03811115612e3157612e31600080fd5b612e3d87828801612d73565b91505092959194509250565b801515612a01565b803561042a81612e49565b60008060408385031215612e7257612e72600080fd5b6000612e7e8585612b2e565b9250506020612b6c85828601612e51565b60008060008060808587031215612ea857612ea8600080fd5b6000612eb48787612b2e565b9450506020612ec587828801612b2e565b9350506040612e1287828801612ad1565b60008060408385031215612eec57612eec600080fd5b6000612ef88585612b2e565b9250506020612b6c85828601612b2e565b634e487b7160e01b600052602260045260246000fd5b600281046001821680612f3357607f821691505b6020821081141561090457610904612f09565b60218152602081017f4552433732313a20617070726f76616c20746f2063757272656e74206f776e658152603960f91b602082015290505b60400190565b6020808252810161042a81612f46565b603d8152602081017f4552433732313a20617070726f76652063616c6c6572206973206e6f7420746f81527f6b656e206f776e6572206f7220617070726f76656420666f7220616c6c00000060208201529050612f7e565b6020808252810161042a81612f94565b60118152602081017014185cc81b1948189bdb8818db1a595b9d607a1b81529050612bc5565b6020808252810161042a81612ffc565b601881526020810177776f726b666c6f775374617465206e6f742076616c69646560401b81529050612bc5565b6020808252810161042a81613032565b634e487b7160e01b600052602160045260246000fd5b634e487b7160e01b600052601160045260246000fd5b60006000198214156130af576130af613085565b5060010190565b634e487b7160e01b600052603260045260246000fd5b602d8152602081017f4552433732313a2063616c6c6572206973206e6f7420746f6b656e206f776e6581526c1c881bdc88185c1c1c9bdd9959609a1b60208201529050612f7e565b6020808252810161042a816130cc565b600061312e825190565b61313c818560208601612a50565b9290920192915050565b6131508184613124565b90506122458183613124565b60ff81169050600060ff8214156130af576130af613085565b61317f8183613124565b605d60f81b815260010192915050565b601881526020810177115490cdcc8c4e881a5b9d985b1a59081d1bdad95b88125160421b81529050612bc5565b6020808252810161042a8161318f565b60298152602081017f4552433732313a2061646472657373207a65726f206973206e6f7420612076618152683634b21037bbb732b960b91b60208201529050612f7e565b6020808252810161042a816131cc565b600061322e612d4884612d03565b90508281526020810184848401111561324957613249600080fd5b6107df848285612a50565b600082601f83011261326857613268600080fd5b8151611282848260208601613220565b60006020828403121561328d5761328d600080fd5b81516001600160401b038111156132a6576132a6600080fd5b61128284828501613254565b607b60f81b9052565b641134b2111d60d91b9052565b761116113932b332b932b731b2a6b0ba32b934b2b6111d1160491b9052565b61227d60f01b9052565b6132fb8187613124565b90506133078186613124565b9050613312816132b2565b60010161331e816132bb565b60050161332b8185613124565b6f16113737b6a6b0ba32b934b2b6111d1160811b815290506010016133508184613124565b905061335b816132c8565b6017016133688183613124565b9050613373816132e7565b60020195945050505050565b60128152602081017141646472657373206e6f742076616c69646560701b81529050612bc5565b6020808252810161042a8161337f565b6016815260208101752830b9903632903137b7103337bab93734b9b9b2bab960511b81529050612bc5565b6020808252810161042a816133b6565b60268152602081017f4f776e61626c653a206e6577206f776e657220697320746865207a65726f206181526564647265737360d01b60208201529050612f7e565b6020808252810161042a816133f1565b606080825281016134538186612a86565b90506134626020830185612c90565b6112826040830184612c90565b604080825281016134808185612a86565b90506122456020830184612b0e565b60258152602081017f4552433732313a207472616e736665722066726f6d20696e636f72726563742081526437bbb732b960d91b60208201529050612f7e565b6020808252810161042a8161348f565b60248152602081017f4552433732313a207472616e7366657220746f20746865207a65726f206164648152637265737360e01b60208201529050612f7e565b6020808252810161042a816134df565b60208082527f4f776e61626c653a2063616c6c6572206973206e6f7420746865206f776e65729101908152612bc5565b6020808252810161042a8161352e565b613578818c613124565b9050613583816132b2565b60010161358f816132bb565b60050161359c818b613124565b6716113ab934911d1160c11b815290506008016135b9818a613124565b701116113337bab93734b9b9b2bab9111d1160791b815290506011016135df8189613124565b731116113737b6a337bab93734b9b9b2bab9111d1160611b815290506014016136088188613124565b6b11161131b634b2b73a111d1160a11b81529050600c016136298187613124565b6e1116113737b6a1b634b2b73a111d1160891b81529050600f0161364d8186613124565b701116113737b6a6b0ba32b934b2b6111d1160791b815290506011016136738185613124565b905061367e816132c8565b60170161368b8184613124565b6d1116113ab93624b6b0b3b2911d1160911b81529050600e016136ae8183613124565b9b9a5050505050505050505050565b6136c78186613124565b721116113230ba32a2bc3832b234ba34b7b7111d60691b815290506013016136ef8185613124565b7016113230ba32a932b1b2b83a34b7b7111d60791b815290506011016137158184613124565b7116113bb7b935b33637bba9ba30ba32911d1160711b8152905060120161373c8183613124565b9050613747816132e7565b600201949350505050565b604080825281016137638185612a86565b905081810360208301526112828184612a86565b608080825281016137888187612a86565b90506137976020830186612c90565b81810360408301526137a98185612a86565b905081810360608301526137bd8184612a86565b9695505050505050565b602e8152602081017f45524337323155524953746f726167653a2055524920736574206f66206e6f6e81526d32bc34b9ba32b73a103a37b5b2b760911b60208201529050612f7e565b6020808252810161042a816137c7565b60198152602081017822a9219b99189d1030b8383937bb32903a379031b0b63632b960391b81529050612bc5565b6020808252810161042a81613820565b6060808252810161386f8186612a86565b90506134626020830185612b0e565b60328152602081017f4552433732313a207472616e7366657220746f206e6f6e20455243373231526581527131b2b4bb32b91034b6b83632b6b2b73a32b960711b60208201529050612f7e565b6020808252810161042a8161387e565b604080825281016138ec8185612a86565b90506122456020830184612c90565b60008282101561390d5761390d613085565b500390565b6000821982111561392557613925613085565b500190565b60148152602081017314185d5cd8589b194e881b9bdd081c185d5cd95960621b81529050612bc5565b6020808252810161042a8161392a565b60108152602081016f14185d5cd8589b194e881c185d5cd95960821b81529050612bc5565b6020808252810161042a81613963565b608081016139a68287612b0e565b6139b36020830186612b0e565b6139c06040830185612c90565b81810360608301526137bd8184612a86565b805161042a816129f5565b6000602082840312156139f2576139f2600080fd5b600061128284846139d2565b6000816000190483118215151615613a1857613a18613085565b500290565b600081613a2c57613a2c613085565b506000190190565b60208082527f537472696e67733a20686578206c656e67746820696e73756666696369656e749101908152612bc5565b6020808252810161042a81613a34565b60208082527f4552433732313a206d696e7420746f20746865207a65726f20616464726573739101908152612bc5565b6020808252810161042a81613a74565b601c8152602081017f4552433732313a20746f6b656e20616c7265616479206d696e7465640000000081529050612bc5565b6020808252810161042a81613ab456fe726563657074696f6e206974656d496420257320776f726b666c6f77537461746520257367657449644279466f75726e697373657572206e6f6d4d6174657269656c202573746f6b656e69736174696f6e2069644d6174657269656c20257320757269202573207265666572656e63654d6174657269656c202573a26469706673582212202f9aa39f5692607f16830c55c3e4d60f6052ab6a01813f7a7809be3061cb7a6b64736f6c634300080c0033",
  "linkReferences": {},
  "deployedLinkReferences": {}
}