{
  "_format": "hh-sol-artifact-1",
  "contractName": "Demonstrateur",
  "sourceName": "contracts/Demonstrateur.sol",
  "abi": [
    {
      "inputs": [
        {
          "internalType": "address",
          "name": "target",
          "type": "address"
        }
      ],
      "name": "AddressEmptyCode",
      "type": "error"
    },
    {
      "inputs": [
        {
          "internalType": "address",
          "name": "implementation",
          "type": "address"
        }
      ],
      "name": "ERC1967InvalidImplementation",
      "type": "error"
    },
    {
      "inputs": [],
      "name": "ERC1967NonPayable",
      "type": "error"
    },
    {
      "inputs": [
        {
          "internalType": "address",
          "name": "sender",
          "type": "address"
        },
        {
          "internalType": "uint256",
          "name": "tokenId",
          "type": "uint256"
        },
        {
          "internalType": "address",
          "name": "owner",
          "type": "address"
        }
      ],
      "name": "ERC721IncorrectOwner",
      "type": "error"
    },
    {
      "inputs": [
        {
          "internalType": "address",
          "name": "operator",
          "type": "address"
        },
        {
          "internalType": "uint256",
          "name": "tokenId",
          "type": "uint256"
        }
      ],
      "name": "ERC721InsufficientApproval",
      "type": "error"
    },
    {
      "inputs": [
        {
          "internalType": "address",
          "name": "approver",
          "type": "address"
        }
      ],
      "name": "ERC721InvalidApprover",
      "type": "error"
    },
    {
      "inputs": [
        {
          "internalType": "address",
          "name": "operator",
          "type": "address"
        }
      ],
      "name": "ERC721InvalidOperator",
      "type": "error"
    },
    {
      "inputs": [
        {
          "internalType": "address",
          "name": "owner",
          "type": "address"
        }
      ],
      "name": "ERC721InvalidOwner",
      "type": "error"
    },
    {
      "inputs": [
        {
          "internalType": "address",
          "name": "receiver",
          "type": "address"
        }
      ],
      "name": "ERC721InvalidReceiver",
      "type": "error"
    },
    {
      "inputs": [
        {
          "internalType": "address",
          "name": "sender",
          "type": "address"
        }
      ],
      "name": "ERC721InvalidSender",
      "type": "error"
    },
    {
      "inputs": [
        {
          "internalType": "uint256",
          "name": "tokenId",
          "type": "uint256"
        }
      ],
      "name": "ERC721NonexistentToken",
      "type": "error"
    },
    {
      "inputs": [],
      "name": "EnforcedPause",
      "type": "error"
    },
    {
      "inputs": [],
      "name": "ExpectedPause",
      "type": "error"
    },
    {
      "inputs": [],
      "name": "FailedInnerCall",
      "type": "error"
    },
    {
      "inputs": [],
      "name": "InvalidInitialization",
      "type": "error"
    },
    {
      "inputs": [],
      "name": "NotInitializing",
      "type": "error"
    },
    {
      "inputs": [
        {
          "internalType": "address",
          "name": "owner",
          "type": "address"
        }
      ],
      "name": "OwnableInvalidOwner",
      "type": "error"
    },
    {
      "inputs": [
        {
          "internalType": "address",
          "name": "account",
          "type": "address"
        }
      ],
      "name": "OwnableUnauthorizedAccount",
      "type": "error"
    },
    {
      "inputs": [
        {
          "internalType": "uint256",
          "name": "value",
          "type": "uint256"
        },
        {
          "internalType": "uint256",
          "name": "length",
          "type": "uint256"
        }
      ],
      "name": "StringsInsufficientHexLength",
      "type": "error"
    },
    {
      "inputs": [],
      "name": "UUPSUnauthorizedCallContext",
      "type": "error"
    },
    {
      "inputs": [
        {
          "internalType": "bytes32",
          "name": "slot",
          "type": "bytes32"
        }
      ],
      "name": "UUPSUnsupportedProxiableUUID",
      "type": "error"
    },
    {
      "anonymous": false,
      "inputs": [
        {
          "indexed": true,
          "internalType": "address",
          "name": "owner",
          "type": "address"
        },
        {
          "indexed": true,
          "internalType": "address",
          "name": "approved",
          "type": "address"
        },
        {
          "indexed": true,
          "internalType": "uint256",
          "name": "tokenId",
          "type": "uint256"
        }
      ],
      "name": "Approval",
      "type": "event"
    },
    {
      "anonymous": false,
      "inputs": [
        {
          "indexed": true,
          "internalType": "address",
          "name": "owner",
          "type": "address"
        },
        {
          "indexed": true,
          "internalType": "address",
          "name": "operator",
          "type": "address"
        },
        {
          "indexed": false,
          "internalType": "bool",
          "name": "approved",
          "type": "bool"
        }
      ],
      "name": "ApprovalForAll",
      "type": "event"
    },
    {
      "anonymous": false,
      "inputs": [
        {
          "indexed": false,
          "internalType": "uint256",
          "name": "_fromTokenId",
          "type": "uint256"
        },
        {
          "indexed": false,
          "internalType": "uint256",
          "name": "_toTokenId",
          "type": "uint256"
        }
      ],
      "name": "BatchMetadataUpdate",
      "type": "event"
    },
    {
      "anonymous": false,
      "inputs": [
        {
          "indexed": true,
          "internalType": "address",
          "name": "fournisseur",
          "type": "address"
        },
        {
          "indexed": true,
          "internalType": "address",
          "name": "client",
          "type": "address"
        },
        {
          "indexed": false,
          "internalType": "uint256",
          "name": "tokenIds",
          "type": "uint256"
        }
      ],
      "name": "EventExpedition",
      "type": "event"
    },
    {
      "anonymous": false,
      "inputs": [
        {
          "indexed": true,
          "internalType": "address",
          "name": "client",
          "type": "address"
        },
        {
          "indexed": true,
          "internalType": "address",
          "name": "fournisseur",
          "type": "address"
        },
        {
          "indexed": false,
          "internalType": "uint256",
          "name": "tokenIds",
          "type": "uint256"
        },
        {
          "indexed": false,
          "internalType": "uint256",
          "name": "workflowState",
          "type": "uint256"
        }
      ],
      "name": "EventReception",
      "type": "event"
    },
    {
      "anonymous": false,
      "inputs": [
        {
          "indexed": true,
          "internalType": "address",
          "name": "fournisseur",
          "type": "address"
        },
        {
          "indexed": false,
          "internalType": "uint256",
          "name": "tokenIds",
          "type": "uint256"
        }
      ],
      "name": "EventTokenination",
      "type": "event"
    },
    {
      "anonymous": false,
      "inputs": [
        {
          "indexed": false,
          "internalType": "uint64",
          "name": "version",
          "type": "uint64"
        }
      ],
      "name": "Initialized",
      "type": "event"
    },
    {
      "anonymous": false,
      "inputs": [
        {
          "indexed": false,
          "internalType": "uint256",
          "name": "_tokenId",
          "type": "uint256"
        }
      ],
      "name": "MetadataUpdate",
      "type": "event"
    },
    {
      "anonymous": false,
      "inputs": [
        {
          "indexed": true,
          "internalType": "address",
          "name": "previousOwner",
          "type": "address"
        },
        {
          "indexed": true,
          "internalType": "address",
          "name": "newOwner",
          "type": "address"
        }
      ],
      "name": "OwnershipTransferred",
      "type": "event"
    },
    {
      "anonymous": false,
      "inputs": [
        {
          "indexed": false,
          "internalType": "address",
          "name": "account",
          "type": "address"
        }
      ],
      "name": "Paused",
      "type": "event"
    },
    {
      "anonymous": false,
      "inputs": [
        {
          "indexed": true,
          "internalType": "address",
          "name": "from",
          "type": "address"
        },
        {
          "indexed": true,
          "internalType": "address",
          "name": "to",
          "type": "address"
        },
        {
          "indexed": true,
          "internalType": "uint256",
          "name": "tokenId",
          "type": "uint256"
        }
      ],
      "name": "Transfer",
      "type": "event"
    },
    {
      "anonymous": false,
      "inputs": [
        {
          "indexed": false,
          "internalType": "address",
          "name": "account",
          "type": "address"
        }
      ],
      "name": "Unpaused",
      "type": "event"
    },
    {
      "anonymous": false,
      "inputs": [
        {
          "indexed": true,
          "internalType": "address",
          "name": "implementation",
          "type": "address"
        }
      ],
      "name": "Upgraded",
      "type": "event"
    },
    {
      "inputs": [],
      "name": "UPGRADE_INTERFACE_VERSION",
      "outputs": [
        {
          "internalType": "string",
          "name": "",
          "type": "string"
        }
      ],
      "stateMutability": "view",
      "type": "function"
    },
    {
      "inputs": [],
      "name": "_addressContratMateriel",
      "outputs": [
        {
          "internalType": "address",
          "name": "",
          "type": "address"
        }
      ],
      "stateMutability": "view",
      "type": "function"
    },
    {
      "inputs": [],
      "name": "_addressContratRole",
      "outputs": [
        {
          "internalType": "address",
          "name": "",
          "type": "address"
        }
      ],
      "stateMutability": "view",
      "type": "function"
    },
    {
      "inputs": [
        {
          "internalType": "address",
          "name": "to",
          "type": "address"
        },
        {
          "internalType": "uint256",
          "name": "tokenId",
          "type": "uint256"
        }
      ],
      "name": "approve",
      "outputs": [],
      "stateMutability": "nonpayable",
      "type": "function"
    },
    {
      "inputs": [
        {
          "internalType": "address",
          "name": "owner",
          "type": "address"
        }
      ],
      "name": "balanceOf",
      "outputs": [
        {
          "internalType": "uint256",
          "name": "",
          "type": "uint256"
        }
      ],
      "stateMutability": "view",
      "type": "function"
    },
    {
      "inputs": [
        {
          "internalType": "address",
          "name": "client",
          "type": "address"
        },
        {
          "internalType": "uint256",
          "name": "itemId",
          "type": "uint256"
        }
      ],
      "name": "expedition",
      "outputs": [],
      "stateMutability": "nonpayable",
      "type": "function"
    },
    {
      "inputs": [
        {
          "internalType": "uint256",
          "name": "tokenId",
          "type": "uint256"
        }
      ],
      "name": "getApproved",
      "outputs": [
        {
          "internalType": "address",
          "name": "",
          "type": "address"
        }
      ],
      "stateMutability": "view",
      "type": "function"
    },
    {
      "inputs": [
        {
          "internalType": "address",
          "name": "owner",
          "type": "address"
        }
      ],
      "name": "getIdByOwner",
      "outputs": [
        {
          "internalType": "string[]",
          "name": "",
          "type": "string[]"
        }
      ],
      "stateMutability": "view",
      "type": "function"
    },
    {
      "inputs": [
        {
          "internalType": "address",
          "name": "client",
          "type": "address"
        }
      ],
      "name": "getJsonByClient",
      "outputs": [
        {
          "internalType": "string",
          "name": "",
          "type": "string"
        }
      ],
      "stateMutability": "view",
      "type": "function"
    },
    {
      "inputs": [
        {
          "internalType": "address",
          "name": "fournisseur",
          "type": "address"
        }
      ],
      "name": "getJsonByFournisseur",
      "outputs": [
        {
          "internalType": "string",
          "name": "",
          "type": "string"
        }
      ],
      "stateMutability": "view",
      "type": "function"
    },
    {
      "inputs": [],
      "name": "getJsonCommandes",
      "outputs": [
        {
          "internalType": "string",
          "name": "",
          "type": "string"
        }
      ],
      "stateMutability": "view",
      "type": "function"
    },
    {
      "inputs": [
        {
          "internalType": "address",
          "name": "owner",
          "type": "address"
        }
      ],
      "name": "getJsonMyMateriels",
      "outputs": [
        {
          "internalType": "string",
          "name": "",
          "type": "string"
        }
      ],
      "stateMutability": "view",
      "type": "function"
    },
    {
      "inputs": [],
      "name": "getVersion",
      "outputs": [
        {
          "internalType": "string",
          "name": "",
          "type": "string"
        }
      ],
      "stateMutability": "view",
      "type": "function"
    },
    {
      "inputs": [
        {
          "internalType": "string",
          "name": "definitiveName",
          "type": "string"
        },
        {
          "internalType": "string",
          "name": "definitiveSymbol",
          "type": "string"
        },
        {
          "internalType": "string",
          "name": "definitiveBaseURI",
          "type": "string"
        }
      ],
      "name": "initialize",
      "outputs": [],
      "stateMutability": "nonpayable",
      "type": "function"
    },
    {
      "inputs": [
        {
          "internalType": "address",
          "name": "owner",
          "type": "address"
        },
        {
          "internalType": "address",
          "name": "operator",
          "type": "address"
        }
      ],
      "name": "isApprovedForAll",
      "outputs": [
        {
          "internalType": "bool",
          "name": "",
          "type": "bool"
        }
      ],
      "stateMutability": "view",
      "type": "function"
    },
    {
      "inputs": [],
      "name": "name",
      "outputs": [
        {
          "internalType": "string",
          "name": "",
          "type": "string"
        }
      ],
      "stateMutability": "view",
      "type": "function"
    },
    {
      "inputs": [],
      "name": "owner",
      "outputs": [
        {
          "internalType": "address",
          "name": "",
          "type": "address"
        }
      ],
      "stateMutability": "view",
      "type": "function"
    },
    {
      "inputs": [
        {
          "internalType": "uint256",
          "name": "tokenId",
          "type": "uint256"
        }
      ],
      "name": "ownerOf",
      "outputs": [
        {
          "internalType": "address",
          "name": "",
          "type": "address"
        }
      ],
      "stateMutability": "view",
      "type": "function"
    },
    {
      "inputs": [],
      "name": "pause",
      "outputs": [],
      "stateMutability": "nonpayable",
      "type": "function"
    },
    {
      "inputs": [],
      "name": "paused",
      "outputs": [
        {
          "internalType": "bool",
          "name": "",
          "type": "bool"
        }
      ],
      "stateMutability": "view",
      "type": "function"
    },
    {
      "inputs": [],
      "name": "proxiableUUID",
      "outputs": [
        {
          "internalType": "bytes32",
          "name": "",
          "type": "bytes32"
        }
      ],
      "stateMutability": "view",
      "type": "function"
    },
    {
      "inputs": [
        {
          "internalType": "uint256",
          "name": "itemId",
          "type": "uint256"
        },
        {
          "internalType": "uint256",
          "name": "workflowState",
          "type": "uint256"
        }
      ],
      "name": "reception",
      "outputs": [],
      "stateMutability": "nonpayable",
      "type": "function"
    },
    {
      "inputs": [],
      "name": "renounceOwnership",
      "outputs": [],
      "stateMutability": "nonpayable",
      "type": "function"
    },
    {
      "inputs": [
        {
          "internalType": "address",
          "name": "from",
          "type": "address"
        },
        {
          "internalType": "address",
          "name": "to",
          "type": "address"
        },
        {
          "internalType": "uint256",
          "name": "tokenId",
          "type": "uint256"
        }
      ],
      "name": "safeTransferFrom",
      "outputs": [],
      "stateMutability": "nonpayable",
      "type": "function"
    },
    {
      "inputs": [
        {
          "internalType": "address",
          "name": "from",
          "type": "address"
        },
        {
          "internalType": "address",
          "name": "to",
          "type": "address"
        },
        {
          "internalType": "uint256",
          "name": "tokenId",
          "type": "uint256"
        },
        {
          "internalType": "bytes",
          "name": "data",
          "type": "bytes"
        }
      ],
      "name": "safeTransferFrom",
      "outputs": [],
      "stateMutability": "nonpayable",
      "type": "function"
    },
    {
      "inputs": [
        {
          "internalType": "address",
          "name": "addressContratMateriel",
          "type": "address"
        }
      ],
      "name": "setAddressContratMateriel",
      "outputs": [],
      "stateMutability": "nonpayable",
      "type": "function"
    },
    {
      "inputs": [
        {
          "internalType": "address",
          "name": "addressContratRole",
          "type": "address"
        }
      ],
      "name": "setAddressContratRole",
      "outputs": [],
      "stateMutability": "nonpayable",
      "type": "function"
    },
    {
      "inputs": [
        {
          "internalType": "address",
          "name": "operator",
          "type": "address"
        },
        {
          "internalType": "bool",
          "name": "approved",
          "type": "bool"
        }
      ],
      "name": "setApprovalForAll",
      "outputs": [],
      "stateMutability": "nonpayable",
      "type": "function"
    },
    {
      "inputs": [
        {
          "internalType": "bytes4",
          "name": "interfaceId",
          "type": "bytes4"
        }
      ],
      "name": "supportsInterface",
      "outputs": [
        {
          "internalType": "bool",
          "name": "",
          "type": "bool"
        }
      ],
      "stateMutability": "view",
      "type": "function"
    },
    {
      "inputs": [],
      "name": "symbol",
      "outputs": [
        {
          "internalType": "string",
          "name": "",
          "type": "string"
        }
      ],
      "stateMutability": "view",
      "type": "function"
    },
    {
      "inputs": [
        {
          "internalType": "uint256",
          "name": "tokenId",
          "type": "uint256"
        }
      ],
      "name": "tokenURI",
      "outputs": [
        {
          "internalType": "string",
          "name": "",
          "type": "string"
        }
      ],
      "stateMutability": "view",
      "type": "function"
    },
    {
      "inputs": [
        {
          "internalType": "uint256",
          "name": "idMateriel",
          "type": "uint256"
        },
        {
          "internalType": "string",
          "name": "uri",
          "type": "string"
        },
        {
          "internalType": "string",
          "name": "urlImage",
          "type": "string"
        },
        {
          "internalType": "string",
          "name": "referenceMateriel",
          "type": "string"
        }
      ],
      "name": "tokenisation",
      "outputs": [],
      "stateMutability": "nonpayable",
      "type": "function"
    },
    {
      "inputs": [
        {
          "internalType": "address",
          "name": "from",
          "type": "address"
        },
        {
          "internalType": "address",
          "name": "to",
          "type": "address"
        },
        {
          "internalType": "uint256",
          "name": "tokenId",
          "type": "uint256"
        }
      ],
      "name": "transferFrom",
      "outputs": [],
      "stateMutability": "nonpayable",
      "type": "function"
    },
    {
      "inputs": [
        {
          "internalType": "address",
          "name": "newOwner",
          "type": "address"
        }
      ],
      "name": "transferOwnership",
      "outputs": [],
      "stateMutability": "nonpayable",
      "type": "function"
    },
    {
      "inputs": [],
      "name": "unpause",
      "outputs": [],
      "stateMutability": "nonpayable",
      "type": "function"
    },
    {
      "inputs": [
        {
          "internalType": "address",
          "name": "newImplementation",
          "type": "address"
        },
        {
          "internalType": "bytes",
          "name": "data",
          "type": "bytes"
        }
      ],
      "name": "upgradeToAndCall",
      "outputs": [],
      "stateMutability": "payable",
      "type": "function"
    }
  ],
  "bytecode": "0x60a06040523060805234801561001457600080fd5b506080516144c461003e60003960008181612088015281816120b1015261265301526144c46000f3fe6080604052600436106101cf5760003560e01c806370a08231116100f8578063a6487c5311610090578063a6487c531461051c578063ad3cb1cc1461053c578063b3a46b931461056d578063b88d4fde1461058d578063bcc68b2b146105ad578063c87b56dd146105cd578063e985e9c5146105ed578063f2fde38b1461060d578063f3ee11a21461062d57600080fd5b806370a0823114610428578063715018a6146104485780638307df121461045d5780638456cb591461047d5780638da5cb5b1461049257806395d89b41146104a75780639bad155e146104bc5780639f32d1a5146104dc578063a22cb465146104fc57600080fd5b806342842e0e1161016b57806342842e0e146103295780634f1ef286146103495780634fb75e4f1461035c57806352d1902d146103715780635b06d203146103935780635c975abb146103b35780636077e144146103c85780636352211e146103e85780636d5128d71461040857600080fd5b806301ffc9a7146101d457806306fdde031461020a578063081812fc1461022c578063095ea7b3146102595780630d8e6e2c1461027b5780630dc05e59146102a757806310b50626146102c757806323b872dd146102f45780633f4ba83a14610314575b600080fd5b3480156101e057600080fd5b506101f46101ef3660046134ff565b61064d565b604051610201919061352a565b60405180910390f35b34801561021657600080fd5b5061021f610678565b604051610201919061359a565b34801561023857600080fd5b5061024c6102473660046135bc565b610719565b60405161020191906135f7565b34801561026557600080fd5b50610279610274366004613619565b61072e565b005b34801561028757600080fd5b506040805180820190915260038152620312e360ec1b602082015261021f565b3480156102b357600080fd5b506102796102c2366004613656565b61073d565b3480156102d357600080fd5b506102e76102e2366004613678565b610914565b604051610201919061370f565b34801561030057600080fd5b5061027961030f366004613720565b610a22565b34801561032057600080fd5b50610279610a99565b34801561033557600080fd5b50610279610344366004613720565b610aab565b610279610357366004613863565b610acb565b34801561036857600080fd5b5061021f610ae6565b34801561037d57600080fd5b50610386610bab565b60405161020191906138b6565b34801561039f57600080fd5b5061021f6103ae366004613678565b610bc8565b3480156103bf57600080fd5b506101f4610cb4565b3480156103d457600080fd5b5060035461024c906001600160a01b031681565b3480156103f457600080fd5b5061024c6104033660046135bc565b610cc9565b34801561041457600080fd5b50610279610423366004613678565b610cd4565b34801561043457600080fd5b50610386610443366004613678565b610cfe565b34801561045457600080fd5b50610279610d56565b34801561046957600080fd5b50610279610478366004613678565b610d68565b34801561048957600080fd5b50610279610d92565b34801561049e57600080fd5b5061024c610da2565b3480156104b357600080fd5b5061021f610dbd565b3480156104c857600080fd5b506102796104d73660046138c4565b610dda565b3480156104e857600080fd5b5061021f6104f7366004613678565b6110cf565b34801561050857600080fd5b50610279610517366004613989565b6114a1565b34801561052857600080fd5b506102796105373660046139bc565b6114ac565b34801561054857600080fd5b5061021f604051806040016040528060058152602001640352e302e360dc1b81525081565b34801561057957600080fd5b50610279610588366004613619565b6115e0565b34801561059957600080fd5b506102796105a8366004613a4f565b611704565b3480156105b957600080fd5b5060025461024c906001600160a01b031681565b3480156105d957600080fd5b5061021f6105e83660046135bc565b61171b565b3480156105f957600080fd5b506101f4610608366004613a96565b61182e565b34801561061957600080fd5b50610279610628366004613678565b61186d565b34801561063957600080fd5b5061021f610648366004613678565b6118ab565b60006001600160e01b03198216632483248360e11b1480610672575061067282611c5e565b92915050565b60606000610684611cae565b905080600001805461069590613adf565b80601f01602080910402602001604051908101604052809291908181526020018280546106c190613adf565b801561070e5780601f106106e35761010080835404028352916020019161070e565b820191906000526020600020905b8154815290600101906020018083116106f157829003601f168201915b505050505091505090565b600061072482611cd2565b5061067282611d09565b610739828233611d32565b5050565b6107606040518060600160405280602481526020016143f4602491398383611d3f565b6000828152600460205260409020600101546001600160a01b031633146107a25760405162461bcd60e51b815260040161079990613b2b565b60405180910390fd5b8015806107af5750806001145b806107ba5750806002145b6107d65760405162461bcd60e51b815260040161079990613b68565b8060000361084757600082815260046020526040902060078101805460ff191660021790554260068201558054600190910154610820916001600160a01b03908116911684610a22565b600082815260046020526040902054610842906001600160a01b03168361072e565b6108af565b80600103610870576000828152600460205260409020600701805460ff191660031790556108af565b600082815260046020819052604090912060078101805460ff1916909217909155600181015490546108af916001600160a01b03908116911684610a22565b60008281526004602052604090819020805460019091015491516001600160a01b0391821692909116907f0b2b0b9cd2852db9a263848c6174c04304ce5b5d76c710f722992b1e7a942791906109089086908690613b8e565b60405180910390a35050565b606061094f60405180604001604052806017815260200176676574496442794f776e6572206164647265737320257360481b81525083611d86565b60008061095b84611dcb565b6001600160401b0381111561097257610972613770565b6040519080825280602002602001820160405280156109a557816020015b60608152602001906001900390816109905790505b50905060005b600054811015610a1a57846001600160a01b03166109c882610cc9565b6001600160a01b031603610a08576109df81611e59565b82846109ea81613bbf565b9550815181106109fc576109fc613bd8565b60200260200101819052505b80610a1281613bbf565b9150506109ab565b509392505050565b6001600160a01b038216610a4c576000604051633250574960e11b815260040161079991906135f7565b6000610a59838333611eeb565b9050836001600160a01b0316816001600160a01b031614610a93578382826040516364283d7b60e01b815260040161079993929190613bee565b50505050565b610aa1611ff4565b610aa9612026565b565b610ac683838360405180602001604052806000815250611704565b505050565b610ad361207d565b610adc82612122565b610739828261212a565b6040805180820190915260018152605b60f81b60208201526060906000805b6000548160ff161015610b565782610b1d83836121dd565b604051602001610b2e929190613c38565b6040516020818303038152906040529250600191508080610b4e90613c4e565b915050610b05565b5081604051602001610b689190613c64565b60408051601f19818403018152828201909152601182527002539b7b721b7b6b6b0b73232b99012b99607d1b60208301529250610ba59083612603565b50919050565b6000610bb5612648565b5060008051602061443983398151915290565b6040805180820190915260018152605b60f81b60208201526060906000805b6000548160ff161015610c5c57846001600160a01b0316610c0a8260ff16610cc9565b6001600160a01b031603610c4a5782610c2383836121dd565b604051602001610c34929190613c38565b6040516020818303038152906040529250600191505b80610c5481613c4e565b915050610be7565b5081604051602001610c6e9190613c64565b60408051601f19818403018152828201909152601382527203539b7b726bca6b0ba32b934b2b6399012b99606d1b60208301529250610cad9083612603565b5092915050565b600080610cbf612691565b5460ff1692915050565b600061067282611cd2565b610cdc611ff4565b600380546001600160a01b0319166001600160a01b0392909216919091179055565b600080610d09611cae565b90506001600160a01b038316610d355760006040516322718ad960e21b815260040161079991906135f7565b6001600160a01b039092166000908152600390920160205250604090205490565b610d5e611ff4565b610aa960006126b5565b610d70611ff4565b600280546001600160a01b0319166001600160a01b0392909216919091179055565b610d9a611ff4565b610aa9612711565b600080610dad612758565b546001600160a01b031692915050565b60606000610dc9611cae565b905080600101805461069590613adf565b600254604051631effddf560e21b815233916000916001600160a01b0390911690637bff77d490610e0f9085906004016135f7565b600060405180830381865afa158015610e2c573d6000803e3d6000fd5b505050506040513d6000823e601f3d908101601f19168201604052610e549190810190613cd6565b6040516420b236b4b760d91b60208201529091506025016040516020818303038152906040528051906020012081604051602001610e929190613d10565b604051602081830303815290604052805190602001201480610f0857506040516a2337bab93734b9b9b2bab960a91b6020820152602b016040516020818303038152906040528051906020012081604051602001610ef09190613d10565b60405160208183030381529060405280519060200120145b610f245760405162461bcd60e51b815260040161079990613d3e565b610f486040518060600160405280603681526020016144596036913987878661277c565b610f54336000546127c5565b610f60600054866127df565b604051806101000160405280336001600160a01b0316815260200160006001600160a01b03168152602001878152602001848152602001858152602001600081526020016000815260200160006004811115610fbe57610fbe613b78565b905260008054815260046020908152604091829020835181546001600160a01b03199081166001600160a01b0392831617835592850151600183018054909416911617909155908201516002820155606082015160038201906110219082613e0b565b50608082015160048201906110369082613e0b565b5060a0820151600582015560c0820151600682015560e082015160078201805460ff1916600183600481111561106e5761106e613b78565b0217905550506000546040513392507f87a149df8c648541e8984a3f6382b2ce57781dd46bd729f772c3989cc9a76c7c916110a8916138b6565b60405180910390a260016000808282546110c29190613ec5565b9091555050505050505050565b60606111106040518060400160405280601d81526020017f67657449644279466f75726e697373657572206164647265737320257300000081525083611d86565b60408051808201825260018152605b60f81b602080830191909152825190810190925260008083529091815b60005481101561144957600081815260046020908152604080832081516101008101835281546001600160a01b0390811682526001830154169381019390935260028101549183019190915260038101805460608401919061119d90613adf565b80601f01602080910402602001604051908101604052809291908181526020018280546111c990613adf565b80156112165780601f106111eb57610100808354040283529160200191611216565b820191906000526020600020905b8154815290600101906020018083116111f957829003601f168201915b5050505050815260200160048201805461122f90613adf565b80601f016020809104026020016040519081016040528092919081815260200182805461125b90613adf565b80156112a85780601f1061127d576101008083540402835291602001916112a8565b820191906000526020600020905b81548152906001019060200180831161128b57829003601f168201915b50505091835250506005820154602082015260068201546040820152600782015460609091019060ff1660048111156112e3576112e3613b78565b60048111156112f4576112f4613b78565b815250509050866001600160a01b031681600001516001600160a01b0316148015611335575060028160e00151600481111561133257611332613b78565b14155b1561143657831561135d57604051806040016040528060018152602001600b60fa1b81525092505b600354604080830151905163a80f602d60e01b81526000926001600160a01b03169163a80f602d9161139291906004016138b6565b600060405180830381865afa1580156113af573d6000803e3d6000fd5b505050506040513d6000823e601f3d908101601f191682016040526113d79190810190613cd6565b90506113fb6040518060600160405280602181526020016144186021913982612603565b858461140685611e59565b606085015160405161141f949392918691602001613f17565b604051602081830303815290604052955060019450505b508061144181613bbf565b91505061113c565b508260405160200161145b9190613c64565b60408051601f19818403018152828201909152601182527002539b7b721b7b6b6b0b73232b99012b99607d1b602083015293506114989084612603565b50909392505050565b610739338383612841565b60006114b66128ea565b805490915060ff600160401b82041615906001600160401b03166000811580156114dd5750825b90506000826001600160401b031660011480156114f95750303b155b905081158015611507575080155b156115255760405163f92ee8a960e01b815260040160405180910390fd5b845467ffffffffffffffff19166001178555831561154f57845460ff60401b1916600160401b1785555b611559888861290e565b611561612920565b61156a33612928565b611572612920565b61157a612939565b60008055600161158a8782613e0b565b5083156115d657845460ff60401b191685556040517fc7f505b2f371ae2175ee4913f4499e1f2633a7b5936321eed1cdaeb6115181d2906115cd90600190613fbf565b60405180910390a15b5050505050505050565b6116206040518060400160405280601f81526020017f65787065646974696f6e2061646472657373202573206974656d4964202573008152508383612949565b6001600160a01b0382166116465760405162461bcd60e51b815260040161079990613ff4565b6000818152600460205260409020546001600160a01b0316331461167c5760405162461bcd60e51b81526004016107999061402f565b611686828261072e565b6000818152600460205260408082204260058201556006810192909255600180830180546001600160a01b0319166001600160a01b0387169081179091556007909301805460ff191690911790555133907ffaa2c8a22696158f969938e11eaba6b662b2879a83841f1b0499692e1af8ca81906109089085906138b6565b61170f848484610a22565b610a9384848484612990565b60606000611727612aa7565b905061173283611cd2565b506000838152602082905260408120805461174c90613adf565b80601f016020809104026020016040519081016040528092919081815260200182805461177890613adf565b80156117c55780601f1061179a576101008083540402835291602001916117c5565b820191906000526020600020905b8154815290600101906020018083116117a857829003601f168201915b5050505050905060006117d6612acb565b905080516000036117e957509392505050565b81511561181c578082604051602001611803929190613c38565b6040516020818303038152906040529350505050919050565b61182585612b5d565b95945050505050565b600080611839611cae565b6001600160a01b03948516600090815260059190910160209081526040808320959096168252939093525050205460ff1690565b611875611ff4565b6001600160a01b03811661189f576000604051631e4fbdf760e01b815260040161079991906135f7565b6118a8816126b5565b50565b60606118e96040518060400160405280601a8152602001796765744a736f6e4279436c69656e74206164647265737320257360301b81525083611d86565b60408051808201825260018152605b60f81b602080830191909152825190810190925260008083529091815b60005481101561144957600081815260046020908152604080832081516101008101835281546001600160a01b0390811682526001830154169381019390935260028101549183019190915260038101805460608401919061197690613adf565b80601f01602080910402602001604051908101604052809291908181526020018280546119a290613adf565b80156119ef5780601f106119c4576101008083540402835291602001916119ef565b820191906000526020600020905b8154815290600101906020018083116119d257829003601f168201915b50505050508152602001600482018054611a0890613adf565b80601f0160208091040260200160405190810160405280929190818152602001828054611a3490613adf565b8015611a815780601f10611a5657610100808354040283529160200191611a81565b820191906000526020600020905b815481529060010190602001808311611a6457829003601f168201915b50505091835250506005820154602082015260068201546040820152600782015460609091019060ff166004811115611abc57611abc613b78565b6004811115611acd57611acd613b78565b815250509050611b0f6040518060400160405280601a8152602001796765744a736f6e4279436c69656e74206164647265737320257360301b81525088611d86565b866001600160a01b031681602001516001600160a01b0316148015611b4a575060038160e001516004811115611b4757611b47613b78565b14155b8015611b6c575060048160e001516004811115611b6957611b69613b78565b14155b15611c4b578315611b9457604051806040016040528060018152602001600b60fa1b81525092505b600354604080830151905163a80f602d60e01b81526000926001600160a01b03169163a80f602d91611bc991906004016138b6565b600060405180830381865afa158015611be6573d6000803e3d6000fd5b505050506040513d6000823e601f3d908101601f19168201604052611c0e9190810190613cd6565b90508584611c1b85611e59565b6060850151604051611c34949392918691602001613f17565b604051602081830303815290604052955060019450505b5080611c5681613bbf565b915050611915565b60006001600160e01b031982166380ac58cd60e01b1480611c8f57506001600160e01b03198216635b5e139f60e01b145b8061067257506301ffc9a760e01b6001600160e01b0319831614610672565b7f80bb2b638cc20bc4d0a60d66940f3ab4a00c1d7b313497ca82fb0b4ab007930090565b600080611cde83612bc4565b90506001600160a01b0381166106725782604051637e27328960e01b815260040161079991906138b6565b600080611d14611cae565b6000938452600401602052505060409020546001600160a01b031690565b610ac68383836001612bed565b610ac6838383604051602401611d579392919061403f565b60408051601f198184030181529190526020810180516001600160e01b031663ca47c4eb60e01b179052612cf7565b6107398282604051602401611d9c92919061406c565b60408051601f198184030181529190526020810180516001600160e01b031663319af33360e01b179052612cf7565b600080805b600054811015611e1b57836001600160a01b0316611ded82610cc9565b6001600160a01b031603611e095781611e0581613bbf565b9250505b80611e1381613bbf565b915050611dd0565b506106726040518060400160405280601b81526020017a67657453697a6542794f776e6572206974656d436f756e7420257360281b81525082612d00565b60606000611e6683612d45565b60010190506000816001600160401b03811115611e8557611e85613770565b6040519080825280601f01601f191660200182016040528015611eaf576020820181803683370190505b5090508181016020015b600019016f181899199a1a9b1b9c1cb0b131b232b360811b600a86061a8153600a8504945084611eb957509392505050565b600080611ef6611cae565b90506000611f0385612bc4565b90506001600160a01b03841615611f1f57611f1f818587612e1b565b6001600160a01b03811615611f5f57611f3c600086600080612bed565b6001600160a01b0381166000908152600383016020526040902080546000190190555b6001600160a01b03861615611f90576001600160a01b03861660009081526003830160205260409020805460010190555b600085815260028301602052604080822080546001600160a01b0319166001600160a01b038a811691821790925591518893918516917fddf252ad1be2c89b69c2b068fc378daa952ba7f163c4a11628f55a4df523b3ef91a49150505b9392505050565b33611ffd610da2565b6001600160a01b031614610aa9573360405163118cdaa760e01b815260040161079991906135f7565b61202e612e70565b6000612038612691565b805460ff1916815590507f5db9ee0a495bf2e6ff9c91a7834c1ba4fdd244a5e8aa4e537bd38aeae4b073aa335b60405161207291906135f7565b60405180910390a150565b306001600160a01b037f000000000000000000000000000000000000000000000000000000000000000016148061210457507f00000000000000000000000000000000000000000000000000000000000000006001600160a01b03166120f8600080516020614439833981519152546001600160a01b031690565b6001600160a01b031614155b15610aa95760405163703e46dd60e11b815260040160405180910390fd5b6118a8611ff4565b816001600160a01b03166352d1902d6040518163ffffffff1660e01b8152600401602060405180830381865afa925050508015612184575060408051601f3d908101601f1916820190925261218191810190614097565b60015b6121a35781604051634c9c8ce360e01b815260040161079991906135f7565b60008051602061443983398151915281146121d35780604051632a87526960e21b815260040161079991906138b6565b610ac68383612e95565b6040805160208082018352600080835260ff851681526004825283812084516101008101865281546001600160a01b03908116825260018301541693810193909352600281015494830194909452600384018054606095929392918387019161224590613adf565b80601f016020809104026020016040519081016040528092919081815260200182805461227190613adf565b80156122be5780601f10612293576101008083540402835291602001916122be565b820191906000526020600020905b8154815290600101906020018083116122a157829003601f168201915b505050505081526020016004820180546122d790613adf565b80601f016020809104026020016040519081016040528092919081815260200182805461230390613adf565b80156123505780601f1061232557610100808354040283529160200191612350565b820191906000526020600020905b81548152906001019060200180831161233357829003601f168201915b50505091835250506005820154602082015260068201546040820152600782015460609091019060ff16600481111561238b5761238b613b78565b600481111561239c5761239c613b78565b905250905060006123af60ff861661171b565b6002546020840151604051632163b10160e01b81529293506000926001600160a01b0390921691632163b101916123e8916004016135f7565b600060405180830381865afa158015612405573d6000803e3d6000fd5b505050506040513d6000823e601f3d908101601f1916820160405261242d9190810190613cd6565b600254845160405163e2339ba360e01b81529293506000926001600160a01b039092169163e2339ba391612463916004016135f7565b600060405180830381865afa158015612480573d6000803e3d6000fd5b505050506040513d6000823e601f3d908101601f191682016040526124a89190810190613cd6565b600354604080870151905163a80f602d60e01b81529293506000926001600160a01b039092169163a80f602d916124e1916004016138b6565b600060405180830381865afa1580156124fe573d6000803e3d6000fd5b505050506040513d6000823e601f3d908101601f191682016040526125269190810190613cd6565b9050881561254b57604051806040016040528060018152602001600b60fa1b81525095505b60008661255a8a60ff16611e59565b866125688960000151612eeb565b866125768b60200151612eeb565b60608c015160808d0151604051612599989796959493928d928c926020016140b8565b6040516020818303038152906040529050806125b88760a00151611e59565b6125c58860c00151611e59565b6125d28960e00151612f01565b6040516020016125e59493929190614207565b60408051808303601f190181529190529a9950505050505050505050565b610739828260405160240161261992919061429c565b60408051601f198184030181529190526020810180516001600160e01b0316634b5c427760e01b179052612cf7565b306001600160a01b037f00000000000000000000000000000000000000000000000000000000000000001614610aa95760405163703e46dd60e11b815260040160405180910390fd5b7fcd5ed15c6e187e77e9aee88184c21f4f2182ab5827cb3b7e07fbedcd63f0330090565b60006126bf612758565b80546001600160a01b038481166001600160a01b031983168117845560405193945091169182907f8be0079c531659141344cd1fd0a4f28419497f9722a3daafe3b4186f6b6457e090600090a3505050565b61271961304d565b6000612723612691565b805460ff1916600117815590507f62e78cea01bee320cd4e420270b5ea74000d11b0c9f74754ebdbfc544b05a2586120653390565b7f9016d09d72d40fdae2fd8ceac6b6234c7706214fd39c1cd1e609a0528c19930090565b610a938484848460405160240161279694939291906142c1565b60408051601f198184030181529190526020810180516001600160e01b0316635ab84e1f60e01b179052612cf7565b610739828260405180602001604052806000815250613073565b60006127e9612aa7565b60008481526020829052604090209091506128048382613e0b565b507ff8e1a15aba9398e019f0b49df1a4fde98ee17ae345cb5f6b5e2c27f5033e8ce78360405161283491906138b6565b60405180910390a1505050565b600061284b611cae565b90506001600160a01b0383166128765782604051630b61174360e31b815260040161079991906135f7565b6001600160a01b03848116600081815260058401602090815260408083209488168084529490915290819020805460ff1916861515179055517f17307eab39ab6107e8899845ad3d59bd9653f200f220920489ca2b5937696c31906128dc90869061352a565b60405180910390a350505050565b7ff0c57e16840df040f15088dc2f81fe391c3923bec73e23a9662efc9c229c6a0090565b61291661308a565b61073982826130af565b610aa961308a565b61293061308a565b6118a8816130dd565b61294161308a565b610aa96130e5565b610ac683838360405160240161296193929190614311565b60408051601f198184030181529190526020810180516001600160e01b0316630d26b92560e01b179052612cf7565b6001600160a01b0383163b15610a9357604051630a85bd0160e11b81526001600160a01b0384169063150b7a02906129d2903390889087908790600401614331565b6020604051808303816000875af1925050508015612a0d575060408051601f3d908101601f19168201909252612a0a91810190614376565b60015b612a6d573d808015612a3b576040519150601f19603f3d011682016040523d82523d6000602084013e612a40565b606091505b508051600003612a655783604051633250574960e11b815260040161079991906135f7565b805181602001fd5b6001600160e01b03198116630a85bd0160e11b14612aa05783604051633250574960e11b815260040161079991906135f7565b5050505050565b7f0542a41881ee128a365a727b282c86fa859579490b9bb45aab8503648c8e790090565b606060018054612ada90613adf565b80601f0160208091040260200160405190810160405280929190818152602001828054612b0690613adf565b8015612b535780601f10612b2857610100808354040283529160200191612b53565b820191906000526020600020905b815481529060010190602001808311612b3657829003601f168201915b5050505050905090565b6060612b6882611cd2565b506000612b73612acb565b90506000815111612b935760405180602001604052806000815250611fed565b80612b9d84611e59565b604051602001612bae929190613c38565b6040516020818303038152906040529392505050565b600080612bcf611cae565b6000938452600201602052505060409020546001600160a01b031690565b6000612bf7611cae565b90508180612c0d57506001600160a01b03831615155b15612cc6576000612c1d85611cd2565b90506001600160a01b03841615801590612c495750836001600160a01b0316816001600160a01b031614155b8015612c5c5750612c5a818561182e565b155b15612c7c578360405163a9fbf51f60e01b815260040161079991906135f7565b8215612cc45784866001600160a01b0316826001600160a01b03167f8c5be1e5ebec7d5bd14f71427d1e84f3dd0314c0f7b2291e5b200ac8c7c3b92560405160405180910390a45b505b600093845260040160205250506040902080546001600160a01b0319166001600160a01b0392909216919091179055565b6118a881613102565b6107398282604051602401612d16929190614397565b60408051601f198184030181529190526020810180516001600160e01b0316632d839cb360e21b179052612cf7565b60008072184f03e93ff9f4daa797ed6e38ed64bf6a1f0160401b8310612d845772184f03e93ff9f4daa797ed6e38ed64bf6a1f0160401b830492506040015b6904ee2d6d415b85acef8160201b8310612dae576904ee2d6d415b85acef8160201b830492506020015b662386f26fc100008310612dcc57662386f26fc10000830492506010015b6305f5e1008310612de4576305f5e100830492506008015b6127108310612df857612710830492506004015b60648310612e0a576064830492506002015b600a83106106725760010192915050565b612e26838383613123565b610ac6576001600160a01b038316612e535780604051637e27328960e01b815260040161079991906138b6565b818160405163177e802f60e01b81526004016107999291906143b7565b612e78610cb4565b610aa957604051638dfc202b60e01b815260040160405180910390fd5b612e9e82613189565b6040516001600160a01b038316907fbc7cd75a20ee27fd9adebab32041f755214dbc6bffa90cc0225b39da2e5c2d3b90600090a2805115612ee357610ac682826131e5565b610739613252565b60606106726001600160a01b0383166014613271565b6060816004811115612f1557612f15613b78565b600003612f4057505060408051808201909152600881526721b932b0ba34b7b760c11b602082015290565b816004811115612f5257612f52613b78565b600103612f7f57505060408051808201909152600a81526922bc3832b234ba34b7b760b11b602082015290565b816004811115612f9157612f91613b78565b600203612fbd5750506040805180820190915260098152682932b1b2b83a34b7b760b91b602082015290565b816004811115612fcf57612fcf613b78565b600303612ffc57505060408051808201909152600a81526920b7373ab630ba34b7b760b11b602082015290565b81600481111561300e5761300e613b78565b6004036130395750506040805180820190915260088152672932b73b37bcb2b960c11b602082015290565b505060408051602081019091526000815290565b613055610cb4565b15610aa95760405163d93c066560e01b815260040160405180910390fd5b61307d83836133e2565b610ac66000848484612990565b613092613447565b610aa957604051631afcd79f60e31b815260040160405180910390fd5b6130b761308a565b60006130c1611cae565b9050806130ce8482613e0b565b5060018101610a938382613e0b565b61187561308a565b6130ed61308a565b60006130f7612691565b805460ff1916905550565b60006a636f6e736f6c652e6c6f679050600080835160208501845afa505050565b60006001600160a01b038316158015906131815750826001600160a01b0316846001600160a01b0316148061315d575061315d848461182e565b806131815750826001600160a01b031661317683611d09565b6001600160a01b0316145b949350505050565b806001600160a01b03163b6000036131b65780604051634c9c8ce360e01b815260040161079991906135f7565b60008051602061443983398151915280546001600160a01b0319166001600160a01b0392909216919091179055565b6060600080846001600160a01b0316846040516132029190613d10565b600060405180830381855af49150503d806000811461323d576040519150601f19603f3d011682016040523d82523d6000602084013e613242565b606091505b5091509150611825858383613461565b3415610aa95760405163b398979f60e01b815260040160405180910390fd5b60608260006132818460026143c5565b61328c906002613ec5565b6001600160401b038111156132a3576132a3613770565b6040519080825280601f01601f1916602001820160405280156132cd576020820181803683370190505b509050600360fc1b816000815181106132e8576132e8613bd8565b60200101906001600160f81b031916908160001a905350600f60fb1b8160018151811061331757613317613bd8565b60200101906001600160f81b031916908160001a905350600061333b8560026143c5565b613346906001613ec5565b90505b60018111156133be576f181899199a1a9b1b9c1cb0b131b232b360811b83600f166010811061337a5761337a613bd8565b1a60f81b82828151811061339057613390613bd8565b60200101906001600160f81b031916908160001a90535060049290921c916133b7816143dc565b9050613349565b50811561318157848460405163e22e27eb60e01b8152600401610799929190613b8e565b6001600160a01b03821661340c576000604051633250574960e11b815260040161079991906135f7565b600061341a83836000611eeb565b90506001600160a01b03811615610ac65760006040516339e3563760e11b815260040161079991906135f7565b60006134516128ea565b54600160401b900460ff16919050565b60608261347657613471826134b4565b611fed565b815115801561348d57506001600160a01b0384163b155b156134ad5783604051639996b31560e01b815260040161079991906135f7565b5080611fed565b8051156134c45780518082602001fd5b604051630a12f52160e11b815260040160405180910390fd5b6001600160e01b031981165b81146118a857600080fd5b8035610672816134dd565b60006020828403121561351457613514600080fd5b600061318184846134f4565b8015155b82525050565b602081016106728284613520565b60005b8381101561355357818101518382015260200161353b565b50506000910152565b601f01601f191690565b6000613570825190565b808452602084019350613587818560208601613538565b6135908161355c565b9093019392505050565b60208082528101611fed8184613566565b806134e9565b8035610672816135ab565b6000602082840312156135d1576135d1600080fd5b600061318184846135b1565b60006001600160a01b038216610672565b613524816135dd565b6020810161067282846135ee565b6134e9816135dd565b803561067281613605565b6000806040838503121561362f5761362f600080fd5b600061363b858561360e565b925050602061364c858286016135b1565b9150509250929050565b6000806040838503121561366c5761366c600080fd5b600061363b85856135b1565b60006020828403121561368d5761368d600080fd5b6000613181848461360e565b6000611fed8383613566565b60200190565b60006136b5825190565b808452602084019350836020820285016136cf8560200190565b60005b8481101561370357838303885281516136eb8482613699565b935050602082016020989098019791506001016136d2565b50909695505050505050565b60208082528101611fed81846136ab565b60008060006060848603121561373857613738600080fd5b6000613744868661360e565b93505060206137558682870161360e565b9250506040613766868287016135b1565b9150509250925092565b634e487b7160e01b600052604160045260246000fd5b61378f8261355c565b81018181106001600160401b03821117156137ac576137ac613770565b6040525050565b60006137be60405190565b90506137ca8282613786565b919050565b60006001600160401b038211156137e8576137e8613770565b6137f18261355c565b60200192915050565b82818337506000910152565b6000613819613814846137cf565b6137b3565b90508281526020810184848401111561383457613834600080fd5b610a1a8482856137fa565b600082601f83011261385357613853600080fd5b8135613181848260208601613806565b6000806040838503121561387957613879600080fd5b6000613885858561360e565b92505060208301356001600160401b038111156138a4576138a4600080fd5b61364c8582860161383f565b80613524565b6020810161067282846138b0565b600080600080608085870312156138dd576138dd600080fd5b60006138e987876135b1565b94505060208501356001600160401b0381111561390857613908600080fd5b6139148782880161383f565b93505060408501356001600160401b0381111561393357613933600080fd5b61393f8782880161383f565b92505060608501356001600160401b0381111561395e5761395e600080fd5b61396a8782880161383f565b91505092959194509250565b8015156134e9565b803561067281613976565b6000806040838503121561399f5761399f600080fd5b60006139ab858561360e565b925050602061364c8582860161397e565b6000806000606084860312156139d4576139d4600080fd5b83356001600160401b038111156139ed576139ed600080fd5b6139f98682870161383f565b93505060208401356001600160401b03811115613a1857613a18600080fd5b613a248682870161383f565b92505060408401356001600160401b03811115613a4357613a43600080fd5b6137668682870161383f565b60008060008060808587031215613a6857613a68600080fd5b6000613a74878761360e565b9450506020613a858782880161360e565b935050604061393f878288016135b1565b60008060408385031215613aac57613aac600080fd5b6000613ab8858561360e565b925050602061364c8582860161360e565b634e487b7160e01b600052602260045260246000fd5b600281046001821680613af357607f821691505b602082108103610ba557610ba5613ac9565b60118152602081017014185cc81b1948189bdb8818db1a595b9d607a1b815290506136a5565b6020808252810161067281613b05565b601881526020810177776f726b666c6f775374617465206e6f742076616c69646560401b815290506136a5565b6020808252810161067281613b3b565b634e487b7160e01b600052602160045260246000fd5b60408101613b9c82856138b0565b611fed60208301846138b0565b634e487b7160e01b600052601160045260246000fd5b600060018201613bd157613bd1613ba9565b5060010190565b634e487b7160e01b600052603260045260246000fd5b60608101613bfc82866135ee565b613c0960208301856138b0565b61318160408301846135ee565b6000613c20825190565b613c2e818560208601613538565b9290920192915050565b613c428184613c16565b9050611fed8183613c16565b60ff16600060fe198201613bd157613bd1613ba9565b613c6e8183613c16565b605d60f81b815260010192915050565b6000613c8c613814846137cf565b905082815260208101848484011115613ca757613ca7600080fd5b610a1a848285613538565b600082601f830112613cc657613cc6600080fd5b8151613181848260208601613c7e565b600060208284031215613ceb57613ceb600080fd5b81516001600160401b03811115613d0457613d04600080fd5b61318184828501613cb2565b6106728183613c16565b600f8152602081016e526f6c65206e6f742076616c69646560881b815290506136a5565b6020808252810161067281613d1a565b6000610672613d5a8381565b90565b613d6683613d4e565b815460001960089490940293841b1916921b91909117905550565b6000610ac6818484613d5d565b8181101561073957613da1600082613d81565b600101613d8e565b601f821115610ac6576000818152602090206020601f85010481016020851015613dd05750805b612aa06020601f860104830182613d8e565b6000196008929092029190911c191690565b613dfe8282613de2565b6002909202909117919050565b81516001600160401b03811115613e2457613e24613770565b613e2e8254613adf565b613e39828285613da9565b506020601f821160018114613e685760008315613e565750848201515b613e608482613df4565b855550612aa0565b600084815260208120601f198516915b82811015613e985787850151825560209485019460019092019101613e78565b5084821015613eb65783870151613eb2601f871682613de2565b8255505b50505050600202600101905550565b8082018082111561067257610672613ba9565b607b60f81b9052565b641134b2111d60d91b9052565b761116113932b332b932b731b2a6b0ba32b934b2b6111d1160491b9052565b61227d60f01b9052565b613f218187613c16565b9050613f2d8186613c16565b9050613f3881613ed8565b600101613f4481613ee1565b600501613f518185613c16565b6f16113737b6a6b0ba32b934b2b6111d1160811b81529050601001613f768184613c16565b9050613f8181613eee565b601701613f8e8183613c16565b9050613f9981613f0d565b60020195945050505050565b60006001600160401b038216610672565b61352481613fa5565b602081016106728284613fb6565b60128152602081017141646472657373206e6f742076616c69646560701b815290506136a5565b6020808252810161067281613fcd565b6016815260208101752830b9903632903137b7103337bab93734b9b9b2bab960511b815290506136a5565b6020808252810161067281614004565b606080825281016140508186613566565b905061405f60208301856138b0565b61318160408301846138b0565b6040808252810161407d8185613566565b9050611fed60208301846135ee565b8051610672816135ab565b6000602082840312156140ac576140ac600080fd5b6000613181848461408c565b6140c2818c613c16565b90506140cd81613ed8565b6001016140d981613ee1565b6005016140e6818b613c16565b6716113ab934911d1160c11b81529050600801614103818a613c16565b701116113337bab93734b9b9b2bab9111d1160791b815290506011016141298189613c16565b731116113737b6a337bab93734b9b9b2bab9111d1160611b815290506014016141528188613c16565b6b11161131b634b2b73a111d1160a11b81529050600c016141738187613c16565b6e1116113737b6a1b634b2b73a111d1160891b81529050600f016141978186613c16565b701116113737b6a6b0ba32b934b2b6111d1160791b815290506011016141bd8185613c16565b90506141c881613eee565b6017016141d58184613c16565b6d1116113ab93624b6b0b3b2911d1160911b81529050600e016141f88183613c16565b9b9a5050505050505050505050565b6142118186613c16565b721116113230ba32a2bc3832b234ba34b7b7111d60691b815290506013016142398185613c16565b7016113230ba32a932b1b2b83a34b7b7111d60791b8152905060110161425f8184613c16565b7116113bb7b935b33637bba9ba30ba32911d1160711b815290506012016142868183613c16565b905061429181613f0d565b600201949350505050565b604080825281016142ad8185613566565b905081810360208301526131818184613566565b608080825281016142d28187613566565b90506142e160208301866138b0565b81810360408301526142f38185613566565b905081810360608301526143078184613566565b9695505050505050565b606080825281016143228186613566565b905061405f60208301856135ee565b6080810161433f82876135ee565b61434c60208301866135ee565b61435960408301856138b0565b81810360608301526143078184613566565b8051610672816134dd565b60006020828403121561438b5761438b600080fd5b6000613181848461436b565b604080825281016143a88185613566565b9050611fed60208301846138b0565b60408101613b9c82856135ee565b818102811582820484141761067257610672613ba9565b6000816143eb576143eb613ba9565b50600019019056fe726563657074696f6e206974656d496420257320776f726b666c6f77537461746520257367657449644279466f75726e697373657572206e6f6d4d6174657269656c202573360894a13ba1a3210667c828492db98dca3e2076cc3735a920a3ca505d382bbc746f6b656e69736174696f6e2069644d6174657269656c20257320757269202573207265666572656e63654d6174657269656c202573a26469706673582212207b7860daed4948d8c16b45491712c9ad3867a2fce6350c7934afb1ee955475b464736f6c63430008150033",
  "linkReferences": {},
  "deployedLinkReferences": {}
}