{
  "_format": "hh-sol-artifact-1",
  "contractName": "Demonstrateur",
  "sourceName": "contracts/Demonstrateur.sol",
  "abi": [
    {
      "inputs": [
        {
          "internalType": "address",
          "name": "target",
          "type": "address"
        }
      ],
      "name": "AddressEmptyCode",
      "type": "error"
    },
    {
      "inputs": [
        {
          "internalType": "address",
          "name": "implementation",
          "type": "address"
        }
      ],
      "name": "ERC1967InvalidImplementation",
      "type": "error"
    },
    {
      "inputs": [],
      "name": "ERC1967NonPayable",
      "type": "error"
    },
    {
      "inputs": [
        {
          "internalType": "address",
          "name": "sender",
          "type": "address"
        },
        {
          "internalType": "uint256",
          "name": "tokenId",
          "type": "uint256"
        },
        {
          "internalType": "address",
          "name": "owner",
          "type": "address"
        }
      ],
      "name": "ERC721IncorrectOwner",
      "type": "error"
    },
    {
      "inputs": [
        {
          "internalType": "address",
          "name": "operator",
          "type": "address"
        },
        {
          "internalType": "uint256",
          "name": "tokenId",
          "type": "uint256"
        }
      ],
      "name": "ERC721InsufficientApproval",
      "type": "error"
    },
    {
      "inputs": [
        {
          "internalType": "address",
          "name": "approver",
          "type": "address"
        }
      ],
      "name": "ERC721InvalidApprover",
      "type": "error"
    },
    {
      "inputs": [
        {
          "internalType": "address",
          "name": "operator",
          "type": "address"
        }
      ],
      "name": "ERC721InvalidOperator",
      "type": "error"
    },
    {
      "inputs": [
        {
          "internalType": "address",
          "name": "owner",
          "type": "address"
        }
      ],
      "name": "ERC721InvalidOwner",
      "type": "error"
    },
    {
      "inputs": [
        {
          "internalType": "address",
          "name": "receiver",
          "type": "address"
        }
      ],
      "name": "ERC721InvalidReceiver",
      "type": "error"
    },
    {
      "inputs": [
        {
          "internalType": "address",
          "name": "sender",
          "type": "address"
        }
      ],
      "name": "ERC721InvalidSender",
      "type": "error"
    },
    {
      "inputs": [
        {
          "internalType": "uint256",
          "name": "tokenId",
          "type": "uint256"
        }
      ],
      "name": "ERC721NonexistentToken",
      "type": "error"
    },
    {
      "inputs": [],
      "name": "EnforcedPause",
      "type": "error"
    },
    {
      "inputs": [],
      "name": "ExpectedPause",
      "type": "error"
    },
    {
      "inputs": [],
      "name": "FailedInnerCall",
      "type": "error"
    },
    {
      "inputs": [],
      "name": "InvalidInitialization",
      "type": "error"
    },
    {
      "inputs": [],
      "name": "NotInitializing",
      "type": "error"
    },
    {
      "inputs": [
        {
          "internalType": "address",
          "name": "owner",
          "type": "address"
        }
      ],
      "name": "OwnableInvalidOwner",
      "type": "error"
    },
    {
      "inputs": [
        {
          "internalType": "address",
          "name": "account",
          "type": "address"
        }
      ],
      "name": "OwnableUnauthorizedAccount",
      "type": "error"
    },
    {
      "inputs": [
        {
          "internalType": "uint256",
          "name": "value",
          "type": "uint256"
        },
        {
          "internalType": "uint256",
          "name": "length",
          "type": "uint256"
        }
      ],
      "name": "StringsInsufficientHexLength",
      "type": "error"
    },
    {
      "inputs": [],
      "name": "UUPSUnauthorizedCallContext",
      "type": "error"
    },
    {
      "inputs": [
        {
          "internalType": "bytes32",
          "name": "slot",
          "type": "bytes32"
        }
      ],
      "name": "UUPSUnsupportedProxiableUUID",
      "type": "error"
    },
    {
      "anonymous": false,
      "inputs": [
        {
          "indexed": true,
          "internalType": "address",
          "name": "owner",
          "type": "address"
        },
        {
          "indexed": true,
          "internalType": "address",
          "name": "approved",
          "type": "address"
        },
        {
          "indexed": true,
          "internalType": "uint256",
          "name": "tokenId",
          "type": "uint256"
        }
      ],
      "name": "Approval",
      "type": "event"
    },
    {
      "anonymous": false,
      "inputs": [
        {
          "indexed": true,
          "internalType": "address",
          "name": "owner",
          "type": "address"
        },
        {
          "indexed": true,
          "internalType": "address",
          "name": "operator",
          "type": "address"
        },
        {
          "indexed": false,
          "internalType": "bool",
          "name": "approved",
          "type": "bool"
        }
      ],
      "name": "ApprovalForAll",
      "type": "event"
    },
    {
      "anonymous": false,
      "inputs": [
        {
          "indexed": false,
          "internalType": "uint256",
          "name": "_fromTokenId",
          "type": "uint256"
        },
        {
          "indexed": false,
          "internalType": "uint256",
          "name": "_toTokenId",
          "type": "uint256"
        }
      ],
      "name": "BatchMetadataUpdate",
      "type": "event"
    },
    {
      "anonymous": false,
      "inputs": [
        {
          "indexed": true,
          "internalType": "address",
          "name": "fournisseur",
          "type": "address"
        },
        {
          "indexed": true,
          "internalType": "address",
          "name": "client",
          "type": "address"
        },
        {
          "indexed": false,
          "internalType": "uint256",
          "name": "tokenIds",
          "type": "uint256"
        }
      ],
      "name": "EventExpedition",
      "type": "event"
    },
    {
      "anonymous": false,
      "inputs": [
        {
          "indexed": true,
          "internalType": "address",
          "name": "client",
          "type": "address"
        },
        {
          "indexed": true,
          "internalType": "address",
          "name": "fournisseur",
          "type": "address"
        },
        {
          "indexed": false,
          "internalType": "uint256",
          "name": "tokenIds",
          "type": "uint256"
        },
        {
          "indexed": false,
          "internalType": "uint256",
          "name": "workflowState",
          "type": "uint256"
        }
      ],
      "name": "EventReception",
      "type": "event"
    },
    {
      "anonymous": false,
      "inputs": [
        {
          "indexed": true,
          "internalType": "address",
          "name": "fournisseur",
          "type": "address"
        },
        {
          "indexed": false,
          "internalType": "uint256",
          "name": "tokenIds",
          "type": "uint256"
        }
      ],
      "name": "EventTokenination",
      "type": "event"
    },
    {
      "anonymous": false,
      "inputs": [
        {
          "indexed": false,
          "internalType": "uint64",
          "name": "version",
          "type": "uint64"
        }
      ],
      "name": "Initialized",
      "type": "event"
    },
    {
      "anonymous": false,
      "inputs": [
        {
          "indexed": false,
          "internalType": "uint256",
          "name": "_tokenId",
          "type": "uint256"
        }
      ],
      "name": "MetadataUpdate",
      "type": "event"
    },
    {
      "anonymous": false,
      "inputs": [
        {
          "indexed": true,
          "internalType": "address",
          "name": "previousOwner",
          "type": "address"
        },
        {
          "indexed": true,
          "internalType": "address",
          "name": "newOwner",
          "type": "address"
        }
      ],
      "name": "OwnershipTransferred",
      "type": "event"
    },
    {
      "anonymous": false,
      "inputs": [
        {
          "indexed": false,
          "internalType": "address",
          "name": "account",
          "type": "address"
        }
      ],
      "name": "Paused",
      "type": "event"
    },
    {
      "anonymous": false,
      "inputs": [
        {
          "indexed": true,
          "internalType": "address",
          "name": "from",
          "type": "address"
        },
        {
          "indexed": true,
          "internalType": "address",
          "name": "to",
          "type": "address"
        },
        {
          "indexed": true,
          "internalType": "uint256",
          "name": "tokenId",
          "type": "uint256"
        }
      ],
      "name": "Transfer",
      "type": "event"
    },
    {
      "anonymous": false,
      "inputs": [
        {
          "indexed": false,
          "internalType": "address",
          "name": "account",
          "type": "address"
        }
      ],
      "name": "Unpaused",
      "type": "event"
    },
    {
      "anonymous": false,
      "inputs": [
        {
          "indexed": true,
          "internalType": "address",
          "name": "implementation",
          "type": "address"
        }
      ],
      "name": "Upgraded",
      "type": "event"
    },
    {
      "inputs": [],
      "name": "UPGRADE_INTERFACE_VERSION",
      "outputs": [
        {
          "internalType": "string",
          "name": "",
          "type": "string"
        }
      ],
      "stateMutability": "view",
      "type": "function"
    },
    {
      "inputs": [],
      "name": "_addressContratMateriel",
      "outputs": [
        {
          "internalType": "address",
          "name": "",
          "type": "address"
        }
      ],
      "stateMutability": "view",
      "type": "function"
    },
    {
      "inputs": [],
      "name": "_addressContratRole",
      "outputs": [
        {
          "internalType": "address",
          "name": "",
          "type": "address"
        }
      ],
      "stateMutability": "view",
      "type": "function"
    },
    {
      "inputs": [
        {
          "internalType": "address",
          "name": "to",
          "type": "address"
        },
        {
          "internalType": "uint256",
          "name": "tokenId",
          "type": "uint256"
        }
      ],
      "name": "approve",
      "outputs": [],
      "stateMutability": "nonpayable",
      "type": "function"
    },
    {
      "inputs": [
        {
          "internalType": "address",
          "name": "owner",
          "type": "address"
        }
      ],
      "name": "balanceOf",
      "outputs": [
        {
          "internalType": "uint256",
          "name": "",
          "type": "uint256"
        }
      ],
      "stateMutability": "view",
      "type": "function"
    },
    {
      "inputs": [
        {
          "internalType": "address",
          "name": "client",
          "type": "address"
        },
        {
          "internalType": "uint256",
          "name": "itemId",
          "type": "uint256"
        }
      ],
      "name": "expedition",
      "outputs": [],
      "stateMutability": "nonpayable",
      "type": "function"
    },
    {
      "inputs": [
        {
          "internalType": "uint256",
          "name": "tokenId",
          "type": "uint256"
        }
      ],
      "name": "getApproved",
      "outputs": [
        {
          "internalType": "address",
          "name": "",
          "type": "address"
        }
      ],
      "stateMutability": "view",
      "type": "function"
    },
    {
      "inputs": [
        {
          "internalType": "address",
          "name": "owner",
          "type": "address"
        }
      ],
      "name": "getIdByOwner",
      "outputs": [
        {
          "internalType": "string[]",
          "name": "",
          "type": "string[]"
        }
      ],
      "stateMutability": "view",
      "type": "function"
    },
    {
      "inputs": [
        {
          "internalType": "address",
          "name": "client",
          "type": "address"
        }
      ],
      "name": "getJsonByClient",
      "outputs": [
        {
          "internalType": "string",
          "name": "",
          "type": "string"
        }
      ],
      "stateMutability": "view",
      "type": "function"
    },
    {
      "inputs": [
        {
          "internalType": "address",
          "name": "fournisseur",
          "type": "address"
        }
      ],
      "name": "getJsonByFournisseur",
      "outputs": [
        {
          "internalType": "string",
          "name": "",
          "type": "string"
        }
      ],
      "stateMutability": "view",
      "type": "function"
    },
    {
      "inputs": [],
      "name": "getJsonCommandes",
      "outputs": [
        {
          "internalType": "string",
          "name": "",
          "type": "string"
        }
      ],
      "stateMutability": "view",
      "type": "function"
    },
    {
      "inputs": [
        {
          "internalType": "address",
          "name": "owner",
          "type": "address"
        }
      ],
      "name": "getJsonMyMateriels",
      "outputs": [
        {
          "internalType": "string",
          "name": "",
          "type": "string"
        }
      ],
      "stateMutability": "view",
      "type": "function"
    },
    {
      "inputs": [],
      "name": "getVersion",
      "outputs": [
        {
          "internalType": "string",
          "name": "",
          "type": "string"
        }
      ],
      "stateMutability": "pure",
      "type": "function"
    },
    {
      "inputs": [
        {
          "internalType": "string",
          "name": "definitiveName",
          "type": "string"
        },
        {
          "internalType": "string",
          "name": "definitiveSymbol",
          "type": "string"
        },
        {
          "internalType": "string",
          "name": "definitiveBaseURI",
          "type": "string"
        }
      ],
      "name": "initialize",
      "outputs": [],
      "stateMutability": "nonpayable",
      "type": "function"
    },
    {
      "inputs": [
        {
          "internalType": "address",
          "name": "owner",
          "type": "address"
        },
        {
          "internalType": "address",
          "name": "operator",
          "type": "address"
        }
      ],
      "name": "isApprovedForAll",
      "outputs": [
        {
          "internalType": "bool",
          "name": "",
          "type": "bool"
        }
      ],
      "stateMutability": "view",
      "type": "function"
    },
    {
      "inputs": [],
      "name": "name",
      "outputs": [
        {
          "internalType": "string",
          "name": "",
          "type": "string"
        }
      ],
      "stateMutability": "view",
      "type": "function"
    },
    {
      "inputs": [],
      "name": "owner",
      "outputs": [
        {
          "internalType": "address",
          "name": "",
          "type": "address"
        }
      ],
      "stateMutability": "view",
      "type": "function"
    },
    {
      "inputs": [
        {
          "internalType": "uint256",
          "name": "tokenId",
          "type": "uint256"
        }
      ],
      "name": "ownerOf",
      "outputs": [
        {
          "internalType": "address",
          "name": "",
          "type": "address"
        }
      ],
      "stateMutability": "view",
      "type": "function"
    },
    {
      "inputs": [],
      "name": "pause",
      "outputs": [],
      "stateMutability": "nonpayable",
      "type": "function"
    },
    {
      "inputs": [],
      "name": "paused",
      "outputs": [
        {
          "internalType": "bool",
          "name": "",
          "type": "bool"
        }
      ],
      "stateMutability": "view",
      "type": "function"
    },
    {
      "inputs": [],
      "name": "proxiableUUID",
      "outputs": [
        {
          "internalType": "bytes32",
          "name": "",
          "type": "bytes32"
        }
      ],
      "stateMutability": "view",
      "type": "function"
    },
    {
      "inputs": [
        {
          "internalType": "uint256",
          "name": "itemId",
          "type": "uint256"
        },
        {
          "internalType": "uint256",
          "name": "workflowState",
          "type": "uint256"
        }
      ],
      "name": "reception",
      "outputs": [],
      "stateMutability": "nonpayable",
      "type": "function"
    },
    {
      "inputs": [
        {
          "internalType": "uint256",
          "name": "itemId",
          "type": "uint256"
        },
        {
          "internalType": "uint256",
          "name": "workflowState",
          "type": "uint256"
        }
      ],
      "name": "receptionIOT",
      "outputs": [],
      "stateMutability": "nonpayable",
      "type": "function"
    },
    {
      "inputs": [],
      "name": "renounceOwnership",
      "outputs": [],
      "stateMutability": "nonpayable",
      "type": "function"
    },
    {
      "inputs": [
        {
          "internalType": "address",
          "name": "from",
          "type": "address"
        },
        {
          "internalType": "address",
          "name": "to",
          "type": "address"
        },
        {
          "internalType": "uint256",
          "name": "tokenId",
          "type": "uint256"
        }
      ],
      "name": "safeTransferFrom",
      "outputs": [],
      "stateMutability": "nonpayable",
      "type": "function"
    },
    {
      "inputs": [
        {
          "internalType": "address",
          "name": "from",
          "type": "address"
        },
        {
          "internalType": "address",
          "name": "to",
          "type": "address"
        },
        {
          "internalType": "uint256",
          "name": "tokenId",
          "type": "uint256"
        },
        {
          "internalType": "bytes",
          "name": "data",
          "type": "bytes"
        }
      ],
      "name": "safeTransferFrom",
      "outputs": [],
      "stateMutability": "nonpayable",
      "type": "function"
    },
    {
      "inputs": [
        {
          "internalType": "address",
          "name": "addressContratMateriel",
          "type": "address"
        }
      ],
      "name": "setAddressContratMateriel",
      "outputs": [],
      "stateMutability": "nonpayable",
      "type": "function"
    },
    {
      "inputs": [
        {
          "internalType": "address",
          "name": "addressContratRole",
          "type": "address"
        }
      ],
      "name": "setAddressContratRole",
      "outputs": [],
      "stateMutability": "nonpayable",
      "type": "function"
    },
    {
      "inputs": [
        {
          "internalType": "address",
          "name": "operator",
          "type": "address"
        },
        {
          "internalType": "bool",
          "name": "approved",
          "type": "bool"
        }
      ],
      "name": "setApprovalForAll",
      "outputs": [],
      "stateMutability": "nonpayable",
      "type": "function"
    },
    {
      "inputs": [
        {
          "internalType": "bytes4",
          "name": "interfaceId",
          "type": "bytes4"
        }
      ],
      "name": "supportsInterface",
      "outputs": [
        {
          "internalType": "bool",
          "name": "",
          "type": "bool"
        }
      ],
      "stateMutability": "view",
      "type": "function"
    },
    {
      "inputs": [],
      "name": "symbol",
      "outputs": [
        {
          "internalType": "string",
          "name": "",
          "type": "string"
        }
      ],
      "stateMutability": "view",
      "type": "function"
    },
    {
      "inputs": [
        {
          "internalType": "uint256",
          "name": "tokenId",
          "type": "uint256"
        }
      ],
      "name": "tokenURI",
      "outputs": [
        {
          "internalType": "string",
          "name": "",
          "type": "string"
        }
      ],
      "stateMutability": "view",
      "type": "function"
    },
    {
      "inputs": [
        {
          "internalType": "uint256",
          "name": "idMateriel",
          "type": "uint256"
        },
        {
          "internalType": "string",
          "name": "uri",
          "type": "string"
        },
        {
          "internalType": "string",
          "name": "urlImage",
          "type": "string"
        },
        {
          "internalType": "string",
          "name": "referenceMateriel",
          "type": "string"
        }
      ],
      "name": "tokenisation",
      "outputs": [],
      "stateMutability": "nonpayable",
      "type": "function"
    },
    {
      "inputs": [
        {
          "internalType": "address",
          "name": "from",
          "type": "address"
        },
        {
          "internalType": "address",
          "name": "to",
          "type": "address"
        },
        {
          "internalType": "uint256",
          "name": "tokenId",
          "type": "uint256"
        }
      ],
      "name": "transferFrom",
      "outputs": [],
      "stateMutability": "nonpayable",
      "type": "function"
    },
    {
      "inputs": [
        {
          "internalType": "address",
          "name": "newOwner",
          "type": "address"
        }
      ],
      "name": "transferOwnership",
      "outputs": [],
      "stateMutability": "nonpayable",
      "type": "function"
    },
    {
      "inputs": [],
      "name": "unpause",
      "outputs": [],
      "stateMutability": "nonpayable",
      "type": "function"
    },
    {
      "inputs": [
        {
          "internalType": "address",
          "name": "newImplementation",
          "type": "address"
        },
        {
          "internalType": "bytes",
          "name": "data",
          "type": "bytes"
        }
      ],
      "name": "upgradeToAndCall",
      "outputs": [],
      "stateMutability": "payable",
      "type": "function"
    }
  ],
  "bytecode": "0x60a06040523060805234801561001457600080fd5b5060805161467b61003e600039600081816121450152818161216e01526127b6015261467b6000f3fe6080604052600436106101da5760003560e01c806370a0823111610103578063a6487c531161009b578063a6487c5314610527578063ad3cb1cc14610547578063b3a46b9314610578578063b88d4fde14610598578063bcc68b2b146105b8578063c87b56dd146105d8578063e985e9c5146105f8578063efbb93d014610618578063f2fde38b14610638578063f3ee11a21461065857600080fd5b806370a0823114610433578063715018a6146104535780638307df12146104685780638456cb59146104885780638da5cb5b1461049d57806395d89b41146104b25780639bad155e146104c75780639f32d1a5146104e7578063a22cb4651461050757600080fd5b806342842e0e1161017657806342842e0e146103345780634f1ef286146103545780634fb75e4f1461036757806352d1902d1461037c5780635b06d2031461039e5780635c975abb146103be5780636077e144146103d35780636352211e146103f35780636d5128d71461041357600080fd5b806301ffc9a7146101df57806306fdde0314610215578063081812fc14610237578063095ea7b3146102645780630d8e6e2c146102865780630dc05e59146102b257806310b50626146102d257806323b872dd146102ff5780633f4ba83a1461031f575b600080fd5b3480156101eb57600080fd5b506101ff6101fa366004613662565b610678565b60405161020c919061368d565b60405180910390f35b34801561022157600080fd5b5061022a6106a3565b60405161020c91906136fd565b34801561024357600080fd5b5061025761025236600461371f565b610744565b60405161020c919061375a565b34801561027057600080fd5b5061028461027f36600461377c565b610759565b005b34801561029257600080fd5b50604080518082019091526003815262312e3160e81b602082015261022a565b3480156102be57600080fd5b506102846102cd3660046137b9565b610768565b3480156102de57600080fd5b506102f26102ed3660046137db565b610954565b60405161020c9190613872565b34801561030b57600080fd5b5061028461031a366004613883565b610a62565b34801561032b57600080fd5b50610284610ad9565b34801561034057600080fd5b5061028461034f366004613883565b610aeb565b6102846103623660046139c6565b610b0b565b34801561037357600080fd5b5061022a610b26565b34801561038857600080fd5b50610391610beb565b60405161020c9190613a19565b3480156103aa57600080fd5b5061022a6103b93660046137db565b610c08565b3480156103ca57600080fd5b506101ff610cf4565b3480156103df57600080fd5b50600354610257906001600160a01b031681565b3480156103ff57600080fd5b5061025761040e36600461371f565b610d09565b34801561041f57600080fd5b5061028461042e3660046137db565b610d14565b34801561043f57600080fd5b5061039161044e3660046137db565b610d3e565b34801561045f57600080fd5b50610284610d96565b34801561047457600080fd5b506102846104833660046137db565b610da8565b34801561049457600080fd5b50610284610dd2565b3480156104a957600080fd5b50610257610de2565b3480156104be57600080fd5b5061022a610dfd565b3480156104d357600080fd5b506102846104e2366004613a27565b610e1a565b3480156104f357600080fd5b5061022a6105023660046137db565b61114a565b34801561051357600080fd5b50610284610522366004613aec565b611533565b34801561053357600080fd5b50610284610542366004613b1f565b61153e565b34801561055357600080fd5b5061022a604051806040016040528060058152602001640352e302e360dc1b81525081565b34801561058457600080fd5b5061028461059336600461377c565b611672565b3480156105a457600080fd5b506102846105b3366004613bb2565b61179f565b3480156105c457600080fd5b50600254610257906001600160a01b031681565b3480156105e457600080fd5b5061022a6105f336600461371f565b6117b6565b34801561060457600080fd5b506101ff610613366004613bf9565b6118c9565b34801561062457600080fd5b506102846106333660046137b9565b611908565b34801561064457600080fd5b506102846106533660046137db565b611912565b34801561066457600080fd5b5061022a6106733660046137db565b611950565b60006001600160e01b03198216632483248360e11b148061069d575061069d82611d1b565b92915050565b606060006106af611d6b565b90508060000180546106c090613c42565b80601f01602080910402602001604051908101604052809291908181526020018280546106ec90613c42565b80156107395780601f1061070e57610100808354040283529160200191610739565b820191906000526020600020905b81548152906001019060200180831161071c57829003601f168201915b505050505091505090565b600061074f82611d8f565b5061069d82611dc6565b610764828233611def565b5050565b61078b6040518060600160405280602481526020016145ab602491398383611dfc565b6000828152600460205260409020600101546001600160a01b031633146107cd5760405162461bcd60e51b81526004016107c490613c8e565b60405180910390fd5b8015806107da5750806001145b806107e55750806002145b6108015760405162461bcd60e51b81526004016107c490613ccb565b8060000361087f576000828152600460205260409020600781018054426006840155336001600160a81b031990911617600160a11b1790558054600190910154610858916001600160a01b03908116911684610a62565b60008281526004602052604090205461087a906001600160a01b031683610759565b6108ef565b806001036108ae576000828152600460205260409020600701805460ff60a01b1916600360a01b1790556108ef565b600082815260046020526040902060078101805460ff60a01b1916600160a21b179055600181015490546108ef916001600160a01b03908116911684610a62565b60008281526004602052604090819020805460019091015491516001600160a01b0391821692909116907f0b2b0b9cd2852db9a263848c6174c04304ce5b5d76c710f722992b1e7a942791906109489086908690613cf1565b60405180910390a35050565b606061098f60405180604001604052806017815260200176676574496442794f776e6572206164647265737320257360481b81525083611e43565b60008061099b84611e88565b6001600160401b038111156109b2576109b26138d3565b6040519080825280602002602001820160405280156109e557816020015b60608152602001906001900390816109d05790505b50905060005b600054811015610a5a57846001600160a01b0316610a0882610d09565b6001600160a01b031603610a4857610a1f81611f16565b8284610a2a81613d22565b955081518110610a3c57610a3c613d3b565b60200260200101819052505b80610a5281613d22565b9150506109eb565b509392505050565b6001600160a01b038216610a8c576000604051633250574960e11b81526004016107c4919061375a565b6000610a99838333611fa8565b9050836001600160a01b0316816001600160a01b031614610ad3578382826040516364283d7b60e01b81526004016107c493929190613d51565b50505050565b610ae16120b1565b610ae96120e3565b565b610b068383836040518060200160405280600081525061179f565b505050565b610b1361213a565b610b1c826121df565b61076482826121e7565b6040805180820190915260018152605b60f81b60208201526060906000805b6000548160ff161015610b965782610b5d838361229a565b604051602001610b6e929190613d9b565b6040516020818303038152906040529250600191508080610b8e90613db1565b915050610b45565b5081604051602001610ba89190613dc7565b60408051601f19818403018152828201909152601182527002539b7b721b7b6b6b0b73232b99012b99607d1b60208301529250610be59083612766565b50919050565b6000610bf56127ab565b506000805160206145f083398151915290565b6040805180820190915260018152605b60f81b60208201526060906000805b6000548160ff161015610c9c57846001600160a01b0316610c4a8260ff16610d09565b6001600160a01b031603610c8a5782610c63838361229a565b604051602001610c74929190613d9b565b6040516020818303038152906040529250600191505b80610c9481613db1565b915050610c27565b5081604051602001610cae9190613dc7565b60408051601f19818403018152828201909152601382527203539b7b726bca6b0ba32b934b2b6399012b99606d1b60208301529250610ced9083612766565b5092915050565b600080610cff6127f4565b5460ff1692915050565b600061069d82611d8f565b610d1c6120b1565b600380546001600160a01b0319166001600160a01b0392909216919091179055565b600080610d49611d6b565b90506001600160a01b038316610d755760006040516322718ad960e21b81526004016107c4919061375a565b6001600160a01b039092166000908152600390920160205250604090205490565b610d9e6120b1565b610ae96000612818565b610db06120b1565b600280546001600160a01b0319166001600160a01b0392909216919091179055565b610dda6120b1565b610ae9612874565b600080610ded6128bb565b546001600160a01b031692915050565b60606000610e09611d6b565b90508060010180546106c090613c42565b600254604051631effddf560e21b815233916000916001600160a01b0390911690637bff77d490610e4f90859060040161375a565b600060405180830381865afa158015610e6c573d6000803e3d6000fd5b505050506040513d6000823e601f3d908101601f19168201604052610e949190810190613e39565b6040516420b236b4b760d91b60208201529091506025016040516020818303038152906040528051906020012081604051602001610ed29190613e73565b604051602081830303815290604052805190602001201480610f4857506040516a2337bab93734b9b9b2bab960a91b6020820152602b016040516020818303038152906040528051906020012081604051602001610f309190613e73565b60405160208183030381529060405280519060200120145b610f645760405162461bcd60e51b81526004016107c490613ea1565b610f88604051806060016040528060368152602001614610603691398787866128df565b610f9433600054612928565b610fa060005486612942565b604051806101200160405280336001600160a01b0316815260200160006001600160a01b03168152602001878152602001848152602001858152602001600081526020016000815260200160006001600160a01b031681526020016000600481111561100e5761100e613cdb565b905260008054815260046020908152604091829020835181546001600160a01b03199081166001600160a01b0392831617835592850151600183018054909416911617909155908201516002820155606082015160038201906110719082613f6e565b50608082015160048201906110869082613f6e565b5060a0820151600582015560c0820151600682015560e08201516007820180546001600160a01b039092166001600160a01b0319831681178255610100850151926001600160a81b03191617600160a01b8360048111156110e9576110e9613cdb565b0217905550506000546040513392507f87a149df8c648541e8984a3f6382b2ce57781dd46bd729f772c3989cc9a76c7c9161112391613a19565b60405180910390a2600160008082825461113d9190614028565b9091555050505050505050565b606061118b6040518060400160405280601d81526020017f67657449644279466f75726e697373657572206164647265737320257300000081525083611e43565b60408051808201825260018152605b60f81b602080830191909152825190810190925260008083529091815b6000548110156114db57600081815260046020908152604080832081516101208101835281546001600160a01b0390811682526001830154169381019390935260028101549183019190915260038101805460608401919061121890613c42565b80601f016020809104026020016040519081016040528092919081815260200182805461124490613c42565b80156112915780601f1061126657610100808354040283529160200191611291565b820191906000526020600020905b81548152906001019060200180831161127457829003601f168201915b505050505081526020016004820180546112aa90613c42565b80601f01602080910402602001604051908101604052809291908181526020018280546112d690613c42565b80156113235780601f106112f857610100808354040283529160200191611323565b820191906000526020600020905b81548152906001019060200180831161130657829003601f168201915b5050509183525050600582015460208201526006820154604082015260078201546001600160a01b0381166060830152608090910190600160a01b900460ff16600481111561137457611374613cdb565b600481111561138557611385613cdb565b815250509050866001600160a01b031681600001516001600160a01b03161480156113c75750600281610100015160048111156113c4576113c4613cdb565b14155b156114c85783156113ef57604051806040016040528060018152602001600b60fa1b81525092505b600354604080830151905163a80f602d60e01b81526000926001600160a01b03169163a80f602d916114249190600401613a19565b600060405180830381865afa158015611441573d6000803e3d6000fd5b505050506040513d6000823e601f3d908101601f191682016040526114699190810190613e39565b905061148d6040518060600160405280602181526020016145cf6021913982612766565b858461149885611f16565b60608501516040516114b194939291869160200161407a565b604051602081830303815290604052955060019450505b50806114d381613d22565b9150506111b7565b50826040516020016114ed9190613dc7565b60408051601f19818403018152828201909152601182527002539b7b721b7b6b6b0b73232b99012b99607d1b6020830152935061152a9084612766565b50909392505050565b6107643383836129a4565b6000611548612a4d565b805490915060ff600160401b82041615906001600160401b031660008115801561156f5750825b90506000826001600160401b0316600114801561158b5750303b155b905081158015611599575080155b156115b75760405163f92ee8a960e01b815260040160405180910390fd5b845467ffffffffffffffff1916600117855583156115e157845460ff60401b1916600160401b1785555b6115eb8888612a71565b6115f3612a83565b6115fc33612a8b565b611604612a83565b61160c612a9c565b60008055600161161c8782613f6e565b50831561166857845460ff60401b191685556040517fc7f505b2f371ae2175ee4913f4499e1f2633a7b5936321eed1cdaeb6115181d29061165f90600190614122565b60405180910390a15b5050505050505050565b6116b26040518060400160405280601f81526020017f65787065646974696f6e2061646472657373202573206974656d4964202573008152508383612aac565b6001600160a01b0382166116d85760405162461bcd60e51b81526004016107c490614157565b6000818152600460205260409020546001600160a01b0316331461170e5760405162461bcd60e51b81526004016107c490614192565b6117188282610759565b60008181526004602052604080822042600582015560068101929092556001820180546001600160a01b0386166001600160a01b03199091168117909155600790920180546001600160a81b031916600160a01b1790555133907ffaa2c8a22696158f969938e11eaba6b662b2879a83841f1b0499692e1af8ca8190610948908590613a19565b6117aa848484610a62565b610ad384848484612af3565b606060006117c2612c0a565b90506117cd83611d8f565b50600083815260208290526040812080546117e790613c42565b80601f016020809104026020016040519081016040528092919081815260200182805461181390613c42565b80156118605780601f1061183557610100808354040283529160200191611860565b820191906000526020600020905b81548152906001019060200180831161184357829003601f168201915b505050505090506000611871612c2e565b9050805160000361188457509392505050565b8151156118b757808260405160200161189e929190613d9b565b6040516020818303038152906040529350505050919050565b6118c085612cc0565b95945050505050565b6000806118d4611d6b565b6001600160a01b03948516600090815260059190910160209081526040808320959096168252939093525050205460ff1690565b6107648282610768565b61191a6120b1565b6001600160a01b038116611944576000604051631e4fbdf760e01b81526004016107c4919061375a565b61194d81612818565b50565b606061198e6040518060400160405280601a8152602001796765744a736f6e4279436c69656e74206164647265737320257360301b81525083611e43565b60408051808201825260018152605b60f81b602080830191909152825190810190925260008083529091815b6000548110156114db57600081815260046020908152604080832081516101208101835281546001600160a01b03908116825260018301541693810193909352600281015491830191909152600381018054606084019190611a1b90613c42565b80601f0160208091040260200160405190810160405280929190818152602001828054611a4790613c42565b8015611a945780601f10611a6957610100808354040283529160200191611a94565b820191906000526020600020905b815481529060010190602001808311611a7757829003601f168201915b50505050508152602001600482018054611aad90613c42565b80601f0160208091040260200160405190810160405280929190818152602001828054611ad990613c42565b8015611b265780601f10611afb57610100808354040283529160200191611b26565b820191906000526020600020905b815481529060010190602001808311611b0957829003601f168201915b5050509183525050600582015460208201526006820154604082015260078201546001600160a01b0381166060830152608090910190600160a01b900460ff166004811115611b7757611b77613cdb565b6004811115611b8857611b88613cdb565b815250509050611bca6040518060400160405280601a8152602001796765744a736f6e4279436c69656e74206164647265737320257360301b81525088611e43565b866001600160a01b031681602001516001600160a01b0316148015611c06575060038161010001516004811115611c0357611c03613cdb565b14155b8015611c29575060048161010001516004811115611c2657611c26613cdb565b14155b15611d08578315611c5157604051806040016040528060018152602001600b60fa1b81525092505b600354604080830151905163a80f602d60e01b81526000926001600160a01b03169163a80f602d91611c869190600401613a19565b600060405180830381865afa158015611ca3573d6000803e3d6000fd5b505050506040513d6000823e601f3d908101601f19168201604052611ccb9190810190613e39565b90508584611cd885611f16565b6060850151604051611cf194939291869160200161407a565b604051602081830303815290604052955060019450505b5080611d1381613d22565b9150506119ba565b60006001600160e01b031982166380ac58cd60e01b1480611d4c57506001600160e01b03198216635b5e139f60e01b145b8061069d57506301ffc9a760e01b6001600160e01b031983161461069d565b7f80bb2b638cc20bc4d0a60d66940f3ab4a00c1d7b313497ca82fb0b4ab007930090565b600080611d9b83612d27565b90506001600160a01b03811661069d5782604051637e27328960e01b81526004016107c49190613a19565b600080611dd1611d6b565b6000938452600401602052505060409020546001600160a01b031690565b610b068383836001612d50565b610b06838383604051602401611e14939291906141a2565b60408051601f198184030181529190526020810180516001600160e01b031663ca47c4eb60e01b179052612e5a565b6107648282604051602401611e599291906141cf565b60408051601f198184030181529190526020810180516001600160e01b031663319af33360e01b179052612e5a565b600080805b600054811015611ed857836001600160a01b0316611eaa82610d09565b6001600160a01b031603611ec65781611ec281613d22565b9250505b80611ed081613d22565b915050611e8d565b5061069d6040518060400160405280601b81526020017a67657453697a6542794f776e6572206974656d436f756e7420257360281b81525082612e63565b60606000611f2383612ea8565b60010190506000816001600160401b03811115611f4257611f426138d3565b6040519080825280601f01601f191660200182016040528015611f6c576020820181803683370190505b5090508181016020015b600019016f181899199a1a9b1b9c1cb0b131b232b360811b600a86061a8153600a8504945084611f7657509392505050565b600080611fb3611d6b565b90506000611fc085612d27565b90506001600160a01b03841615611fdc57611fdc818587612f7e565b6001600160a01b0381161561201c57611ff9600086600080612d50565b6001600160a01b0381166000908152600383016020526040902080546000190190555b6001600160a01b0386161561204d576001600160a01b03861660009081526003830160205260409020805460010190555b600085815260028301602052604080822080546001600160a01b0319166001600160a01b038a811691821790925591518893918516917fddf252ad1be2c89b69c2b068fc378daa952ba7f163c4a11628f55a4df523b3ef91a49150505b9392505050565b336120ba610de2565b6001600160a01b031614610ae9573360405163118cdaa760e01b81526004016107c4919061375a565b6120eb612fd3565b60006120f56127f4565b805460ff1916815590507f5db9ee0a495bf2e6ff9c91a7834c1ba4fdd244a5e8aa4e537bd38aeae4b073aa335b60405161212f919061375a565b60405180910390a150565b306001600160a01b037f00000000000000000000000000000000000000000000000000000000000000001614806121c157507f00000000000000000000000000000000000000000000000000000000000000006001600160a01b03166121b56000805160206145f0833981519152546001600160a01b031690565b6001600160a01b031614155b15610ae95760405163703e46dd60e11b815260040160405180910390fd5b61194d6120b1565b816001600160a01b03166352d1902d6040518163ffffffff1660e01b8152600401602060405180830381865afa925050508015612241575060408051601f3d908101601f1916820190925261223e918101906141fa565b60015b6122605781604051634c9c8ce360e01b81526004016107c4919061375a565b6000805160206145f083398151915281146122905780604051632a87526960e21b81526004016107c49190613a19565b610b068383612ff8565b6040805160208082018352600080835260ff851681526004825283812084516101208101865281546001600160a01b03908116825260018301541693810193909352600281015494830194909452600384018054606095929392918387019161230290613c42565b80601f016020809104026020016040519081016040528092919081815260200182805461232e90613c42565b801561237b5780601f106123505761010080835404028352916020019161237b565b820191906000526020600020905b81548152906001019060200180831161235e57829003601f168201915b5050505050815260200160048201805461239490613c42565b80601f01602080910402602001604051908101604052809291908181526020018280546123c090613c42565b801561240d5780601f106123e25761010080835404028352916020019161240d565b820191906000526020600020905b8154815290600101906020018083116123f057829003601f168201915b5050509183525050600582015460208201526006820154604082015260078201546001600160a01b0381166060830152608090910190600160a01b900460ff16600481111561245e5761245e613cdb565b600481111561246f5761246f613cdb565b9052509050600061248260ff86166117b6565b6002546020840151604051632163b10160e01b81529293506000926001600160a01b0390921691632163b101916124bb9160040161375a565b600060405180830381865afa1580156124d8573d6000803e3d6000fd5b505050506040513d6000823e601f3d908101601f191682016040526125009190810190613e39565b600254845160405163e2339ba360e01b81529293506000926001600160a01b039092169163e2339ba3916125369160040161375a565b600060405180830381865afa158015612553573d6000803e3d6000fd5b505050506040513d6000823e601f3d908101601f1916820160405261257b9190810190613e39565b60025460e0860151604051634713a58f60e01b81529293506000926001600160a01b0390921691634713a58f916125b49160040161375a565b600060405180830381865afa1580156125d1573d6000803e3d6000fd5b505050506040513d6000823e601f3d908101601f191682016040526125f99190810190613e39565b600354604080880151905163a80f602d60e01b81529293506000926001600160a01b039092169163a80f602d9161263291600401613a19565b600060405180830381865afa15801561264f573d6000803e3d6000fd5b505050506040513d6000823e601f3d908101601f191682016040526126779190810190613e39565b9050891561269c57604051806040016040528060018152602001600b60fa1b81525096505b6000876126ab8b60ff16611f16565b876126b98a6000015161304e565b876126c78c6020015161304e565b60608d015160808e01516040516126ea989796959493928e928c9260200161421b565b6040516020818303038152906040529050806127098860a00151611f16565b6127168960c00151611f16565b6127238a60e0015161304e565b866127328c6101000151613064565b6040516020016127479695949392919061436a565b60408051808303601f190181529190529b9a5050505050505050505050565b610764828260405160240161277c929190614453565b60408051601f198184030181529190526020810180516001600160e01b0316634b5c427760e01b179052612e5a565b306001600160a01b037f00000000000000000000000000000000000000000000000000000000000000001614610ae95760405163703e46dd60e11b815260040160405180910390fd5b7fcd5ed15c6e187e77e9aee88184c21f4f2182ab5827cb3b7e07fbedcd63f0330090565b60006128226128bb565b80546001600160a01b038481166001600160a01b031983168117845560405193945091169182907f8be0079c531659141344cd1fd0a4f28419497f9722a3daafe3b4186f6b6457e090600090a3505050565b61287c6131b0565b60006128866127f4565b805460ff1916600117815590507f62e78cea01bee320cd4e420270b5ea74000d11b0c9f74754ebdbfc544b05a2586121223390565b7f9016d09d72d40fdae2fd8ceac6b6234c7706214fd39c1cd1e609a0528c19930090565b610ad3848484846040516024016128f99493929190614478565b60408051601f198184030181529190526020810180516001600160e01b0316635ab84e1f60e01b179052612e5a565b6107648282604051806020016040528060008152506131d6565b600061294c612c0a565b60008481526020829052604090209091506129678382613f6e565b507ff8e1a15aba9398e019f0b49df1a4fde98ee17ae345cb5f6b5e2c27f5033e8ce7836040516129979190613a19565b60405180910390a1505050565b60006129ae611d6b565b90506001600160a01b0383166129d95782604051630b61174360e31b81526004016107c4919061375a565b6001600160a01b03848116600081815260058401602090815260408083209488168084529490915290819020805460ff1916861515179055517f17307eab39ab6107e8899845ad3d59bd9653f200f220920489ca2b5937696c3190612a3f90869061368d565b60405180910390a350505050565b7ff0c57e16840df040f15088dc2f81fe391c3923bec73e23a9662efc9c229c6a0090565b612a796131ed565b6107648282613212565b610ae96131ed565b612a936131ed565b61194d81613240565b612aa46131ed565b610ae9613248565b610b06838383604051602401612ac4939291906144c8565b60408051601f198184030181529190526020810180516001600160e01b0316630d26b92560e01b179052612e5a565b6001600160a01b0383163b15610ad357604051630a85bd0160e11b81526001600160a01b0384169063150b7a0290612b359033908890879087906004016144e8565b6020604051808303816000875af1925050508015612b70575060408051601f3d908101601f19168201909252612b6d9181019061452d565b60015b612bd0573d808015612b9e576040519150601f19603f3d011682016040523d82523d6000602084013e612ba3565b606091505b508051600003612bc85783604051633250574960e11b81526004016107c4919061375a565b805181602001fd5b6001600160e01b03198116630a85bd0160e11b14612c035783604051633250574960e11b81526004016107c4919061375a565b5050505050565b7f0542a41881ee128a365a727b282c86fa859579490b9bb45aab8503648c8e790090565b606060018054612c3d90613c42565b80601f0160208091040260200160405190810160405280929190818152602001828054612c6990613c42565b8015612cb65780601f10612c8b57610100808354040283529160200191612cb6565b820191906000526020600020905b815481529060010190602001808311612c9957829003601f168201915b5050505050905090565b6060612ccb82611d8f565b506000612cd6612c2e565b90506000815111612cf657604051806020016040528060008152506120aa565b80612d0084611f16565b604051602001612d11929190613d9b565b6040516020818303038152906040529392505050565b600080612d32611d6b565b6000938452600201602052505060409020546001600160a01b031690565b6000612d5a611d6b565b90508180612d7057506001600160a01b03831615155b15612e29576000612d8085611d8f565b90506001600160a01b03841615801590612dac5750836001600160a01b0316816001600160a01b031614155b8015612dbf5750612dbd81856118c9565b155b15612ddf578360405163a9fbf51f60e01b81526004016107c4919061375a565b8215612e275784866001600160a01b0316826001600160a01b03167f8c5be1e5ebec7d5bd14f71427d1e84f3dd0314c0f7b2291e5b200ac8c7c3b92560405160405180910390a45b505b600093845260040160205250506040902080546001600160a01b0319166001600160a01b0392909216919091179055565b61194d81613265565b6107648282604051602401612e7992919061454e565b60408051601f198184030181529190526020810180516001600160e01b0316632d839cb360e21b179052612e5a565b60008072184f03e93ff9f4daa797ed6e38ed64bf6a1f0160401b8310612ee75772184f03e93ff9f4daa797ed6e38ed64bf6a1f0160401b830492506040015b6904ee2d6d415b85acef8160201b8310612f11576904ee2d6d415b85acef8160201b830492506020015b662386f26fc100008310612f2f57662386f26fc10000830492506010015b6305f5e1008310612f47576305f5e100830492506008015b6127108310612f5b57612710830492506004015b60648310612f6d576064830492506002015b600a831061069d5760010192915050565b612f89838383613286565b610b06576001600160a01b038316612fb65780604051637e27328960e01b81526004016107c49190613a19565b818160405163177e802f60e01b81526004016107c492919061456e565b612fdb610cf4565b610ae957604051638dfc202b60e01b815260040160405180910390fd5b613001826132ec565b6040516001600160a01b038316907fbc7cd75a20ee27fd9adebab32041f755214dbc6bffa90cc0225b39da2e5c2d3b90600090a280511561304657610b068282613348565b6107646133b5565b606061069d6001600160a01b03831660146133d4565b606081600481111561307857613078613cdb565b6000036130a357505060408051808201909152600881526721b932b0ba34b7b760c11b602082015290565b8160048111156130b5576130b5613cdb565b6001036130e257505060408051808201909152600a81526922bc3832b234ba34b7b760b11b602082015290565b8160048111156130f4576130f4613cdb565b6002036131205750506040805180820190915260098152682932b1b2b83a34b7b760b91b602082015290565b81600481111561313257613132613cdb565b60030361315f57505060408051808201909152600a81526920b7373ab630ba34b7b760b11b602082015290565b81600481111561317157613171613cdb565b60040361319c5750506040805180820190915260088152672932b73b37bcb2b960c11b602082015290565b505060408051602081019091526000815290565b6131b8610cf4565b15610ae95760405163d93c066560e01b815260040160405180910390fd5b6131e08383613545565b610b066000848484612af3565b6131f56135aa565b610ae957604051631afcd79f60e31b815260040160405180910390fd5b61321a6131ed565b6000613224611d6b565b9050806132318482613f6e565b5060018101610ad38382613f6e565b61191a6131ed565b6132506131ed565b600061325a6127f4565b805460ff1916905550565b60006a636f6e736f6c652e6c6f679050600080835160208501845afa505050565b60006001600160a01b038316158015906132e45750826001600160a01b0316846001600160a01b031614806132c057506132c084846118c9565b806132e45750826001600160a01b03166132d983611dc6565b6001600160a01b0316145b949350505050565b806001600160a01b03163b6000036133195780604051634c9c8ce360e01b81526004016107c4919061375a565b6000805160206145f083398151915280546001600160a01b0319166001600160a01b0392909216919091179055565b6060600080846001600160a01b0316846040516133659190613e73565b600060405180830381855af49150503d80600081146133a0576040519150601f19603f3d011682016040523d82523d6000602084013e6133a5565b606091505b50915091506118c08583836135c4565b3415610ae95760405163b398979f60e01b815260040160405180910390fd5b60608260006133e484600261457c565b6133ef906002614028565b6001600160401b03811115613406576134066138d3565b6040519080825280601f01601f191660200182016040528015613430576020820181803683370190505b509050600360fc1b8160008151811061344b5761344b613d3b565b60200101906001600160f81b031916908160001a905350600f60fb1b8160018151811061347a5761347a613d3b565b60200101906001600160f81b031916908160001a905350600061349e85600261457c565b6134a9906001614028565b90505b6001811115613521576f181899199a1a9b1b9c1cb0b131b232b360811b83600f16601081106134dd576134dd613d3b565b1a60f81b8282815181106134f3576134f3613d3b565b60200101906001600160f81b031916908160001a90535060049290921c9161351a81614593565b90506134ac565b5081156132e457848460405163e22e27eb60e01b81526004016107c4929190613cf1565b6001600160a01b03821661356f576000604051633250574960e11b81526004016107c4919061375a565b600061357d83836000611fa8565b90506001600160a01b03811615610b065760006040516339e3563760e11b81526004016107c4919061375a565b60006135b4612a4d565b54600160401b900460ff16919050565b6060826135d9576135d482613617565b6120aa565b81511580156135f057506001600160a01b0384163b155b156136105783604051639996b31560e01b81526004016107c4919061375a565b50806120aa565b8051156136275780518082602001fd5b604051630a12f52160e11b815260040160405180910390fd5b6001600160e01b031981165b811461194d57600080fd5b803561069d81613640565b60006020828403121561367757613677600080fd5b60006132e48484613657565b8015155b82525050565b6020810161069d8284613683565b60005b838110156136b657818101518382015260200161369e565b50506000910152565b601f01601f191690565b60006136d3825190565b8084526020840193506136ea81856020860161369b565b6136f3816136bf565b9093019392505050565b602080825281016120aa81846136c9565b8061364c565b803561069d8161370e565b60006020828403121561373457613734600080fd5b60006132e48484613714565b60006001600160a01b03821661069d565b61368781613740565b6020810161069d8284613751565b61364c81613740565b803561069d81613768565b6000806040838503121561379257613792600080fd5b600061379e8585613771565b92505060206137af85828601613714565b9150509250929050565b600080604083850312156137cf576137cf600080fd5b600061379e8585613714565b6000602082840312156137f0576137f0600080fd5b60006132e48484613771565b60006120aa83836136c9565b60200190565b6000613818825190565b808452602084019350836020820285016138328560200190565b60005b84811015613866578383038852815161384e84826137fc565b93505060208201602098909801979150600101613835565b50909695505050505050565b602080825281016120aa818461380e565b60008060006060848603121561389b5761389b600080fd5b60006138a78686613771565b93505060206138b886828701613771565b92505060406138c986828701613714565b9150509250925092565b634e487b7160e01b600052604160045260246000fd5b6138f2826136bf565b81018181106001600160401b038211171561390f5761390f6138d3565b6040525050565b600061392160405190565b905061392d82826138e9565b919050565b60006001600160401b0382111561394b5761394b6138d3565b613954826136bf565b60200192915050565b82818337506000910152565b600061397c61397784613932565b613916565b90508281526020810184848401111561399757613997600080fd5b610a5a84828561395d565b600082601f8301126139b6576139b6600080fd5b81356132e4848260208601613969565b600080604083850312156139dc576139dc600080fd5b60006139e88585613771565b92505060208301356001600160401b03811115613a0757613a07600080fd5b6137af858286016139a2565b80613687565b6020810161069d8284613a13565b60008060008060808587031215613a4057613a40600080fd5b6000613a4c8787613714565b94505060208501356001600160401b03811115613a6b57613a6b600080fd5b613a77878288016139a2565b93505060408501356001600160401b03811115613a9657613a96600080fd5b613aa2878288016139a2565b92505060608501356001600160401b03811115613ac157613ac1600080fd5b613acd878288016139a2565b91505092959194509250565b80151561364c565b803561069d81613ad9565b60008060408385031215613b0257613b02600080fd5b6000613b0e8585613771565b92505060206137af85828601613ae1565b600080600060608486031215613b3757613b37600080fd5b83356001600160401b03811115613b5057613b50600080fd5b613b5c868287016139a2565b93505060208401356001600160401b03811115613b7b57613b7b600080fd5b613b87868287016139a2565b92505060408401356001600160401b03811115613ba657613ba6600080fd5b6138c9868287016139a2565b60008060008060808587031215613bcb57613bcb600080fd5b6000613bd78787613771565b9450506020613be887828801613771565b9350506040613aa287828801613714565b60008060408385031215613c0f57613c0f600080fd5b6000613c1b8585613771565b92505060206137af85828601613771565b634e487b7160e01b600052602260045260246000fd5b600281046001821680613c5657607f821691505b602082108103610be557610be5613c2c565b60118152602081017014185cc81b1948189bdb8818db1a595b9d607a1b81529050613808565b6020808252810161069d81613c68565b601881526020810177776f726b666c6f775374617465206e6f742076616c69646560401b81529050613808565b6020808252810161069d81613c9e565b634e487b7160e01b600052602160045260246000fd5b60408101613cff8285613a13565b6120aa6020830184613a13565b634e487b7160e01b600052601160045260246000fd5b600060018201613d3457613d34613d0c565b5060010190565b634e487b7160e01b600052603260045260246000fd5b60608101613d5f8286613751565b613d6c6020830185613a13565b6132e46040830184613751565b6000613d83825190565b613d9181856020860161369b565b9290920192915050565b613da58184613d79565b90506120aa8183613d79565b60ff16600060fe198201613d3457613d34613d0c565b613dd18183613d79565b605d60f81b815260010192915050565b6000613def61397784613932565b905082815260208101848484011115613e0a57613e0a600080fd5b610a5a84828561369b565b600082601f830112613e2957613e29600080fd5b81516132e4848260208601613de1565b600060208284031215613e4e57613e4e600080fd5b81516001600160401b03811115613e6757613e67600080fd5b6132e484828501613e15565b61069d8183613d79565b600f8152602081016e526f6c65206e6f742076616c69646560881b81529050613808565b6020808252810161069d81613e7d565b600061069d613ebd8381565b90565b613ec983613eb1565b815460001960089490940293841b1916921b91909117905550565b6000610b06818484613ec0565b8181101561076457613f04600082613ee4565b600101613ef1565b601f821115610b06576000818152602090206020601f85010481016020851015613f335750805b612c036020601f860104830182613ef1565b6000196008929092029190911c191690565b613f618282613f45565b6002909202909117919050565b81516001600160401b03811115613f8757613f876138d3565b613f918254613c42565b613f9c828285613f0c565b506020601f821160018114613fcb5760008315613fb95750848201515b613fc38482613f57565b855550612c03565b600084815260208120601f198516915b82811015613ffb5787850151825560209485019460019092019101613fdb565b50848210156140195783870151614015601f871682613f45565b8255505b50505050600202600101905550565b8082018082111561069d5761069d613d0c565b607b60f81b9052565b641134b2111d60d91b9052565b761116113932b332b932b731b2a6b0ba32b934b2b6111d1160491b9052565b61227d60f01b9052565b6140848187613d79565b90506140908186613d79565b905061409b8161403b565b6001016140a781614044565b6005016140b48185613d79565b6f16113737b6a6b0ba32b934b2b6111d1160811b815290506010016140d98184613d79565b90506140e481614051565b6017016140f18183613d79565b90506140fc81614070565b60020195945050505050565b60006001600160401b03821661069d565b61368781614108565b6020810161069d8284614119565b60128152602081017141646472657373206e6f742076616c69646560701b81529050613808565b6020808252810161069d81614130565b6016815260208101752830b9903632903137b7103337bab93734b9b9b2bab960511b81529050613808565b6020808252810161069d81614167565b606080825281016141b381866136c9565b90506141c26020830185613a13565b6132e46040830184613a13565b604080825281016141e081856136c9565b90506120aa6020830184613751565b805161069d8161370e565b60006020828403121561420f5761420f600080fd5b60006132e484846141ef565b614225818c613d79565b90506142308161403b565b60010161423c81614044565b600501614249818b613d79565b6716113ab934911d1160c11b81529050600801614266818a613d79565b701116113337bab93734b9b9b2bab9111d1160791b8152905060110161428c8189613d79565b731116113737b6a337bab93734b9b9b2bab9111d1160611b815290506014016142b58188613d79565b6b11161131b634b2b73a111d1160a11b81529050600c016142d68187613d79565b6e1116113737b6a1b634b2b73a111d1160891b81529050600f016142fa8186613d79565b701116113737b6a6b0ba32b934b2b6111d1160791b815290506011016143208185613d79565b905061432b81614051565b6017016143388184613d79565b6d1116113ab93624b6b0b3b2911d1160911b81529050600e0161435b8183613d79565b9b9a5050505050505050505050565b6143748188613d79565b721116113230ba32a2bc3832b234ba34b7b7111d60691b8152905060130161439c8187613d79565b7016113230ba32a932b1b2b83a34b7b7111d60791b815290506011016143c28186613d79565b74161130b2323932b9b9a932b1b2b83a34b7b7111d1160591b815290506015016143ec8185613d79565b711116113737b6a932b1b2b83a34b7b7111d1160711b815290506012016144138184613d79565b721116113bb7b935b33637bba9ba30ba32911d1160691b8152905060130161443b8183613d79565b905061444681614070565b6002019695505050505050565b6040808252810161446481856136c9565b905081810360208301526132e481846136c9565b6080808252810161448981876136c9565b90506144986020830186613a13565b81810360408301526144aa81856136c9565b905081810360608301526144be81846136c9565b9695505050505050565b606080825281016144d981866136c9565b90506141c26020830185613751565b608081016144f68287613751565b6145036020830186613751565b6145106040830185613a13565b81810360608301526144be81846136c9565b805161069d81613640565b60006020828403121561454257614542600080fd5b60006132e48484614522565b6040808252810161455f81856136c9565b90506120aa6020830184613a13565b60408101613cff8285613751565b818102811582820484141761069d5761069d613d0c565b6000816145a2576145a2613d0c565b50600019019056fe726563657074696f6e206974656d496420257320776f726b666c6f77537461746520257367657449644279466f75726e697373657572206e6f6d4d6174657269656c202573360894a13ba1a3210667c828492db98dca3e2076cc3735a920a3ca505d382bbc746f6b656e69736174696f6e2069644d6174657269656c20257320757269202573207265666572656e63654d6174657269656c202573a26469706673582212204dc1575811982fcafefff1f6388b1bdb717bea171879d7c29af09ceb9fe5022b64736f6c63430008150033",
  "linkReferences": {},
  "deployedLinkReferences": {}
}