{
  "_format": "hh-sol-artifact-1",
  "contractName": "Demonstrateur",
  "sourceName": "contracts/Demonstrateur.sol",
  "abi": [
    {
      "inputs": [
        {
          "internalType": "string",
          "name": "definitiveName",
          "type": "string"
        },
        {
          "internalType": "string",
          "name": "definitiveSymbol",
          "type": "string"
        },
        {
          "internalType": "string",
          "name": "definitiveBaseURI",
          "type": "string"
        }
      ],
      "stateMutability": "nonpayable",
      "type": "constructor"
    },
    {
      "anonymous": false,
      "inputs": [
        {
          "indexed": true,
          "internalType": "address",
          "name": "owner",
          "type": "address"
        },
        {
          "indexed": true,
          "internalType": "address",
          "name": "approved",
          "type": "address"
        },
        {
          "indexed": true,
          "internalType": "uint256",
          "name": "tokenId",
          "type": "uint256"
        }
      ],
      "name": "Approval",
      "type": "event"
    },
    {
      "anonymous": false,
      "inputs": [
        {
          "indexed": true,
          "internalType": "address",
          "name": "owner",
          "type": "address"
        },
        {
          "indexed": true,
          "internalType": "address",
          "name": "operator",
          "type": "address"
        },
        {
          "indexed": false,
          "internalType": "bool",
          "name": "approved",
          "type": "bool"
        }
      ],
      "name": "ApprovalForAll",
      "type": "event"
    },
    {
      "anonymous": false,
      "inputs": [
        {
          "indexed": true,
          "internalType": "address",
          "name": "previousOwner",
          "type": "address"
        },
        {
          "indexed": true,
          "internalType": "address",
          "name": "newOwner",
          "type": "address"
        }
      ],
      "name": "OwnershipTransferred",
      "type": "event"
    },
    {
      "anonymous": false,
      "inputs": [
        {
          "indexed": false,
          "internalType": "address",
          "name": "account",
          "type": "address"
        }
      ],
      "name": "Paused",
      "type": "event"
    },
    {
      "anonymous": false,
      "inputs": [
        {
          "indexed": true,
          "internalType": "address",
          "name": "from",
          "type": "address"
        },
        {
          "indexed": true,
          "internalType": "address",
          "name": "to",
          "type": "address"
        },
        {
          "indexed": true,
          "internalType": "uint256",
          "name": "tokenId",
          "type": "uint256"
        }
      ],
      "name": "Transfer",
      "type": "event"
    },
    {
      "anonymous": false,
      "inputs": [
        {
          "indexed": false,
          "internalType": "address",
          "name": "account",
          "type": "address"
        }
      ],
      "name": "Unpaused",
      "type": "event"
    },
    {
      "inputs": [],
      "name": "_uriQuantum",
      "outputs": [
        {
          "internalType": "string",
          "name": "",
          "type": "string"
        }
      ],
      "stateMutability": "view",
      "type": "function"
    },
    {
      "inputs": [],
      "name": "_uriS3200",
      "outputs": [
        {
          "internalType": "string",
          "name": "",
          "type": "string"
        }
      ],
      "stateMutability": "view",
      "type": "function"
    },
    {
      "inputs": [
        {
          "internalType": "address",
          "name": "to",
          "type": "address"
        },
        {
          "internalType": "uint256",
          "name": "tokenId",
          "type": "uint256"
        }
      ],
      "name": "approve",
      "outputs": [],
      "stateMutability": "nonpayable",
      "type": "function"
    },
    {
      "inputs": [
        {
          "internalType": "address",
          "name": "owner",
          "type": "address"
        }
      ],
      "name": "balanceOf",
      "outputs": [
        {
          "internalType": "uint256",
          "name": "",
          "type": "uint256"
        }
      ],
      "stateMutability": "view",
      "type": "function"
    },
    {
      "inputs": [
        {
          "internalType": "address",
          "name": "client",
          "type": "address"
        },
        {
          "internalType": "uint256",
          "name": "typeMateriel",
          "type": "uint256"
        },
        {
          "internalType": "string",
          "name": "referenceMateriel",
          "type": "string"
        }
      ],
      "name": "expedition",
      "outputs": [],
      "stateMutability": "nonpayable",
      "type": "function"
    },
    {
      "inputs": [
        {
          "internalType": "uint256",
          "name": "tokenId",
          "type": "uint256"
        }
      ],
      "name": "getApproved",
      "outputs": [
        {
          "internalType": "address",
          "name": "",
          "type": "address"
        }
      ],
      "stateMutability": "view",
      "type": "function"
    },
    {
      "inputs": [],
      "name": "getJsonCommandes",
      "outputs": [
        {
          "internalType": "string",
          "name": "",
          "type": "string"
        }
      ],
      "stateMutability": "view",
      "type": "function"
    },
    {
      "inputs": [],
      "name": "getUriQuantum",
      "outputs": [
        {
          "internalType": "string",
          "name": "",
          "type": "string"
        }
      ],
      "stateMutability": "view",
      "type": "function"
    },
    {
      "inputs": [],
      "name": "getUriS3200",
      "outputs": [
        {
          "internalType": "string",
          "name": "",
          "type": "string"
        }
      ],
      "stateMutability": "view",
      "type": "function"
    },
    {
      "inputs": [
        {
          "internalType": "address",
          "name": "owner",
          "type": "address"
        },
        {
          "internalType": "address",
          "name": "operator",
          "type": "address"
        }
      ],
      "name": "isApprovedForAll",
      "outputs": [
        {
          "internalType": "bool",
          "name": "",
          "type": "bool"
        }
      ],
      "stateMutability": "view",
      "type": "function"
    },
    {
      "inputs": [],
      "name": "name",
      "outputs": [
        {
          "internalType": "string",
          "name": "",
          "type": "string"
        }
      ],
      "stateMutability": "view",
      "type": "function"
    },
    {
      "inputs": [],
      "name": "owner",
      "outputs": [
        {
          "internalType": "address",
          "name": "",
          "type": "address"
        }
      ],
      "stateMutability": "view",
      "type": "function"
    },
    {
      "inputs": [
        {
          "internalType": "uint256",
          "name": "tokenId",
          "type": "uint256"
        }
      ],
      "name": "ownerOf",
      "outputs": [
        {
          "internalType": "address",
          "name": "",
          "type": "address"
        }
      ],
      "stateMutability": "view",
      "type": "function"
    },
    {
      "inputs": [],
      "name": "pause",
      "outputs": [],
      "stateMutability": "nonpayable",
      "type": "function"
    },
    {
      "inputs": [],
      "name": "paused",
      "outputs": [
        {
          "internalType": "bool",
          "name": "",
          "type": "bool"
        }
      ],
      "stateMutability": "view",
      "type": "function"
    },
    {
      "inputs": [],
      "name": "renounceOwnership",
      "outputs": [],
      "stateMutability": "nonpayable",
      "type": "function"
    },
    {
      "inputs": [
        {
          "internalType": "address",
          "name": "from",
          "type": "address"
        },
        {
          "internalType": "address",
          "name": "to",
          "type": "address"
        },
        {
          "internalType": "uint256",
          "name": "tokenId",
          "type": "uint256"
        }
      ],
      "name": "safeTransferFrom",
      "outputs": [],
      "stateMutability": "nonpayable",
      "type": "function"
    },
    {
      "inputs": [
        {
          "internalType": "address",
          "name": "from",
          "type": "address"
        },
        {
          "internalType": "address",
          "name": "to",
          "type": "address"
        },
        {
          "internalType": "uint256",
          "name": "tokenId",
          "type": "uint256"
        },
        {
          "internalType": "bytes",
          "name": "data",
          "type": "bytes"
        }
      ],
      "name": "safeTransferFrom",
      "outputs": [],
      "stateMutability": "nonpayable",
      "type": "function"
    },
    {
      "inputs": [
        {
          "internalType": "address",
          "name": "operator",
          "type": "address"
        },
        {
          "internalType": "bool",
          "name": "approved",
          "type": "bool"
        }
      ],
      "name": "setApprovalForAll",
      "outputs": [],
      "stateMutability": "nonpayable",
      "type": "function"
    },
    {
      "inputs": [
        {
          "internalType": "string",
          "name": "uriQuantum",
          "type": "string"
        }
      ],
      "name": "setUriQuantum",
      "outputs": [],
      "stateMutability": "nonpayable",
      "type": "function"
    },
    {
      "inputs": [
        {
          "internalType": "string",
          "name": "uriS3200",
          "type": "string"
        }
      ],
      "name": "setUriS3200",
      "outputs": [],
      "stateMutability": "nonpayable",
      "type": "function"
    },
    {
      "inputs": [
        {
          "internalType": "bytes4",
          "name": "interfaceId",
          "type": "bytes4"
        }
      ],
      "name": "supportsInterface",
      "outputs": [
        {
          "internalType": "bool",
          "name": "",
          "type": "bool"
        }
      ],
      "stateMutability": "view",
      "type": "function"
    },
    {
      "inputs": [],
      "name": "symbol",
      "outputs": [
        {
          "internalType": "string",
          "name": "",
          "type": "string"
        }
      ],
      "stateMutability": "view",
      "type": "function"
    },
    {
      "inputs": [
        {
          "internalType": "uint256",
          "name": "tokenId",
          "type": "uint256"
        }
      ],
      "name": "tokenURI",
      "outputs": [
        {
          "internalType": "string",
          "name": "",
          "type": "string"
        }
      ],
      "stateMutability": "view",
      "type": "function"
    },
    {
      "inputs": [
        {
          "internalType": "address",
          "name": "from",
          "type": "address"
        },
        {
          "internalType": "address",
          "name": "to",
          "type": "address"
        },
        {
          "internalType": "uint256",
          "name": "tokenId",
          "type": "uint256"
        }
      ],
      "name": "transferFrom",
      "outputs": [],
      "stateMutability": "nonpayable",
      "type": "function"
    },
    {
      "inputs": [
        {
          "internalType": "address",
          "name": "newOwner",
          "type": "address"
        }
      ],
      "name": "transferOwnership",
      "outputs": [],
      "stateMutability": "nonpayable",
      "type": "function"
    },
    {
      "inputs": [],
      "name": "unpause",
      "outputs": [],
      "stateMutability": "nonpayable",
      "type": "function"
    }
  ],
  "bytecode": "0x60806040523480156200001157600080fd5b50604051620029c7380380620029c7833981016040819052620000349162000267565b8251839083906200004d906000906020850190620000f4565b50805162000063906001906020840190620000f4565b50506007805460ff19169055506200007b336200009a565b805162000090906009906020840190620000f4565b5050505062000335565b600780546001600160a01b03838116610100818102610100600160a81b031985161790945560405193909204169182907f8be0079c531659141344cd1fd0a4f28419497f9722a3daafe3b4186f6b6457e090600090a35050565b8280546200010290620002f8565b90600052602060002090601f01602090048101928262000126576000855562000171565b82601f106200014157805160ff191683800117855562000171565b8280016001018555821562000171579182015b828111156200017157825182559160200191906001019062000154565b506200017f92915062000183565b5090565b5b808211156200017f576000815560010162000184565b634e487b7160e01b600052604160045260246000fd5b600082601f830112620001c257600080fd5b81516001600160401b0380821115620001df57620001df6200019a565b604051601f8301601f19908116603f011681019082821181831017156200020a576200020a6200019a565b816040528381526020925086838588010111156200022757600080fd5b600091505b838210156200024b57858201830151818301840152908201906200022c565b838211156200025d5760008385830101525b9695505050505050565b6000806000606084860312156200027d57600080fd5b83516001600160401b03808211156200029557600080fd5b620002a387838801620001b0565b94506020860151915080821115620002ba57600080fd5b620002c887838801620001b0565b93506040860151915080821115620002df57600080fd5b50620002ee86828701620001b0565b9150509250925092565b600181811c908216806200030d57607f821691505b602082108114156200032f57634e487b7160e01b600052602260045260246000fd5b50919050565b61268280620003456000396000f3fe608060405234801561001057600080fd5b50600436106101b95760003560e01c80636352211e116100f9578063a27421af11610097578063c87b56dd11610071578063c87b56dd1461034a578063ddf387f41461035d578063e985e9c514610370578063f2fde38b146103ac57600080fd5b8063a27421af1461031c578063b88d4fde1461032f578063b9ce13951461034257600080fd5b80638456cb59116100d35780638456cb59146102e35780638da5cb5b146102eb57806395d89b4114610301578063a22cb4651461030957600080fd5b80636352211e146102a757806370a08231146102ba578063715018a6146102db57600080fd5b806337bd6c5e11610166578063457d533811610140578063457d5338146102845780634835cae71461028c5780634fb75e4f146102945780635c975abb1461029c57600080fd5b806337bd6c5e146102615780633f4ba83a1461026957806342842e0e1461027157600080fd5b8063095ea7b311610197578063095ea7b31461022657806323b872dd1461023b5780632a40807c1461024e57600080fd5b806301ffc9a7146101be57806306fdde03146101e6578063081812fc146101fb575b600080fd5b6101d16101cc366004611e76565b6103bf565b60405190151581526020015b60405180910390f35b6101ee610411565b6040516101dd9190611eeb565b61020e610209366004611efe565b6104a3565b6040516001600160a01b0390911681526020016101dd565b610239610234366004611f33565b6104ca565b005b610239610249366004611f5d565b6105e5565b61023961025c366004612045565b610616565b6101ee610635565b6102396106c3565b61023961027f366004611f5d565b6106d5565b6101ee6106f0565b6101ee6106ff565b6101ee61070e565b60075460ff166101d1565b61020e6102b5366004611efe565b61098e565b6102cd6102c836600461207a565b6109ee565b6040519081526020016101dd565b610239610a74565b610239610a86565b60075461010090046001600160a01b031661020e565b6101ee610a96565b610239610317366004612095565b610aa5565b61023961032a3660046120d1565b610ab0565b61023961033d366004612128565b610d1c565b6101ee610d4e565b6101ee610358366004611efe565b610d5b565b61023961036b366004612045565b610e5f565b6101d161037e3660046121a4565b6001600160a01b03918216600090815260056020908152604080832093909416825291909152205460ff1690565b6102396103ba36600461207a565b610e7a565b60006001600160e01b031982166380ac58cd60e01b14806103f057506001600160e01b03198216635b5e139f60e01b145b8061040b57506301ffc9a760e01b6001600160e01b03198316145b92915050565b606060008054610420906121d7565b80601f016020809104026020016040519081016040528092919081815260200182805461044c906121d7565b80156104995780601f1061046e57610100808354040283529160200191610499565b820191906000526020600020905b81548152906001019060200180831161047c57829003601f168201915b5050505050905090565b60006104ae82610ef3565b506000908152600460205260409020546001600160a01b031690565b60006104d58261098e565b9050806001600160a01b0316836001600160a01b031614156105485760405162461bcd60e51b815260206004820152602160248201527f4552433732313a20617070726f76616c20746f2063757272656e74206f776e656044820152603960f91b60648201526084015b60405180910390fd5b336001600160a01b03821614806105645750610564813361037e565b6105d65760405162461bcd60e51b815260206004820152603d60248201527f4552433732313a20617070726f76652063616c6c6572206973206e6f7420746f60448201527f6b656e206f776e6572206f7220617070726f76656420666f7220616c6c000000606482015260840161053f565b6105e08383610f52565b505050565b6105ef3382610fc0565b61060b5760405162461bcd60e51b815260040161053f9061220c565b6105e083838361103e565b61061e6111af565b805161063190600b906020840190611dc7565b5050565b600a8054610642906121d7565b80601f016020809104026020016040519081016040528092919081815260200182805461066e906121d7565b80156106bb5780601f10610690576101008083540402835291602001916106bb565b820191906000526020600020905b81548152906001019060200180831161069e57829003601f168201915b505050505081565b6106cb6111af565b6106d361120f565b565b6105e083838360405180602001604052806000815250610d1c565b6060600a8054610420906121d7565b6060600b8054610420906121d7565b60408051808201825260018152605b60f81b60208083019190915282519081019092526000808352606092905b6008548160ff1610156109395760ff81166000908152600c60209081526040808320815160c08101835281546001600160a01b039081168252600183015416938101939093526002810180549192840191610795906121d7565b80601f01602080910402602001604051908101604052809291908181526020018280546107c1906121d7565b801561080e5780601f106107e35761010080835404028352916020019161080e565b820191906000526020600020905b8154815290600101906020018083116107f157829003601f168201915b50505091835250506003820154602082015260048201546040820152600582015460609091019060ff16600281111561084957610849612259565b600281111561085a5761085a612259565b905250905060ff82161561088557604051806040016040528060018152602001600b60fa1b81525092505b6000836108948460ff16611261565b835161089f906112fe565b6108ac85602001516112fe565b85604001516108be8760600151611261565b6108cb8860800151611261565b6108d88960a00151611314565b6040516020016108ef98979695949392919061228b565b604051602081830303815290604052905084816040516020016109139291906123d6565b6040516020818303038152906040529450505080806109319061241b565b91505061073b565b508160405160200161094b919061243b565b60408051601f19818403018152828201909152601182527002539b7b721b7b6b6b0b73232b99012b99607d1b6020830152925061098890836113e3565b50919050565b6000818152600260205260408120546001600160a01b03168061040b5760405162461bcd60e51b8152602060048201526018602482015277115490cdcc8c4e881a5b9d985b1a59081d1bdad95b88125160421b604482015260640161053f565b60006001600160a01b038216610a585760405162461bcd60e51b815260206004820152602960248201527f4552433732313a2061646472657373207a65726f206973206e6f7420612076616044820152683634b21037bbb732b960b91b606482015260840161053f565b506001600160a01b031660009081526003602052604090205490565b610a7c6111af565b6106d36000611428565b610a8e6111af565b6106d361148f565b606060018054610420906121d7565b6106313383836114cc565b610ad360405180606001604052806025815260200161262860259139848461159b565b6001600160a01b038316610b1e5760405162461bcd60e51b815260206004820152601260248201527141646472657373206e6f742076616c69646560701b604482015260640161053f565b811580610b2b5750816001145b610b775760405162461bcd60e51b815260206004820152601b60248201527f54797065206465204d6174657269656c206e6f742076616c6964650000000000604482015260640161053f565b6000610b8260085490565b9050610b8e84826115e2565b82610c2c57610c2781600a8054610ba4906121d7565b80601f0160208091040260200160405190810160405280929190818152602001828054610bd0906121d7565b8015610c1d5780601f10610bf257610100808354040283529160200191610c1d565b820191906000526020600020905b815481529060010190602001808311610c0057829003601f168201915b50505050506115fc565b610c3d565b610c3d81600b8054610ba4906121d7565b6040805160c0810182523381526001600160a01b03861660208201529081018390524260608201526000608082015260a08101600190526000828152600c6020908152604091829020835181546001600160a01b039182166001600160a01b031991821617835585840151600184018054919093169116179055918301518051610ccd9260028501920190611dc7565b50606082015160038201556080820151600482015560a082015160058201805460ff19166001836002811115610d0557610d05612259565b021790555050600880546001019055505b50505050565b610d263383610fc0565b610d425760405162461bcd60e51b815260040161053f9061220c565b610d1684848484611696565b600b8054610642906121d7565b6060610d6682610ef3565b60008281526006602052604081208054610d7f906121d7565b80601f0160208091040260200160405190810160405280929190818152602001828054610dab906121d7565b8015610df85780601f10610dcd57610100808354040283529160200191610df8565b820191906000526020600020905b815481529060010190602001808311610ddb57829003601f168201915b505050505090506000610e096116c9565b9050805160001415610e1c575092915050565b815115610e4e578082604051602001610e369291906123d6565b60405160208183030381529060405292505050919050565b610e57846116d8565b949350505050565b610e676111af565b805161063190600a906020840190611dc7565b610e826111af565b6001600160a01b038116610ee75760405162461bcd60e51b815260206004820152602660248201527f4f776e61626c653a206e6577206f776e657220697320746865207a65726f206160448201526564647265737360d01b606482015260840161053f565b610ef081611428565b50565b6000818152600260205260409020546001600160a01b0316610ef05760405162461bcd60e51b8152602060048201526018602482015277115490cdcc8c4e881a5b9d985b1a59081d1bdad95b88125160421b604482015260640161053f565b600081815260046020526040902080546001600160a01b0319166001600160a01b0384169081179091558190610f878261098e565b6001600160a01b03167f8c5be1e5ebec7d5bd14f71427d1e84f3dd0314c0f7b2291e5b200ac8c7c3b92560405160405180910390a45050565b600080610fcc8361098e565b9050806001600160a01b0316846001600160a01b0316148061101357506001600160a01b0380821660009081526005602090815260408083209388168352929052205460ff165b80610e575750836001600160a01b031661102c846104a3565b6001600160a01b031614949350505050565b826001600160a01b03166110518261098e565b6001600160a01b0316146110775760405162461bcd60e51b815260040161053f90612460565b6001600160a01b0382166110d95760405162461bcd60e51b8152602060048201526024808201527f4552433732313a207472616e7366657220746f20746865207a65726f206164646044820152637265737360e01b606482015260840161053f565b6110e6838383600161173f565b826001600160a01b03166110f98261098e565b6001600160a01b03161461111f5760405162461bcd60e51b815260040161053f90612460565b600081815260046020908152604080832080546001600160a01b03199081169091556001600160a01b0387811680865260038552838620805460001901905590871680865283862080546001019055868652600290945282852080549092168417909155905184937fddf252ad1be2c89b69c2b068fc378daa952ba7f163c4a11628f55a4df523b3ef91a4505050565b6007546001600160a01b036101009091041633146106d35760405162461bcd60e51b815260206004820181905260248201527f4f776e61626c653a2063616c6c6572206973206e6f7420746865206f776e6572604482015260640161053f565b6112176117c7565b6007805460ff191690557f5db9ee0a495bf2e6ff9c91a7834c1ba4fdd244a5e8aa4e537bd38aeae4b073aa335b6040516001600160a01b03909116815260200160405180910390a1565b6060600061126e83611819565b600101905060008167ffffffffffffffff81111561128e5761128e611f99565b6040519080825280601f01601f1916602001820160405280156112b8576020820181803683370190505b5090508181016020015b600019016f181899199a1a9b1b9c1cb0b131b232b360811b600a86061a8153600a85049450846112f1576112f6565b6112c2565b509392505050565b606061040b6001600160a01b03831660146118f1565b606081600281111561132857611328612259565b61135057505060408051808201909152600881526721b932b0ba34b7b760c11b602082015290565b81600281111561136257611362612259565b6001141561139057505060408051808201909152600a81526922bc3832b234ba34b7b760b11b602082015290565b8160028111156113a2576113a2612259565b600214156113cf5750506040805180820190915260098152682932b1b2b83a34b7b760b91b602082015290565b505060408051602081019091526000815290565b61063182826040516024016113f99291906124a5565b60408051601f198184030181529190526020810180516001600160e01b0316634b5c427760e01b179052611a8d565b600780546001600160a01b0383811661010081810274ffffffffffffffffffffffffffffffffffffffff001985161790945560405193909204169182907f8be0079c531659141344cd1fd0a4f28419497f9722a3daafe3b4186f6b6457e090600090a35050565b611497611a96565b6007805460ff191660011790557f62e78cea01bee320cd4e420270b5ea74000d11b0c9f74754ebdbfc544b05a2586112443390565b816001600160a01b0316836001600160a01b0316141561152e5760405162461bcd60e51b815260206004820152601960248201527f4552433732313a20617070726f766520746f2063616c6c657200000000000000604482015260640161053f565b6001600160a01b03838116600081815260056020908152604080832094871680845294825291829020805460ff191686151590811790915591519182527f17307eab39ab6107e8899845ad3d59bd9653f200f220920489ca2b5937696c31910160405180910390a3505050565b6105e08383836040516024016115b3939291906124d3565b60408051601f198184030181529190526020810180516001600160e01b0316630d26b92560e01b179052611a8d565b610631828260405180602001604052806000815250611adc565b6000828152600260205260409020546001600160a01b03166116775760405162461bcd60e51b815260206004820152602e60248201527f45524337323155524953746f726167653a2055524920736574206f66206e6f6e60448201526d32bc34b9ba32b73a103a37b5b2b760911b606482015260840161053f565b600082815260066020908152604090912082516105e092840190611dc7565b6116a184848461103e565b6116ad84848484611b0f565b610d165760405162461bcd60e51b815260040161053f90612501565b606060098054610420906121d7565b60606116e382610ef3565b60006116ed6116c9565b9050600081511161170d5760405180602001604052806000815250611738565b8061171784611261565b6040516020016117289291906123d6565b6040516020818303038152906040525b9392505050565b6001811115610d16576001600160a01b03841615611785576001600160a01b0384166000908152600360205260408120805483929061177f908490612553565b90915550505b6001600160a01b03831615610d16576001600160a01b038316600090815260036020526040812080548392906117bc90849061256a565b909155505050505050565b60075460ff166106d35760405162461bcd60e51b815260206004820152601460248201527f5061757361626c653a206e6f7420706175736564000000000000000000000000604482015260640161053f565b60008072184f03e93ff9f4daa797ed6e38ed64bf6a1f0160401b83106118585772184f03e93ff9f4daa797ed6e38ed64bf6a1f0160401b830492506040015b6d04ee2d6d415b85acef81000000008310611884576d04ee2d6d415b85acef8100000000830492506020015b662386f26fc1000083106118a257662386f26fc10000830492506010015b6305f5e10083106118ba576305f5e100830492506008015b61271083106118ce57612710830492506004015b606483106118e0576064830492506002015b600a831061040b5760010192915050565b60606000611900836002612582565b61190b90600261256a565b67ffffffffffffffff81111561192357611923611f99565b6040519080825280601f01601f19166020018201604052801561194d576020820181803683370190505b509050600360fc1b81600081518110611968576119686125a1565b60200101906001600160f81b031916908160001a905350600f60fb1b81600181518110611997576119976125a1565b60200101906001600160f81b031916908160001a90535060006119bb846002612582565b6119c690600161256a565b90505b6001811115611a3e576f181899199a1a9b1b9c1cb0b131b232b360811b85600f16601081106119fa576119fa6125a1565b1a60f81b828281518110611a1057611a106125a1565b60200101906001600160f81b031916908160001a90535060049490941c93611a37816125b7565b90506119c9565b5083156117385760405162461bcd60e51b815260206004820181905260248201527f537472696e67733a20686578206c656e67746820696e73756666696369656e74604482015260640161053f565b610ef081611c0d565b60075460ff16156106d35760405162461bcd60e51b815260206004820152601060248201526f14185d5cd8589b194e881c185d5cd95960821b604482015260640161053f565b611ae68383611c2e565b611af36000848484611b0f565b6105e05760405162461bcd60e51b815260040161053f90612501565b60006001600160a01b0384163b15611c0257604051630a85bd0160e11b81526001600160a01b0385169063150b7a0290611b539033908990889088906004016125ce565b6020604051808303816000875af1925050508015611b8e575060408051601f3d908101601f19168201909252611b8b9181019061260a565b60015b611be8573d808015611bbc576040519150601f19603f3d011682016040523d82523d6000602084013e611bc1565b606091505b508051611be05760405162461bcd60e51b815260040161053f90612501565b805181602001fd5b6001600160e01b031916630a85bd0160e11b149050610e57565b506001949350505050565b60006a636f6e736f6c652e6c6f679050600080835160208501845afa505050565b6001600160a01b038216611c845760405162461bcd60e51b815260206004820181905260248201527f4552433732313a206d696e7420746f20746865207a65726f2061646472657373604482015260640161053f565b6000818152600260205260409020546001600160a01b031615611ce95760405162461bcd60e51b815260206004820152601c60248201527f4552433732313a20746f6b656e20616c7265616479206d696e74656400000000604482015260640161053f565b611cf760008383600161173f565b6000818152600260205260409020546001600160a01b031615611d5c5760405162461bcd60e51b815260206004820152601c60248201527f4552433732313a20746f6b656e20616c7265616479206d696e74656400000000604482015260640161053f565b6001600160a01b038216600081815260036020908152604080832080546001019055848352600290915280822080546001600160a01b0319168417905551839291907fddf252ad1be2c89b69c2b068fc378daa952ba7f163c4a11628f55a4df523b3ef908290a45050565b828054611dd3906121d7565b90600052602060002090601f016020900481019282611df55760008555611e3b565b82601f10611e0e57805160ff1916838001178555611e3b565b82800160010185558215611e3b579182015b82811115611e3b578251825591602001919060010190611e20565b50611e47929150611e4b565b5090565b5b80821115611e475760008155600101611e4c565b6001600160e01b031981168114610ef057600080fd5b600060208284031215611e8857600080fd5b813561173881611e60565b60005b83811015611eae578181015183820152602001611e96565b83811115610d165750506000910152565b60008151808452611ed7816020860160208601611e93565b601f01601f19169290920160200192915050565b6020815260006117386020830184611ebf565b600060208284031215611f1057600080fd5b5035919050565b80356001600160a01b0381168114611f2e57600080fd5b919050565b60008060408385031215611f4657600080fd5b611f4f83611f17565b946020939093013593505050565b600080600060608486031215611f7257600080fd5b611f7b84611f17565b9250611f8960208501611f17565b9150604084013590509250925092565b634e487b7160e01b600052604160045260246000fd5b600067ffffffffffffffff80841115611fca57611fca611f99565b604051601f8501601f19908116603f01168101908282118183101715611ff257611ff2611f99565b8160405280935085815286868601111561200b57600080fd5b858560208301376000602087830101525050509392505050565b600082601f83011261203657600080fd5b61173883833560208501611faf565b60006020828403121561205757600080fd5b813567ffffffffffffffff81111561206e57600080fd5b610e5784828501612025565b60006020828403121561208c57600080fd5b61173882611f17565b600080604083850312156120a857600080fd5b6120b183611f17565b9150602083013580151581146120c657600080fd5b809150509250929050565b6000806000606084860312156120e657600080fd5b6120ef84611f17565b925060208401359150604084013567ffffffffffffffff81111561211257600080fd5b61211e86828701612025565b9150509250925092565b6000806000806080858703121561213e57600080fd5b61214785611f17565b935061215560208601611f17565b925060408501359150606085013567ffffffffffffffff81111561217857600080fd5b8501601f8101871361218957600080fd5b61219887823560208401611faf565b91505092959194509250565b600080604083850312156121b757600080fd5b6121c083611f17565b91506121ce60208401611f17565b90509250929050565b600181811c908216806121eb57607f821691505b6020821081141561098857634e487b7160e01b600052602260045260246000fd5b6020808252602d908201527f4552433732313a2063616c6c6572206973206e6f7420746f6b656e206f776e6560408201526c1c881bdc88185c1c1c9bdd9959609a1b606082015260800190565b634e487b7160e01b600052602160045260246000fd5b60008151612281818560208601611e93565b9290920192915050565b6000895161229d818460208e01611e93565b607b60f81b908301908152641134b2111d60d91b600182015289516122c9816006840160208e01611e93565b6f16113337bab93734b9b9b2bab9111d1160811b600692909101918201526122f4601682018a61226f565b6b11161131b634b2b73a111d1160a11b81529050612315600c82018961226f565b7f222c227265666572656e63654d6174657269656c223a2200000000000000000081529050612347601782018861226f565b721116113230ba32a2bc3832b234ba34b7b7111d60691b8152905061236f601382018761226f565b7016113230ba32a932b1b2b83a34b7b7111d60791b81529050612395601182018661226f565b7116113bb7b935b33637bba9ba30ba32911d1160711b815290506123bc601282018561226f565b61227d60f01b81526002019b9a5050505050505050505050565b600083516123e8818460208801611e93565b8351908301906123fc818360208801611e93565b01949350505050565b634e487b7160e01b600052601160045260246000fd5b600060ff821660ff81141561243257612432612405565b60010192915050565b6000825161244d818460208701611e93565b605d60f81b920191825250600101919050565b60208082526025908201527f4552433732313a207472616e736665722066726f6d20696e636f72726563742060408201526437bbb732b960d91b606082015260800190565b6040815260006124b86040830185611ebf565b82810360208401526124ca8185611ebf565b95945050505050565b6060815260006124e66060830186611ebf565b6001600160a01b039490941660208301525060400152919050565b60208082526032908201527f4552433732313a207472616e7366657220746f206e6f6e20455243373231526560408201527131b2b4bb32b91034b6b83632b6b2b73a32b960711b606082015260800190565b60008282101561256557612565612405565b500390565b6000821982111561257d5761257d612405565b500190565b600081600019048311821515161561259c5761259c612405565b500290565b634e487b7160e01b600052603260045260246000fd5b6000816125c6576125c6612405565b506000190190565b60006001600160a01b038087168352808616602084015250836040830152608060608301526126006080830184611ebf565b9695505050505050565b60006020828403121561261c57600080fd5b815161173881611e6056fe65787065646974696f6e206164647265737320257320747970654d6174657269656c202573a2646970667358221220b2fe916f851a5b637a084b58aec63eb8fa16f5a047c63a21e4105d4783cef77164736f6c634300080c0033",
  "linkReferences": {},
  "deployedLinkReferences": {}
}