{
  "_format": "hh-sol-artifact-1",
  "contractName": "Historique",
  "sourceName": "contracts/Historique.sol",
  "abi": [
    {
      "inputs": [
        {
          "internalType": "address",
          "name": "target",
          "type": "address"
        }
      ],
      "name": "AddressEmptyCode",
      "type": "error"
    },
    {
      "inputs": [
        {
          "internalType": "address",
          "name": "implementation",
          "type": "address"
        }
      ],
      "name": "ERC1967InvalidImplementation",
      "type": "error"
    },
    {
      "inputs": [],
      "name": "ERC1967NonPayable",
      "type": "error"
    },
    {
      "inputs": [],
      "name": "FailedInnerCall",
      "type": "error"
    },
    {
      "inputs": [],
      "name": "InvalidInitialization",
      "type": "error"
    },
    {
      "inputs": [],
      "name": "NotInitializing",
      "type": "error"
    },
    {
      "inputs": [
        {
          "internalType": "address",
          "name": "owner",
          "type": "address"
        }
      ],
      "name": "OwnableInvalidOwner",
      "type": "error"
    },
    {
      "inputs": [
        {
          "internalType": "address",
          "name": "account",
          "type": "address"
        }
      ],
      "name": "OwnableUnauthorizedAccount",
      "type": "error"
    },
    {
      "inputs": [],
      "name": "UUPSUnauthorizedCallContext",
      "type": "error"
    },
    {
      "inputs": [
        {
          "internalType": "bytes32",
          "name": "slot",
          "type": "bytes32"
        }
      ],
      "name": "UUPSUnsupportedProxiableUUID",
      "type": "error"
    },
    {
      "anonymous": false,
      "inputs": [
        {
          "indexed": false,
          "internalType": "uint64",
          "name": "version",
          "type": "uint64"
        }
      ],
      "name": "Initialized",
      "type": "event"
    },
    {
      "anonymous": false,
      "inputs": [
        {
          "indexed": true,
          "internalType": "address",
          "name": "previousOwner",
          "type": "address"
        },
        {
          "indexed": true,
          "internalType": "address",
          "name": "newOwner",
          "type": "address"
        }
      ],
      "name": "OwnershipTransferred",
      "type": "event"
    },
    {
      "anonymous": false,
      "inputs": [
        {
          "indexed": true,
          "internalType": "address",
          "name": "implementation",
          "type": "address"
        }
      ],
      "name": "Upgraded",
      "type": "event"
    },
    {
      "inputs": [],
      "name": "UPGRADE_INTERFACE_VERSION",
      "outputs": [
        {
          "internalType": "string",
          "name": "",
          "type": "string"
        }
      ],
      "stateMutability": "view",
      "type": "function"
    },
    {
      "inputs": [
        {
          "internalType": "uint256",
          "name": "blockNumber",
          "type": "uint256"
        },
        {
          "internalType": "string",
          "name": "transactionHash",
          "type": "string"
        },
        {
          "internalType": "uint256",
          "name": "tokenId",
          "type": "uint256"
        },
        {
          "internalType": "string",
          "name": "action",
          "type": "string"
        },
        {
          "internalType": "address",
          "name": "fournisseur",
          "type": "address"
        },
        {
          "internalType": "string",
          "name": "nomFournisseur",
          "type": "string"
        },
        {
          "internalType": "address",
          "name": "client",
          "type": "address"
        },
        {
          "internalType": "string",
          "name": "nomClient",
          "type": "string"
        },
        {
          "internalType": "uint256",
          "name": "idMateriel",
          "type": "uint256"
        },
        {
          "internalType": "string",
          "name": "nomMateriel",
          "type": "string"
        },
        {
          "internalType": "string",
          "name": "referenceMateriel",
          "type": "string"
        },
        {
          "internalType": "uint256",
          "name": "workflowState",
          "type": "uint256"
        }
      ],
      "name": "ajouterHistorique",
      "outputs": [],
      "stateMutability": "nonpayable",
      "type": "function"
    },
    {
      "inputs": [],
      "name": "getListeHistoriques",
      "outputs": [
        {
          "components": [
            {
              "internalType": "uint256",
              "name": "blockNumber",
              "type": "uint256"
            },
            {
              "internalType": "string",
              "name": "transactionHash",
              "type": "string"
            },
            {
              "internalType": "uint256",
              "name": "tokenId",
              "type": "uint256"
            },
            {
              "internalType": "string",
              "name": "action",
              "type": "string"
            },
            {
              "internalType": "uint256",
              "name": "dateAction",
              "type": "uint256"
            },
            {
              "internalType": "address",
              "name": "fournisseur",
              "type": "address"
            },
            {
              "internalType": "string",
              "name": "nomFournisseur",
              "type": "string"
            },
            {
              "internalType": "address",
              "name": "client",
              "type": "address"
            },
            {
              "internalType": "string",
              "name": "nomClient",
              "type": "string"
            },
            {
              "internalType": "uint256",
              "name": "idMateriel",
              "type": "uint256"
            },
            {
              "internalType": "string",
              "name": "nomMateriel",
              "type": "string"
            },
            {
              "internalType": "string",
              "name": "referenceMateriel",
              "type": "string"
            },
            {
              "internalType": "uint256",
              "name": "workflowState",
              "type": "uint256"
            }
          ],
          "internalType": "struct Historique.StructHistorique[]",
          "name": "",
          "type": "tuple[]"
        }
      ],
      "stateMutability": "view",
      "type": "function"
    },
    {
      "inputs": [
        {
          "internalType": "uint256",
          "name": "tokenId",
          "type": "uint256"
        }
      ],
      "name": "getListeHistoriquesByTokenId",
      "outputs": [
        {
          "components": [
            {
              "internalType": "uint256",
              "name": "blockNumber",
              "type": "uint256"
            },
            {
              "internalType": "string",
              "name": "transactionHash",
              "type": "string"
            },
            {
              "internalType": "uint256",
              "name": "tokenId",
              "type": "uint256"
            },
            {
              "internalType": "string",
              "name": "action",
              "type": "string"
            },
            {
              "internalType": "uint256",
              "name": "dateAction",
              "type": "uint256"
            },
            {
              "internalType": "address",
              "name": "fournisseur",
              "type": "address"
            },
            {
              "internalType": "string",
              "name": "nomFournisseur",
              "type": "string"
            },
            {
              "internalType": "address",
              "name": "client",
              "type": "address"
            },
            {
              "internalType": "string",
              "name": "nomClient",
              "type": "string"
            },
            {
              "internalType": "uint256",
              "name": "idMateriel",
              "type": "uint256"
            },
            {
              "internalType": "string",
              "name": "nomMateriel",
              "type": "string"
            },
            {
              "internalType": "string",
              "name": "referenceMateriel",
              "type": "string"
            },
            {
              "internalType": "uint256",
              "name": "workflowState",
              "type": "uint256"
            }
          ],
          "internalType": "struct Historique.StructHistorique[]",
          "name": "",
          "type": "tuple[]"
        }
      ],
      "stateMutability": "view",
      "type": "function"
    },
    {
      "inputs": [],
      "name": "getVersion",
      "outputs": [
        {
          "internalType": "string",
          "name": "",
          "type": "string"
        }
      ],
      "stateMutability": "pure",
      "type": "function"
    },
    {
      "inputs": [],
      "name": "initialize",
      "outputs": [],
      "stateMutability": "nonpayable",
      "type": "function"
    },
    {
      "inputs": [],
      "name": "owner",
      "outputs": [
        {
          "internalType": "address",
          "name": "",
          "type": "address"
        }
      ],
      "stateMutability": "view",
      "type": "function"
    },
    {
      "inputs": [],
      "name": "proxiableUUID",
      "outputs": [
        {
          "internalType": "bytes32",
          "name": "",
          "type": "bytes32"
        }
      ],
      "stateMutability": "view",
      "type": "function"
    },
    {
      "inputs": [],
      "name": "renounceOwnership",
      "outputs": [],
      "stateMutability": "nonpayable",
      "type": "function"
    },
    {
      "inputs": [
        {
          "internalType": "address",
          "name": "newOwner",
          "type": "address"
        }
      ],
      "name": "transferOwnership",
      "outputs": [],
      "stateMutability": "nonpayable",
      "type": "function"
    },
    {
      "inputs": [
        {
          "internalType": "address",
          "name": "newImplementation",
          "type": "address"
        },
        {
          "internalType": "bytes",
          "name": "data",
          "type": "bytes"
        }
      ],
      "name": "upgradeToAndCall",
      "outputs": [],
      "stateMutability": "payable",
      "type": "function"
    }
  ],
  "bytecode": "0x60a06040523060805234801561001457600080fd5b50608051611d7b61003e60003960008181610fe801528181611011015261114d0152611d7b6000f3fe60806040526004361061008c5760003560e01c806307ffe8b9146100915780630c95e82e146100b35780630d8e6e2c146100de5780634f1ef2861461011357806352d1902d14610126578063715018a6146101485780638129fc1c1461015d5780638da5cb5b14610172578063ad3cb1cc14610194578063d265453d146101c5578063f2fde38b146101e5575b600080fd5b34801561009d57600080fd5b506100b16100ac3660046115eb565b610205565b005b3480156100bf57600080fd5b506100c8610566565b6040516100d591906119a0565b60405180910390f35b3480156100ea57600080fd5b506040805180820190915260038152620312e360ec1b60208201525b6040516100d591906119b1565b6100b16101213660046119c2565b610992565b34801561013257600080fd5b5061013b6109b1565b6040516100d59190611a16565b34801561015457600080fd5b506100b16109ce565b34801561016957600080fd5b506100b16109e2565b34801561017e57600080fd5b50610187610ae8565b6040516100d59190611a24565b3480156101a057600080fd5b50610106604051806040016040528060058152602001640352e302e360dc1b81525081565b3480156101d157600080fd5b506100c86101e0366004611a32565b610b03565b3480156101f157600080fd5b506100b1610200366004611a51565b610f5a565b6102446040518060400160405280601d81526020017f616a6f75746572486973746f726971756520746f6b656e4964202573200000008152508b610f98565b6001600160a01b0388166102735760405162461bcd60e51b815260040161026a90611a97565b60405180910390fd5b604080516101a0810182528d8152602081018d81529181018c9052606081018b90524260808201526001600160a01b03808b1660a083015260c082018a9052881660e082015261010081018790526101208101869052610140810185905261016081018490526101808101839052600080546001810182559080528151600d9091027f290decd9548b62a8d60345a988386fc84ba6bc95484008f6362f93160ef3e56381019182559251919283927f290decd9548b62a8d60345a988386fc84ba6bc95484008f6362f93160ef3e564909101906103509082611ba6565b50604082015160028201556060820151600382019061036f9082611ba6565b506080820151600482015560a08201516005820180546001600160a01b0319166001600160a01b0390921691909117905560c082015160068201906103b49082611ba6565b5060e08201516007820180546001600160a01b0319166001600160a01b0390921691909117905561010082015160088201906103f09082611ba6565b506101208201516009820155610140820151600a8201906104119082611ba6565b50610160820151600b8201906104279082611ba6565b506101809190910151600c9091015560008b8152600160208181526040832080548084018255908452928190208451600d909402019283558301518392918201906104729082611ba6565b5060408201516002820155606082015160038201906104919082611ba6565b506080820151600482015560a08201516005820180546001600160a01b0319166001600160a01b0390921691909117905560c082015160068201906104d69082611ba6565b5060e08201516007820180546001600160a01b0319166001600160a01b0390921691909117905561010082015160088201906105129082611ba6565b506101208201516009820155610140820151600a8201906105339082611ba6565b50610160820151600b8201906105499082611ba6565b5061018082015181600c0155505050505050505050505050505050565b60606000805480602002602001604051908101604052809291908181526020016000905b8282101561098957838290600052602060002090600d0201604051806101a0016040529081600082015481526020016001820180546105c890611abd565b80601f01602080910402602001604051908101604052809291908181526020018280546105f490611abd565b80156106415780601f1061061657610100808354040283529160200191610641565b820191906000526020600020905b81548152906001019060200180831161062457829003601f168201915b505050505081526020016002820154815260200160038201805461066490611abd565b80601f016020809104026020016040519081016040528092919081815260200182805461069090611abd565b80156106dd5780601f106106b2576101008083540402835291602001916106dd565b820191906000526020600020905b8154815290600101906020018083116106c057829003601f168201915b50505091835250506004820154602082015260058201546001600160a01b0316604082015260068201805460609092019161071790611abd565b80601f016020809104026020016040519081016040528092919081815260200182805461074390611abd565b80156107905780601f1061076557610100808354040283529160200191610790565b820191906000526020600020905b81548152906001019060200180831161077357829003601f168201915b505050918352505060078201546001600160a01b031660208201526008820180546040909201916107c090611abd565b80601f01602080910402602001604051908101604052809291908181526020018280546107ec90611abd565b80156108395780601f1061080e57610100808354040283529160200191610839565b820191906000526020600020905b81548152906001019060200180831161081c57829003601f168201915b5050505050815260200160098201548152602001600a8201805461085c90611abd565b80601f016020809104026020016040519081016040528092919081815260200182805461088890611abd565b80156108d55780601f106108aa576101008083540402835291602001916108d5565b820191906000526020600020905b8154815290600101906020018083116108b857829003601f168201915b50505050508152602001600b820180546108ee90611abd565b80601f016020809104026020016040519081016040528092919081815260200182805461091a90611abd565b80156109675780601f1061093c57610100808354040283529160200191610967565b820191906000526020600020905b81548152906001019060200180831161094a57829003601f168201915b50505050508152602001600c820154815250508152602001906001019061058a565b50505050905090565b61099a610fdd565b6109a382611082565b6109ad828261108a565b5050565b60006109bb611142565b50600080516020611d2683398151915290565b6109d661118b565b6109e060006111bd565b565b60006109ec611219565b805490915060ff600160401b82041615906001600160401b0316600081158015610a135750825b90506000826001600160401b03166001148015610a2f5750303b155b905081158015610a3d575080155b15610a5b5760405163f92ee8a960e01b815260040160405180910390fd5b845467ffffffffffffffff191660011785558315610a8557845460ff60401b1916600160401b1785555b610a8e3361123d565b610a9661124e565b8315610ae157845460ff60401b191685556040517fc7f505b2f371ae2175ee4913f4499e1f2633a7b5936321eed1cdaeb6115181d290610ad890600190611c7a565b60405180910390a15b5050505050565b600080610af3611256565b546001600160a01b031692915050565b6060610b27604051806060016040528060278152602001611cff6027913983610f98565b600082815260016020908152604080832080548251818502810185019093528083529193909284015b82821015610f4f57838290600052602060002090600d0201604051806101a001604052908160008201548152602001600182018054610b8e90611abd565b80601f0160208091040260200160405190810160405280929190818152602001828054610bba90611abd565b8015610c075780601f10610bdc57610100808354040283529160200191610c07565b820191906000526020600020905b815481529060010190602001808311610bea57829003601f168201915b5050505050815260200160028201548152602001600382018054610c2a90611abd565b80601f0160208091040260200160405190810160405280929190818152602001828054610c5690611abd565b8015610ca35780601f10610c7857610100808354040283529160200191610ca3565b820191906000526020600020905b815481529060010190602001808311610c8657829003601f168201915b50505091835250506004820154602082015260058201546001600160a01b03166040820152600682018054606090920191610cdd90611abd565b80601f0160208091040260200160405190810160405280929190818152602001828054610d0990611abd565b8015610d565780601f10610d2b57610100808354040283529160200191610d56565b820191906000526020600020905b815481529060010190602001808311610d3957829003601f168201915b505050918352505060078201546001600160a01b03166020820152600882018054604090920191610d8690611abd565b80601f0160208091040260200160405190810160405280929190818152602001828054610db290611abd565b8015610dff5780601f10610dd457610100808354040283529160200191610dff565b820191906000526020600020905b815481529060010190602001808311610de257829003601f168201915b5050505050815260200160098201548152602001600a82018054610e2290611abd565b80601f0160208091040260200160405190810160405280929190818152602001828054610e4e90611abd565b8015610e9b5780601f10610e7057610100808354040283529160200191610e9b565b820191906000526020600020905b815481529060010190602001808311610e7e57829003601f168201915b50505050508152602001600b82018054610eb490611abd565b80601f0160208091040260200160405190810160405280929190818152602001828054610ee090611abd565b8015610f2d5780601f10610f0257610100808354040283529160200191610f2d565b820191906000526020600020905b815481529060010190602001808311610f1057829003601f168201915b50505050508152602001600c8201548152505081526020019060010190610b50565b505050509050919050565b610f6261118b565b6001600160a01b038116610f8c576000604051631e4fbdf760e01b815260040161026a9190611a24565b610f95816111bd565b50565b6109ad8282604051602401610fae929190611c88565b60408051601f198184030181529190526020810180516001600160e01b0316632d839cb360e21b17905261127a565b306001600160a01b037f000000000000000000000000000000000000000000000000000000000000000016148061106457507f00000000000000000000000000000000000000000000000000000000000000006001600160a01b0316611058600080516020611d26833981519152546001600160a01b031690565b6001600160a01b031614155b156109e05760405163703e46dd60e11b815260040160405180910390fd5b610f9561118b565b816001600160a01b03166352d1902d6040518163ffffffff1660e01b8152600401602060405180830381865afa9250505080156110e4575060408051601f3d908101601f191682019092526110e191810190611cb3565b60015b6111035781604051634c9c8ce360e01b815260040161026a9190611a24565b600080516020611d2683398151915281146111335780604051632a87526960e21b815260040161026a9190611a16565b61113d8383611283565b505050565b306001600160a01b037f000000000000000000000000000000000000000000000000000000000000000016146109e05760405163703e46dd60e11b815260040160405180910390fd5b33611194610ae8565b6001600160a01b0316146109e0573360405163118cdaa760e01b815260040161026a9190611a24565b60006111c7611256565b80546001600160a01b038481166001600160a01b031983168117845560405193945091169182907f8be0079c531659141344cd1fd0a4f28419497f9722a3daafe3b4186f6b6457e090600090a3505050565b7ff0c57e16840df040f15088dc2f81fe391c3923bec73e23a9662efc9c229c6a0090565b6112456112d9565b610f95816112fe565b6109e06112d9565b7f9016d09d72d40fdae2fd8ceac6b6234c7706214fd39c1cd1e609a0528c19930090565b610f9581611306565b61128c82611327565b6040516001600160a01b038316907fbc7cd75a20ee27fd9adebab32041f755214dbc6bffa90cc0225b39da2e5c2d3b90600090a28051156112d15761113d8282611383565b6109ad6113fb565b6112e161141a565b6109e057604051631afcd79f60e31b815260040160405180910390fd5b610f626112d9565b60006a636f6e736f6c652e6c6f679050600080835160208501845afa505050565b806001600160a01b03163b6000036113545780604051634c9c8ce360e01b815260040161026a9190611a24565b600080516020611d2683398151915280546001600160a01b0319166001600160a01b0392909216919091179055565b6060600080846001600160a01b0316846040516113a09190611cf4565b600060405180830381855af49150503d80600081146113db576040519150601f19603f3d011682016040523d82523d6000602084013e6113e0565b606091505b50915091506113f0858383611434565b925050505b92915050565b34156109e05760405163b398979f60e01b815260040160405180910390fd5b6000611424611219565b54600160401b900460ff16919050565b606082611449576114448261148a565b611483565b815115801561146057506001600160a01b0384163b155b156114805783604051639996b31560e01b815260040161026a9190611a24565b50805b9392505050565b80511561149a5780518082602001fd5b604051630a12f52160e11b815260040160405180910390fd5b805b8114610f9557600080fd5b80356113f5816114b3565b601f01601f191690565b634e487b7160e01b600052604160045260246000fd5b6114f4826114cb565b81018181106001600160401b0382111715611511576115116114d5565b6040525050565b600061152360405190565b905061152f82826114eb565b919050565b60006001600160401b0382111561154d5761154d6114d5565b611556826114cb565b60200192915050565b82818337506000910152565b600061157e61157984611534565b611518565b905082815283838301111561159557611595600080fd5b61148383602083018461155f565b600082601f8301126115b7576115b7600080fd5b6114838383356020850161156b565b60006001600160a01b0382166113f5565b6114b5816115c6565b80356113f5816115d7565b6000806000806000806000806000806000806101808d8f03121561161157611611600080fd5b61161b8e8e6114c0565b9b506001600160401b0360208e0135111561163857611638600080fd5b6116488e60208f01358f016115a3565b9a506116578e60408f016114c0565b99506001600160401b0360608e0135111561167457611674600080fd5b6116848e60608f01358f016115a3565b98506116938e60808f016115e0565b97506001600160401b0360a08e013511156116b0576116b0600080fd5b6116c08e60a08f01358f016115a3565b96506116cf8e60c08f016115e0565b95506001600160401b0360e08e013511156116ec576116ec600080fd5b6116fc8e60e08f01358f016115a3565b945061170c8e6101008f016114c0565b93506001600160401b036101208e0135111561172a5761172a600080fd5b61173b8e6101208f01358f016115a3565b92506001600160401b036101408e0135111561175957611759600080fd5b61176a8e6101408f01358f016115a3565b915061177a8e6101608f016114c0565b90509295989b509295989b509295989b565b805b82525050565b60005b838110156117af578181015183820152602001611797565b50506000910152565b60006117c2825190565b8084526020840193506117d9818560208601611794565b6117e2816114cb565b9093019392505050565b61178e816115c6565b80516000906101a084019061180a858261178c565b506020830151848203602086015261182282826117b8565b9150506040830151611837604086018261178c565b506060830151848203606086015261184f82826117b8565b9150506080830151611864608086018261178c565b5060a083015161187760a08601826117ec565b5060c083015184820360c086015261188f82826117b8565b91505060e08301516118a460e08601826117ec565b506101008301518482036101008601526118be82826117b8565b9150506101208301516118d561012086018261178c565b506101408301518482036101408601526118ef82826117b8565b91505061016083015184820361016086015261190b82826117b8565b91505061018083015161192261018086018261178c565b509392505050565b600061148383836117f5565b60200190565b6000611946825190565b808452602084019350836020820285016119608560200190565b60005b84811015611994578383038852815161197c848261192a565b93505060208201602098909801979150600101611963565b50909695505050505050565b60208082528101611483818461193c565b6020808252810161148381846117b8565b600080604083850312156119d8576119d8600080fd5b6119e284846115e0565b915060208301356001600160401b03811115611a0057611a00600080fd5b611a0c858286016115a3565b9150509250929050565b602081016113f5828461178c565b602081016113f582846117ec565b600060208284031215611a4757611a47600080fd5b61148383836114c0565b600060208284031215611a6657611a66600080fd5b61148383836115e0565b60128152602081017141646472657373206e6f742076616c69646560701b81529050611936565b602080825281016113f581611a70565b634e487b7160e01b600052602260045260246000fd5b600281046001821680611ad157607f821691505b602082108103611ae357611ae3611aa7565b50919050565b60006113f5611af58381565b90565b611b0183611ae9565b815460001960089490940293841b1916921b91909117905550565b600061113d818484611af8565b818110156109ad57611b3c600082611b1c565b600101611b29565b601f82111561113d576000818152602090206020601f85010481016020851015611b6b5750805b610ae16020601f860104830182611b29565b6000196008929092029190911c191690565b611b998282611b7d565b6002909202909117919050565b81516001600160401b03811115611bbf57611bbf6114d5565b611bc98254611abd565b611bd4828285611b44565b506020601f821160018114611c035760008315611bf15750848201515b611bfb8482611b8f565b855550610ae1565b600084815260208120601f198516915b82811015611c335787850151825560209485019460019092019101611c13565b5084821015611c515783870151611c4d601f871682611b7d565b8255505b50505050600202600101905550565b60006001600160401b0382166113f5565b61178e81611c60565b602081016113f58284611c71565b60408082528101611c9981856117b8565b9050611483602083018461178c565b80516113f5816114b3565b600060208284031215611cc857611cc8600080fd5b6114838383611ca8565b6000611cdc825190565b611cea818560208601611794565b9290920192915050565b6113f58183611cd256fe6765744c69737465486973746f7269717565734279546f6b656e496420746f6b656e4964202573360894a13ba1a3210667c828492db98dca3e2076cc3735a920a3ca505d382bbca26469706673582212207bf1d7ee8483996fb8ff930666df9abc86e9311679eef34454b344c7aa45de6864736f6c63430008150033",
  "linkReferences": {},
  "deployedLinkReferences": {}
}