{
  "_format": "hh-sol-artifact-1",
  "contractName": "Materiel",
  "sourceName": "contracts/Materiel.sol",
  "abi": [
    {
      "inputs": [
        {
          "internalType": "address",
          "name": "target",
          "type": "address"
        }
      ],
      "name": "AddressEmptyCode",
      "type": "error"
    },
    {
      "inputs": [
        {
          "internalType": "address",
          "name": "implementation",
          "type": "address"
        }
      ],
      "name": "ERC1967InvalidImplementation",
      "type": "error"
    },
    {
      "inputs": [],
      "name": "ERC1967NonPayable",
      "type": "error"
    },
    {
      "inputs": [],
      "name": "FailedInnerCall",
      "type": "error"
    },
    {
      "inputs": [],
      "name": "InvalidInitialization",
      "type": "error"
    },
    {
      "inputs": [],
      "name": "NotInitializing",
      "type": "error"
    },
    {
      "inputs": [
        {
          "internalType": "address",
          "name": "owner",
          "type": "address"
        }
      ],
      "name": "OwnableInvalidOwner",
      "type": "error"
    },
    {
      "inputs": [
        {
          "internalType": "address",
          "name": "account",
          "type": "address"
        }
      ],
      "name": "OwnableUnauthorizedAccount",
      "type": "error"
    },
    {
      "inputs": [],
      "name": "UUPSUnauthorizedCallContext",
      "type": "error"
    },
    {
      "inputs": [
        {
          "internalType": "bytes32",
          "name": "slot",
          "type": "bytes32"
        }
      ],
      "name": "UUPSUnsupportedProxiableUUID",
      "type": "error"
    },
    {
      "anonymous": false,
      "inputs": [
        {
          "indexed": false,
          "internalType": "uint64",
          "name": "version",
          "type": "uint64"
        }
      ],
      "name": "Initialized",
      "type": "event"
    },
    {
      "anonymous": false,
      "inputs": [
        {
          "indexed": true,
          "internalType": "address",
          "name": "previousOwner",
          "type": "address"
        },
        {
          "indexed": true,
          "internalType": "address",
          "name": "newOwner",
          "type": "address"
        }
      ],
      "name": "OwnershipTransferred",
      "type": "event"
    },
    {
      "anonymous": false,
      "inputs": [
        {
          "indexed": true,
          "internalType": "address",
          "name": "implementation",
          "type": "address"
        }
      ],
      "name": "Upgraded",
      "type": "event"
    },
    {
      "inputs": [],
      "name": "UPGRADE_INTERFACE_VERSION",
      "outputs": [
        {
          "internalType": "string",
          "name": "",
          "type": "string"
        }
      ],
      "stateMutability": "view",
      "type": "function"
    },
    {
      "inputs": [
        {
          "internalType": "address",
          "name": "addressFss",
          "type": "address"
        },
        {
          "internalType": "string",
          "name": "nomMateriel",
          "type": "string"
        },
        {
          "internalType": "string",
          "name": "ipfs",
          "type": "string"
        },
        {
          "internalType": "string",
          "name": "urlImage",
          "type": "string"
        }
      ],
      "name": "ajouterMateriel",
      "outputs": [],
      "stateMutability": "nonpayable",
      "type": "function"
    },
    {
      "inputs": [],
      "name": "getListeMateriels",
      "outputs": [
        {
          "components": [
            {
              "internalType": "uint256",
              "name": "idMateriel",
              "type": "uint256"
            },
            {
              "internalType": "address",
              "name": "addressFss",
              "type": "address"
            },
            {
              "internalType": "string",
              "name": "nomMateriel",
              "type": "string"
            },
            {
              "internalType": "string",
              "name": "ipfs",
              "type": "string"
            },
            {
              "internalType": "string",
              "name": "urlImage",
              "type": "string"
            }
          ],
          "internalType": "struct Materiel.StructMateriel[]",
          "name": "",
          "type": "tuple[]"
        }
      ],
      "stateMutability": "view",
      "type": "function"
    },
    {
      "inputs": [
        {
          "internalType": "uint256",
          "name": "idMateriel",
          "type": "uint256"
        }
      ],
      "name": "getNomMateriel",
      "outputs": [
        {
          "internalType": "string",
          "name": "",
          "type": "string"
        }
      ],
      "stateMutability": "view",
      "type": "function"
    },
    {
      "inputs": [],
      "name": "getVersion",
      "outputs": [
        {
          "internalType": "string",
          "name": "",
          "type": "string"
        }
      ],
      "stateMutability": "pure",
      "type": "function"
    },
    {
      "inputs": [],
      "name": "initialize",
      "outputs": [],
      "stateMutability": "nonpayable",
      "type": "function"
    },
    {
      "inputs": [],
      "name": "owner",
      "outputs": [
        {
          "internalType": "address",
          "name": "",
          "type": "address"
        }
      ],
      "stateMutability": "view",
      "type": "function"
    },
    {
      "inputs": [],
      "name": "proxiableUUID",
      "outputs": [
        {
          "internalType": "bytes32",
          "name": "",
          "type": "bytes32"
        }
      ],
      "stateMutability": "view",
      "type": "function"
    },
    {
      "inputs": [],
      "name": "renounceOwnership",
      "outputs": [],
      "stateMutability": "nonpayable",
      "type": "function"
    },
    {
      "inputs": [
        {
          "internalType": "uint256",
          "name": "rang",
          "type": "uint256"
        }
      ],
      "name": "supprimerMateriel",
      "outputs": [],
      "stateMutability": "nonpayable",
      "type": "function"
    },
    {
      "inputs": [
        {
          "internalType": "address",
          "name": "newOwner",
          "type": "address"
        }
      ],
      "name": "transferOwnership",
      "outputs": [],
      "stateMutability": "nonpayable",
      "type": "function"
    },
    {
      "inputs": [
        {
          "internalType": "address",
          "name": "newImplementation",
          "type": "address"
        },
        {
          "internalType": "bytes",
          "name": "data",
          "type": "bytes"
        }
      ],
      "name": "upgradeToAndCall",
      "outputs": [],
      "stateMutability": "payable",
      "type": "function"
    }
  ],
  "bytecode": "0x60a06040523060805234801561001457600080fd5b5060805161185361003e60003960008181610a4101528181610a6a0152610ba101526118536000f3fe6080604052600436106100975760003560e01c80630d8e6e2c1461009c578063171fa9bc146100da5780634f1ef286146100fc57806352d1902d1461010f578063715018a6146101315780637560b48f146101465780638129fc1c146101665780638da5cb5b1461017b578063a80f602d1461019d578063ad3cb1cc146101bd578063d2f8735c146101ee578063f2fde38b14610210575b600080fd5b3480156100a857600080fd5b506040805180820190915260038152620312e360ec1b60208201525b6040516100d19190610ffc565b60405180910390f35b3480156100e657600080fd5b506100fa6100f5366004611140565b610230565b005b6100fa61010a3660046111f2565b6103a7565b34801561011b57600080fd5b506101246103c6565b6040516100d19190611251565b34801561013d57600080fd5b506100fa6103e3565b34801561015257600080fd5b506100fa610161366004611270565b6103f7565b34801561017257600080fd5b506100fa61057e565b34801561018757600080fd5b50610190610688565b6040516100d1919061129a565b3480156101a957600080fd5b506100c46101b8366004611270565b6106a3565b3480156101c957600080fd5b506100c4604051806040016040528060058152602001640352e302e360dc1b81525081565b3480156101fa57600080fd5b50610203610777565b6040516100d1919061139a565b34801561021c57600080fd5b506100fa61022b3660046113ab565b6109ac565b6102536040518060600160405280602c81526020016117d2602c913985856109ea565b6001600160a01b0384166102825760405162461bcd60e51b8152600401610279906113f3565b60405180910390fd5b6040805160a0810182526000805482526001600160a01b03878116602084019081529383018781526060840187905260808401869052600180548082018255935283517fb10e2d527612073b26eecdfd717e6a320cf44b4afac2b0732d9fcbe2b7fa0cf6600590940293840190815594517fb10e2d527612073b26eecdfd717e6a320cf44b4afac2b0732d9fcbe2b7fa0cf7840180546001600160a01b0319169190931617909155519192917fb10e2d527612073b26eecdfd717e6a320cf44b4afac2b0732d9fcbe2b7fa0cf89091019061035d9082611502565b50606082015160038201906103729082611502565b50608082015160048201906103879082611502565b505050600160008082825461039c91906115d2565b909155505050505050565b6103af610a36565b6103b882610adb565b6103c28282610ae3565b5050565b60006103d0610b96565b506000805160206117fe83398151915290565b6103eb610bdf565b6103f56000610c11565b565b6104336040518060400160405280601a815260200179039bab8383934b6b2b926b0ba32b934b2b6103930b7339012b9960351b81525082610c6d565b805b6001805461044391906115e5565b81101561051157600161045682826115d2565b81548110610466576104666115f8565b906000526020600020906005020160018281548110610487576104876115f8565b60009182526020909120825460059092020190815560018083015490820180546001600160a01b0319166001600160a01b039092169190911790556002808201906104d490840182611619565b506003818101906104e790840182611619565b506004818101906104fa90840182611619565b509050508080610509906116d0565b915050610435565b506001805480610523576105236116e9565b6000828152602081206005600019909301928302018181556001810180546001600160a01b03191690559061055b6002830182610f4c565b610569600383016000610f4c565b610577600483016000610f4c565b5050905550565b6000610588610cb2565b805490915060ff600160401b82041615906001600160401b03166000811580156105af5750825b90506000826001600160401b031660011480156105cb5750303b155b9050811580156105d9575080155b156105f75760405163f92ee8a960e01b815260040160405180910390fd5b845467ffffffffffffffff19166001178555831561062157845460ff60401b1916600160401b1785555b61062a33610cd6565b610632610ce7565b60008055831561068157845460ff60401b191685556040517fc7f505b2f371ae2175ee4913f4499e1f2633a7b5936321eed1cdaeb6115181d29061067890600190611719565b60405180910390a15b5050505050565b600080610693610cef565b546001600160a01b031692915050565b60015460609082106106c357505060408051602081019091526000815290565b600182815481106106d6576106d66115f8565b906000526020600020906005020160020180546106f290611419565b80601f016020809104026020016040519081016040528092919081815260200182805461071e90611419565b801561076b5780601f106107405761010080835404028352916020019161076b565b820191906000526020600020905b81548152906001019060200180831161074e57829003601f168201915b50505050509050919050565b60606001805480602002602001604051908101604052809291908181526020016000905b828210156109a35760008481526020908190206040805160a081018252600586029092018054835260018101546001600160a01b031693830193909352600283018054929392918401916107ee90611419565b80601f016020809104026020016040519081016040528092919081815260200182805461081a90611419565b80156108675780601f1061083c57610100808354040283529160200191610867565b820191906000526020600020905b81548152906001019060200180831161084a57829003601f168201915b5050505050815260200160038201805461088090611419565b80601f01602080910402602001604051908101604052809291908181526020018280546108ac90611419565b80156108f95780601f106108ce576101008083540402835291602001916108f9565b820191906000526020600020905b8154815290600101906020018083116108dc57829003601f168201915b5050505050815260200160048201805461091290611419565b80601f016020809104026020016040519081016040528092919081815260200182805461093e90611419565b801561098b5780601f106109605761010080835404028352916020019161098b565b820191906000526020600020905b81548152906001019060200180831161096e57829003601f168201915b5050505050815250508152602001906001019061079b565b50505050905090565b6109b4610bdf565b6001600160a01b0381166109de576000604051631e4fbdf760e01b8152600401610279919061129a565b6109e781610c11565b50565b610a31838383604051602401610a0293929190611727565b60408051601f198184030181529190526020810180516001600160e01b031663e0e9ad4f60e01b179052610d13565b505050565b306001600160a01b037f0000000000000000000000000000000000000000000000000000000000000000161480610abd57507f00000000000000000000000000000000000000000000000000000000000000006001600160a01b0316610ab16000805160206117fe833981519152546001600160a01b031690565b6001600160a01b031614155b156103f55760405163703e46dd60e11b815260040160405180910390fd5b6109e7610bdf565b816001600160a01b03166352d1902d6040518163ffffffff1660e01b8152600401602060405180830381865afa925050508015610b3d575060408051601f3d908101601f19168201909252610b3a91810190611764565b60015b610b5c5781604051634c9c8ce360e01b8152600401610279919061129a565b6000805160206117fe8339815191528114610b8c5780604051632a87526960e21b81526004016102799190611251565b610a318383610d1c565b306001600160a01b037f000000000000000000000000000000000000000000000000000000000000000016146103f55760405163703e46dd60e11b815260040160405180910390fd5b33610be8610688565b6001600160a01b0316146103f5573360405163118cdaa760e01b8152600401610279919061129a565b6000610c1b610cef565b80546001600160a01b038481166001600160a01b031983168117845560405193945091169182907f8be0079c531659141344cd1fd0a4f28419497f9722a3daafe3b4186f6b6457e090600090a3505050565b6103c28282604051602401610c83929190611785565b60408051601f198184030181529190526020810180516001600160e01b0316632d839cb360e21b179052610d13565b7ff0c57e16840df040f15088dc2f81fe391c3923bec73e23a9662efc9c229c6a0090565b610cde610d72565b6109e781610d97565b6103f5610d72565b7f9016d09d72d40fdae2fd8ceac6b6234c7706214fd39c1cd1e609a0528c19930090565b6109e781610d9f565b610d2582610dc0565b6040516001600160a01b038316907fbc7cd75a20ee27fd9adebab32041f755214dbc6bffa90cc0225b39da2e5c2d3b90600090a2805115610d6a57610a318282610e1c565b6103c2610e94565b610d7a610eb3565b6103f557604051631afcd79f60e31b815260040160405180910390fd5b6109b4610d72565b60006a636f6e736f6c652e6c6f679050600080835160208501845afa505050565b806001600160a01b03163b600003610ded5780604051634c9c8ce360e01b8152600401610279919061129a565b6000805160206117fe83398151915280546001600160a01b0319166001600160a01b0392909216919091179055565b6060600080846001600160a01b031684604051610e3991906117c7565b600060405180830381855af49150503d8060008114610e74576040519150601f19603f3d011682016040523d82523d6000602084013e610e79565b606091505b5091509150610e89858383610ecd565b925050505b92915050565b34156103f55760405163b398979f60e01b815260040160405180910390fd5b6000610ebd610cb2565b54600160401b900460ff16919050565b606082610ee257610edd82610f23565b610f1c565b8151158015610ef957506001600160a01b0384163b155b15610f195783604051639996b31560e01b8152600401610279919061129a565b50805b9392505050565b805115610f335780518082602001fd5b604051630a12f52160e11b815260040160405180910390fd5b508054610f5890611419565b6000825580601f10610f68575050565b601f0160209004906000526020600020908101906109e791905b80821115610f965760008155600101610f82565b5090565b60005b83811015610fb5578181015183820152602001610f9d565b50506000910152565b601f01601f191690565b6000610fd2825190565b808452602084019350610fe9818560208601610f9a565b610ff281610fbe565b9093019392505050565b60208082528101610f1c8184610fc8565b60006001600160a01b038216610e8e565b6110278161100d565b81146109e757600080fd5b8035610e8e8161101e565b634e487b7160e01b600052604160045260246000fd5b61105c82610fbe565b81018181106001600160401b03821117156110795761107961103d565b6040525050565b600061108b60405190565b90506110978282611053565b919050565b60006001600160401b038211156110b5576110b561103d565b6110be82610fbe565b60200192915050565b82818337506000910152565b60006110e66110e18461109c565b611080565b90508281526020810184848401111561110157611101600080fd5b61110c8482856110c7565b509392505050565b600082601f83011261112857611128600080fd5b81356111388482602086016110d3565b949350505050565b6000806000806080858703121561115957611159600080fd5b60006111658787611032565b94505060208501356001600160401b0381111561118457611184600080fd5b61119087828801611114565b93505060408501356001600160401b038111156111af576111af600080fd5b6111bb87828801611114565b92505060608501356001600160401b038111156111da576111da600080fd5b6111e687828801611114565b91505092959194509250565b6000806040838503121561120857611208600080fd5b60006112148585611032565b92505060208301356001600160401b0381111561123357611233600080fd5b61123f85828601611114565b9150509250929050565b805b82525050565b60208101610e8e8284611249565b80611027565b8035610e8e8161125f565b60006020828403121561128557611285600080fd5b60006111388484611265565b61124b8161100d565b60208101610e8e8284611291565b805160009060a08401906112bc8582611249565b5060208301516112cf6020860182611291565b50604083015184820360408601526112e78282610fc8565b915050606083015184820360608601526113018282610fc8565b9150506080830151848203608086015261131b8282610fc8565b95945050505050565b6000610f1c83836112a8565b60200190565b6000611340825190565b8084526020840193508360208202850161135a8560200190565b60005b8481101561138e57838303885281516113768482611324565b9350506020820160209890980197915060010161135d565b50909695505050505050565b60208082528101610f1c8184611336565b6000602082840312156113c0576113c0600080fd5b60006111388484611032565b60128152602081017141646472657373206e6f742076616c69646560701b81529050611330565b60208082528101610e8e816113cc565b634e487b7160e01b600052602260045260246000fd5b60028104600182168061142d57607f821691505b60208210810361143f5761143f611403565b50919050565b6000610e8e6114518381565b90565b61145d83611445565b815460001960089490940293841b1916921b91909117905550565b6000610a31818484611454565b818110156103c257611498600082611478565b600101611485565b601f821115610a31576000818152602090206020601f850104810160208510156114c75750805b6106816020601f860104830182611485565b6000196008929092029190911c191690565b6114f582826114d9565b6002909202909117919050565b81516001600160401b0381111561151b5761151b61103d565b6115258254611419565b6115308282856114a0565b506020601f82116001811461155f576000831561154d5750848201515b61155784826114eb565b855550610681565b600084815260208120601f198516915b8281101561158f578785015182556020948501946001909201910161156f565b50848210156115ad57838701516115a9601f8716826114d9565b8255505b50505050600202600101905550565b634e487b7160e01b600052601160045260246000fd5b80820180821115610e8e57610e8e6115bc565b81810381811115610e8e57610e8e6115bc565b634e487b7160e01b600052603260045260246000fd5b8054610e8e81611419565b818103611624575050565b61162d8261160e565b6001600160401b038111156116445761164461103d565b61164e8254611419565b6116598282856114a0565b506000601f82116001811461167f576000831561154d57508482015461155784826114eb565b600094855260208086208587529520601f19841690835b828110156116b65787850154825560019485019490910190602001611696565b50848210156115ad57838701546115a9601f8716826114d9565b6000600182016116e2576116e26115bc565b5060010190565b634e487b7160e01b600052603160045260246000fd5b60006001600160401b038216610e8e565b61124b816116ff565b60208101610e8e8284611710565b606080825281016117388186610fc8565b90506117476020830185611291565b818103604083015261131b8184610fc8565b8051610e8e8161125f565b60006020828403121561177957611779600080fd5b60006111388484611759565b604080825281016117968185610fc8565b9050610f1c6020830184611249565b60006117af825190565b6117bd818560208601610f9a565b9290920192915050565b610e8e81836117a556fe616a6f757465724d6174657269656c2061646472657373467373202573206e6f6d4d6174657269656c202573360894a13ba1a3210667c828492db98dca3e2076cc3735a920a3ca505d382bbca264697066735822122097f7a28549feb9eb1021f33c0210a158afd15a02f60846c7d9f5d2ab9b08336564736f6c63430008150033",
  "linkReferences": {},
  "deployedLinkReferences": {}
}