{
  "_format": "hh-sol-artifact-1",
  "contractName": "Materiel",
  "sourceName": "contracts/Materiel.sol",
  "abi": [
    {
      "inputs": [],
      "stateMutability": "nonpayable",
      "type": "constructor"
    },
    {
      "inputs": [
        {
          "internalType": "address",
          "name": "addressFss",
          "type": "address"
        },
        {
          "internalType": "string",
          "name": "nomMateriel",
          "type": "string"
        },
        {
          "internalType": "string",
          "name": "ipfs",
          "type": "string"
        },
        {
          "internalType": "string",
          "name": "urlImage",
          "type": "string"
        }
      ],
      "name": "ajouterMateriel",
      "outputs": [],
      "stateMutability": "nonpayable",
      "type": "function"
    },
    {
      "inputs": [],
      "name": "getListeMateriels",
      "outputs": [
        {
          "components": [
            {
              "internalType": "uint256",
              "name": "idMateriel",
              "type": "uint256"
            },
            {
              "internalType": "address",
              "name": "addressFss",
              "type": "address"
            },
            {
              "internalType": "string",
              "name": "nomMateriel",
              "type": "string"
            },
            {
              "internalType": "string",
              "name": "ipfs",
              "type": "string"
            },
            {
              "internalType": "string",
              "name": "urlImage",
              "type": "string"
            }
          ],
          "internalType": "struct Materiel.StructMateriel[]",
          "name": "",
          "type": "tuple[]"
        }
      ],
      "stateMutability": "view",
      "type": "function"
    },
    {
      "inputs": [
        {
          "internalType": "uint256",
          "name": "idMateriel",
          "type": "uint256"
        }
      ],
      "name": "getNomMateriel",
      "outputs": [
        {
          "internalType": "string",
          "name": "",
          "type": "string"
        }
      ],
      "stateMutability": "view",
      "type": "function"
    },
    {
      "inputs": [
        {
          "internalType": "uint256",
          "name": "rang",
          "type": "uint256"
        }
      ],
      "name": "supprimerMateriel",
      "outputs": [],
      "stateMutability": "nonpayable",
      "type": "function"
    }
  ],
  "bytecode": "0x608060405234801561001057600080fd5b50610df8806100206000396000f3fe608060405234801561001057600080fd5b506004361061004c5760003560e01c8063171fa9bc146100515780637560b48f14610066578063a80f602d14610079578063d2f8735c146100a2575b600080fd5b61006461005f3660046109ce565b6100b7565b005b610064610074366004610a91565b6101ef565b61008c610087366004610a91565b61039d565b6040516100999190610b12565b60405180910390f35b6100aa610453565b6040516100999190610c2d565b6100da6040518060600160405280602c8152602001610d97602c91398585610688565b6001600160a01b0384166101095760405162461bcd60e51b815260040161010090610c65565b60405180910390fd5b60016040518060a0016040528061011f60005490565b81526001600160a01b03878116602080840191909152604080840189905260608401889052608090930186905284546001808201875560009687529582902085516005909202019081558482015195810180546001600160a01b03191696909316959095179091559082015180519293926101a0926002850192019061073e565b50606082015180516101bc91600384019160209091019061073e565b50608082015180516101d891600484019160209091019061073e565b5050506101e9600080546001019055565b50505050565b61022b6040518060400160405280601a815260200179039bab8383934b6b2b926b0ba32b934b2b6103930b7339012b9960351b815250826106d4565b805b6001805461023b9190610c8b565b81101561033057600161024e8282610ca2565b8154811061025e5761025e610cba565b90600052602060002090600502016001828154811061027f5761027f610cba565b60009182526020909120825460059092020190815560018083015490820180546001600160a01b0319166001600160a01b0390921691909117905560028083018054918301916102ce90610ce6565b6102d99291906107c2565b5060038201816003019080546102ee90610ce6565b6102f99291906107c2565b50600482018160040190805461030e90610ce6565b6103199291906107c2565b50905050808061032890610d13565b91505061022d565b50600180548061034257610342610d2e565b6000828152602081206005600019909301928302018181556001810180546001600160a01b03191690559061037a600283018261083d565b61038860038301600061083d565b61039660048301600061083d565b5050905550565b6060600182815481106103b2576103b2610cba565b906000526020600020906005020160020180546103ce90610ce6565b80601f01602080910402602001604051908101604052809291908181526020018280546103fa90610ce6565b80156104475780601f1061041c57610100808354040283529160200191610447565b820191906000526020600020905b81548152906001019060200180831161042a57829003601f168201915b50505050509050919050565b60606001805480602002602001604051908101604052809291908181526020016000905b8282101561067f5760008481526020908190206040805160a081018252600586029092018054835260018101546001600160a01b031693830193909352600283018054929392918401916104ca90610ce6565b80601f01602080910402602001604051908101604052809291908181526020018280546104f690610ce6565b80156105435780601f1061051857610100808354040283529160200191610543565b820191906000526020600020905b81548152906001019060200180831161052657829003601f168201915b5050505050815260200160038201805461055c90610ce6565b80601f016020809104026020016040519081016040528092919081815260200182805461058890610ce6565b80156105d55780601f106105aa576101008083540402835291602001916105d5565b820191906000526020600020905b8154815290600101906020018083116105b857829003601f168201915b505050505081526020016004820180546105ee90610ce6565b80601f016020809104026020016040519081016040528092919081815260200182805461061a90610ce6565b80156106675780601f1061063c57610100808354040283529160200191610667565b820191906000526020600020905b81548152906001019060200180831161064a57829003601f168201915b50505050508152505081526020019060010190610477565b50505050905090565b6106cf8383836040516024016106a093929190610d44565b60408051601f198184030181529190526020810180516001600160e01b031663e0e9ad4f60e01b17905261071d565b505050565b61071982826040516024016106ea929190610d76565b60408051601f198184030181529190526020810180516001600160e01b0316632d839cb360e21b17905261071d565b5050565b80516a636f6e736f6c652e6c6f67602083016000808483855afa5050505050565b82805461074a90610ce6565b90600052602060002090601f01602090048101928261076c57600085556107b2565b82601f1061078557805160ff19168380011785556107b2565b828001600101855582156107b2579182015b828111156107b2578251825591602001919060010190610797565b506107be92915061087a565b5090565b8280546107ce90610ce6565b90600052602060002090601f0160209004810192826107f057600085556107b2565b82601f1061080157805485556107b2565b828001600101855582156107b257600052602060002091601f016020900482015b828111156107b2578254825591600101919060010190610822565b50805461084990610ce6565b6000825580601f10610859575050565b601f016020900490600052602060002090810190610877919061087a565b50565b5b808211156107be576000815560010161087b565b60006001600160a01b0382165b92915050565b6108ab8161088f565b811461087757600080fd5b803561089c816108a2565b601f01601f191690565b634e487b7160e01b600052604160045260246000fd5b6108ea826108c1565b81018181106001600160401b0382111715610907576109076108cb565b6040525050565b600061091960405190565b905061092582826108e1565b919050565b60006001600160401b03821115610943576109436108cb565b61094c826108c1565b60200192915050565b82818337506000910152565b600061097461096f8461092a565b61090e565b90508281526020810184848401111561098f5761098f600080fd5b61099a848285610955565b509392505050565b600082601f8301126109b6576109b6600080fd5b81356109c6848260208601610961565b949350505050565b600080600080608085870312156109e7576109e7600080fd5b60006109f387876108b6565b94505060208501356001600160401b03811115610a1257610a12600080fd5b610a1e878288016109a2565b93505060408501356001600160401b03811115610a3d57610a3d600080fd5b610a49878288016109a2565b92505060608501356001600160401b03811115610a6857610a68600080fd5b610a74878288016109a2565b91505092959194509250565b806108ab565b803561089c81610a80565b600060208284031215610aa657610aa6600080fd5b60006109c68484610a86565b60005b83811015610acd578181015183820152602001610ab5565b838111156101e95750506000910152565b6000610ae8825190565b808452602084019350610aff818560208601610ab2565b610b08816108c1565b9093019392505050565b60208082528101610b238184610ade565b9392505050565b805b82525050565b610b2c8161088f565b805160009060a0840190610b4f8582610b2a565b506020830151610b626020860182610b32565b5060408301518482036040860152610b7a8282610ade565b91505060608301518482036060860152610b948282610ade565b91505060808301518482036080860152610bae8282610ade565b95945050505050565b6000610b238383610b3b565b60200190565b6000610bd3825190565b80845260208401935083602082028501610bed8560200190565b60005b84811015610c215783830388528151610c098482610bb7565b93505060208201602098909801979150600101610bf0565b50909695505050505050565b60208082528101610b238184610bc9565b60128152602081017141646472657373206e6f742076616c69646560701b81529050610bc3565b6020808252810161089c81610c3e565b634e487b7160e01b600052601160045260246000fd5b600082821015610c9d57610c9d610c75565b500390565b60008219821115610cb557610cb5610c75565b500190565b634e487b7160e01b600052603260045260246000fd5b634e487b7160e01b600052602260045260246000fd5b600281046001821680610cfa57607f821691505b60208210811415610d0d57610d0d610cd0565b50919050565b6000600019821415610d2757610d27610c75565b5060010190565b634e487b7160e01b600052603160045260246000fd5b60608082528101610d558186610ade565b9050610d646020830185610b32565b8181036040830152610bae8184610ade565b60408082528101610d878185610ade565b9050610b236020830184610b2a56fe616a6f757465724d6174657269656c2061646472657373467373202573206e6f6d4d6174657269656c202573a264697066735822122063892399571b90a55bfb9a018ecf67483e464bfda233aa1c70fd45c37fbffcba64736f6c634300080c0033",
  "linkReferences": {},
  "deployedLinkReferences": {}
}