{
  "_format": "hh-sol-artifact-1",
  "contractName": "Materiel",
  "sourceName": "contracts/Materiel.sol",
  "abi": [
    {
      "inputs": [
        {
          "internalType": "address",
          "name": "target",
          "type": "address"
        }
      ],
      "name": "AddressEmptyCode",
      "type": "error"
    },
    {
      "inputs": [
        {
          "internalType": "address",
          "name": "implementation",
          "type": "address"
        }
      ],
      "name": "ERC1967InvalidImplementation",
      "type": "error"
    },
    {
      "inputs": [],
      "name": "ERC1967NonPayable",
      "type": "error"
    },
    {
      "inputs": [],
      "name": "FailedInnerCall",
      "type": "error"
    },
    {
      "inputs": [],
      "name": "InvalidInitialization",
      "type": "error"
    },
    {
      "inputs": [],
      "name": "NotInitializing",
      "type": "error"
    },
    {
      "inputs": [
        {
          "internalType": "address",
          "name": "owner",
          "type": "address"
        }
      ],
      "name": "OwnableInvalidOwner",
      "type": "error"
    },
    {
      "inputs": [
        {
          "internalType": "address",
          "name": "account",
          "type": "address"
        }
      ],
      "name": "OwnableUnauthorizedAccount",
      "type": "error"
    },
    {
      "inputs": [],
      "name": "UUPSUnauthorizedCallContext",
      "type": "error"
    },
    {
      "inputs": [
        {
          "internalType": "bytes32",
          "name": "slot",
          "type": "bytes32"
        }
      ],
      "name": "UUPSUnsupportedProxiableUUID",
      "type": "error"
    },
    {
      "anonymous": false,
      "inputs": [
        {
          "indexed": true,
          "internalType": "address",
          "name": "sender",
          "type": "address"
        },
        {
          "indexed": true,
          "internalType": "address",
          "name": "addressFss",
          "type": "address"
        },
        {
          "indexed": false,
          "internalType": "string",
          "name": "nomMateriel",
          "type": "string"
        },
        {
          "indexed": false,
          "internalType": "string",
          "name": "ipfs",
          "type": "string"
        },
        {
          "indexed": false,
          "internalType": "string",
          "name": "urlImage",
          "type": "string"
        }
      ],
      "name": "AjouterMaterielEvent",
      "type": "event"
    },
    {
      "anonymous": false,
      "inputs": [
        {
          "indexed": false,
          "internalType": "uint64",
          "name": "version",
          "type": "uint64"
        }
      ],
      "name": "Initialized",
      "type": "event"
    },
    {
      "anonymous": false,
      "inputs": [
        {
          "indexed": true,
          "internalType": "address",
          "name": "previousOwner",
          "type": "address"
        },
        {
          "indexed": true,
          "internalType": "address",
          "name": "newOwner",
          "type": "address"
        }
      ],
      "name": "OwnershipTransferred",
      "type": "event"
    },
    {
      "anonymous": false,
      "inputs": [
        {
          "indexed": true,
          "internalType": "address",
          "name": "implementation",
          "type": "address"
        }
      ],
      "name": "Upgraded",
      "type": "event"
    },
    {
      "inputs": [],
      "name": "UPGRADE_INTERFACE_VERSION",
      "outputs": [
        {
          "internalType": "string",
          "name": "",
          "type": "string"
        }
      ],
      "stateMutability": "view",
      "type": "function"
    },
    {
      "inputs": [
        {
          "internalType": "address",
          "name": "addressFss",
          "type": "address"
        },
        {
          "internalType": "string",
          "name": "nomMateriel",
          "type": "string"
        },
        {
          "internalType": "string",
          "name": "ipfs",
          "type": "string"
        },
        {
          "internalType": "string",
          "name": "urlImage",
          "type": "string"
        }
      ],
      "name": "ajouterMateriel",
      "outputs": [],
      "stateMutability": "nonpayable",
      "type": "function"
    },
    {
      "inputs": [],
      "name": "getListeMateriels",
      "outputs": [
        {
          "components": [
            {
              "internalType": "uint256",
              "name": "idMateriel",
              "type": "uint256"
            },
            {
              "internalType": "address",
              "name": "addressFss",
              "type": "address"
            },
            {
              "internalType": "string",
              "name": "nomMateriel",
              "type": "string"
            },
            {
              "internalType": "string",
              "name": "ipfs",
              "type": "string"
            },
            {
              "internalType": "string",
              "name": "urlImage",
              "type": "string"
            }
          ],
          "internalType": "struct Materiel.StructMateriel[]",
          "name": "",
          "type": "tuple[]"
        }
      ],
      "stateMutability": "view",
      "type": "function"
    },
    {
      "inputs": [
        {
          "internalType": "uint256",
          "name": "idMateriel",
          "type": "uint256"
        }
      ],
      "name": "getNomMateriel",
      "outputs": [
        {
          "internalType": "string",
          "name": "",
          "type": "string"
        }
      ],
      "stateMutability": "view",
      "type": "function"
    },
    {
      "inputs": [],
      "name": "getVersion",
      "outputs": [
        {
          "internalType": "string",
          "name": "",
          "type": "string"
        }
      ],
      "stateMutability": "pure",
      "type": "function"
    },
    {
      "inputs": [],
      "name": "initialize",
      "outputs": [],
      "stateMutability": "nonpayable",
      "type": "function"
    },
    {
      "inputs": [],
      "name": "owner",
      "outputs": [
        {
          "internalType": "address",
          "name": "",
          "type": "address"
        }
      ],
      "stateMutability": "view",
      "type": "function"
    },
    {
      "inputs": [],
      "name": "proxiableUUID",
      "outputs": [
        {
          "internalType": "bytes32",
          "name": "",
          "type": "bytes32"
        }
      ],
      "stateMutability": "view",
      "type": "function"
    },
    {
      "inputs": [],
      "name": "renounceOwnership",
      "outputs": [],
      "stateMutability": "nonpayable",
      "type": "function"
    },
    {
      "inputs": [
        {
          "internalType": "uint256",
          "name": "rang",
          "type": "uint256"
        }
      ],
      "name": "supprimerMateriel",
      "outputs": [],
      "stateMutability": "nonpayable",
      "type": "function"
    },
    {
      "inputs": [
        {
          "internalType": "address",
          "name": "newOwner",
          "type": "address"
        }
      ],
      "name": "transferOwnership",
      "outputs": [],
      "stateMutability": "nonpayable",
      "type": "function"
    },
    {
      "inputs": [
        {
          "internalType": "address",
          "name": "newImplementation",
          "type": "address"
        },
        {
          "internalType": "bytes",
          "name": "data",
          "type": "bytes"
        }
      ],
      "name": "upgradeToAndCall",
      "outputs": [],
      "stateMutability": "payable",
      "type": "function"
    }
  ],
  "bytecode": "0x60a06040523060805234801561001457600080fd5b506080516118d561003e60003960008181610a8a01528181610ab30152610bea01526118d56000f3fe6080604052600436106100975760003560e01c80630d8e6e2c1461009c578063171fa9bc146100da5780634f1ef286146100fc57806352d1902d1461010f578063715018a6146101315780637560b48f146101465780638129fc1c146101665780638da5cb5b1461017b578063a80f602d1461019d578063ad3cb1cc146101bd578063d2f8735c146101ee578063f2fde38b14610210575b600080fd5b3480156100a857600080fd5b506040805180820190915260038152620312e360ec1b60208201525b6040516100d19190611045565b60405180910390f35b3480156100e657600080fd5b506100fa6100f5366004611189565b610230565b005b6100fa61010a36600461123b565b6103f0565b34801561011b57600080fd5b5061012461040f565b6040516100d1919061129a565b34801561013d57600080fd5b506100fa61042c565b34801561015257600080fd5b506100fa6101613660046112b9565b610440565b34801561017257600080fd5b506100fa6105c7565b34801561018757600080fd5b506101906106d1565b6040516100d191906112e3565b3480156101a957600080fd5b506100c46101b83660046112b9565b6106ec565b3480156101c957600080fd5b506100c4604051806040016040528060058152602001640352e302e360dc1b81525081565b3480156101fa57600080fd5b506102036107c0565b6040516100d191906113e3565b34801561021c57600080fd5b506100fa61022b3660046113f4565b6109f5565b6102536040518060600160405280602c8152602001611854602c91398585610a33565b6001600160a01b0384166102825760405162461bcd60e51b81526004016102799061143c565b60405180910390fd5b6040805160a0810182526000805482526001600160a01b03878116602084019081529383018781526060840187905260808401869052600180548082018255935283517fb10e2d527612073b26eecdfd717e6a320cf44b4afac2b0732d9fcbe2b7fa0cf6600590940293840190815594517fb10e2d527612073b26eecdfd717e6a320cf44b4afac2b0732d9fcbe2b7fa0cf7840180546001600160a01b0319169190931617909155519192917fb10e2d527612073b26eecdfd717e6a320cf44b4afac2b0732d9fcbe2b7fa0cf89091019061035d908261154b565b5060608201516003820190610372908261154b565b5060808201516004820190610387908261154b565b505050600160008082825461039c919061161b565b90915550506040516001600160a01b0385169033907fc9aae8bcb8067ed265c7a0f696538be6b170f8d0227716928fe83882ecb11647906103e29087908790879061162e565b60405180910390a350505050565b6103f8610a7f565b61040182610b24565b61040b8282610b2c565b5050565b6000610419610bdf565b5060008051602061188083398151915290565b610434610c28565b61043e6000610c5a565b565b61047c6040518060400160405280601a815260200179039bab8383934b6b2b926b0ba32b934b2b6103930b7339012b9960351b81525082610cb6565b805b6001805461048c9190611667565b81101561055a57600161049f828261161b565b815481106104af576104af61167a565b9060005260206000209060050201600182815481106104d0576104d061167a565b60009182526020909120825460059092020190815560018083015490820180546001600160a01b0319166001600160a01b0390921691909117905560028082019061051d9084018261169b565b506003818101906105309084018261169b565b506004818101906105439084018261169b565b50905050808061055290611752565b91505061047e565b50600180548061056c5761056c61176b565b6000828152602081206005600019909301928302018181556001810180546001600160a01b0319169055906105a46002830182610f95565b6105b2600383016000610f95565b6105c0600483016000610f95565b5050905550565b60006105d1610cfb565b805490915060ff600160401b82041615906001600160401b03166000811580156105f85750825b90506000826001600160401b031660011480156106145750303b155b905081158015610622575080155b156106405760405163f92ee8a960e01b815260040160405180910390fd5b845467ffffffffffffffff19166001178555831561066a57845460ff60401b1916600160401b1785555b61067333610d1f565b61067b610d30565b6000805583156106ca57845460ff60401b191685556040517fc7f505b2f371ae2175ee4913f4499e1f2633a7b5936321eed1cdaeb6115181d2906106c19060019061179b565b60405180910390a15b5050505050565b6000806106dc610d38565b546001600160a01b031692915050565b600154606090821061070c57505060408051602081019091526000815290565b6001828154811061071f5761071f61167a565b9060005260206000209060050201600201805461073b90611462565b80601f016020809104026020016040519081016040528092919081815260200182805461076790611462565b80156107b45780601f10610789576101008083540402835291602001916107b4565b820191906000526020600020905b81548152906001019060200180831161079757829003601f168201915b50505050509050919050565b60606001805480602002602001604051908101604052809291908181526020016000905b828210156109ec5760008481526020908190206040805160a081018252600586029092018054835260018101546001600160a01b0316938301939093526002830180549293929184019161083790611462565b80601f016020809104026020016040519081016040528092919081815260200182805461086390611462565b80156108b05780601f10610885576101008083540402835291602001916108b0565b820191906000526020600020905b81548152906001019060200180831161089357829003601f168201915b505050505081526020016003820180546108c990611462565b80601f01602080910402602001604051908101604052809291908181526020018280546108f590611462565b80156109425780601f1061091757610100808354040283529160200191610942565b820191906000526020600020905b81548152906001019060200180831161092557829003601f168201915b5050505050815260200160048201805461095b90611462565b80601f016020809104026020016040519081016040528092919081815260200182805461098790611462565b80156109d45780601f106109a9576101008083540402835291602001916109d4565b820191906000526020600020905b8154815290600101906020018083116109b757829003601f168201915b505050505081525050815260200190600101906107e4565b50505050905090565b6109fd610c28565b6001600160a01b038116610a27576000604051631e4fbdf760e01b815260040161027991906112e3565b610a3081610c5a565b50565b610a7a838383604051602401610a4b939291906117a9565b60408051601f198184030181529190526020810180516001600160e01b031663e0e9ad4f60e01b179052610d5c565b505050565b306001600160a01b037f0000000000000000000000000000000000000000000000000000000000000000161480610b0657507f00000000000000000000000000000000000000000000000000000000000000006001600160a01b0316610afa600080516020611880833981519152546001600160a01b031690565b6001600160a01b031614155b1561043e5760405163703e46dd60e11b815260040160405180910390fd5b610a30610c28565b816001600160a01b03166352d1902d6040518163ffffffff1660e01b8152600401602060405180830381865afa925050508015610b86575060408051601f3d908101601f19168201909252610b83918101906117e6565b60015b610ba55781604051634c9c8ce360e01b815260040161027991906112e3565b6000805160206118808339815191528114610bd55780604051632a87526960e21b8152600401610279919061129a565b610a7a8383610d65565b306001600160a01b037f0000000000000000000000000000000000000000000000000000000000000000161461043e5760405163703e46dd60e11b815260040160405180910390fd5b33610c316106d1565b6001600160a01b03161461043e573360405163118cdaa760e01b815260040161027991906112e3565b6000610c64610d38565b80546001600160a01b038481166001600160a01b031983168117845560405193945091169182907f8be0079c531659141344cd1fd0a4f28419497f9722a3daafe3b4186f6b6457e090600090a3505050565b61040b8282604051602401610ccc929190611807565b60408051601f198184030181529190526020810180516001600160e01b0316632d839cb360e21b179052610d5c565b7ff0c57e16840df040f15088dc2f81fe391c3923bec73e23a9662efc9c229c6a0090565b610d27610dbb565b610a3081610de0565b61043e610dbb565b7f9016d09d72d40fdae2fd8ceac6b6234c7706214fd39c1cd1e609a0528c19930090565b610a3081610de8565b610d6e82610e09565b6040516001600160a01b038316907fbc7cd75a20ee27fd9adebab32041f755214dbc6bffa90cc0225b39da2e5c2d3b90600090a2805115610db357610a7a8282610e65565b61040b610edd565b610dc3610efc565b61043e57604051631afcd79f60e31b815260040160405180910390fd5b6109fd610dbb565b60006a636f6e736f6c652e6c6f679050600080835160208501845afa505050565b806001600160a01b03163b600003610e365780604051634c9c8ce360e01b815260040161027991906112e3565b60008051602061188083398151915280546001600160a01b0319166001600160a01b0392909216919091179055565b6060600080846001600160a01b031684604051610e829190611849565b600060405180830381855af49150503d8060008114610ebd576040519150601f19603f3d011682016040523d82523d6000602084013e610ec2565b606091505b5091509150610ed2858383610f16565b925050505b92915050565b341561043e5760405163b398979f60e01b815260040160405180910390fd5b6000610f06610cfb565b54600160401b900460ff16919050565b606082610f2b57610f2682610f6c565b610f65565b8151158015610f4257506001600160a01b0384163b155b15610f625783604051639996b31560e01b815260040161027991906112e3565b50805b9392505050565b805115610f7c5780518082602001fd5b604051630a12f52160e11b815260040160405180910390fd5b508054610fa190611462565b6000825580601f10610fb1575050565b601f016020900490600052602060002090810190610a3091905b80821115610fdf5760008155600101610fcb565b5090565b60005b83811015610ffe578181015183820152602001610fe6565b50506000910152565b601f01601f191690565b600061101b825190565b808452602084019350611032818560208601610fe3565b61103b81611007565b9093019392505050565b60208082528101610f658184611011565b60006001600160a01b038216610ed7565b61107081611056565b8114610a3057600080fd5b8035610ed781611067565b634e487b7160e01b600052604160045260246000fd5b6110a582611007565b81018181106001600160401b03821117156110c2576110c2611086565b6040525050565b60006110d460405190565b90506110e0828261109c565b919050565b60006001600160401b038211156110fe576110fe611086565b61110782611007565b60200192915050565b82818337506000910152565b600061112f61112a846110e5565b6110c9565b90508281526020810184848401111561114a5761114a600080fd5b611155848285611110565b509392505050565b600082601f83011261117157611171600080fd5b813561118184826020860161111c565b949350505050565b600080600080608085870312156111a2576111a2600080fd5b60006111ae878761107b565b94505060208501356001600160401b038111156111cd576111cd600080fd5b6111d98782880161115d565b93505060408501356001600160401b038111156111f8576111f8600080fd5b6112048782880161115d565b92505060608501356001600160401b0381111561122357611223600080fd5b61122f8782880161115d565b91505092959194509250565b6000806040838503121561125157611251600080fd5b600061125d858561107b565b92505060208301356001600160401b0381111561127c5761127c600080fd5b6112888582860161115d565b9150509250929050565b805b82525050565b60208101610ed78284611292565b80611070565b8035610ed7816112a8565b6000602082840312156112ce576112ce600080fd5b600061118184846112ae565b61129481611056565b60208101610ed782846112da565b805160009060a08401906113058582611292565b50602083015161131860208601826112da565b50604083015184820360408601526113308282611011565b9150506060830151848203606086015261134a8282611011565b915050608083015184820360808601526113648282611011565b95945050505050565b6000610f6583836112f1565b60200190565b6000611389825190565b808452602084019350836020820285016113a38560200190565b60005b848110156113d757838303885281516113bf848261136d565b935050602082016020989098019791506001016113a6565b50909695505050505050565b60208082528101610f65818461137f565b60006020828403121561140957611409600080fd5b6000611181848461107b565b60128152602081017141646472657373206e6f742076616c69646560701b81529050611379565b60208082528101610ed781611415565b634e487b7160e01b600052602260045260246000fd5b60028104600182168061147657607f821691505b6020821081036114885761148861144c565b50919050565b6000610ed761149a8381565b90565b6114a68361148e565b815460001960089490940293841b1916921b91909117905550565b6000610a7a81848461149d565b8181101561040b576114e16000826114c1565b6001016114ce565b601f821115610a7a576000818152602090206020601f850104810160208510156115105750805b6106ca6020601f8601048301826114ce565b6000196008929092029190911c191690565b61153e8282611522565b6002909202909117919050565b81516001600160401b0381111561156457611564611086565b61156e8254611462565b6115798282856114e9565b506020601f8211600181146115a857600083156115965750848201515b6115a08482611534565b8555506106ca565b600084815260208120601f198516915b828110156115d857878501518255602094850194600190920191016115b8565b50848210156115f657838701516115f2601f871682611522565b8255505b50505050600202600101905550565b634e487b7160e01b600052601160045260246000fd5b80820180821115610ed757610ed7611605565b6060808252810161163f8186611011565b905081810360208301526116538185611011565b905081810360408301526113648184611011565b81810381811115610ed757610ed7611605565b634e487b7160e01b600052603260045260246000fd5b8054610ed781611462565b8181036116a6575050565b6116af82611690565b6001600160401b038111156116c6576116c6611086565b6116d08254611462565b6116db8282856114e9565b506000601f82116001811461170157600083156115965750848201546115a08482611534565b600094855260208086208587529520601f19841690835b828110156117385787850154825560019485019490910190602001611718565b50848210156115f657838701546115f2601f871682611522565b60006001820161176457611764611605565b5060010190565b634e487b7160e01b600052603160045260246000fd5b60006001600160401b038216610ed7565b61129481611781565b60208101610ed78284611792565b606080825281016117ba8186611011565b90506117c960208301856112da565b81810360408301526113648184611011565b8051610ed7816112a8565b6000602082840312156117fb576117fb600080fd5b600061118184846117db565b604080825281016118188185611011565b9050610f656020830184611292565b6000611831825190565b61183f818560208601610fe3565b9290920192915050565b610ed7818361182756fe616a6f757465724d6174657269656c2061646472657373467373202573206e6f6d4d6174657269656c202573360894a13ba1a3210667c828492db98dca3e2076cc3735a920a3ca505d382bbca26469706673582212208f69f46e6dc5ad28f52fe7700a1c12566139ae6f96a692979c41b9d7ac9cc7a464736f6c63430008150033",
  "linkReferences": {},
  "deployedLinkReferences": {}
}