{
  "_format": "hh-sol-artifact-1",
  "contractName": "Role",
  "sourceName": "contracts/Role.sol",
  "abi": [
    {
      "inputs": [
        {
          "internalType": "address",
          "name": "target",
          "type": "address"
        }
      ],
      "name": "AddressEmptyCode",
      "type": "error"
    },
    {
      "inputs": [
        {
          "internalType": "address",
          "name": "implementation",
          "type": "address"
        }
      ],
      "name": "ERC1967InvalidImplementation",
      "type": "error"
    },
    {
      "inputs": [],
      "name": "ERC1967NonPayable",
      "type": "error"
    },
    {
      "inputs": [],
      "name": "FailedInnerCall",
      "type": "error"
    },
    {
      "inputs": [],
      "name": "InvalidInitialization",
      "type": "error"
    },
    {
      "inputs": [],
      "name": "NotInitializing",
      "type": "error"
    },
    {
      "inputs": [
        {
          "internalType": "address",
          "name": "owner",
          "type": "address"
        }
      ],
      "name": "OwnableInvalidOwner",
      "type": "error"
    },
    {
      "inputs": [
        {
          "internalType": "address",
          "name": "account",
          "type": "address"
        }
      ],
      "name": "OwnableUnauthorizedAccount",
      "type": "error"
    },
    {
      "inputs": [],
      "name": "UUPSUnauthorizedCallContext",
      "type": "error"
    },
    {
      "inputs": [
        {
          "internalType": "bytes32",
          "name": "slot",
          "type": "bytes32"
        }
      ],
      "name": "UUPSUnsupportedProxiableUUID",
      "type": "error"
    },
    {
      "anonymous": false,
      "inputs": [
        {
          "indexed": false,
          "internalType": "uint64",
          "name": "version",
          "type": "uint64"
        }
      ],
      "name": "Initialized",
      "type": "event"
    },
    {
      "anonymous": false,
      "inputs": [
        {
          "indexed": true,
          "internalType": "address",
          "name": "previousOwner",
          "type": "address"
        },
        {
          "indexed": true,
          "internalType": "address",
          "name": "newOwner",
          "type": "address"
        }
      ],
      "name": "OwnershipTransferred",
      "type": "event"
    },
    {
      "anonymous": false,
      "inputs": [
        {
          "indexed": true,
          "internalType": "address",
          "name": "implementation",
          "type": "address"
        }
      ],
      "name": "Upgraded",
      "type": "event"
    },
    {
      "inputs": [],
      "name": "UPGRADE_INTERFACE_VERSION",
      "outputs": [
        {
          "internalType": "string",
          "name": "",
          "type": "string"
        }
      ],
      "stateMutability": "view",
      "type": "function"
    },
    {
      "inputs": [
        {
          "internalType": "address",
          "name": "id",
          "type": "address"
        },
        {
          "internalType": "string",
          "name": "nom",
          "type": "string"
        }
      ],
      "name": "ajouterAdmin",
      "outputs": [],
      "stateMutability": "nonpayable",
      "type": "function"
    },
    {
      "inputs": [
        {
          "internalType": "address",
          "name": "id",
          "type": "address"
        },
        {
          "internalType": "string",
          "name": "nom",
          "type": "string"
        }
      ],
      "name": "ajouterClient",
      "outputs": [],
      "stateMutability": "nonpayable",
      "type": "function"
    },
    {
      "inputs": [
        {
          "internalType": "address",
          "name": "id",
          "type": "address"
        },
        {
          "internalType": "string",
          "name": "nom",
          "type": "string"
        }
      ],
      "name": "ajouterFournisseur",
      "outputs": [],
      "stateMutability": "nonpayable",
      "type": "function"
    },
    {
      "inputs": [
        {
          "internalType": "address",
          "name": "id",
          "type": "address"
        },
        {
          "internalType": "string",
          "name": "nom",
          "type": "string"
        }
      ],
      "name": "ajouterIot",
      "outputs": [],
      "stateMutability": "nonpayable",
      "type": "function"
    },
    {
      "inputs": [],
      "name": "getListeAdmins",
      "outputs": [
        {
          "components": [
            {
              "internalType": "address",
              "name": "id",
              "type": "address"
            },
            {
              "internalType": "string",
              "name": "nom",
              "type": "string"
            }
          ],
          "internalType": "struct Role.Admin[]",
          "name": "",
          "type": "tuple[]"
        }
      ],
      "stateMutability": "view",
      "type": "function"
    },
    {
      "inputs": [],
      "name": "getListeClients",
      "outputs": [
        {
          "components": [
            {
              "internalType": "address",
              "name": "id",
              "type": "address"
            },
            {
              "internalType": "string",
              "name": "nom",
              "type": "string"
            }
          ],
          "internalType": "struct Role.Client[]",
          "name": "",
          "type": "tuple[]"
        }
      ],
      "stateMutability": "view",
      "type": "function"
    },
    {
      "inputs": [],
      "name": "getListeFournisseurs",
      "outputs": [
        {
          "components": [
            {
              "internalType": "address",
              "name": "id",
              "type": "address"
            },
            {
              "internalType": "string",
              "name": "nom",
              "type": "string"
            }
          ],
          "internalType": "struct Role.Fournisseur[]",
          "name": "",
          "type": "tuple[]"
        }
      ],
      "stateMutability": "view",
      "type": "function"
    },
    {
      "inputs": [],
      "name": "getListeIots",
      "outputs": [
        {
          "components": [
            {
              "internalType": "address",
              "name": "id",
              "type": "address"
            },
            {
              "internalType": "string",
              "name": "nom",
              "type": "string"
            }
          ],
          "internalType": "struct Role.Iot[]",
          "name": "",
          "type": "tuple[]"
        }
      ],
      "stateMutability": "view",
      "type": "function"
    },
    {
      "inputs": [
        {
          "internalType": "address",
          "name": "id",
          "type": "address"
        }
      ],
      "name": "getNomAdminByAddress",
      "outputs": [
        {
          "internalType": "string",
          "name": "",
          "type": "string"
        }
      ],
      "stateMutability": "view",
      "type": "function"
    },
    {
      "inputs": [
        {
          "internalType": "address",
          "name": "id",
          "type": "address"
        }
      ],
      "name": "getNomByAddress",
      "outputs": [
        {
          "internalType": "string",
          "name": "",
          "type": "string"
        }
      ],
      "stateMutability": "view",
      "type": "function"
    },
    {
      "inputs": [
        {
          "internalType": "address",
          "name": "id",
          "type": "address"
        }
      ],
      "name": "getNomClientByAddress",
      "outputs": [
        {
          "internalType": "string",
          "name": "",
          "type": "string"
        }
      ],
      "stateMutability": "view",
      "type": "function"
    },
    {
      "inputs": [
        {
          "internalType": "address",
          "name": "id",
          "type": "address"
        }
      ],
      "name": "getNomFournisseurByAddress",
      "outputs": [
        {
          "internalType": "string",
          "name": "",
          "type": "string"
        }
      ],
      "stateMutability": "view",
      "type": "function"
    },
    {
      "inputs": [
        {
          "internalType": "address",
          "name": "id",
          "type": "address"
        }
      ],
      "name": "getNomIotByAddress",
      "outputs": [
        {
          "internalType": "string",
          "name": "",
          "type": "string"
        }
      ],
      "stateMutability": "view",
      "type": "function"
    },
    {
      "inputs": [
        {
          "internalType": "address",
          "name": "id",
          "type": "address"
        }
      ],
      "name": "getRoleByAddress",
      "outputs": [
        {
          "internalType": "string",
          "name": "",
          "type": "string"
        }
      ],
      "stateMutability": "view",
      "type": "function"
    },
    {
      "inputs": [],
      "name": "getVersion",
      "outputs": [
        {
          "internalType": "string",
          "name": "",
          "type": "string"
        }
      ],
      "stateMutability": "pure",
      "type": "function"
    },
    {
      "inputs": [],
      "name": "initialize",
      "outputs": [],
      "stateMutability": "nonpayable",
      "type": "function"
    },
    {
      "inputs": [],
      "name": "owner",
      "outputs": [
        {
          "internalType": "address",
          "name": "",
          "type": "address"
        }
      ],
      "stateMutability": "view",
      "type": "function"
    },
    {
      "inputs": [],
      "name": "proxiableUUID",
      "outputs": [
        {
          "internalType": "bytes32",
          "name": "",
          "type": "bytes32"
        }
      ],
      "stateMutability": "view",
      "type": "function"
    },
    {
      "inputs": [],
      "name": "renounceOwnership",
      "outputs": [],
      "stateMutability": "nonpayable",
      "type": "function"
    },
    {
      "inputs": [
        {
          "internalType": "address",
          "name": "newContractOwner",
          "type": "address"
        }
      ],
      "name": "setContractOwner",
      "outputs": [],
      "stateMutability": "nonpayable",
      "type": "function"
    },
    {
      "inputs": [
        {
          "internalType": "address",
          "name": "id",
          "type": "address"
        }
      ],
      "name": "supprimerAdmin",
      "outputs": [],
      "stateMutability": "nonpayable",
      "type": "function"
    },
    {
      "inputs": [
        {
          "internalType": "address",
          "name": "id",
          "type": "address"
        }
      ],
      "name": "supprimerClient",
      "outputs": [],
      "stateMutability": "nonpayable",
      "type": "function"
    },
    {
      "inputs": [
        {
          "internalType": "address",
          "name": "id",
          "type": "address"
        }
      ],
      "name": "supprimerFournisseur",
      "outputs": [],
      "stateMutability": "nonpayable",
      "type": "function"
    },
    {
      "inputs": [
        {
          "internalType": "address",
          "name": "id",
          "type": "address"
        }
      ],
      "name": "supprimerIot",
      "outputs": [],
      "stateMutability": "nonpayable",
      "type": "function"
    },
    {
      "inputs": [
        {
          "internalType": "address",
          "name": "newOwner",
          "type": "address"
        }
      ],
      "name": "transferOwnership",
      "outputs": [],
      "stateMutability": "nonpayable",
      "type": "function"
    },
    {
      "inputs": [
        {
          "internalType": "address",
          "name": "newImplementation",
          "type": "address"
        },
        {
          "internalType": "bytes",
          "name": "data",
          "type": "bytes"
        }
      ],
      "name": "upgradeToAndCall",
      "outputs": [],
      "stateMutability": "payable",
      "type": "function"
    }
  ],
  "bytecode": "0x60a06040523060805234801561001457600080fd5b5060805161378c61003e600039600081816123cf015281816123f8015261252f015261378c6000f3fe60806040526004361061014c5760003560e01c80637bff77d4116100bc5780637bff77d4146102fd5780637e5db4c71461031d5780638129fc1c1461033f57806389e231ae146103545780638da5cb5b14610374578063a34d42b814610396578063a688f035146103b6578063ad3cb1cc146103d8578063b30021cd14610409578063ddd2739014610429578063e2339ba314610449578063ebc278d814610469578063f2fde38b1461048b578063f53790f1146104ab57600080fd5b80630d8e6e2c1461015157806316f1df231461018f5780632163b101146101b15780632d3ec318146101d157806340ce07c2146101f15780634713a58f146102115780634ab143bb146102315780634d553b2b146102515780634f1ef2861461027157806352d1902d1461028457806364d2387d146102a6578063715018a6146102c65780637a2cb297146102db575b600080fd5b34801561015d57600080fd5b506040805180820190915260038152620312e360ec1b60208201525b6040516101869190612deb565b60405180910390f35b34801561019b57600080fd5b506101af6101aa366004612f2f565b6104cb565b005b3480156101bd57600080fd5b506101796101cc366004612f86565b610651565b3480156101dd57600080fd5b506101af6101ec366004612f86565b610805565b3480156101fd57600080fd5b5061017961020c366004612f86565b6109e8565b34801561021d57600080fd5b5061017961022c366004612f86565b610b90565b34801561023d57600080fd5b5061017961024c366004612f86565b610caa565b34801561025d57600080fd5b506101af61026c366004612f2f565b610e5a565b6101af61027f366004612f2f565b610fcd565b34801561029057600080fd5b50610299610fec565b6040516101869190612faf565b3480156102b257600080fd5b506101af6102c1366004612f86565b611009565b3480156102d257600080fd5b506101af6111b9565b3480156102e757600080fd5b506102f06111cd565b6040516101869190613068565b34801561030957600080fd5b50610179610318366004612f86565b6112d3565b34801561032957600080fd5b506103326114dc565b60405161018691906130d1565b34801561034b57600080fd5b506101af6115d9565b34801561036057600080fd5b506101af61036f366004612f2f565b6116df565b34801561038057600080fd5b50610389611852565b60405161018691906130e2565b3480156103a257600080fd5b506101af6103b1366004612f86565b61186d565b3480156103c257600080fd5b506103cb611897565b6040516101869190613148565b3480156103e457600080fd5b50610179604051806040016040528060058152602001640352e302e360dc1b81525081565b34801561041557600080fd5b506101af610424366004612f86565b611994565b34801561043557600080fd5b506101af610444366004612f86565b611b6a565b34801561045557600080fd5b50610179610464366004612f86565b611d15565b34801561047557600080fd5b5061047e611ea7565b60405161018691906131b1565b34801561049757600080fd5b506101af6104a6366004612f86565b611fa4565b3480156104b757600080fd5b506101af6104c6366004612f2f565b611fe2565b60005433906001600160a01b03168114806105265750604080516000815260208101918290525190206104fd82610caa565b60405160200161050d91906131e4565b6040516020818303038152906040528051906020012014155b61054b5760405162461bcd60e51b81526004016105429061320c565b60405180910390fd5b61058760405180604001604052806019815260200178616a6f7574657241646d696e206964202573206e6f6d20257360381b8152508484612155565b6001600160a01b0383166105ad5760405162461bcd60e51b815260040161054290613243565b604080518082019091526001600160a01b0384811682526020820184815260018054808201825560009190915283517fb10e2d527612073b26eecdfd717e6a320cf44b4afac2b0732d9fcbe2b7fa0cf6600290920291820180546001600160a01b0319169190941617835590517fb10e2d527612073b26eecdfd717e6a320cf44b4afac2b0732d9fcbe2b7fa0cf7909101906106499082613352565b505050505050565b60408051602081019091526000808252606091905b6002548110156107c3576000600282815481106106855761068561340c565b60009182526020918290206040805180820190915260029092020180546001600160a01b0316825260018101805492939192918401916106c490613269565b80601f01602080910402602001604051908101604052809291908181526020018280546106f090613269565b801561073d5780601f106107125761010080835404028352916020019161073d565b820191906000526020600020905b81548152906001019060200180831161072057829003601f168201915b5050505050815250509050846001600160a01b031681600001516001600160a01b0316036107b0576107a86040518060400160405280602081526020017f676574436c69656e74427941646472657373205f636c69656e742e6964202573815250826000015161219c565b806020015192505b50806107bb81613438565b915050610666565b506107ff60405180604001604052806019815260200178676574436c69656e74427941646472657373206e6f6d20257360381b815250826121e1565b92915050565b60005433906001600160a01b031681148061086057506040805160008152602081019182905251902061083782610caa565b60405160200161084791906131e4565b6040516020818303038152906040528051906020012014155b61087c5760405162461bcd60e51b81526004016105429061320c565b6108b160405180604001604052806013815260200172039bab8383934b6b2b924b7ba1034b21012b99606d1b8152508361219c565b6001600160a01b0382166108d75760405162461bcd60e51b815260040161054290613243565b60006108e283612226565b90508061270f146109e357805b6003546108fe90600190613451565b81101561099b576003610912826001613464565b815481106109225761092261340c565b9060005260206000209060020201600382815481106109435761094361340c565b60009182526020909120825460029092020180546001600160a01b0319166001600160a01b0390921691909117815560018082019061098490840182613482565b50905050808061099390613438565b9150506108ef565b5060038054806109ad576109ad613539565b60008281526020812060026000199093019283020180546001600160a01b0319168155906109de6001830182612d3b565b505090555b505050565b60408051602081019091526000808252606091905b600354811015610b5757600060038281548110610a1c57610a1c61340c565b60009182526020918290206040805180820190915260029092020180546001600160a01b031682526001810180549293919291840191610a5b90613269565b80601f0160208091040260200160405190810160405280929190818152602001828054610a8790613269565b8015610ad45780601f10610aa957610100808354040283529160200191610ad4565b820191906000526020600020905b815481529060010190602001808311610ab757829003601f168201915b5050505050815250509050846001600160a01b031681600001516001600160a01b031603610b4457610b3c6040518060400160405280601a815260200179676574496f74427941646472657373205f696f742e696420257360301b815250826000015161219c565b806020015192505b5080610b4f81613438565b9150506109fd565b506107ff60405180604001604052806016815260200175676574496f74427941646472657373206e6f6d20257360501b815250826121e1565b60606000610b9d83610caa565b60408051600081526020810180835281519020929350610bbf918491016131e4565b6040516020818303038152906040528051906020012003610c7257610be383611d15565b60408051600081526020810180835281519020929350610c05918491016131e4565b6040516020818303038152906040528051906020012003610c7257610c2983610651565b60408051600081526020810180835281519020929350610c4b918491016131e4565b6040516020818303038152906040528051906020012003610c7257610c6f836109e8565b90505b6107ff604051806040016040528060168152602001756765744e6f6d427941646472657373206e6f6d20257360501b815250826121e1565b60408051602081019091526000808252606091905b600154811015610e1c57600060018281548110610cde57610cde61340c565b60009182526020918290206040805180820190915260029092020180546001600160a01b031682526001810180549293919291840191610d1d90613269565b80601f0160208091040260200160405190810160405280929190818152602001828054610d4990613269565b8015610d965780601f10610d6b57610100808354040283529160200191610d96565b820191906000526020600020905b815481529060010190602001808311610d7957829003601f168201915b5050505050815250509050846001600160a01b031681600001516001600160a01b031603610e0957610e016040518060400160405280601e81526020017f67657441646d696e427941646472657373205f61646d696e2e69642025730000815250826000015161219c565b806020015192505b5080610e1481613438565b915050610cbf565b506107ff6040518060400160405280601b81526020017a6765744e6f6d41646d696e427941646472657373206e6f6d20257360281b815250826121e1565b60005433906001600160a01b0316811480610eb5575060408051600081526020810191829052519020610e8c82610caa565b604051602001610e9c91906131e4565b6040516020818303038152906040528051906020012014155b610ed15760405162461bcd60e51b81526004016105429061320c565b610f0a60405180604001604052806016815260200175726563657074696f6e206964202573206e6f6d20257360501b8152508484612155565b6001600160a01b038316610f305760405162461bcd60e51b815260040161054290613243565b604080518082019091526001600160a01b038481168252602082018481526003805460018101825560009190915283517fc2575a0e9e593c00f959f8c92f12db2869c3395a3b0502d05e2516446f71f85b600290920291820180546001600160a01b0319169190941617835590517fc2575a0e9e593c00f959f8c92f12db2869c3395a3b0502d05e2516446f71f85c909101906106499082613352565b610fd56123c4565b610fde82612469565b610fe88282612471565b5050565b6000610ff6612524565b5060008051602061373783398151915290565b60005433906001600160a01b031681148061106457506040805160008152602081019182905251902061103b82610caa565b60405160200161104b91906131e4565b6040516020818303038152906040528051906020012014155b6110805760405162461bcd60e51b81526004016105429061320c565b6110bd6040518060400160405280601b81526020017a039bab8383934b6b2b92337bab93734b9b9b2bab91034b21012b99602d1b8152508361219c565b6001600160a01b0382166110e35760405162461bcd60e51b815260040161054290613243565b60006110ee8361256d565b90508061270f146109e357805b60045461110a90600190613451565b8110156111a757600461111e826001613464565b8154811061112e5761112e61340c565b90600052602060002090600202016004828154811061114f5761114f61340c565b60009182526020909120825460029092020180546001600160a01b0319166001600160a01b0390921691909117815560018082019061119090840182613482565b50905050808061119f90613438565b9150506110fb565b5060048054806109ad576109ad613539565b6111c16126d0565b6111cb6000612702565b565b60606003805480602002602001604051908101604052809291908181526020016000905b828210156112ca576000848152602090819020604080518082019091526002850290910180546001600160a01b03168252600181018054929391929184019161123990613269565b80601f016020809104026020016040519081016040528092919081815260200182805461126590613269565b80156112b25780601f10611287576101008083540402835291602001916112b2565b820191906000526020600020905b81548152906001019060200180831161129557829003601f168201915b505050505081525050815260200190600101906111f1565b50505050905090565b60408051808201825260068152654e6f526f6c6560d01b60208083019190915282516000815290810192839052519091206060919061131184610caa565b60405160200161132191906131e4565b604051602081830303815290604052805190602001201461135f57505060408051808201909152600581526420b236b4b760d91b6020820152919050565b6040805160008152602081019182905251902061137b84611d15565b60405160200161138b91906131e4565b60405160208183030381529060405280519060200120146113cf57505060408051808201909152600b81526a2337bab93734b9b9b2bab960a91b6020820152919050565b604080516000815260208101918290525190206113eb84610651565b6040516020016113fb91906131e4565b604051602081830303815290604052805190602001201461143a57505060408051808201909152600681526510db1a595b9d60d21b6020820152919050565b60408051600081526020810191829052519020611456846109e8565b60405160200161146691906131e4565b60405160208183030381529060405280519060200120146114a2575050604080518082019091526003815262125bdd60ea1b6020820152919050565b6107ff60405180604001604052806018815260200177676574526f6c6542794164647265737320726f6c6520257360401b815250826121e1565b60606004805480602002602001604051908101604052809291908181526020016000905b828210156112ca576000848152602090819020604080518082019091526002850290910180546001600160a01b03168252600181018054929391929184019161154890613269565b80601f016020809104026020016040519081016040528092919081815260200182805461157490613269565b80156115c15780601f10611596576101008083540402835291602001916115c1565b820191906000526020600020905b8154815290600101906020018083116115a457829003601f168201915b50505050508152505081526020019060010190611500565b60006115e361275e565b805490915060ff600160401b82041615906001600160401b031660008115801561160a5750825b90506000826001600160401b031660011480156116265750303b155b905081158015611634575080155b156116525760405163f92ee8a960e01b815260040160405180910390fd5b845467ffffffffffffffff19166001178555831561167c57845460ff60401b1916600160401b1785555b61168533612782565b61168d612793565b83156116d857845460ff60401b191685556040517fc7f505b2f371ae2175ee4913f4499e1f2633a7b5936321eed1cdaeb6115181d2906116cf90600190613569565b60405180910390a15b5050505050565b60005433906001600160a01b031681148061173a57506040805160008152602081019182905251902061171182610caa565b60405160200161172191906131e4565b6040516020818303038152906040528051906020012014155b6117565760405162461bcd60e51b81526004016105429061320c565b61178f60405180604001604052806016815260200175726563657074696f6e206964202573206e6f6d20257360501b8152508484612155565b6001600160a01b0383166117b55760405162461bcd60e51b815260040161054290613243565b604080518082019091526001600160a01b038481168252602082018481526004805460018101825560009190915283517f8a35acfbc15ff81a39ae7d344fd709f28e8600b4aa8c65c6b64bfe7fe36bd19b600290920291820180546001600160a01b0319169190941617835590517f8a35acfbc15ff81a39ae7d344fd709f28e8600b4aa8c65c6b64bfe7fe36bd19c909101906106499082613352565b60008061185d61279b565b546001600160a01b031692915050565b6118756126d0565b600080546001600160a01b0319166001600160a01b0392909216919091179055565b60606002805480602002602001604051908101604052809291908181526020016000905b828210156112ca576000848152602090819020604080518082019091526002850290910180546001600160a01b03168252600181018054929391929184019161190390613269565b80601f016020809104026020016040519081016040528092919081815260200182805461192f90613269565b801561197c5780601f106119515761010080835404028352916020019161197c565b820191906000526020600020905b81548152906001019060200180831161195f57829003601f168201915b505050505081525050815260200190600101906118bb565b60005433906001600160a01b03168114806119ef5750604080516000815260208101918290525190206119c682610caa565b6040516020016119d691906131e4565b6040516020818303038152906040528051906020012014155b611a0b5760405162461bcd60e51b81526004016105429061320c565b611a4260405180604001604052806015815260200174039bab8383934b6b2b920b236b4b71034b21012b99605d1b8152508361219c565b6001600160a01b038216611a685760405162461bcd60e51b815260040161054290613243565b6000546001600160a01b0390811690831603611a965760405162461bcd60e51b81526004016105429061359c565b6000611aa1836127bf565b90508061270f146109e357805b60018054611abc9190613451565b811015611b58576001611acf8282613464565b81548110611adf57611adf61340c565b906000526020600020906002020160018281548110611b0057611b0061340c565b60009182526020909120825460029092020180546001600160a01b0319166001600160a01b03909216919091178155600180820190611b4190840182613482565b509050508080611b5090613438565b915050611aae565b5060018054806109ad576109ad613539565b60005433906001600160a01b0316811480611bc5575060408051600081526020810191829052519020611b9c82610caa565b604051602001611bac91906131e4565b6040516020818303038152906040528051906020012014155b611be15760405162461bcd60e51b81526004016105429061320c565b611c1960405180604001604052806016815260200175039bab8383934b6b2b921b634b2b73a1034b21012b9960551b8152508361219c565b6001600160a01b038216611c3f5760405162461bcd60e51b815260040161054290613243565b6000611c4a8361293f565b90508061270f146109e357805b600254611c6690600190613451565b811015611d03576002611c7a826001613464565b81548110611c8a57611c8a61340c565b906000526020600020906002020160028281548110611cab57611cab61340c565b60009182526020909120825460029092020180546001600160a01b0319166001600160a01b03909216919091178155600180820190611cec90840182613482565b509050508080611cfb90613438565b915050611c57565b5060028054806109ad576109ad613539565b60408051602081019091526000808252606091905b600454811015611e6757600060048281548110611d4957611d4961340c565b60009182526020918290206040805180820190915260029092020180546001600160a01b031682526001810180549293919291840191611d8890613269565b80601f0160208091040260200160405190810160405280929190818152602001828054611db490613269565b8015611e015780601f10611dd657610100808354040283529160200191611e01565b820191906000526020600020905b815481529060010190602001808311611de457829003601f168201915b5050505050815250509050846001600160a01b031681600001516001600160a01b031603611e5457611e4c6040518060600160405280602a8152602001613676602a9139825161219c565b806020015192505b5080611e5f81613438565b915050611d2a565b506107ff6040518060400160405280601e81526020017f676574466f75726e697373657572427941646472657373206e6f6d2025730000815250826121e1565b60606001805480602002602001604051908101604052809291908181526020016000905b828210156112ca576000848152602090819020604080518082019091526002850290910180546001600160a01b031682526001810180549293919291840191611f1390613269565b80601f0160208091040260200160405190810160405280929190818152602001828054611f3f90613269565b8015611f8c5780601f10611f6157610100808354040283529160200191611f8c565b820191906000526020600020905b815481529060010190602001808311611f6f57829003601f168201915b50505050508152505081526020019060010190611ecb565b611fac6126d0565b6001600160a01b038116611fd6576000604051631e4fbdf760e01b815260040161054291906130e2565b611fdf81612702565b50565b60005433906001600160a01b031681148061203d57506040805160008152602081019182905251902061201482610caa565b60405160200161202491906131e4565b6040516020818303038152906040528051906020012014155b6120595760405162461bcd60e51b81526004016105429061320c565b61209260405180604001604052806016815260200175726563657074696f6e206964202573206e6f6d20257360501b8152508484612155565b6001600160a01b0383166120b85760405162461bcd60e51b815260040161054290613243565b604080518082019091526001600160a01b03808516825260208201848152600280546001810182556000829052845191027f405787fa12a823e0f2b7631cc41b3ba8828b3321ca811111fa75cd3aa3bb5ace81018054929094166001600160a01b031990921691909117835590517f405787fa12a823e0f2b7631cc41b3ba8828b3321ca811111fa75cd3aa3bb5acf909101906106499082613352565b6109e383838360405160240161216d939291906135ac565b60408051601f198184030181529190526020810180516001600160e01b031663e0e9ad4f60e01b179052612abf565b610fe882826040516024016121b29291906135de565b60408051601f198184030181529190526020810180516001600160e01b031663319af33360e01b179052612abf565b610fe882826040516024016121f79291906135fe565b60408051601f198184030181529190526020810180516001600160e01b0316634b5c427760e01b179052612abf565b600061270f815b6003548110156123865760006003828154811061224c5761224c61340c565b60009182526020918290206040805180820190915260029092020180546001600160a01b03168252600181018054929391929184019161228b90613269565b80601f01602080910402602001604051908101604052809291908181526020018280546122b790613269565b80156123045780601f106122d957610100808354040283529160200191612304565b820191906000526020600020905b8154815290600101906020018083116122e757829003601f168201915b5050505050815250509050846001600160a01b031681600001516001600160a01b0316036123735761236f6040518060400160405280601e81526020017f67657452616e67496f74427941646472657373205f696f742e69642025730000815250826000015161219c565b8192505b508061237e81613438565b91505061222d565b506107ff6040518060400160405280601b81526020017a67657452616e67496f744279416464726573732072616e6720257360281b81525082612ac8565b306001600160a01b037f000000000000000000000000000000000000000000000000000000000000000016148061244b57507f00000000000000000000000000000000000000000000000000000000000000006001600160a01b031661243f600080516020613737833981519152546001600160a01b031690565b6001600160a01b031614155b156111cb5760405163703e46dd60e11b815260040160405180910390fd5b611fdf6126d0565b816001600160a01b03166352d1902d6040518163ffffffff1660e01b8152600401602060405180830381865afa9250505080156124cb575060408051601f3d908101601f191682019092526124c891810190613634565b60015b6124ea5781604051634c9c8ce360e01b815260040161054291906130e2565b600080516020613737833981519152811461251a5780604051632a87526960e21b81526004016105429190612faf565b6109e38383612b0d565b306001600160a01b037f000000000000000000000000000000000000000000000000000000000000000016146111cb5760405163703e46dd60e11b815260040160405180910390fd5b600061270f815b6004548110156126ad576000600482815481106125935761259361340c565b60009182526020918290206040805180820190915260029092020180546001600160a01b0316825260018101805492939192918401916125d290613269565b80601f01602080910402602001604051908101604052809291908181526020018280546125fe90613269565b801561264b5780601f106126205761010080835404028352916020019161264b565b820191906000526020600020905b81548152906001019060200180831161262e57829003601f168201915b5050505050815250509050846001600160a01b031681600001516001600160a01b03160361269a576126966040518060600160405280602e8152602001613709602e9139825161219c565b8192505b50806126a581613438565b915050612574565b506107ff6040518060600160405280602381526020016136e66023913982612ac8565b336126d9611852565b6001600160a01b0316146111cb573360405163118cdaa760e01b815260040161054291906130e2565b600061270c61279b565b80546001600160a01b038481166001600160a01b031983168117845560405193945091169182907f8be0079c531659141344cd1fd0a4f28419497f9722a3daafe3b4186f6b6457e090600090a3505050565b7ff0c57e16840df040f15088dc2f81fe391c3923bec73e23a9662efc9c229c6a0090565b61278a612b63565b611fdf81612b88565b6111cb612b63565b7f9016d09d72d40fdae2fd8ceac6b6234c7706214fd39c1cd1e609a0528c19930090565b600061270f815b6001548110156128ff576000600182815481106127e5576127e561340c565b60009182526020918290206040805180820190915260029092020180546001600160a01b03168252600181018054929391929184019161282490613269565b80601f016020809104026020016040519081016040528092919081815260200182805461285090613269565b801561289d5780601f106128725761010080835404028352916020019161289d565b820191906000526020600020905b81548152906001019060200180831161288057829003601f168201915b5050505050815250509050846001600160a01b031681600001516001600160a01b0316036128ec576128e86040518060600160405280602281526020016136a060229139825161219c565b8192505b50806128f781613438565b9150506127c6565b506107ff6040518060400160405280601d81526020017f67657452616e6741646d696e4279416464726573732072616e6720257300000081525082612ac8565b600061270f815b600254811015612a7f576000600282815481106129655761296561340c565b60009182526020918290206040805180820190915260029092020180546001600160a01b0316825260018101805492939192918401916129a490613269565b80601f01602080910402602001604051908101604052809291908181526020018280546129d090613269565b8015612a1d5780601f106129f257610100808354040283529160200191612a1d565b820191906000526020600020905b815481529060010190602001808311612a0057829003601f168201915b5050505050815250509050846001600160a01b031681600001516001600160a01b031603612a6c57612a686040518060600160405280602481526020016136c260249139825161219c565b8192505b5080612a7781613438565b915050612946565b506107ff6040518060400160405280601e81526020017f67657452616e67436c69656e744279416464726573732072616e67202573000081525082612ac8565b611fdf81612b90565b610fe88282604051602401612ade929190613655565b60408051601f198184030181529190526020810180516001600160e01b0316632d839cb360e21b179052612abf565b612b1682612bb1565b6040516001600160a01b038316907fbc7cd75a20ee27fd9adebab32041f755214dbc6bffa90cc0225b39da2e5c2d3b90600090a2805115612b5b576109e38282612c0d565b610fe8612c83565b612b6b612ca2565b6111cb57604051631afcd79f60e31b815260040160405180910390fd5b611fac612b63565b60006a636f6e736f6c652e6c6f679050600080835160208501845afa505050565b806001600160a01b03163b600003612bde5780604051634c9c8ce360e01b815260040161054291906130e2565b60008051602061373783398151915280546001600160a01b0319166001600160a01b0392909216919091179055565b6060600080846001600160a01b031684604051612c2a91906131e4565b600060405180830381855af49150503d8060008114612c65576040519150601f19603f3d011682016040523d82523d6000602084013e612c6a565b606091505b5091509150612c7a858383612cbc565b95945050505050565b34156111cb5760405163b398979f60e01b815260040160405180910390fd5b6000612cac61275e565b54600160401b900460ff16919050565b606082612cd157612ccc82612d12565b612d0b565b8151158015612ce857506001600160a01b0384163b155b15612d085783604051639996b31560e01b815260040161054291906130e2565b50805b9392505050565b805115612d225780518082602001fd5b604051630a12f52160e11b815260040160405180910390fd5b508054612d4790613269565b6000825580601f10612d57575050565b601f016020900490600052602060002090810190611fdf91905b80821115612d855760008155600101612d71565b5090565b60005b83811015612da4578181015183820152602001612d8c565b50506000910152565b601f01601f191690565b6000612dc1825190565b808452602084019350612dd8818560208601612d89565b612de181612dad565b9093019392505050565b60208082528101612d0b8184612db7565b60006001600160a01b0382166107ff565b612e1681612dfc565b8114611fdf57600080fd5b80356107ff81612e0d565b634e487b7160e01b600052604160045260246000fd5b612e4b82612dad565b81018181106001600160401b0382111715612e6857612e68612e2c565b6040525050565b6000612e7a60405190565b9050612e868282612e42565b919050565b60006001600160401b03821115612ea457612ea4612e2c565b612ead82612dad565b60200192915050565b82818337506000910152565b6000612ed5612ed084612e8b565b612e6f565b905082815260208101848484011115612ef057612ef0600080fd5b612efb848285612eb6565b509392505050565b600082601f830112612f1757612f17600080fd5b8135612f27848260208601612ec2565b949350505050565b60008060408385031215612f4557612f45600080fd5b6000612f518585612e21565b92505060208301356001600160401b03811115612f7057612f70600080fd5b612f7c85828601612f03565b9150509250929050565b600060208284031215612f9b57612f9b600080fd5b6000612f278484612e21565b805b82525050565b602081016107ff8284612fa7565b612fa981612dfc565b80516000906040840190612fda8582612fbd565b5060208301518482036020860152612c7a8282612db7565b6000612d0b8383612fc6565b60200190565b600061300e825190565b808452602084019350836020820285016130288560200190565b60005b8481101561305c57838303885281516130448482612ff2565b9350506020820160209890980197915060010161302b565b50909695505050505050565b60208082528101612d0b8184613004565b6000613083825190565b8084526020840193508360208202850161309d8560200190565b60005b8481101561305c57838303885281516130b98482612ff2565b935050602082016020989098019791506001016130a0565b60208082528101612d0b8184613079565b602081016107ff8284612fbd565b60006130fa825190565b808452602084019350836020820285016131148560200190565b60005b8481101561305c57838303885281516131308482612ff2565b93505060208201602098909801979150600101613117565b60208082528101612d0b81846130f0565b6000613163825190565b8084526020840193508360208202850161317d8560200190565b60005b8481101561305c57838303885281516131998482612ff2565b93505060208201602098909801979150600101613180565b60208082528101612d0b8184613159565b60006131cc825190565b6131da818560208601612d89565b9290920192915050565b6107ff81836131c2565b6009815260208101682737ba1020b236b4b760b91b81529050612ffe565b602080825281016107ff816131ee565b60128152602081017141646472657373206e6f742076616c69646560701b81529050612ffe565b602080825281016107ff8161321c565b634e487b7160e01b600052602260045260246000fd5b60028104600182168061327d57607f821691505b60208210810361328f5761328f613253565b50919050565b60006107ff6132a18381565b90565b6132ad83613295565b815460001960089490940293841b1916921b91909117905550565b60006109e38184846132a4565b81811015610fe8576132e86000826132c8565b6001016132d5565b601f8211156109e3576000818152602090206020601f850104810160208510156133175750805b6116d86020601f8601048301826132d5565b6000196008929092029190911c191690565b6133458282613329565b6002909202909117919050565b81516001600160401b0381111561336b5761336b612e2c565b6133758254613269565b6133808282856132f0565b506020601f8211600181146133af576000831561339d5750848201515b6133a7848261333b565b8555506116d8565b600084815260208120601f198516915b828110156133df57878501518255602094850194600190920191016133bf565b50848210156133fd57838701516133f9601f871682613329565b8255505b50505050600202600101905550565b634e487b7160e01b600052603260045260246000fd5b634e487b7160e01b600052601160045260246000fd5b60006001820161344a5761344a613422565b5060010190565b818103818111156107ff576107ff613422565b808201808211156107ff576107ff613422565b80546107ff81613269565b81810361348d575050565b61349682613477565b6001600160401b038111156134ad576134ad612e2c565b6134b78254613269565b6134c28282856132f0565b506000601f8211600181146134e8576000831561339d5750848201546133a7848261333b565b600094855260208086208587529520601f19841690835b8281101561351f57878501548255600194850194909101906020016134ff565b50848210156133fd57838701546133f9601f871682613329565b634e487b7160e01b600052603160045260246000fd5b60006001600160401b0382166107ff565b612fa98161354f565b602081016107ff8284613560565b60108152602081016f13dddb995c88191d4818dbdb9d1c985d60821b81529050612ffe565b602080825281016107ff81613577565b606080825281016135bd8186612db7565b90506135cc6020830185612fbd565b8181036040830152612c7a8184612db7565b604080825281016135ef8185612db7565b9050612d0b6020830184612fbd565b6040808252810161360f8185612db7565b90508181036020830152612f278184612db7565b80612e16565b80516107ff81613623565b60006020828403121561364957613649600080fd5b6000612f278484613629565b604080825281016136668185612db7565b9050612d0b6020830184612fa756fe676574466f75726e697373657572427941646472657373205f666f75726e6973736575722e696420257367657452616e6741646d696e427941646472657373205f61646d696e2e696420257367657452616e67436c69656e74427941646472657373205f636c69656e742e696420257367657452616e67466f75726e6973736575724279416464726573732072616e6720257367657452616e67466f75726e697373657572427941646472657373205f666f75726e6973736575722e6964202573360894a13ba1a3210667c828492db98dca3e2076cc3735a920a3ca505d382bbca26469706673582212206261746a2b2da780673691d4ce3b9be67c8d63cabf7152497f9f5c5a568da4c864736f6c63430008150033",
  "linkReferences": {},
  "deployedLinkReferences": {}
}