{
  "_format": "hh-sol-artifact-1",
  "contractName": "Role",
  "sourceName": "contracts/Role.sol",
  "abi": [
    {
      "inputs": [
        {
          "internalType": "address",
          "name": "target",
          "type": "address"
        }
      ],
      "name": "AddressEmptyCode",
      "type": "error"
    },
    {
      "inputs": [
        {
          "internalType": "address",
          "name": "implementation",
          "type": "address"
        }
      ],
      "name": "ERC1967InvalidImplementation",
      "type": "error"
    },
    {
      "inputs": [],
      "name": "ERC1967NonPayable",
      "type": "error"
    },
    {
      "inputs": [],
      "name": "FailedInnerCall",
      "type": "error"
    },
    {
      "inputs": [],
      "name": "InvalidInitialization",
      "type": "error"
    },
    {
      "inputs": [],
      "name": "NotInitializing",
      "type": "error"
    },
    {
      "inputs": [
        {
          "internalType": "address",
          "name": "owner",
          "type": "address"
        }
      ],
      "name": "OwnableInvalidOwner",
      "type": "error"
    },
    {
      "inputs": [
        {
          "internalType": "address",
          "name": "account",
          "type": "address"
        }
      ],
      "name": "OwnableUnauthorizedAccount",
      "type": "error"
    },
    {
      "inputs": [],
      "name": "UUPSUnauthorizedCallContext",
      "type": "error"
    },
    {
      "inputs": [
        {
          "internalType": "bytes32",
          "name": "slot",
          "type": "bytes32"
        }
      ],
      "name": "UUPSUnsupportedProxiableUUID",
      "type": "error"
    },
    {
      "anonymous": false,
      "inputs": [
        {
          "indexed": true,
          "internalType": "address",
          "name": "sender",
          "type": "address"
        },
        {
          "indexed": true,
          "internalType": "address",
          "name": "addressAdmin",
          "type": "address"
        },
        {
          "indexed": false,
          "internalType": "string",
          "name": "nomAdmin",
          "type": "string"
        }
      ],
      "name": "AjouterAdminEvent",
      "type": "event"
    },
    {
      "anonymous": false,
      "inputs": [
        {
          "indexed": true,
          "internalType": "address",
          "name": "sender",
          "type": "address"
        },
        {
          "indexed": true,
          "internalType": "address",
          "name": "addressClient",
          "type": "address"
        },
        {
          "indexed": false,
          "internalType": "string",
          "name": "nomClient",
          "type": "string"
        }
      ],
      "name": "AjouterClientEvent",
      "type": "event"
    },
    {
      "anonymous": false,
      "inputs": [
        {
          "indexed": true,
          "internalType": "address",
          "name": "sender",
          "type": "address"
        },
        {
          "indexed": true,
          "internalType": "address",
          "name": "addressFournisseur",
          "type": "address"
        },
        {
          "indexed": false,
          "internalType": "string",
          "name": "nomFournisseur",
          "type": "string"
        }
      ],
      "name": "AjouterFournisseurEvent",
      "type": "event"
    },
    {
      "anonymous": false,
      "inputs": [
        {
          "indexed": true,
          "internalType": "address",
          "name": "sender",
          "type": "address"
        },
        {
          "indexed": true,
          "internalType": "address",
          "name": "addressIot",
          "type": "address"
        },
        {
          "indexed": false,
          "internalType": "string",
          "name": "nomIot",
          "type": "string"
        }
      ],
      "name": "AjouterIotEvent",
      "type": "event"
    },
    {
      "anonymous": false,
      "inputs": [
        {
          "indexed": false,
          "internalType": "uint64",
          "name": "version",
          "type": "uint64"
        }
      ],
      "name": "Initialized",
      "type": "event"
    },
    {
      "anonymous": false,
      "inputs": [
        {
          "indexed": true,
          "internalType": "address",
          "name": "previousOwner",
          "type": "address"
        },
        {
          "indexed": true,
          "internalType": "address",
          "name": "newOwner",
          "type": "address"
        }
      ],
      "name": "OwnershipTransferred",
      "type": "event"
    },
    {
      "anonymous": false,
      "inputs": [
        {
          "indexed": true,
          "internalType": "address",
          "name": "implementation",
          "type": "address"
        }
      ],
      "name": "Upgraded",
      "type": "event"
    },
    {
      "inputs": [],
      "name": "UPGRADE_INTERFACE_VERSION",
      "outputs": [
        {
          "internalType": "string",
          "name": "",
          "type": "string"
        }
      ],
      "stateMutability": "view",
      "type": "function"
    },
    {
      "inputs": [
        {
          "internalType": "address",
          "name": "id",
          "type": "address"
        },
        {
          "internalType": "string",
          "name": "nom",
          "type": "string"
        }
      ],
      "name": "ajouterAdmin",
      "outputs": [],
      "stateMutability": "nonpayable",
      "type": "function"
    },
    {
      "inputs": [
        {
          "internalType": "address",
          "name": "id",
          "type": "address"
        },
        {
          "internalType": "string",
          "name": "nom",
          "type": "string"
        }
      ],
      "name": "ajouterClient",
      "outputs": [],
      "stateMutability": "nonpayable",
      "type": "function"
    },
    {
      "inputs": [
        {
          "internalType": "address",
          "name": "id",
          "type": "address"
        },
        {
          "internalType": "string",
          "name": "nom",
          "type": "string"
        }
      ],
      "name": "ajouterFournisseur",
      "outputs": [],
      "stateMutability": "nonpayable",
      "type": "function"
    },
    {
      "inputs": [
        {
          "internalType": "address",
          "name": "id",
          "type": "address"
        },
        {
          "internalType": "string",
          "name": "nom",
          "type": "string"
        }
      ],
      "name": "ajouterIot",
      "outputs": [],
      "stateMutability": "nonpayable",
      "type": "function"
    },
    {
      "inputs": [],
      "name": "getListeAdmins",
      "outputs": [
        {
          "components": [
            {
              "internalType": "address",
              "name": "id",
              "type": "address"
            },
            {
              "internalType": "string",
              "name": "nom",
              "type": "string"
            }
          ],
          "internalType": "struct Role.Admin[]",
          "name": "",
          "type": "tuple[]"
        }
      ],
      "stateMutability": "view",
      "type": "function"
    },
    {
      "inputs": [],
      "name": "getListeClients",
      "outputs": [
        {
          "components": [
            {
              "internalType": "address",
              "name": "id",
              "type": "address"
            },
            {
              "internalType": "string",
              "name": "nom",
              "type": "string"
            }
          ],
          "internalType": "struct Role.Client[]",
          "name": "",
          "type": "tuple[]"
        }
      ],
      "stateMutability": "view",
      "type": "function"
    },
    {
      "inputs": [],
      "name": "getListeFournisseurs",
      "outputs": [
        {
          "components": [
            {
              "internalType": "address",
              "name": "id",
              "type": "address"
            },
            {
              "internalType": "string",
              "name": "nom",
              "type": "string"
            }
          ],
          "internalType": "struct Role.Fournisseur[]",
          "name": "",
          "type": "tuple[]"
        }
      ],
      "stateMutability": "view",
      "type": "function"
    },
    {
      "inputs": [],
      "name": "getListeIots",
      "outputs": [
        {
          "components": [
            {
              "internalType": "address",
              "name": "id",
              "type": "address"
            },
            {
              "internalType": "string",
              "name": "nom",
              "type": "string"
            }
          ],
          "internalType": "struct Role.Iot[]",
          "name": "",
          "type": "tuple[]"
        }
      ],
      "stateMutability": "view",
      "type": "function"
    },
    {
      "inputs": [
        {
          "internalType": "address",
          "name": "id",
          "type": "address"
        }
      ],
      "name": "getNomAdminByAddress",
      "outputs": [
        {
          "internalType": "string",
          "name": "",
          "type": "string"
        }
      ],
      "stateMutability": "view",
      "type": "function"
    },
    {
      "inputs": [
        {
          "internalType": "address",
          "name": "id",
          "type": "address"
        }
      ],
      "name": "getNomByAddress",
      "outputs": [
        {
          "internalType": "string",
          "name": "",
          "type": "string"
        }
      ],
      "stateMutability": "view",
      "type": "function"
    },
    {
      "inputs": [
        {
          "internalType": "address",
          "name": "id",
          "type": "address"
        }
      ],
      "name": "getNomClientByAddress",
      "outputs": [
        {
          "internalType": "string",
          "name": "",
          "type": "string"
        }
      ],
      "stateMutability": "view",
      "type": "function"
    },
    {
      "inputs": [
        {
          "internalType": "address",
          "name": "id",
          "type": "address"
        }
      ],
      "name": "getNomFournisseurByAddress",
      "outputs": [
        {
          "internalType": "string",
          "name": "",
          "type": "string"
        }
      ],
      "stateMutability": "view",
      "type": "function"
    },
    {
      "inputs": [
        {
          "internalType": "address",
          "name": "id",
          "type": "address"
        }
      ],
      "name": "getNomIotByAddress",
      "outputs": [
        {
          "internalType": "string",
          "name": "",
          "type": "string"
        }
      ],
      "stateMutability": "view",
      "type": "function"
    },
    {
      "inputs": [
        {
          "internalType": "address",
          "name": "id",
          "type": "address"
        }
      ],
      "name": "getRoleByAddress",
      "outputs": [
        {
          "internalType": "string",
          "name": "",
          "type": "string"
        }
      ],
      "stateMutability": "view",
      "type": "function"
    },
    {
      "inputs": [],
      "name": "getVersion",
      "outputs": [
        {
          "internalType": "string",
          "name": "",
          "type": "string"
        }
      ],
      "stateMutability": "pure",
      "type": "function"
    },
    {
      "inputs": [],
      "name": "initialize",
      "outputs": [],
      "stateMutability": "nonpayable",
      "type": "function"
    },
    {
      "inputs": [],
      "name": "owner",
      "outputs": [
        {
          "internalType": "address",
          "name": "",
          "type": "address"
        }
      ],
      "stateMutability": "view",
      "type": "function"
    },
    {
      "inputs": [],
      "name": "proxiableUUID",
      "outputs": [
        {
          "internalType": "bytes32",
          "name": "",
          "type": "bytes32"
        }
      ],
      "stateMutability": "view",
      "type": "function"
    },
    {
      "inputs": [],
      "name": "renounceOwnership",
      "outputs": [],
      "stateMutability": "nonpayable",
      "type": "function"
    },
    {
      "inputs": [
        {
          "internalType": "address",
          "name": "newContractOwner",
          "type": "address"
        }
      ],
      "name": "setContractOwner",
      "outputs": [],
      "stateMutability": "nonpayable",
      "type": "function"
    },
    {
      "inputs": [
        {
          "internalType": "address",
          "name": "id",
          "type": "address"
        }
      ],
      "name": "supprimerAdmin",
      "outputs": [],
      "stateMutability": "nonpayable",
      "type": "function"
    },
    {
      "inputs": [
        {
          "internalType": "address",
          "name": "id",
          "type": "address"
        }
      ],
      "name": "supprimerClient",
      "outputs": [],
      "stateMutability": "nonpayable",
      "type": "function"
    },
    {
      "inputs": [
        {
          "internalType": "address",
          "name": "id",
          "type": "address"
        }
      ],
      "name": "supprimerFournisseur",
      "outputs": [],
      "stateMutability": "nonpayable",
      "type": "function"
    },
    {
      "inputs": [
        {
          "internalType": "address",
          "name": "id",
          "type": "address"
        }
      ],
      "name": "supprimerIot",
      "outputs": [],
      "stateMutability": "nonpayable",
      "type": "function"
    },
    {
      "inputs": [
        {
          "internalType": "address",
          "name": "newOwner",
          "type": "address"
        }
      ],
      "name": "transferOwnership",
      "outputs": [],
      "stateMutability": "nonpayable",
      "type": "function"
    },
    {
      "inputs": [
        {
          "internalType": "address",
          "name": "newImplementation",
          "type": "address"
        },
        {
          "internalType": "bytes",
          "name": "data",
          "type": "bytes"
        }
      ],
      "name": "upgradeToAndCall",
      "outputs": [],
      "stateMutability": "payable",
      "type": "function"
    }
  ],
  "bytecode": "0x60a06040523060805234801561001457600080fd5b506080516138ed61003e6000396000818161253001528181612559015261269001526138ed6000f3fe60806040526004361061014c5760003560e01c80637bff77d4116100bc5780637bff77d4146102fd5780637e5db4c71461031d5780638129fc1c1461033f57806389e231ae146103545780638da5cb5b14610374578063a34d42b814610396578063a688f035146103b6578063ad3cb1cc146103d8578063b30021cd14610409578063ddd2739014610429578063e2339ba314610449578063ebc278d814610469578063f2fde38b1461048b578063f53790f1146104ab57600080fd5b80630d8e6e2c1461015157806316f1df231461018f5780632163b101146101b15780632d3ec318146101d157806340ce07c2146101f15780634713a58f146102115780634ab143bb146102315780634d553b2b146102515780634f1ef2861461027157806352d1902d1461028457806364d2387d146102a6578063715018a6146102c65780637a2cb297146102db575b600080fd5b34801561015d57600080fd5b506040805180820190915260038152620312e360ec1b60208201525b6040516101869190612f4c565b60405180910390f35b34801561019b57600080fd5b506101af6101aa366004613090565b6104cb565b005b3480156101bd57600080fd5b506101796101cc3660046130e7565b61069c565b3480156101dd57600080fd5b506101af6101ec3660046130e7565b610861565b3480156101fd57600080fd5b5061017961020c3660046130e7565b610a44565b34801561021d57600080fd5b5061017961022c3660046130e7565b610bfd565b34801561023d57600080fd5b5061017961024c3660046130e7565b610d17565b34801561025d57600080fd5b506101af61026c366004613090565b610ed8565b6101af61027f366004613090565b611091565b34801561029057600080fd5b506102996110b0565b6040516101869190613110565b3480156102b257600080fd5b506101af6102c13660046130e7565b6110cd565b3480156102d257600080fd5b506101af61127d565b3480156102e757600080fd5b506102f0611291565b60405161018691906131c9565b34801561030957600080fd5b506101796103183660046130e7565b611397565b34801561032957600080fd5b506103326115a0565b6040516101869190613232565b34801561034b57600080fd5b506101af61169d565b34801561036057600080fd5b506101af61036f366004613090565b6117a3565b34801561038057600080fd5b5061038961195c565b6040516101869190613243565b3480156103a257600080fd5b506101af6103b13660046130e7565b611977565b3480156103c257600080fd5b506103cb6119a1565b60405161018691906132a9565b3480156103e457600080fd5b50610179604051806040016040528060058152602001640352e302e360dc1b81525081565b34801561041557600080fd5b506101af6104243660046130e7565b611a9e565b34801561043557600080fd5b506101af6104443660046130e7565b611c74565b34801561045557600080fd5b506101796104643660046130e7565b611e1f565b34801561047557600080fd5b5061047e611fc2565b6040516101869190613312565b34801561049757600080fd5b506101af6104a63660046130e7565b6120bf565b3480156104b757600080fd5b506101af6104c6366004613090565b6120fd565b60005433906001600160a01b03168114806105265750604080516000815260208101918290525190206104fd82610d17565b60405160200161050d9190613345565b6040516020818303038152906040528051906020012014155b61054b5760405162461bcd60e51b81526004016105429061336d565b60405180910390fd5b61058760405180604001604052806019815260200178616a6f7574657241646d696e206964202573206e6f6d20257360381b81525084846122b6565b6001600160a01b0383166105ad5760405162461bcd60e51b8152600401610542906133a4565b604080518082019091526001600160a01b0384811682526020820184815260018054808201825560009190915283517fb10e2d527612073b26eecdfd717e6a320cf44b4afac2b0732d9fcbe2b7fa0cf6600290920291820180546001600160a01b0319169190941617835590517fb10e2d527612073b26eecdfd717e6a320cf44b4afac2b0732d9fcbe2b7fa0cf79091019061064990826134b3565b505050826001600160a01b0316336001600160a01b03167f57f83ffba66d755393544892c1f8e4ed53f4e1ea9b5ebf2066b68a160e7221798460405161068f9190612f4c565b60405180910390a3505050565b60408051602081019091526000808252606091905b60025481101561081f576000600282815481106106d0576106d061356d565b60009182526020918290206040805180820190915260029092020180546001600160a01b03168252600181018054929391929184019161070f906133ca565b80601f016020809104026020016040519081016040528092919081815260200182805461073b906133ca565b80156107885780601f1061075d57610100808354040283529160200191610788565b820191906000526020600020905b81548152906001019060200180831161076b57829003601f168201915b5050505050815250509050846001600160a01b031681600001516001600160a01b03160361080c576107f36040518060400160405280602081526020017f676574436c69656e74427941646472657373205f636c69656e742e696420257381525082600001516122fd565b6020810151600254909350610809906001613599565b91505b5080610817816135ac565b9150506106b1565b5061085b60405180604001604052806019815260200178676574436c69656e74427941646472657373206e6f6d20257360381b81525082612342565b92915050565b60005433906001600160a01b03168114806108bc57506040805160008152602081019182905251902061089382610d17565b6040516020016108a39190613345565b6040516020818303038152906040528051906020012014155b6108d85760405162461bcd60e51b81526004016105429061336d565b61090d60405180604001604052806013815260200172039bab8383934b6b2b924b7ba1034b21012b99606d1b815250836122fd565b6001600160a01b0382166109335760405162461bcd60e51b8152600401610542906133a4565b600061093e83612387565b90508061270f14610a3f57805b60035461095a906001906135c5565b8110156109f757600361096e826001613599565b8154811061097e5761097e61356d565b90600052602060002090600202016003828154811061099f5761099f61356d565b60009182526020909120825460029092020180546001600160a01b0319166001600160a01b039092169190911781556001808201906109e0908401826135e3565b5090505080806109ef906135ac565b91505061094b565b506003805480610a0957610a0961369a565b60008281526020812060026000199093019283020180546001600160a01b031916815590610a3a6001830182612e9c565b505090555b505050565b60408051602081019091526000808252606091905b600354811015610bc457600060038281548110610a7857610a7861356d565b60009182526020918290206040805180820190915260029092020180546001600160a01b031682526001810180549293919291840191610ab7906133ca565b80601f0160208091040260200160405190810160405280929190818152602001828054610ae3906133ca565b8015610b305780601f10610b0557610100808354040283529160200191610b30565b820191906000526020600020905b815481529060010190602001808311610b1357829003601f168201915b5050505050815250509050846001600160a01b031681600001516001600160a01b031603610bb157610b986040518060400160405280601a815260200179676574496f74427941646472657373205f696f742e696420257360301b81525082600001516122fd565b6020810151600354909350610bae906001613599565b91505b5080610bbc816135ac565b915050610a59565b5061085b60405180604001604052806016815260200175676574496f74427941646472657373206e6f6d20257360501b81525082612342565b60606000610c0a83610d17565b60408051600081526020810180835281519020929350610c2c91849101613345565b6040516020818303038152906040528051906020012003610cdf57610c5083611e1f565b60408051600081526020810180835281519020929350610c7291849101613345565b6040516020818303038152906040528051906020012003610cdf57610c968361069c565b60408051600081526020810180835281519020929350610cb891849101613345565b6040516020818303038152906040528051906020012003610cdf57610cdc83610a44565b90505b61085b604051806040016040528060168152602001756765744e6f6d427941646472657373206e6f6d20257360501b81525082612342565b60408051602081019091526000808252606091905b600154811015610e9a57600060018281548110610d4b57610d4b61356d565b60009182526020918290206040805180820190915260029092020180546001600160a01b031682526001810180549293919291840191610d8a906133ca565b80601f0160208091040260200160405190810160405280929190818152602001828054610db6906133ca565b8015610e035780601f10610dd857610100808354040283529160200191610e03565b820191906000526020600020905b815481529060010190602001808311610de657829003601f168201915b5050505050815250509050846001600160a01b031681600001516001600160a01b031603610e8757610e6e6040518060400160405280601e81526020017f67657441646d696e427941646472657373205f61646d696e2e6964202573000081525082600001516122fd565b602081015160018054919450610e849190613599565b91505b5080610e92816135ac565b915050610d2c565b5061085b6040518060400160405280601b81526020017a6765744e6f6d41646d696e427941646472657373206e6f6d20257360281b81525082612342565b60005433906001600160a01b0316811480610f33575060408051600081526020810191829052519020610f0a82610d17565b604051602001610f1a9190613345565b6040516020818303038152906040528051906020012014155b610f4f5760405162461bcd60e51b81526004016105429061336d565b610f8860405180604001604052806016815260200175726563657074696f6e206964202573206e6f6d20257360501b81525084846122b6565b6001600160a01b038316610fae5760405162461bcd60e51b8152600401610542906133a4565b604080518082019091526001600160a01b038481168252602082018481526003805460018101825560009190915283517fc2575a0e9e593c00f959f8c92f12db2869c3395a3b0502d05e2516446f71f85b600290920291820180546001600160a01b0319169190941617835590517fc2575a0e9e593c00f959f8c92f12db2869c3395a3b0502d05e2516446f71f85c9091019061104b90826134b3565b505050826001600160a01b0316336001600160a01b03167f83ef4bc29a0963b7f33900725f31c6887a9bb2407274250b9258ab071124e1018460405161068f9190612f4c565b611099612525565b6110a2826125ca565b6110ac82826125d2565b5050565b60006110ba612685565b5060008051602061389883398151915290565b60005433906001600160a01b03168114806111285750604080516000815260208101918290525190206110ff82610d17565b60405160200161110f9190613345565b6040516020818303038152906040528051906020012014155b6111445760405162461bcd60e51b81526004016105429061336d565b6111816040518060400160405280601b81526020017a039bab8383934b6b2b92337bab93734b9b9b2bab91034b21012b99602d1b815250836122fd565b6001600160a01b0382166111a75760405162461bcd60e51b8152600401610542906133a4565b60006111b2836126ce565b90508061270f14610a3f57805b6004546111ce906001906135c5565b81101561126b5760046111e2826001613599565b815481106111f2576111f261356d565b9060005260206000209060020201600482815481106112135761121361356d565b60009182526020909120825460029092020180546001600160a01b0319166001600160a01b03909216919091178155600180820190611254908401826135e3565b509050508080611263906135ac565b9150506111bf565b506004805480610a0957610a0961369a565b611285612831565b61128f6000612863565b565b60606003805480602002602001604051908101604052809291908181526020016000905b8282101561138e576000848152602090819020604080518082019091526002850290910180546001600160a01b0316825260018101805492939192918401916112fd906133ca565b80601f0160208091040260200160405190810160405280929190818152602001828054611329906133ca565b80156113765780601f1061134b57610100808354040283529160200191611376565b820191906000526020600020905b81548152906001019060200180831161135957829003601f168201915b505050505081525050815260200190600101906112b5565b50505050905090565b60408051808201825260068152654e6f526f6c6560d01b6020808301919091528251600081529081019283905251909120606091906113d584610d17565b6040516020016113e59190613345565b604051602081830303815290604052805190602001201461142357505060408051808201909152600581526420b236b4b760d91b6020820152919050565b6040805160008152602081019182905251902061143f84611e1f565b60405160200161144f9190613345565b604051602081830303815290604052805190602001201461149357505060408051808201909152600b81526a2337bab93734b9b9b2bab960a91b6020820152919050565b604080516000815260208101918290525190206114af8461069c565b6040516020016114bf9190613345565b60405160208183030381529060405280519060200120146114fe57505060408051808201909152600681526510db1a595b9d60d21b6020820152919050565b6040805160008152602081019182905251902061151a84610a44565b60405160200161152a9190613345565b6040516020818303038152906040528051906020012014611566575050604080518082019091526003815262125bdd60ea1b6020820152919050565b61085b60405180604001604052806018815260200177676574526f6c6542794164647265737320726f6c6520257360401b81525082612342565b60606004805480602002602001604051908101604052809291908181526020016000905b8282101561138e576000848152602090819020604080518082019091526002850290910180546001600160a01b03168252600181018054929391929184019161160c906133ca565b80601f0160208091040260200160405190810160405280929190818152602001828054611638906133ca565b80156116855780601f1061165a57610100808354040283529160200191611685565b820191906000526020600020905b81548152906001019060200180831161166857829003601f168201915b505050505081525050815260200190600101906115c4565b60006116a76128bf565b805490915060ff600160401b82041615906001600160401b03166000811580156116ce5750825b90506000826001600160401b031660011480156116ea5750303b155b9050811580156116f8575080155b156117165760405163f92ee8a960e01b815260040160405180910390fd5b845467ffffffffffffffff19166001178555831561174057845460ff60401b1916600160401b1785555b611749336128e3565b6117516128f4565b831561179c57845460ff60401b191685556040517fc7f505b2f371ae2175ee4913f4499e1f2633a7b5936321eed1cdaeb6115181d290611793906001906136ca565b60405180910390a15b5050505050565b60005433906001600160a01b03168114806117fe5750604080516000815260208101918290525190206117d582610d17565b6040516020016117e59190613345565b6040516020818303038152906040528051906020012014155b61181a5760405162461bcd60e51b81526004016105429061336d565b61185360405180604001604052806016815260200175726563657074696f6e206964202573206e6f6d20257360501b81525084846122b6565b6001600160a01b0383166118795760405162461bcd60e51b8152600401610542906133a4565b604080518082019091526001600160a01b038481168252602082018481526004805460018101825560009190915283517f8a35acfbc15ff81a39ae7d344fd709f28e8600b4aa8c65c6b64bfe7fe36bd19b600290920291820180546001600160a01b0319169190941617835590517f8a35acfbc15ff81a39ae7d344fd709f28e8600b4aa8c65c6b64bfe7fe36bd19c9091019061191690826134b3565b505050826001600160a01b0316336001600160a01b03167f2cd868f7d9618eb984d297bf87bc84a8532ce66ae578efaa19ea85cef15190b68460405161068f9190612f4c565b6000806119676128fc565b546001600160a01b031692915050565b61197f612831565b600080546001600160a01b0319166001600160a01b0392909216919091179055565b60606002805480602002602001604051908101604052809291908181526020016000905b8282101561138e576000848152602090819020604080518082019091526002850290910180546001600160a01b031682526001810180549293919291840191611a0d906133ca565b80601f0160208091040260200160405190810160405280929190818152602001828054611a39906133ca565b8015611a865780601f10611a5b57610100808354040283529160200191611a86565b820191906000526020600020905b815481529060010190602001808311611a6957829003601f168201915b505050505081525050815260200190600101906119c5565b60005433906001600160a01b0316811480611af9575060408051600081526020810191829052519020611ad082610d17565b604051602001611ae09190613345565b6040516020818303038152906040528051906020012014155b611b155760405162461bcd60e51b81526004016105429061336d565b611b4c60405180604001604052806015815260200174039bab8383934b6b2b920b236b4b71034b21012b99605d1b815250836122fd565b6001600160a01b038216611b725760405162461bcd60e51b8152600401610542906133a4565b6000546001600160a01b0390811690831603611ba05760405162461bcd60e51b8152600401610542906136fd565b6000611bab83612920565b90508061270f14610a3f57805b60018054611bc691906135c5565b811015611c62576001611bd98282613599565b81548110611be957611be961356d565b906000526020600020906002020160018281548110611c0a57611c0a61356d565b60009182526020909120825460029092020180546001600160a01b0319166001600160a01b03909216919091178155600180820190611c4b908401826135e3565b509050508080611c5a906135ac565b915050611bb8565b506001805480610a0957610a0961369a565b60005433906001600160a01b0316811480611ccf575060408051600081526020810191829052519020611ca682610d17565b604051602001611cb69190613345565b6040516020818303038152906040528051906020012014155b611ceb5760405162461bcd60e51b81526004016105429061336d565b611d2360405180604001604052806016815260200175039bab8383934b6b2b921b634b2b73a1034b21012b9960551b815250836122fd565b6001600160a01b038216611d495760405162461bcd60e51b8152600401610542906133a4565b6000611d5483612aa0565b90508061270f14610a3f57805b600254611d70906001906135c5565b811015611e0d576002611d84826001613599565b81548110611d9457611d9461356d565b906000526020600020906002020160028281548110611db557611db561356d565b60009182526020909120825460029092020180546001600160a01b0319166001600160a01b03909216919091178155600180820190611df6908401826135e3565b509050508080611e05906135ac565b915050611d61565b506002805480610a0957610a0961369a565b60408051602081019091526000808252606091905b600454811015611f8257600060048281548110611e5357611e5361356d565b60009182526020918290206040805180820190915260029092020180546001600160a01b031682526001810180549293919291840191611e92906133ca565b80601f0160208091040260200160405190810160405280929190818152602001828054611ebe906133ca565b8015611f0b5780601f10611ee057610100808354040283529160200191611f0b565b820191906000526020600020905b815481529060010190602001808311611eee57829003601f168201915b5050505050815250509050846001600160a01b031681600001516001600160a01b031603611f6f57611f566040518060600160405280602a81526020016137d7602a913982516122fd565b6020810151600454909350611f6c906001613599565b91505b5080611f7a816135ac565b915050611e34565b5061085b6040518060400160405280601e81526020017f676574466f75726e697373657572427941646472657373206e6f6d202573000081525082612342565b60606001805480602002602001604051908101604052809291908181526020016000905b8282101561138e576000848152602090819020604080518082019091526002850290910180546001600160a01b03168252600181018054929391929184019161202e906133ca565b80601f016020809104026020016040519081016040528092919081815260200182805461205a906133ca565b80156120a75780601f1061207c576101008083540402835291602001916120a7565b820191906000526020600020905b81548152906001019060200180831161208a57829003601f168201915b50505050508152505081526020019060010190611fe6565b6120c7612831565b6001600160a01b0381166120f1576000604051631e4fbdf760e01b81526004016105429190613243565b6120fa81612863565b50565b60005433906001600160a01b031681148061215857506040805160008152602081019182905251902061212f82610d17565b60405160200161213f9190613345565b6040516020818303038152906040528051906020012014155b6121745760405162461bcd60e51b81526004016105429061336d565b6121ad60405180604001604052806016815260200175726563657074696f6e206964202573206e6f6d20257360501b81525084846122b6565b6001600160a01b0383166121d35760405162461bcd60e51b8152600401610542906133a4565b604080518082019091526001600160a01b03808516825260208201848152600280546001810182556000829052845191027f405787fa12a823e0f2b7631cc41b3ba8828b3321ca811111fa75cd3aa3bb5ace81018054929094166001600160a01b031990921691909117835590517f405787fa12a823e0f2b7631cc41b3ba8828b3321ca811111fa75cd3aa3bb5acf9091019061227090826134b3565b505050826001600160a01b0316336001600160a01b03167ff118a2b945ed85cbec27bac8ce34390bdb7ba0379df3c71eb92d37693d030d4a8460405161068f9190612f4c565b610a3f8383836040516024016122ce9392919061370d565b60408051601f198184030181529190526020810180516001600160e01b031663e0e9ad4f60e01b179052612c20565b6110ac828260405160240161231392919061373f565b60408051601f198184030181529190526020810180516001600160e01b031663319af33360e01b179052612c20565b6110ac828260405160240161235892919061375f565b60408051601f198184030181529190526020810180516001600160e01b0316634b5c427760e01b179052612c20565b600061270f815b6003548110156124e7576000600382815481106123ad576123ad61356d565b60009182526020918290206040805180820190915260029092020180546001600160a01b0316825260018101805492939192918401916123ec906133ca565b80601f0160208091040260200160405190810160405280929190818152602001828054612418906133ca565b80156124655780601f1061243a57610100808354040283529160200191612465565b820191906000526020600020905b81548152906001019060200180831161244857829003601f168201915b5050505050815250509050846001600160a01b031681600001516001600160a01b0316036124d4576124d06040518060400160405280601e81526020017f67657452616e67496f74427941646472657373205f696f742e6964202573000081525082600001516122fd565b8192505b50806124df816135ac565b91505061238e565b5061085b6040518060400160405280601b81526020017a67657452616e67496f744279416464726573732072616e6720257360281b81525082612c29565b306001600160a01b037f00000000000000000000000000000000000000000000000000000000000000001614806125ac57507f00000000000000000000000000000000000000000000000000000000000000006001600160a01b03166125a0600080516020613898833981519152546001600160a01b031690565b6001600160a01b031614155b1561128f5760405163703e46dd60e11b815260040160405180910390fd5b6120fa612831565b816001600160a01b03166352d1902d6040518163ffffffff1660e01b8152600401602060405180830381865afa92505050801561262c575060408051601f3d908101601f1916820190925261262991810190613795565b60015b61264b5781604051634c9c8ce360e01b81526004016105429190613243565b600080516020613898833981519152811461267b5780604051632a87526960e21b81526004016105429190613110565b610a3f8383612c6e565b306001600160a01b037f0000000000000000000000000000000000000000000000000000000000000000161461128f5760405163703e46dd60e11b815260040160405180910390fd5b600061270f815b60045481101561280e576000600482815481106126f4576126f461356d565b60009182526020918290206040805180820190915260029092020180546001600160a01b031682526001810180549293919291840191612733906133ca565b80601f016020809104026020016040519081016040528092919081815260200182805461275f906133ca565b80156127ac5780601f10612781576101008083540402835291602001916127ac565b820191906000526020600020905b81548152906001019060200180831161278f57829003601f168201915b5050505050815250509050846001600160a01b031681600001516001600160a01b0316036127fb576127f76040518060600160405280602e815260200161386a602e913982516122fd565b8192505b5080612806816135ac565b9150506126d5565b5061085b6040518060600160405280602381526020016138476023913982612c29565b3361283a61195c565b6001600160a01b03161461128f573360405163118cdaa760e01b81526004016105429190613243565b600061286d6128fc565b80546001600160a01b038481166001600160a01b031983168117845560405193945091169182907f8be0079c531659141344cd1fd0a4f28419497f9722a3daafe3b4186f6b6457e090600090a3505050565b7ff0c57e16840df040f15088dc2f81fe391c3923bec73e23a9662efc9c229c6a0090565b6128eb612cc4565b6120fa81612ce9565b61128f612cc4565b7f9016d09d72d40fdae2fd8ceac6b6234c7706214fd39c1cd1e609a0528c19930090565b600061270f815b600154811015612a60576000600182815481106129465761294661356d565b60009182526020918290206040805180820190915260029092020180546001600160a01b031682526001810180549293919291840191612985906133ca565b80601f01602080910402602001604051908101604052809291908181526020018280546129b1906133ca565b80156129fe5780601f106129d3576101008083540402835291602001916129fe565b820191906000526020600020905b8154815290600101906020018083116129e157829003601f168201915b5050505050815250509050846001600160a01b031681600001516001600160a01b031603612a4d57612a496040518060600160405280602281526020016138016022913982516122fd565b8192505b5080612a58816135ac565b915050612927565b5061085b6040518060400160405280601d81526020017f67657452616e6741646d696e4279416464726573732072616e6720257300000081525082612c29565b600061270f815b600254811015612be057600060028281548110612ac657612ac661356d565b60009182526020918290206040805180820190915260029092020180546001600160a01b031682526001810180549293919291840191612b05906133ca565b80601f0160208091040260200160405190810160405280929190818152602001828054612b31906133ca565b8015612b7e5780601f10612b5357610100808354040283529160200191612b7e565b820191906000526020600020905b815481529060010190602001808311612b6157829003601f168201915b5050505050815250509050846001600160a01b031681600001516001600160a01b031603612bcd57612bc96040518060600160405280602481526020016138236024913982516122fd565b8192505b5080612bd8816135ac565b915050612aa7565b5061085b6040518060400160405280601e81526020017f67657452616e67436c69656e744279416464726573732072616e67202573000081525082612c29565b6120fa81612cf1565b6110ac8282604051602401612c3f9291906137b6565b60408051601f198184030181529190526020810180516001600160e01b0316632d839cb360e21b179052612c20565b612c7782612d12565b6040516001600160a01b038316907fbc7cd75a20ee27fd9adebab32041f755214dbc6bffa90cc0225b39da2e5c2d3b90600090a2805115612cbc57610a3f8282612d6e565b6110ac612de4565b612ccc612e03565b61128f57604051631afcd79f60e31b815260040160405180910390fd5b6120c7612cc4565b60006a636f6e736f6c652e6c6f679050600080835160208501845afa505050565b806001600160a01b03163b600003612d3f5780604051634c9c8ce360e01b81526004016105429190613243565b60008051602061389883398151915280546001600160a01b0319166001600160a01b0392909216919091179055565b6060600080846001600160a01b031684604051612d8b9190613345565b600060405180830381855af49150503d8060008114612dc6576040519150601f19603f3d011682016040523d82523d6000602084013e612dcb565b606091505b5091509150612ddb858383612e1d565b95945050505050565b341561128f5760405163b398979f60e01b815260040160405180910390fd5b6000612e0d6128bf565b54600160401b900460ff16919050565b606082612e3257612e2d82612e73565b612e6c565b8151158015612e4957506001600160a01b0384163b155b15612e695783604051639996b31560e01b81526004016105429190613243565b50805b9392505050565b805115612e835780518082602001fd5b604051630a12f52160e11b815260040160405180910390fd5b508054612ea8906133ca565b6000825580601f10612eb8575050565b601f0160209004906000526020600020908101906120fa91905b80821115612ee65760008155600101612ed2565b5090565b60005b83811015612f05578181015183820152602001612eed565b50506000910152565b601f01601f191690565b6000612f22825190565b808452602084019350612f39818560208601612eea565b612f4281612f0e565b9093019392505050565b60208082528101612e6c8184612f18565b60006001600160a01b03821661085b565b612f7781612f5d565b81146120fa57600080fd5b803561085b81612f6e565b634e487b7160e01b600052604160045260246000fd5b612fac82612f0e565b81018181106001600160401b0382111715612fc957612fc9612f8d565b6040525050565b6000612fdb60405190565b9050612fe78282612fa3565b919050565b60006001600160401b0382111561300557613005612f8d565b61300e82612f0e565b60200192915050565b82818337506000910152565b600061303661303184612fec565b612fd0565b90508281526020810184848401111561305157613051600080fd5b61305c848285613017565b509392505050565b600082601f83011261307857613078600080fd5b8135613088848260208601613023565b949350505050565b600080604083850312156130a6576130a6600080fd5b60006130b28585612f82565b92505060208301356001600160401b038111156130d1576130d1600080fd5b6130dd85828601613064565b9150509250929050565b6000602082840312156130fc576130fc600080fd5b60006130888484612f82565b805b82525050565b6020810161085b8284613108565b61310a81612f5d565b8051600090604084019061313b858261311e565b5060208301518482036020860152612ddb8282612f18565b6000612e6c8383613127565b60200190565b600061316f825190565b808452602084019350836020820285016131898560200190565b60005b848110156131bd57838303885281516131a58482613153565b9350506020820160209890980197915060010161318c565b50909695505050505050565b60208082528101612e6c8184613165565b60006131e4825190565b808452602084019350836020820285016131fe8560200190565b60005b848110156131bd578383038852815161321a8482613153565b93505060208201602098909801979150600101613201565b60208082528101612e6c81846131da565b6020810161085b828461311e565b600061325b825190565b808452602084019350836020820285016132758560200190565b60005b848110156131bd57838303885281516132918482613153565b93505060208201602098909801979150600101613278565b60208082528101612e6c8184613251565b60006132c4825190565b808452602084019350836020820285016132de8560200190565b60005b848110156131bd57838303885281516132fa8482613153565b935050602082016020989098019791506001016132e1565b60208082528101612e6c81846132ba565b600061332d825190565b61333b818560208601612eea565b9290920192915050565b61085b8183613323565b6009815260208101682737ba1020b236b4b760b91b8152905061315f565b6020808252810161085b8161334f565b60128152602081017141646472657373206e6f742076616c69646560701b8152905061315f565b6020808252810161085b8161337d565b634e487b7160e01b600052602260045260246000fd5b6002810460018216806133de57607f821691505b6020821081036133f0576133f06133b4565b50919050565b600061085b6134028381565b90565b61340e836133f6565b815460001960089490940293841b1916921b91909117905550565b6000610a3f818484613405565b818110156110ac57613449600082613429565b600101613436565b601f821115610a3f576000818152602090206020601f850104810160208510156134785750805b61179c6020601f860104830182613436565b6000196008929092029190911c191690565b6134a6828261348a565b6002909202909117919050565b81516001600160401b038111156134cc576134cc612f8d565b6134d682546133ca565b6134e1828285613451565b506020601f82116001811461351057600083156134fe5750848201515b613508848261349c565b85555061179c565b600084815260208120601f198516915b828110156135405787850151825560209485019460019092019101613520565b508482101561355e578387015161355a601f87168261348a565b8255505b50505050600202600101905550565b634e487b7160e01b600052603260045260246000fd5b634e487b7160e01b600052601160045260246000fd5b8082018082111561085b5761085b613583565b6000600182016135be576135be613583565b5060010190565b8181038181111561085b5761085b613583565b805461085b816133ca565b8181036135ee575050565b6135f7826135d8565b6001600160401b0381111561360e5761360e612f8d565b61361882546133ca565b613623828285613451565b506000601f82116001811461364957600083156134fe575084820154613508848261349c565b600094855260208086208587529520601f19841690835b828110156136805787850154825560019485019490910190602001613660565b508482101561355e578387015461355a601f87168261348a565b634e487b7160e01b600052603160045260246000fd5b60006001600160401b03821661085b565b61310a816136b0565b6020810161085b82846136c1565b60108152602081016f13dddb995c88191d4818dbdb9d1c985d60821b8152905061315f565b6020808252810161085b816136d8565b6060808252810161371e8186612f18565b905061372d602083018561311e565b8181036040830152612ddb8184612f18565b604080825281016137508185612f18565b9050612e6c602083018461311e565b604080825281016137708185612f18565b905081810360208301526130888184612f18565b80612f77565b805161085b81613784565b6000602082840312156137aa576137aa600080fd5b6000613088848461378a565b604080825281016137c78185612f18565b9050612e6c602083018461310856fe676574466f75726e697373657572427941646472657373205f666f75726e6973736575722e696420257367657452616e6741646d696e427941646472657373205f61646d696e2e696420257367657452616e67436c69656e74427941646472657373205f636c69656e742e696420257367657452616e67466f75726e6973736575724279416464726573732072616e6720257367657452616e67466f75726e697373657572427941646472657373205f666f75726e6973736575722e6964202573360894a13ba1a3210667c828492db98dca3e2076cc3735a920a3ca505d382bbca26469706673582212200ca97f7078f51bac35d2ffbca97ac8b1b9268a30ad7ede1172db63f6f55e79a564736f6c63430008150033",
  "linkReferences": {},
  "deployedLinkReferences": {}
}