{
  "_format": "hh-sol-artifact-1",
  "contractName": "Role",
  "sourceName": "contracts/Role.sol",
  "abi": [
    {
      "inputs": [],
      "stateMutability": "nonpayable",
      "type": "constructor"
    },
    {
      "anonymous": false,
      "inputs": [
        {
          "indexed": true,
          "internalType": "address",
          "name": "previousOwner",
          "type": "address"
        },
        {
          "indexed": true,
          "internalType": "address",
          "name": "newOwner",
          "type": "address"
        }
      ],
      "name": "OwnershipTransferred",
      "type": "event"
    },
    {
      "inputs": [
        {
          "internalType": "address",
          "name": "id",
          "type": "address"
        },
        {
          "internalType": "string",
          "name": "nom",
          "type": "string"
        }
      ],
      "name": "ajouterAdmin",
      "outputs": [],
      "stateMutability": "nonpayable",
      "type": "function"
    },
    {
      "inputs": [
        {
          "internalType": "address",
          "name": "id",
          "type": "address"
        },
        {
          "internalType": "string",
          "name": "nom",
          "type": "string"
        }
      ],
      "name": "ajouterClient",
      "outputs": [],
      "stateMutability": "nonpayable",
      "type": "function"
    },
    {
      "inputs": [
        {
          "internalType": "address",
          "name": "id",
          "type": "address"
        },
        {
          "internalType": "string",
          "name": "nom",
          "type": "string"
        }
      ],
      "name": "ajouterFournisseur",
      "outputs": [],
      "stateMutability": "nonpayable",
      "type": "function"
    },
    {
      "inputs": [],
      "name": "getListeAdmins",
      "outputs": [
        {
          "components": [
            {
              "internalType": "address",
              "name": "id",
              "type": "address"
            },
            {
              "internalType": "string",
              "name": "nom",
              "type": "string"
            }
          ],
          "internalType": "struct Role.Admin[]",
          "name": "",
          "type": "tuple[]"
        }
      ],
      "stateMutability": "view",
      "type": "function"
    },
    {
      "inputs": [],
      "name": "getListeClients",
      "outputs": [
        {
          "components": [
            {
              "internalType": "address",
              "name": "id",
              "type": "address"
            },
            {
              "internalType": "string",
              "name": "nom",
              "type": "string"
            }
          ],
          "internalType": "struct Role.Client[]",
          "name": "",
          "type": "tuple[]"
        }
      ],
      "stateMutability": "view",
      "type": "function"
    },
    {
      "inputs": [],
      "name": "getListeFournisseurs",
      "outputs": [
        {
          "components": [
            {
              "internalType": "address",
              "name": "id",
              "type": "address"
            },
            {
              "internalType": "string",
              "name": "nom",
              "type": "string"
            }
          ],
          "internalType": "struct Role.Fournisseur[]",
          "name": "",
          "type": "tuple[]"
        }
      ],
      "stateMutability": "view",
      "type": "function"
    },
    {
      "inputs": [
        {
          "internalType": "address",
          "name": "id",
          "type": "address"
        }
      ],
      "name": "getNomAdminByAddress",
      "outputs": [
        {
          "internalType": "string",
          "name": "",
          "type": "string"
        }
      ],
      "stateMutability": "view",
      "type": "function"
    },
    {
      "inputs": [
        {
          "internalType": "address",
          "name": "id",
          "type": "address"
        }
      ],
      "name": "getNomClientByAddress",
      "outputs": [
        {
          "internalType": "string",
          "name": "",
          "type": "string"
        }
      ],
      "stateMutability": "view",
      "type": "function"
    },
    {
      "inputs": [
        {
          "internalType": "address",
          "name": "id",
          "type": "address"
        }
      ],
      "name": "getNomFournisseurByAddress",
      "outputs": [
        {
          "internalType": "string",
          "name": "",
          "type": "string"
        }
      ],
      "stateMutability": "view",
      "type": "function"
    },
    {
      "inputs": [
        {
          "internalType": "address",
          "name": "id",
          "type": "address"
        }
      ],
      "name": "getRoleByAddress",
      "outputs": [
        {
          "internalType": "string",
          "name": "",
          "type": "string"
        }
      ],
      "stateMutability": "view",
      "type": "function"
    },
    {
      "inputs": [],
      "name": "owner",
      "outputs": [
        {
          "internalType": "address",
          "name": "",
          "type": "address"
        }
      ],
      "stateMutability": "view",
      "type": "function"
    },
    {
      "inputs": [],
      "name": "renounceOwnership",
      "outputs": [],
      "stateMutability": "nonpayable",
      "type": "function"
    },
    {
      "inputs": [
        {
          "internalType": "address",
          "name": "newContractOwner",
          "type": "address"
        }
      ],
      "name": "setContractOwner",
      "outputs": [],
      "stateMutability": "nonpayable",
      "type": "function"
    },
    {
      "inputs": [
        {
          "internalType": "address",
          "name": "id",
          "type": "address"
        }
      ],
      "name": "supprimerAdmin",
      "outputs": [],
      "stateMutability": "nonpayable",
      "type": "function"
    },
    {
      "inputs": [
        {
          "internalType": "address",
          "name": "id",
          "type": "address"
        }
      ],
      "name": "supprimerClient",
      "outputs": [],
      "stateMutability": "nonpayable",
      "type": "function"
    },
    {
      "inputs": [
        {
          "internalType": "address",
          "name": "id",
          "type": "address"
        }
      ],
      "name": "supprimerFournisseur",
      "outputs": [],
      "stateMutability": "nonpayable",
      "type": "function"
    },
    {
      "inputs": [
        {
          "internalType": "address",
          "name": "newOwner",
          "type": "address"
        }
      ],
      "name": "transferOwnership",
      "outputs": [],
      "stateMutability": "nonpayable",
      "type": "function"
    }
  ],
  "bytecode": "0x608060405234801561001057600080fd5b5061001a3361001f565b61006f565b600080546001600160a01b038381166001600160a01b0319831681178455604051919092169283917f8be0079c531659141344cd1fd0a4f28419497f9722a3daafe3b4186f6b6457e09190a35050565b61256c8061007e6000396000f3fe608060405234801561001057600080fd5b50600436106100eb5760003560e01c80638da5cb5b116100925780638da5cb5b14610197578063a34d42b8146101b0578063a688f035146101c3578063b30021cd146101d8578063ddd27390146101eb578063e2339ba3146101fe578063ebc278d814610211578063f2fde38b14610226578063f53790f11461023957600080fd5b806316f1df23146100f05780632163b101146101055780634ab143bb1461012e57806364d2387d14610141578063715018a6146101545780637bff77d41461015c5780637e5db4c71461016f57806389e231ae14610184575b600080fd5b6101036100fe366004611f19565b61024c565b005b610118610113366004611f71565b6103da565b6040516101259190611ff6565b60405180910390f35b61011861013c366004611f71565b61058f565b61010361014f366004611f71565b610740565b610103610938565b61011861016a366004611f71565b61094c565b610177610aed565b60405161012591906120c8565b610103610192366004611f19565b610bf3565b6000546001600160a01b031660405161012591906120d9565b6101036101be366004611f71565b610d6d565b6101cb610d97565b604051610125919061213f565b6101036101e6366004611f71565b610e94565b6101036101f9366004611f71565b611079565b61011861020c366004611f71565b611231565b6102196113c4565b60405161012591906121a8565b610103610234366004611f71565b6114c1565b610103610247366004611f19565b6114fb565b60015433906001600160a01b03168114806102a757506040805160008152602081019182905251902061027e8261058f565b60405160200161028e91906121db565b6040516020818303038152906040528051906020012014155b6102cc5760405162461bcd60e51b81526004016102c390612203565b60405180910390fd5b61030860405180604001604052806019815260200178616a6f7574657241646d696e206964202573206e6f6d20257360381b8152508484611675565b6001600160a01b03831661032e5760405162461bcd60e51b81526004016102c39061223a565b604080518082019091526001600160a01b0380851682526020808301858152600280546001810182556000829052855191027f405787fa12a823e0f2b7631cc41b3ba8828b3321ca811111fa75cd3aa3bb5ace81018054929095166001600160a01b0319909216919091178455905180516103d2937f405787fa12a823e0f2b7631cc41b3ba8828b3321ca811111fa75cd3aa3bb5acf909301929190910190611c90565b505050505050565b60408051602081019091526000808252606091905b60035481101561054d5760006003828154811061040e5761040e61224a565b60009182526020918290206040805180820190915260029092020180546001600160a01b03168252600181018054929391929184019161044d90612276565b80601f016020809104026020016040519081016040528092919081815260200182805461047990612276565b80156104c65780601f1061049b576101008083540402835291602001916104c6565b820191906000526020600020905b8154815290600101906020018083116104a957829003601f168201915b5050505050815250509050846001600160a01b031681600001516001600160a01b0316141561053a576105326040518060400160405280602081526020017f676574436c69656e74427941646472657373205f636c69656e742e696420257381525082600001516116bc565b806020015192505b5080610545816122b9565b9150506103ef565b5061058960405180604001604052806019815260200178676574436c69656e74427941646472657373206e6f6d20257360381b81525082611705565b92915050565b60408051602081019091526000808252606091905b600254811015610702576000600282815481106105c3576105c361224a565b60009182526020918290206040805180820190915260029092020180546001600160a01b03168252600181018054929391929184019161060290612276565b80601f016020809104026020016040519081016040528092919081815260200182805461062e90612276565b801561067b5780601f106106505761010080835404028352916020019161067b565b820191906000526020600020905b81548152906001019060200180831161065e57829003601f168201915b5050505050815250509050846001600160a01b031681600001516001600160a01b031614156106ef576106e76040518060400160405280601e81526020017f67657441646d696e427941646472657373205f61646d696e2e6964202573000081525082600001516116bc565b806020015192505b50806106fa816122b9565b9150506105a4565b506105896040518060400160405280601b81526020017a6765744e6f6d41646d696e427941646472657373206e6f6d20257360281b81525082611705565b60015433906001600160a01b031681148061079b5750604080516000815260208101918290525190206107728261058f565b60405160200161078291906121db565b6040516020818303038152906040528051906020012014155b6107b75760405162461bcd60e51b81526004016102c390612203565b6107f46040518060400160405280601b81526020017a039bab8383934b6b2b92337bab93734b9b9b2bab91034b21012b99602d1b815250836116bc565b6001600160a01b03821661081a5760405162461bcd60e51b81526004016102c39061223a565b60006108258361174a565b90508061270f1461093357805b600454610841906001906122d4565b8110156108eb5760046108558260016122eb565b815481106108655761086561224a565b9060005260206000209060020201600482815481106108865761088661224a565b60009182526020909120825460029092020180546001600160a01b0319166001600160a01b0390921691909117815560018083018054918301916108c990612276565b6108d4929190611d14565b5090505080806108e3906122b9565b915050610832565b5060048054806108fd576108fd612303565b60008281526020812060026000199093019283020180546001600160a01b03191681559061092e6001830182611d8f565b505090555b505050565b6109406118ae565b61094a60006118d8565b565b60408051808201825260068152654e6f526f6c6560d01b60208083019190915282516000815290810192839052519091206060919061098a8461058f565b60405160200161099a91906121db565b60405160208183030381529060405280519060200120146109d857505060408051808201909152600581526420b236b4b760d91b6020820152919050565b604080516000815260208101918290525190206109f484611231565b604051602001610a0491906121db565b6040516020818303038152906040528051906020012014610a4857505060408051808201909152600b81526a2337bab93734b9b9b2bab960a91b6020820152919050565b60408051600081526020810191829052519020610a64846103da565b604051602001610a7491906121db565b6040516020818303038152906040528051906020012014610ab357505060408051808201909152600681526510db1a595b9d60d21b6020820152919050565b61058960405180604001604052806018815260200177676574526f6c6542794164647265737320726f6c6520257360401b81525082611705565b60606004805480602002602001604051908101604052809291908181526020016000905b82821015610bea576000848152602090819020604080518082019091526002850290910180546001600160a01b031682526001810180549293919291840191610b5990612276565b80601f0160208091040260200160405190810160405280929190818152602001828054610b8590612276565b8015610bd25780601f10610ba757610100808354040283529160200191610bd2565b820191906000526020600020905b815481529060010190602001808311610bb557829003601f168201915b50505050508152505081526020019060010190610b11565b50505050905090565b60015433906001600160a01b0316811480610c4e575060408051600081526020810191829052519020610c258261058f565b604051602001610c3591906121db565b6040516020818303038152906040528051906020012014155b610c6a5760405162461bcd60e51b81526004016102c390612203565b610ca360405180604001604052806016815260200175726563657074696f6e206964202573206e6f6d20257360501b8152508484611675565b6001600160a01b038316610cc95760405162461bcd60e51b81526004016102c39061223a565b604080518082019091526001600160a01b03848116825260208083018581526004805460018101825560009190915284517f8a35acfbc15ff81a39ae7d344fd709f28e8600b4aa8c65c6b64bfe7fe36bd19b600290920291820180546001600160a01b03191691909516178455905180516103d2937f8a35acfbc15ff81a39ae7d344fd709f28e8600b4aa8c65c6b64bfe7fe36bd19c909301929190910190611c90565b610d756118ae565b600180546001600160a01b0319166001600160a01b0392909216919091179055565b60606003805480602002602001604051908101604052809291908181526020016000905b82821015610bea576000848152602090819020604080518082019091526002850290910180546001600160a01b031682526001810180549293919291840191610e0390612276565b80601f0160208091040260200160405190810160405280929190818152602001828054610e2f90612276565b8015610e7c5780601f10610e5157610100808354040283529160200191610e7c565b820191906000526020600020905b815481529060010190602001808311610e5f57829003601f168201915b50505050508152505081526020019060010190610dbb565b60015433906001600160a01b0316811480610eef575060408051600081526020810191829052519020610ec68261058f565b604051602001610ed691906121db565b6040516020818303038152906040528051906020012014155b610f0b5760405162461bcd60e51b81526004016102c390612203565b610f4260405180604001604052806015815260200174039bab8383934b6b2b920b236b4b71034b21012b99605d1b815250836116bc565b6001600160a01b038216610f685760405162461bcd60e51b81526004016102c39061223a565b6001546001600160a01b0383811691161415610f965760405162461bcd60e51b81526004016102c39061233e565b6000610fa183611928565b90508061270f1461093357805b600254610fbd906001906122d4565b811015611067576002610fd18260016122eb565b81548110610fe157610fe161224a565b9060005260206000209060020201600282815481106110025761100261224a565b60009182526020909120825460029092020180546001600160a01b0319166001600160a01b03909216919091178155600180830180549183019161104590612276565b611050929190611d14565b50905050808061105f906122b9565b915050610fae565b5060028054806108fd576108fd612303565b60015433906001600160a01b03168114806110d45750604080516000815260208101918290525190206110ab8261058f565b6040516020016110bb91906121db565b6040516020818303038152906040528051906020012014155b6110f05760405162461bcd60e51b81526004016102c390612203565b61112860405180604001604052806016815260200175039bab8383934b6b2b921b634b2b73a1034b21012b9960551b815250836116bc565b6001600160a01b03821661114e5760405162461bcd60e51b81526004016102c39061223a565b600061115983611aa9565b90508061270f1461093357805b600354611175906001906122d4565b81101561121f5760036111898260016122eb565b815481106111995761119961224a565b9060005260206000209060020201600382815481106111ba576111ba61224a565b60009182526020909120825460029092020180546001600160a01b0319166001600160a01b0390921691909117815560018083018054918301916111fd90612276565b611208929190611d14565b509050508080611217906122b9565b915050611166565b5060038054806108fd576108fd612303565b60408051602081019091526000808252606091905b600454811015611384576000600482815481106112655761126561224a565b60009182526020918290206040805180820190915260029092020180546001600160a01b0316825260018101805492939192918401916112a490612276565b80601f01602080910402602001604051908101604052809291908181526020018280546112d090612276565b801561131d5780601f106112f25761010080835404028352916020019161131d565b820191906000526020600020905b81548152906001019060200180831161130057829003601f168201915b5050505050815250509050846001600160a01b031681600001516001600160a01b03161415611371576113696040518060600160405280602a8152602001612476602a913982516116bc565b806020015192505b508061137c816122b9565b915050611246565b506105896040518060400160405280601e81526020017f676574466f75726e697373657572427941646472657373206e6f6d202573000081525082611705565b60606002805480602002602001604051908101604052809291908181526020016000905b82821015610bea576000848152602090819020604080518082019091526002850290910180546001600160a01b03168252600181018054929391929184019161143090612276565b80601f016020809104026020016040519081016040528092919081815260200182805461145c90612276565b80156114a95780601f1061147e576101008083540402835291602001916114a9565b820191906000526020600020905b81548152906001019060200180831161148c57829003601f168201915b505050505081525050815260200190600101906113e8565b6114c96118ae565b6001600160a01b0381166114ef5760405162461bcd60e51b81526004016102c39061234e565b6114f8816118d8565b50565b60015433906001600160a01b031681148061155657506040805160008152602081019182905251902061152d8261058f565b60405160200161153d91906121db565b6040516020818303038152906040528051906020012014155b6115725760405162461bcd60e51b81526004016102c390612203565b6115ab60405180604001604052806016815260200175726563657074696f6e206964202573206e6f6d20257360501b8152508484611675565b6001600160a01b0383166115d15760405162461bcd60e51b81526004016102c39061223a565b604080518082019091526001600160a01b03848116825260208083018581526003805460018101825560009190915284517fc2575a0e9e593c00f959f8c92f12db2869c3395a3b0502d05e2516446f71f85b600290920291820180546001600160a01b03191691909516178455905180516103d2937fc2575a0e9e593c00f959f8c92f12db2869c3395a3b0502d05e2516446f71f85c909301929190910190611c90565b61093383838360405160240161168d93929190612398565b60408051601f198184030181529190526020810180516001600160e01b031663e0e9ad4f60e01b179052611c2a565b61170182826040516024016116d29291906123ca565b60408051601f198184030181529190526020810180516001600160e01b031663319af33360e01b179052611c2a565b5050565b611701828260405160240161171b9291906123ea565b60408051601f198184030181529190526020810180516001600160e01b0316634b5c427760e01b179052611c2a565b600061270f815b60045481101561188b576000600482815481106117705761177061224a565b60009182526020918290206040805180820190915260029092020180546001600160a01b0316825260018101805492939192918401916117af90612276565b80601f01602080910402602001604051908101604052809291908181526020018280546117db90612276565b80156118285780601f106117fd57610100808354040283529160200191611828565b820191906000526020600020905b81548152906001019060200180831161180b57829003601f168201915b5050505050815250509050846001600160a01b031681600001516001600160a01b03161415611878576118746040518060600160405280602e8152602001612509602e913982516116bc565b8192505b5080611883816122b9565b915050611751565b506105896040518060600160405280602381526020016124e66023913982611c4b565b6000546001600160a01b0316331461094a5760405162461bcd60e51b81526004016102c39061243f565b600080546001600160a01b038381166001600160a01b0319831681178455604051919092169283917f8be0079c531659141344cd1fd0a4f28419497f9722a3daafe3b4186f6b6457e09190a35050565b600061270f815b600254811015611a695760006002828154811061194e5761194e61224a565b60009182526020918290206040805180820190915260029092020180546001600160a01b03168252600181018054929391929184019161198d90612276565b80601f01602080910402602001604051908101604052809291908181526020018280546119b990612276565b8015611a065780601f106119db57610100808354040283529160200191611a06565b820191906000526020600020905b8154815290600101906020018083116119e957829003601f168201915b5050505050815250509050846001600160a01b031681600001516001600160a01b03161415611a5657611a526040518060600160405280602281526020016124a06022913982516116bc565b8192505b5080611a61816122b9565b91505061192f565b506105896040518060400160405280601d81526020017f67657452616e6741646d696e4279416464726573732072616e6720257300000081525082611c4b565b600061270f815b600354811015611bea57600060038281548110611acf57611acf61224a565b60009182526020918290206040805180820190915260029092020180546001600160a01b031682526001810180549293919291840191611b0e90612276565b80601f0160208091040260200160405190810160405280929190818152602001828054611b3a90612276565b8015611b875780601f10611b5c57610100808354040283529160200191611b87565b820191906000526020600020905b815481529060010190602001808311611b6a57829003601f168201915b5050505050815250509050846001600160a01b031681600001516001600160a01b03161415611bd757611bd36040518060600160405280602481526020016124c26024913982516116bc565b8192505b5080611be2816122b9565b915050611ab0565b506105896040518060400160405280601e81526020017f67657452616e67436c69656e744279416464726573732072616e67202573000081525082611c4b565b80516a636f6e736f6c652e6c6f67602083016000808483855afa5050505050565b6117018282604051602401611c61929190612455565b60408051601f198184030181529190526020810180516001600160e01b0316632d839cb360e21b179052611c2a565b828054611c9c90612276565b90600052602060002090601f016020900481019282611cbe5760008555611d04565b82601f10611cd757805160ff1916838001178555611d04565b82800160010185558215611d04579182015b82811115611d04578251825591602001919060010190611ce9565b50611d10929150611dc5565b5090565b828054611d2090612276565b90600052602060002090601f016020900481019282611d425760008555611d04565b82601f10611d535780548555611d04565b82800160010185558215611d0457600052602060002091601f016020900482015b82811115611d04578254825591600101919060010190611d74565b508054611d9b90612276565b6000825580601f10611dab575050565b601f0160209004906000526020600020908101906114f891905b5b80821115611d105760008155600101611dc6565b60006001600160a01b038216610589565b611df481611dda565b81146114f857600080fd5b803561058981611deb565b601f01601f191690565b634e487b7160e01b600052604160045260246000fd5b611e3382611e0a565b810181811067ffffffffffffffff82111715611e5157611e51611e14565b6040525050565b6000611e6360405190565b9050611e6f8282611e2a565b919050565b600067ffffffffffffffff821115611e8e57611e8e611e14565b611e9782611e0a565b60200192915050565b82818337506000910152565b6000611ebf611eba84611e74565b611e58565b905082815260208101848484011115611eda57611eda600080fd5b611ee5848285611ea0565b509392505050565b600082601f830112611f0157611f01600080fd5b8135611f11848260208601611eac565b949350505050565b60008060408385031215611f2f57611f2f600080fd5b6000611f3b8585611dff565b925050602083013567ffffffffffffffff811115611f5b57611f5b600080fd5b611f6785828601611eed565b9150509250929050565b600060208284031215611f8657611f86600080fd5b6000611f118484611dff565b60005b83811015611fad578181015183820152602001611f95565b83811115611fbc576000848401525b50505050565b6000611fcc825190565b808452602084019350611fe3818560208601611f92565b611fec81611e0a565b9093019392505050565b602080825281016120078184611fc2565b9392505050565b61201781611dda565b82525050565b80516000906040840190612031858261200e565b50602083015184820360208601526120498282611fc2565b95945050505050565b6000612007838361201d565b60200190565b600061206e825190565b808452602084019350836020820285016120888560200190565b60005b848110156120bc57838303885281516120a48482612052565b9350506020820160209890980197915060010161208b565b50909695505050505050565b602080825281016120078184612064565b60208101610589828461200e565b60006120f1825190565b8084526020840193508360208202850161210b8560200190565b60005b848110156120bc57838303885281516121278482612052565b9350506020820160209890980197915060010161210e565b6020808252810161200781846120e7565b600061215a825190565b808452602084019350836020820285016121748560200190565b60005b848110156120bc57838303885281516121908482612052565b93505060208201602098909801979150600101612177565b602080825281016120078184612150565b60006121c3825190565b6121d1818560208601611f92565b9290920192915050565b61058981836121b9565b6009815260208101682737ba1020b236b4b760b91b8152905061205e565b60208082528101610589816121e5565b60128152602081017141646472657373206e6f742076616c69646560701b8152905061205e565b6020808252810161058981612213565b634e487b7160e01b600052603260045260246000fd5b634e487b7160e01b600052602260045260246000fd5b60028104600182168061228a57607f821691505b6020821081141561229d5761229d612260565b50919050565b634e487b7160e01b600052601160045260246000fd5b60006000198214156122cd576122cd6122a3565b5060010190565b6000828210156122e6576122e66122a3565b500390565b600082198211156122fe576122fe6122a3565b500190565b634e487b7160e01b600052603160045260246000fd5b60108152602081016f13dddb995c88191d4818dbdb9d1c985d60821b8152905061205e565b6020808252810161058981612319565b6020808252810161058981602681527f4f776e61626c653a206e6577206f776e657220697320746865207a65726f206160208201526564647265737360d01b604082015260600190565b606080825281016123a98186611fc2565b90506123b8602083018561200e565b81810360408301526120498184611fc2565b604080825281016123db8185611fc2565b9050612007602083018461200e565b604080825281016123fb8185611fc2565b90508181036020830152611f118184611fc2565b60208082527f4f776e61626c653a2063616c6c6572206973206e6f7420746865206f776e6572910190815261205e565b602080825281016105898161240f565b80612017565b604080825281016124668185611fc2565b9050612007602083018461244f56fe676574466f75726e697373657572427941646472657373205f666f75726e6973736575722e696420257367657452616e6741646d696e427941646472657373205f61646d696e2e696420257367657452616e67436c69656e74427941646472657373205f636c69656e742e696420257367657452616e67466f75726e6973736575724279416464726573732072616e6720257367657452616e67466f75726e697373657572427941646472657373205f666f75726e6973736575722e6964202573a264697066735822122065b1202f2006ee2ce5b270022b844f27ba80cc8528e36bfc1a78c3ae99de604664736f6c634300080c0033",
  "linkReferences": {},
  "deployedLinkReferences": {}
}