{
  "_format": "hh-sol-artifact-1",
  "contractName": "Role",
  "sourceName": "contracts/Role.sol",
  "abi": [
    {
      "inputs": [
        {
          "internalType": "address",
          "name": "target",
          "type": "address"
        }
      ],
      "name": "AddressEmptyCode",
      "type": "error"
    },
    {
      "inputs": [
        {
          "internalType": "address",
          "name": "implementation",
          "type": "address"
        }
      ],
      "name": "ERC1967InvalidImplementation",
      "type": "error"
    },
    {
      "inputs": [],
      "name": "ERC1967NonPayable",
      "type": "error"
    },
    {
      "inputs": [],
      "name": "FailedInnerCall",
      "type": "error"
    },
    {
      "inputs": [],
      "name": "InvalidInitialization",
      "type": "error"
    },
    {
      "inputs": [],
      "name": "NotInitializing",
      "type": "error"
    },
    {
      "inputs": [
        {
          "internalType": "address",
          "name": "owner",
          "type": "address"
        }
      ],
      "name": "OwnableInvalidOwner",
      "type": "error"
    },
    {
      "inputs": [
        {
          "internalType": "address",
          "name": "account",
          "type": "address"
        }
      ],
      "name": "OwnableUnauthorizedAccount",
      "type": "error"
    },
    {
      "inputs": [],
      "name": "UUPSUnauthorizedCallContext",
      "type": "error"
    },
    {
      "inputs": [
        {
          "internalType": "bytes32",
          "name": "slot",
          "type": "bytes32"
        }
      ],
      "name": "UUPSUnsupportedProxiableUUID",
      "type": "error"
    },
    {
      "anonymous": false,
      "inputs": [
        {
          "indexed": false,
          "internalType": "uint64",
          "name": "version",
          "type": "uint64"
        }
      ],
      "name": "Initialized",
      "type": "event"
    },
    {
      "anonymous": false,
      "inputs": [
        {
          "indexed": true,
          "internalType": "address",
          "name": "previousOwner",
          "type": "address"
        },
        {
          "indexed": true,
          "internalType": "address",
          "name": "newOwner",
          "type": "address"
        }
      ],
      "name": "OwnershipTransferred",
      "type": "event"
    },
    {
      "anonymous": false,
      "inputs": [
        {
          "indexed": true,
          "internalType": "address",
          "name": "implementation",
          "type": "address"
        }
      ],
      "name": "Upgraded",
      "type": "event"
    },
    {
      "inputs": [],
      "name": "UPGRADE_INTERFACE_VERSION",
      "outputs": [
        {
          "internalType": "string",
          "name": "",
          "type": "string"
        }
      ],
      "stateMutability": "view",
      "type": "function"
    },
    {
      "inputs": [
        {
          "internalType": "address",
          "name": "id",
          "type": "address"
        },
        {
          "internalType": "string",
          "name": "nom",
          "type": "string"
        }
      ],
      "name": "ajouterAdmin",
      "outputs": [],
      "stateMutability": "nonpayable",
      "type": "function"
    },
    {
      "inputs": [
        {
          "internalType": "address",
          "name": "id",
          "type": "address"
        },
        {
          "internalType": "string",
          "name": "nom",
          "type": "string"
        }
      ],
      "name": "ajouterClient",
      "outputs": [],
      "stateMutability": "nonpayable",
      "type": "function"
    },
    {
      "inputs": [
        {
          "internalType": "address",
          "name": "id",
          "type": "address"
        },
        {
          "internalType": "string",
          "name": "nom",
          "type": "string"
        }
      ],
      "name": "ajouterFournisseur",
      "outputs": [],
      "stateMutability": "nonpayable",
      "type": "function"
    },
    {
      "inputs": [],
      "name": "getListeAdmins",
      "outputs": [
        {
          "components": [
            {
              "internalType": "address",
              "name": "id",
              "type": "address"
            },
            {
              "internalType": "string",
              "name": "nom",
              "type": "string"
            }
          ],
          "internalType": "struct Role.Admin[]",
          "name": "",
          "type": "tuple[]"
        }
      ],
      "stateMutability": "view",
      "type": "function"
    },
    {
      "inputs": [],
      "name": "getListeClients",
      "outputs": [
        {
          "components": [
            {
              "internalType": "address",
              "name": "id",
              "type": "address"
            },
            {
              "internalType": "string",
              "name": "nom",
              "type": "string"
            }
          ],
          "internalType": "struct Role.Client[]",
          "name": "",
          "type": "tuple[]"
        }
      ],
      "stateMutability": "view",
      "type": "function"
    },
    {
      "inputs": [],
      "name": "getListeFournisseurs",
      "outputs": [
        {
          "components": [
            {
              "internalType": "address",
              "name": "id",
              "type": "address"
            },
            {
              "internalType": "string",
              "name": "nom",
              "type": "string"
            }
          ],
          "internalType": "struct Role.Fournisseur[]",
          "name": "",
          "type": "tuple[]"
        }
      ],
      "stateMutability": "view",
      "type": "function"
    },
    {
      "inputs": [
        {
          "internalType": "address",
          "name": "id",
          "type": "address"
        }
      ],
      "name": "getNomAdminByAddress",
      "outputs": [
        {
          "internalType": "string",
          "name": "",
          "type": "string"
        }
      ],
      "stateMutability": "view",
      "type": "function"
    },
    {
      "inputs": [
        {
          "internalType": "address",
          "name": "id",
          "type": "address"
        }
      ],
      "name": "getNomByAddress",
      "outputs": [
        {
          "internalType": "string",
          "name": "",
          "type": "string"
        }
      ],
      "stateMutability": "view",
      "type": "function"
    },
    {
      "inputs": [
        {
          "internalType": "address",
          "name": "id",
          "type": "address"
        }
      ],
      "name": "getNomClientByAddress",
      "outputs": [
        {
          "internalType": "string",
          "name": "",
          "type": "string"
        }
      ],
      "stateMutability": "view",
      "type": "function"
    },
    {
      "inputs": [
        {
          "internalType": "address",
          "name": "id",
          "type": "address"
        }
      ],
      "name": "getNomFournisseurByAddress",
      "outputs": [
        {
          "internalType": "string",
          "name": "",
          "type": "string"
        }
      ],
      "stateMutability": "view",
      "type": "function"
    },
    {
      "inputs": [
        {
          "internalType": "address",
          "name": "id",
          "type": "address"
        }
      ],
      "name": "getRoleByAddress",
      "outputs": [
        {
          "internalType": "string",
          "name": "",
          "type": "string"
        }
      ],
      "stateMutability": "view",
      "type": "function"
    },
    {
      "inputs": [],
      "name": "getVersion",
      "outputs": [
        {
          "internalType": "string",
          "name": "",
          "type": "string"
        }
      ],
      "stateMutability": "view",
      "type": "function"
    },
    {
      "inputs": [],
      "name": "initialize",
      "outputs": [],
      "stateMutability": "nonpayable",
      "type": "function"
    },
    {
      "inputs": [],
      "name": "owner",
      "outputs": [
        {
          "internalType": "address",
          "name": "",
          "type": "address"
        }
      ],
      "stateMutability": "view",
      "type": "function"
    },
    {
      "inputs": [],
      "name": "proxiableUUID",
      "outputs": [
        {
          "internalType": "bytes32",
          "name": "",
          "type": "bytes32"
        }
      ],
      "stateMutability": "view",
      "type": "function"
    },
    {
      "inputs": [],
      "name": "renounceOwnership",
      "outputs": [],
      "stateMutability": "nonpayable",
      "type": "function"
    },
    {
      "inputs": [
        {
          "internalType": "address",
          "name": "newContractOwner",
          "type": "address"
        }
      ],
      "name": "setContractOwner",
      "outputs": [],
      "stateMutability": "nonpayable",
      "type": "function"
    },
    {
      "inputs": [
        {
          "internalType": "address",
          "name": "id",
          "type": "address"
        }
      ],
      "name": "supprimerAdmin",
      "outputs": [],
      "stateMutability": "nonpayable",
      "type": "function"
    },
    {
      "inputs": [
        {
          "internalType": "address",
          "name": "id",
          "type": "address"
        }
      ],
      "name": "supprimerClient",
      "outputs": [],
      "stateMutability": "nonpayable",
      "type": "function"
    },
    {
      "inputs": [
        {
          "internalType": "address",
          "name": "id",
          "type": "address"
        }
      ],
      "name": "supprimerFournisseur",
      "outputs": [],
      "stateMutability": "nonpayable",
      "type": "function"
    },
    {
      "inputs": [
        {
          "internalType": "address",
          "name": "newOwner",
          "type": "address"
        }
      ],
      "name": "transferOwnership",
      "outputs": [],
      "stateMutability": "nonpayable",
      "type": "function"
    },
    {
      "inputs": [
        {
          "internalType": "address",
          "name": "newImplementation",
          "type": "address"
        },
        {
          "internalType": "bytes",
          "name": "data",
          "type": "bytes"
        }
      ],
      "name": "upgradeToAndCall",
      "outputs": [],
      "stateMutability": "payable",
      "type": "function"
    }
  ],
  "bytecode": "0x60a06040523060805234801561001457600080fd5b50608051612e6961003e60003960008181611b1501528181611b3e0152611c750152612e696000f3fe6080604052600436106101205760003560e01c80638129fc1c116100a65780638129fc1c1461029157806389e231ae146102a65780638da5cb5b146102c6578063a34d42b8146102e8578063a688f03514610308578063ad3cb1cc1461032a578063b30021cd1461035b578063ddd273901461037b578063e2339ba31461039b578063ebc278d8146103bb578063f2fde38b146103dd578063f53790f1146103fd57600080fd5b80630d8e6e2c1461012557806316f1df23146101635780632163b101146101855780634713a58f146101a55780634ab143bb146101c55780634f1ef286146101e557806352d1902d146101f857806364d2387d1461021a578063715018a61461023a5780637bff77d41461024f5780637e5db4c71461026f575b600080fd5b34801561013157600080fd5b506040805180820190915260038152620312e360ec1b60208201525b60405161015a9190612531565b60405180910390f35b34801561016f57600080fd5b5061018361017e366004612675565b61041d565b005b34801561019157600080fd5b5061014d6101a03660046126cc565b6105a3565b3480156101b157600080fd5b5061014d6101c03660046126cc565b610757565b3480156101d157600080fd5b5061014d6101e03660046126cc565b61082b565b6101836101f3366004612675565b6109db565b34801561020457600080fd5b5061020d6109fa565b60405161015a91906126f5565b34801561022657600080fd5b506101836102353660046126cc565b610a17565b34801561024657600080fd5b50610183610c02565b34801561025b57600080fd5b5061014d61026a3660046126cc565b610c16565b34801561027b57600080fd5b50610284610db7565b60405161015a91906127ae565b34801561029d57600080fd5b50610183610ebd565b3480156102b257600080fd5b506101836102c1366004612675565b610fc3565b3480156102d257600080fd5b506102db611136565b60405161015a91906127bf565b3480156102f457600080fd5b506101836103033660046126cc565b611151565b34801561031457600080fd5b5061031d61117b565b60405161015a9190612825565b34801561033657600080fd5b5061014d604051806040016040528060058152602001640352e302e360dc1b81525081565b34801561036757600080fd5b506101836103763660046126cc565b611278565b34801561038757600080fd5b506101836103963660046126cc565b61144e565b3480156103a757600080fd5b5061014d6103b63660046126cc565b6115f9565b3480156103c757600080fd5b506103d061178b565b60405161015a919061288e565b3480156103e957600080fd5b506101836103f83660046126cc565b611888565b34801561040957600080fd5b50610183610418366004612675565b6118c6565b60005433906001600160a01b031681148061047857506040805160008152602081019182905251902061044f8261082b565b60405160200161045f91906128c1565b6040516020818303038152906040528051906020012014155b61049d5760405162461bcd60e51b8152600401610494906128e9565b60405180910390fd5b6104d960405180604001604052806019815260200178616a6f7574657241646d696e206964202573206e6f6d20257360381b8152508484611a39565b6001600160a01b0383166104ff5760405162461bcd60e51b815260040161049490612920565b604080518082019091526001600160a01b0384811682526020820184815260018054808201825560009190915283517fb10e2d527612073b26eecdfd717e6a320cf44b4afac2b0732d9fcbe2b7fa0cf6600290920291820180546001600160a01b0319169190941617835590517fb10e2d527612073b26eecdfd717e6a320cf44b4afac2b0732d9fcbe2b7fa0cf79091019061059b9082612a2f565b505050505050565b60408051602081019091526000808252606091905b600254811015610715576000600282815481106105d7576105d7612ae9565b60009182526020918290206040805180820190915260029092020180546001600160a01b03168252600181018054929391929184019161061690612946565b80601f016020809104026020016040519081016040528092919081815260200182805461064290612946565b801561068f5780601f106106645761010080835404028352916020019161068f565b820191906000526020600020905b81548152906001019060200180831161067257829003601f168201915b5050505050815250509050846001600160a01b031681600001516001600160a01b031603610702576106fa6040518060400160405280602081526020017f676574436c69656e74427941646472657373205f636c69656e742e69642025738152508260000151611a80565b806020015192505b508061070d81612b15565b9150506105b8565b5061075160405180604001604052806019815260200178676574436c69656e74427941646472657373206e6f6d20257360381b81525082611ac5565b92915050565b606060006107648361082b565b60408051600081526020810180835281519020929350610786918491016128c1565b60405160208183030381529060405280519060200120036107f3576107aa836115f9565b604080516000815260208101808352815190209293506107cc918491016128c1565b60405160208183030381529060405280519060200120036107f3576107f0836105a3565b90505b610751604051806040016040528060168152602001756765744e6f6d427941646472657373206e6f6d20257360501b81525082611ac5565b60408051602081019091526000808252606091905b60015481101561099d5760006001828154811061085f5761085f612ae9565b60009182526020918290206040805180820190915260029092020180546001600160a01b03168252600181018054929391929184019161089e90612946565b80601f01602080910402602001604051908101604052809291908181526020018280546108ca90612946565b80156109175780601f106108ec57610100808354040283529160200191610917565b820191906000526020600020905b8154815290600101906020018083116108fa57829003601f168201915b5050505050815250509050846001600160a01b031681600001516001600160a01b03160361098a576109826040518060400160405280601e81526020017f67657441646d696e427941646472657373205f61646d696e2e696420257300008152508260000151611a80565b806020015192505b508061099581612b15565b915050610840565b506107516040518060400160405280601b81526020017a6765744e6f6d41646d696e427941646472657373206e6f6d20257360281b81525082611ac5565b6109e3611b0a565b6109ec82611baf565b6109f68282611bb7565b5050565b6000610a04611c6a565b50600080516020612e1483398151915290565b60005433906001600160a01b0316811480610a72575060408051600081526020810191829052519020610a498261082b565b604051602001610a5991906128c1565b6040516020818303038152906040528051906020012014155b610a8e5760405162461bcd60e51b8152600401610494906128e9565b610acb6040518060400160405280601b81526020017a039bab8383934b6b2b92337bab93734b9b9b2bab91034b21012b99602d1b81525083611a80565b6001600160a01b038216610af15760405162461bcd60e51b815260040161049490612920565b6000610afc83611cb3565b90508061270f14610bfd57805b600354610b1890600190612b2e565b811015610bb5576003610b2c826001612b41565b81548110610b3c57610b3c612ae9565b906000526020600020906002020160038281548110610b5d57610b5d612ae9565b60009182526020909120825460029092020180546001600160a01b0319166001600160a01b03909216919091178155600180820190610b9e90840182612b5f565b509050508080610bad90612b15565b915050610b09565b506003805480610bc757610bc7612c16565b60008281526020812060026000199093019283020180546001600160a01b031916815590610bf86001830182612481565b505090555b505050565b610c0a611e16565b610c146000611e48565b565b60408051808201825260068152654e6f526f6c6560d01b602080830191909152825160008152908101928390525190912060609190610c548461082b565b604051602001610c6491906128c1565b6040516020818303038152906040528051906020012014610ca257505060408051808201909152600581526420b236b4b760d91b6020820152919050565b60408051600081526020810191829052519020610cbe846115f9565b604051602001610cce91906128c1565b6040516020818303038152906040528051906020012014610d1257505060408051808201909152600b81526a2337bab93734b9b9b2bab960a91b6020820152919050565b60408051600081526020810191829052519020610d2e846105a3565b604051602001610d3e91906128c1565b6040516020818303038152906040528051906020012014610d7d57505060408051808201909152600681526510db1a595b9d60d21b6020820152919050565b61075160405180604001604052806018815260200177676574526f6c6542794164647265737320726f6c6520257360401b81525082611ac5565b60606003805480602002602001604051908101604052809291908181526020016000905b82821015610eb4576000848152602090819020604080518082019091526002850290910180546001600160a01b031682526001810180549293919291840191610e2390612946565b80601f0160208091040260200160405190810160405280929190818152602001828054610e4f90612946565b8015610e9c5780601f10610e7157610100808354040283529160200191610e9c565b820191906000526020600020905b815481529060010190602001808311610e7f57829003601f168201915b50505050508152505081526020019060010190610ddb565b50505050905090565b6000610ec7611ea4565b805490915060ff600160401b82041615906001600160401b0316600081158015610eee5750825b90506000826001600160401b03166001148015610f0a5750303b155b905081158015610f18575080155b15610f365760405163f92ee8a960e01b815260040160405180910390fd5b845467ffffffffffffffff191660011785558315610f6057845460ff60401b1916600160401b1785555b610f6933611ec8565b610f71611ed9565b8315610fbc57845460ff60401b191685556040517fc7f505b2f371ae2175ee4913f4499e1f2633a7b5936321eed1cdaeb6115181d290610fb390600190612c46565b60405180910390a15b5050505050565b60005433906001600160a01b031681148061101e575060408051600081526020810191829052519020610ff58261082b565b60405160200161100591906128c1565b6040516020818303038152906040528051906020012014155b61103a5760405162461bcd60e51b8152600401610494906128e9565b61107360405180604001604052806016815260200175726563657074696f6e206964202573206e6f6d20257360501b8152508484611a39565b6001600160a01b0383166110995760405162461bcd60e51b815260040161049490612920565b604080518082019091526001600160a01b038481168252602082018481526003805460018101825560009190915283517fc2575a0e9e593c00f959f8c92f12db2869c3395a3b0502d05e2516446f71f85b600290920291820180546001600160a01b0319169190941617835590517fc2575a0e9e593c00f959f8c92f12db2869c3395a3b0502d05e2516446f71f85c9091019061059b9082612a2f565b600080611141611ee1565b546001600160a01b031692915050565b611159611e16565b600080546001600160a01b0319166001600160a01b0392909216919091179055565b60606002805480602002602001604051908101604052809291908181526020016000905b82821015610eb4576000848152602090819020604080518082019091526002850290910180546001600160a01b0316825260018101805492939192918401916111e790612946565b80601f016020809104026020016040519081016040528092919081815260200182805461121390612946565b80156112605780601f1061123557610100808354040283529160200191611260565b820191906000526020600020905b81548152906001019060200180831161124357829003601f168201915b5050505050815250508152602001906001019061119f565b60005433906001600160a01b03168114806112d35750604080516000815260208101918290525190206112aa8261082b565b6040516020016112ba91906128c1565b6040516020818303038152906040528051906020012014155b6112ef5760405162461bcd60e51b8152600401610494906128e9565b61132660405180604001604052806015815260200174039bab8383934b6b2b920b236b4b71034b21012b99605d1b81525083611a80565b6001600160a01b03821661134c5760405162461bcd60e51b815260040161049490612920565b6000546001600160a01b039081169083160361137a5760405162461bcd60e51b815260040161049490612c79565b600061138583611f05565b90508061270f14610bfd57805b600180546113a09190612b2e565b81101561143c5760016113b38282612b41565b815481106113c3576113c3612ae9565b9060005260206000209060020201600182815481106113e4576113e4612ae9565b60009182526020909120825460029092020180546001600160a01b0319166001600160a01b0390921691909117815560018082019061142590840182612b5f565b50905050808061143490612b15565b915050611392565b506001805480610bc757610bc7612c16565b60005433906001600160a01b03168114806114a95750604080516000815260208101918290525190206114808261082b565b60405160200161149091906128c1565b6040516020818303038152906040528051906020012014155b6114c55760405162461bcd60e51b8152600401610494906128e9565b6114fd60405180604001604052806016815260200175039bab8383934b6b2b921b634b2b73a1034b21012b9960551b81525083611a80565b6001600160a01b0382166115235760405162461bcd60e51b815260040161049490612920565b600061152e83612085565b90508061270f14610bfd57805b60025461154a90600190612b2e565b8110156115e757600261155e826001612b41565b8154811061156e5761156e612ae9565b90600052602060002090600202016002828154811061158f5761158f612ae9565b60009182526020909120825460029092020180546001600160a01b0319166001600160a01b039092169190911781556001808201906115d090840182612b5f565b5090505080806115df90612b15565b91505061153b565b506002805480610bc757610bc7612c16565b60408051602081019091526000808252606091905b60035481101561174b5760006003828154811061162d5761162d612ae9565b60009182526020918290206040805180820190915260029092020180546001600160a01b03168252600181018054929391929184019161166c90612946565b80601f016020809104026020016040519081016040528092919081815260200182805461169890612946565b80156116e55780601f106116ba576101008083540402835291602001916116e5565b820191906000526020600020905b8154815290600101906020018083116116c857829003601f168201915b5050505050815250509050846001600160a01b031681600001516001600160a01b031603611738576117306040518060600160405280602a8152602001612d53602a91398251611a80565b806020015192505b508061174381612b15565b91505061160e565b506107516040518060400160405280601e81526020017f676574466f75726e697373657572427941646472657373206e6f6d202573000081525082611ac5565b60606001805480602002602001604051908101604052809291908181526020016000905b82821015610eb4576000848152602090819020604080518082019091526002850290910180546001600160a01b0316825260018101805492939192918401916117f790612946565b80601f016020809104026020016040519081016040528092919081815260200182805461182390612946565b80156118705780601f1061184557610100808354040283529160200191611870565b820191906000526020600020905b81548152906001019060200180831161185357829003601f168201915b505050505081525050815260200190600101906117af565b611890611e16565b6001600160a01b0381166118ba576000604051631e4fbdf760e01b815260040161049491906127bf565b6118c381611e48565b50565b60005433906001600160a01b03168114806119215750604080516000815260208101918290525190206118f88261082b565b60405160200161190891906128c1565b6040516020818303038152906040528051906020012014155b61193d5760405162461bcd60e51b8152600401610494906128e9565b61197660405180604001604052806016815260200175726563657074696f6e206964202573206e6f6d20257360501b8152508484611a39565b6001600160a01b03831661199c5760405162461bcd60e51b815260040161049490612920565b604080518082019091526001600160a01b03808516825260208201848152600280546001810182556000829052845191027f405787fa12a823e0f2b7631cc41b3ba8828b3321ca811111fa75cd3aa3bb5ace81018054929094166001600160a01b031990921691909117835590517f405787fa12a823e0f2b7631cc41b3ba8828b3321ca811111fa75cd3aa3bb5acf9091019061059b9082612a2f565b610bfd838383604051602401611a5193929190612c89565b60408051601f198184030181529190526020810180516001600160e01b031663e0e9ad4f60e01b179052612205565b6109f68282604051602401611a96929190612cbb565b60408051601f198184030181529190526020810180516001600160e01b031663319af33360e01b179052612205565b6109f68282604051602401611adb929190612cdb565b60408051601f198184030181529190526020810180516001600160e01b0316634b5c427760e01b179052612205565b306001600160a01b037f0000000000000000000000000000000000000000000000000000000000000000161480611b9157507f00000000000000000000000000000000000000000000000000000000000000006001600160a01b0316611b85600080516020612e14833981519152546001600160a01b031690565b6001600160a01b031614155b15610c145760405163703e46dd60e11b815260040160405180910390fd5b6118c3611e16565b816001600160a01b03166352d1902d6040518163ffffffff1660e01b8152600401602060405180830381865afa925050508015611c11575060408051601f3d908101601f19168201909252611c0e91810190612d11565b60015b611c305781604051634c9c8ce360e01b815260040161049491906127bf565b600080516020612e148339815191528114611c605780604051632a87526960e21b815260040161049491906126f5565b610bfd838361220e565b306001600160a01b037f00000000000000000000000000000000000000000000000000000000000000001614610c145760405163703e46dd60e11b815260040160405180910390fd5b600061270f815b600354811015611df357600060038281548110611cd957611cd9612ae9565b60009182526020918290206040805180820190915260029092020180546001600160a01b031682526001810180549293919291840191611d1890612946565b80601f0160208091040260200160405190810160405280929190818152602001828054611d4490612946565b8015611d915780601f10611d6657610100808354040283529160200191611d91565b820191906000526020600020905b815481529060010190602001808311611d7457829003601f168201915b5050505050815250509050846001600160a01b031681600001516001600160a01b031603611de057611ddc6040518060600160405280602e8152602001612de6602e91398251611a80565b8192505b5080611deb81612b15565b915050611cba565b50610751604051806060016040528060238152602001612dc36023913982612264565b33611e1f611136565b6001600160a01b031614610c14573360405163118cdaa760e01b815260040161049491906127bf565b6000611e52611ee1565b80546001600160a01b038481166001600160a01b031983168117845560405193945091169182907f8be0079c531659141344cd1fd0a4f28419497f9722a3daafe3b4186f6b6457e090600090a3505050565b7ff0c57e16840df040f15088dc2f81fe391c3923bec73e23a9662efc9c229c6a0090565b611ed06122a9565b6118c3816122ce565b610c146122a9565b7f9016d09d72d40fdae2fd8ceac6b6234c7706214fd39c1cd1e609a0528c19930090565b600061270f815b60015481101561204557600060018281548110611f2b57611f2b612ae9565b60009182526020918290206040805180820190915260029092020180546001600160a01b031682526001810180549293919291840191611f6a90612946565b80601f0160208091040260200160405190810160405280929190818152602001828054611f9690612946565b8015611fe35780601f10611fb857610100808354040283529160200191611fe3565b820191906000526020600020905b815481529060010190602001808311611fc657829003601f168201915b5050505050815250509050846001600160a01b031681600001516001600160a01b0316036120325761202e604051806060016040528060228152602001612d7d602291398251611a80565b8192505b508061203d81612b15565b915050611f0c565b506107516040518060400160405280601d81526020017f67657452616e6741646d696e4279416464726573732072616e6720257300000081525082612264565b600061270f815b6002548110156121c5576000600282815481106120ab576120ab612ae9565b60009182526020918290206040805180820190915260029092020180546001600160a01b0316825260018101805492939192918401916120ea90612946565b80601f016020809104026020016040519081016040528092919081815260200182805461211690612946565b80156121635780601f1061213857610100808354040283529160200191612163565b820191906000526020600020905b81548152906001019060200180831161214657829003601f168201915b5050505050815250509050846001600160a01b031681600001516001600160a01b0316036121b2576121ae604051806060016040528060248152602001612d9f602491398251611a80565b8192505b50806121bd81612b15565b91505061208c565b506107516040518060400160405280601e81526020017f67657452616e67436c69656e744279416464726573732072616e67202573000081525082612264565b6118c3816122d6565b612217826122f7565b6040516001600160a01b038316907fbc7cd75a20ee27fd9adebab32041f755214dbc6bffa90cc0225b39da2e5c2d3b90600090a280511561225c57610bfd8282612353565b6109f66123c9565b6109f6828260405160240161227a929190612d32565b60408051601f198184030181529190526020810180516001600160e01b0316632d839cb360e21b179052612205565b6122b16123e8565b610c1457604051631afcd79f60e31b815260040160405180910390fd5b6118906122a9565b60006a636f6e736f6c652e6c6f679050600080835160208501845afa505050565b806001600160a01b03163b6000036123245780604051634c9c8ce360e01b815260040161049491906127bf565b600080516020612e1483398151915280546001600160a01b0319166001600160a01b0392909216919091179055565b6060600080846001600160a01b03168460405161237091906128c1565b600060405180830381855af49150503d80600081146123ab576040519150601f19603f3d011682016040523d82523d6000602084013e6123b0565b606091505b50915091506123c0858383612402565b95945050505050565b3415610c145760405163b398979f60e01b815260040160405180910390fd5b60006123f2611ea4565b54600160401b900460ff16919050565b6060826124175761241282612458565b612451565b815115801561242e57506001600160a01b0384163b155b1561244e5783604051639996b31560e01b815260040161049491906127bf565b50805b9392505050565b8051156124685780518082602001fd5b604051630a12f52160e11b815260040160405180910390fd5b50805461248d90612946565b6000825580601f1061249d575050565b601f0160209004906000526020600020908101906118c391905b808211156124cb57600081556001016124b7565b5090565b60005b838110156124ea5781810151838201526020016124d2565b50506000910152565b601f01601f191690565b6000612507825190565b80845260208401935061251e8185602086016124cf565b612527816124f3565b9093019392505050565b6020808252810161245181846124fd565b60006001600160a01b038216610751565b61255c81612542565b81146118c357600080fd5b803561075181612553565b634e487b7160e01b600052604160045260246000fd5b612591826124f3565b81018181106001600160401b03821117156125ae576125ae612572565b6040525050565b60006125c060405190565b90506125cc8282612588565b919050565b60006001600160401b038211156125ea576125ea612572565b6125f3826124f3565b60200192915050565b82818337506000910152565b600061261b612616846125d1565b6125b5565b90508281526020810184848401111561263657612636600080fd5b6126418482856125fc565b509392505050565b600082601f83011261265d5761265d600080fd5b813561266d848260208601612608565b949350505050565b6000806040838503121561268b5761268b600080fd5b60006126978585612567565b92505060208301356001600160401b038111156126b6576126b6600080fd5b6126c285828601612649565b9150509250929050565b6000602082840312156126e1576126e1600080fd5b600061266d8484612567565b805b82525050565b6020810161075182846126ed565b6126ef81612542565b805160009060408401906127208582612703565b50602083015184820360208601526123c082826124fd565b6000612451838361270c565b60200190565b6000612754825190565b8084526020840193508360208202850161276e8560200190565b60005b848110156127a2578383038852815161278a8482612738565b93505060208201602098909801979150600101612771565b50909695505050505050565b60208082528101612451818461274a565b602081016107518284612703565b60006127d7825190565b808452602084019350836020820285016127f18560200190565b60005b848110156127a2578383038852815161280d8482612738565b935050602082016020989098019791506001016127f4565b6020808252810161245181846127cd565b6000612840825190565b8084526020840193508360208202850161285a8560200190565b60005b848110156127a257838303885281516128768482612738565b9350506020820160209890980197915060010161285d565b602080825281016124518184612836565b60006128a9825190565b6128b78185602086016124cf565b9290920192915050565b610751818361289f565b6009815260208101682737ba1020b236b4b760b91b81529050612744565b60208082528101610751816128cb565b60128152602081017141646472657373206e6f742076616c69646560701b81529050612744565b60208082528101610751816128f9565b634e487b7160e01b600052602260045260246000fd5b60028104600182168061295a57607f821691505b60208210810361296c5761296c612930565b50919050565b600061075161297e8381565b90565b61298a83612972565b815460001960089490940293841b1916921b91909117905550565b6000610bfd818484612981565b818110156109f6576129c56000826129a5565b6001016129b2565b601f821115610bfd576000818152602090206020601f850104810160208510156129f45750805b610fbc6020601f8601048301826129b2565b6000196008929092029190911c191690565b612a228282612a06565b6002909202909117919050565b81516001600160401b03811115612a4857612a48612572565b612a528254612946565b612a5d8282856129cd565b506020601f821160018114612a8c5760008315612a7a5750848201515b612a848482612a18565b855550610fbc565b600084815260208120601f198516915b82811015612abc5787850151825560209485019460019092019101612a9c565b5084821015612ada5783870151612ad6601f871682612a06565b8255505b50505050600202600101905550565b634e487b7160e01b600052603260045260246000fd5b634e487b7160e01b600052601160045260246000fd5b600060018201612b2757612b27612aff565b5060010190565b8181038181111561075157610751612aff565b8082018082111561075157610751612aff565b805461075181612946565b818103612b6a575050565b612b7382612b54565b6001600160401b03811115612b8a57612b8a612572565b612b948254612946565b612b9f8282856129cd565b506000601f821160018114612bc55760008315612a7a575084820154612a848482612a18565b600094855260208086208587529520601f19841690835b82811015612bfc5787850154825560019485019490910190602001612bdc565b5084821015612ada5783870154612ad6601f871682612a06565b634e487b7160e01b600052603160045260246000fd5b60006001600160401b038216610751565b6126ef81612c2c565b602081016107518284612c3d565b60108152602081016f13dddb995c88191d4818dbdb9d1c985d60821b81529050612744565b6020808252810161075181612c54565b60608082528101612c9a81866124fd565b9050612ca96020830185612703565b81810360408301526123c081846124fd565b60408082528101612ccc81856124fd565b90506124516020830184612703565b60408082528101612cec81856124fd565b9050818103602083015261266d81846124fd565b8061255c565b805161075181612d00565b600060208284031215612d2657612d26600080fd5b600061266d8484612d06565b60408082528101612d4381856124fd565b905061245160208301846126ed56fe676574466f75726e697373657572427941646472657373205f666f75726e6973736575722e696420257367657452616e6741646d696e427941646472657373205f61646d696e2e696420257367657452616e67436c69656e74427941646472657373205f636c69656e742e696420257367657452616e67466f75726e6973736575724279416464726573732072616e6720257367657452616e67466f75726e697373657572427941646472657373205f666f75726e6973736575722e6964202573360894a13ba1a3210667c828492db98dca3e2076cc3735a920a3ca505d382bbca26469706673582212202152f545c9fea9d100d9af06213b1ae712ff56ba854fb17f9153231a1cefe6eb64736f6c63430008150033",
  "linkReferences": {},
  "deployedLinkReferences": {}
}